{
  "_format": "hh-sol-artifact-1",
  "contractName": "BaseRewardEscrowV2",
  "sourceName": "contracts/BaseRewardEscrowV2.sol",
  "abi": [
    {
      "inputs": [
        {
          "internalType": "address",
          "name": "_owner",
          "type": "address"
        },
        {
          "internalType": "address",
          "name": "_resolver",
          "type": "address"
        }
      ],
      "payable": false,
      "stateMutability": "nonpayable",
      "type": "constructor"
    },
    {
      "anonymous": false,
      "inputs": [
        {
          "indexed": true,
          "internalType": "address",
          "name": "accountToMerge",
          "type": "address"
        },
        {
          "indexed": false,
          "internalType": "address",
          "name": "destinationAddress",
          "type": "address"
        },
        {
          "indexed": false,
          "internalType": "uint256",
          "name": "escrowAmountMerged",
          "type": "uint256"
        },
        {
          "indexed": false,
          "internalType": "uint256[]",
          "name": "entryIDs",
          "type": "uint256[]"
        },
        {
          "indexed": false,
          "internalType": "uint256",
          "name": "time",
          "type": "uint256"
        }
      ],
      "name": "AccountMerged",
      "type": "event"
    },
    {
      "anonymous": false,
      "inputs": [
        {
          "indexed": false,
          "internalType": "uint256",
          "name": "newDuration",
          "type": "uint256"
        }
      ],
      "name": "AccountMergingDurationUpdated",
      "type": "event"
    },
    {
      "anonymous": false,
      "inputs": [
        {
          "indexed": false,
          "internalType": "uint256",
          "name": "time",
          "type": "uint256"
        },
        {
          "indexed": false,
          "internalType": "uint256",
          "name": "endTime",
          "type": "uint256"
        }
      ],
      "name": "AccountMergingStarted",
      "type": "event"
    },
    {
      "anonymous": false,
      "inputs": [
        {
          "indexed": false,
          "internalType": "bytes32",
          "name": "name",
          "type": "bytes32"
        },
        {
          "indexed": false,
          "internalType": "address",
          "name": "destination",
          "type": "address"
        }
      ],
      "name": "CacheUpdated",
      "type": "event"
    },
    {
      "anonymous": false,
      "inputs": [
        {
          "indexed": false,
          "internalType": "uint256",
          "name": "newDuration",
          "type": "uint256"
        }
      ],
      "name": "MaxAccountMergingDurationUpdated",
      "type": "event"
    },
    {
      "anonymous": false,
      "inputs": [
        {
          "indexed": false,
          "internalType": "uint256",
          "name": "newDuration",
          "type": "uint256"
        }
      ],
      "name": "MaxEscrowDurationUpdated",
      "type": "event"
    },
    {
      "anonymous": false,
      "inputs": [
        {
          "indexed": true,
          "internalType": "address",
          "name": "account",
          "type": "address"
        },
        {
          "indexed": false,
          "internalType": "address",
          "name": "destination",
          "type": "address"
        }
      ],
      "name": "NominateAccountToMerge",
      "type": "event"
    },
    {
      "anonymous": false,
      "inputs": [
        {
          "indexed": false,
          "internalType": "address",
          "name": "oldOwner",
          "type": "address"
        },
        {
          "indexed": false,
          "internalType": "address",
          "name": "newOwner",
          "type": "address"
        }
      ],
      "name": "OwnerChanged",
      "type": "event"
    },
    {
      "anonymous": false,
      "inputs": [
        {
          "indexed": false,
          "internalType": "address",
          "name": "newOwner",
          "type": "address"
        }
      ],
      "name": "OwnerNominated",
      "type": "event"
    },
    {
      "anonymous": false,
      "inputs": [
        {
          "indexed": true,
          "internalType": "address",
          "name": "beneficiary",
          "type": "address"
        },
        {
          "indexed": false,
          "internalType": "uint256",
          "name": "time",
          "type": "uint256"
        },
        {
          "indexed": false,
          "internalType": "uint256",
          "name": "value",
          "type": "uint256"
        }
      ],
      "name": "Vested",
      "type": "event"
    },
    {
      "anonymous": false,
      "inputs": [
        {
          "indexed": true,
          "internalType": "address",
          "name": "beneficiary",
          "type": "address"
        },
        {
          "indexed": false,
          "internalType": "uint256",
          "name": "time",
          "type": "uint256"
        },
        {
          "indexed": false,
          "internalType": "uint256",
          "name": "value",
          "type": "uint256"
        },
        {
          "indexed": false,
          "internalType": "uint256",
          "name": "duration",
          "type": "uint256"
        },
        {
          "indexed": false,
          "internalType": "uint256",
          "name": "entryID",
          "type": "uint256"
        }
      ],
      "name": "VestingEntryCreated",
      "type": "event"
    },
    {
      "constant": false,
      "inputs": [],
      "name": "acceptOwnership",
      "outputs": [],
      "payable": false,
      "stateMutability": "nonpayable",
      "type": "function"
    },
    {
      "constant": true,
      "inputs": [],
      "name": "accountMergingDuration",
      "outputs": [
        {
          "internalType": "uint256",
          "name": "",
          "type": "uint256"
        }
      ],
      "payable": false,
      "stateMutability": "view",
      "type": "function"
    },
    {
      "constant": true,
      "inputs": [],
      "name": "accountMergingIsOpen",
      "outputs": [
        {
          "internalType": "bool",
          "name": "",
          "type": "bool"
        }
      ],
      "payable": false,
      "stateMutability": "view",
      "type": "function"
    },
    {
      "constant": true,
      "inputs": [],
      "name": "accountMergingStartTime",
      "outputs": [
        {
          "internalType": "uint256",
          "name": "",
          "type": "uint256"
        }
      ],
      "payable": false,
      "stateMutability": "view",
      "type": "function"
    },
    {
      "constant": true,
      "inputs": [
        {
          "internalType": "address",
          "name": "",
          "type": "address"
        },
        {
          "internalType": "uint256",
          "name": "",
          "type": "uint256"
        }
      ],
      "name": "accountVestingEntryIDs",
      "outputs": [
        {
          "internalType": "uint256",
          "name": "",
          "type": "uint256"
        }
      ],
      "payable": false,
      "stateMutability": "view",
      "type": "function"
    },
    {
      "constant": false,
      "inputs": [
        {
          "internalType": "address",
          "name": "account",
          "type": "address"
        },
        {
          "internalType": "uint256",
          "name": "quantity",
          "type": "uint256"
        },
        {
          "internalType": "uint256",
          "name": "duration",
          "type": "uint256"
        }
      ],
      "name": "appendVestingEntry",
      "outputs": [],
      "payable": false,
      "stateMutability": "nonpayable",
      "type": "function"
    },
    {
      "constant": true,
      "inputs": [
        {
          "internalType": "address",
          "name": "account",
          "type": "address"
        }
      ],
      "name": "balanceOf",
      "outputs": [
        {
          "internalType": "uint256",
          "name": "",
          "type": "uint256"
        }
      ],
      "payable": false,
      "stateMutability": "view",
      "type": "function"
    },
    {
      "constant": false,
      "inputs": [
        {
          "internalType": "address",
          "name": "",
          "type": "address"
        },
        {
          "internalType": "uint256[]",
          "name": "",
          "type": "uint256[]"
        }
      ],
      "name": "burnForMigration",
      "outputs": [
        {
          "internalType": "uint256",
          "name": "",
          "type": "uint256"
        },
        {
          "components": [
            {
              "internalType": "uint64",
              "name": "endTime",
              "type": "uint64"
            },
            {
              "internalType": "uint256",
              "name": "escrowAmount",
              "type": "uint256"
            }
          ],
          "internalType": "struct VestingEntries.VestingEntry[]",
          "name": "",
          "type": "tuple[]"
        }
      ],
      "payable": false,
      "stateMutability": "nonpayable",
      "type": "function"
    },
    {
      "constant": false,
      "inputs": [
        {
          "internalType": "address",
          "name": "beneficiary",
          "type": "address"
        },
        {
          "internalType": "uint256",
          "name": "deposit",
          "type": "uint256"
        },
        {
          "internalType": "uint256",
          "name": "duration",
          "type": "uint256"
        }
      ],
      "name": "createEscrowEntry",
      "outputs": [],
      "payable": false,
      "stateMutability": "nonpayable",
      "type": "function"
    },
    {
      "constant": true,
      "inputs": [
        {
          "internalType": "address",
          "name": "account",
          "type": "address"
        },
        {
          "internalType": "uint256",
          "name": "index",
          "type": "uint256"
        },
        {
          "internalType": "uint256",
          "name": "pageSize",
          "type": "uint256"
        }
      ],
      "name": "getAccountVestingEntryIDs",
      "outputs": [
        {
          "internalType": "uint256[]",
          "name": "",
          "type": "uint256[]"
        }
      ],
      "payable": false,
      "stateMutability": "view",
      "type": "function"
    },
    {
      "constant": true,
      "inputs": [
        {
          "internalType": "address",
          "name": "account",
          "type": "address"
        },
        {
          "internalType": "uint256",
          "name": "entryID",
          "type": "uint256"
        }
      ],
      "name": "getVestingEntry",
      "outputs": [
        {
          "internalType": "uint64",
          "name": "endTime",
          "type": "uint64"
        },
        {
          "internalType": "uint256",
          "name": "escrowAmount",
          "type": "uint256"
        }
      ],
      "payable": false,
      "stateMutability": "view",
      "type": "function"
    },
    {
      "constant": true,
      "inputs": [
        {
          "internalType": "address",
          "name": "account",
          "type": "address"
        },
        {
          "internalType": "uint256",
          "name": "entryID",
          "type": "uint256"
        }
      ],
      "name": "getVestingEntryClaimable",
      "outputs": [
        {
          "internalType": "uint256",
          "name": "",
          "type": "uint256"
        }
      ],
      "payable": false,
      "stateMutability": "view",
      "type": "function"
    },
    {
      "constant": true,
      "inputs": [
        {
          "internalType": "address",
          "name": "account",
          "type": "address"
        },
        {
          "internalType": "uint256[]",
          "name": "entryIDs",
          "type": "uint256[]"
        }
      ],
      "name": "getVestingQuantity",
      "outputs": [
        {
          "internalType": "uint256",
          "name": "total",
          "type": "uint256"
        }
      ],
      "payable": false,
      "stateMutability": "view",
      "type": "function"
    },
    {
      "constant": true,
      "inputs": [
        {
          "internalType": "address",
          "name": "account",
          "type": "address"
        },
        {
          "internalType": "uint256",
          "name": "index",
          "type": "uint256"
        },
        {
          "internalType": "uint256",
          "name": "pageSize",
          "type": "uint256"
        }
      ],
      "name": "getVestingSchedules",
      "outputs": [
        {
          "components": [
            {
              "internalType": "uint64",
              "name": "endTime",
              "type": "uint64"
            },
            {
              "internalType": "uint256",
              "name": "escrowAmount",
              "type": "uint256"
            },
            {
              "internalType": "uint256",
              "name": "entryID",
              "type": "uint256"
            }
          ],
          "internalType": "struct VestingEntries.VestingEntryWithID[]",
          "name": "",
          "type": "tuple[]"
        }
      ],
      "payable": false,
      "stateMutability": "view",
      "type": "function"
    },
    {
      "constant": false,
      "inputs": [
        {
          "internalType": "address",
          "name": "",
          "type": "address"
        },
        {
          "internalType": "uint256",
          "name": "",
          "type": "uint256"
        },
        {
          "components": [
            {
              "internalType": "uint64",
              "name": "endTime",
              "type": "uint64"
            },
            {
              "internalType": "uint256",
              "name": "escrowAmount",
              "type": "uint256"
            }
          ],
          "internalType": "struct VestingEntries.VestingEntry[]",
          "name": "",
          "type": "tuple[]"
        }
      ],
      "name": "importVestingEntries",
      "outputs": [],
      "payable": false,
      "stateMutability": "nonpayable",
      "type": "function"
    },
    {
      "constant": true,
      "inputs": [],
      "name": "isResolverCached",
      "outputs": [
        {
          "internalType": "bool",
          "name": "",
          "type": "bool"
        }
      ],
      "payable": false,
      "stateMutability": "view",
      "type": "function"
    },
    {
      "constant": true,
      "inputs": [],
      "name": "maxAccountMergingDuration",
      "outputs": [
        {
          "internalType": "uint256",
          "name": "",
          "type": "uint256"
        }
      ],
      "payable": false,
      "stateMutability": "view",
      "type": "function"
    },
    {
      "constant": true,
      "inputs": [],
      "name": "max_duration",
      "outputs": [
        {
          "internalType": "uint256",
          "name": "",
          "type": "uint256"
        }
      ],
      "payable": false,
      "stateMutability": "view",
      "type": "function"
    },
    {
      "constant": false,
      "inputs": [
        {
          "internalType": "address",
          "name": "accountToMerge",
          "type": "address"
        },
        {
          "internalType": "uint256[]",
          "name": "entryIDs",
          "type": "uint256[]"
        }
      ],
      "name": "mergeAccount",
      "outputs": [],
      "payable": false,
      "stateMutability": "nonpayable",
      "type": "function"
    },
    {
      "constant": false,
      "inputs": [
        {
          "internalType": "address[]",
          "name": "",
          "type": "address[]"
        },
        {
          "internalType": "uint256[]",
          "name": "",
          "type": "uint256[]"
        },
        {
          "internalType": "uint256[]",
          "name": "",
          "type": "uint256[]"
        }
      ],
      "name": "migrateAccountEscrowBalances",
      "outputs": [],
      "payable": false,
      "stateMutability": "nonpayable",
      "type": "function"
    },
    {
      "constant": false,
      "inputs": [
        {
          "internalType": "address",
          "name": "",
          "type": "address"
        }
      ],
      "name": "migrateVestingSchedule",
      "outputs": [],
      "payable": false,
      "stateMutability": "nonpayable",
      "type": "function"
    },
    {
      "constant": true,
      "inputs": [],
      "name": "nextEntryId",
      "outputs": [
        {
          "internalType": "uint256",
          "name": "",
          "type": "uint256"
        }
      ],
      "payable": false,
      "stateMutability": "view",
      "type": "function"
    },
    {
      "constant": false,
      "inputs": [
        {
          "internalType": "address",
          "name": "account",
          "type": "address"
        }
      ],
      "name": "nominateAccountToMerge",
      "outputs": [],
      "payable": false,
      "stateMutability": "nonpayable",
      "type": "function"
    },
    {
      "constant": false,
      "inputs": [
        {
          "internalType": "address",
          "name": "_owner",
          "type": "address"
        }
      ],
      "name": "nominateNewOwner",
      "outputs": [],
      "payable": false,
      "stateMutability": "nonpayable",
      "type": "function"
    },
    {
      "constant": true,
      "inputs": [],
      "name": "nominatedOwner",
      "outputs": [
        {
          "internalType": "address",
          "name": "",
          "type": "address"
        }
      ],
      "payable": false,
      "stateMutability": "view",
      "type": "function"
    },
    {
      "constant": true,
      "inputs": [
        {
          "internalType": "address",
          "name": "",
          "type": "address"
        }
      ],
      "name": "nominatedReceiver",
      "outputs": [
        {
          "internalType": "address",
          "name": "",
          "type": "address"
        }
      ],
      "payable": false,
      "stateMutability": "view",
      "type": "function"
    },
    {
      "constant": true,
      "inputs": [
        {
          "internalType": "address",
          "name": "account",
          "type": "address"
        }
      ],
      "name": "numVestingEntries",
      "outputs": [
        {
          "internalType": "uint256",
          "name": "",
          "type": "uint256"
        }
      ],
      "payable": false,
      "stateMutability": "view",
      "type": "function"
    },
    {
      "constant": true,
      "inputs": [],
      "name": "owner",
      "outputs": [
        {
          "internalType": "address",
          "name": "",
          "type": "address"
        }
      ],
      "payable": false,
      "stateMutability": "view",
      "type": "function"
    },
    {
      "constant": false,
      "inputs": [],
      "name": "rebuildCache",
      "outputs": [],
      "payable": false,
      "stateMutability": "nonpayable",
      "type": "function"
    },
    {
      "constant": true,
      "inputs": [],
      "name": "resolver",
      "outputs": [
        {
          "internalType": "contract AddressResolver",
          "name": "",
          "type": "address"
        }
      ],
      "payable": false,
      "stateMutability": "view",
      "type": "function"
    },
    {
      "constant": true,
      "inputs": [],
      "name": "resolverAddressesRequired",
      "outputs": [
        {
          "internalType": "bytes32[]",
          "name": "addresses",
          "type": "bytes32[]"
        }
      ],
      "payable": false,
      "stateMutability": "view",
      "type": "function"
    },
    {
      "constant": false,
      "inputs": [
        {
          "internalType": "uint256",
          "name": "duration",
          "type": "uint256"
        }
      ],
      "name": "setAccountMergingDuration",
      "outputs": [],
      "payable": false,
      "stateMutability": "nonpayable",
      "type": "function"
    },
    {
      "constant": false,
      "inputs": [
        {
          "internalType": "uint256",
          "name": "duration",
          "type": "uint256"
        }
      ],
      "name": "setMaxAccountMergingWindow",
      "outputs": [],
      "payable": false,
      "stateMutability": "nonpayable",
      "type": "function"
    },
    {
      "constant": false,
      "inputs": [
        {
          "internalType": "uint256",
          "name": "duration",
          "type": "uint256"
        }
      ],
      "name": "setMaxEscrowDuration",
      "outputs": [],
      "payable": false,
      "stateMutability": "nonpayable",
      "type": "function"
    },
    {
      "constant": true,
      "inputs": [],
      "name": "setupExpiryTime",
      "outputs": [
        {
          "internalType": "uint256",
          "name": "",
          "type": "uint256"
        }
      ],
      "payable": false,
      "stateMutability": "view",
      "type": "function"
    },
    {
      "constant": false,
      "inputs": [],
      "name": "startMergingWindow",
      "outputs": [],
      "payable": false,
      "stateMutability": "nonpayable",
      "type": "function"
    },
    {
      "constant": true,
      "inputs": [
        {
          "internalType": "address",
          "name": "",
          "type": "address"
        }
      ],
      "name": "totalEscrowedAccountBalance",
      "outputs": [
        {
          "internalType": "uint256",
          "name": "",
          "type": "uint256"
        }
      ],
      "payable": false,
      "stateMutability": "view",
      "type": "function"
    },
    {
      "constant": true,
      "inputs": [],
      "name": "totalEscrowedBalance",
      "outputs": [
        {
          "internalType": "uint256",
          "name": "",
          "type": "uint256"
        }
      ],
      "payable": false,
      "stateMutability": "view",
      "type": "function"
    },
    {
      "constant": true,
      "inputs": [
        {
          "internalType": "address",
          "name": "",
          "type": "address"
        }
      ],
      "name": "totalVestedAccountBalance",
      "outputs": [
        {
          "internalType": "uint256",
          "name": "",
          "type": "uint256"
        }
      ],
      "payable": false,
      "stateMutability": "view",
      "type": "function"
    },
    {
      "constant": false,
      "inputs": [
        {
          "internalType": "uint256[]",
          "name": "entryIDs",
          "type": "uint256[]"
        }
      ],
      "name": "vest",
      "outputs": [],
      "payable": false,
      "stateMutability": "nonpayable",
      "type": "function"
    },
    {
      "constant": true,
      "inputs": [
        {
          "internalType": "address",
          "name": "",
          "type": "address"
        },
        {
          "internalType": "uint256",
          "name": "",
          "type": "uint256"
        }
      ],
      "name": "vestingSchedules",
      "outputs": [
        {
          "internalType": "uint64",
          "name": "endTime",
          "type": "uint64"
        },
        {
          "internalType": "uint256",
          "name": "escrowAmount",
          "type": "uint256"
        }
      ],
      "payable": false,
      "stateMutability": "view",
      "type": "function"
    }
  ],
  "bytecode": "0x60806040526303bfc400600c556224ea00600d5562093a80600e553480156200002757600080fd5b506040516200472d3803806200472d83398181016040526200004d9190810190620001b6565b806249d40083600073ffffffffffffffffffffffffffffffffffffffff168173ffffffffffffffffffffffffffffffffffffffff161415620000c6576040517f08c379a0000000000000000000000000000000000000000000000000000000008152600401620000bd9062000288565b60405180910390fd5b806000806101000a81548173ffffffffffffffffffffffffffffffffffffffff021916908373ffffffffffffffffffffffffffffffffffffffff1602179055507fb532073b38c83145e3e5135377a08bf9aab55bc0fd7c1179cd4fb995d2a5159c6000826040516200013a9291906200025b565b60405180910390a1508042016002819055505080600360006101000a81548173ffffffffffffffffffffffffffffffffffffffff021916908373ffffffffffffffffffffffffffffffffffffffff160217905550506001600781905550505062000345565b600081519050620001b0816200032b565b92915050565b60008060408385031215620001ca57600080fd5b6000620001da858286016200019f565b9250506020620001ed858286016200019f565b9150509250929050565b6200020281620002ef565b82525050565b6200021381620002bb565b82525050565b600062000228601983620002aa565b91507f4f776e657220616464726573732063616e6e6f742062652030000000000000006000830152602082019050919050565b6000604082019050620002726000830185620001f7565b62000281602083018462000208565b9392505050565b60006020820190508181036000830152620002a38162000219565b9050919050565b600082825260208201905092915050565b6000620002c882620002cf565b9050919050565b600073ffffffffffffffffffffffffffffffffffffffff82169050919050565b6000620002fc8262000303565b9050919050565b6000620003108262000317565b9050919050565b60006200032482620002cf565b9050919050565b6200033681620002bb565b81146200034257600080fd5b50565b6143d880620003556000396000f3fe608060405234801561001057600080fd5b50600436106102535760003560e01c80636dc05bd31161014657806380d46f58116100c3578063ae58254911610087578063ae582549146106ed578063b95375bd1461071d578063cd7b43dd14610739578063e6b2cf6c14610755578063eac6248914610773578063f0b882ba146107a357610253565b806380d46f5814610646578063899ffef4146106775780638da5cb5b14610695578063910a326d146106b3578063a0416ed3146106d157610253565b8063773ab39f1161010a578063773ab39f146105b85780637839b92f146105e85780637993e6991461060457806379ba5097146106205780637cc1d7561461062a57610253565b80636dc05bd31461050057806370a082311461053057806371e780f31461056057806373307e401461057e57806374185360146105ae57610253565b806330104c5f116101d457806345626bd61161019857806345626bd61461044457806346ba2d901461047557806353a47bb7146104935780635eb8cf25146104b15780636154c343146104cf57610253565b806330104c5f1461038e578063326a3cfb146103be57806334c7fec9146103ee57806337088ffc1461040a5780634525aabc1461042857610253565b8063178c56551161021b578063178c5655146102ea5780631bb47b44146102f4578063204b676a14610310578063227d517a146103405780632af64bd31461037057610253565b8063018c6c551461025857806304f3bcec1461027457806305662986146102925780630fcdefb7146102b05780631627540c146102ce575b600080fd5b610272600480360361026d91908101906131b3565b6107bf565b005b61027c610808565b6040516102899190613e09565b60405180910390f35b61029a61082e565b6040516102a79190613d7a565b60405180910390f35b6102b861084e565b6040516102c59190614046565b60405180910390f35b6102e860048036036102e39190810190612f00565b610854565b005b6102f26108d7565b005b61030e60048036036103099190810190613052565b610939565b005b61032a60048036036103259190810190612f00565b6109be565b6040516103379190614046565b60405180910390f35b61035a60048036036103559190810190612f00565b610a0a565b6040516103679190614046565b60405180910390f35b610378610a22565b6040516103859190613d7a565b60405180910390f35b6103a860048036036103a39190810190612faa565b610bf7565b6040516103b59190614046565b60405180910390f35b6103d860048036036103d39190810190612f00565b610cac565b6040516103e59190614046565b60405180910390f35b61040860048036036104039190810190613145565b610cc4565b005b610412610def565b60405161041f9190614046565b60405180910390f35b610442600480360361043d91908101906131b3565b610df5565b005b61045e60048036036104599190810190612faa565b610e3e565b60405161046c9291906140ff565b60405180910390f35b61047d610e83565b60405161048a9190614046565b60405180910390f35b61049b610e89565b6040516104a89190613bd4565b60405180910390f35b6104b9610eaf565b6040516104c69190614046565b60405180910390f35b6104e960048036036104e49190810190612faa565b610eb5565b6040516104f79291906140ff565b60405180910390f35b61051a60048036036105159190810190612f52565b610f7f565b6040516105279190614046565b60405180910390f35b61054a60048036036105459190810190612f00565b61108b565b6040516105579190614046565b60405180910390f35b6105686110d4565b6040516105759190614046565b60405180910390f35b61059860048036036105939190810190612f00565b6110da565b6040516105a59190613bd4565b60405180910390f35b6105b661110d565b005b6105d260048036036105cd9190810190613052565b6112ae565b6040516105df9190613d36565b60405180910390f35b61060260048036036105fd9190810190612f00565b611541565b005b61061e600480360361061991908101906131b3565b61154c565b005b6106286115da565b005b610644600480360361063f9190810190612f00565b61178c565b005b610660600480360361065b9190810190612f52565b6119e3565b60405161066e929190614061565b60405180910390f35b61067f6119f7565b60405161068c9190613d14565b60405180910390f35b61069d611add565b6040516106aa9190613bd4565b60405180910390f35b6106bb611b02565b6040516106c89190614046565b60405180910390f35b6106eb60048036036106e69190810190613052565b611b08565b005b61070760048036036107029190810190612faa565b611c5d565b6040516107149190614046565b60405180910390f35b610737600480360361073291908101906130a1565b611c8b565b005b610753600480360361074e9190810190612fe6565b611c9b565b005b61075d611ca9565b60405161076a9190614046565b60405180910390f35b61078d60048036036107889190810190613052565b611caf565b60405161079a9190613d58565b60405180910390f35b6107bd60048036036107b89190810190612f52565b611e59565b005b6107c7612462565b80600d819055507fe829efae5d8a2f7163f46c23a8190bf14625c1e446561ca0f5cf279ab7c8015e816040516107fd9190614046565b60405180910390a150565b600360009054906101000a900473ffffffffffffffffffffffffffffffffffffffff1681565b600042610848600e54600f546124f390919063ffffffff16565b11905090565b600f5481565b61085c612462565b80600160006101000a81548173ffffffffffffffffffffffffffffffffffffffff021916908373ffffffffffffffffffffffffffffffffffffffff1602179055507f906a1c6bd7e3091ea86693dd029a831c19049ce77f1dce2ce0bab1cacbabce22816040516108cc9190613bd4565b60405180910390a150565b6108df612462565b42600f819055507fceade2b9bc02350b17075c94bb699508b89ed2752f501ea42024b1bb5fd34445600f54610921600e54600f546124f390919063ffffffff16565b60405161092f929190614091565b60405180910390a1565b610941612548565b73ffffffffffffffffffffffffffffffffffffffff163373ffffffffffffffffffffffffffffffffffffffff16146109ae576040517f08c379a00000000000000000000000000000000000000000000000000000000081526004016109a590614006565b60405180910390fd5b6109b9838383612578565b505050565b6000600660008373ffffffffffffffffffffffffffffffffffffffff1673ffffffffffffffffffffffffffffffffffffffff168152602001908152602001600020805490509050919050565b60096020528060005260406000206000915090505481565b60006060610a2e6119f7565b905060008090505b8151811015610bed576000828281518110610a4d57fe5b602002602001015190506004600082815260200190815260200160002060009054906101000a900473ffffffffffffffffffffffffffffffffffffffff1673ffffffffffffffffffffffffffffffffffffffff16600360009054906101000a900473ffffffffffffffffffffffffffffffffffffffff1673ffffffffffffffffffffffffffffffffffffffff166321f8a721836040518263ffffffff1660e01b8152600401610afc9190613d95565b60206040518083038186803b158015610b1457600080fd5b505afa158015610b28573d6000803e3d6000fd5b505050506040513d601f19601f82011682018060405250610b4c9190810190612f29565b73ffffffffffffffffffffffffffffffffffffffff16141580610bce5750600073ffffffffffffffffffffffffffffffffffffffff166004600083815260200190815260200160002060009054906101000a900473ffffffffffffffffffffffffffffffffffffffff1673ffffffffffffffffffffffffffffffffffffffff16145b15610bdf5760009350505050610bf4565b508080600101915050610a36565b5060019150505b90565b6000610c01612d6a565b600560008573ffffffffffffffffffffffffffffffffffffffff1673ffffffffffffffffffffffffffffffffffffffff16815260200190815260200160002060008481526020019081526020016000206040518060400160405290816000820160009054906101000a900467ffffffffffffffff1667ffffffffffffffff1667ffffffffffffffff1681526020016001820154815250509050610ca38161292a565b91505092915050565b60086020528060005260406000206000915090505481565b600080600090505b83839050811015610dd6576000600560003373ffffffffffffffffffffffffffffffffffffffff1673ffffffffffffffffffffffffffffffffffffffff1681526020019081526020016000206000868685818110610d2657fe5b90506020020135815260200190815260200160002090506000816001015414610dc8576000610d9b826040518060400160405290816000820160009054906101000a900467ffffffffffffffff1667ffffffffffffffff1667ffffffffffffffff16815260200160018201548152505061292a565b90506000811115610db157600082600101819055505b610dc481856124f390919063ffffffff16565b9350505b508080600101915050610ccc565b5060008114610dea57610de93382612968565b5b505050565b600d5481565b610dfd612462565b80600c819055507f6b92bd20c4b2e6861047ba7209ddc78d538419aae187d0df46716b827b8997a481604051610e339190614046565b60405180910390a150565b6005602052816000526040600020602052806000526040600020600091509150508060000160009054906101000a900467ffffffffffffffff16908060010154905082565b60025481565b600160009054906101000a900473ffffffffffffffffffffffffffffffffffffffff1681565b600c5481565b600080600560008573ffffffffffffffffffffffffffffffffffffffff1673ffffffffffffffffffffffffffffffffffffffff168152602001908152602001600020600084815260200190815260200160002060000160009054906101000a900467ffffffffffffffff169150600560008573ffffffffffffffffffffffffffffffffffffffff1673ffffffffffffffffffffffffffffffffffffffff16815260200190815260200160002060008481526020019081526020016000206001015490509250929050565b600080600090505b8383905081101561108357610f9a612d6a565b600560008773ffffffffffffffffffffffffffffffffffffffff1673ffffffffffffffffffffffffffffffffffffffff1681526020019081526020016000206000868685818110610fe757fe5b9050602002013581526020019081526020016000206040518060400160405290816000820160009054906101000a900467ffffffffffffffff1667ffffffffffffffff1667ffffffffffffffff1681526020016001820154815250509050600081602001511461107557600061105c8261292a565b905061107181856124f390919063ffffffff16565b9350505b508080600101915050610f87565b509392505050565b6000600860008373ffffffffffffffffffffffffffffffffffffffff1673ffffffffffffffffffffffffffffffffffffffff168152602001908152602001600020549050919050565b600b5481565b600a6020528060005260406000206000915054906101000a900473ffffffffffffffffffffffffffffffffffffffff1681565b60606111176119f7565b905060008090505b81518110156112aa57600082828151811061113657fe5b602002602001015190506000600360009054906101000a900473ffffffffffffffffffffffffffffffffffffffff1673ffffffffffffffffffffffffffffffffffffffff1663dacb2d0183846040516020016111929190613bae565b6040516020818303038152906040526040518363ffffffff1660e01b81526004016111be929190613dd9565b60206040518083038186803b1580156111d657600080fd5b505afa1580156111ea573d6000803e3d6000fd5b505050506040513d601f19601f8201168201806040525061120e9190810190612f29565b9050806004600084815260200190815260200160002060006101000a81548173ffffffffffffffffffffffffffffffffffffffff021916908373ffffffffffffffffffffffffffffffffffffffff1602179055507f88a93678a3692f6789d9546fc621bf7234b101ddb7d4fe479455112831b8aa688282604051611293929190613db0565b60405180910390a15050808060010191505061111f565b5050565b6060600082840190508381116113025760006040519080825280602002602001820160405280156112f957816020015b6112e6612d8e565b8152602001906001900390816112de5790505b5091505061153a565b600660008673ffffffffffffffffffffffffffffffffffffffff1673ffffffffffffffffffffffffffffffffffffffff1681526020019081526020016000208054905081111561139257600660008673ffffffffffffffffffffffffffffffffffffffff1673ffffffffffffffffffffffffffffffffffffffff1681526020019081526020016000208054905090505b600084820390506060816040519080825280602002602001820160405280156113d557816020015b6113c2612d8e565b8152602001906001900390816113ba5790505b50905060005b82811015611532576000600660008a73ffffffffffffffffffffffffffffffffffffffff1673ffffffffffffffffffffffffffffffffffffffff1681526020019081526020016000208883018154811061143157fe5b90600052602060002001549050611446612d6a565b600560008b73ffffffffffffffffffffffffffffffffffffffff1673ffffffffffffffffffffffffffffffffffffffff16815260200190815260200160002060008381526020019081526020016000206040518060400160405290816000820160009054906101000a900467ffffffffffffffff1667ffffffffffffffff1667ffffffffffffffff16815260200160018201548152505090506040518060600160405280826000015167ffffffffffffffff168152602001826020015181526020018381525084848151811061151857fe5b6020026020010181905250505080806001019150506113db565b508093505050505b9392505050565b611549612af0565b50565b611554612462565b600d54811115611599576040517f08c379a000000000000000000000000000000000000000000000000000000000815260040161159090613fe6565b60405180910390fd5b80600e819055507f723c43349da7aeae47190396f2e2fbe6bedb46b9e9705bc5b908d65bc7a1e0e6816040516115cf9190614046565b60405180910390a150565b600160009054906101000a900473ffffffffffffffffffffffffffffffffffffffff1673ffffffffffffffffffffffffffffffffffffffff163373ffffffffffffffffffffffffffffffffffffffff161461166a576040517f08c379a000000000000000000000000000000000000000000000000000000000815260040161166190613e46565b60405180910390fd5b7fb532073b38c83145e3e5135377a08bf9aab55bc0fd7c1179cd4fb995d2a5159c6000809054906101000a900473ffffffffffffffffffffffffffffffffffffffff16600160009054906101000a900473ffffffffffffffffffffffffffffffffffffffff166040516116de929190613c9b565b60405180910390a1600160009054906101000a900473ffffffffffffffffffffffffffffffffffffffff166000806101000a81548173ffffffffffffffffffffffffffffffffffffffff021916908373ffffffffffffffffffffffffffffffffffffffff1602179055506000600160006101000a81548173ffffffffffffffffffffffffffffffffffffffff021916908373ffffffffffffffffffffffffffffffffffffffff160217905550565b3373ffffffffffffffffffffffffffffffffffffffff168173ffffffffffffffffffffffffffffffffffffffff1614156117fb576040517f08c379a00000000000000000000000000000000000000000000000000000000081526004016117f290613f86565b60405180910390fd5b61180361082e565b611842576040517f08c379a000000000000000000000000000000000000000000000000000000000815260040161183990613f46565b60405180910390fd5b600061184c612b2b565b73ffffffffffffffffffffffffffffffffffffffff1663d37c4d8b336040518263ffffffff1660e01b81526004016118849190613c26565b60206040518083038186803b15801561189c57600080fd5b505afa1580156118b0573d6000803e3d6000fd5b505050506040513d601f19601f820116820180604052506118d491908101906131dc565b14611914576040517f08c379a000000000000000000000000000000000000000000000000000000000815260040161190b90614026565b60405180910390fd5b80600a60003373ffffffffffffffffffffffffffffffffffffffff1673ffffffffffffffffffffffffffffffffffffffff16815260200190815260200160002060006101000a81548173ffffffffffffffffffffffffffffffffffffffff021916908373ffffffffffffffffffffffffffffffffffffffff1602179055503373ffffffffffffffffffffffffffffffffffffffff167fcf51776bb16e5780edcca2e64a9ba8a9c7d5d00a6699cbd7606e465361ba4852826040516119d89190613bd4565b60405180910390a250565b600060606119ef612af0565b935093915050565b60606003604051908082528060200260200182016040528015611a295781602001602082028038833980820191505090505b5090507f5065726946696e0000000000000000000000000000000000000000000000000081600081518110611a5a57fe5b6020026020010181815250507f466565506f6f6c0000000000000000000000000000000000000000000000000081600181518110611a9457fe5b6020026020010181815250507f497373756572000000000000000000000000000000000000000000000000000081600281518110611ace57fe5b60200260200101818152505090565b6000809054906101000a900473ffffffffffffffffffffffffffffffffffffffff1681565b600e5481565b600073ffffffffffffffffffffffffffffffffffffffff168373ffffffffffffffffffffffffffffffffffffffff161415611b78576040517f08c379a0000000000000000000000000000000000000000000000000000000008152600401611b6f90613ea6565b60405180910390fd5b611b80612b5b565b73ffffffffffffffffffffffffffffffffffffffff166323b872dd3330856040518463ffffffff1660e01b8152600401611bbc93929190613bef565b602060405180830381600087803b158015611bd657600080fd5b505af1158015611bea573d6000803e3d6000fd5b505050506040513d601f19601f82011682018060405250611c0e919081019061318a565b611c4d576040517f08c379a0000000000000000000000000000000000000000000000000000000008152600401611c4490613f66565b60405180910390fd5b611c58838383612578565b505050565b60066020528160005260406000208181548110611c7657fe5b90600052602060002001600091509150505481565b611c93612af0565b505050505050565b611ca3612af0565b50505050565b60075481565b606060008284019050600660008673ffffffffffffffffffffffffffffffffffffffff1673ffffffffffffffffffffffffffffffffffffffff16815260200190815260200160002080549050811115611d4857600660008673ffffffffffffffffffffffffffffffffffffffff1673ffffffffffffffffffffffffffffffffffffffff1681526020019081526020016000208054905090505b838111611d88576000604051908082528060200260200182016040528015611d7f5781602001602082028038833980820191505090505b50915050611e52565b60008482039050606081604051908082528060200260200182016040528015611dc05781602001602082028038833980820191505090505b50905060005b82811015611e4a57600660008973ffffffffffffffffffffffffffffffffffffffff1673ffffffffffffffffffffffffffffffffffffffff16815260200190815260200160002087820181548110611e1a57fe5b9060005260206000200154828281518110611e3157fe5b6020026020010181815250508080600101915050611dc6565b508093505050505b9392505050565b611e6161082e565b611ea0576040517f08c379a0000000000000000000000000000000000000000000000000000000008152600401611e9790613f46565b60405180910390fd5b6000611eaa612b2b565b73ffffffffffffffffffffffffffffffffffffffff1663d37c4d8b856040518263ffffffff1660e01b8152600401611ee29190613cc4565b60206040518083038186803b158015611efa57600080fd5b505afa158015611f0e573d6000803e3d6000fd5b505050506040513d601f19601f82011682018060405250611f3291908101906131dc565b14611f72576040517f08c379a0000000000000000000000000000000000000000000000000000000008152600401611f6990614026565b60405180910390fd5b3373ffffffffffffffffffffffffffffffffffffffff16600a60008573ffffffffffffffffffffffffffffffffffffffff1673ffffffffffffffffffffffffffffffffffffffff16815260200190815260200160002060009054906101000a900473ffffffffffffffffffffffffffffffffffffffff1673ffffffffffffffffffffffffffffffffffffffff161461203f576040517f08c379a000000000000000000000000000000000000000000000000000000000815260040161203690613fc6565b60405180910390fd5b600080600090505b838390508110156122db5761205a612d6a565b600560008773ffffffffffffffffffffffffffffffffffffffff1673ffffffffffffffffffffffffffffffffffffffff16815260200190815260200160002060008686858181106120a757fe5b9050602002013581526020019081526020016000206040518060400160405290816000820160009054906101000a900467ffffffffffffffff1667ffffffffffffffff1667ffffffffffffffff168152602001600182015481525050905060008160200151146122cd5780600560003373ffffffffffffffffffffffffffffffffffffffff1673ffffffffffffffffffffffffffffffffffffffff168152602001908152602001600020600087878681811061215f57fe5b90506020020135815260200190815260200160002060008201518160000160006101000a81548167ffffffffffffffff021916908367ffffffffffffffff160217905550602082015181600101559050506121c78160200151846124f390919063ffffffff16565b9250600660003373ffffffffffffffffffffffffffffffffffffffff1673ffffffffffffffffffffffffffffffffffffffff16815260200190815260200160002085858481811061221457fe5b905060200201359080600181540180825580915050906001820390600052602060002001600090919290919091505550600560008773ffffffffffffffffffffffffffffffffffffffff1673ffffffffffffffffffffffffffffffffffffffff168152602001908152602001600020600086868581811061229157fe5b905060200201358152602001908152602001600020600080820160006101000a81549067ffffffffffffffff0219169055600182016000905550505b508080600101915050612047565b5061232e81600860008773ffffffffffffffffffffffffffffffffffffffff1673ffffffffffffffffffffffffffffffffffffffff16815260200190815260200160002054612b8b90919063ffffffff16565b600860008673ffffffffffffffffffffffffffffffffffffffff1673ffffffffffffffffffffffffffffffffffffffff168152602001908152602001600020819055506123c381600860003373ffffffffffffffffffffffffffffffffffffffff1673ffffffffffffffffffffffffffffffffffffffff168152602001908152602001600020546124f390919063ffffffff16565b600860003373ffffffffffffffffffffffffffffffffffffffff1673ffffffffffffffffffffffffffffffffffffffff168152602001908152602001600020819055508373ffffffffffffffffffffffffffffffffffffffff167f48d567deaa7db90f8a443344e519ca8906521ffe118e1df43e89a3c257963f7c3383868642604051612454959493929190613c4d565b60405180910390a250505050565b6000809054906101000a900473ffffffffffffffffffffffffffffffffffffffff1673ffffffffffffffffffffffffffffffffffffffff163373ffffffffffffffffffffffffffffffffffffffff16146124f1576040517f08c379a00000000000000000000000000000000000000000000000000000000081526004016124e890613fa6565b60405180910390fd5b565b60008082840190508381101561253e576040517f08c379a000000000000000000000000000000000000000000000000000000000815260040161253590613e66565b60405180910390fd5b8091505092915050565b60006125737f466565506f6f6c00000000000000000000000000000000000000000000000000612be1565b905090565b60008214156125bc576040517f08c379a00000000000000000000000000000000000000000000000000000000081526004016125b390613f06565b60405180910390fd5b6000811180156125ce5750600c548111155b61260d576040517f08c379a000000000000000000000000000000000000000000000000000000000815260040161260490613e86565b60405180910390fd5b61262282600b546124f390919063ffffffff16565b600b81905550612630612b5b565b73ffffffffffffffffffffffffffffffffffffffff166370a08231306040518263ffffffff1660e01b81526004016126689190613bd4565b60206040518083038186803b15801561268057600080fd5b505afa158015612694573d6000803e3d6000fd5b505050506040513d601f19601f820116820180604052506126b891908101906131dc565b600b5411156126fc576040517f08c379a00000000000000000000000000000000000000000000000000000000081526004016126f390613f26565b60405180910390fd5b6000814201905061275583600860008773ffffffffffffffffffffffffffffffffffffffff1673ffffffffffffffffffffffffffffffffffffffff168152602001908152602001600020546124f390919063ffffffff16565b600860008673ffffffffffffffffffffffffffffffffffffffff1673ffffffffffffffffffffffffffffffffffffffff168152602001908152602001600020819055506000600754905060405180604001604052808367ffffffffffffffff16815260200185815250600560008773ffffffffffffffffffffffffffffffffffffffff1673ffffffffffffffffffffffffffffffffffffffff168152602001908152602001600020600083815260200190815260200160002060008201518160000160006101000a81548167ffffffffffffffff021916908367ffffffffffffffff16021790555060208201518160010155905050600660008673ffffffffffffffffffffffffffffffffffffffff1673ffffffffffffffffffffffffffffffffffffffff1681526020019081526020016000208190806001815401808255809150509060018203906000526020600020016000909192909190915055506128c960016007546124f390919063ffffffff16565b6007819055508473ffffffffffffffffffffffffffffffffffffffff167f2cc016694185d38abbe28d9e9baea2e9d95a321ae43475e5ea7b643756840bc04286868560405161291b94939291906140ba565b60405180910390a25050505050565b600080600083602001511461295f57826000015167ffffffffffffffff1642101561295657600061295c565b82602001515b90505b80915050919050565b6129728282612cb6565b6129c481600960008573ffffffffffffffffffffffffffffffffffffffff1673ffffffffffffffffffffffffffffffffffffffff168152602001908152602001600020546124f390919063ffffffff16565b600960008473ffffffffffffffffffffffffffffffffffffffff1673ffffffffffffffffffffffffffffffffffffffff16815260200190815260200160002081905550612a0f612b5b565b73ffffffffffffffffffffffffffffffffffffffff1663a9059cbb83836040518363ffffffff1660e01b8152600401612a49929190613ceb565b602060405180830381600087803b158015612a6357600080fd5b505af1158015612a77573d6000803e3d6000fd5b505050506040513d601f19601f82011682018060405250612a9b919081019061318a565b508173ffffffffffffffffffffffffffffffffffffffff167ffbeff59d2bfda0d79ea8a29f8c57c66d48c7a13eabbdb90908d9115ec41c9dc64283604051612ae4929190614091565b60405180910390a25050565b6040517f08c379a0000000000000000000000000000000000000000000000000000000008152600401612b2290613ee6565b60405180910390fd5b6000612b567f4973737565720000000000000000000000000000000000000000000000000000612be1565b905090565b6000612b867f5065726946696e00000000000000000000000000000000000000000000000000612be1565b905090565b600082821115612bd0576040517f08c379a0000000000000000000000000000000000000000000000000000000008152600401612bc790613ec6565b60405180910390fd5b600082840390508091505092915050565b6000806004600084815260200190815260200160002060009054906101000a900473ffffffffffffffffffffffffffffffffffffffff169050600073ffffffffffffffffffffffffffffffffffffffff168173ffffffffffffffffffffffffffffffffffffffff16141583604051602001612c5c9190613b88565b60405160208183030381529060405290612cac576040517f08c379a0000000000000000000000000000000000000000000000000000000008152600401612ca39190613e24565b60405180910390fd5b5080915050919050565b612ccb81600b54612b8b90919063ffffffff16565b600b81905550612d2381600860008573ffffffffffffffffffffffffffffffffffffffff1673ffffffffffffffffffffffffffffffffffffffff16815260200190815260200160002054612b8b90919063ffffffff16565b600860008473ffffffffffffffffffffffffffffffffffffffff1673ffffffffffffffffffffffffffffffffffffffff168152602001908152602001600020819055505050565b6040518060400160405280600067ffffffffffffffff168152602001600081525090565b6040518060600160405280600067ffffffffffffffff16815260200160008152602001600081525090565b600081359050612dc881614350565b92915050565b600081519050612ddd81614350565b92915050565b60008083601f840112612df557600080fd5b8235905067ffffffffffffffff811115612e0e57600080fd5b602083019150836020820283011115612e2657600080fd5b9250929050565b60008083601f840112612e3f57600080fd5b8235905067ffffffffffffffff811115612e5857600080fd5b602083019150836040820283011115612e7057600080fd5b9250929050565b60008083601f840112612e8957600080fd5b8235905067ffffffffffffffff811115612ea257600080fd5b602083019150836020820283011115612eba57600080fd5b9250929050565b600081519050612ed081614367565b92915050565b600081359050612ee58161437e565b92915050565b600081519050612efa8161437e565b92915050565b600060208284031215612f1257600080fd5b6000612f2084828501612db9565b91505092915050565b600060208284031215612f3b57600080fd5b6000612f4984828501612dce565b91505092915050565b600080600060408486031215612f6757600080fd5b6000612f7586828701612db9565b935050602084013567ffffffffffffffff811115612f9257600080fd5b612f9e86828701612e77565b92509250509250925092565b60008060408385031215612fbd57600080fd5b6000612fcb85828601612db9565b9250506020612fdc85828601612ed6565b9150509250929050565b60008060008060608587031215612ffc57600080fd5b600061300a87828801612db9565b945050602061301b87828801612ed6565b935050604085013567ffffffffffffffff81111561303857600080fd5b61304487828801612e2d565b925092505092959194509250565b60008060006060848603121561306757600080fd5b600061307586828701612db9565b935050602061308686828701612ed6565b925050604061309786828701612ed6565b9150509250925092565b600080600080600080606087890312156130ba57600080fd5b600087013567ffffffffffffffff8111156130d457600080fd5b6130e089828a01612de3565b9650965050602087013567ffffffffffffffff8111156130ff57600080fd5b61310b89828a01612e77565b9450945050604087013567ffffffffffffffff81111561312a57600080fd5b61313689828a01612e77565b92509250509295509295509295565b6000806020838503121561315857600080fd5b600083013567ffffffffffffffff81111561317257600080fd5b61317e85828601612e77565b92509250509250929050565b60006020828403121561319c57600080fd5b60006131aa84828501612ec1565b91505092915050565b6000602082840312156131c557600080fd5b60006131d384828501612ed6565b91505092915050565b6000602082840312156131ee57600080fd5b60006131fc84828501612eeb565b91505092915050565b60006132118383613462565b60208301905092915050565b60006132298383613adb565b60608301905092915050565b60006132418383613b1d565b60408301905092915050565b60006132598383613b4c565b60208301905092915050565b61326e81614299565b82525050565b61327d81614233565b82525050565b600061328e82614168565b61329881856141d3565b93506132a383614128565b8060005b838110156132d45781516132bb8882613205565b97506132c68361419f565b9250506001810190506132a7565b5085935050505092915050565b60006132ec82614173565b6132f681856141e4565b935061330183614138565b8060005b83811015613332578151613319888261321d565b9750613324836141ac565b925050600181019050613305565b5085935050505092915050565b600061334a8261417e565b61335481856141f5565b935061335f83614148565b8060005b838110156133905781516133778882613235565b9750613382836141b9565b925050600181019050613363565b5085935050505092915050565b60006133a98385614206565b93507f07ffffffffffffffffffffffffffffffffffffffffffffffffffffffffffffff8311156133d857600080fd5b6020830292506133e98385846142f3565b82840190509392505050565b600061340082614189565b61340a8185614206565b935061341583614158565b8060005b8381101561344657815161342d888261324d565b9750613438836141c6565b925050600181019050613419565b5085935050505092915050565b61345c81614245565b82525050565b61346b81614251565b82525050565b61347a81614251565b82525050565b61349161348c82614251565b614335565b82525050565b6134a0816142ab565b82525050565b60006134b182614194565b6134bb8185614217565b93506134cb818560208601614302565b6134d48161433f565b840191505092915050565b60006134ec603583614217565b91507f596f75206d757374206265206e6f6d696e61746564206265666f726520796f7560008301527f2063616e20616363657074206f776e65727368697000000000000000000000006020830152604082019050919050565b6000613552601b83614217565b91507f536166654d6174683a206164646974696f6e206f766572666c6f7700000000006000830152602082019050919050565b6000613592603383614217565b91507f43616e6e6f7420657363726f7720776974682030206475726174696f6e204f5260008301527f2061626f7665206d61785f6475726174696f6e000000000000000000000000006020830152604082019050919050565b60006135f8602483614217565b91507f43616e6e6f742063726561746520657363726f7720776974682061646472657360008301527f73283029000000000000000000000000000000000000000000000000000000006020830152604082019050919050565b600061365e601e83614217565b91507f536166654d6174683a207375627472616374696f6e206f766572666c6f7700006000830152602082019050919050565b600061369e601b83614217565b91507f43616e6e6f742062652072756e206f6e2074686973206c6179657200000000006000830152602082019050919050565b60006136de601183614228565b91507f4d697373696e6720616464726573733a200000000000000000000000000000006000830152601182019050919050565b600061371e601783614217565b91507f5175616e746974792063616e6e6f74206265207a65726f0000000000000000006000830152602082019050919050565b600061375e604783614217565b91507f4d75737420626520656e6f7567682062616c616e636520696e2074686520636f60008301527f6e747261637420746f2070726f7669646520666f72207468652076657374696e60208301527f6720656e747279000000000000000000000000000000000000000000000000006040830152606082019050919050565b60006137ea601983614217565b91507f4163636f756e74206d657267696e672068617320656e646564000000000000006000830152602082019050919050565b600061382a601583614217565b91507f746f6b656e207472616e73666572206661696c656400000000000000000000006000830152602082019050919050565b600061386a602483614217565b91507f43616e6e6f74206e6f6d696e617465206f776e206163636f756e7420746f206d60008301527f65726765000000000000000000000000000000000000000000000000000000006020830152604082019050919050565b60006138d0602f83614217565b91507f4f6e6c792074686520636f6e7472616374206f776e6572206d6179207065726660008301527f6f726d207468697320616374696f6e00000000000000000000000000000000006020830152604082019050919050565b6000613936602183614217565b91507f41646472657373206973206e6f74206e6f6d696e6174656420746f206d65726760008301527f65000000000000000000000000000000000000000000000000000000000000006020830152604082019050919050565b7f7055534400000000000000000000000000000000000000000000000000000000815250565b60006139c2601c83614217565b91507f65786365656473206d6178206d657267696e67206475726174696f6e000000006000830152602082019050919050565b6000613a02601983614228565b91507f5265736f6c766572206d697373696e67207461726765743a20000000000000006000830152601982019050919050565b6000613a42602883614217565b91507f4f6e6c792074686520466565506f6f6c2063616e20706572666f726d2074686960008301527f7320616374696f6e0000000000000000000000000000000000000000000000006020830152604082019050919050565b6000613aa8601f83614217565b91507f43616e6e6f74206d65726765206163636f756e747320776974682064656274006000830152602082019050919050565b606082016000820151613af16000850182613b6a565b506020820151613b046020850182613b4c565b506040820151613b176040850182613b4c565b50505050565b604082016000820151613b336000850182613b6a565b506020820151613b466020850182613b4c565b50505050565b613b558161427b565b82525050565b613b648161427b565b82525050565b613b7381614285565b82525050565b613b8281614285565b82525050565b6000613b93826136d1565b9150613b9f8284613480565b60208201915081905092915050565b6000613bb9826139f5565b9150613bc58284613480565b60208201915081905092915050565b6000602082019050613be96000830184613274565b92915050565b6000606082019050613c046000830186613265565b613c116020830185613274565b613c1e6040830184613b5b565b949350505050565b6000604082019050613c3b6000830184613265565b613c476020830161398f565b92915050565b6000608082019050613c626000830188613265565b613c6f6020830187613b5b565b8181036040830152613c8281858761339d565b9050613c916060830184613b5b565b9695505050505050565b6000604082019050613cb06000830185613274565b613cbd6020830184613274565b9392505050565b6000604082019050613cd96000830184613274565b613ce56020830161398f565b92915050565b6000604082019050613d006000830185613274565b613d0d6020830184613b5b565b9392505050565b60006020820190508181036000830152613d2e8184613283565b905092915050565b60006020820190508181036000830152613d5081846132e1565b905092915050565b60006020820190508181036000830152613d7281846133f5565b905092915050565b6000602082019050613d8f6000830184613453565b92915050565b6000602082019050613daa6000830184613471565b92915050565b6000604082019050613dc56000830185613471565b613dd26020830184613274565b9392505050565b6000604082019050613dee6000830185613471565b8181036020830152613e0081846134a6565b90509392505050565b6000602082019050613e1e6000830184613497565b92915050565b60006020820190508181036000830152613e3e81846134a6565b905092915050565b60006020820190508181036000830152613e5f816134df565b9050919050565b60006020820190508181036000830152613e7f81613545565b9050919050565b60006020820190508181036000830152613e9f81613585565b9050919050565b60006020820190508181036000830152613ebf816135eb565b9050919050565b60006020820190508181036000830152613edf81613651565b9050919050565b60006020820190508181036000830152613eff81613691565b9050919050565b60006020820190508181036000830152613f1f81613711565b9050919050565b60006020820190508181036000830152613f3f81613751565b9050919050565b60006020820190508181036000830152613f5f816137dd565b9050919050565b60006020820190508181036000830152613f7f8161381d565b9050919050565b60006020820190508181036000830152613f9f8161385d565b9050919050565b60006020820190508181036000830152613fbf816138c3565b9050919050565b60006020820190508181036000830152613fdf81613929565b9050919050565b60006020820190508181036000830152613fff816139b5565b9050919050565b6000602082019050818103600083015261401f81613a35565b9050919050565b6000602082019050818103600083015261403f81613a9b565b9050919050565b600060208201905061405b6000830184613b5b565b92915050565b60006040820190506140766000830185613b5b565b8181036020830152614088818461333f565b90509392505050565b60006040820190506140a66000830185613b5b565b6140b36020830184613b5b565b9392505050565b60006080820190506140cf6000830187613b5b565b6140dc6020830186613b5b565b6140e96040830185613b5b565b6140f66060830184613b5b565b95945050505050565b60006040820190506141146000830185613b79565b6141216020830184613b5b565b9392505050565b6000819050602082019050919050565b6000819050602082019050919050565b6000819050602082019050919050565b6000819050602082019050919050565b600081519050919050565b600081519050919050565b600081519050919050565b600081519050919050565b600081519050919050565b6000602082019050919050565b6000602082019050919050565b6000602082019050919050565b6000602082019050919050565b600082825260208201905092915050565b600082825260208201905092915050565b600082825260208201905092915050565b600082825260208201905092915050565b600082825260208201905092915050565b600081905092915050565b600061423e8261425b565b9050919050565b60008115159050919050565b6000819050919050565b600073ffffffffffffffffffffffffffffffffffffffff82169050919050565b6000819050919050565b600067ffffffffffffffff82169050919050565b60006142a4826142cf565b9050919050565b60006142b6826142bd565b9050919050565b60006142c88261425b565b9050919050565b60006142da826142e1565b9050919050565b60006142ec8261425b565b9050919050565b82818337600083830152505050565b60005b83811015614320578082015181840152602081019050614305565b8381111561432f576000848401525b50505050565b6000819050919050565b6000601f19601f8301169050919050565b61435981614233565b811461436457600080fd5b50565b61437081614245565b811461437b57600080fd5b50565b6143878161427b565b811461439257600080fd5b5056fea365627a7a723158204e24c3a863d5d3736b0855274d9e5b7e499c56584a67756aea28c067e5a33ba76c6578706572696d656e74616cf564736f6c63430005100040",
  "linkReferences": {},
  "deployedLinkReferences": {}
}