{
  "_format": "hh-sol-artifact-1",
  "contractName": "FlexibleStorage",
  "sourceName": "contracts/FlexibleStorage.sol",
  "abi": [
    {
      "inputs": [
        {
          "internalType": "address",
          "name": "_resolver",
          "type": "address"
        }
      ],
      "payable": false,
      "stateMutability": "nonpayable",
      "type": "constructor"
    },
    {
      "anonymous": false,
      "inputs": [
        {
          "indexed": false,
          "internalType": "bytes32",
          "name": "fromContractName",
          "type": "bytes32"
        },
        {
          "indexed": false,
          "internalType": "bytes32",
          "name": "toContractName",
          "type": "bytes32"
        },
        {
          "indexed": false,
          "internalType": "bool",
          "name": "removeAccessFromPreviousContract",
          "type": "bool"
        }
      ],
      "name": "KeyMigrated",
      "type": "event"
    },
    {
      "anonymous": false,
      "inputs": [
        {
          "indexed": false,
          "internalType": "bytes32",
          "name": "contractName",
          "type": "bytes32"
        },
        {
          "indexed": false,
          "internalType": "bytes32",
          "name": "record",
          "type": "bytes32"
        },
        {
          "indexed": false,
          "internalType": "address",
          "name": "value",
          "type": "address"
        }
      ],
      "name": "ValueDeletedAddress",
      "type": "event"
    },
    {
      "anonymous": false,
      "inputs": [
        {
          "indexed": false,
          "internalType": "bytes32",
          "name": "contractName",
          "type": "bytes32"
        },
        {
          "indexed": false,
          "internalType": "bytes32",
          "name": "record",
          "type": "bytes32"
        },
        {
          "indexed": false,
          "internalType": "bool",
          "name": "value",
          "type": "bool"
        }
      ],
      "name": "ValueDeletedBool",
      "type": "event"
    },
    {
      "anonymous": false,
      "inputs": [
        {
          "indexed": false,
          "internalType": "bytes32",
          "name": "contractName",
          "type": "bytes32"
        },
        {
          "indexed": false,
          "internalType": "bytes32",
          "name": "record",
          "type": "bytes32"
        },
        {
          "indexed": false,
          "internalType": "bytes32",
          "name": "value",
          "type": "bytes32"
        }
      ],
      "name": "ValueDeletedBytes32",
      "type": "event"
    },
    {
      "anonymous": false,
      "inputs": [
        {
          "indexed": false,
          "internalType": "bytes32",
          "name": "contractName",
          "type": "bytes32"
        },
        {
          "indexed": false,
          "internalType": "bytes32",
          "name": "record",
          "type": "bytes32"
        },
        {
          "indexed": false,
          "internalType": "int256",
          "name": "value",
          "type": "int256"
        }
      ],
      "name": "ValueDeletedInt",
      "type": "event"
    },
    {
      "anonymous": false,
      "inputs": [
        {
          "indexed": false,
          "internalType": "bytes32",
          "name": "contractName",
          "type": "bytes32"
        },
        {
          "indexed": false,
          "internalType": "bytes32",
          "name": "record",
          "type": "bytes32"
        },
        {
          "indexed": false,
          "internalType": "uint256",
          "name": "value",
          "type": "uint256"
        }
      ],
      "name": "ValueDeletedUInt",
      "type": "event"
    },
    {
      "anonymous": false,
      "inputs": [
        {
          "indexed": false,
          "internalType": "bytes32",
          "name": "contractName",
          "type": "bytes32"
        },
        {
          "indexed": false,
          "internalType": "bytes32",
          "name": "record",
          "type": "bytes32"
        },
        {
          "indexed": false,
          "internalType": "address",
          "name": "value",
          "type": "address"
        }
      ],
      "name": "ValueSetAddress",
      "type": "event"
    },
    {
      "anonymous": false,
      "inputs": [
        {
          "indexed": false,
          "internalType": "bytes32",
          "name": "contractName",
          "type": "bytes32"
        },
        {
          "indexed": false,
          "internalType": "bytes32",
          "name": "record",
          "type": "bytes32"
        },
        {
          "indexed": false,
          "internalType": "bool",
          "name": "value",
          "type": "bool"
        }
      ],
      "name": "ValueSetBool",
      "type": "event"
    },
    {
      "anonymous": false,
      "inputs": [
        {
          "indexed": false,
          "internalType": "bytes32",
          "name": "contractName",
          "type": "bytes32"
        },
        {
          "indexed": false,
          "internalType": "bytes32",
          "name": "record",
          "type": "bytes32"
        },
        {
          "indexed": false,
          "internalType": "bytes32",
          "name": "value",
          "type": "bytes32"
        }
      ],
      "name": "ValueSetBytes32",
      "type": "event"
    },
    {
      "anonymous": false,
      "inputs": [
        {
          "indexed": false,
          "internalType": "bytes32",
          "name": "contractName",
          "type": "bytes32"
        },
        {
          "indexed": false,
          "internalType": "bytes32",
          "name": "record",
          "type": "bytes32"
        },
        {
          "indexed": false,
          "internalType": "int256",
          "name": "value",
          "type": "int256"
        }
      ],
      "name": "ValueSetInt",
      "type": "event"
    },
    {
      "anonymous": false,
      "inputs": [
        {
          "indexed": false,
          "internalType": "bytes32",
          "name": "contractName",
          "type": "bytes32"
        },
        {
          "indexed": false,
          "internalType": "bytes32",
          "name": "record",
          "type": "bytes32"
        },
        {
          "indexed": false,
          "internalType": "uint256",
          "name": "value",
          "type": "uint256"
        }
      ],
      "name": "ValueSetUInt",
      "type": "event"
    },
    {
      "constant": false,
      "inputs": [
        {
          "internalType": "bytes32",
          "name": "contractName",
          "type": "bytes32"
        },
        {
          "internalType": "bytes32",
          "name": "record",
          "type": "bytes32"
        }
      ],
      "name": "deleteAddressValue",
      "outputs": [],
      "payable": false,
      "stateMutability": "nonpayable",
      "type": "function"
    },
    {
      "constant": false,
      "inputs": [
        {
          "internalType": "bytes32",
          "name": "contractName",
          "type": "bytes32"
        },
        {
          "internalType": "bytes32",
          "name": "record",
          "type": "bytes32"
        }
      ],
      "name": "deleteBoolValue",
      "outputs": [],
      "payable": false,
      "stateMutability": "nonpayable",
      "type": "function"
    },
    {
      "constant": false,
      "inputs": [
        {
          "internalType": "bytes32",
          "name": "contractName",
          "type": "bytes32"
        },
        {
          "internalType": "bytes32",
          "name": "record",
          "type": "bytes32"
        }
      ],
      "name": "deleteBytes32Value",
      "outputs": [],
      "payable": false,
      "stateMutability": "nonpayable",
      "type": "function"
    },
    {
      "constant": false,
      "inputs": [
        {
          "internalType": "bytes32",
          "name": "contractName",
          "type": "bytes32"
        },
        {
          "internalType": "bytes32",
          "name": "record",
          "type": "bytes32"
        }
      ],
      "name": "deleteIntValue",
      "outputs": [],
      "payable": false,
      "stateMutability": "nonpayable",
      "type": "function"
    },
    {
      "constant": false,
      "inputs": [
        {
          "internalType": "bytes32",
          "name": "contractName",
          "type": "bytes32"
        },
        {
          "internalType": "bytes32",
          "name": "record",
          "type": "bytes32"
        }
      ],
      "name": "deleteUIntValue",
      "outputs": [],
      "payable": false,
      "stateMutability": "nonpayable",
      "type": "function"
    },
    {
      "constant": true,
      "inputs": [
        {
          "internalType": "bytes32",
          "name": "contractName",
          "type": "bytes32"
        },
        {
          "internalType": "bytes32",
          "name": "record",
          "type": "bytes32"
        }
      ],
      "name": "getAddressValue",
      "outputs": [
        {
          "internalType": "address",
          "name": "",
          "type": "address"
        }
      ],
      "payable": false,
      "stateMutability": "view",
      "type": "function"
    },
    {
      "constant": true,
      "inputs": [
        {
          "internalType": "bytes32",
          "name": "contractName",
          "type": "bytes32"
        },
        {
          "internalType": "bytes32[]",
          "name": "records",
          "type": "bytes32[]"
        }
      ],
      "name": "getAddressValues",
      "outputs": [
        {
          "internalType": "address[]",
          "name": "",
          "type": "address[]"
        }
      ],
      "payable": false,
      "stateMutability": "view",
      "type": "function"
    },
    {
      "constant": true,
      "inputs": [
        {
          "internalType": "bytes32",
          "name": "contractName",
          "type": "bytes32"
        },
        {
          "internalType": "bytes32",
          "name": "record",
          "type": "bytes32"
        }
      ],
      "name": "getBoolValue",
      "outputs": [
        {
          "internalType": "bool",
          "name": "",
          "type": "bool"
        }
      ],
      "payable": false,
      "stateMutability": "view",
      "type": "function"
    },
    {
      "constant": true,
      "inputs": [
        {
          "internalType": "bytes32",
          "name": "contractName",
          "type": "bytes32"
        },
        {
          "internalType": "bytes32[]",
          "name": "records",
          "type": "bytes32[]"
        }
      ],
      "name": "getBoolValues",
      "outputs": [
        {
          "internalType": "bool[]",
          "name": "",
          "type": "bool[]"
        }
      ],
      "payable": false,
      "stateMutability": "view",
      "type": "function"
    },
    {
      "constant": true,
      "inputs": [
        {
          "internalType": "bytes32",
          "name": "contractName",
          "type": "bytes32"
        },
        {
          "internalType": "bytes32",
          "name": "record",
          "type": "bytes32"
        }
      ],
      "name": "getBytes32Value",
      "outputs": [
        {
          "internalType": "bytes32",
          "name": "",
          "type": "bytes32"
        }
      ],
      "payable": false,
      "stateMutability": "view",
      "type": "function"
    },
    {
      "constant": true,
      "inputs": [
        {
          "internalType": "bytes32",
          "name": "contractName",
          "type": "bytes32"
        },
        {
          "internalType": "bytes32[]",
          "name": "records",
          "type": "bytes32[]"
        }
      ],
      "name": "getBytes32Values",
      "outputs": [
        {
          "internalType": "bytes32[]",
          "name": "",
          "type": "bytes32[]"
        }
      ],
      "payable": false,
      "stateMutability": "view",
      "type": "function"
    },
    {
      "constant": true,
      "inputs": [
        {
          "internalType": "bytes32",
          "name": "contractName",
          "type": "bytes32"
        },
        {
          "internalType": "bytes32",
          "name": "record",
          "type": "bytes32"
        }
      ],
      "name": "getIntValue",
      "outputs": [
        {
          "internalType": "int256",
          "name": "",
          "type": "int256"
        }
      ],
      "payable": false,
      "stateMutability": "view",
      "type": "function"
    },
    {
      "constant": true,
      "inputs": [
        {
          "internalType": "bytes32",
          "name": "contractName",
          "type": "bytes32"
        },
        {
          "internalType": "bytes32[]",
          "name": "records",
          "type": "bytes32[]"
        }
      ],
      "name": "getIntValues",
      "outputs": [
        {
          "internalType": "int256[]",
          "name": "",
          "type": "int256[]"
        }
      ],
      "payable": false,
      "stateMutability": "view",
      "type": "function"
    },
    {
      "constant": true,
      "inputs": [
        {
          "internalType": "bytes32",
          "name": "contractName",
          "type": "bytes32"
        },
        {
          "internalType": "bytes32",
          "name": "record",
          "type": "bytes32"
        }
      ],
      "name": "getUIntValue",
      "outputs": [
        {
          "internalType": "uint256",
          "name": "",
          "type": "uint256"
        }
      ],
      "payable": false,
      "stateMutability": "view",
      "type": "function"
    },
    {
      "constant": true,
      "inputs": [
        {
          "internalType": "bytes32",
          "name": "contractName",
          "type": "bytes32"
        },
        {
          "internalType": "bytes32[]",
          "name": "records",
          "type": "bytes32[]"
        }
      ],
      "name": "getUIntValues",
      "outputs": [
        {
          "internalType": "uint256[]",
          "name": "",
          "type": "uint256[]"
        }
      ],
      "payable": false,
      "stateMutability": "view",
      "type": "function"
    },
    {
      "constant": true,
      "inputs": [
        {
          "internalType": "bytes32",
          "name": "",
          "type": "bytes32"
        }
      ],
      "name": "hashes",
      "outputs": [
        {
          "internalType": "bytes32",
          "name": "",
          "type": "bytes32"
        }
      ],
      "payable": false,
      "stateMutability": "view",
      "type": "function"
    },
    {
      "constant": false,
      "inputs": [
        {
          "internalType": "bytes32",
          "name": "fromContractName",
          "type": "bytes32"
        },
        {
          "internalType": "bytes32",
          "name": "toContractName",
          "type": "bytes32"
        },
        {
          "internalType": "bool",
          "name": "removeAccessFromPreviousContract",
          "type": "bool"
        }
      ],
      "name": "migrateContractKey",
      "outputs": [],
      "payable": false,
      "stateMutability": "nonpayable",
      "type": "function"
    },
    {
      "constant": true,
      "inputs": [],
      "name": "resolverProxy",
      "outputs": [
        {
          "internalType": "contract IAddressResolver",
          "name": "",
          "type": "address"
        }
      ],
      "payable": false,
      "stateMutability": "view",
      "type": "function"
    },
    {
      "constant": false,
      "inputs": [
        {
          "internalType": "bytes32",
          "name": "contractName",
          "type": "bytes32"
        },
        {
          "internalType": "bytes32",
          "name": "record",
          "type": "bytes32"
        },
        {
          "internalType": "address",
          "name": "value",
          "type": "address"
        }
      ],
      "name": "setAddressValue",
      "outputs": [],
      "payable": false,
      "stateMutability": "nonpayable",
      "type": "function"
    },
    {
      "constant": false,
      "inputs": [
        {
          "internalType": "bytes32",
          "name": "contractName",
          "type": "bytes32"
        },
        {
          "internalType": "bytes32[]",
          "name": "records",
          "type": "bytes32[]"
        },
        {
          "internalType": "address[]",
          "name": "values",
          "type": "address[]"
        }
      ],
      "name": "setAddressValues",
      "outputs": [],
      "payable": false,
      "stateMutability": "nonpayable",
      "type": "function"
    },
    {
      "constant": false,
      "inputs": [
        {
          "internalType": "bytes32",
          "name": "contractName",
          "type": "bytes32"
        },
        {
          "internalType": "bytes32",
          "name": "record",
          "type": "bytes32"
        },
        {
          "internalType": "bool",
          "name": "value",
          "type": "bool"
        }
      ],
      "name": "setBoolValue",
      "outputs": [],
      "payable": false,
      "stateMutability": "nonpayable",
      "type": "function"
    },
    {
      "constant": false,
      "inputs": [
        {
          "internalType": "bytes32",
          "name": "contractName",
          "type": "bytes32"
        },
        {
          "internalType": "bytes32[]",
          "name": "records",
          "type": "bytes32[]"
        },
        {
          "internalType": "bool[]",
          "name": "values",
          "type": "bool[]"
        }
      ],
      "name": "setBoolValues",
      "outputs": [],
      "payable": false,
      "stateMutability": "nonpayable",
      "type": "function"
    },
    {
      "constant": false,
      "inputs": [
        {
          "internalType": "bytes32",
          "name": "contractName",
          "type": "bytes32"
        },
        {
          "internalType": "bytes32",
          "name": "record",
          "type": "bytes32"
        },
        {
          "internalType": "bytes32",
          "name": "value",
          "type": "bytes32"
        }
      ],
      "name": "setBytes32Value",
      "outputs": [],
      "payable": false,
      "stateMutability": "nonpayable",
      "type": "function"
    },
    {
      "constant": false,
      "inputs": [
        {
          "internalType": "bytes32",
          "name": "contractName",
          "type": "bytes32"
        },
        {
          "internalType": "bytes32[]",
          "name": "records",
          "type": "bytes32[]"
        },
        {
          "internalType": "bytes32[]",
          "name": "values",
          "type": "bytes32[]"
        }
      ],
      "name": "setBytes32Values",
      "outputs": [],
      "payable": false,
      "stateMutability": "nonpayable",
      "type": "function"
    },
    {
      "constant": false,
      "inputs": [
        {
          "internalType": "bytes32",
          "name": "contractName",
          "type": "bytes32"
        },
        {
          "internalType": "bytes32",
          "name": "record",
          "type": "bytes32"
        },
        {
          "internalType": "int256",
          "name": "value",
          "type": "int256"
        }
      ],
      "name": "setIntValue",
      "outputs": [],
      "payable": false,
      "stateMutability": "nonpayable",
      "type": "function"
    },
    {
      "constant": false,
      "inputs": [
        {
          "internalType": "bytes32",
          "name": "contractName",
          "type": "bytes32"
        },
        {
          "internalType": "bytes32[]",
          "name": "records",
          "type": "bytes32[]"
        },
        {
          "internalType": "int256[]",
          "name": "values",
          "type": "int256[]"
        }
      ],
      "name": "setIntValues",
      "outputs": [],
      "payable": false,
      "stateMutability": "nonpayable",
      "type": "function"
    },
    {
      "constant": false,
      "inputs": [
        {
          "internalType": "bytes32",
          "name": "contractName",
          "type": "bytes32"
        },
        {
          "internalType": "bytes32",
          "name": "record",
          "type": "bytes32"
        },
        {
          "internalType": "uint256",
          "name": "value",
          "type": "uint256"
        }
      ],
      "name": "setUIntValue",
      "outputs": [],
      "payable": false,
      "stateMutability": "nonpayable",
      "type": "function"
    },
    {
      "constant": false,
      "inputs": [
        {
          "internalType": "bytes32",
          "name": "contractName",
          "type": "bytes32"
        },
        {
          "internalType": "bytes32[]",
          "name": "records",
          "type": "bytes32[]"
        },
        {
          "internalType": "uint256[]",
          "name": "values",
          "type": "uint256[]"
        }
      ],
      "name": "setUIntValues",
      "outputs": [],
      "payable": false,
      "stateMutability": "nonpayable",
      "type": "function"
    }
  ],
  "bytecode": "0x608060405234801561001057600080fd5b506040516139263803806139268339818101604052602081101561003357600080fd5b810190808051906020019092919050505080806000806101000a81548173ffffffffffffffffffffffffffffffffffffffff021916908373ffffffffffffffffffffffffffffffffffffffff1602179055505050613890806100966000396000f3fe608060405234801561001057600080fd5b50600436106101c35760003560e01c80638ca0adaf116100f9578063c89eb56211610097578063d994502d11610071578063d994502d14610d82578063f7833c5d14610dd2578063f9c39d2f14610e1e578063fdfc4c1314610ef6576101c3565b8063c89eb56214610c26578063d658d2e914610cfe578063d71a9b0114610d40576101c3565b8063ab15985d116100d3578063ab15985d14610952578063b67fa7ed14610a2a578063c13a2b0c14610b02578063c4f610ed14610bda576101c3565b80638ca0adaf146107ca5780638f6b95a3146108a25780639ee5955a146108da576101c3565b806335ab2708116101665780634dca0978116101405780634dca09781461060c5780635bda91e2146106645780636a59e495146106a85780638408a5e5146106f2576101c3565b806335ab2708146104b85780633bd6ad89146104f05780633f28a6fc146105c8576101c3565b80631625e3ef116101a25780631625e3ef146103ba57806318f662ed146103f25780631d5b277f1461042a57806323257c2b1461046c576101c3565b80624b62d6146101c857806303cdc0171461020a578063142a391e146102e2575b600080fd5b610208600480360360608110156101de57600080fd5b81019080803590602001909291908035906020019092919080359060200190929190505050610f2e565b005b6102e06004803603606081101561022057600080fd5b81019080803590602001909291908035906020019064010000000081111561024757600080fd5b82018360208201111561025957600080fd5b8035906020019184602083028401116401000000008311171561027b57600080fd5b90919293919293908035906020019064010000000081111561029c57600080fd5b8201836020820111156102ae57600080fd5b803590602001918460208302840111640100000000831117156102d057600080fd5b9091929391929390505050611092565b005b610363600480360360408110156102f857600080fd5b81019080803590602001909291908035906020019064010000000081111561031f57600080fd5b82018360208201111561033157600080fd5b8035906020019184602083028401116401000000008311171561035357600080fd5b90919293919293905050506112b6565b6040518080602001828103825283818151815260200191508051906020019060200280838360005b838110156103a657808201518184015260208101905061038b565b505050509050019250505060405180910390f35b6103f0600480360360408110156103d057600080fd5b810190808035906020019092919080359060200190929190505050611380565b005b6104286004803603604081101561040857600080fd5b8101908080359060200190929190803590602001909291905050506115b4565b005b61046a6004803603606081101561044057600080fd5b810190808035906020019092919080359060200190929190803590602001909291905050506117cb565b005b6104a26004803603604081101561048257600080fd5b81019080803590602001909291908035906020019092919050505061192f565b6040518082815260200191505060405180910390f35b6104ee600480360360408110156104ce57600080fd5b810190808035906020019092919080359060200190929190505050611971565b005b6105c66004803603606081101561050657600080fd5b81019080803590602001909291908035906020019064010000000081111561052d57600080fd5b82018360208201111561053f57600080fd5b8035906020019184602083028401116401000000008311171561056157600080fd5b90919293919293908035906020019064010000000081111561058257600080fd5b82018360208201111561059457600080fd5b803590602001918460208302840111640100000000831117156105b657600080fd5b9091929391929390505050611b88565b005b61060a600480360360608110156105de57600080fd5b810190808035906020019092919080359060200190929190803515159060200190929190505050611dc2565b005b6106626004803603606081101561062257600080fd5b810190808035906020019092919080359060200190929190803573ffffffffffffffffffffffffffffffffffffffff169060200190929190505050611f26565b005b6106a66004803603606081101561067a57600080fd5b81019080803590602001909291908035906020019092919080351515906020019092919050505061208a565b005b6106b0612303565b604051808273ffffffffffffffffffffffffffffffffffffffff1673ffffffffffffffffffffffffffffffffffffffff16815260200191505060405180910390f35b6107736004803603604081101561070857600080fd5b81019080803590602001909291908035906020019064010000000081111561072f57600080fd5b82018360208201111561074157600080fd5b8035906020019184602083028401116401000000008311171561076357600080fd5b9091929391929390505050612328565b6040518080602001828103825283818151815260200191508051906020019060200280838360005b838110156107b657808201518184015260208101905061079b565b505050509050019250505060405180910390f35b61084b600480360360408110156107e057600080fd5b81019080803590602001909291908035906020019064010000000081111561080757600080fd5b82018360208201111561081957600080fd5b8035906020019184602083028401116401000000008311171561083b57600080fd5b90919293919293905050506123f2565b6040518080602001828103825283818151815260200191508051906020019060200280838360005b8381101561088e578082015181840152602081019050610873565b505050509050019250505060405180910390f35b6108d8600480360360408110156108b857600080fd5b81019080803590602001909291908035906020019092919050505061250a565b005b610910600480360360408110156108f057600080fd5b81019080803590602001909291908035906020019092919050505061278c565b604051808273ffffffffffffffffffffffffffffffffffffffff1673ffffffffffffffffffffffffffffffffffffffff16815260200191505060405180910390f35b610a286004803603606081101561096857600080fd5b81019080803590602001909291908035906020019064010000000081111561098f57600080fd5b8201836020820111156109a157600080fd5b803590602001918460208302840111640100000000831117156109c357600080fd5b9091929391929390803590602001906401000000008111156109e457600080fd5b8201836020820111156109f657600080fd5b80359060200191846020830284011164010000000083111715610a1857600080fd5b90919293919293905050506127ee565b005b610aab60048036036040811015610a4057600080fd5b810190808035906020019092919080359060200190640100000000811115610a6757600080fd5b820183602082011115610a7957600080fd5b80359060200191846020830284011164010000000083111715610a9b57600080fd5b9091929391929390505050612a12565b6040518080602001828103825283818151815260200191508051906020019060200280838360005b83811015610aee578082015181840152602081019050610ad3565b505050509050019250505060405180910390f35b610b8360048036036040811015610b1857600080fd5b810190808035906020019092919080359060200190640100000000811115610b3f57600080fd5b820183602082011115610b5157600080fd5b80359060200191846020830284011164010000000083111715610b7357600080fd5b9091929391929390505050612adc565b6040518080602001828103825283818151815260200191508051906020019060200280838360005b83811015610bc6578082015181840152602081019050610bab565b505050509050019250505060405180910390f35b610c1060048036036040811015610bf057600080fd5b810190808035906020019092919080359060200190929190505050612bb9565b6040518082815260200191505060405180910390f35b610cfc60048036036060811015610c3c57600080fd5b810190808035906020019092919080359060200190640100000000811115610c6357600080fd5b820183602082011115610c7557600080fd5b80359060200191846020830284011164010000000083111715610c9757600080fd5b909192939192939080359060200190640100000000811115610cb857600080fd5b820183602082011115610cca57600080fd5b80359060200191846020830284011164010000000083111715610cec57600080fd5b9091929391929390505050612bfb565b005b610d2a60048036036020811015610d1457600080fd5b8101908080359060200190929190505050612e1f565b6040518082815260200191505060405180910390f35b610d8060048036036060811015610d5657600080fd5b81019080803590602001909291908035906020019092919080359060200190929190505050612e37565b005b610db860048036036040811015610d9857600080fd5b810190808035906020019092919080359060200190929190505050612f9b565b604051808215151515815260200191505060405180910390f35b610e0860048036036040811015610de857600080fd5b810190808035906020019092919080359060200190929190505050612fea565b6040518082815260200191505060405180910390f35b610ef460048036036060811015610e3457600080fd5b810190808035906020019092919080359060200190640100000000811115610e5b57600080fd5b820183602082011115610e6d57600080fd5b80359060200191846020830284011164010000000083111715610e8f57600080fd5b909192939192939080359060200190640100000000811115610eb057600080fd5b820183602082011115610ec257600080fd5b80359060200191846020830284011164010000000083111715610ee457600080fd5b909192939192939050505061302c565b005b610f2c60048036036040811015610f0c57600080fd5b810190808035906020019092919080359060200190929190505050613252565b005b8260008060009054906101000a900473ffffffffffffffffffffffffffffffffffffffff1673ffffffffffffffffffffffffffffffffffffffff1663dacb2d01836040518263ffffffff1660e01b8152600401808281526020018060200182810382526028815260200180613806602891396040019250505060206040518083038186803b158015610fbf57600080fd5b505afa158015610fd3573d6000803e3d6000fd5b505050506040513d6020811015610fe957600080fd5b810190808051906020019092919050505090503373ffffffffffffffffffffffffffffffffffffffff168173ffffffffffffffffffffffffffffffffffffffff1614611080576040517f08c379a000000000000000000000000000000000000000000000000000000000815260040180806020018281038252602e81526020018061382e602e913960400191505060405180910390fd5b61108b858585613469565b5050505050565b8460008060009054906101000a900473ffffffffffffffffffffffffffffffffffffffff1673ffffffffffffffffffffffffffffffffffffffff1663dacb2d01836040518263ffffffff1660e01b8152600401808281526020018060200182810382526028815260200180613806602891396040019250505060206040518083038186803b15801561112357600080fd5b505afa158015611137573d6000803e3d6000fd5b505050506040513d602081101561114d57600080fd5b810190808051906020019092919050505090503373ffffffffffffffffffffffffffffffffffffffff168173ffffffffffffffffffffffffffffffffffffffff16146111e4576040517f08c379a000000000000000000000000000000000000000000000000000000000815260040180806020018281038252602e81526020018061382e602e913960400191505060405180910390fd5b83839050868690501461125f576040517f08c379a00000000000000000000000000000000000000000000000000000000081526004018080602001828103825260188152602001807f496e707574206c656e67746873206d757374206d61746368000000000000000081525060200191505060405180910390fd5b60008090505b868690508110156112ac5761129f8888888481811061128057fe5b9050602002013587878581811061129357fe5b905060200201356134e6565b8080600101915050611265565b5050505050505050565b606080838390506040519080825280602002602001820160405280156112eb5781602001602082028038833980820191505090505b50905060006003600060016000898152602001908152602001600020548152602001908152602001600020905060008090505b858590508110156113735781600087878481811061133857fe5b9050602002013581526020019081526020016000205483828151811061135a57fe5b602002602001018181525050808060010191505061131e565b5081925050509392505050565b8160008060009054906101000a900473ffffffffffffffffffffffffffffffffffffffff1673ffffffffffffffffffffffffffffffffffffffff1663dacb2d01836040518263ffffffff1660e01b8152600401808281526020018060200182810382526028815260200180613806602891396040019250505060206040518083038186803b15801561141157600080fd5b505afa158015611425573d6000803e3d6000fd5b505050506040513d602081101561143b57600080fd5b810190808051906020019092919050505090503373ffffffffffffffffffffffffffffffffffffffff168173ffffffffffffffffffffffffffffffffffffffff16146114d2576040517f08c379a000000000000000000000000000000000000000000000000000000000815260040180806020018281038252602e81526020018061382e602e913960400191505060405180910390fd5b60006005600060016000888152602001908152602001600020548152602001908152602001600020600085815260200190815260200160002060009054906101000a900460ff1690507f321123223c2c7bffd7484ae8fb80c6eb45aa5537df0a621c47833ab9376a4a9c8585836040518084815260200183815260200182151515158152602001935050505060405180910390a16005600060016000888152602001908152602001600020548152602001908152602001600020600085815260200190815260200160002060006101000a81549060ff02191690555050505050565b8160008060009054906101000a900473ffffffffffffffffffffffffffffffffffffffff1673ffffffffffffffffffffffffffffffffffffffff1663dacb2d01836040518263ffffffff1660e01b8152600401808281526020018060200182810382526028815260200180613806602891396040019250505060206040518083038186803b15801561164557600080fd5b505afa158015611659573d6000803e3d6000fd5b505050506040513d602081101561166f57600080fd5b810190808051906020019092919050505090503373ffffffffffffffffffffffffffffffffffffffff168173ffffffffffffffffffffffffffffffffffffffff1614611706576040517f08c379a000000000000000000000000000000000000000000000000000000000815260040180806020018281038252602e81526020018061382e602e913960400191505060405180910390fd5b6000600260006001600088815260200190815260200160002054815260200190815260200160002060008581526020019081526020016000205490507f8a6b612c1a1e056bc504f34fe56106a878fca2d1a50be35360d02ac39d4d466285858360405180848152602001838152602001828152602001935050505060405180910390a160026000600160008881526020019081526020016000205481526020019081526020016000206000858152602001908152602001600020600090555050505050565b8260008060009054906101000a900473ffffffffffffffffffffffffffffffffffffffff1673ffffffffffffffffffffffffffffffffffffffff1663dacb2d01836040518263ffffffff1660e01b8152600401808281526020018060200182810382526028815260200180613806602891396040019250505060206040518083038186803b15801561185c57600080fd5b505afa158015611870573d6000803e3d6000fd5b505050506040513d602081101561188657600080fd5b810190808051906020019092919050505090503373ffffffffffffffffffffffffffffffffffffffff168173ffffffffffffffffffffffffffffffffffffffff161461191d576040517f08c379a000000000000000000000000000000000000000000000000000000000815260040180806020018281038252602e81526020018061382e602e913960400191505060405180910390fd5b6119288585856134e6565b5050505050565b60006002600060016000868152602001908152602001600020548152602001908152602001600020600083815260200190815260200160002054905092915050565b8160008060009054906101000a900473ffffffffffffffffffffffffffffffffffffffff1673ffffffffffffffffffffffffffffffffffffffff1663dacb2d01836040518263ffffffff1660e01b8152600401808281526020018060200182810382526028815260200180613806602891396040019250505060206040518083038186803b158015611a0257600080fd5b505afa158015611a16573d6000803e3d6000fd5b505050506040513d6020811015611a2c57600080fd5b810190808051906020019092919050505090503373ffffffffffffffffffffffffffffffffffffffff168173ffffffffffffffffffffffffffffffffffffffff1614611ac3576040517f08c379a000000000000000000000000000000000000000000000000000000000815260040180806020018281038252602e81526020018061382e602e913960400191505060405180910390fd5b6000600660006001600088815260200190815260200160002054815260200190815260200160002060008581526020019081526020016000205490507f1f751825a531bf2a176e42d5cb792bb7228163cf53e36b033509ccbe869cfd9385858360405180848152602001838152602001828152602001935050505060405180910390a160066000600160008881526020019081526020016000205481526020019081526020016000206000858152602001908152602001600020600090555050505050565b8460008060009054906101000a900473ffffffffffffffffffffffffffffffffffffffff1673ffffffffffffffffffffffffffffffffffffffff1663dacb2d01836040518263ffffffff1660e01b8152600401808281526020018060200182810382526028815260200180613806602891396040019250505060206040518083038186803b158015611c1957600080fd5b505afa158015611c2d573d6000803e3d6000fd5b505050506040513d6020811015611c4357600080fd5b810190808051906020019092919050505090503373ffffffffffffffffffffffffffffffffffffffff168173ffffffffffffffffffffffffffffffffffffffff1614611cda576040517f08c379a000000000000000000000000000000000000000000000000000000000815260040180806020018281038252602e81526020018061382e602e913960400191505060405180910390fd5b838390508686905014611d55576040517f08c379a00000000000000000000000000000000000000000000000000000000081526004018080602001828103825260188152602001807f496e707574206c656e67746873206d757374206d61746368000000000000000081525060200191505060405180910390fd5b60008090505b86869050811015611db857611dab88888884818110611d7657fe5b90506020020135878785818110611d8957fe5b9050602002013573ffffffffffffffffffffffffffffffffffffffff16613563565b8080600101915050611d5b565b5050505050505050565b8260008060009054906101000a900473ffffffffffffffffffffffffffffffffffffffff1673ffffffffffffffffffffffffffffffffffffffff1663dacb2d01836040518263ffffffff1660e01b8152600401808281526020018060200182810382526028815260200180613806602891396040019250505060206040518083038186803b158015611e5357600080fd5b505afa158015611e67573d6000803e3d6000fd5b505050506040513d6020811015611e7d57600080fd5b810190808051906020019092919050505090503373ffffffffffffffffffffffffffffffffffffffff168173ffffffffffffffffffffffffffffffffffffffff1614611f14576040517f08c379a000000000000000000000000000000000000000000000000000000000815260040180806020018281038252602e81526020018061382e602e913960400191505060405180910390fd5b611f1f858585613646565b5050505050565b8260008060009054906101000a900473ffffffffffffffffffffffffffffffffffffffff1673ffffffffffffffffffffffffffffffffffffffff1663dacb2d01836040518263ffffffff1660e01b8152600401808281526020018060200182810382526028815260200180613806602891396040019250505060206040518083038186803b158015611fb757600080fd5b505afa158015611fcb573d6000803e3d6000fd5b505050506040513d6020811015611fe157600080fd5b810190808051906020019092919050505090503373ffffffffffffffffffffffffffffffffffffffff168173ffffffffffffffffffffffffffffffffffffffff1614612078576040517f08c379a000000000000000000000000000000000000000000000000000000000815260040180806020018281038252602e81526020018061382e602e913960400191505060405180910390fd5b612083858585613563565b5050505050565b8260008060009054906101000a900473ffffffffffffffffffffffffffffffffffffffff1673ffffffffffffffffffffffffffffffffffffffff1663dacb2d01836040518263ffffffff1660e01b8152600401808281526020018060200182810382526028815260200180613806602891396040019250505060206040518083038186803b15801561211b57600080fd5b505afa15801561212f573d6000803e3d6000fd5b505050506040513d602081101561214557600080fd5b810190808051906020019092919050505090503373ffffffffffffffffffffffffffffffffffffffff168173ffffffffffffffffffffffffffffffffffffffff16146121dc576040517f08c379a000000000000000000000000000000000000000000000000000000000815260040180806020018281038252602e81526020018061382e602e913960400191505060405180910390fd5b6000801b60016000878152602001908152602001600020541415612268576040517f08c379a000000000000000000000000000000000000000000000000000000000815260040180806020018281038252601d8152602001807f43616e6e6f74206d69677261746520656d70747920636f6e747261637400000081525060200191505060405180910390fd5b6001600086815260200190815260200160002054600160008681526020019081526020016000208190555082156122b15760016000868152602001908152602001600020600090555b7fa3db9c909daa141b61562c797dae4dc4b3d7751686068c98111db87b2a8c374c8585856040518084815260200183815260200182151515158152602001935050505060405180910390a15050505050565b6000809054906101000a900473ffffffffffffffffffffffffffffffffffffffff1681565b6060808383905060405190808252806020026020018201604052801561235d5781602001602082028038833980820191505090505b50905060006006600060016000898152602001908152602001600020548152602001908152602001600020905060008090505b858590508110156123e5578160008787848181106123aa57fe5b905060200201358152602001908152602001600020548382815181106123cc57fe5b6020026020010181815250508080600101915050612390565b5081925050509392505050565b606080838390506040519080825280602002602001820160405280156124275781602001602082028038833980820191505090505b50905060006004600060016000898152602001908152602001600020548152602001908152602001600020905060008090505b858590508110156124fd5781600087878481811061247457fe5b90506020020135815260200190815260200160002060009054906101000a900473ffffffffffffffffffffffffffffffffffffffff168382815181106124b657fe5b602002602001019073ffffffffffffffffffffffffffffffffffffffff16908173ffffffffffffffffffffffffffffffffffffffff1681525050808060010191505061245a565b5081925050509392505050565b8160008060009054906101000a900473ffffffffffffffffffffffffffffffffffffffff1673ffffffffffffffffffffffffffffffffffffffff1663dacb2d01836040518263ffffffff1660e01b8152600401808281526020018060200182810382526028815260200180613806602891396040019250505060206040518083038186803b15801561259b57600080fd5b505afa1580156125af573d6000803e3d6000fd5b505050506040513d60208110156125c557600080fd5b810190808051906020019092919050505090503373ffffffffffffffffffffffffffffffffffffffff168173ffffffffffffffffffffffffffffffffffffffff161461265c576040517f08c379a000000000000000000000000000000000000000000000000000000000815260040180806020018281038252602e81526020018061382e602e913960400191505060405180910390fd5b60006004600060016000888152602001908152602001600020548152602001908152602001600020600085815260200190815260200160002060009054906101000a900473ffffffffffffffffffffffffffffffffffffffff1690507fec1140277b8f20820dc76b92216489238a207d5f22c964099303820fbd2bdf66858583604051808481526020018381526020018273ffffffffffffffffffffffffffffffffffffffff1673ffffffffffffffffffffffffffffffffffffffff168152602001935050505060405180910390a16004600060016000888152602001908152602001600020548152602001908152602001600020600085815260200190815260200160002060006101000a81549073ffffffffffffffffffffffffffffffffffffffff02191690555050505050565b60006004600060016000868152602001908152602001600020548152602001908152602001600020600083815260200190815260200160002060009054906101000a900473ffffffffffffffffffffffffffffffffffffffff16905092915050565b8460008060009054906101000a900473ffffffffffffffffffffffffffffffffffffffff1673ffffffffffffffffffffffffffffffffffffffff1663dacb2d01836040518263ffffffff1660e01b8152600401808281526020018060200182810382526028815260200180613806602891396040019250505060206040518083038186803b15801561287f57600080fd5b505afa158015612893573d6000803e3d6000fd5b505050506040513d60208110156128a957600080fd5b810190808051906020019092919050505090503373ffffffffffffffffffffffffffffffffffffffff168173ffffffffffffffffffffffffffffffffffffffff1614612940576040517f08c379a000000000000000000000000000000000000000000000000000000000815260040180806020018281038252602e81526020018061382e602e913960400191505060405180910390fd5b8383905086869050146129bb576040517f08c379a00000000000000000000000000000000000000000000000000000000081526004018080602001828103825260188152602001807f496e707574206c656e67746873206d757374206d61746368000000000000000081525060200191505060405180910390fd5b60008090505b86869050811015612a08576129fb888888848181106129dc57fe5b905060200201358787858181106129ef57fe5b905060200201356136da565b80806001019150506129c1565b5050505050505050565b60608083839050604051908082528060200260200182016040528015612a475781602001602082028038833980820191505090505b50905060006002600060016000898152602001908152602001600020548152602001908152602001600020905060008090505b85859050811015612acf57816000878784818110612a9457fe5b90506020020135815260200190815260200160002054838281518110612ab657fe5b6020026020010181815250508080600101915050612a7a565b5081925050509392505050565b60608083839050604051908082528060200260200182016040528015612b115781602001602082028038833980820191505090505b50905060006005600060016000898152602001908152602001600020548152602001908152602001600020905060008090505b85859050811015612bac57816000878784818110612b5e57fe5b90506020020135815260200190815260200160002060009054906101000a900460ff16838281518110612b8d57fe5b6020026020010190151590811515815250508080600101915050612b44565b5081925050509392505050565b60006003600060016000868152602001908152602001600020548152602001908152602001600020600083815260200190815260200160002054905092915050565b8460008060009054906101000a900473ffffffffffffffffffffffffffffffffffffffff1673ffffffffffffffffffffffffffffffffffffffff1663dacb2d01836040518263ffffffff1660e01b8152600401808281526020018060200182810382526028815260200180613806602891396040019250505060206040518083038186803b158015612c8c57600080fd5b505afa158015612ca0573d6000803e3d6000fd5b505050506040513d6020811015612cb657600080fd5b810190808051906020019092919050505090503373ffffffffffffffffffffffffffffffffffffffff168173ffffffffffffffffffffffffffffffffffffffff1614612d4d576040517f08c379a000000000000000000000000000000000000000000000000000000000815260040180806020018281038252602e81526020018061382e602e913960400191505060405180910390fd5b838390508686905014612dc8576040517f08c379a00000000000000000000000000000000000000000000000000000000081526004018080602001828103825260188152602001807f496e707574206c656e67746873206d757374206d61746368000000000000000081525060200191505060405180910390fd5b60008090505b86869050811015612e1557612e0888888884818110612de957fe5b90506020020135878785818110612dfc57fe5b90506020020135613469565b8080600101915050612dce565b5050505050505050565b60016020528060005260406000206000915090505481565b8260008060009054906101000a900473ffffffffffffffffffffffffffffffffffffffff1673ffffffffffffffffffffffffffffffffffffffff1663dacb2d01836040518263ffffffff1660e01b8152600401808281526020018060200182810382526028815260200180613806602891396040019250505060206040518083038186803b158015612ec857600080fd5b505afa158015612edc573d6000803e3d6000fd5b505050506040513d6020811015612ef257600080fd5b810190808051906020019092919050505090503373ffffffffffffffffffffffffffffffffffffffff168173ffffffffffffffffffffffffffffffffffffffff1614612f89576040517f08c379a000000000000000000000000000000000000000000000000000000000815260040180806020018281038252602e81526020018061382e602e913960400191505060405180910390fd5b612f948585856136da565b5050505050565b60006005600060016000868152602001908152602001600020548152602001908152602001600020600083815260200190815260200160002060009054906101000a900460ff16905092915050565b60006006600060016000868152602001908152602001600020548152602001908152602001600020600083815260200190815260200160002054905092915050565b8460008060009054906101000a900473ffffffffffffffffffffffffffffffffffffffff1673ffffffffffffffffffffffffffffffffffffffff1663dacb2d01836040518263ffffffff1660e01b8152600401808281526020018060200182810382526028815260200180613806602891396040019250505060206040518083038186803b1580156130bd57600080fd5b505afa1580156130d1573d6000803e3d6000fd5b505050506040513d60208110156130e757600080fd5b810190808051906020019092919050505090503373ffffffffffffffffffffffffffffffffffffffff168173ffffffffffffffffffffffffffffffffffffffff161461317e576040517f08c379a000000000000000000000000000000000000000000000000000000000815260040180806020018281038252602e81526020018061382e602e913960400191505060405180910390fd5b8383905086869050146131f9576040517f08c379a00000000000000000000000000000000000000000000000000000000081526004018080602001828103825260188152602001807f496e707574206c656e67746873206d757374206d61746368000000000000000081525060200191505060405180910390fd5b60008090505b868690508110156132485761323b8888888481811061321a57fe5b9050602002013587878581811061322d57fe5b905060200201351515613646565b80806001019150506131ff565b5050505050505050565b8160008060009054906101000a900473ffffffffffffffffffffffffffffffffffffffff1673ffffffffffffffffffffffffffffffffffffffff1663dacb2d01836040518263ffffffff1660e01b8152600401808281526020018060200182810382526028815260200180613806602891396040019250505060206040518083038186803b1580156132e357600080fd5b505afa1580156132f7573d6000803e3d6000fd5b505050506040513d602081101561330d57600080fd5b810190808051906020019092919050505090503373ffffffffffffffffffffffffffffffffffffffff168173ffffffffffffffffffffffffffffffffffffffff16146133a4576040517f08c379a000000000000000000000000000000000000000000000000000000000815260040180806020018281038252602e81526020018061382e602e913960400191505060405180910390fd5b6000600360006001600088815260200190815260200160002054815260200190815260200160002060008581526020019081526020016000205490507f78962c711b5655608c554689ba42e4890d9e5d3f590b99842612ad39cd7ae0ae85858360405180848152602001838152602001828152602001935050505060405180910390a160036000600160008881526020019081526020016000205481526020019081526020016000206000858152602001908152602001600020600090555050505050565b806006600061347786613757565b81526020019081526020016000206000848152602001908152602001600020819055507f961abb018d8a303304c9f1ff1f306c7493a8b68b381bbe4e9a3abf9588a9528083838360405180848152602001838152602001828152602001935050505060405180910390a1505050565b80600260006134f486613757565b81526020019081526020016000206000848152602001908152602001600020819055507f60738523f766167cfd2310c61593dc795bc9d77de9276ed7e0c514df55e0a2c983838360405180848152602001838152602001828152602001935050505060405180910390a1505050565b806004600061357186613757565b8152602001908152602001600020600084815260200190815260200160002060006101000a81548173ffffffffffffffffffffffffffffffffffffffff021916908373ffffffffffffffffffffffffffffffffffffffff1602179055507f524fb430ecbfd4606a947f9ae445dbf7c9703944cf928789b86f3a8aad639365838383604051808481526020018381526020018273ffffffffffffffffffffffffffffffffffffffff1673ffffffffffffffffffffffffffffffffffffffff168152602001935050505060405180910390a1505050565b806005600061365486613757565b8152602001908152602001600020600084815260200190815260200160002060006101000a81548160ff0219169083151502179055507f9c94ad4cfff55907724cb65340f342d3897dd884e6cd3c2d3777087191d5eb7b8383836040518084815260200183815260200182151515158152602001935050505060405180910390a1505050565b80600360006136e886613757565b81526020019081526020016000206000848152602001908152602001600020819055507f0d8877f604dfe262a8ac3904781814f022156c9341af779608a2ae0beef1906c83838360405180848152602001838152602001828152602001935050505060405180910390a1505050565b600080600160008481526020019081526020016000205490506000801b8114156137fc57338343604051602001808473ffffffffffffffffffffffffffffffffffffffff1673ffffffffffffffffffffffffffffffffffffffff1660601b815260140183815260200182815260200193505050506040516020818303038152906040528051906020012090508060016000858152602001908152602001600020819055505b8091505091905056fe43616e6e6f742066696e6420636f6e747261637420696e2041646472657373205265736f6c76657243616e206f6e6c7920626520696e766f6b65642062792074686520636f6e6669677572656420636f6e7472616374a265627a7a72315820767e89238f13e352fa11d8ed75fcaa6a5d1894c64e6ef094defd4d200a565c0a64736f6c63430005100032",
  "linkReferences": {},
  "deployedLinkReferences": {}
}