{
  "_format": "hh-sol-artifact-1",
  "contractName": "ExchangeRatesWithoutInvPricing",
  "sourceName": "contracts/ExchangeRatesWithoutInvPricing.sol",
  "abi": [
    {
      "inputs": [
        {
          "internalType": "address",
          "name": "_owner",
          "type": "address"
        },
        {
          "internalType": "address",
          "name": "_oracle",
          "type": "address"
        },
        {
          "internalType": "address",
          "name": "_resolver",
          "type": "address"
        },
        {
          "internalType": "bytes32[]",
          "name": "_currencyKeys",
          "type": "bytes32[]"
        },
        {
          "internalType": "uint256[]",
          "name": "_newRates",
          "type": "uint256[]"
        }
      ],
      "payable": false,
      "stateMutability": "nonpayable",
      "type": "constructor"
    },
    {
      "anonymous": false,
      "inputs": [
        {
          "indexed": false,
          "internalType": "bytes32",
          "name": "currencyKey",
          "type": "bytes32"
        },
        {
          "indexed": false,
          "internalType": "address",
          "name": "aggregator",
          "type": "address"
        }
      ],
      "name": "AggregatorAdded",
      "type": "event"
    },
    {
      "anonymous": false,
      "inputs": [
        {
          "indexed": false,
          "internalType": "bytes32",
          "name": "currencyKey",
          "type": "bytes32"
        },
        {
          "indexed": false,
          "internalType": "address",
          "name": "aggregator",
          "type": "address"
        }
      ],
      "name": "AggregatorRemoved",
      "type": "event"
    },
    {
      "anonymous": false,
      "inputs": [
        {
          "indexed": false,
          "internalType": "bytes32",
          "name": "name",
          "type": "bytes32"
        },
        {
          "indexed": false,
          "internalType": "address",
          "name": "destination",
          "type": "address"
        }
      ],
      "name": "CacheUpdated",
      "type": "event"
    },
    {
      "anonymous": false,
      "inputs": [
        {
          "indexed": false,
          "internalType": "bytes32",
          "name": "currencyKey",
          "type": "bytes32"
        },
        {
          "indexed": false,
          "internalType": "uint256",
          "name": "entryPoint",
          "type": "uint256"
        },
        {
          "indexed": false,
          "internalType": "uint256",
          "name": "upperLimit",
          "type": "uint256"
        },
        {
          "indexed": false,
          "internalType": "uint256",
          "name": "lowerLimit",
          "type": "uint256"
        }
      ],
      "name": "InversePriceConfigured",
      "type": "event"
    },
    {
      "anonymous": false,
      "inputs": [
        {
          "indexed": false,
          "internalType": "bytes32",
          "name": "currencyKey",
          "type": "bytes32"
        },
        {
          "indexed": false,
          "internalType": "uint256",
          "name": "rate",
          "type": "uint256"
        },
        {
          "indexed": false,
          "internalType": "uint256",
          "name": "roundId",
          "type": "uint256"
        },
        {
          "indexed": false,
          "internalType": "address",
          "name": "initiator",
          "type": "address"
        }
      ],
      "name": "InversePriceFrozen",
      "type": "event"
    },
    {
      "anonymous": false,
      "inputs": [
        {
          "indexed": false,
          "internalType": "address",
          "name": "newOracle",
          "type": "address"
        }
      ],
      "name": "OracleUpdated",
      "type": "event"
    },
    {
      "anonymous": false,
      "inputs": [
        {
          "indexed": false,
          "internalType": "address",
          "name": "oldOwner",
          "type": "address"
        },
        {
          "indexed": false,
          "internalType": "address",
          "name": "newOwner",
          "type": "address"
        }
      ],
      "name": "OwnerChanged",
      "type": "event"
    },
    {
      "anonymous": false,
      "inputs": [
        {
          "indexed": false,
          "internalType": "address",
          "name": "newOwner",
          "type": "address"
        }
      ],
      "name": "OwnerNominated",
      "type": "event"
    },
    {
      "anonymous": false,
      "inputs": [
        {
          "indexed": false,
          "internalType": "bytes32",
          "name": "currencyKey",
          "type": "bytes32"
        }
      ],
      "name": "RateDeleted",
      "type": "event"
    },
    {
      "anonymous": false,
      "inputs": [
        {
          "indexed": false,
          "internalType": "bytes32[]",
          "name": "currencyKeys",
          "type": "bytes32[]"
        },
        {
          "indexed": false,
          "internalType": "uint256[]",
          "name": "newRates",
          "type": "uint256[]"
        }
      ],
      "name": "RatesUpdated",
      "type": "event"
    },
    {
      "constant": false,
      "inputs": [],
      "name": "acceptOwnership",
      "outputs": [],
      "payable": false,
      "stateMutability": "nonpayable",
      "type": "function"
    },
    {
      "constant": false,
      "inputs": [
        {
          "internalType": "bytes32",
          "name": "currencyKey",
          "type": "bytes32"
        },
        {
          "internalType": "address",
          "name": "aggregatorAddress",
          "type": "address"
        }
      ],
      "name": "addAggregator",
      "outputs": [],
      "payable": false,
      "stateMutability": "nonpayable",
      "type": "function"
    },
    {
      "constant": true,
      "inputs": [
        {
          "internalType": "uint256",
          "name": "",
          "type": "uint256"
        }
      ],
      "name": "aggregatorKeys",
      "outputs": [
        {
          "internalType": "bytes32",
          "name": "",
          "type": "bytes32"
        }
      ],
      "payable": false,
      "stateMutability": "view",
      "type": "function"
    },
    {
      "constant": true,
      "inputs": [],
      "name": "aggregatorWarningFlags",
      "outputs": [
        {
          "internalType": "address",
          "name": "",
          "type": "address"
        }
      ],
      "payable": false,
      "stateMutability": "view",
      "type": "function"
    },
    {
      "constant": true,
      "inputs": [
        {
          "internalType": "bytes32",
          "name": "",
          "type": "bytes32"
        }
      ],
      "name": "aggregators",
      "outputs": [
        {
          "internalType": "contract AggregatorV2V3Interface",
          "name": "",
          "type": "address"
        }
      ],
      "payable": false,
      "stateMutability": "view",
      "type": "function"
    },
    {
      "constant": true,
      "inputs": [
        {
          "internalType": "bytes32[]",
          "name": "currencyKeys",
          "type": "bytes32[]"
        }
      ],
      "name": "anyRateIsInvalid",
      "outputs": [
        {
          "internalType": "bool",
          "name": "",
          "type": "bool"
        }
      ],
      "payable": false,
      "stateMutability": "view",
      "type": "function"
    },
    {
      "constant": true,
      "inputs": [
        {
          "internalType": "bytes32",
          "name": "",
          "type": "bytes32"
        }
      ],
      "name": "canFreezeRate",
      "outputs": [
        {
          "internalType": "bool",
          "name": "",
          "type": "bool"
        }
      ],
      "payable": false,
      "stateMutability": "view",
      "type": "function"
    },
    {
      "constant": true,
      "inputs": [
        {
          "internalType": "address",
          "name": "aggregator",
          "type": "address"
        }
      ],
      "name": "currenciesUsingAggregator",
      "outputs": [
        {
          "internalType": "bytes32[]",
          "name": "currencies",
          "type": "bytes32[]"
        }
      ],
      "payable": false,
      "stateMutability": "view",
      "type": "function"
    },
    {
      "constant": true,
      "inputs": [
        {
          "internalType": "bytes32",
          "name": "",
          "type": "bytes32"
        }
      ],
      "name": "currencyKeyDecimals",
      "outputs": [
        {
          "internalType": "uint8",
          "name": "",
          "type": "uint8"
        }
      ],
      "payable": false,
      "stateMutability": "view",
      "type": "function"
    },
    {
      "constant": true,
      "inputs": [
        {
          "internalType": "bytes32",
          "name": "",
          "type": "bytes32"
        }
      ],
      "name": "currentRoundForRate",
      "outputs": [
        {
          "internalType": "uint256",
          "name": "",
          "type": "uint256"
        }
      ],
      "payable": false,
      "stateMutability": "view",
      "type": "function"
    },
    {
      "constant": false,
      "inputs": [
        {
          "internalType": "bytes32",
          "name": "currencyKey",
          "type": "bytes32"
        }
      ],
      "name": "deleteRate",
      "outputs": [],
      "payable": false,
      "stateMutability": "nonpayable",
      "type": "function"
    },
    {
      "constant": true,
      "inputs": [
        {
          "internalType": "bytes32",
          "name": "sourceCurrencyKey",
          "type": "bytes32"
        },
        {
          "internalType": "uint256",
          "name": "sourceAmount",
          "type": "uint256"
        },
        {
          "internalType": "bytes32",
          "name": "destinationCurrencyKey",
          "type": "bytes32"
        }
      ],
      "name": "effectiveValue",
      "outputs": [
        {
          "internalType": "uint256",
          "name": "value",
          "type": "uint256"
        }
      ],
      "payable": false,
      "stateMutability": "view",
      "type": "function"
    },
    {
      "constant": true,
      "inputs": [
        {
          "internalType": "bytes32",
          "name": "sourceCurrencyKey",
          "type": "bytes32"
        },
        {
          "internalType": "uint256",
          "name": "sourceAmount",
          "type": "uint256"
        },
        {
          "internalType": "bytes32",
          "name": "destinationCurrencyKey",
          "type": "bytes32"
        }
      ],
      "name": "effectiveValueAndRates",
      "outputs": [
        {
          "internalType": "uint256",
          "name": "value",
          "type": "uint256"
        },
        {
          "internalType": "uint256",
          "name": "sourceRate",
          "type": "uint256"
        },
        {
          "internalType": "uint256",
          "name": "destinationRate",
          "type": "uint256"
        }
      ],
      "payable": false,
      "stateMutability": "view",
      "type": "function"
    },
    {
      "constant": true,
      "inputs": [
        {
          "internalType": "bytes32",
          "name": "sourceCurrencyKey",
          "type": "bytes32"
        },
        {
          "internalType": "uint256",
          "name": "sourceAmount",
          "type": "uint256"
        },
        {
          "internalType": "bytes32",
          "name": "destinationCurrencyKey",
          "type": "bytes32"
        },
        {
          "internalType": "uint256",
          "name": "roundIdForSrc",
          "type": "uint256"
        },
        {
          "internalType": "uint256",
          "name": "roundIdForDest",
          "type": "uint256"
        }
      ],
      "name": "effectiveValueAtRound",
      "outputs": [
        {
          "internalType": "uint256",
          "name": "value",
          "type": "uint256"
        }
      ],
      "payable": false,
      "stateMutability": "view",
      "type": "function"
    },
    {
      "constant": false,
      "inputs": [
        {
          "internalType": "bytes32",
          "name": "",
          "type": "bytes32"
        }
      ],
      "name": "freezeRate",
      "outputs": [],
      "payable": false,
      "stateMutability": "nonpayable",
      "type": "function"
    },
    {
      "constant": true,
      "inputs": [
        {
          "internalType": "bytes32",
          "name": "currencyKey",
          "type": "bytes32"
        }
      ],
      "name": "getCurrentRoundId",
      "outputs": [
        {
          "internalType": "uint256",
          "name": "",
          "type": "uint256"
        }
      ],
      "payable": false,
      "stateMutability": "view",
      "type": "function"
    },
    {
      "constant": true,
      "inputs": [
        {
          "internalType": "bytes32",
          "name": "currencyKey",
          "type": "bytes32"
        },
        {
          "internalType": "uint256",
          "name": "startingRoundId",
          "type": "uint256"
        },
        {
          "internalType": "uint256",
          "name": "startingTimestamp",
          "type": "uint256"
        },
        {
          "internalType": "uint256",
          "name": "timediff",
          "type": "uint256"
        }
      ],
      "name": "getLastRoundIdBeforeElapsedSecs",
      "outputs": [
        {
          "internalType": "uint256",
          "name": "",
          "type": "uint256"
        }
      ],
      "payable": false,
      "stateMutability": "view",
      "type": "function"
    },
    {
      "constant": true,
      "inputs": [
        {
          "internalType": "bytes32",
          "name": "",
          "type": "bytes32"
        }
      ],
      "name": "inversePricing",
      "outputs": [
        {
          "internalType": "uint256",
          "name": "entryPoint",
          "type": "uint256"
        },
        {
          "internalType": "uint256",
          "name": "upperLimit",
          "type": "uint256"
        },
        {
          "internalType": "uint256",
          "name": "lowerLimit",
          "type": "uint256"
        },
        {
          "internalType": "bool",
          "name": "frozenAtUpperLimit",
          "type": "bool"
        },
        {
          "internalType": "bool",
          "name": "frozenAtLowerLimit",
          "type": "bool"
        }
      ],
      "payable": false,
      "stateMutability": "view",
      "type": "function"
    },
    {
      "constant": true,
      "inputs": [
        {
          "internalType": "uint256",
          "name": "",
          "type": "uint256"
        }
      ],
      "name": "invertedKeys",
      "outputs": [
        {
          "internalType": "bytes32",
          "name": "",
          "type": "bytes32"
        }
      ],
      "payable": false,
      "stateMutability": "view",
      "type": "function"
    },
    {
      "constant": true,
      "inputs": [],
      "name": "isResolverCached",
      "outputs": [
        {
          "internalType": "bool",
          "name": "",
          "type": "bool"
        }
      ],
      "payable": false,
      "stateMutability": "view",
      "type": "function"
    },
    {
      "constant": true,
      "inputs": [
        {
          "internalType": "bytes32",
          "name": "currencyKey",
          "type": "bytes32"
        }
      ],
      "name": "lastRateUpdateTimes",
      "outputs": [
        {
          "internalType": "uint256",
          "name": "",
          "type": "uint256"
        }
      ],
      "payable": false,
      "stateMutability": "view",
      "type": "function"
    },
    {
      "constant": true,
      "inputs": [
        {
          "internalType": "bytes32[]",
          "name": "currencyKeys",
          "type": "bytes32[]"
        }
      ],
      "name": "lastRateUpdateTimesForCurrencies",
      "outputs": [
        {
          "internalType": "uint256[]",
          "name": "",
          "type": "uint256[]"
        }
      ],
      "payable": false,
      "stateMutability": "view",
      "type": "function"
    },
    {
      "constant": false,
      "inputs": [
        {
          "internalType": "address",
          "name": "_owner",
          "type": "address"
        }
      ],
      "name": "nominateNewOwner",
      "outputs": [],
      "payable": false,
      "stateMutability": "nonpayable",
      "type": "function"
    },
    {
      "constant": true,
      "inputs": [],
      "name": "nominatedOwner",
      "outputs": [
        {
          "internalType": "address",
          "name": "",
          "type": "address"
        }
      ],
      "payable": false,
      "stateMutability": "view",
      "type": "function"
    },
    {
      "constant": true,
      "inputs": [],
      "name": "oracle",
      "outputs": [
        {
          "internalType": "address",
          "name": "",
          "type": "address"
        }
      ],
      "payable": false,
      "stateMutability": "view",
      "type": "function"
    },
    {
      "constant": true,
      "inputs": [],
      "name": "owner",
      "outputs": [
        {
          "internalType": "address",
          "name": "",
          "type": "address"
        }
      ],
      "payable": false,
      "stateMutability": "view",
      "type": "function"
    },
    {
      "constant": true,
      "inputs": [
        {
          "internalType": "bytes32",
          "name": "currencyKey",
          "type": "bytes32"
        }
      ],
      "name": "rateAndInvalid",
      "outputs": [
        {
          "internalType": "uint256",
          "name": "rate",
          "type": "uint256"
        },
        {
          "internalType": "bool",
          "name": "isInvalid",
          "type": "bool"
        }
      ],
      "payable": false,
      "stateMutability": "view",
      "type": "function"
    },
    {
      "constant": true,
      "inputs": [
        {
          "internalType": "bytes32",
          "name": "currencyKey",
          "type": "bytes32"
        },
        {
          "internalType": "uint256",
          "name": "roundId",
          "type": "uint256"
        }
      ],
      "name": "rateAndTimestampAtRound",
      "outputs": [
        {
          "internalType": "uint256",
          "name": "rate",
          "type": "uint256"
        },
        {
          "internalType": "uint256",
          "name": "time",
          "type": "uint256"
        }
      ],
      "payable": false,
      "stateMutability": "view",
      "type": "function"
    },
    {
      "constant": true,
      "inputs": [
        {
          "internalType": "bytes32",
          "name": "currencyKey",
          "type": "bytes32"
        }
      ],
      "name": "rateAndUpdatedTime",
      "outputs": [
        {
          "internalType": "uint256",
          "name": "rate",
          "type": "uint256"
        },
        {
          "internalType": "uint256",
          "name": "time",
          "type": "uint256"
        }
      ],
      "payable": false,
      "stateMutability": "view",
      "type": "function"
    },
    {
      "constant": true,
      "inputs": [
        {
          "internalType": "bytes32",
          "name": "currencyKey",
          "type": "bytes32"
        }
      ],
      "name": "rateForCurrency",
      "outputs": [
        {
          "internalType": "uint256",
          "name": "",
          "type": "uint256"
        }
      ],
      "payable": false,
      "stateMutability": "view",
      "type": "function"
    },
    {
      "constant": true,
      "inputs": [
        {
          "internalType": "bytes32",
          "name": "currencyKey",
          "type": "bytes32"
        }
      ],
      "name": "rateIsFlagged",
      "outputs": [
        {
          "internalType": "bool",
          "name": "",
          "type": "bool"
        }
      ],
      "payable": false,
      "stateMutability": "view",
      "type": "function"
    },
    {
      "constant": true,
      "inputs": [
        {
          "internalType": "bytes32",
          "name": "",
          "type": "bytes32"
        }
      ],
      "name": "rateIsFrozen",
      "outputs": [
        {
          "internalType": "bool",
          "name": "",
          "type": "bool"
        }
      ],
      "payable": false,
      "stateMutability": "view",
      "type": "function"
    },
    {
      "constant": true,
      "inputs": [
        {
          "internalType": "bytes32",
          "name": "currencyKey",
          "type": "bytes32"
        }
      ],
      "name": "rateIsInvalid",
      "outputs": [
        {
          "internalType": "bool",
          "name": "",
          "type": "bool"
        }
      ],
      "payable": false,
      "stateMutability": "view",
      "type": "function"
    },
    {
      "constant": true,
      "inputs": [
        {
          "internalType": "bytes32",
          "name": "currencyKey",
          "type": "bytes32"
        }
      ],
      "name": "rateIsStale",
      "outputs": [
        {
          "internalType": "bool",
          "name": "",
          "type": "bool"
        }
      ],
      "payable": false,
      "stateMutability": "view",
      "type": "function"
    },
    {
      "constant": true,
      "inputs": [],
      "name": "rateStalePeriod",
      "outputs": [
        {
          "internalType": "uint256",
          "name": "",
          "type": "uint256"
        }
      ],
      "payable": false,
      "stateMutability": "view",
      "type": "function"
    },
    {
      "constant": true,
      "inputs": [
        {
          "internalType": "bytes32[]",
          "name": "currencyKeys",
          "type": "bytes32[]"
        }
      ],
      "name": "ratesAndInvalidForCurrencies",
      "outputs": [
        {
          "internalType": "uint256[]",
          "name": "rates",
          "type": "uint256[]"
        },
        {
          "internalType": "bool",
          "name": "anyRateInvalid",
          "type": "bool"
        }
      ],
      "payable": false,
      "stateMutability": "view",
      "type": "function"
    },
    {
      "constant": true,
      "inputs": [
        {
          "internalType": "bytes32",
          "name": "currencyKey",
          "type": "bytes32"
        },
        {
          "internalType": "uint256",
          "name": "numRounds",
          "type": "uint256"
        }
      ],
      "name": "ratesAndUpdatedTimeForCurrencyLastNRounds",
      "outputs": [
        {
          "internalType": "uint256[]",
          "name": "rates",
          "type": "uint256[]"
        },
        {
          "internalType": "uint256[]",
          "name": "times",
          "type": "uint256[]"
        }
      ],
      "payable": false,
      "stateMutability": "view",
      "type": "function"
    },
    {
      "constant": true,
      "inputs": [
        {
          "internalType": "bytes32[]",
          "name": "currencyKeys",
          "type": "bytes32[]"
        }
      ],
      "name": "ratesForCurrencies",
      "outputs": [
        {
          "internalType": "uint256[]",
          "name": "",
          "type": "uint256[]"
        }
      ],
      "payable": false,
      "stateMutability": "view",
      "type": "function"
    },
    {
      "constant": false,
      "inputs": [],
      "name": "rebuildCache",
      "outputs": [],
      "payable": false,
      "stateMutability": "nonpayable",
      "type": "function"
    },
    {
      "constant": false,
      "inputs": [
        {
          "internalType": "bytes32",
          "name": "currencyKey",
          "type": "bytes32"
        }
      ],
      "name": "removeAggregator",
      "outputs": [],
      "payable": false,
      "stateMutability": "nonpayable",
      "type": "function"
    },
    {
      "constant": false,
      "inputs": [
        {
          "internalType": "bytes32",
          "name": "",
          "type": "bytes32"
        }
      ],
      "name": "removeInversePricing",
      "outputs": [],
      "payable": false,
      "stateMutability": "nonpayable",
      "type": "function"
    },
    {
      "constant": true,
      "inputs": [],
      "name": "resolver",
      "outputs": [
        {
          "internalType": "contract AddressResolver",
          "name": "",
          "type": "address"
        }
      ],
      "payable": false,
      "stateMutability": "view",
      "type": "function"
    },
    {
      "constant": true,
      "inputs": [],
      "name": "resolverAddressesRequired",
      "outputs": [
        {
          "internalType": "bytes32[]",
          "name": "addresses",
          "type": "bytes32[]"
        }
      ],
      "payable": false,
      "stateMutability": "view",
      "type": "function"
    },
    {
      "constant": true,
      "inputs": [
        {
          "internalType": "bytes32",
          "name": "",
          "type": "bytes32"
        }
      ],
      "name": "roundFrozen",
      "outputs": [
        {
          "internalType": "uint256",
          "name": "",
          "type": "uint256"
        }
      ],
      "payable": false,
      "stateMutability": "view",
      "type": "function"
    },
    {
      "constant": false,
      "inputs": [
        {
          "internalType": "bytes32",
          "name": "",
          "type": "bytes32"
        },
        {
          "internalType": "uint256",
          "name": "",
          "type": "uint256"
        },
        {
          "internalType": "uint256",
          "name": "",
          "type": "uint256"
        },
        {
          "internalType": "uint256",
          "name": "",
          "type": "uint256"
        },
        {
          "internalType": "bool",
          "name": "",
          "type": "bool"
        },
        {
          "internalType": "bool",
          "name": "",
          "type": "bool"
        }
      ],
      "name": "setInversePricing",
      "outputs": [],
      "payable": false,
      "stateMutability": "nonpayable",
      "type": "function"
    },
    {
      "constant": false,
      "inputs": [
        {
          "internalType": "address",
          "name": "_oracle",
          "type": "address"
        }
      ],
      "name": "setOracle",
      "outputs": [],
      "payable": false,
      "stateMutability": "nonpayable",
      "type": "function"
    },
    {
      "constant": false,
      "inputs": [
        {
          "internalType": "bytes32[]",
          "name": "currencyKeys",
          "type": "bytes32[]"
        },
        {
          "internalType": "uint256[]",
          "name": "newRates",
          "type": "uint256[]"
        },
        {
          "internalType": "uint256",
          "name": "timeSent",
          "type": "uint256"
        }
      ],
      "name": "updateRates",
      "outputs": [
        {
          "internalType": "bool",
          "name": "",
          "type": "bool"
        }
      ],
      "payable": false,
      "stateMutability": "nonpayable",
      "type": "function"
    }
  ],
  "bytecode": "0x60806040523480156200001157600080fd5b506040516200606c3803806200606c833981810160405260a08110156200003757600080fd5b81019080805190602001909291908051906020019092919080519060200190929190805160405193929190846401000000008211156200007657600080fd5b838201915060208201858111156200008d57600080fd5b8251866020820283011164010000000082111715620000ab57600080fd5b8083526020830192505050908051906020019060200280838360005b83811015620000e4578082015181840152602081019050620000c7565b50505050905001604052602001805160405193929190846401000000008211156200010e57600080fd5b838201915060208201858111156200012557600080fd5b82518660208202830111640100000000821117156200014357600080fd5b8083526020830192505050908051906020019060200280838360005b838110156200017c5780820151818401526020810190506200015f565b505050509050016040525050508484848484828086600073ffffffffffffffffffffffffffffffffffffffff168173ffffffffffffffffffffffffffffffffffffffff16141562000235576040517f08c379a00000000000000000000000000000000000000000000000000000000081526004018080602001828103825260198152602001807f4f776e657220616464726573732063616e6e6f7420626520300000000000000081525060200191505060405180910390fd5b806000806101000a81548173ffffffffffffffffffffffffffffffffffffffff021916908373ffffffffffffffffffffffffffffffffffffffff1602179055507fb532073b38c83145e3e5135377a08bf9aab55bc0fd7c1179cd4fb995d2a5159c600082604051808373ffffffffffffffffffffffffffffffffffffffff1673ffffffffffffffffffffffffffffffffffffffff1681526020018273ffffffffffffffffffffffffffffffffffffffff1673ffffffffffffffffffffffffffffffffffffffff1681526020019250505060405180910390a15080600260006101000a81548173ffffffffffffffffffffffffffffffffffffffff021916908373ffffffffffffffffffffffffffffffffffffffff16021790555050508051825114620003ad576040517f08c379a000000000000000000000000000000000000000000000000000000000815260040180806020018281038252602f81526020018062005f7a602f913960400191505060405180910390fd5b83600560006101000a81548173ffffffffffffffffffffffffffffffffffffffff021916908373ffffffffffffffffffffffffffffffffffffffff160217905550620004a27f705553440000000000000000000000000000000000000000000000000000000073__$b8d33eeb36ac0d1e81cd70156e0043e778$__63907af6c06040518163ffffffff1660e01b815260040160206040518083038186803b1580156200045857600080fd5b505af41580156200046d573d6000803e3d6000fd5b505050506040513d60208110156200048457600080fd5b810190808051906020019092919050505042620004c660201b60201c565b620004b5828242620005df60201b60201c565b505050505050505050505062001150565b600b6000848152602001908152602001600020600081548092919060010191905055506040518060400160405280837affffffffffffffffffffffffffffffffffffffffffffffffffffff1681526020018264ffffffffff16815250600460008581526020019081526020016000206000600b600087815260200190815260200160002054815260200190815260200160002060008201518160000160006101000a8154817affffffffffffffffffffffffffffffffffffffffffffffffffffff02191690837affffffffffffffffffffffffffffffffffffffffffffffffffffff160217905550602082015181600001601b6101000a81548164ffffffffff021916908364ffffffffff160217905550905050505050565b600082518451146200063d576040517f08c379a000000000000000000000000000000000000000000000000000000000815260040180806020018281038252603881526020018062005ffb6038913960400191505060405180910390fd5b61025842018210620006b7576040517f08c379a000000000000000000000000000000000000000000000000000000000815260040180806020018281038252601f8152602001807f54696d6520697320746f6f2066617220696e746f20746865206675747572650081525060200191505060405180910390fd5b60008090505b845181101562000822576000858281518110620006d657fe5b602002602001015190506000858381518110620006ef57fe5b6020026020010151141562000750576040517f08c379a0000000000000000000000000000000000000000000000000000000008152600401808060200182810382526039815260200180620060336039913960400191505060405180910390fd5b7f7055534400000000000000000000000000000000000000000000000000000000811415620007cb576040517f08c379a000000000000000000000000000000000000000000000000000000000815260040180806020018281038252603181526020018062005fca6031913960400191505060405180910390fd5b620007dc81620008f360201b60201c565b841015620007eb575062000814565b6200081281868481518110620007fd57fe5b602002602001015186620004c660201b60201c565b505b8080600101915050620006bd565b507f1bc0fc8997efa076f59b5ef02c315bc5390f7a6d24d661ce12128c01a3b0ba578484604051808060200180602001838103835285818151815260200191508051906020019060200280838360005b838110156200088f57808201518184015260208101905062000872565b50505050905001838103825284818151815260200191508051906020019060200280838360005b83811015620008d3578082015181840152602081019050620008b6565b5050505090500194505050505060405180910390a1600190509392505050565b600062000906826200091860201b60201c565b6020015164ffffffffff169050919050565b62000922620010df565b60006006600084815260200190815260200160002060009054906101000a900473ffffffffffffffffffffffffffffffffffffffff169050600073ffffffffffffffffffffffffffffffffffffffff168173ffffffffffffffffffffffffffffffffffffffff161462000bb65760606040516024016040516020818303038152906040527ffeaf968c000000000000000000000000000000000000000000000000000000007bffffffffffffffffffffffffffffffffffffffffffffffffffffffff19166020820180517bffffffffffffffffffffffffffffffffffffffffffffffffffffffff83818316178352505050509050600060608373ffffffffffffffffffffffffffffffffffffffff16836040518082805190602001908083835b6020831062000a67578051825260208201915060208101905060208303925062000a42565b6001836020036101000a038019825116818451168082178552505050505050905001915050600060405180830381855afa9150503d806000811462000ac9576040519150601f19603f3d011682016040523d82523d6000602084013e62000ace565b606091505b5091509150811562000bad5760008060008380602001905160a081101562000af557600080fd5b8101908080519060200190929190805190602001909291908051906020019092919080519060200190929190805190602001909291905050505093505092509250604051806040016040528062000b718b62000b588d8762000d1f60201b60201c565b8769ffffffffffffffffffff1662000e3460201b60201c565b7affffffffffffffffffffffffffffffffffffffffffffffffffffff1681526020018264ffffffffff1681525097505050505050505062000d1a565b50505062000d18565b6000600b600085815260200190815260200160002054905062000bd8620010df565b6004600086815260200190815260200160002060008381526020019081526020016000206040518060400160405290816000820160009054906101000a90047affffffffffffffffffffffffffffffffffffffffffffffffffffff167affffffffffffffffffffffffffffffffffffffffffffffffffffff167affffffffffffffffffffffffffffffffffffffffffffffffffffff16815260200160008201601b9054906101000a900464ffffffffff1664ffffffffff1664ffffffffff16815250509050604051806040016040528062000cdc8784600001517affffffffffffffffffffffffffffffffffffffffffffffffffffff168662000e3460201b60201c565b7affffffffffffffffffffffffffffffffffffffffffffffffffffff168152602001826020015164ffffffffff16815250935050505062000d1a565b505b919050565b60008082121562000d98576040517f08c379a000000000000000000000000000000000000000000000000000000000815260040180806020018281038252601b8152602001807f4e656761746976652072617465206e6f7420737570706f72746564000000000081525060200191505060405180910390fd5b60006007600085815260200190815260200160002060009054906101000a900460ff1660ff16111562000e2a57600062000e0260126007600087815260200190815260200160002060009054906101000a900460ff1660ff1662000fca60201b62004a051760201c565b600a0a905062000e2181846200105460201b62004a8e1790919060201c565b91505062000e2e565b8190505b92915050565b600062000e406200111d565b600960008681526020019081526020016000206040518060a00160405290816000820154815260200160018201548152602001600282015481526020016003820160009054906101000a900460ff161515151581526020016003820160019054906101000a900460ff161515151581525050905060008160000151148062000ec85750600084145b1562000ed8578391505062000fc3565b8391506000600c600087815260200190815260200160002054905080841015801562000f05575081606001515b1562000f18578160200151925062000fc0565b80841015801562000f2a575081608001515b1562000f3d578160400151925062000fbf565b600062000f5e600284600001516200105460201b62004a8e1790919060201c565b905085811162000f72576000935062000f8f565b62000f8c868262000fca60201b62004a051790919060201c565b93505b8260200151841062000fa8578260200151935062000fbd565b8260400151841162000fbc57826040015193505b5b505b5b50505b9392505050565b60008282111562001043576040517f08c379a000000000000000000000000000000000000000000000000000000000815260040180806020018281038252601e8152602001807f536166654d6174683a207375627472616374696f6e206f766572666c6f77000081525060200191505060405180910390fd5b600082840390508091505092915050565b600080831415620010695760009050620010d9565b60008284029050828482816200107b57fe5b0414620010d4576040517f08c379a000000000000000000000000000000000000000000000000000000000815260040180806020018281038252602181526020018062005fa96021913960400191505060405180910390fd5b809150505b92915050565b604051806040016040528060007affffffffffffffffffffffffffffffffffffffffffffffffffffff168152602001600064ffffffffff1681525090565b6040518060a001604052806000815260200160008152602001600081526020016000151581526020016000151581525090565b614e1a80620011606000396000f3fe608060405234801561001057600080fd5b50600436106102945760003560e01c8063654a60ac11610167578063935f4abd116100ce578063c2c8a67611610087578063c2c8a67614611031578063c8e5bbd5146110ff578063c8e6f395146111d8578063ce8480ea14611206578063de02795e14611248578063fdadbc7e1461127657610294565b8063935f4abd14610dcb578063ac82f60814610e0d578063af3aea8614610e4f578063b199c76414610e95578063b295ad3414610ef9578063bfa005ce14610f4157610294565b80637adbf973116101205780637adbf97314610bee5780637dc0d1d014610c325780637f6e9d1514610c7c5780638295016a14610cbe578063899ffef414610d225780638da5cb5b14610d8157610294565b8063654a60ac14610a6e5780637103353e14610ac4578063728dec2914610b325780637418536014610b9857806379ba509714610ba25780637a018a1e14610bac57610294565b80632af64bd31161020b5780633f0e084f116101c45780633f0e084f146108d35780634308a94f14610921578063459388491461096a5780634c36b837146109985780634f72def6146109e257806353a47bb714610a2457610294565b80632af64bd3146106e05780632bed9e0c146107025780632d7371e1146107305780632ea913d4146108055780633375fcd11461084757806338aa1b991461088d57610294565b80630ee4951b1161025d5780630ee4951b146104d5578063109e46a2146104f35780631627540c146105535780632528f0fe14610597578063266da16b146105dd5780632678df961461064757610294565b80629919c01461029957806304f3bcec146102df57806305a046e5146103295780630a7d36d1146103f75780630c71cd2314610488575b600080fd5b6102c5600480360360208110156102af57600080fd5b81019080803590602001909291905050506112c9565b604051808215151515815260200191505060405180910390f35b6102e76112e3565b604051808273ffffffffffffffffffffffffffffffffffffffff1673ffffffffffffffffffffffffffffffffffffffff16815260200191505060405180910390f35b6103a06004803603602081101561033f57600080fd5b810190808035906020019064010000000081111561035c57600080fd5b82018360208201111561036e57600080fd5b8035906020019184602083028401116401000000008311171561039057600080fd5b9091929391929390505050611309565b6040518080602001828103825283818151815260200191508051906020019060200280838360005b838110156103e35780820151818401526020810190506103c8565b505050509050019250505060405180910390f35b61046e6004803603602081101561040d57600080fd5b810190808035906020019064010000000081111561042a57600080fd5b82018360208201111561043c57600080fd5b8035906020019184602083028401116401000000008311171561045e57600080fd5b909192939192939050505061139d565b604051808215151515815260200191505060405180910390f35b6104b46004803603602081101561049e57600080fd5b810190808035906020019092919050505061146c565b60405180838152602001821515151581526020019250505060405180910390f35b6104dd61153f565b6040518082815260200191505060405180910390f35b61053d6004803603608081101561050957600080fd5b810190808035906020019092919080359060200190929190803590602001909291908035906020019092919050505061154e565b6040518082815260200191505060405180910390f35b6105956004803603602081101561056957600080fd5b81019080803573ffffffffffffffffffffffffffffffffffffffff1690602001909291905050506115ae565b005b6105c3600480360360208110156105ad57600080fd5b810190808035906020019092919050505061165d565b604051808215151515815260200191505060405180910390f35b610631600480360360a08110156105f357600080fd5b81019080803590602001909291908035906020019092919080359060200190929190803590602001909291908035906020019092919050505061168f565b6040518082815260200191505060405180910390f35b6106896004803603602081101561065d57600080fd5b81019080803573ffffffffffffffffffffffffffffffffffffffff169060200190929190505050611706565b6040518080602001828103825283818151815260200191508051906020019060200280838360005b838110156106cc5780820151818401526020810190506106b1565b505050509050019250505060405180910390f35b6106e861180f565b604051808215151515815260200191505060405180910390f35b61072e6004803603602081101561071857600080fd5b81019080803590602001909291905050506119e7565b005b6107666004803603604081101561074657600080fd5b810190808035906020019092919080359060200190929190505050611ba9565b604051808060200180602001838103835285818151815260200191508051906020019060200280838360005b838110156107ad578082015181840152602081019050610792565b50505050905001838103825284818151815260200191508051906020019060200280838360005b838110156107ef5780820151818401526020810190506107d4565b5050505090500194505050505060405180910390f35b6108316004803603602081101561081b57600080fd5b8101908080359060200190929190505050611c9b565b6040518082815260200191505060405180910390f35b6108736004803603602081101561085d57600080fd5b8101908080359060200190929190505050611cbc565b604051808215151515815260200191505060405180910390f35b6108b9600480360360208110156108a357600080fd5b8101908080359060200190929190505050611cc6565b604051808215151515815260200191505060405180910390f35b61091f600480360360408110156108e957600080fd5b8101908080359060200190929190803573ffffffffffffffffffffffffffffffffffffffff169060200190929190505050611ce0565b005b61094d6004803603602081101561093757600080fd5b810190808035906020019092919050505061204a565b604051808381526020018281526020019250505060405180910390f35b6109966004803603602081101561098057600080fd5b810190808035906020019092919050505061209e565b005b6109a0612202565b604051808273ffffffffffffffffffffffffffffffffffffffff1673ffffffffffffffffffffffffffffffffffffffff16815260200191505060405180910390f35b610a0e600480360360208110156109f857600080fd5b8101908080359060200190929190505050612211565b6040518082815260200191505060405180910390f35b610a2c612232565b604051808273ffffffffffffffffffffffffffffffffffffffff1673ffffffffffffffffffffffffffffffffffffffff16815260200191505060405180910390f35b610aae60048036036060811015610a8457600080fd5b81019080803590602001909291908035906020019092919080359060200190929190505050612258565b6040518082815260200191505060405180910390f35b610af060048036036020811015610ada57600080fd5b8101908080359060200190929190505050612273565b604051808273ffffffffffffffffffffffffffffffffffffffff1673ffffffffffffffffffffffffffffffffffffffff16815260200191505060405180910390f35b610b5e60048036036020811015610b4857600080fd5b81019080803590602001909291905050506122a6565b6040518086815260200185815260200184815260200183151515158152602001821515151581526020019550505050505060405180910390f35b610ba06122f6565b005b610baa61255f565b005b610bd860048036036020811015610bc257600080fd5b8101908080359060200190929190505050612785565b6040518082815260200191505060405180910390f35b610c3060048036036020811015610c0457600080fd5b81019080803573ffffffffffffffffffffffffffffffffffffffff169060200190929190505050612797565b005b610c3a612868565b604051808273ffffffffffffffffffffffffffffffffffffffff1673ffffffffffffffffffffffffffffffffffffffff16815260200191505060405180910390f35b610ca860048036036020811015610c9257600080fd5b810190808035906020019092919050505061288e565b6040518082815260200191505060405180910390f35b610cfe60048036036060811015610cd457600080fd5b810190808035906020019092919080359060200190929190803590602001909291905050506128a6565b60405180848152602001838152602001828152602001935050505060405180910390f35b610d2a6128c5565b6040518080602001828103825283818151815260200191508051906020019060200280838360005b83811015610d6d578082015181840152602081019050610d52565b505050509050019250505060405180910390f35b610d89612952565b604051808273ffffffffffffffffffffffffffffffffffffffff1673ffffffffffffffffffffffffffffffffffffffff16815260200191505060405180910390f35b610df760048036036020811015610de157600080fd5b8101908080359060200190929190505050612977565b6040518082815260200191505060405180910390f35b610e3960048036036020811015610e2357600080fd5b810190808035906020019092919050505061298f565b6040518082815260200191505060405180910390f35b610e7b60048036036020811015610e6557600080fd5b81019080803590602001909291905050506129c2565b604051808215151515815260200191505060405180910390f35b610ef7600480360360c0811015610eab57600080fd5b81019080803590602001909291908035906020019092919080359060200190929190803590602001909291908035151590602001909291908035151590602001909291905050506129cc565b005b610f2560048036036020811015610f0f57600080fd5b81019080803590602001909291905050506129e4565b604051808260ff1660ff16815260200191505060405180910390f35b61101760048036036060811015610f5757600080fd5b8101908080359060200190640100000000811115610f7457600080fd5b820183602082011115610f8657600080fd5b80359060200191846020830284011164010000000083111715610fa857600080fd5b909192939192939080359060200190640100000000811115610fc957600080fd5b820183602082011115610fdb57600080fd5b80359060200191846020830284011164010000000083111715610ffd57600080fd5b909192939192939080359060200190929190505050612a04565b604051808215151515815260200191505060405180910390f35b6110a86004803603602081101561104757600080fd5b810190808035906020019064010000000081111561106457600080fd5b82018360208201111561107657600080fd5b8035906020019184602083028401116401000000008311171561109857600080fd5b9091929391929390505050612aa6565b6040518080602001828103825283818151815260200191508051906020019060200280838360005b838110156110eb5780820151818401526020810190506110d0565b505050509050019250505060405180910390f35b6111766004803603602081101561111557600080fd5b810190808035906020019064010000000081111561113257600080fd5b82018360208201111561114457600080fd5b8035906020019184602083028401116401000000008311171561116657600080fd5b9091929391929390505050612b3a565b604051808060200183151515158152602001828103825284818151815260200191508051906020019060200280838360005b838110156111c35780820151818401526020810190506111a8565b50505050905001935050505060405180910390f35b611204600480360360208110156111ee57600080fd5b8101908080359060200190929190505050612ccd565b005b6112326004803603602081101561121c57600080fd5b8101908080359060200190929190505050612ce0565b6040518082815260200191505060405180910390f35b6112746004803603602081101561125e57600080fd5b8101908080359060200190929190505050612cf2565b005b6112ac6004803603604081101561128c57600080fd5b810190808035906020019092919080359060200190929190505050612cfd565b604051808381526020018281526020019250505060405180910390f35b60006112dc826112d7612d15565b612df7565b9050919050565b600260009054906101000a900473ffffffffffffffffffffffffffffffffffffffff1681565b6060808383905060405190808252806020026020018201604052801561133e5781602001602082028038833980820191505090505b50905060008090505b848490508110156113925761136d85858381811061136157fe5b90506020020135612e45565b82828151811061137957fe5b6020026020010181815250508080600101915050611347565b508091505092915050565b6000806113a8612d15565b905060606113f6858580806020026020016040519081016040528093929190818152602001838360200280828437600081840152601f19601f82011690508083019250505050505050612e62565b905060008090505b8585905081101561145e5781818151811061141557fe5b602002602001015180611440575061143f86868381811061143257fe5b9050602002013584612df7565b5b156114515760019350505050611466565b80806001019150506113fe565b506000925050505b92915050565b600080611477614ba3565b6114808461312c565b90507f70555344000000000000000000000000000000000000000000000000000000008414156114db5780600001516000817affffffffffffffffffffffffffffffffffffffffffffffffffffff169150925092505061153a565b80600001516114fc6114eb612d15565b836020015164ffffffffff1661350d565b8061151457506115138561150e61352c565b61360e565b5b817affffffffffffffffffffffffffffffffffffffffffffffffffffff16915092509250505b915091565b6000611549612d15565b905090565b60008084905060008090505b6001156115a05761156e87600184016137b1565b9050809150506000811480611584575083850181115b156115935781925050506115a6565b818060010192505061155a565b81925050505b949350505050565b6115b6613b11565b80600160006101000a81548173ffffffffffffffffffffffffffffffffffffffff021916908373ffffffffffffffffffffffffffffffffffffffff1602179055507f906a1c6bd7e3091ea86693dd029a831c19049ce77f1dce2ce0bab1cacbabce2281604051808273ffffffffffffffffffffffffffffffffffffffff1673ffffffffffffffffffffffffffffffffffffffff16815260200191505060405180910390a150565b60006116708261166b612d15565b612df7565b8061168857506116878261168261352c565b61360e565b5b9050919050565b6000838614156116a1578490506116fd565b60006116ad87856137b1565b50905060006116bc86856137b1565b50905060008114156116d3576000925050506116fd565b6116f8816116ea848a613bb890919063ffffffff16565b613bd490919063ffffffff16565b925050505b95945050505050565b606060008090506008805490506040519080825280602002602001820160405280156117415781602001602082028038833980820191505090505b50915060008090505b6008805490508110156118085760006008828154811061176657fe5b906000526020600020015490508473ffffffffffffffffffffffffffffffffffffffff166006600083815260200190815260200160002060009054906101000a900473ffffffffffffffffffffffffffffffffffffffff1673ffffffffffffffffffffffffffffffffffffffff1614156117fa57808484806001019550815181106117ed57fe5b6020026020010181815250505b50808060010191505061174a565b5050919050565b6000606061181b6128c5565b905060008090505b81518110156119dd57600082828151811061183a57fe5b602002602001015190506003600082815260200190815260200160002060009054906101000a900473ffffffffffffffffffffffffffffffffffffffff1673ffffffffffffffffffffffffffffffffffffffff16600260009054906101000a900473ffffffffffffffffffffffffffffffffffffffff1673ffffffffffffffffffffffffffffffffffffffff166321f8a721836040518263ffffffff1660e01b81526004018082815260200191505060206040518083038186803b15801561190157600080fd5b505afa158015611915573d6000803e3d6000fd5b505050506040513d602081101561192b57600080fd5b810190808051906020019092919050505073ffffffffffffffffffffffffffffffffffffffff161415806119be5750600073ffffffffffffffffffffffffffffffffffffffff166003600083815260200190815260200160002060009054906101000a900473ffffffffffffffffffffffffffffffffffffffff1673ffffffffffffffffffffffffffffffffffffffff16145b156119cf57600093505050506119e4565b508080600101915050611823565b5060019150505b90565b6119ef613b11565b60006006600083815260200190815260200160002060009054906101000a900473ffffffffffffffffffffffffffffffffffffffff169050600073ffffffffffffffffffffffffffffffffffffffff168173ffffffffffffffffffffffffffffffffffffffff161415611aca576040517f08c379a000000000000000000000000000000000000000000000000000000000815260040180806020018281038252601c8152602001807f4e6f2061676772656761746f722065786973747320666f72206b65790000000081525060200191505060405180910390fd5b6006600083815260200190815260200160002060006101000a81549073ffffffffffffffffffffffffffffffffffffffff02191690556007600083815260200190815260200160002060006101000a81549060ff02191690556000611b30836008613bf0565b90508015611ba4577fec70e890fc7db7de4059b114c9093a1f41283d18ffcfbcac45566feea4d4f7778383604051808381526020018273ffffffffffffffffffffffffffffffffffffffff1673ffffffffffffffffffffffffffffffffffffffff1681526020019250505060405180910390a15b505050565b60608082604051908082528060200260200182016040528015611bdb5781602001602082028038833980820191505090505b50915082604051908082528060200260200182016040528015611c0d5781602001602082028038833980820191505090505b5090506000611c1b85613cac565b905060008090505b84811015611c9157611c3586836137b1565b858381518110611c4157fe5b60200260200101858481518110611c5457fe5b60200260200101828152508281525050506000821415611c7b578383935093505050611c94565b8180600190039250508080600101915050611c23565b50505b9250929050565b600a8181548110611ca857fe5b906000526020600020016000915090505481565b6000809050919050565b6000611cd982611cd461352c565b61360e565b9050919050565b611ce8613b11565b600081905060008173ffffffffffffffffffffffffffffffffffffffff1663668a0f026040518163ffffffff1660e01b815260040160206040518083038186803b158015611d3557600080fd5b505afa158015611d49573d6000803e3d6000fd5b505050506040513d6020811015611d5f57600080fd5b81019080805190602001909291905050501015611de4576040517f08c379a000000000000000000000000000000000000000000000000000000000815260040180806020018281038252601b8152602001807f476976656e2041676772656761746f7220697320696e76616c6964000000000081525060200191505060405180910390fd5b60008173ffffffffffffffffffffffffffffffffffffffff1663313ce5676040518163ffffffff1660e01b815260040160206040518083038186803b158015611e2c57600080fd5b505afa158015611e40573d6000803e3d6000fd5b505050506040513d6020811015611e5657600080fd5b8101908080519060200190929190505050905060128160ff161115611ec6576040517f08c379a0000000000000000000000000000000000000000000000000000000008152600401808060200182810382526032815260200180614d7b6032913960400191505060405180910390fd5b600073ffffffffffffffffffffffffffffffffffffffff166006600086815260200190815260200160002060009054906101000a900473ffffffffffffffffffffffffffffffffffffffff1673ffffffffffffffffffffffffffffffffffffffff161415611f5b5760088490806001815401808255809150509060018203906000526020600020016000909192909190915055505b816006600086815260200190815260200160002060006101000a81548173ffffffffffffffffffffffffffffffffffffffff021916908373ffffffffffffffffffffffffffffffffffffffff160217905550806007600086815260200190815260200160002060006101000a81548160ff021916908360ff1602179055507f0bcae573430f69c5361e5d76534d3f61d2d803958778680cd74be9dc6299bc638483604051808381526020018273ffffffffffffffffffffffffffffffffffffffff1673ffffffffffffffffffffffffffffffffffffffff1681526020019250505060405180910390a150505050565b600080612055614ba3565b61205e8461312c565b905080600001518160200151817affffffffffffffffffffffffffffffffffffffffffffffffffffff1691508064ffffffffff1690509250925050915091565b6120a6613dbf565b60006120b182613e67565b11612124576040517f08c379a000000000000000000000000000000000000000000000000000000000815260040180806020018281038252600c8152602001807f52617465206973207a65726f000000000000000000000000000000000000000081525060200191505060405180910390fd5b600460008281526020019081526020016000206000600b6000848152602001908152602001600020548152602001908152602001600020600080820160006101000a8154907affffffffffffffffffffffffffffffffffffffffffffffffffffff021916905560008201601b6101000a81549064ffffffffff02191690555050600b600082815260200190815260200160002060008154809291906001900391905055507fe69d655565c7ff1353d8eaeea62fb7904fa9696987431ec351be288c865f1ae1816040518082815260200191505060405180910390a150565b600061220c61352c565b905090565b6008818154811061221e57fe5b906000526020600020016000915090505481565b600160009054906101000a900473ffffffffffffffffffffffffffffffffffffffff1681565b6000612265848484613e9a565b905050809150509392505050565b60066020528060005260406000206000915054906101000a900473ffffffffffffffffffffffffffffffffffffffff1681565b60096020528060005260406000206000915090508060000154908060010154908060020154908060030160009054906101000a900460ff16908060030160019054906101000a900460ff16905085565b60606123006128c5565b905060008090505b815181101561255b57600082828151811061231f57fe5b602002602001015190506000600260009054906101000a900473ffffffffffffffffffffffffffffffffffffffff1673ffffffffffffffffffffffffffffffffffffffff1663dacb2d01838460405160200180807f5265736f6c766572206d697373696e67207461726765743a20000000000000008152506019018281526020019150506040516020818303038152906040526040518363ffffffff1660e01b81526004018083815260200180602001828103825283818151815260200191508051906020019080838360005b838110156124075780820151818401526020810190506123ec565b50505050905090810190601f1680156124345780820380516001836020036101000a031916815260200191505b50935050505060206040518083038186803b15801561245257600080fd5b505afa158015612466573d6000803e3d6000fd5b505050506040513d602081101561247c57600080fd5b81019080805190602001909291905050509050806003600084815260200190815260200160002060006101000a81548173ffffffffffffffffffffffffffffffffffffffff021916908373ffffffffffffffffffffffffffffffffffffffff1602179055507f88a93678a3692f6789d9546fc621bf7234b101ddb7d4fe479455112831b8aa688282604051808381526020018273ffffffffffffffffffffffffffffffffffffffff1673ffffffffffffffffffffffffffffffffffffffff1681526020019250505060405180910390a150508080600101915050612308565b5050565b600160009054906101000a900473ffffffffffffffffffffffffffffffffffffffff1673ffffffffffffffffffffffffffffffffffffffff163373ffffffffffffffffffffffffffffffffffffffff1614612605576040517f08c379a0000000000000000000000000000000000000000000000000000000008152600401808060200182810382526035815260200180614c666035913960400191505060405180910390fd5b7fb532073b38c83145e3e5135377a08bf9aab55bc0fd7c1179cd4fb995d2a5159c6000809054906101000a900473ffffffffffffffffffffffffffffffffffffffff16600160009054906101000a900473ffffffffffffffffffffffffffffffffffffffff16604051808373ffffffffffffffffffffffffffffffffffffffff1673ffffffffffffffffffffffffffffffffffffffff1681526020018273ffffffffffffffffffffffffffffffffffffffff1673ffffffffffffffffffffffffffffffffffffffff1681526020019250505060405180910390a1600160009054906101000a900473ffffffffffffffffffffffffffffffffffffffff166000806101000a81548173ffffffffffffffffffffffffffffffffffffffff021916908373ffffffffffffffffffffffffffffffffffffffff1602179055506000600160006101000a81548173ffffffffffffffffffffffffffffffffffffffff021916908373ffffffffffffffffffffffffffffffffffffffff160217905550565b600061279082613cac565b9050919050565b61279f613b11565b80600560006101000a81548173ffffffffffffffffffffffffffffffffffffffff021916908373ffffffffffffffffffffffffffffffffffffffff1602179055507f3df77beb5db05fcdd70a30fc8adf3f83f9501b68579455adbd100b8180940394600560009054906101000a900473ffffffffffffffffffffffffffffffffffffffff16604051808273ffffffffffffffffffffffffffffffffffffffff1673ffffffffffffffffffffffffffffffffffffffff16815260200191505060405180910390a150565b600560009054906101000a900473ffffffffffffffffffffffffffffffffffffffff1681565b600c6020528060005260406000206000915090505481565b60008060006128b6868686613e9a565b92509250925093509350939050565b6060806128d0613f03565b9050606060016040519080825280602002602001820160405280156129045781602001602082028038833980820191505090505b5090507f45786368616e67657200000000000000000000000000000000000000000000008160008151811061293557fe5b60200260200101818152505061294b8282613f75565b9250505090565b6000809054906101000a900473ffffffffffffffffffffffffffffffffffffffff1681565b600b6020528060005260406000206000915090505481565b600061299a8261312c565b600001517affffffffffffffffffffffffffffffffffffffffffffffffffffff169050919050565b6000809050919050565b6129d4613b11565b6129dc614048565b505050505050565b60076020528060005260406000206000915054906101000a900460ff1681565b6000612a0e613dbf565b612a9b868680806020026020016040519081016040528093929190818152602001838360200280828437600081840152601f19601f82011690508083019250505050505050858580806020026020016040519081016040528093929190818152602001838360200280828437600081840152601f19601f82011690508083019250505050505050846140b6565b905095945050505050565b60608083839050604051908082528060200260200182016040528015612adb5781602001602082028038833980820191505090505b50905060008090505b84849050811015612b2f57612b0a858583818110612afe57fe5b90506020020135613e67565b828281518110612b1657fe5b6020026020010181815250508080600101915050612ae4565b508091505092915050565b6060600083839050604051908082528060200260200182016040528015612b705781602001602082028038833980820191505090505b5091506000612b7d612d15565b90506060612bcb868680806020026020016040519081016040528093929190818152602001838360200280828437600081840152601f19601f82011690508083019250505050505050612e62565b905060008090505b86869050811015612cc357612be6614ba3565b612c01888884818110612bf557fe5b9050602002013561312c565b905080600001517affffffffffffffffffffffffffffffffffffffffffffffffffffff16868381518110612c3157fe5b60200260200101818152505084158015612c7d57507f7055534400000000000000000000000000000000000000000000000000000000888884818110612c7357fe5b9050602002013514155b15612cb557828281518110612c8e57fe5b602002602001015180612cb25750612cb184826020015164ffffffffff1661350d565b5b94505b508080600101915050612bd3565b5050509250929050565b612cd5613b11565b612cdd614048565b50565b6000612ceb82612e45565b9050919050565b612cfa614048565b50565b600080612d0a84846137b1565b915091509250929050565b6000612d1f6143a8565b73ffffffffffffffffffffffffffffffffffffffff166323257c2b7f53797374656d53657474696e67730000000000000000000000000000000000007f726174655374616c65506572696f6400000000000000000000000000000000006040518363ffffffff1660e01b8152600401808381526020018281526020019250505060206040518083038186803b158015612db757600080fd5b505afa158015612dcb573d6000803e3d6000fd5b505050506040513d6020811015612de157600080fd5b8101908080519060200190929190505050905090565b60007f7055534400000000000000000000000000000000000000000000000000000000831415612e2a5760009050612e3f565b612e3c82612e3785612e45565b61350d565b90505b92915050565b6000612e508261312c565b6020015164ffffffffff169050919050565b60606000612e6e61352c565b9050600073ffffffffffffffffffffffffffffffffffffffff168173ffffffffffffffffffffffffffffffffffffffff16146130f25760608351604051908082528060200260200182016040528015612ed65781602001602082028038833980820191505090505b50905060008090505b8451811015612f825760066000868381518110612ef857fe5b6020026020010151815260200190815260200160002060009054906101000a900473ffffffffffffffffffffffffffffffffffffffff16828281518110612f3b57fe5b602002602001019073ffffffffffffffffffffffffffffffffffffffff16908173ffffffffffffffffffffffffffffffffffffffff16815250508080600101915050612edf565b508173ffffffffffffffffffffffffffffffffffffffff16637d723cac826040518263ffffffff1660e01b81526004018080602001828103825283818151815260200191508051906020019060200280838360005b83811015612ff2578082015181840152602081019050612fd7565b505050509050019250505060006040518083038186803b15801561301557600080fd5b505afa158015613029573d6000803e3d6000fd5b505050506040513d6000823e3d601f19601f82011682018060405250602081101561305357600080fd5b810190808051604051939291908464010000000082111561307357600080fd5b8382019150602082018581111561308957600080fd5b82518660208202830111640100000000821117156130a657600080fd5b8083526020830192505050908051906020019060200280838360005b838110156130dd5780820151818401526020810190506130c2565b50505050905001604052505050925050613126565b82516040519080825280602002602001820160405280156131225781602001602082028038833980820191505090505b5091505b50919050565b613134614ba3565b60006006600084815260200190815260200160002060009054906101000a900473ffffffffffffffffffffffffffffffffffffffff169050600073ffffffffffffffffffffffffffffffffffffffff168173ffffffffffffffffffffffffffffffffffffffff16146133af5760606040516024016040516020818303038152906040527ffeaf968c000000000000000000000000000000000000000000000000000000007bffffffffffffffffffffffffffffffffffffffffffffffffffffffff19166020820180517bffffffffffffffffffffffffffffffffffffffffffffffffffffffff83818316178352505050509050600060608373ffffffffffffffffffffffffffffffffffffffff16836040518082805190602001908083835b602083106132765780518252602082019150602081019050602083039250613253565b6001836020036101000a038019825116818451168082178552505050505050905001915050600060405180830381855afa9150503d80600081146132d6576040519150601f19603f3d011682016040523d82523d6000602084013e6132db565b606091505b509150915081156133a75760008060008380602001905160a081101561330057600080fd5b8101908080519060200190929190805190602001909291908051906020019092919080519060200190929190805190602001909291905050505093505092509250604051806040016040528061336c8b61335a8d876143d8565b8769ffffffffffffffffffff166144d6565b7affffffffffffffffffffffffffffffffffffffffffffffffffffff1681526020018264ffffffffff16815250975050505050505050613508565b505050613506565b6000600b60008581526020019081526020016000205490506133cf614ba3565b6004600086815260200190815260200160002060008381526020019081526020016000206040518060400160405290816000820160009054906101000a90047affffffffffffffffffffffffffffffffffffffffffffffffffffff167affffffffffffffffffffffffffffffffffffffffffffffffffffff167affffffffffffffffffffffffffffffffffffffffffffffffffffff16815260200160008201601b9054906101000a900464ffffffffff1664ffffffffff1664ffffffffff1681525050905060405180604001604052806134cb8784600001517affffffffffffffffffffffffffffffffffffffffffffffffffffff16866144d6565b7affffffffffffffffffffffffffffffffffffffffffffffffffffff168152602001826020015164ffffffffff168152509350505050613508565b505b919050565b600042613523848461464e90919063ffffffff16565b10905092915050565b60006135366143a8565b73ffffffffffffffffffffffffffffffffffffffff16639ee5955a7f53797374656d53657474696e67730000000000000000000000000000000000007f61676772656761746f725761726e696e67466c616773000000000000000000006040518363ffffffff1660e01b8152600401808381526020018281526020019250505060206040518083038186803b1580156135ce57600080fd5b505afa1580156135e2573d6000803e3d6000fd5b505050506040513d60208110156135f857600080fd5b8101908080519060200190929190505050905090565b60007f705553440000000000000000000000000000000000000000000000000000000083141561364157600090506137ab565b60006006600085815260200190815260200160002060009054906101000a900473ffffffffffffffffffffffffffffffffffffffff169050600073ffffffffffffffffffffffffffffffffffffffff168173ffffffffffffffffffffffffffffffffffffffff1614806136e05750600073ffffffffffffffffffffffffffffffffffffffff168373ffffffffffffffffffffffffffffffffffffffff16145b156136ef5760009150506137ab565b8273ffffffffffffffffffffffffffffffffffffffff1663357e47fe826040518263ffffffff1660e01b8152600401808273ffffffffffffffffffffffffffffffffffffffff1673ffffffffffffffffffffffffffffffffffffffff16815260200191505060206040518083038186803b15801561376c57600080fd5b505afa158015613780573d6000803e3d6000fd5b505050506040513d602081101561379657600080fd5b81019080805190602001909291905050509150505b92915050565b60008060006006600086815260200190815260200160002060009054906101000a900473ffffffffffffffffffffffffffffffffffffffff169050600073ffffffffffffffffffffffffffffffffffffffff168173ffffffffffffffffffffffffffffffffffffffff16146139f557606084604051602401808281526020019150506040516020818303038152906040527f9a6fc8f5000000000000000000000000000000000000000000000000000000007bffffffffffffffffffffffffffffffffffffffffffffffffffffffff19166020820180517bffffffffffffffffffffffffffffffffffffffffffffffffffffffff83818316178352505050509050600060608373ffffffffffffffffffffffffffffffffffffffff16836040518082805190602001908083835b6020831061390157805182526020820191506020810190506020830392506138de565b6001836020036101000a038019825116818451168082178552505050505050905001915050600060405180830381855afa9150503d8060008114613961576040519150601f19603f3d011682016040523d82523d6000602084013e613966565b606091505b509150915081156139ed576000808280602001905160a081101561398957600080fd5b810190808051906020019092919080519060200190929190805190602001909291908051906020019092919080519060200190929190505050509350509250506139dd8a6139d78c856143d8565b8b6144d6565b8197509750505050505050613b0a565b505050613b08565b6139fd614ba3565b6004600087815260200190815260200160002060008681526020019081526020016000206040518060400160405290816000820160009054906101000a90047affffffffffffffffffffffffffffffffffffffffffffffffffffff167affffffffffffffffffffffffffffffffffffffffffffffffffffff167affffffffffffffffffffffffffffffffffffffffffffffffffffff16815260200160008201601b9054906101000a900464ffffffffff1664ffffffffff1664ffffffffff16815250509050613aee8682600001517affffffffffffffffffffffffffffffffffffffffffffffffffffff16876144d6565b81602001518064ffffffffff169050935093505050613b0a565b505b9250929050565b6000809054906101000a900473ffffffffffffffffffffffffffffffffffffffff1673ffffffffffffffffffffffffffffffffffffffff163373ffffffffffffffffffffffffffffffffffffffff1614613bb6576040517f08c379a000000000000000000000000000000000000000000000000000000000815260040180806020018281038252602f815260200180614cc2602f913960400191505060405180910390fd5b565b6000613bcc8383601260ff16600a0a6146d6565b905092915050565b6000613be88383601260ff16600a0a61472f565b905092915050565b600080600090505b8280549050811015613ca05783838281548110613c1157fe5b90600052602060002001541415613c9357828181548110613c2e57fe5b906000526020600020016000905582600184805490500381548110613c4f57fe5b9060005260206000200154838281548110613c6657fe5b906000526020600020018190555082805480919060019003613c889190614be1565b506001915050613ca6565b8080600101915050613bf8565b50600090505b92915050565b6000806006600084815260200190815260200160002060009054906101000a900473ffffffffffffffffffffffffffffffffffffffff169050600073ffffffffffffffffffffffffffffffffffffffff168173ffffffffffffffffffffffffffffffffffffffff1614613da2578073ffffffffffffffffffffffffffffffffffffffff1663668a0f026040518163ffffffff1660e01b815260040160206040518083038186803b158015613d5f57600080fd5b505afa158015613d73573d6000803e3d6000fd5b505050506040513d6020811015613d8957600080fd5b8101908080519060200190929190505050915050613dba565b600b6000848152602001908152602001600020549150505b919050565b600560009054906101000a900473ffffffffffffffffffffffffffffffffffffffff1673ffffffffffffffffffffffffffffffffffffffff163373ffffffffffffffffffffffffffffffffffffffff1614613e65576040517f08c379a0000000000000000000000000000000000000000000000000000000008152600401808060200182810382526027815260200180614c9b6027913960400191505060405180910390fd5b565b6000613e728261312c565b600001517affffffffffffffffffffffffffffffffffffffffffffffffffffff169050919050565b6000806000613ea886613e67565b915083861415613ebd57819050849250613efa565b613ec684613e67565b90506000811115613ef957613ef681613ee88488613bb890919063ffffffff16565b613bd490919063ffffffff16565b92505b5b93509350939050565b60606001604051908082528060200260200182016040528015613f355781602001602082028038833980820191505090505b5090507f466c657869626c6553746f72616765000000000000000000000000000000000081600081518110613f6657fe5b60200260200101818152505090565b60608151835101604051908082528060200260200182016040528015613faa5781602001602082028038833980820191505090505b50905060008090505b8351811015613ff557838181518110613fc857fe5b6020026020010151828281518110613fdc57fe5b6020026020010181815250508080600101915050613fb3565b5060008090505b82518110156140415782818151811061401157fe5b602002602001015182828651018151811061402857fe5b6020026020010181815250508080600101915050613ffc565b5092915050565b6040517f08c379a000000000000000000000000000000000000000000000000000000000815260040180806020018281038252601b8152602001807f43616e6e6f742062652072756e206f6e2074686973206c61796572000000000081525060200191505060405180910390fd5b60008251845114614112576040517f08c379a0000000000000000000000000000000000000000000000000000000008152600401808060200182810382526038815260200180614d436038913960400191505060405180910390fd5b6102584201821061418b576040517f08c379a000000000000000000000000000000000000000000000000000000000815260040180806020018281038252601f8152602001807f54696d6520697320746f6f2066617220696e746f20746865206675747572650081525060200191505060405180910390fd5b60008090505b84518110156142db5760008582815181106141a857fe5b6020026020010151905060008583815181106141c057fe5b6020026020010151141561421f576040517f08c379a0000000000000000000000000000000000000000000000000000000008152600401808060200182810382526039815260200180614dad6039913960400191505060405180910390fd5b7f7055534400000000000000000000000000000000000000000000000000000000811415614298576040517f08c379a0000000000000000000000000000000000000000000000000000000008152600401808060200182810382526031815260200180614d126031913960400191505060405180910390fd5b6142a181612e45565b8410156142ae57506142ce565b6142cc818684815181106142be57fe5b60200260200101518661478a565b505b8080600101915050614191565b507f1bc0fc8997efa076f59b5ef02c315bc5390f7a6d24d661ce12128c01a3b0ba578484604051808060200180602001838103835285818151815260200191508051906020019060200280838360005b8381101561434657808201518184015260208101905061432b565b50505050905001838103825284818151815260200191508051906020019060200280838360005b8381101561438857808201518184015260208101905061436d565b5050505090500194505050505060405180910390a1600190509392505050565b60006143d37f466c657869626c6553746f7261676500000000000000000000000000000000006148a3565b905090565b600080821215614450576040517f08c379a000000000000000000000000000000000000000000000000000000000815260040180806020018281038252601b8152602001807f4e656761746976652072617465206e6f7420737570706f72746564000000000081525060200191505060405180910390fd5b60006007600085815260200190815260200160002060009054906101000a900460ff1660ff1611156144cc5760006144ac60126007600087815260200190815260200160002060009054906101000a900460ff1660ff16614a05565b600a0a90506144c48184614a8e90919063ffffffff16565b9150506144d0565b8190505b92915050565b60006144e0614c0d565b600960008681526020019081526020016000206040518060a00160405290816000820154815260200160018201548152602001600282015481526020016003820160009054906101000a900460ff161515151581526020016003820160019054906101000a900460ff16151515158152505090506000816000015114806145675750600084145b156145755783915050614647565b8391506000600c60008781526020019081526020016000205490508084101580156145a1575081606001515b156145b25781602001519250614644565b8084101580156145c3575081608001515b156145d45781604001519250614643565b60006145ee60028460000151614a8e90919063ffffffff16565b90508581116146005760009350614616565b6146138682614a0590919063ffffffff16565b93505b8260200151841061462d5782602001519350614641565b8260400151841161464057826040015193505b5b505b5b50505b9392505050565b6000808284019050838110156146cc576040517f08c379a000000000000000000000000000000000000000000000000000000000815260040180806020018281038252601b8152602001807f536166654d6174683a206164646974696f6e206f766572666c6f77000000000081525060200191505060405180910390fd5b8091505092915050565b600080600a83816146e357fe5b046146f78587614a8e90919063ffffffff16565b816146fe57fe5b0490506005600a828161470d57fe5b061061471a57600a810190505b600a818161472457fe5b049150509392505050565b60008061475a8461474c600a860288614a8e90919063ffffffff16565b614b1490919063ffffffff16565b90506005600a828161476857fe5b061061477557600a810190505b600a818161477f57fe5b049150509392505050565b600b6000848152602001908152602001600020600081548092919060010191905055506040518060400160405280837affffffffffffffffffffffffffffffffffffffffffffffffffffff1681526020018264ffffffffff16815250600460008581526020019081526020016000206000600b600087815260200190815260200160002054815260200190815260200160002060008201518160000160006101000a8154817affffffffffffffffffffffffffffffffffffffffffffffffffffff02191690837affffffffffffffffffffffffffffffffffffffffffffffffffffff160217905550602082015181600001601b6101000a81548164ffffffffff021916908364ffffffffff160217905550905050505050565b6000806003600084815260200190815260200160002060009054906101000a900473ffffffffffffffffffffffffffffffffffffffff169050600073ffffffffffffffffffffffffffffffffffffffff168173ffffffffffffffffffffffffffffffffffffffff1614158360405160200180807f4d697373696e6720616464726573733a20000000000000000000000000000000815250601101828152602001915050604051602081830303815290604052906149fb576040517f08c379a00000000000000000000000000000000000000000000000000000000081526004018080602001828103825283818151815260200191508051906020019080838360005b838110156149c05780820151818401526020810190506149a5565b50505050905090810190601f1680156149ed5780820380516001836020036101000a031916815260200191505b509250505060405180910390fd5b5080915050919050565b600082821115614a7d576040517f08c379a000000000000000000000000000000000000000000000000000000000815260040180806020018281038252601e8152602001807f536166654d6174683a207375627472616374696f6e206f766572666c6f77000081525060200191505060405180910390fd5b600082840390508091505092915050565b600080831415614aa15760009050614b0e565b6000828402905082848281614ab257fe5b0414614b09576040517f08c379a0000000000000000000000000000000000000000000000000000000008152600401808060200182810382526021815260200180614cf16021913960400191505060405180910390fd5b809150505b92915050565b6000808211614b8b576040517f08c379a000000000000000000000000000000000000000000000000000000000815260040180806020018281038252601a8152602001807f536166654d6174683a206469766973696f6e206279207a65726f00000000000081525060200191505060405180910390fd5b6000828481614b9657fe5b0490508091505092915050565b604051806040016040528060007affffffffffffffffffffffffffffffffffffffffffffffffffffff168152602001600064ffffffffff1681525090565b815481835581811115614c0857818360005260206000209182019101614c079190614c40565b5b505050565b6040518060a001604052806000815260200160008152602001600081526020016000151581526020016000151581525090565b614c6291905b80821115614c5e576000816000905550600101614c46565b5090565b9056fe596f75206d757374206265206e6f6d696e61746564206265666f726520796f752063616e20616363657074206f776e6572736869704f6e6c7920746865206f7261636c652063616e20706572666f726d207468697320616374696f6e4f6e6c792074686520636f6e7472616374206f776e6572206d617920706572666f726d207468697320616374696f6e536166654d6174683a206d756c7469706c69636174696f6e206f766572666c6f7752617465206f6620705553442063616e6e6f7420626520757064617465642c206974277320616c7761797320554e49542e43757272656e6379206b6579206172726179206c656e677468206d757374206d61746368207261746573206172726179206c656e6774682e41676772656761746f7220646563696d616c732073686f756c64206265206c6f776572206f7220657175616c20746f2031385a65726f206973206e6f7420612076616c696420726174652c20706c656173652063616c6c2064656c6574655261746520696e73746561642ea265627a7a72315820574c3d05b29d13b38771eb59f5993ac435eaa59f27fc3ac606c593e11f8a237064736f6c6343000510003243757272656e6379206b6579206c656e67746820616e642072617465206c656e677468206d757374206d617463682e536166654d6174683a206d756c7469706c69636174696f6e206f766572666c6f7752617465206f6620705553442063616e6e6f7420626520757064617465642c206974277320616c7761797320554e49542e43757272656e6379206b6579206172726179206c656e677468206d757374206d61746368207261746573206172726179206c656e6774682e5a65726f206973206e6f7420612076616c696420726174652c20706c656173652063616c6c2064656c6574655261746520696e73746561642e",
  "linkReferences": {
    "contracts/SafeDecimalMath.sol": {
      "SafeDecimalMath": [
        {
          "length": 20,
          "start": 1045
        }
      ]
    }
  },
  "deployedLinkReferences": {}
}