{
  "_format": "hh-sol-artifact-1",
  "contractName": "CollateralManager",
  "sourceName": "contracts/CollateralManager.sol",
  "abi": [
    {
      "inputs": [
        {
          "internalType": "contract CollateralManagerState",
          "name": "_state",
          "type": "address"
        },
        {
          "internalType": "address",
          "name": "_owner",
          "type": "address"
        },
        {
          "internalType": "address",
          "name": "_resolver",
          "type": "address"
        },
        {
          "internalType": "uint256",
          "name": "_maxDebt",
          "type": "uint256"
        },
        {
          "internalType": "uint256",
          "name": "_baseBorrowRate",
          "type": "uint256"
        },
        {
          "internalType": "uint256",
          "name": "_baseShortRate",
          "type": "uint256"
        }
      ],
      "payable": false,
      "stateMutability": "nonpayable",
      "type": "constructor"
    },
    {
      "anonymous": false,
      "inputs": [
        {
          "indexed": false,
          "internalType": "uint256",
          "name": "baseBorrowRate",
          "type": "uint256"
        }
      ],
      "name": "BaseBorrowRateUpdated",
      "type": "event"
    },
    {
      "anonymous": false,
      "inputs": [
        {
          "indexed": false,
          "internalType": "uint256",
          "name": "baseShortRate",
          "type": "uint256"
        }
      ],
      "name": "BaseShortRateUpdated",
      "type": "event"
    },
    {
      "anonymous": false,
      "inputs": [
        {
          "indexed": false,
          "internalType": "bytes32",
          "name": "name",
          "type": "bytes32"
        },
        {
          "indexed": false,
          "internalType": "address",
          "name": "destination",
          "type": "address"
        }
      ],
      "name": "CacheUpdated",
      "type": "event"
    },
    {
      "anonymous": false,
      "inputs": [
        {
          "indexed": false,
          "internalType": "address",
          "name": "collateral",
          "type": "address"
        }
      ],
      "name": "CollateralAdded",
      "type": "event"
    },
    {
      "anonymous": false,
      "inputs": [
        {
          "indexed": false,
          "internalType": "address",
          "name": "collateral",
          "type": "address"
        }
      ],
      "name": "CollateralRemoved",
      "type": "event"
    },
    {
      "anonymous": false,
      "inputs": [
        {
          "indexed": false,
          "internalType": "uint256",
          "name": "liquidationPenalty",
          "type": "uint256"
        }
      ],
      "name": "LiquidationPenaltyUpdated",
      "type": "event"
    },
    {
      "anonymous": false,
      "inputs": [
        {
          "indexed": false,
          "internalType": "uint256",
          "name": "maxDebt",
          "type": "uint256"
        }
      ],
      "name": "MaxDebtUpdated",
      "type": "event"
    },
    {
      "anonymous": false,
      "inputs": [
        {
          "indexed": false,
          "internalType": "address",
          "name": "oldOwner",
          "type": "address"
        },
        {
          "indexed": false,
          "internalType": "address",
          "name": "newOwner",
          "type": "address"
        }
      ],
      "name": "OwnerChanged",
      "type": "event"
    },
    {
      "anonymous": false,
      "inputs": [
        {
          "indexed": false,
          "internalType": "address",
          "name": "newOwner",
          "type": "address"
        }
      ],
      "name": "OwnerNominated",
      "type": "event"
    },
    {
      "anonymous": false,
      "inputs": [
        {
          "indexed": false,
          "internalType": "bool",
          "name": "isPaused",
          "type": "bool"
        }
      ],
      "name": "PauseChanged",
      "type": "event"
    },
    {
      "anonymous": false,
      "inputs": [
        {
          "indexed": false,
          "internalType": "bytes32",
          "name": "pynth",
          "type": "bytes32"
        }
      ],
      "name": "PynthAdded",
      "type": "event"
    },
    {
      "anonymous": false,
      "inputs": [
        {
          "indexed": false,
          "internalType": "bytes32",
          "name": "pynth",
          "type": "bytes32"
        }
      ],
      "name": "PynthRemoved",
      "type": "event"
    },
    {
      "anonymous": false,
      "inputs": [
        {
          "indexed": false,
          "internalType": "bytes32",
          "name": "pynth",
          "type": "bytes32"
        }
      ],
      "name": "ShortablePynthAdded",
      "type": "event"
    },
    {
      "anonymous": false,
      "inputs": [
        {
          "indexed": false,
          "internalType": "bytes32",
          "name": "pynth",
          "type": "bytes32"
        }
      ],
      "name": "ShortablePynthRemoved",
      "type": "event"
    },
    {
      "constant": true,
      "inputs": [],
      "name": "CONTRACT_NAME",
      "outputs": [
        {
          "internalType": "bytes32",
          "name": "",
          "type": "bytes32"
        }
      ],
      "payable": false,
      "stateMutability": "view",
      "type": "function"
    },
    {
      "constant": false,
      "inputs": [],
      "name": "acceptOwnership",
      "outputs": [],
      "payable": false,
      "stateMutability": "nonpayable",
      "type": "function"
    },
    {
      "constant": false,
      "inputs": [
        {
          "internalType": "address[]",
          "name": "collaterals",
          "type": "address[]"
        }
      ],
      "name": "addCollaterals",
      "outputs": [],
      "payable": false,
      "stateMutability": "nonpayable",
      "type": "function"
    },
    {
      "constant": false,
      "inputs": [
        {
          "internalType": "bytes32[]",
          "name": "pynthNamesInResolver",
          "type": "bytes32[]"
        },
        {
          "internalType": "bytes32[]",
          "name": "pynthKeys",
          "type": "bytes32[]"
        }
      ],
      "name": "addPynths",
      "outputs": [],
      "payable": false,
      "stateMutability": "nonpayable",
      "type": "function"
    },
    {
      "constant": false,
      "inputs": [
        {
          "internalType": "bytes32[2][]",
          "name": "requiredPynthAndInverseNamesInResolver",
          "type": "bytes32[2][]"
        },
        {
          "internalType": "bytes32[]",
          "name": "pynthKeys",
          "type": "bytes32[]"
        }
      ],
      "name": "addShortablePynths",
      "outputs": [],
      "payable": false,
      "stateMutability": "nonpayable",
      "type": "function"
    },
    {
      "constant": true,
      "inputs": [
        {
          "internalType": "bytes32[]",
          "name": "requiredPynthNamesInResolver",
          "type": "bytes32[]"
        },
        {
          "internalType": "bytes32[]",
          "name": "pynthKeys",
          "type": "bytes32[]"
        }
      ],
      "name": "arePynthsAndCurrenciesSet",
      "outputs": [
        {
          "internalType": "bool",
          "name": "",
          "type": "bool"
        }
      ],
      "payable": false,
      "stateMutability": "view",
      "type": "function"
    },
    {
      "constant": true,
      "inputs": [
        {
          "internalType": "bytes32[]",
          "name": "requiredPynthNamesInResolver",
          "type": "bytes32[]"
        },
        {
          "internalType": "bytes32[]",
          "name": "pynthKeys",
          "type": "bytes32[]"
        }
      ],
      "name": "areShortablePynthsSet",
      "outputs": [
        {
          "internalType": "bool",
          "name": "",
          "type": "bool"
        }
      ],
      "payable": false,
      "stateMutability": "view",
      "type": "function"
    },
    {
      "constant": true,
      "inputs": [],
      "name": "baseBorrowRate",
      "outputs": [
        {
          "internalType": "uint256",
          "name": "",
          "type": "uint256"
        }
      ],
      "payable": false,
      "stateMutability": "view",
      "type": "function"
    },
    {
      "constant": true,
      "inputs": [],
      "name": "baseShortRate",
      "outputs": [
        {
          "internalType": "uint256",
          "name": "",
          "type": "uint256"
        }
      ],
      "payable": false,
      "stateMutability": "view",
      "type": "function"
    },
    {
      "constant": false,
      "inputs": [
        {
          "internalType": "bytes32",
          "name": "pynth",
          "type": "bytes32"
        },
        {
          "internalType": "uint256",
          "name": "amount",
          "type": "uint256"
        }
      ],
      "name": "decrementLongs",
      "outputs": [],
      "payable": false,
      "stateMutability": "nonpayable",
      "type": "function"
    },
    {
      "constant": false,
      "inputs": [
        {
          "internalType": "bytes32",
          "name": "pynth",
          "type": "bytes32"
        },
        {
          "internalType": "uint256",
          "name": "amount",
          "type": "uint256"
        }
      ],
      "name": "decrementShorts",
      "outputs": [],
      "payable": false,
      "stateMutability": "nonpayable",
      "type": "function"
    },
    {
      "constant": true,
      "inputs": [
        {
          "internalType": "uint256",
          "name": "amount",
          "type": "uint256"
        },
        {
          "internalType": "bytes32",
          "name": "currency",
          "type": "bytes32"
        }
      ],
      "name": "exceedsDebtLimit",
      "outputs": [
        {
          "internalType": "bool",
          "name": "canIssue",
          "type": "bool"
        },
        {
          "internalType": "bool",
          "name": "anyRateIsInvalid",
          "type": "bool"
        }
      ],
      "payable": false,
      "stateMutability": "view",
      "type": "function"
    },
    {
      "constant": true,
      "inputs": [],
      "name": "getBorrowRate",
      "outputs": [
        {
          "internalType": "uint256",
          "name": "borrowRate",
          "type": "uint256"
        },
        {
          "internalType": "bool",
          "name": "anyRateIsInvalid",
          "type": "bool"
        }
      ],
      "payable": false,
      "stateMutability": "view",
      "type": "function"
    },
    {
      "constant": false,
      "inputs": [],
      "name": "getNewLoanId",
      "outputs": [
        {
          "internalType": "uint256",
          "name": "id",
          "type": "uint256"
        }
      ],
      "payable": false,
      "stateMutability": "nonpayable",
      "type": "function"
    },
    {
      "constant": true,
      "inputs": [
        {
          "internalType": "uint256",
          "name": "index",
          "type": "uint256"
        }
      ],
      "name": "getRatesAndTime",
      "outputs": [
        {
          "internalType": "uint256",
          "name": "entryRate",
          "type": "uint256"
        },
        {
          "internalType": "uint256",
          "name": "lastRate",
          "type": "uint256"
        },
        {
          "internalType": "uint256",
          "name": "lastUpdated",
          "type": "uint256"
        },
        {
          "internalType": "uint256",
          "name": "newIndex",
          "type": "uint256"
        }
      ],
      "payable": false,
      "stateMutability": "view",
      "type": "function"
    },
    {
      "constant": true,
      "inputs": [
        {
          "internalType": "bytes32",
          "name": "pynth",
          "type": "bytes32"
        }
      ],
      "name": "getShortRate",
      "outputs": [
        {
          "internalType": "uint256",
          "name": "shortRate",
          "type": "uint256"
        },
        {
          "internalType": "bool",
          "name": "rateIsInvalid",
          "type": "bool"
        }
      ],
      "payable": false,
      "stateMutability": "view",
      "type": "function"
    },
    {
      "constant": true,
      "inputs": [
        {
          "internalType": "bytes32",
          "name": "currency",
          "type": "bytes32"
        },
        {
          "internalType": "uint256",
          "name": "index",
          "type": "uint256"
        }
      ],
      "name": "getShortRatesAndTime",
      "outputs": [
        {
          "internalType": "uint256",
          "name": "entryRate",
          "type": "uint256"
        },
        {
          "internalType": "uint256",
          "name": "lastRate",
          "type": "uint256"
        },
        {
          "internalType": "uint256",
          "name": "lastUpdated",
          "type": "uint256"
        },
        {
          "internalType": "uint256",
          "name": "newIndex",
          "type": "uint256"
        }
      ],
      "payable": false,
      "stateMutability": "view",
      "type": "function"
    },
    {
      "constant": true,
      "inputs": [
        {
          "internalType": "address[]",
          "name": "collaterals",
          "type": "address[]"
        }
      ],
      "name": "hasAllCollaterals",
      "outputs": [
        {
          "internalType": "bool",
          "name": "",
          "type": "bool"
        }
      ],
      "payable": false,
      "stateMutability": "view",
      "type": "function"
    },
    {
      "constant": true,
      "inputs": [
        {
          "internalType": "address",
          "name": "collateral",
          "type": "address"
        }
      ],
      "name": "hasCollateral",
      "outputs": [
        {
          "internalType": "bool",
          "name": "",
          "type": "bool"
        }
      ],
      "payable": false,
      "stateMutability": "view",
      "type": "function"
    },
    {
      "constant": false,
      "inputs": [
        {
          "internalType": "bytes32",
          "name": "pynth",
          "type": "bytes32"
        },
        {
          "internalType": "uint256",
          "name": "amount",
          "type": "uint256"
        }
      ],
      "name": "incrementLongs",
      "outputs": [],
      "payable": false,
      "stateMutability": "nonpayable",
      "type": "function"
    },
    {
      "constant": false,
      "inputs": [
        {
          "internalType": "bytes32",
          "name": "pynth",
          "type": "bytes32"
        },
        {
          "internalType": "uint256",
          "name": "amount",
          "type": "uint256"
        }
      ],
      "name": "incrementShorts",
      "outputs": [],
      "payable": false,
      "stateMutability": "nonpayable",
      "type": "function"
    },
    {
      "constant": true,
      "inputs": [
        {
          "internalType": "bytes32",
          "name": "currencyKey",
          "type": "bytes32"
        }
      ],
      "name": "isPynthManaged",
      "outputs": [
        {
          "internalType": "bool",
          "name": "",
          "type": "bool"
        }
      ],
      "payable": false,
      "stateMutability": "view",
      "type": "function"
    },
    {
      "constant": true,
      "inputs": [],
      "name": "isResolverCached",
      "outputs": [
        {
          "internalType": "bool",
          "name": "",
          "type": "bool"
        }
      ],
      "payable": false,
      "stateMutability": "view",
      "type": "function"
    },
    {
      "constant": true,
      "inputs": [],
      "name": "lastPauseTime",
      "outputs": [
        {
          "internalType": "uint256",
          "name": "",
          "type": "uint256"
        }
      ],
      "payable": false,
      "stateMutability": "view",
      "type": "function"
    },
    {
      "constant": true,
      "inputs": [
        {
          "internalType": "bytes32",
          "name": "pynth",
          "type": "bytes32"
        }
      ],
      "name": "long",
      "outputs": [
        {
          "internalType": "uint256",
          "name": "amount",
          "type": "uint256"
        }
      ],
      "payable": false,
      "stateMutability": "view",
      "type": "function"
    },
    {
      "constant": true,
      "inputs": [],
      "name": "maxDebt",
      "outputs": [
        {
          "internalType": "uint256",
          "name": "",
          "type": "uint256"
        }
      ],
      "payable": false,
      "stateMutability": "view",
      "type": "function"
    },
    {
      "constant": false,
      "inputs": [
        {
          "internalType": "address",
          "name": "_owner",
          "type": "address"
        }
      ],
      "name": "nominateNewOwner",
      "outputs": [],
      "payable": false,
      "stateMutability": "nonpayable",
      "type": "function"
    },
    {
      "constant": true,
      "inputs": [],
      "name": "nominatedOwner",
      "outputs": [
        {
          "internalType": "address",
          "name": "",
          "type": "address"
        }
      ],
      "payable": false,
      "stateMutability": "view",
      "type": "function"
    },
    {
      "constant": true,
      "inputs": [],
      "name": "owner",
      "outputs": [
        {
          "internalType": "address",
          "name": "",
          "type": "address"
        }
      ],
      "payable": false,
      "stateMutability": "view",
      "type": "function"
    },
    {
      "constant": true,
      "inputs": [],
      "name": "paused",
      "outputs": [
        {
          "internalType": "bool",
          "name": "",
          "type": "bool"
        }
      ],
      "payable": false,
      "stateMutability": "view",
      "type": "function"
    },
    {
      "constant": true,
      "inputs": [
        {
          "internalType": "bytes32",
          "name": "",
          "type": "bytes32"
        }
      ],
      "name": "pynthToInversePynth",
      "outputs": [
        {
          "internalType": "bytes32",
          "name": "",
          "type": "bytes32"
        }
      ],
      "payable": false,
      "stateMutability": "view",
      "type": "function"
    },
    {
      "constant": true,
      "inputs": [
        {
          "internalType": "bytes32",
          "name": "",
          "type": "bytes32"
        }
      ],
      "name": "pynthsByKey",
      "outputs": [
        {
          "internalType": "bytes32",
          "name": "",
          "type": "bytes32"
        }
      ],
      "payable": false,
      "stateMutability": "view",
      "type": "function"
    },
    {
      "constant": false,
      "inputs": [],
      "name": "rebuildCache",
      "outputs": [],
      "payable": false,
      "stateMutability": "nonpayable",
      "type": "function"
    },
    {
      "constant": false,
      "inputs": [
        {
          "internalType": "address[]",
          "name": "collaterals",
          "type": "address[]"
        }
      ],
      "name": "removeCollaterals",
      "outputs": [],
      "payable": false,
      "stateMutability": "nonpayable",
      "type": "function"
    },
    {
      "constant": false,
      "inputs": [
        {
          "internalType": "bytes32[]",
          "name": "pynths",
          "type": "bytes32[]"
        },
        {
          "internalType": "bytes32[]",
          "name": "pynthKeys",
          "type": "bytes32[]"
        }
      ],
      "name": "removePynths",
      "outputs": [],
      "payable": false,
      "stateMutability": "nonpayable",
      "type": "function"
    },
    {
      "constant": false,
      "inputs": [
        {
          "internalType": "bytes32[]",
          "name": "pynths",
          "type": "bytes32[]"
        }
      ],
      "name": "removeShortablePynths",
      "outputs": [],
      "payable": false,
      "stateMutability": "nonpayable",
      "type": "function"
    },
    {
      "constant": true,
      "inputs": [],
      "name": "resolver",
      "outputs": [
        {
          "internalType": "contract AddressResolver",
          "name": "",
          "type": "address"
        }
      ],
      "payable": false,
      "stateMutability": "view",
      "type": "function"
    },
    {
      "constant": true,
      "inputs": [],
      "name": "resolverAddressesRequired",
      "outputs": [
        {
          "internalType": "bytes32[]",
          "name": "addresses",
          "type": "bytes32[]"
        }
      ],
      "payable": false,
      "stateMutability": "view",
      "type": "function"
    },
    {
      "constant": false,
      "inputs": [
        {
          "internalType": "uint256",
          "name": "_baseBorrowRate",
          "type": "uint256"
        }
      ],
      "name": "setBaseBorrowRate",
      "outputs": [],
      "payable": false,
      "stateMutability": "nonpayable",
      "type": "function"
    },
    {
      "constant": false,
      "inputs": [
        {
          "internalType": "uint256",
          "name": "_baseShortRate",
          "type": "uint256"
        }
      ],
      "name": "setBaseShortRate",
      "outputs": [],
      "payable": false,
      "stateMutability": "nonpayable",
      "type": "function"
    },
    {
      "constant": false,
      "inputs": [
        {
          "internalType": "uint256",
          "name": "_maxDebt",
          "type": "uint256"
        }
      ],
      "name": "setMaxDebt",
      "outputs": [],
      "payable": false,
      "stateMutability": "nonpayable",
      "type": "function"
    },
    {
      "constant": false,
      "inputs": [
        {
          "internalType": "bool",
          "name": "_paused",
          "type": "bool"
        }
      ],
      "name": "setPaused",
      "outputs": [],
      "payable": false,
      "stateMutability": "nonpayable",
      "type": "function"
    },
    {
      "constant": false,
      "inputs": [
        {
          "internalType": "uint256",
          "name": "_utilisationMultiplier",
          "type": "uint256"
        }
      ],
      "name": "setUtilisationMultiplier",
      "outputs": [],
      "payable": false,
      "stateMutability": "nonpayable",
      "type": "function"
    },
    {
      "constant": true,
      "inputs": [
        {
          "internalType": "bytes32",
          "name": "pynth",
          "type": "bytes32"
        }
      ],
      "name": "short",
      "outputs": [
        {
          "internalType": "uint256",
          "name": "amount",
          "type": "uint256"
        }
      ],
      "payable": false,
      "stateMutability": "view",
      "type": "function"
    },
    {
      "constant": true,
      "inputs": [],
      "name": "state",
      "outputs": [
        {
          "internalType": "contract CollateralManagerState",
          "name": "",
          "type": "address"
        }
      ],
      "payable": false,
      "stateMutability": "view",
      "type": "function"
    },
    {
      "constant": true,
      "inputs": [],
      "name": "totalLong",
      "outputs": [
        {
          "internalType": "uint256",
          "name": "susdValue",
          "type": "uint256"
        },
        {
          "internalType": "bool",
          "name": "anyRateIsInvalid",
          "type": "bool"
        }
      ],
      "payable": false,
      "stateMutability": "view",
      "type": "function"
    },
    {
      "constant": true,
      "inputs": [],
      "name": "totalShort",
      "outputs": [
        {
          "internalType": "uint256",
          "name": "susdValue",
          "type": "uint256"
        },
        {
          "internalType": "bool",
          "name": "anyRateIsInvalid",
          "type": "bool"
        }
      ],
      "payable": false,
      "stateMutability": "view",
      "type": "function"
    },
    {
      "constant": false,
      "inputs": [
        {
          "internalType": "uint256",
          "name": "rate",
          "type": "uint256"
        }
      ],
      "name": "updateBorrowRates",
      "outputs": [],
      "payable": false,
      "stateMutability": "nonpayable",
      "type": "function"
    },
    {
      "constant": false,
      "inputs": [
        {
          "internalType": "bytes32",
          "name": "currency",
          "type": "bytes32"
        },
        {
          "internalType": "uint256",
          "name": "rate",
          "type": "uint256"
        }
      ],
      "name": "updateShortRates",
      "outputs": [],
      "payable": false,
      "stateMutability": "nonpayable",
      "type": "function"
    },
    {
      "constant": true,
      "inputs": [],
      "name": "utilisationMultiplier",
      "outputs": [
        {
          "internalType": "uint256",
          "name": "",
          "type": "uint256"
        }
      ],
      "payable": false,
      "stateMutability": "view",
      "type": "function"
    }
  ],
  "bytecode": "0x6080604052670de0b6b3a7640000600e5560405180604001604052807f497373756572000000000000000000000000000000000000000000000000000081526020017f45786368616e67655261746573000000000000000000000000000000000000008152506012906002620000779291906200068d565b503480156200008557600080fd5b506040516200560538038062005605833981810160405260c0811015620000ab57600080fd5b810190808051906020019092919080519060200190929190805190602001909291908051906020019092919080519060200190929190805190602001909291905050508385600073ffffffffffffffffffffffffffffffffffffffff168173ffffffffffffffffffffffffffffffffffffffff16141562000194576040517f08c379a00000000000000000000000000000000000000000000000000000000081526004018080602001828103825260198152602001807f4f776e657220616464726573732063616e6e6f7420626520300000000000000081525060200191505060405180910390fd5b806000806101000a81548173ffffffffffffffffffffffffffffffffffffffff021916908373ffffffffffffffffffffffffffffffffffffffff1602179055507fb532073b38c83145e3e5135377a08bf9aab55bc0fd7c1179cd4fb995d2a5159c600082604051808373ffffffffffffffffffffffffffffffffffffffff1673ffffffffffffffffffffffffffffffffffffffff1681526020018273ffffffffffffffffffffffffffffffffffffffff1673ffffffffffffffffffffffffffffffffffffffff1681526020019250505060405180910390a150600073ffffffffffffffffffffffffffffffffffffffff166000809054906101000a900473ffffffffffffffffffffffffffffffffffffffff1673ffffffffffffffffffffffffffffffffffffffff16141562000332576040517f08c379a00000000000000000000000000000000000000000000000000000000081526004018080602001828103825260118152602001807f4f776e6572206d7573742062652073657400000000000000000000000000000081525060200191505060405180910390fd5b80600360016101000a81548173ffffffffffffffffffffffffffffffffffffffff021916908373ffffffffffffffffffffffffffffffffffffffff16021790555050336000806101000a81548173ffffffffffffffffffffffffffffffffffffffff021916908373ffffffffffffffffffffffffffffffffffffffff16021790555085600560006101000a81548173ffffffffffffffffffffffffffffffffffffffff021916908373ffffffffffffffffffffffffffffffffffffffff16021790555062000406836200047460201b60201c565b62000417826200053e60201b60201c565b62000428816200059160201b60201c565b846000806101000a81548173ffffffffffffffffffffffffffffffffffffffff021916908373ffffffffffffffffffffffffffffffffffffffff160217905550505050505050620006fa565b62000484620005e460201b60201c565b60008111620004fb576040517f08c379a00000000000000000000000000000000000000000000000000000000081526004018080602001828103825260168152602001807f4d7573742062652067726561746572207468616e20300000000000000000000081525060200191505060405180910390fd5b80600f819055507f3620cc91bd75c6d3d752b529a1b98b38789dd2b81a13ece55801abc83531a77f600f546040518082815260200191505060405180910390a150565b6200054e620005e460201b60201c565b806010819055507f08f9599493340b8255c7698bded59e30079641f4a9531613ec020557392470046010546040518082815260200191505060405180910390a150565b620005a1620005e460201b60201c565b806011819055507fe2695216766f2a627e90e17041ac2f085fd60ea503345b039f815c69bcbcccc96011546040518082815260200191505060405180910390a150565b6000809054906101000a900473ffffffffffffffffffffffffffffffffffffffff1673ffffffffffffffffffffffffffffffffffffffff163373ffffffffffffffffffffffffffffffffffffffff16146200068b576040517f08c379a000000000000000000000000000000000000000000000000000000000815260040180806020018281038252602f815260200180620055d6602f913960400191505060405180910390fd5b565b8260188101928215620006bf579160200282015b82811115620006be578251825591602001919060010190620006a1565b5b509050620006ce9190620006d2565b5090565b620006f791905b80821115620006f3576000816000905550600101620006d9565b5090565b90565b614ecc806200070a6000396000f3fe608060405234801561001057600080fd5b50600436106102d65760003560e01c80638da5cb5b11610182578063c9e18015116100e9578063e32261fe116100a2578063ee81f7901161007c578063ee81f7901461101a578063f53037b614611067578063fb5aa1e114611095578063ffa749cd1461117b576102d6565b8063e32261fe14610f68578063e50a31b314610faa578063eb94bbde14610fe2576102d6565b8063c9e1801514610df7578063cc7ae66314610e15578063cd28502014610e8e578063d0064c0014610ed0578063d2f0047514610eee578063e31f27c114610f30576102d6565b8063b3b467321161013b578063b3b4673214610c74578063b4d6cb4014610c92578063ba1c5e8014610ced578063bbb601cd14610d16578063bf38668214610d8f578063c19d93fb14610dad576102d6565b80638da5cb5b14610af857806391b4ded914610b425780639f7eac3714610b60578063ad79a85814610b8e578063af07aa9d14610bb7578063b38988f714610c18576102d6565b80634db7764c116102415780636526941b116101fa578063744d646e116101d4578063744d646e1461099157806379ba509714610a61578063899ffef414610a6b5780638b173e8114610aca576102d6565b80636526941b146109175780637060f9e8146109455780637418536014610987576102d6565b80634db7764c146107695780635246f2b91461078757806353a47bb7146107bf57806355bd615c146108095780635c975abb146108d7578063614d08f8146108f9576102d6565b806316c38b3c1161029357806316c38b3c146105a25780631e33fc6b146105d257806324620639146105fb5780632af64bd3146106335780632e5de3891461065557806342e32f1314610723576102d6565b806303f048b0146102db57806304f3bcec146103325780630692b1701461037c5780630c9c81a11461044a5780630e54a19b146104785780631627540c1461055e575b600080fd5b610307600480360360208110156102f157600080fd5b81019080803590602001909291905050506111f4565b6040518085815260200184815260200183815260200182815260200194505050505060405180910390f35b61033a6112dd565b604051808273ffffffffffffffffffffffffffffffffffffffff1673ffffffffffffffffffffffffffffffffffffffff16815260200191505060405180910390f35b6104486004803603604081101561039257600080fd5b81019080803590602001906401000000008111156103af57600080fd5b8201836020820111156103c157600080fd5b803590602001918460408302840111640100000000831117156103e357600080fd5b90919293919293908035906020019064010000000081111561040457600080fd5b82018360208201111561041657600080fd5b8035906020019184602083028401116401000000008311171561043857600080fd5b9091929391929390505050611303565b005b6104766004803603602081101561046057600080fd5b810190808035906020019092919050505061151e565b005b6105446004803603604081101561048e57600080fd5b81019080803590602001906401000000008111156104ab57600080fd5b8201836020820111156104bd57600080fd5b803590602001918460208302840111640100000000831117156104df57600080fd5b90919293919293908035906020019064010000000081111561050057600080fd5b82018360208201111561051257600080fd5b8035906020019184602083028401116401000000008311171561053457600080fd5b9091929391929390505050611569565b604051808215151515815260200191505060405180910390f35b6105a06004803603602081101561057457600080fd5b81019080803573ffffffffffffffffffffffffffffffffffffffff16906020019092919050505061162e565b005b6105d0600480360360208110156105b857600080fd5b810190808035151590602001909291905050506116dd565b005b6105da61178a565b60405180838152602001821515151581526020019250505060405180910390f35b6106316004803603604081101561061157600080fd5b810190808035906020019092919080359060200190929190505050611b2d565b005b61063b611c47565b604051808215151515815260200191505060405180910390f35b6107216004803603604081101561066b57600080fd5b810190808035906020019064010000000081111561068857600080fd5b82018360208201111561069a57600080fd5b803590602001918460208302840111640100000000831117156106bc57600080fd5b9091929391929390803590602001906401000000008111156106dd57600080fd5b8201836020820111156106ef57600080fd5b8035906020019184602083028401116401000000008311171561071157600080fd5b9091929391929390505050611e1f565b005b61074f6004803603602081101561073957600080fd5b8101908080359060200190929190505050611f10565b604051808215151515815260200191505060405180910390f35b610771611f33565b6040518082815260200191505060405180910390f35b6107bd6004803603604081101561079d57600080fd5b810190808035906020019092919080359060200190929190505050611f39565b005b6107c7612053565b604051808273ffffffffffffffffffffffffffffffffffffffff1673ffffffffffffffffffffffffffffffffffffffff16815260200191505060405180910390f35b6108d56004803603604081101561081f57600080fd5b810190808035906020019064010000000081111561083c57600080fd5b82018360208201111561084e57600080fd5b8035906020019184602083028401116401000000008311171561087057600080fd5b90919293919293908035906020019064010000000081111561089157600080fd5b8201836020820111156108a357600080fd5b803590602001918460208302840111640100000000831117156108c557600080fd5b9091929391929390505050612079565b005b6108df61215e565b604051808215151515815260200191505060405180910390f35b610901612171565b6040518082815260200191505060405180910390f35b6109436004803603602081101561092d57600080fd5b8101908080359060200190929190505050612195565b005b6109716004803603602081101561095b57600080fd5b8101908080359060200190929190505050612256565b6040518082815260200191505060405180910390f35b61098f61226e565b005b610a47600480360360208110156109a757600080fd5b81019080803590602001906401000000008111156109c457600080fd5b8201836020820111156109d657600080fd5b803590602001918460208302840111640100000000831117156109f857600080fd5b919080806020026020016040519081016040528093929190818152602001838360200280828437600081840152601f19601f8201169050808301925050505050505091929192905050506124d7565b604051808215151515815260200191505060405180910390f35b610a6961252a565b005b610a73612750565b6040518080602001828103825283818151815260200191508051906020019060200280838360005b83811015610ab6578082015181840152602081019050610a9b565b505050509050019250505060405180910390f35b610af660048036036020811015610ae057600080fd5b8101908080359060200190929190505050612966565b005b610b006129b1565b604051808273ffffffffffffffffffffffffffffffffffffffff1673ffffffffffffffffffffffffffffffffffffffff16815260200191505060405180910390f35b610b4a6129d6565b6040518082815260200191505060405180910390f35b610b8c60048036036020811015610b7657600080fd5b81019080803590602001909291905050506129dc565b005b610b96612a64565b60405180838152602001821515151581526020019250505060405180910390f35b610bed60048036036040811015610bcd57600080fd5b810190808035906020019092919080359060200190929190505050612d17565b6040518085815260200184815260200183815260200182815260200194505050505060405180910390f35b610c5a60048036036020811015610c2e57600080fd5b81019080803573ffffffffffffffffffffffffffffffffffffffff169060200190929190505050612e0a565b604051808215151515815260200191505060405180910390f35b610c7c612e27565b6040518082815260200191505060405180910390f35b610cc860048036036040811015610ca857600080fd5b810190808035906020019092919080359060200190929190505050612f53565b6040518083151515158152602001821515151581526020019250505060405180910390f35b610cf5613081565b60405180838152602001821515151581526020019250505060405180910390f35b610d8d60048036036020811015610d2c57600080fd5b8101908080359060200190640100000000811115610d4957600080fd5b820183602082011115610d5b57600080fd5b80359060200191846020830284011164010000000083111715610d7d57600080fd5b90919293919293905050506131df565b005b610d97613312565b6040518082815260200191505060405180910390f35b610db5613318565b604051808273ffffffffffffffffffffffffffffffffffffffff1673ffffffffffffffffffffffffffffffffffffffff16815260200191505060405180910390f35b610dff61333e565b6040518082815260200191505060405180910390f35b610e8c60048036036020811015610e2b57600080fd5b8101908080359060200190640100000000811115610e4857600080fd5b820183602082011115610e5a57600080fd5b80359060200191846020830284011164010000000083111715610e7c57600080fd5b9091929391929390505050613344565b005b610eba60048036036020811015610ea457600080fd5b8101908080359060200190929190505050613560565b6040518082815260200191505060405180910390f35b610ed8613578565b6040518082815260200191505060405180910390f35b610f1a60048036036020811015610f0457600080fd5b810190808035906020019092919050505061357e565b6040518082815260200191505060405180910390f35b610f6660048036036040811015610f4657600080fd5b810190808035906020019092919080359060200190929190505050613635565b005b610f9460048036036020811015610f7e57600080fd5b810190808035906020019092919050505061374f565b6040518082815260200191505060405180910390f35b610fe060048036036040811015610fc057600080fd5b810190808035906020019092919080359060200190929190505050613806565b005b61101860048036036040811015610ff857600080fd5b810190808035906020019092919080359060200190929190505050613920565b005b6110466004803603602081101561103057600080fd5b8101908080359060200190929190505050613a3a565b60405180838152602001821515151581526020019250505060405180910390f35b6110936004803603602081101561107d57600080fd5b8101908080359060200190929190505050613deb565b005b611161600480360360408110156110ab57600080fd5b81019080803590602001906401000000008111156110c857600080fd5b8201836020820111156110da57600080fd5b803590602001918460208302840111640100000000831117156110fc57600080fd5b90919293919293908035906020019064010000000081111561111d57600080fd5b82018360208201111561112f57600080fd5b8035906020019184602083028401116401000000008311171561115157600080fd5b9091929391929390505050613efc565b604051808215151515815260200191505060405180910390f35b6111f26004803603602081101561119157600080fd5b81019080803590602001906401000000008111156111ae57600080fd5b8201836020820111156111c057600080fd5b803590602001918460208302840111640100000000831117156111e257600080fd5b909192939192939050505061410e565b005b600080600080600560009054906101000a900473ffffffffffffffffffffffffffffffffffffffff1673ffffffffffffffffffffffffffffffffffffffff166303f048b0866040518263ffffffff1660e01b81526004018082815260200191505060806040518083038186803b15801561126d57600080fd5b505afa158015611281573d6000803e3d6000fd5b505050506040513d608081101561129757600080fd5b8101908080519060200190929190805190602001909291908051906020019092919080519060200190929190505050809450819550829650839750505050509193509193565b600360019054906101000a900473ffffffffffffffffffffffffffffffffffffffff1681565b61130b614242565b818190508484905014611386576040517f08c379a000000000000000000000000000000000000000000000000000000000815260040180806020018281038252601b8152602001807f496e707574206172726179206c656e677468206d69736d61746368000000000081525060200191505060405180910390fd5b60008090505b8484905081101561150f5760008585838181106113a557fe5b9050604002016000600281106113b757fe5b6020020135905060008686848181106113cc57fe5b9050604002016001600281106113de57fe5b602002013590506113f982600b6142e990919063ffffffff16565b6115005761141182600b61435090919063ffffffff16565b80600d6000848152602001908152602001600020819055507f228eebae23ce843c98c840591345820f72bfe22ac0ba807deebe0ee7d467ebd3826040518082815260200191505060405180910390a1600560009054906101000a900473ffffffffffffffffffffffffffffffffffffffff1673ffffffffffffffffffffffffffffffffffffffff1663ed0391548686868181106114aa57fe5b905060200201356040518263ffffffff1660e01b815260040180828152602001915050600060405180830381600087803b1580156114e757600080fd5b505af11580156114fb573d6000803e3d6000fd5b505050505b5050808060010191505061138c565b5061151861226e565b50505050565b611526614242565b806010819055507f08f9599493340b8255c7698bded59e30079641f4a9531613ec020557392470046010546040518082815260200191505060405180910390a150565b600084849050600860000180549050146115865760009050611626565b60008090505b85859050811015611620576115bd8686838181106115a657fe5b9050602002013560086142e990919063ffffffff16565b6115cb576000915050611626565b8585828181106115d757fe5b90506020020135600a60008686858181106115ee57fe5b9050602002013581526020019081526020016000205414611613576000915050611626565b808060010191505061158c565b50600190505b949350505050565b611636614242565b80600160006101000a81548173ffffffffffffffffffffffffffffffffffffffff021916908373ffffffffffffffffffffffffffffffffffffffff1602179055507f906a1c6bd7e3091ea86693dd029a831c19049ce77f1dce2ce0bab1cacbabce2281604051808273ffffffffffffffffffffffffffffffffffffffff1673ffffffffffffffffffffffffffffffffffffffff16815260200191505060405180910390a150565b6116e5614242565b600360009054906101000a900460ff161515811515141561170557611787565b80600360006101000a81548160ff021916908315150217905550600360009054906101000a900460ff161561173c57426002819055505b7f8fb6c181ee25a520cf3dd6565006ef91229fcfe5a989566c2a3b8c115570cec5600360009054906101000a900460ff16604051808215151515815260200191505060405180910390a15b50565b600080606060086000018054806020026020016040519081016040528092919081815260200182805480156117de57602002820191906000526020600020905b8154815260200190600101908083116117ca575b50505050509050600081511115611b285760008090505b8151811015611b2657600061181c83838151811061180f57fe5b60200260200101516143b2565b73ffffffffffffffffffffffffffffffffffffffff1663dbd06c856040518163ffffffff1660e01b815260040160206040518083038186803b15801561186157600080fd5b505afa158015611875573d6000803e3d6000fd5b505050506040513d602081101561188b57600080fd5b810190808051906020019092919050505090507f705553440000000000000000000000000000000000000000000000000000000081141561198d57611986600560009054906101000a900473ffffffffffffffffffffffffffffffffffffffff1673ffffffffffffffffffffffffffffffffffffffff1663d2f00475836040518263ffffffff1660e01b81526004018082815260200191505060206040518083038186803b15801561193c57600080fd5b505afa158015611950573d6000803e3d6000fd5b505050506040513d602081101561196657600080fd5b8101908080519060200190929190505050866143c490919063ffffffff16565b9450611b18565b60008061199861444c565b73ffffffffffffffffffffffffffffffffffffffff16630c71cd23846040518263ffffffff1660e01b815260040180828152602001915050604080518083038186803b1580156119e757600080fd5b505afa1580156119fb573d6000803e3d6000fd5b505050506040513d6040811015611a1157600080fd5b810190808051906020019092919080519060200190929190505050915091506000611af283600560009054906101000a900473ffffffffffffffffffffffffffffffffffffffff1673ffffffffffffffffffffffffffffffffffffffff1663d2f00475876040518263ffffffff1660e01b81526004018082815260200191505060206040518083038186803b158015611aa957600080fd5b505afa158015611abd573d6000803e3d6000fd5b505050506040513d6020811015611ad357600080fd5b810190808051906020019092919050505061447c90919063ffffffff16565b9050611b0781896143c490919063ffffffff16565b97508115611b1457600196505b5050505b5080806001019150506117f5565b505b509091565b6000611b3833612e0a565b905080611bad576040517f08c379a00000000000000000000000000000000000000000000000000000000081526004018080602001828103825260198152602001807f4f6e6c7920636f6c6c61746572616c20636f6e7472616374730000000000000081525060200191505060405180910390fd5b600560009054906101000a900473ffffffffffffffffffffffffffffffffffffffff1673ffffffffffffffffffffffffffffffffffffffff16632462063984846040518363ffffffff1660e01b81526004018083815260200182815260200192505050600060405180830381600087803b158015611c2a57600080fd5b505af1158015611c3e573d6000803e3d6000fd5b50505050505050565b60006060611c53612750565b905060008090505b8151811015611e15576000828281518110611c7257fe5b602002602001015190506004600082815260200190815260200160002060009054906101000a900473ffffffffffffffffffffffffffffffffffffffff1673ffffffffffffffffffffffffffffffffffffffff16600360019054906101000a900473ffffffffffffffffffffffffffffffffffffffff1673ffffffffffffffffffffffffffffffffffffffff166321f8a721836040518263ffffffff1660e01b81526004018082815260200191505060206040518083038186803b158015611d3957600080fd5b505afa158015611d4d573d6000803e3d6000fd5b505050506040513d6020811015611d6357600080fd5b810190808051906020019092919050505073ffffffffffffffffffffffffffffffffffffffff16141580611df65750600073ffffffffffffffffffffffffffffffffffffffff166004600083815260200190815260200160002060009054906101000a900473ffffffffffffffffffffffffffffffffffffffff1673ffffffffffffffffffffffffffffffffffffffff16145b15611e075760009350505050611e1c565b508080600101915050611c5b565b5060019150505b90565b611e27614242565b60008090505b84849050811015611f0957611e5e858583818110611e4757fe5b9050602002013560086142e990919063ffffffff16565b15611efc57611e89858583818110611e7257fe5b9050602002013560086144a990919063ffffffff16565b600a6000848484818110611e9957fe5b905060200201358152602001908152602001600020600090557f7ff80d3b3127593365b40f9f83c5c8739a8d47febe308d40e9390839b5335cf1858583818110611edf57fe5b905060200201356040518082815260200191505060405180910390a15b8080600101915050611e2d565b5050505050565b60008060001b600a60008481526020019081526020016000205414159050919050565b60115481565b6000611f4433612e0a565b905080611fb9576040517f08c379a00000000000000000000000000000000000000000000000000000000081526004018080602001828103825260198152602001807f4f6e6c7920636f6c6c61746572616c20636f6e7472616374730000000000000081525060200191505060405180910390fd5b600560009054906101000a900473ffffffffffffffffffffffffffffffffffffffff1673ffffffffffffffffffffffffffffffffffffffff16635246f2b984846040518363ffffffff1660e01b81526004018083815260200182815260200192505050600060405180830381600087803b15801561203657600080fd5b505af115801561204a573d6000803e3d6000fd5b50505050505050565b600160009054906101000a900473ffffffffffffffffffffffffffffffffffffffff1681565b612081614242565b60008090505b84849050811015612157576120b88585838181106120a157fe5b9050602002013560086142e990919063ffffffff16565b61214a5760008585838181106120ca57fe5b9050602002013590506120e781600861435090919063ffffffff16565b80600a60008686868181106120f857fe5b905060200201358152602001908152602001600020819055507fab4de7cb0edc2a9cbd9d540b749091def16b96cfc8a28853eba7fd3d74f71840816040518082815260200191505060405180910390a1505b8080600101915050612087565b5050505050565b600360009054906101000a900460ff1681565b7f436f6c6c61746572616c4d616e6167657200000000000000000000000000000081565b61219d614242565b60008111612213576040517f08c379a00000000000000000000000000000000000000000000000000000000081526004018080602001828103825260168152602001807f4d7573742062652067726561746572207468616e20300000000000000000000081525060200191505060405180910390fd5b80600f819055507f3620cc91bd75c6d3d752b529a1b98b38789dd2b81a13ece55801abc83531a77f600f546040518082815260200191505060405180910390a150565b600d6020528060005260406000206000915090505481565b6060612278612750565b905060008090505b81518110156124d357600082828151811061229757fe5b602002602001015190506000600360019054906101000a900473ffffffffffffffffffffffffffffffffffffffff1673ffffffffffffffffffffffffffffffffffffffff1663dacb2d01838460405160200180807f5265736f6c766572206d697373696e67207461726765743a20000000000000008152506019018281526020019150506040516020818303038152906040526040518363ffffffff1660e01b81526004018083815260200180602001828103825283818151815260200191508051906020019080838360005b8381101561237f578082015181840152602081019050612364565b50505050905090810190601f1680156123ac5780820380516001836020036101000a031916815260200191505b50935050505060206040518083038186803b1580156123ca57600080fd5b505afa1580156123de573d6000803e3d6000fd5b505050506040513d60208110156123f457600080fd5b81019080805190602001909291905050509050806004600084815260200190815260200160002060006101000a81548173ffffffffffffffffffffffffffffffffffffffff021916908373ffffffffffffffffffffffffffffffffffffffff1602179055507f88a93678a3692f6789d9546fc621bf7234b101ddb7d4fe479455112831b8aa688282604051808381526020018273ffffffffffffffffffffffffffffffffffffffff1673ffffffffffffffffffffffffffffffffffffffff1681526020019250505060405180910390a150508080600101915050612280565b5050565b600080600090505b825181101561251f576125048382815181106124f757fe5b6020026020010151612e0a565b612512576000915050612525565b80806001019150506124df565b50600190505b919050565b600160009054906101000a900473ffffffffffffffffffffffffffffffffffffffff1673ffffffffffffffffffffffffffffffffffffffff163373ffffffffffffffffffffffffffffffffffffffff16146125d0576040517f08c379a0000000000000000000000000000000000000000000000000000000008152600401808060200182810382526035815260200180614e136035913960400191505060405180910390fd5b7fb532073b38c83145e3e5135377a08bf9aab55bc0fd7c1179cd4fb995d2a5159c6000809054906101000a900473ffffffffffffffffffffffffffffffffffffffff16600160009054906101000a900473ffffffffffffffffffffffffffffffffffffffff16604051808373ffffffffffffffffffffffffffffffffffffffff1673ffffffffffffffffffffffffffffffffffffffff1681526020018273ffffffffffffffffffffffffffffffffffffffff1673ffffffffffffffffffffffffffffffffffffffff1681526020019250505060405180910390a1600160009054906101000a900473ffffffffffffffffffffffffffffffffffffffff166000806101000a81548173ffffffffffffffffffffffffffffffffffffffff021916908373ffffffffffffffffffffffffffffffffffffffff1602179055506000600160006101000a81548173ffffffffffffffffffffffffffffffffffffffff021916908373ffffffffffffffffffffffffffffffffffffffff160217905550565b60608060026040519080825280602002602001820160405280156127835781602001602082028038833980820191505090505b5090507f4973737565720000000000000000000000000000000000000000000000000000816000815181106127b457fe5b6020026020010181815250507f45786368616e6765526174657300000000000000000000000000000000000000816001815181106127ee57fe5b60200260200101818152505060606000600b60000180549050905060008111156128df57600281026040519080825280602002602001820160405280156128445781602001602082028038833980820191505090505b50915060008090505b818110156128dd57600b600001818154811061286557fe5b906000526020600020015483828151811061287c57fe5b602002602001018181525050600d6000600b600001838154811061289c57fe5b906000526020600020015481526020019081526020016000205483838301815181106128c457fe5b602002602001018181525050808060010191505061284d565b505b606061293e83600860000180548060200260200160405190810160405280929190818152602001828054801561293457602002820191906000526020600020905b815481526020019060010190808311612920575b50505050506145ef565b905060008151111561295b5761295481856145ef565b945061295f565b8394505b5050505090565b61296e614242565b806011819055507fe2695216766f2a627e90e17041ac2f085fd60ea503345b039f815c69bcbcccc96011546040518082815260200191505060405180910390a150565b6000809054906101000a900473ffffffffffffffffffffffffffffffffffffffff1681565b60025481565b6129e4614242565b60008111612a5a576040517f08c379a00000000000000000000000000000000000000000000000000000000081526004018080602001828103825260168152602001807f4d7573742062652067726561746572207468616e20300000000000000000000081525060200191505060405180910390fd5b80600e8190555050565b6000806060600b600001805480602002602001604051908101604052809291908181526020018280548015612ab857602002820191906000526020600020905b815481526020019060010190808311612aa4575b50505050509050600081511115612d125760008090505b8151811015612d10576000612af6838381518110612ae957fe5b60200260200101516143b2565b73ffffffffffffffffffffffffffffffffffffffff1663dbd06c856040518163ffffffff1660e01b815260040160206040518083038186803b158015612b3b57600080fd5b505afa158015612b4f573d6000803e3d6000fd5b505050506040513d6020811015612b6557600080fd5b81019080805190602001909291905050509050600080612b8361444c565b73ffffffffffffffffffffffffffffffffffffffff16630c71cd23846040518263ffffffff1660e01b815260040180828152602001915050604080518083038186803b158015612bd257600080fd5b505afa158015612be6573d6000803e3d6000fd5b505050506040513d6040811015612bfc57600080fd5b810190808051906020019092919080519060200190929190505050915091506000612cdd83600560009054906101000a900473ffffffffffffffffffffffffffffffffffffffff1673ffffffffffffffffffffffffffffffffffffffff1663e32261fe876040518263ffffffff1660e01b81526004018082815260200191505060206040518083038186803b158015612c9457600080fd5b505afa158015612ca8573d6000803e3d6000fd5b505050506040513d6020811015612cbe57600080fd5b810190808051906020019092919050505061447c90919063ffffffff16565b9050612cf281896143c490919063ffffffff16565b97508115612cff57600196505b505050508080600101915050612acf565b505b509091565b600080600080600560009054906101000a900473ffffffffffffffffffffffffffffffffffffffff1673ffffffffffffffffffffffffffffffffffffffff1663af07aa9d87876040518363ffffffff1660e01b8152600401808381526020018281526020019250505060806040518083038186803b158015612d9857600080fd5b505afa158015612dac573d6000803e3d6000fd5b505050506040513d6080811015612dc257600080fd5b81019080805190602001909291908051906020019092919080519060200190929190805190602001909291905050508094508195508296508397505050505092959194509250565b6000612e208260066146c290919063ffffffff16565b9050919050565b600080612e3333612e0a565b905080612ea8576040517f08c379a00000000000000000000000000000000000000000000000000000000081526004018080602001828103825260198152602001807f4f6e6c7920636f6c6c61746572616c20636f6e7472616374730000000000000081525060200191505060405180910390fd5b600560009054906101000a900473ffffffffffffffffffffffffffffffffffffffff1673ffffffffffffffffffffffffffffffffffffffff16638c5825036040518163ffffffff1660e01b8152600401602060405180830381600087803b158015612f1257600080fd5b505af1158015612f26573d6000803e3d6000fd5b505050506040513d6020811015612f3c57600080fd5b810190808051906020019092919050505091505090565b6000806000612f6061444c565b73ffffffffffffffffffffffffffffffffffffffff1663654a60ac85877f70555344000000000000000000000000000000000000000000000000000000006040518463ffffffff1660e01b815260040180848152602001838152602001828152602001935050505060206040518083038186803b158015612fe057600080fd5b505afa158015612ff4573d6000803e3d6000fd5b505050506040513d602081101561300a57600080fd5b8101908080519060200190929190505050905060008061302861178a565b91509150600080613037612a64565b9150915082806130445750805b9550600f5461306e8661306085886143c490919063ffffffff16565b6143c490919063ffffffff16565b1115869650965050505050509250929050565b600080600061308e6147a1565b73ffffffffffffffffffffffffffffffffffffffff1663f023e8db7f705553440000000000000000000000000000000000000000000000000000000060016040518363ffffffff1660e01b815260040180838152602001821515151581526020019250505060206040518083038186803b15801561310b57600080fd5b505afa15801561311f573d6000803e3d6000fd5b505050506040513d602081101561313557600080fd5b8101908080519060200190929190505050905060008061315361178a565b91509150600061316c83856143c490919063ffffffff16565b905060006131a06a1a1a7062e5185d7e38000061319284876147d190919063ffffffff16565b6147d190919063ffffffff16565b905060006131b9600e548361447c90919063ffffffff16565b90506131d0601054826143c490919063ffffffff16565b97508396505050505050509091565b6131e7614242565b60008090505b8282905081101561330d5761323483838381811061320757fe5b9050602002013573ffffffffffffffffffffffffffffffffffffffff1660066146c290919063ffffffff16565b6133005761327483838381811061324757fe5b9050602002013573ffffffffffffffffffffffffffffffffffffffff16600661480790919063ffffffff16565b7f7db05e63d635a68c62fd7fd8f3107ae8ab584a383e102d1bd8a40f4c977e465f8383838181106132a157fe5b9050602002013573ffffffffffffffffffffffffffffffffffffffff16604051808273ffffffffffffffffffffffffffffffffffffffff1673ffffffffffffffffffffffffffffffffffffffff16815260200191505060405180910390a15b80806001019150506131ed565b505050565b60105481565b600560009054906101000a900473ffffffffffffffffffffffffffffffffffffffff1681565b600e5481565b61334c614242565b60008090505b8282905081101561355b5761338383838381811061336c57fe5b90506020020135600b6142e990919063ffffffff16565b1561354e576133ae83838381811061339757fe5b90506020020135600b6144a990919063ffffffff16565b60006133cb8484848181106133bf57fe5b905060200201356143b2565b73ffffffffffffffffffffffffffffffffffffffff1663dbd06c856040518163ffffffff1660e01b815260040160206040518083038186803b15801561341057600080fd5b505afa158015613424573d6000803e3d6000fd5b505050506040513d602081101561343a57600080fd5b81019080805190602001909291905050509050600560009054906101000a900473ffffffffffffffffffffffffffffffffffffffff1673ffffffffffffffffffffffffffffffffffffffff16636431e0bd826040518263ffffffff1660e01b815260040180828152602001915050600060405180830381600087803b1580156134c257600080fd5b505af11580156134d6573d6000803e3d6000fd5b50505050600d60008585858181106134ea57fe5b905060200201358152602001908152602001600020600090557fc82c7ce2215189b78c42565fd1d25136f008aab037634d9db1f1b801ac02524884848481811061353057fe5b905060200201356040518082815260200191505060405180910390a1505b8080600101915050613352565b505050565b600a6020528060005260406000206000915090505481565b600f5481565b6000600560009054906101000a900473ffffffffffffffffffffffffffffffffffffffff1673ffffffffffffffffffffffffffffffffffffffff1663d2f00475836040518263ffffffff1660e01b81526004018082815260200191505060206040518083038186803b1580156135f357600080fd5b505afa158015613607573d6000803e3d6000fd5b505050506040513d602081101561361d57600080fd5b81019080805190602001909291905050509050919050565b600061364033612e0a565b9050806136b5576040517f08c379a00000000000000000000000000000000000000000000000000000000081526004018080602001828103825260198152602001807f4f6e6c7920636f6c6c61746572616c20636f6e7472616374730000000000000081525060200191505060405180910390fd5b600560009054906101000a900473ffffffffffffffffffffffffffffffffffffffff1673ffffffffffffffffffffffffffffffffffffffff1663e31f27c184846040518363ffffffff1660e01b81526004018083815260200182815260200192505050600060405180830381600087803b15801561373257600080fd5b505af1158015613746573d6000803e3d6000fd5b50505050505050565b6000600560009054906101000a900473ffffffffffffffffffffffffffffffffffffffff1673ffffffffffffffffffffffffffffffffffffffff1663e32261fe836040518263ffffffff1660e01b81526004018082815260200191505060206040518083038186803b1580156137c457600080fd5b505afa1580156137d8573d6000803e3d6000fd5b505050506040513d60208110156137ee57600080fd5b81019080805190602001909291905050509050919050565b600061381133612e0a565b905080613886576040517f08c379a00000000000000000000000000000000000000000000000000000000081526004018080602001828103825260198152602001807f4f6e6c7920636f6c6c61746572616c20636f6e7472616374730000000000000081525060200191505060405180910390fd5b600560009054906101000a900473ffffffffffffffffffffffffffffffffffffffff1673ffffffffffffffffffffffffffffffffffffffff1663e50a31b384846040518363ffffffff1660e01b81526004018083815260200182815260200192505050600060405180830381600087803b15801561390357600080fd5b505af1158015613917573d6000803e3d6000fd5b50505050505050565b600061392b33612e0a565b9050806139a0576040517f08c379a00000000000000000000000000000000000000000000000000000000081526004018080602001828103825260198152602001807f4f6e6c7920636f6c6c61746572616c20636f6e7472616374730000000000000081525060200191505060405180910390fd5b600560009054906101000a900473ffffffffffffffffffffffffffffffffffffffff1673ffffffffffffffffffffffffffffffffffffffff1663eb94bbde84846040518363ffffffff1660e01b81526004018083815260200182815260200192505050600060405180830381600087803b158015613a1d57600080fd5b505af1158015613a31573d6000803e3d6000fd5b50505050505050565b6000806000613a48846143b2565b73ffffffffffffffffffffffffffffffffffffffff1663dbd06c856040518163ffffffff1660e01b815260040160206040518083038186803b158015613a8d57600080fd5b505afa158015613aa1573d6000803e3d6000fd5b505050506040513d6020811015613ab757600080fd5b81019080805190602001909291905050509050613ad261444c565b73ffffffffffffffffffffffffffffffffffffffff16632528f0fe826040518263ffffffff1660e01b81526004018082815260200191505060206040518083038186803b158015613b2257600080fd5b505afa158015613b36573d6000803e3d6000fd5b505050506040513d6020811015613b4c57600080fd5b810190808051906020019092919050505091506000613b6a856143b2565b73ffffffffffffffffffffffffffffffffffffffff166318160ddd6040518163ffffffff1660e01b815260040160206040518083038186803b158015613baf57600080fd5b505afa158015613bc3573d6000803e3d6000fd5b505050506040513d6020811015613bd957600080fd5b810190808051906020019092919050505090506000613c0a600d6000888152602001908152602001600020546143b2565b73ffffffffffffffffffffffffffffffffffffffff166318160ddd6040518163ffffffff1660e01b815260040160206040518083038186803b158015613c4f57600080fd5b505afa158015613c63573d6000803e3d6000fd5b505050506040513d6020811015613c7957600080fd5b810190808051906020019092919050505090506000613d4e82600560009054906101000a900473ffffffffffffffffffffffffffffffffffffffff1673ffffffffffffffffffffffffffffffffffffffff1663e32261fe876040518263ffffffff1660e01b81526004018082815260200191505060206040518083038186803b158015613d0557600080fd5b505afa158015613d19573d6000803e3d6000fd5b505050506040513d6020811015613d2f57600080fd5b81019080805190602001909291905050506143c490919063ffffffff16565b905080831115613d6b576000858191509550955050505050613de6565b6000613d8084836148cf90919063ffffffff16565b90506000613dc66a1a1a7062e5185d7e380000613db8613da986896143c490919063ffffffff16565b856147d190919063ffffffff16565b6147d190919063ffffffff16565b9050613ddd601154826143c490919063ffffffff16565b97505050505050505b915091565b6000613df633612e0a565b905080613e6b576040517f08c379a00000000000000000000000000000000000000000000000000000000081526004018080602001828103825260198152602001807f4f6e6c7920636f6c6c61746572616c20636f6e7472616374730000000000000081525060200191505060405180910390fd5b600560009054906101000a900473ffffffffffffffffffffffffffffffffffffffff1673ffffffffffffffffffffffffffffffffffffffff1663f53037b6836040518263ffffffff1660e01b815260040180828152602001915050600060405180830381600087803b158015613ee057600080fd5b505af1158015613ef4573d6000803e3d6000fd5b505050505050565b6000828290508585905014613f79576040517f08c379a000000000000000000000000000000000000000000000000000000000815260040180806020018281038252601b8152602001807f496e707574206172726179206c656e677468206d69736d61746368000000000081525060200191505060405180910390fd5b84849050600b6000018054905014613f945760009050614106565b60008090505b8585905081101561400f576000868683818110613fb357fe5b905060200201359050613fd081600b6142e990919063ffffffff16565b1580613ff157506000801b600d600083815260200190815260200160002054145b1561400157600092505050614106565b508080600101915050613f9a565b5060008090505b83839050811015614100576000600560009054906101000a900473ffffffffffffffffffffffffffffffffffffffff1673ffffffffffffffffffffffffffffffffffffffff1663a0356f6e86868581811061406d57fe5b905060200201356040518263ffffffff1660e01b81526004018082815260200191505060206040518083038186803b1580156140a857600080fd5b505afa1580156140bc573d6000803e3d6000fd5b505050506040513d60208110156140d257600080fd5b810190808051906020019092919050505014156140f3576000915050614106565b8080600101915050614016565b50600190505b949350505050565b614116614242565b60008090505b8282905081101561423d5761416383838381811061413657fe5b9050602002013573ffffffffffffffffffffffffffffffffffffffff1660066146c290919063ffffffff16565b15614230576141a483838381811061417757fe5b9050602002013573ffffffffffffffffffffffffffffffffffffffff16600661495890919063ffffffff16565b7fd89d2ee68ab04dca0193f48a4aff55e20fa5ec0429a8a8c1c51b8dad6178a5938383838181106141d157fe5b9050602002013573ffffffffffffffffffffffffffffffffffffffff16604051808273ffffffffffffffffffffffffffffffffffffffff1673ffffffffffffffffffffffffffffffffffffffff16815260200191505060405180910390a15b808060010191505061411c565b505050565b6000809054906101000a900473ffffffffffffffffffffffffffffffffffffffff1673ffffffffffffffffffffffffffffffffffffffff163373ffffffffffffffffffffffffffffffffffffffff16146142e7576040517f08c379a000000000000000000000000000000000000000000000000000000000815260040180806020018281038252602f815260200180614e48602f913960400191505060405180910390fd5b565b60008083600001805490501415614303576000905061434a565b60008360010160008481526020019081526020016000205490506000811415806143465750828460000160008154811061433957fe5b9060005260206000200154145b9150505b92915050565b61435a82826142e9565b6143ae57816000018054905082600101600083815260200190815260200160002081905550816000018190806001815401808255809150509060018203906000526020600020016000909192909190915055505b5050565b60006143bd82614b9b565b9050919050565b600080828401905083811015614442576040517f08c379a000000000000000000000000000000000000000000000000000000000815260040180806020018281038252601b8152602001807f536166654d6174683a206164646974696f6e206f766572666c6f77000000000081525060200191505060405180910390fd5b8091505092915050565b60006144777f45786368616e6765526174657300000000000000000000000000000000000000614b9b565b905090565b6000601260ff16600a0a6144998385614cfd90919063ffffffff16565b816144a057fe5b04905092915050565b6144b382826142e9565b614525576040517f08c379a00000000000000000000000000000000000000000000000000000000081526004018080602001828103825260138152602001807f456c656d656e74206e6f7420696e207365742e0000000000000000000000000081525060200191505060405180910390fd5b60008260010160008381526020019081526020016000205490506000600184600001805490500390508082146145ad57600084600001828154811061456657fe5b906000526020600020015490508085600001848154811061458357fe5b90600052602060002001819055508285600101600083815260200190815260200160002081905550505b836000018054806145ba57fe5b600190038181906000526020600020016000905590558360010160008481526020019081526020016000206000905550505050565b606081518351016040519080825280602002602001820160405280156146245781602001602082028038833980820191505090505b50905060008090505b835181101561466f5783818151811061464257fe5b602002602001015182828151811061465657fe5b602002602001018181525050808060010191505061462d565b5060008090505b82518110156146bb5782818151811061468b57fe5b60200260200101518282865101815181106146a257fe5b6020026020010181815250508080600101915050614676565b5092915050565b600080836000018054905014156146dc576000905061479b565b60008360010160008473ffffffffffffffffffffffffffffffffffffffff1673ffffffffffffffffffffffffffffffffffffffff16815260200190815260200160002054905060008114158061479757508273ffffffffffffffffffffffffffffffffffffffff168460000160008154811061475457fe5b9060005260206000200160009054906101000a900473ffffffffffffffffffffffffffffffffffffffff1673ffffffffffffffffffffffffffffffffffffffff16145b9150505b92915050565b60006147cc7f4973737565720000000000000000000000000000000000000000000000000000614b9b565b905090565b60006147ff826147f1601260ff16600a0a86614cfd90919063ffffffff16565b614d8390919063ffffffff16565b905092915050565b61481182826146c2565b6148cb5781600001805490508260010160008373ffffffffffffffffffffffffffffffffffffffff1673ffffffffffffffffffffffffffffffffffffffff16815260200190815260200160002081905550816000018190806001815401808255809150509060018203906000526020600020016000909192909190916101000a81548173ffffffffffffffffffffffffffffffffffffffff021916908373ffffffffffffffffffffffffffffffffffffffff160217905550505b5050565b600082821115614947576040517f08c379a000000000000000000000000000000000000000000000000000000000815260040180806020018281038252601e8152602001807f536166654d6174683a207375627472616374696f6e206f766572666c6f77000081525060200191505060405180910390fd5b600082840390508091505092915050565b61496282826146c2565b6149d4576040517f08c379a00000000000000000000000000000000000000000000000000000000081526004018080602001828103825260138152602001807f456c656d656e74206e6f7420696e207365742e0000000000000000000000000081525060200191505060405180910390fd5b60008260010160008373ffffffffffffffffffffffffffffffffffffffff1673ffffffffffffffffffffffffffffffffffffffff168152602001908152602001600020549050600060018460000180549050039050808214614b0e576000846000018281548110614a4157fe5b9060005260206000200160009054906101000a900473ffffffffffffffffffffffffffffffffffffffff16905080856000018481548110614a7e57fe5b9060005260206000200160006101000a81548173ffffffffffffffffffffffffffffffffffffffff021916908373ffffffffffffffffffffffffffffffffffffffff160217905550828560010160008373ffffffffffffffffffffffffffffffffffffffff1673ffffffffffffffffffffffffffffffffffffffff16815260200190815260200160002081905550505b83600001805480614b1b57fe5b6001900381819060005260206000200160006101000a81549073ffffffffffffffffffffffffffffffffffffffff021916905590558360010160008473ffffffffffffffffffffffffffffffffffffffff1673ffffffffffffffffffffffffffffffffffffffff1681526020019081526020016000206000905550505050565b6000806004600084815260200190815260200160002060009054906101000a900473ffffffffffffffffffffffffffffffffffffffff169050600073ffffffffffffffffffffffffffffffffffffffff168173ffffffffffffffffffffffffffffffffffffffff1614158360405160200180807f4d697373696e6720616464726573733a2000000000000000000000000000000081525060110182815260200191505060405160208183030381529060405290614cf3576040517f08c379a00000000000000000000000000000000000000000000000000000000081526004018080602001828103825283818151815260200191508051906020019080838360005b83811015614cb8578082015181840152602081019050614c9d565b50505050905090810190601f168015614ce55780820380516001836020036101000a031916815260200191505b509250505060405180910390fd5b5080915050919050565b600080831415614d105760009050614d7d565b6000828402905082848281614d2157fe5b0414614d78576040517f08c379a0000000000000000000000000000000000000000000000000000000008152600401808060200182810382526021815260200180614e776021913960400191505060405180910390fd5b809150505b92915050565b6000808211614dfa576040517f08c379a000000000000000000000000000000000000000000000000000000000815260040180806020018281038252601a8152602001807f536166654d6174683a206469766973696f6e206279207a65726f00000000000081525060200191505060405180910390fd5b6000828481614e0557fe5b049050809150509291505056fe596f75206d757374206265206e6f6d696e61746564206265666f726520796f752063616e20616363657074206f776e6572736869704f6e6c792074686520636f6e7472616374206f776e6572206d617920706572666f726d207468697320616374696f6e536166654d6174683a206d756c7469706c69636174696f6e206f766572666c6f77a265627a7a723158209f2cebbdf712007d41686f0f78053f9e300f2ba0eaeca64ea2d5cb908974617264736f6c634300051000324f6e6c792074686520636f6e7472616374206f776e6572206d617920706572666f726d207468697320616374696f6e",
  "linkReferences": {},
  "deployedLinkReferences": {}
}