{
  "_format": "hh-sol-artifact-1",
  "contractName": "CollateralEth",
  "sourceName": "contracts/CollateralEth.sol",
  "abi": [
    {
      "inputs": [
        {
          "internalType": "contract CollateralState",
          "name": "_state",
          "type": "address"
        },
        {
          "internalType": "address",
          "name": "_owner",
          "type": "address"
        },
        {
          "internalType": "address",
          "name": "_manager",
          "type": "address"
        },
        {
          "internalType": "address",
          "name": "_resolver",
          "type": "address"
        },
        {
          "internalType": "bytes32",
          "name": "_collateralKey",
          "type": "bytes32"
        },
        {
          "internalType": "uint256",
          "name": "_minCratio",
          "type": "uint256"
        },
        {
          "internalType": "uint256",
          "name": "_minCollateral",
          "type": "uint256"
        }
      ],
      "payable": false,
      "stateMutability": "nonpayable",
      "type": "constructor"
    },
    {
      "anonymous": false,
      "inputs": [
        {
          "indexed": false,
          "internalType": "bytes32",
          "name": "name",
          "type": "bytes32"
        },
        {
          "indexed": false,
          "internalType": "address",
          "name": "destination",
          "type": "address"
        }
      ],
      "name": "CacheUpdated",
      "type": "event"
    },
    {
      "anonymous": false,
      "inputs": [
        {
          "indexed": false,
          "internalType": "bool",
          "name": "canOpenLoans",
          "type": "bool"
        }
      ],
      "name": "CanOpenLoansUpdated",
      "type": "event"
    },
    {
      "anonymous": false,
      "inputs": [
        {
          "indexed": true,
          "internalType": "address",
          "name": "account",
          "type": "address"
        },
        {
          "indexed": false,
          "internalType": "uint256",
          "name": "id",
          "type": "uint256"
        },
        {
          "indexed": false,
          "internalType": "uint256",
          "name": "amountDeposited",
          "type": "uint256"
        },
        {
          "indexed": false,
          "internalType": "uint256",
          "name": "collateralAfter",
          "type": "uint256"
        }
      ],
      "name": "CollateralDeposited",
      "type": "event"
    },
    {
      "anonymous": false,
      "inputs": [
        {
          "indexed": true,
          "internalType": "address",
          "name": "account",
          "type": "address"
        },
        {
          "indexed": false,
          "internalType": "uint256",
          "name": "id",
          "type": "uint256"
        },
        {
          "indexed": false,
          "internalType": "uint256",
          "name": "amountWithdrawn",
          "type": "uint256"
        },
        {
          "indexed": false,
          "internalType": "uint256",
          "name": "collateralAfter",
          "type": "uint256"
        }
      ],
      "name": "CollateralWithdrawn",
      "type": "event"
    },
    {
      "anonymous": false,
      "inputs": [
        {
          "indexed": false,
          "internalType": "uint256",
          "name": "interactionDelay",
          "type": "uint256"
        }
      ],
      "name": "InteractionDelayUpdated",
      "type": "event"
    },
    {
      "anonymous": false,
      "inputs": [
        {
          "indexed": false,
          "internalType": "uint256",
          "name": "issueFeeRate",
          "type": "uint256"
        }
      ],
      "name": "IssueFeeRateUpdated",
      "type": "event"
    },
    {
      "anonymous": false,
      "inputs": [
        {
          "indexed": true,
          "internalType": "address",
          "name": "account",
          "type": "address"
        },
        {
          "indexed": false,
          "internalType": "uint256",
          "name": "id",
          "type": "uint256"
        }
      ],
      "name": "LoanClosed",
      "type": "event"
    },
    {
      "anonymous": false,
      "inputs": [
        {
          "indexed": true,
          "internalType": "address",
          "name": "account",
          "type": "address"
        },
        {
          "indexed": false,
          "internalType": "uint256",
          "name": "id",
          "type": "uint256"
        },
        {
          "indexed": true,
          "internalType": "address",
          "name": "liquidator",
          "type": "address"
        },
        {
          "indexed": false,
          "internalType": "uint256",
          "name": "amountLiquidated",
          "type": "uint256"
        },
        {
          "indexed": false,
          "internalType": "uint256",
          "name": "collateralLiquidated",
          "type": "uint256"
        }
      ],
      "name": "LoanClosedByLiquidation",
      "type": "event"
    },
    {
      "anonymous": false,
      "inputs": [
        {
          "indexed": true,
          "internalType": "address",
          "name": "account",
          "type": "address"
        },
        {
          "indexed": false,
          "internalType": "uint256",
          "name": "id",
          "type": "uint256"
        },
        {
          "indexed": false,
          "internalType": "uint256",
          "name": "amount",
          "type": "uint256"
        },
        {
          "indexed": false,
          "internalType": "uint256",
          "name": "collateral",
          "type": "uint256"
        },
        {
          "indexed": false,
          "internalType": "bytes32",
          "name": "currency",
          "type": "bytes32"
        },
        {
          "indexed": false,
          "internalType": "uint256",
          "name": "issuanceFee",
          "type": "uint256"
        }
      ],
      "name": "LoanCreated",
      "type": "event"
    },
    {
      "anonymous": false,
      "inputs": [
        {
          "indexed": true,
          "internalType": "address",
          "name": "account",
          "type": "address"
        },
        {
          "indexed": false,
          "internalType": "uint256",
          "name": "id",
          "type": "uint256"
        },
        {
          "indexed": false,
          "internalType": "uint256",
          "name": "amount",
          "type": "uint256"
        }
      ],
      "name": "LoanDrawnDown",
      "type": "event"
    },
    {
      "anonymous": false,
      "inputs": [
        {
          "indexed": true,
          "internalType": "address",
          "name": "account",
          "type": "address"
        },
        {
          "indexed": false,
          "internalType": "uint256",
          "name": "id",
          "type": "uint256"
        },
        {
          "indexed": false,
          "internalType": "address",
          "name": "liquidator",
          "type": "address"
        },
        {
          "indexed": false,
          "internalType": "uint256",
          "name": "amountLiquidated",
          "type": "uint256"
        },
        {
          "indexed": false,
          "internalType": "uint256",
          "name": "collateralLiquidated",
          "type": "uint256"
        }
      ],
      "name": "LoanPartiallyLiquidated",
      "type": "event"
    },
    {
      "anonymous": false,
      "inputs": [
        {
          "indexed": true,
          "internalType": "address",
          "name": "account",
          "type": "address"
        },
        {
          "indexed": true,
          "internalType": "address",
          "name": "repayer",
          "type": "address"
        },
        {
          "indexed": false,
          "internalType": "uint256",
          "name": "id",
          "type": "uint256"
        },
        {
          "indexed": false,
          "internalType": "uint256",
          "name": "amountRepaid",
          "type": "uint256"
        },
        {
          "indexed": false,
          "internalType": "uint256",
          "name": "amountAfter",
          "type": "uint256"
        }
      ],
      "name": "LoanRepaymentMade",
      "type": "event"
    },
    {
      "anonymous": false,
      "inputs": [
        {
          "indexed": false,
          "internalType": "address",
          "name": "manager",
          "type": "address"
        }
      ],
      "name": "ManagerUpdated",
      "type": "event"
    },
    {
      "anonymous": false,
      "inputs": [
        {
          "indexed": false,
          "internalType": "uint256",
          "name": "maxLoansPerAccount",
          "type": "uint256"
        }
      ],
      "name": "MaxLoansPerAccountUpdated",
      "type": "event"
    },
    {
      "anonymous": false,
      "inputs": [
        {
          "indexed": false,
          "internalType": "uint256",
          "name": "minCollateral",
          "type": "uint256"
        }
      ],
      "name": "MinCollateralUpdated",
      "type": "event"
    },
    {
      "anonymous": false,
      "inputs": [
        {
          "indexed": false,
          "internalType": "uint256",
          "name": "minCratio",
          "type": "uint256"
        }
      ],
      "name": "MinCratioRatioUpdated",
      "type": "event"
    },
    {
      "anonymous": false,
      "inputs": [
        {
          "indexed": false,
          "internalType": "address",
          "name": "oldOwner",
          "type": "address"
        },
        {
          "indexed": false,
          "internalType": "address",
          "name": "newOwner",
          "type": "address"
        }
      ],
      "name": "OwnerChanged",
      "type": "event"
    },
    {
      "anonymous": false,
      "inputs": [
        {
          "indexed": false,
          "internalType": "address",
          "name": "newOwner",
          "type": "address"
        }
      ],
      "name": "OwnerNominated",
      "type": "event"
    },
    {
      "constant": false,
      "inputs": [],
      "name": "acceptOwnership",
      "outputs": [],
      "payable": false,
      "stateMutability": "nonpayable",
      "type": "function"
    },
    {
      "constant": false,
      "inputs": [
        {
          "internalType": "bytes32[]",
          "name": "_pynthNamesInResolver",
          "type": "bytes32[]"
        },
        {
          "internalType": "bytes32[]",
          "name": "_pynthKeys",
          "type": "bytes32[]"
        }
      ],
      "name": "addPynths",
      "outputs": [],
      "payable": false,
      "stateMutability": "nonpayable",
      "type": "function"
    },
    {
      "constant": false,
      "inputs": [
        {
          "internalType": "address",
          "name": "rewardsContract",
          "type": "address"
        },
        {
          "internalType": "bytes32",
          "name": "pynth",
          "type": "bytes32"
        }
      ],
      "name": "addRewardsContracts",
      "outputs": [],
      "payable": false,
      "stateMutability": "nonpayable",
      "type": "function"
    },
    {
      "constant": true,
      "inputs": [
        {
          "internalType": "bytes32[]",
          "name": "_pynthNamesInResolver",
          "type": "bytes32[]"
        },
        {
          "internalType": "bytes32[]",
          "name": "_pynthKeys",
          "type": "bytes32[]"
        }
      ],
      "name": "arePynthsAndCurrenciesSet",
      "outputs": [
        {
          "internalType": "bool",
          "name": "",
          "type": "bool"
        }
      ],
      "payable": false,
      "stateMutability": "view",
      "type": "function"
    },
    {
      "constant": true,
      "inputs": [],
      "name": "canOpenLoans",
      "outputs": [
        {
          "internalType": "bool",
          "name": "",
          "type": "bool"
        }
      ],
      "payable": false,
      "stateMutability": "view",
      "type": "function"
    },
    {
      "constant": false,
      "inputs": [
        {
          "internalType": "uint256",
          "name": "amount",
          "type": "uint256"
        }
      ],
      "name": "claim",
      "outputs": [],
      "payable": false,
      "stateMutability": "nonpayable",
      "type": "function"
    },
    {
      "constant": false,
      "inputs": [
        {
          "internalType": "uint256",
          "name": "id",
          "type": "uint256"
        }
      ],
      "name": "close",
      "outputs": [],
      "payable": false,
      "stateMutability": "nonpayable",
      "type": "function"
    },
    {
      "constant": true,
      "inputs": [],
      "name": "collateralKey",
      "outputs": [
        {
          "internalType": "bytes32",
          "name": "",
          "type": "bytes32"
        }
      ],
      "payable": false,
      "stateMutability": "view",
      "type": "function"
    },
    {
      "constant": true,
      "inputs": [
        {
          "components": [
            {
              "internalType": "uint256",
              "name": "id",
              "type": "uint256"
            },
            {
              "internalType": "address payable",
              "name": "account",
              "type": "address"
            },
            {
              "internalType": "uint256",
              "name": "collateral",
              "type": "uint256"
            },
            {
              "internalType": "bytes32",
              "name": "currency",
              "type": "bytes32"
            },
            {
              "internalType": "uint256",
              "name": "amount",
              "type": "uint256"
            },
            {
              "internalType": "bool",
              "name": "short",
              "type": "bool"
            },
            {
              "internalType": "uint256",
              "name": "accruedInterest",
              "type": "uint256"
            },
            {
              "internalType": "uint256",
              "name": "interestIndex",
              "type": "uint256"
            },
            {
              "internalType": "uint256",
              "name": "lastInteraction",
              "type": "uint256"
            }
          ],
          "internalType": "struct ICollateralLoan.Loan",
          "name": "loan",
          "type": "tuple"
        }
      ],
      "name": "collateralRatio",
      "outputs": [
        {
          "internalType": "uint256",
          "name": "cratio",
          "type": "uint256"
        }
      ],
      "payable": false,
      "stateMutability": "view",
      "type": "function"
    },
    {
      "constant": true,
      "inputs": [
        {
          "internalType": "bytes32",
          "name": "currency",
          "type": "bytes32"
        },
        {
          "internalType": "uint256",
          "name": "amount",
          "type": "uint256"
        }
      ],
      "name": "collateralRedeemed",
      "outputs": [
        {
          "internalType": "uint256",
          "name": "collateral",
          "type": "uint256"
        }
      ],
      "payable": false,
      "stateMutability": "view",
      "type": "function"
    },
    {
      "constant": false,
      "inputs": [
        {
          "internalType": "address",
          "name": "borrower",
          "type": "address"
        },
        {
          "internalType": "uint256",
          "name": "id",
          "type": "uint256"
        }
      ],
      "name": "deposit",
      "outputs": [],
      "payable": true,
      "stateMutability": "payable",
      "type": "function"
    },
    {
      "constant": false,
      "inputs": [
        {
          "internalType": "uint256",
          "name": "id",
          "type": "uint256"
        },
        {
          "internalType": "uint256",
          "name": "amount",
          "type": "uint256"
        }
      ],
      "name": "draw",
      "outputs": [],
      "payable": false,
      "stateMutability": "nonpayable",
      "type": "function"
    },
    {
      "constant": true,
      "inputs": [],
      "name": "interactionDelay",
      "outputs": [
        {
          "internalType": "uint256",
          "name": "",
          "type": "uint256"
        }
      ],
      "payable": false,
      "stateMutability": "view",
      "type": "function"
    },
    {
      "constant": true,
      "inputs": [],
      "name": "isResolverCached",
      "outputs": [
        {
          "internalType": "bool",
          "name": "",
          "type": "bool"
        }
      ],
      "payable": false,
      "stateMutability": "view",
      "type": "function"
    },
    {
      "constant": true,
      "inputs": [],
      "name": "issueFeeRate",
      "outputs": [
        {
          "internalType": "uint256",
          "name": "",
          "type": "uint256"
        }
      ],
      "payable": false,
      "stateMutability": "view",
      "type": "function"
    },
    {
      "constant": false,
      "inputs": [
        {
          "internalType": "address",
          "name": "borrower",
          "type": "address"
        },
        {
          "internalType": "uint256",
          "name": "id",
          "type": "uint256"
        },
        {
          "internalType": "uint256",
          "name": "amount",
          "type": "uint256"
        }
      ],
      "name": "liquidate",
      "outputs": [],
      "payable": false,
      "stateMutability": "nonpayable",
      "type": "function"
    },
    {
      "constant": true,
      "inputs": [
        {
          "components": [
            {
              "internalType": "uint256",
              "name": "id",
              "type": "uint256"
            },
            {
              "internalType": "address payable",
              "name": "account",
              "type": "address"
            },
            {
              "internalType": "uint256",
              "name": "collateral",
              "type": "uint256"
            },
            {
              "internalType": "bytes32",
              "name": "currency",
              "type": "bytes32"
            },
            {
              "internalType": "uint256",
              "name": "amount",
              "type": "uint256"
            },
            {
              "internalType": "bool",
              "name": "short",
              "type": "bool"
            },
            {
              "internalType": "uint256",
              "name": "accruedInterest",
              "type": "uint256"
            },
            {
              "internalType": "uint256",
              "name": "interestIndex",
              "type": "uint256"
            },
            {
              "internalType": "uint256",
              "name": "lastInteraction",
              "type": "uint256"
            }
          ],
          "internalType": "struct ICollateralLoan.Loan",
          "name": "loan",
          "type": "tuple"
        }
      ],
      "name": "liquidationAmount",
      "outputs": [
        {
          "internalType": "uint256",
          "name": "amount",
          "type": "uint256"
        }
      ],
      "payable": false,
      "stateMutability": "view",
      "type": "function"
    },
    {
      "constant": true,
      "inputs": [],
      "name": "manager",
      "outputs": [
        {
          "internalType": "address",
          "name": "",
          "type": "address"
        }
      ],
      "payable": false,
      "stateMutability": "view",
      "type": "function"
    },
    {
      "constant": true,
      "inputs": [
        {
          "internalType": "uint256",
          "name": "amount",
          "type": "uint256"
        },
        {
          "internalType": "bytes32",
          "name": "currency",
          "type": "bytes32"
        }
      ],
      "name": "maxLoan",
      "outputs": [
        {
          "internalType": "uint256",
          "name": "max",
          "type": "uint256"
        }
      ],
      "payable": false,
      "stateMutability": "view",
      "type": "function"
    },
    {
      "constant": true,
      "inputs": [],
      "name": "maxLoansPerAccount",
      "outputs": [
        {
          "internalType": "uint256",
          "name": "",
          "type": "uint256"
        }
      ],
      "payable": false,
      "stateMutability": "view",
      "type": "function"
    },
    {
      "constant": true,
      "inputs": [],
      "name": "minCollateral",
      "outputs": [
        {
          "internalType": "uint256",
          "name": "",
          "type": "uint256"
        }
      ],
      "payable": false,
      "stateMutability": "view",
      "type": "function"
    },
    {
      "constant": true,
      "inputs": [],
      "name": "minCratio",
      "outputs": [
        {
          "internalType": "uint256",
          "name": "",
          "type": "uint256"
        }
      ],
      "payable": false,
      "stateMutability": "view",
      "type": "function"
    },
    {
      "constant": false,
      "inputs": [
        {
          "internalType": "address",
          "name": "_owner",
          "type": "address"
        }
      ],
      "name": "nominateNewOwner",
      "outputs": [],
      "payable": false,
      "stateMutability": "nonpayable",
      "type": "function"
    },
    {
      "constant": true,
      "inputs": [],
      "name": "nominatedOwner",
      "outputs": [
        {
          "internalType": "address",
          "name": "",
          "type": "address"
        }
      ],
      "payable": false,
      "stateMutability": "view",
      "type": "function"
    },
    {
      "constant": false,
      "inputs": [
        {
          "internalType": "uint256",
          "name": "amount",
          "type": "uint256"
        },
        {
          "internalType": "bytes32",
          "name": "currency",
          "type": "bytes32"
        }
      ],
      "name": "open",
      "outputs": [],
      "payable": true,
      "stateMutability": "payable",
      "type": "function"
    },
    {
      "constant": true,
      "inputs": [],
      "name": "owner",
      "outputs": [
        {
          "internalType": "address",
          "name": "",
          "type": "address"
        }
      ],
      "payable": false,
      "stateMutability": "view",
      "type": "function"
    },
    {
      "constant": true,
      "inputs": [
        {
          "internalType": "address",
          "name": "",
          "type": "address"
        }
      ],
      "name": "pendingWithdrawals",
      "outputs": [
        {
          "internalType": "uint256",
          "name": "",
          "type": "uint256"
        }
      ],
      "payable": false,
      "stateMutability": "view",
      "type": "function"
    },
    {
      "constant": true,
      "inputs": [
        {
          "internalType": "uint256",
          "name": "",
          "type": "uint256"
        }
      ],
      "name": "pynths",
      "outputs": [
        {
          "internalType": "bytes32",
          "name": "",
          "type": "bytes32"
        }
      ],
      "payable": false,
      "stateMutability": "view",
      "type": "function"
    },
    {
      "constant": true,
      "inputs": [
        {
          "internalType": "bytes32",
          "name": "",
          "type": "bytes32"
        }
      ],
      "name": "pynthsByKey",
      "outputs": [
        {
          "internalType": "bytes32",
          "name": "",
          "type": "bytes32"
        }
      ],
      "payable": false,
      "stateMutability": "view",
      "type": "function"
    },
    {
      "constant": false,
      "inputs": [],
      "name": "rebuildCache",
      "outputs": [],
      "payable": false,
      "stateMutability": "nonpayable",
      "type": "function"
    },
    {
      "constant": false,
      "inputs": [
        {
          "internalType": "address",
          "name": "account",
          "type": "address"
        },
        {
          "internalType": "uint256",
          "name": "id",
          "type": "uint256"
        },
        {
          "internalType": "uint256",
          "name": "amount",
          "type": "uint256"
        }
      ],
      "name": "repay",
      "outputs": [],
      "payable": false,
      "stateMutability": "nonpayable",
      "type": "function"
    },
    {
      "constant": true,
      "inputs": [],
      "name": "resolver",
      "outputs": [
        {
          "internalType": "contract AddressResolver",
          "name": "",
          "type": "address"
        }
      ],
      "payable": false,
      "stateMutability": "view",
      "type": "function"
    },
    {
      "constant": true,
      "inputs": [],
      "name": "resolverAddressesRequired",
      "outputs": [
        {
          "internalType": "bytes32[]",
          "name": "addresses",
          "type": "bytes32[]"
        }
      ],
      "payable": false,
      "stateMutability": "view",
      "type": "function"
    },
    {
      "constant": false,
      "inputs": [
        {
          "internalType": "bool",
          "name": "_canOpenLoans",
          "type": "bool"
        }
      ],
      "name": "setCanOpenLoans",
      "outputs": [],
      "payable": false,
      "stateMutability": "nonpayable",
      "type": "function"
    },
    {
      "constant": false,
      "inputs": [
        {
          "internalType": "uint256",
          "name": "_interactionDelay",
          "type": "uint256"
        }
      ],
      "name": "setInteractionDelay",
      "outputs": [],
      "payable": false,
      "stateMutability": "nonpayable",
      "type": "function"
    },
    {
      "constant": false,
      "inputs": [
        {
          "internalType": "uint256",
          "name": "_issueFeeRate",
          "type": "uint256"
        }
      ],
      "name": "setIssueFeeRate",
      "outputs": [],
      "payable": false,
      "stateMutability": "nonpayable",
      "type": "function"
    },
    {
      "constant": false,
      "inputs": [
        {
          "internalType": "address",
          "name": "_newManager",
          "type": "address"
        }
      ],
      "name": "setManager",
      "outputs": [],
      "payable": false,
      "stateMutability": "nonpayable",
      "type": "function"
    },
    {
      "constant": false,
      "inputs": [
        {
          "internalType": "uint256",
          "name": "_minCratio",
          "type": "uint256"
        }
      ],
      "name": "setMinCratio",
      "outputs": [],
      "payable": false,
      "stateMutability": "nonpayable",
      "type": "function"
    },
    {
      "constant": true,
      "inputs": [
        {
          "internalType": "bytes32",
          "name": "",
          "type": "bytes32"
        }
      ],
      "name": "shortingRewards",
      "outputs": [
        {
          "internalType": "address",
          "name": "",
          "type": "address"
        }
      ],
      "payable": false,
      "stateMutability": "view",
      "type": "function"
    },
    {
      "constant": true,
      "inputs": [],
      "name": "state",
      "outputs": [
        {
          "internalType": "contract CollateralState",
          "name": "",
          "type": "address"
        }
      ],
      "payable": false,
      "stateMutability": "view",
      "type": "function"
    },
    {
      "constant": false,
      "inputs": [
        {
          "internalType": "uint256",
          "name": "id",
          "type": "uint256"
        },
        {
          "internalType": "uint256",
          "name": "withdrawAmount",
          "type": "uint256"
        }
      ],
      "name": "withdraw",
      "outputs": [],
      "payable": false,
      "stateMutability": "nonpayable",
      "type": "function"
    }
  ],
  "bytecode": "0x60806040526032600d5561012c600e556001600f60006101000a81548160ff0219169083151502179055503480156200003757600080fd5b50604051620088a1380380620088a183398181016040526200005d9190810190620002a9565b86868686868686838087600073ffffffffffffffffffffffffffffffffffffffff168173ffffffffffffffffffffffffffffffffffffffff161415620000da576040517f08c379a0000000000000000000000000000000000000000000000000000000008152600401620000d190620003e7565b60405180910390fd5b806000806101000a81548173ffffffffffffffffffffffffffffffffffffffff021916908373ffffffffffffffffffffffffffffffffffffffff1602179055507fb532073b38c83145e3e5135377a08bf9aab55bc0fd7c1179cd4fb995d2a5159c6000826040516200014e929190620003ba565b60405180910390a15080600260006101000a81548173ffffffffffffffffffffffffffffffffffffffff021916908373ffffffffffffffffffffffffffffffffffffffff160217905550505084600660006101000a81548173ffffffffffffffffffffffffffffffffffffffff021916908373ffffffffffffffffffffffffffffffffffffffff16021790555086600560006101000a81548173ffffffffffffffffffffffffffffffffffffffff021916908373ffffffffffffffffffffffffffffffffffffffff1602179055508260048190555081600a8190555080600b81905550505050505050506001601081905550505050505050506200051a565b6000815190506200025e81620004b2565b92915050565b6000815190506200027581620004cc565b92915050565b6000815190506200028c81620004e6565b92915050565b600081519050620002a38162000500565b92915050565b600080600080600080600060e0888a031215620002c557600080fd5b6000620002d58a828b016200027b565b9750506020620002e88a828b016200024d565b9650506040620002fb8a828b016200024d565b95505060606200030e8a828b016200024d565b9450506080620003218a828b0162000264565b93505060a0620003348a828b0162000292565b92505060c0620003478a828b0162000292565b91505092959891949750929550565b620003618162000476565b82525050565b62000372816200041a565b82525050565b60006200038760198362000409565b91507f4f776e657220616464726573732063616e6e6f742062652030000000000000006000830152602082019050919050565b6000604082019050620003d1600083018562000356565b620003e0602083018462000367565b9392505050565b60006020820190508181036000830152620004028162000378565b9050919050565b600082825260208201905092915050565b600062000427826200044c565b9050919050565b6000819050919050565b600062000445826200041a565b9050919050565b600073ffffffffffffffffffffffffffffffffffffffff82169050919050565b6000819050919050565b600062000483826200048a565b9050919050565b600062000497826200049e565b9050919050565b6000620004ab826200044c565b9050919050565b620004bd816200041a565b8114620004c957600080fd5b50565b620004d7816200042e565b8114620004e357600080fd5b50565b620004f18162000438565b8114620004fd57600080fd5b50565b6200050b816200046c565b81146200051757600080fd5b50565b618377806200052a6000396000f3fe6080604052600436106102465760003560e01c80635eb2ad0111610139578063b562a1ab116100b6578063d2b8035a1161007a578063d2b8035a14610826578063dac8cf681461084f578063de81eda91461088c578063e74337c6146108c9578063eb8e3b6514610906578063f3f437031461093157610246565b8063b562a1ab1461073f578063ba2de9bc1461076a578063c19d93fb14610795578063cd285020146107c0578063d0ebdbe7146107fd57610246565b80638cd2e0c7116100fd5780638cd2e0c71461066e5780638da5cb5b1461069757806390abb4d9146106c2578063925ead11146106eb578063a76cdfa51461071657610246565b80635eb2ad01146105af57806374185360146105d857806379ba5097146105ef5780637e13235514610606578063899ffef41461064357610246565b8063361e2086116101c757806347e7ef241161018b57806347e7ef24146104eb578063481c6a75146105075780634c17ace41461053257806353a47bb71461055b57806355bd615c1461058657610246565b8063361e20861461040657806337551ec614610431578063379607f51461046e5780634065b81b14610497578063441a3e70146104c257610246565b80630cdd1c651161020e5780630cdd1c65146103215780630e54a19b1461034a57806315aaf4dd146103875780631627540c146103b25780632af64bd3146103db57610246565b806304f3bcec1461024b57806306c19e3f146102765780630710285c146102925780630a153c97146102bb5780630aebeb4e146102f8575b600080fd5b34801561025757600080fd5b5061026061096e565b60405161026d9190617b89565b60405180910390f35b610290600480360361028b9190810190616d62565b610994565b005b34801561029e57600080fd5b506102b960048036036102b49190810190616ac9565b6109a6565b005b3480156102c757600080fd5b506102e260048036036102dd9190810190616c44565b610a50565b6040516102ef9190617fbd565b60405180910390f35b34801561030457600080fd5b5061031f600480360361031a9190810190616cd4565b610b9e565b005b34801561032d57600080fd5b5061034860048036036103439190810190616cd4565b610c45565b005b34801561035657600080fd5b50610371600480360361036c9190810190616b18565b610d4d565b60405161037e9190617a71565b60405180910390f35b34801561039357600080fd5b5061039c610e22565b6040516103a99190617fbd565b60405180910390f35b3480156103be57600080fd5b506103d960048036036103d491908101906169ff565b610e28565b005b3480156103e757600080fd5b506103f0610eab565b6040516103fd9190617a71565b60405180910390f35b34801561041257600080fd5b5061041b611080565b6040516104289190617fbd565b60405180910390f35b34801561043d57600080fd5b5061045860048036036104539190810190616cd4565b611086565b6040516104659190617a8c565b60405180910390f35b34801561047a57600080fd5b5061049560048036036104909190810190616cd4565b6110a7565b005b3480156104a357600080fd5b506104ac611249565b6040516104b99190617a71565b60405180910390f35b3480156104ce57600080fd5b506104e960048036036104e49190810190616d9e565b61125c565b005b61050560048036036105009190810190616a8d565b611304565b005b34801561051357600080fd5b5061051c611313565b604051610529919061794c565b60405180910390f35b34801561053e57600080fd5b5061055960048036036105549190810190616cd4565b611339565b005b34801561056757600080fd5b50610570611446565b60405161057d919061794c565b60405180910390f35b34801561059257600080fd5b506105ad60048036036105a89190810190616b18565b61146c565b005b3480156105bb57600080fd5b506105d660048036036105d19190810190616a51565b611557565b005b3480156105e457600080fd5b506105ed6115b5565b005b3480156105fb57600080fd5b50610604611756565b005b34801561061257600080fd5b5061062d60048036036106289190810190616d62565b611908565b60405161063a9190617fbd565b60405180910390f35b34801561064f57600080fd5b506106586119c1565b6040516106659190617a4f565b60405180910390f35b34801561067a57600080fd5b5061069560048036036106909190810190616ac9565b611b95565b005b3480156106a357600080fd5b506106ac611ba6565b6040516106b9919061794c565b60405180910390f35b3480156106ce57600080fd5b506106e960048036036106e49190810190616b8d565b611bcb565b005b3480156106f757600080fd5b50610700611c36565b60405161070d9190617fbd565b60405180910390f35b34801561072257600080fd5b5061073d60048036036107389190810190616cd4565b611c3c565b005b34801561074b57600080fd5b50610754611c87565b6040516107619190617a8c565b60405180910390f35b34801561077657600080fd5b5061077f611c8d565b60405161078c9190617fbd565b60405180910390f35b3480156107a157600080fd5b506107aa611c93565b6040516107b79190617ba4565b60405180910390f35b3480156107cc57600080fd5b506107e760048036036107e29190810190616c1b565b611cb9565b6040516107f49190617a8c565b60405180910390f35b34801561080957600080fd5b50610824600480360361081f91908101906169ff565b611cd1565b005b34801561083257600080fd5b5061084d60048036036108489190810190616d9e565b611d76565b005b34801561085b57600080fd5b5061087660048036036108719190810190616c80565b611d84565b6040516108839190617fbd565b60405180910390f35b34801561089857600080fd5b506108b360048036036108ae9190810190616c1b565b611f35565b6040516108c0919061794c565b60405180910390f35b3480156108d557600080fd5b506108f060048036036108eb9190810190616c80565b611f68565b6040516108fd9190617fbd565b60405180910390f35b34801561091257600080fd5b5061091b6122ce565b6040516109289190617fbd565b60405180910390f35b34801561093d57600080fd5b50610958600480360361095391908101906169ff565b6122d4565b6040516109659190617fbd565b60405180910390f35b600260009054906101000a900473ffffffffffffffffffffffffffffffffffffffff1681565b6109a134838360006122ec565b505050565b60006109b3848484612dca565b9050610a0781601160003373ffffffffffffffffffffffffffffffffffffffff1673ffffffffffffffffffffffffffffffffffffffff1681526020019081526020016000205461335f90919063ffffffff16565b601160003373ffffffffffffffffffffffffffffffffffffffff1673ffffffffffffffffffffffffffffffffffffffff1681526020019081526020016000208190555050505050565b600080610a5b6133b4565b9050610a6561348d565b73ffffffffffffffffffffffffffffffffffffffff1663654a60ac85856004546040518463ffffffff1660e01b8152600401610aa393929190617b52565b60206040518083038186803b158015610abb57600080fd5b505afa158015610acf573d6000803e3d6000fd5b505050506040513d601f19601f82011682018060405250610af39190810190616cfd565b9150610b95610b868273__$b8d33eeb36ac0d1e81cd70156e0043e778$__63907af6c06040518163ffffffff1660e01b815260040160206040518083038186803b158015610b4057600080fd5b505af4158015610b54573d6000803e3d6000fd5b505050506040513d601f19601f82011682018060405250610b789190810190616cfd565b61335f90919063ffffffff16565b836134bd90919063ffffffff16565b91505092915050565b6000610baa33836134ea565b9050610bfe81601160003373ffffffffffffffffffffffffffffffffffffffff1673ffffffffffffffffffffffffffffffffffffffff1681526020019081526020016000205461335f90919063ffffffff16565b601160003373ffffffffffffffffffffffffffffffffffffffff1673ffffffffffffffffffffffffffffffffffffffff168152602001908152602001600020819055505050565b610c4d613bd2565b73__$b8d33eeb36ac0d1e81cd70156e0043e778$__63907af6c06040518163ffffffff1660e01b815260040160206040518083038186803b158015610c9157600080fd5b505af4158015610ca5573d6000803e3d6000fd5b505050506040513d601f19601f82011682018060405250610cc99190810190616cfd565b8111610d0a576040517f08c379a0000000000000000000000000000000000000000000000000000000008152600401610d0190617c01565b60405180910390fd5b80600a819055507f813a44586e8ecb9390b2568dbe810e193087f80e415c8845340ef06d4cbb42a5600a54604051610d429190617fbd565b60405180910390a150565b60008484905060078054905014610d675760009050610e1a565b60008090505b85859050811015610e14576000868683818110610d8657fe5b9050602002013590508060078381548110610d9d57fe5b906000526020600020015414610db857600092505050610e1a565b60078281548110610dc557fe5b906000526020600020015460086000878786818110610de057fe5b9050602002013581526020019081526020016000205414610e0657600092505050610e1a565b508080600101915050610d6d565b50600190505b949350505050565b600e5481565b610e30613bd2565b80600160006101000a81548173ffffffffffffffffffffffffffffffffffffffff021916908373ffffffffffffffffffffffffffffffffffffffff1602179055507f906a1c6bd7e3091ea86693dd029a831c19049ce77f1dce2ce0bab1cacbabce2281604051610ea0919061794c565b60405180910390a150565b60006060610eb76119c1565b905060008090505b8151811015611076576000828281518110610ed657fe5b602002602001015190506003600082815260200190815260200160002060009054906101000a900473ffffffffffffffffffffffffffffffffffffffff1673ffffffffffffffffffffffffffffffffffffffff16600260009054906101000a900473ffffffffffffffffffffffffffffffffffffffff1673ffffffffffffffffffffffffffffffffffffffff166321f8a721836040518263ffffffff1660e01b8152600401610f859190617a8c565b60206040518083038186803b158015610f9d57600080fd5b505afa158015610fb1573d6000803e3d6000fd5b505050506040513d601f19601f82011682018060405250610fd59190810190616a28565b73ffffffffffffffffffffffffffffffffffffffff161415806110575750600073ffffffffffffffffffffffffffffffffffffffff166003600083815260200190815260200160002060009054906101000a900473ffffffffffffffffffffffffffffffffffffffff1673ffffffffffffffffffffffffffffffffffffffff16145b15611068576000935050505061107d565b508080600101915050610ebf565b5060019150505b90565b600c5481565b6007818154811061109357fe5b906000526020600020016000915090505481565b60016010600082825401925050819055506000601054905061111182601160003373ffffffffffffffffffffffffffffffffffffffff1673ffffffffffffffffffffffffffffffffffffffff16815260200190815260200160002054613c6390919063ffffffff16565b601160003373ffffffffffffffffffffffffffffffffffffffff1673ffffffffffffffffffffffffffffffffffffffff1681526020019081526020016000208190555060003373ffffffffffffffffffffffffffffffffffffffff168360405161117a90617937565b60006040518083038185875af1925050503d80600081146111b7576040519150601f19603f3d011682016040523d82523d6000602084013e6111bc565b606091505b5050905080611200576040517f08c379a00000000000000000000000000000000000000000000000000000000081526004016111f790617c81565b60405180910390fd5b506010548114611245576040517f08c379a000000000000000000000000000000000000000000000000000000000815260040161123c90617f41565b60405180910390fd5b5050565b600f60009054906101000a900460ff1681565b60006112688383613cb9565b90506112bc81601160003373ffffffffffffffffffffffffffffffffffffffff1673ffffffffffffffffffffffffffffffffffffffff1681526020019081526020016000205461335f90919063ffffffff16565b601160003373ffffffffffffffffffffffffffffffffffffffff1673ffffffffffffffffffffffffffffffffffffffff16815260200190815260200160002081905550505050565b61130f828234614022565b5050565b600660009054906101000a900473ffffffffffffffffffffffffffffffffffffffff1681565b611341613bd2565b610e1073__$b8d33eeb36ac0d1e81cd70156e0043e778$__63907af6c06040518163ffffffff1660e01b815260040160206040518083038186803b15801561138857600080fd5b505af415801561139c573d6000803e3d6000fd5b505050506040513d601f19601f820116820180604052506113c09190810190616cfd565b02811115611403576040517f08c379a00000000000000000000000000000000000000000000000000000000081526004016113fa90617e21565b60405180910390fd5b80600e819055507f4d71c92b0a9dc236066597b95637bb04d58cd135e9165aee13eb68e3199c2361600e5460405161143b9190617fbd565b60405180910390a150565b600160009054906101000a900473ffffffffffffffffffffffffffffffffffffffff1681565b611474613bd2565b8181905084849050146114bc576040517f08c379a00000000000000000000000000000000000000000000000000000000081526004016114b390617be1565b60405180910390fd5b60008090505b848490508110156115485760008585838181106114db57fe5b9050602002013590506007819080600181540180825580915050906001820390600052602060002001600090919290919091505550806008600086868681811061152157fe5b905060200201358152602001908152602001600020819055505080806001019150506114c2565b506115516115b5565b50505050565b61155f613bd2565b816009600083815260200190815260200160002060006101000a81548173ffffffffffffffffffffffffffffffffffffffff021916908373ffffffffffffffffffffffffffffffffffffffff1602179055505050565b60606115bf6119c1565b905060008090505b81518110156117525760008282815181106115de57fe5b602002602001015190506000600260009054906101000a900473ffffffffffffffffffffffffffffffffffffffff1673ffffffffffffffffffffffffffffffffffffffff1663dacb2d01838460405160200161163a9190617911565b6040516020818303038152906040526040518363ffffffff1660e01b8152600401611666929190617af9565b60206040518083038186803b15801561167e57600080fd5b505afa158015611692573d6000803e3d6000fd5b505050506040513d601f19601f820116820180604052506116b69190810190616a28565b9050806003600084815260200190815260200160002060006101000a81548173ffffffffffffffffffffffffffffffffffffffff021916908373ffffffffffffffffffffffffffffffffffffffff1602179055507f88a93678a3692f6789d9546fc621bf7234b101ddb7d4fe479455112831b8aa68828260405161173b929190617aa7565b60405180910390a1505080806001019150506115c7565b5050565b600160009054906101000a900473ffffffffffffffffffffffffffffffffffffffff1673ffffffffffffffffffffffffffffffffffffffff163373ffffffffffffffffffffffffffffffffffffffff16146117e6576040517f08c379a00000000000000000000000000000000000000000000000000000000081526004016117dd90617c61565b60405180910390fd5b7fb532073b38c83145e3e5135377a08bf9aab55bc0fd7c1179cd4fb995d2a5159c6000809054906101000a900473ffffffffffffffffffffffffffffffffffffffff16600160009054906101000a900473ffffffffffffffffffffffffffffffffffffffff1660405161185a9291906179d4565b60405180910390a1600160009054906101000a900473ffffffffffffffffffffffffffffffffffffffff166000806101000a81548173ffffffffffffffffffffffffffffffffffffffff021916908373ffffffffffffffffffffffffffffffffffffffff1602179055506000600160006101000a81548173ffffffffffffffffffffffffffffffffffffffff021916908373ffffffffffffffffffffffffffffffffffffffff160217905550565b60006119b961191561348d565b73ffffffffffffffffffffffffffffffffffffffff1663654a60ac60045486866040518463ffffffff1660e01b815260040161195393929190617b52565b60206040518083038186803b15801561196b57600080fd5b505afa15801561197f573d6000803e3d6000fd5b505050506040513d601f19601f820116820180604052506119a39190810190616cfd565b6119ab61437c565b6134bd90919063ffffffff16565b905092915050565b6060806119cc614413565b905060606005604051908082528060200260200182016040528015611a005781602001602082028038833980820191505090505b5090507f466565506f6f6c0000000000000000000000000000000000000000000000000081600081518110611a3157fe5b6020026020010181815250507f45786368616e676552617465730000000000000000000000000000000000000081600181518110611a6b57fe5b6020026020010181815250507f45786368616e676572000000000000000000000000000000000000000000000081600281518110611aa557fe5b6020026020010181815250507f53797374656d537461747573000000000000000000000000000000000000000081600381518110611adf57fe5b6020026020010181815250507f50796e746870555344000000000000000000000000000000000000000000000081600481518110611b1957fe5b6020026020010181815250506060611b318383614485565b9050611b8d816007805480602002602001604051908101604052809291908181526020018280548015611b8357602002820191906000526020600020905b815481526020019060010190808311611b6f575b5050505050614485565b935050505090565b611ba183338484614558565b505050565b6000809054906101000a900473ffffffffffffffffffffffffffffffffffffffff1681565b611bd3613bd2565b80600f60006101000a81548160ff0219169083151502179055507f261991749e1b2436706a31bde8bf184bb37fe21e303709b78d3b881afacadaa2600f60009054906101000a900460ff16604051611c2b9190617a71565b60405180910390a150565b600a5481565b611c44613bd2565b80600c819055507fe7bd72551c54d568cd97b00dc52d2787b5c5d4f0070d3582c1e8ba25141f799c600c54604051611c7c9190617fbd565b60405180910390a150565b60045481565b600b5481565b600560009054906101000a900473ffffffffffffffffffffffffffffffffffffffff1681565b60086020528060005260406000206000915090505481565b611cd9613bd2565b80600660006101000a81548173ffffffffffffffffffffffffffffffffffffffff021916908373ffffffffffffffffffffffffffffffffffffffff1602179055507f2c1c11af44aa5608f1dca38c00275c30ea091e02417d36e70e9a1538689c433d600660009054906101000a900473ffffffffffffffffffffffffffffffffffffffff16604051611d6b919061794c565b60405180910390a150565b611d808282614a27565b5050565b600080611d8f61348d565b73ffffffffffffffffffffffffffffffffffffffff1663654a60ac60045485604001517f70555344000000000000000000000000000000000000000000000000000000006040518463ffffffff1660e01b8152600401611df193929190617b52565b60206040518083038186803b158015611e0957600080fd5b505afa158015611e1d573d6000803e3d6000fd5b505050506040513d601f19601f82011682018060405250611e419190810190616cfd565b90506000611e4d61348d565b73ffffffffffffffffffffffffffffffffffffffff1663654a60ac8560600151611e888760c00151886080015161335f90919063ffffffff16565b7f70555344000000000000000000000000000000000000000000000000000000006040518463ffffffff1660e01b8152600401611ec793929190617b52565b60206040518083038186803b158015611edf57600080fd5b505afa158015611ef3573d6000803e3d6000fd5b505050506040513d601f19601f82011682018060405250611f179190810190616cfd565b9050611f2c818361518a90919063ffffffff16565b92505050919050565b60096020528060005260406000206000915054906101000a900473ffffffffffffffffffffffffffffffffffffffff1681565b600080611f736133b4565b90506000611f7f61348d565b73ffffffffffffffffffffffffffffffffffffffff1663654a60ac8560600151611fba8760c00151886080015161335f90919063ffffffff16565b7f70555344000000000000000000000000000000000000000000000000000000006040518463ffffffff1660e01b8152600401611ff993929190617b52565b60206040518083038186803b15801561201157600080fd5b505afa158015612025573d6000803e3d6000fd5b505050506040513d601f19601f820116820180604052506120499190810190616cfd565b9050600061205561348d565b73ffffffffffffffffffffffffffffffffffffffff1663654a60ac60045487604001517f70555344000000000000000000000000000000000000000000000000000000006040518463ffffffff1660e01b81526004016120b793929190617b52565b60206040518083038186803b1580156120cf57600080fd5b505afa1580156120e3573d6000803e3d6000fd5b505050506040513d601f19601f820116820180604052506121079190810190616cfd565b9050600073__$b8d33eeb36ac0d1e81cd70156e0043e778$__63907af6c06040518163ffffffff1660e01b815260040160206040518083038186803b15801561214f57600080fd5b505af4158015612163573d6000803e3d6000fd5b505050506040513d601f19601f820116820180604052506121879190810190616cfd565b905060006121b26121a3600a548561518a90919063ffffffff16565b85613c6390919063ffffffff16565b905060006121ef6121e0600a546121d2898761335f90919063ffffffff16565b61518a90919063ffffffff16565b84613c6390919063ffffffff16565b90506000612206828461518a90919063ffffffff16565b905061221061348d565b73ffffffffffffffffffffffffffffffffffffffff1663654a60ac7f7055534400000000000000000000000000000000000000000000000000000000838c606001516040518463ffffffff1660e01b815260040161227093929190617b52565b60206040518083038186803b15801561228857600080fd5b505afa15801561229c573d6000803e3d6000fd5b505050506040513d601f19601f820116820180604052506122c09190810190616cfd565b975050505050505050919050565b600d5481565b60116020528060005260406000206000915090505481565b60006122f66151c0565b73ffffffffffffffffffffffffffffffffffffffff16637c3125416040518163ffffffff1660e01b815260040160006040518083038186803b15801561233b57600080fd5b505afa15801561234f573d6000803e3d6000fd5b50505050600f60009054906101000a900460ff166123a2576040517f08c379a000000000000000000000000000000000000000000000000000000000815260040161239990617e01565b60405180910390fd5b6123aa61348d565b73ffffffffffffffffffffffffffffffffffffffff16632528f0fe6004546040518263ffffffff1660e01b81526004016123e49190617a8c565b60206040518083038186803b1580156123fc57600080fd5b505afa158015612410573d6000803e3d6000fd5b505050506040513d601f19601f820116820180604052506124349190810190616bb6565b15612474576040517f08c379a000000000000000000000000000000000000000000000000000000000815260040161246b90617e41565b60405180910390fd5b6000801b6008600085815260200190815260200160002054116124cc576040517f08c379a00000000000000000000000000000000000000000000000000000000081526004016124c390617ec1565b60405180910390fd5b6124d461348d565b73ffffffffffffffffffffffffffffffffffffffff16632528f0fe846040518263ffffffff1660e01b815260040161250c9190617a8c565b60206040518083038186803b15801561252457600080fd5b505afa158015612538573d6000803e3d6000fd5b505050506040513d601f19601f8201168201806040525061255c9190810190616bb6565b1561259c576040517f08c379a000000000000000000000000000000000000000000000000000000000815260040161259390617d61565b60405180910390fd5b600b548510156125e1576040517f08c379a00000000000000000000000000000000000000000000000000000000081526004016125d890617d41565b60405180910390fd5b600d54600560009054906101000a900473ffffffffffffffffffffffffffffffffffffffff1673ffffffffffffffffffffffffffffffffffffffff1663e0b6adbc336040518263ffffffff1660e01b815260040161263f9190617967565b60206040518083038186803b15801561265757600080fd5b505afa15801561266b573d6000803e3d6000fd5b505050506040513d601f19601f8201168201806040525061268f9190810190616cfd565b106126cf576040517f08c379a00000000000000000000000000000000000000000000000000000000081526004016126c690617d01565b60405180910390fd5b6000806126da6151f0565b73ffffffffffffffffffffffffffffffffffffffff1663b4d6cb4087876040518363ffffffff1660e01b815260040161271492919061801d565b604080518083038186803b15801561272b57600080fd5b505afa15801561273f573d6000803e3d6000fd5b505050506040513d601f19601f820116820180604052506127639190810190616bdf565b91509150818015612772575080155b6127b1576040517f08c379a00000000000000000000000000000000000000000000000000000000081526004016127a890617f01565b60405180910390fd5b6127bb8786611908565b8611156127fd576040517f08c379a00000000000000000000000000000000000000000000000000000000081526004016127f490617e61565b60405180910390fd5b6000612814600c548861521a90919063ffffffff16565b9050600061282b8289613c6390919063ffffffff16565b90506128356151f0565b73ffffffffffffffffffffffffffffffffffffffff1663b3b467326040518163ffffffff1660e01b8152600401602060405180830381600087803b15801561287c57600080fd5b505af1158015612890573d6000803e3d6000fd5b505050506040513d601f19601f820116820180604052506128b49190810190616cfd565b94506128be6166c4565b6040518061012001604052808781526020013373ffffffffffffffffffffffffffffffffffffffff1681526020018b81526020018981526020018a81526020018815158152602001600081526020016000815260200142815250905061292381615236565b9050600560009054906101000a900473ffffffffffffffffffffffffffffffffffffffff1673ffffffffffffffffffffffffffffffffffffffff16635c331204826040518263ffffffff1660e01b81526004016129809190617fa1565b600060405180830381600087803b15801561299a57600080fd5b505af11580156129ae573d6000803e3d6000fd5b505050506129bc83896157d8565b8615612c6a576129ca615a2e565b73ffffffffffffffffffffffffffffffffffffffff1663867904b4336129ee61348d565b73ffffffffffffffffffffffffffffffffffffffff1663654a60ac8c877f70555344000000000000000000000000000000000000000000000000000000006040518463ffffffff1660e01b8152600401612a4a93929190617b52565b60206040518083038186803b158015612a6257600080fd5b505afa158015612a76573d6000803e3d6000fd5b505050506040513d601f19601f82011682018060405250612a9a9190810190616cfd565b6040518363ffffffff1660e01b8152600401612ab79291906179ab565b600060405180830381600087803b158015612ad157600080fd5b505af1158015612ae5573d6000803e3d6000fd5b50505050612af16151f0565b73ffffffffffffffffffffffffffffffffffffffff1663e31f27c1898b6040518363ffffffff1660e01b8152600401612b2b929190617b29565b600060405180830381600087803b158015612b4557600080fd5b505af1158015612b59573d6000803e3d6000fd5b50505050600073ffffffffffffffffffffffffffffffffffffffff16600960008a815260200190815260200160002060009054906101000a900473ffffffffffffffffffffffffffffffffffffffff1673ffffffffffffffffffffffffffffffffffffffff1614612c65576009600089815260200190815260200160002060009054906101000a900473ffffffffffffffffffffffffffffffffffffffff1673ffffffffffffffffffffffffffffffffffffffff1663db454a51338b6040518363ffffffff1660e01b8152600401612c329291906179ab565b600060405180830381600087803b158015612c4c57600080fd5b505af1158015612c60573d6000803e3d6000fd5b505050505b612d67565b612c86600860008a815260200190815260200160002054615a5e565b73ffffffffffffffffffffffffffffffffffffffff1663867904b433846040518363ffffffff1660e01b8152600401612cc09291906179ab565b600060405180830381600087803b158015612cda57600080fd5b505af1158015612cee573d6000803e3d6000fd5b50505050612cfa6151f0565b73ffffffffffffffffffffffffffffffffffffffff1663eb94bbde898b6040518363ffffffff1660e01b8152600401612d34929190617b29565b600060405180830381600087803b158015612d4e57600080fd5b505af1158015612d62573d6000803e3d6000fd5b505050505b3373ffffffffffffffffffffffffffffffffffffffff167f604952b18be5fed608cbdd28101dc57bd667055c9678ec6d44fb1d8e4c7c172a878b8d8c88604051612db59594939291906180a6565b60405180910390a25050505050949350505050565b6000612dd46151c0565b73ffffffffffffffffffffffffffffffffffffffff16637c3125416040518163ffffffff1660e01b815260040160006040518083038186803b158015612e1957600080fd5b505afa158015612e2d573d6000803e3d6000fd5b50505050612e3961348d565b73ffffffffffffffffffffffffffffffffffffffff16632528f0fe6004546040518263ffffffff1660e01b8152600401612e739190617a8c565b60206040518083038186803b158015612e8b57600080fd5b505afa158015612e9f573d6000803e3d6000fd5b505050506040513d601f19601f82011682018060405250612ec39190810190616bb6565b15612f03576040517f08c379a0000000000000000000000000000000000000000000000000000000008152600401612efa90617e41565b60405180910390fd5b60008211612f46576040517f08c379a0000000000000000000000000000000000000000000000000000000008152600401612f3d90617cc1565b60405180910390fd5b612f4e6166c4565b600560009054906101000a900473ffffffffffffffffffffffffffffffffffffffff1673ffffffffffffffffffffffffffffffffffffffff1663a1c5158686866040518363ffffffff1660e01b8152600401612fab929190617a26565b6101206040518083038186803b158015612fc457600080fd5b505afa158015612fd8573d6000803e3d6000fd5b505050506040513d601f19601f82011682018060405250612ffc9190810190616caa565b905061300781615a70565b61301081615236565b905061302133826060015185615b16565b600a5461302d82611d84565b1061306d576040517f08c379a000000000000000000000000000000000000000000000000000000000815260040161306490617d21565b60405180910390fd5b600061307882611f68565b90506000848210613089578461308b565b815b905060006130aa8460c00151856080015161335f90919063ffffffff16565b90508082106130c9576130be883386615c01565b945050505050613358565b6130d384836160fb565b93506130e3846060015183610a50565b94506130fc858560400151613c6390919063ffffffff16565b84604001818152505042846101000181815250506131186163c3565b73ffffffffffffffffffffffffffffffffffffffff1663d6f32e063386606001516040518363ffffffff1660e01b8152600401613156929190617982565b60206040518083038186803b15801561316e57600080fd5b505afa158015613182573d6000803e3d6000fd5b505050506040513d601f19601f820116820180604052506131a69190810190616bb6565b156131e6576040517f08c379a00000000000000000000000000000000000000000000000000000000081526004016131dd90617f81565b60405180910390fd5b613206600860008660600151815260200190815260200160002054615a5e565b73ffffffffffffffffffffffffffffffffffffffff16639dc29fac33846040518363ffffffff1660e01b81526004016132409291906179ab565b600060405180830381600087803b15801561325a57600080fd5b505af115801561326e573d6000803e3d6000fd5b50505050600560009054906101000a900473ffffffffffffffffffffffffffffffffffffffff1673ffffffffffffffffffffffffffffffffffffffff166344dce41c856040518263ffffffff1660e01b81526004016132cd9190617fa1565b600060405180830381600087803b1580156132e757600080fd5b505af11580156132fb573d6000803e3d6000fd5b505050508773ffffffffffffffffffffffffffffffffffffffff167fb6e43890aeea54fbe6c0ed628e78172a0ff30bbcb1d70d8b130b12c366bac4c58833858960405161334b9493929190617fd8565b60405180910390a2505050505b9392505050565b6000808284019050838110156133aa576040517f08c379a00000000000000000000000000000000000000000000000000000000081526004016133a190617ce1565b60405180910390fd5b8091505092915050565b60006133be6163f3565b73ffffffffffffffffffffffffffffffffffffffff166323257c2b7f53797374656d53657474696e67730000000000000000000000000000000000007f6c69717569646174696f6e50656e616c747900000000000000000000000000006040518363ffffffff1660e01b8152600401613438929190617ad0565b60206040518083038186803b15801561345057600080fd5b505afa158015613464573d6000803e3d6000fd5b505050506040513d601f19601f820116820180604052506134889190810190616cfd565b905090565b60006134b87f45786368616e6765526174657300000000000000000000000000000000000000616423565b905090565b6000601260ff16600a0a6134da83856164f890919063ffffffff16565b816134e157fe5b04905092915050565b60006134f46151c0565b73ffffffffffffffffffffffffffffffffffffffff16637c3125416040518163ffffffff1660e01b815260040160006040518083038186803b15801561353957600080fd5b505afa15801561354d573d6000803e3d6000fd5b5050505061355961348d565b73ffffffffffffffffffffffffffffffffffffffff16632528f0fe6004546040518263ffffffff1660e01b81526004016135939190617a8c565b60206040518083038186803b1580156135ab57600080fd5b505afa1580156135bf573d6000803e3d6000fd5b505050506040513d601f19601f820116820180604052506135e39190810190616bb6565b15613623576040517f08c379a000000000000000000000000000000000000000000000000000000000815260040161361a90617e41565b60405180910390fd5b61362b6166c4565b600560009054906101000a900473ffffffffffffffffffffffffffffffffffffffff1673ffffffffffffffffffffffffffffffffffffffff1663a1c5158685856040518363ffffffff1660e01b8152600401613688929190617a26565b6101206040518083038186803b1580156136a157600080fd5b505afa1580156136b5573d6000803e3d6000fd5b505050506040513d601f19601f820116820180604052506136d99190810190616caa565b90506136e481615a70565b6136ed81615236565b9050600061370c8260c00151836080015161335f90919063ffffffff16565b90506137218260200151836060015183615b16565b6137296163c3565b73ffffffffffffffffffffffffffffffffffffffff1663d6f32e068684606001516040518363ffffffff1660e01b81526004016137679291906179fd565b60206040518083038186803b15801561377f57600080fd5b505afa158015613793573d6000803e3d6000fd5b505050506040513d601f19601f820116820180604052506137b79190810190616bb6565b156137f7576040517f08c379a00000000000000000000000000000000000000000000000000000000081526004016137ee90617d81565b60405180910390fd5b613817600860008460600151815260200190815260200160002054615a5e565b73ffffffffffffffffffffffffffffffffffffffff16639dc29fac86836040518363ffffffff1660e01b8152600401613851929190617a26565b600060405180830381600087803b15801561386b57600080fd5b505af115801561387f573d6000803e3d6000fd5b505050508160a0015115613a22576138956151f0565b73ffffffffffffffffffffffffffffffffffffffff16635246f2b9836060015184608001516040518363ffffffff1660e01b81526004016138d7929190617b29565b600060405180830381600087803b1580156138f157600080fd5b505af1158015613905573d6000803e3d6000fd5b50505050600073ffffffffffffffffffffffffffffffffffffffff16600960008460600151815260200190815260200160002060009054906101000a900473ffffffffffffffffffffffffffffffffffffffff1673ffffffffffffffffffffffffffffffffffffffff1614613a1d57600960008360600151815260200190815260200160002060009054906101000a900473ffffffffffffffffffffffffffffffffffffffff1673ffffffffffffffffffffffffffffffffffffffff1663f3fef3a38684608001516040518363ffffffff1660e01b81526004016139ea929190617a26565b600060405180830381600087803b158015613a0457600080fd5b505af1158015613a18573d6000803e3d6000fd5b505050505b613a9f565b613a2a6151f0565b73ffffffffffffffffffffffffffffffffffffffff1663e50a31b3836060015184608001516040518363ffffffff1660e01b8152600401613a6c929190617b29565b600060405180830381600087803b158015613a8657600080fd5b505af1158015613a9a573d6000803e3d6000fd5b505050505b81604001519250613ab88260c0015183606001516157d8565b6000826080018181525050600082604001818152505060008260c001818152505060008260e00181815250504282610100018181525050600560009054906101000a900473ffffffffffffffffffffffffffffffffffffffff1673ffffffffffffffffffffffffffffffffffffffff166344dce41c836040518263ffffffff1660e01b8152600401613b4a9190617fa1565b600060405180830381600087803b158015613b6457600080fd5b505af1158015613b78573d6000803e3d6000fd5b505050508473ffffffffffffffffffffffffffffffffffffffff167fcab22a4e95d29d40da2ace3f6ec72b49954a9bc7b2584f8fd47bf7f357a3ed6f85604051613bc29190617fbd565b60405180910390a2505092915050565b6000809054906101000a900473ffffffffffffffffffffffffffffffffffffffff1673ffffffffffffffffffffffffffffffffffffffff163373ffffffffffffffffffffffffffffffffffffffff1614613c61576040517f08c379a0000000000000000000000000000000000000000000000000000000008152600401613c5890617e81565b60405180910390fd5b565b600082821115613ca8576040517f08c379a0000000000000000000000000000000000000000000000000000000008152600401613c9f90617da1565b60405180910390fd5b600082840390508091505092915050565b6000613cc36151c0565b73ffffffffffffffffffffffffffffffffffffffff16637c3125416040518163ffffffff1660e01b815260040160006040518083038186803b158015613d0857600080fd5b505afa158015613d1c573d6000803e3d6000fd5b50505050613d2861348d565b73ffffffffffffffffffffffffffffffffffffffff16632528f0fe6004546040518263ffffffff1660e01b8152600401613d629190617a8c565b60206040518083038186803b158015613d7a57600080fd5b505afa158015613d8e573d6000803e3d6000fd5b505050506040513d601f19601f82011682018060405250613db29190810190616bb6565b15613df2576040517f08c379a0000000000000000000000000000000000000000000000000000000008152600401613de990617e41565b60405180910390fd5b613dfa6166c4565b600560009054906101000a900473ffffffffffffffffffffffffffffffffffffffff1673ffffffffffffffffffffffffffffffffffffffff1663a1c5158633866040518363ffffffff1660e01b8152600401613e579291906179ab565b6101206040518083038186803b158015613e7057600080fd5b505afa158015613e84573d6000803e3d6000fd5b505050506040513d601f19601f82011682018060405250613ea89190810190616caa565b9050613eb381615a70565b613ebc81615236565b9050613ed5838260400151613c6390919063ffffffff16565b8160400181815250504281610100018181525050600a54613ef582611d84565b11613f35576040517f08c379a0000000000000000000000000000000000000000000000000000000008152600401613f2c90617c21565b60405180910390fd5b600560009054906101000a900473ffffffffffffffffffffffffffffffffffffffff1673ffffffffffffffffffffffffffffffffffffffff166344dce41c826040518263ffffffff1660e01b8152600401613f909190617fa1565b600060405180830381600087803b158015613faa57600080fd5b505af1158015613fbe573d6000803e3d6000fd5b505050508291503373ffffffffffffffffffffffffffffffffffffffff167ffae26280bca25d80f1501a9e363c73d3845e651c9aaae54f1fc09a9dcd5f3303858584604001516040516140139392919061806f565b60405180910390a25092915050565b61402a6151c0565b73ffffffffffffffffffffffffffffffffffffffff16637c3125416040518163ffffffff1660e01b815260040160006040518083038186803b15801561406f57600080fd5b505afa158015614083573d6000803e3d6000fd5b5050505061408f61348d565b73ffffffffffffffffffffffffffffffffffffffff16632528f0fe6004546040518263ffffffff1660e01b81526004016140c99190617a8c565b60206040518083038186803b1580156140e157600080fd5b505afa1580156140f5573d6000803e3d6000fd5b505050506040513d601f19601f820116820180604052506141199190810190616bb6565b15614159576040517f08c379a000000000000000000000000000000000000000000000000000000000815260040161415090617e41565b60405180910390fd5b6000811161419c576040517f08c379a000000000000000000000000000000000000000000000000000000000815260040161419390617ee1565b60405180910390fd5b6141a46166c4565b600560009054906101000a900473ffffffffffffffffffffffffffffffffffffffff1673ffffffffffffffffffffffffffffffffffffffff1663a1c5158685856040518363ffffffff1660e01b8152600401614201929190617a26565b6101206040518083038186803b15801561421a57600080fd5b505afa15801561422e573d6000803e3d6000fd5b505050506040513d601f19601f820116820180604052506142529190810190616caa565b905061425d81615a70565b61426681615236565b905061427f82826040015161335f90919063ffffffff16565b8160400181815250504281610100018181525050600560009054906101000a900473ffffffffffffffffffffffffffffffffffffffff1673ffffffffffffffffffffffffffffffffffffffff166344dce41c826040518263ffffffff1660e01b81526004016142ee9190617fa1565b600060405180830381600087803b15801561430857600080fd5b505af115801561431c573d6000803e3d6000fd5b505050508373ffffffffffffffffffffffffffffffffffffffff167f0b1992dffc262be88559dcaf96464e9d661d8bfca7e82f2bb73e31932a82187c8484846040015160405161436e9392919061806f565b60405180910390a250505050565b600061440e600a5473__$b8d33eeb36ac0d1e81cd70156e0043e778$__63907af6c06040518163ffffffff1660e01b815260040160206040518083038186803b1580156143c857600080fd5b505af41580156143dc573d6000803e3d6000fd5b505050506040513d601f19601f820116820180604052506144009190810190616cfd565b61656890919063ffffffff16565b905090565b606060016040519080825280602002602001820160405280156144455781602001602082028038833980820191505090505b5090507f466c657869626c6553746f7261676500000000000000000000000000000000008160008151811061447657fe5b60200260200101818152505090565b606081518351016040519080825280602002602001820160405280156144ba5781602001602082028038833980820191505090505b50905060008090505b8351811015614505578381815181106144d857fe5b60200260200101518282815181106144ec57fe5b60200260200101818152505080806001019150506144c3565b5060008090505b82518110156145515782818151811061452157fe5b602002602001015182828651018151811061453857fe5b602002602001018181525050808060010191505061450c565b5092915050565b6145606151c0565b73ffffffffffffffffffffffffffffffffffffffff16637c3125416040518163ffffffff1660e01b815260040160006040518083038186803b1580156145a557600080fd5b505afa1580156145b9573d6000803e3d6000fd5b505050506145c561348d565b73ffffffffffffffffffffffffffffffffffffffff16632528f0fe6004546040518263ffffffff1660e01b81526004016145ff9190617a8c565b60206040518083038186803b15801561461757600080fd5b505afa15801561462b573d6000803e3d6000fd5b505050506040513d601f19601f8201168201806040525061464f9190810190616bb6565b1561468f576040517f08c379a000000000000000000000000000000000000000000000000000000000815260040161468690617e41565b60405180910390fd5b600081116146d2576040517f08c379a00000000000000000000000000000000000000000000000000000000081526004016146c990617cc1565b60405180910390fd5b6146da6166c4565b600560009054906101000a900473ffffffffffffffffffffffffffffffffffffffff1673ffffffffffffffffffffffffffffffffffffffff1663a1c5158686856040518363ffffffff1660e01b8152600401614737929190617a26565b6101206040518083038186803b15801561475057600080fd5b505afa158015614764573d6000803e3d6000fd5b505050506040513d601f19601f820116820180604052506147889190810190616caa565b905061479381615a70565b61479c81615236565b90506147ad84826060015184615b16565b6147b781836160fb565b905042816101000181815250506147cc6163c3565b73ffffffffffffffffffffffffffffffffffffffff1663d6f32e068583606001516040518363ffffffff1660e01b815260040161480a9291906179fd565b60206040518083038186803b15801561482257600080fd5b505afa158015614836573d6000803e3d6000fd5b505050506040513d601f19601f8201168201806040525061485a9190810190616bb6565b1561489a576040517f08c379a000000000000000000000000000000000000000000000000000000000815260040161489190617f81565b60405180910390fd5b6148ba600860008360600151815260200190815260200160002054615a5e565b73ffffffffffffffffffffffffffffffffffffffff16639dc29fac85846040518363ffffffff1660e01b81526004016148f4929190617a26565b600060405180830381600087803b15801561490e57600080fd5b505af1158015614922573d6000803e3d6000fd5b50505050600560009054906101000a900473ffffffffffffffffffffffffffffffffffffffff1673ffffffffffffffffffffffffffffffffffffffff166344dce41c826040518263ffffffff1660e01b81526004016149819190617fa1565b600060405180830381600087803b15801561499b57600080fd5b505af11580156149af573d6000803e3d6000fd5b505050508373ffffffffffffffffffffffffffffffffffffffff168573ffffffffffffffffffffffffffffffffffffffff167fdf10512219e869922340b1b24b21d7d79bf71f411a6391cc7c3ef5dd2fe89e7f85858560800151604051614a189392919061806f565b60405180910390a35050505050565b614a2f6151c0565b73ffffffffffffffffffffffffffffffffffffffff16637c3125416040518163ffffffff1660e01b815260040160006040518083038186803b158015614a7457600080fd5b505afa158015614a88573d6000803e3d6000fd5b50505050614a9461348d565b73ffffffffffffffffffffffffffffffffffffffff16632528f0fe6004546040518263ffffffff1660e01b8152600401614ace9190617a8c565b60206040518083038186803b158015614ae657600080fd5b505afa158015614afa573d6000803e3d6000fd5b505050506040513d601f19601f82011682018060405250614b1e9190810190616bb6565b15614b5e576040517f08c379a0000000000000000000000000000000000000000000000000000000008152600401614b5590617e41565b60405180910390fd5b614b666166c4565b600560009054906101000a900473ffffffffffffffffffffffffffffffffffffffff1673ffffffffffffffffffffffffffffffffffffffff1663a1c5158633856040518363ffffffff1660e01b8152600401614bc39291906179ab565b6101206040518083038186803b158015614bdc57600080fd5b505afa158015614bf0573d6000803e3d6000fd5b505050506040513d601f19601f82011682018060405250614c149190810190616caa565b9050614c1f81615a70565b614c2881615236565b9050614c4182826080015161335f90919063ffffffff16565b816080018181525050600a54614c5682611d84565b11614c96576040517f08c379a0000000000000000000000000000000000000000000000000000000008152600401614c8d90617c41565b60405180910390fd5b6000614cad600c548461521a90919063ffffffff16565b90506000614cc48285613c6390919063ffffffff16565b90508260a0015115614f8857614cd86151f0565b73ffffffffffffffffffffffffffffffffffffffff1663e31f27c18460600151866040518363ffffffff1660e01b8152600401614d16929190617b29565b600060405180830381600087803b158015614d3057600080fd5b505af1158015614d44573d6000803e3d6000fd5b50505050614d50615a2e565b73ffffffffffffffffffffffffffffffffffffffff1663867904b433614d7461348d565b73ffffffffffffffffffffffffffffffffffffffff1663654a60ac8760600151867f70555344000000000000000000000000000000000000000000000000000000006040518463ffffffff1660e01b8152600401614dd493929190617b52565b60206040518083038186803b158015614dec57600080fd5b505afa158015614e00573d6000803e3d6000fd5b505050506040513d601f19601f82011682018060405250614e249190810190616cfd565b6040518363ffffffff1660e01b8152600401614e419291906179ab565b600060405180830381600087803b158015614e5b57600080fd5b505af1158015614e6f573d6000803e3d6000fd5b50505050600073ffffffffffffffffffffffffffffffffffffffff16600960008560600151815260200190815260200160002060009054906101000a900473ffffffffffffffffffffffffffffffffffffffff1673ffffffffffffffffffffffffffffffffffffffff1614614f8357600960008460600151815260200190815260200160002060009054906101000a900473ffffffffffffffffffffffffffffffffffffffff1673ffffffffffffffffffffffffffffffffffffffff1663db454a5133866040518363ffffffff1660e01b8152600401614f509291906179ab565b600060405180830381600087803b158015614f6a57600080fd5b505af1158015614f7e573d6000803e3d6000fd5b505050505b61508d565b614f906151f0565b73ffffffffffffffffffffffffffffffffffffffff1663eb94bbde8460600151866040518363ffffffff1660e01b8152600401614fce929190617b29565b600060405180830381600087803b158015614fe857600080fd5b505af1158015614ffc573d6000803e3d6000fd5b50505050615020600860008560600151815260200190815260200160002054615a5e565b73ffffffffffffffffffffffffffffffffffffffff1663867904b433836040518363ffffffff1660e01b815260040161505a9291906179ab565b600060405180830381600087803b15801561507457600080fd5b505af1158015615088573d6000803e3d6000fd5b505050505b61509b8284606001516157d8565b4283610100018181525050600560009054906101000a900473ffffffffffffffffffffffffffffffffffffffff1673ffffffffffffffffffffffffffffffffffffffff166344dce41c846040518263ffffffff1660e01b81526004016151019190617fa1565b600060405180830381600087803b15801561511b57600080fd5b505af115801561512f573d6000803e3d6000fd5b505050503373ffffffffffffffffffffffffffffffffffffffff167f5754fe57f36ac0f121901d7555aba517e6608590429d86a81c662cf358310654868660405161517b929190618046565b60405180910390a25050505050565b60006151b8826151aa601260ff16600a0a866164f890919063ffffffff16565b61658490919063ffffffff16565b905092915050565b60006151eb7f53797374656d5374617475730000000000000000000000000000000000000000616423565b905090565b6000600660009054906101000a900473ffffffffffffffffffffffffffffffffffffffff16905090565b600061522e8383601260ff16600a0a6165e0565b905092915050565b61523e6166c4565b8190506000806000808560a001516152e9576152586151f0565b73ffffffffffffffffffffffffffffffffffffffff166303f048b08760e001516040518263ffffffff1660e01b81526004016152949190617fbd565b60806040518083038186803b1580156152ac57600080fd5b505afa1580156152c0573d6000803e3d6000fd5b505050506040513d601f19601f820116820180604052506152e49190810190616dda565b615384565b6152f16151f0565b73ffffffffffffffffffffffffffffffffffffffff1663af07aa9d87606001518860e001516040518363ffffffff1660e01b8152600401615333929190617b29565b60806040518083038186803b15801561534b57600080fd5b505afa15801561535f573d6000803e3d6000fd5b505050506040513d601f19601f820116820180604052506153839190810190616dda565b5b93509350935093506000808760a00151615421576153a06151f0565b73ffffffffffffffffffffffffffffffffffffffff1663ba1c5e806040518163ffffffff1660e01b8152600401604080518083038186803b1580156153e457600080fd5b505afa1580156153f8573d6000803e3d6000fd5b505050506040513d601f19601f8201168201806040525061541c9190810190616d26565b6154c8565b6154296151f0565b73ffffffffffffffffffffffffffffffffffffffff1663ee81f790600860008b606001518152602001908152602001600020546040518263ffffffff1660e01b81526004016154789190617a8c565b604080518083038186803b15801561548f57600080fd5b505afa1580156154a3573d6000803e3d6000fd5b505050506040513d601f19601f820116820180604052506154c79190810190616d26565b5b91509150801561550d576040517f08c379a000000000000000000000000000000000000000000000000000000000815260040161550490617de1565b60405180910390fd5b60006155af73__$b8d33eeb36ac0d1e81cd70156e0043e778$__63907af6c06040518163ffffffff1660e01b815260040160206040518083038186803b15801561555657600080fd5b505af415801561556a573d6000803e3d6000fd5b505050506040513d601f19601f8201168201806040525061558e9190810190616cfd565b6155a18742613c6390919063ffffffff16565b6164f890919063ffffffff16565b905060006155d86155c983866134bd90919063ffffffff16565b8861335f90919063ffffffff16565b90506000808b60e0015114615615576156106155fd8a84613c6390919063ffffffff16565b8c608001516134bd90919063ffffffff16565b615618565b60005b90508a60a0015161569a5761562b6151f0565b73ffffffffffffffffffffffffffffffffffffffff1663f53037b6836040518263ffffffff1660e01b81526004016156639190617fbd565b600060405180830381600087803b15801561567d57600080fd5b505af1158015615691573d6000803e3d6000fd5b50505050615713565b6156a26151f0565b73ffffffffffffffffffffffffffffffffffffffff1663246206398c60600151846040518363ffffffff1660e01b81526004016156e0929190617b29565b600060405180830381600087803b1580156156fa57600080fd5b505af115801561570e573d6000803e3d6000fd5b505050505b61572a818c60c0015161335f90919063ffffffff16565b8a60c0018181525050858a60e0018181525050600560009054906101000a900473ffffffffffffffffffffffffffffffffffffffff1673ffffffffffffffffffffffffffffffffffffffff166344dce41c8b6040518263ffffffff1660e01b81526004016157989190617fa1565b600060405180830381600087803b1580156157b257600080fd5b505af11580156157c6573d6000803e3d6000fd5b50505050505050505050505050919050565b6000821115615a2a577f705553440000000000000000000000000000000000000000000000000000000081146158bf5761581061348d565b73ffffffffffffffffffffffffffffffffffffffff1663654a60ac82847f70555344000000000000000000000000000000000000000000000000000000006040518463ffffffff1660e01b815260040161586c93929190617b52565b60206040518083038186803b15801561588457600080fd5b505afa158015615898573d6000803e3d6000fd5b505050506040513d601f19601f820116820180604052506158bc9190810190616cfd565b91505b6158c7615a2e565b73ffffffffffffffffffffffffffffffffffffffff1663867904b46158ea616639565b73ffffffffffffffffffffffffffffffffffffffff1663eb1edd616040518163ffffffff1660e01b815260040160206040518083038186803b15801561592f57600080fd5b505afa158015615943573d6000803e3d6000fd5b505050506040513d601f19601f820116820180604052506159679190810190616a28565b846040518363ffffffff1660e01b8152600401615985929190617a26565b600060405180830381600087803b15801561599f57600080fd5b505af11580156159b3573d6000803e3d6000fd5b505050506159bf616639565b73ffffffffffffffffffffffffffffffffffffffff166322bf55ef836040518263ffffffff1660e01b81526004016159f79190617fbd565b600060405180830381600087803b158015615a1157600080fd5b505af1158015615a25573d6000803e3d6000fd5b505050505b5050565b6000615a597f50796e7468705553440000000000000000000000000000000000000000000000616423565b905090565b6000615a6982616423565b9050919050565b60008160e0015111615ab7576040517f08c379a0000000000000000000000000000000000000000000000000000000008152600401615aae90617f21565b60405180910390fd5b42615ad2600e5483610100015161335f90919063ffffffff16565b1115615b13576040517f08c379a0000000000000000000000000000000000000000000000000000000008152600401615b0a90617ca1565b60405180910390fd5b50565b80615b336008600085815260200190815260200160002054615a5e565b73ffffffffffffffffffffffffffffffffffffffff166370a08231856040518263ffffffff1660e01b8152600401615b6b919061794c565b60206040518083038186803b158015615b8357600080fd5b505afa158015615b97573d6000803e3d6000fd5b505050506040513d601f19601f82011682018060405250615bbb9190810190616cfd565b1015615bfc576040517f08c379a0000000000000000000000000000000000000000000000000000000008152600401615bf390617f61565b60405180910390fd5b505050565b600080615c1f8360c00151846080015161335f90919063ffffffff16565b905060008360800151905083604001519250615c396163c3565b73ffffffffffffffffffffffffffffffffffffffff1663d6f32e068686606001516040518363ffffffff1660e01b8152600401615c779291906179fd565b60206040518083038186803b158015615c8f57600080fd5b505afa158015615ca3573d6000803e3d6000fd5b505050506040513d601f19601f82011682018060405250615cc79190810190616bb6565b15615d07576040517f08c379a0000000000000000000000000000000000000000000000000000000008152600401615cfe90617f81565b60405180910390fd5b615d27600860008660600151815260200190815260200160002054615a5e565b73ffffffffffffffffffffffffffffffffffffffff16639dc29fac86846040518363ffffffff1660e01b8152600401615d61929190617a26565b600060405180830381600087803b158015615d7b57600080fd5b505af1158015615d8f573d6000803e3d6000fd5b505050508360a0015115615f3257615da56151f0565b73ffffffffffffffffffffffffffffffffffffffff16635246f2b9856060015186608001516040518363ffffffff1660e01b8152600401615de7929190617b29565b600060405180830381600087803b158015615e0157600080fd5b505af1158015615e15573d6000803e3d6000fd5b50505050600073ffffffffffffffffffffffffffffffffffffffff16600960008660600151815260200190815260200160002060009054906101000a900473ffffffffffffffffffffffffffffffffffffffff1673ffffffffffffffffffffffffffffffffffffffff1614615f2d57600960008560600151815260200190815260200160002060009054906101000a900473ffffffffffffffffffffffffffffffffffffffff1673ffffffffffffffffffffffffffffffffffffffff1663f3fef3a38786608001516040518363ffffffff1660e01b8152600401615efa929190617a26565b600060405180830381600087803b158015615f1457600080fd5b505af1158015615f28573d6000803e3d6000fd5b505050505b615faf565b615f3a6151f0565b73ffffffffffffffffffffffffffffffffffffffff1663e50a31b3856060015186608001516040518363ffffffff1660e01b8152600401615f7c929190617b29565b600060405180830381600087803b158015615f9657600080fd5b505af1158015615faa573d6000803e3d6000fd5b505050505b615fc18460c0015185606001516157d8565b6000846080018181525050600084604001818152505060008460c001818152505060008460e00181815250504284610100018181525050600560009054906101000a900473ffffffffffffffffffffffffffffffffffffffff1673ffffffffffffffffffffffffffffffffffffffff166344dce41c856040518263ffffffff1660e01b81526004016160539190617fa1565b600060405180830381600087803b15801561606d57600080fd5b505af1158015616081573d6000803e3d6000fd5b505050508473ffffffffffffffffffffffffffffffffffffffff168673ffffffffffffffffffffffffffffffffffffffff167f697721ed1b9d4866cb1aaa0692f62bb3abc1b01c2dafeaad053ffd4532aa7dbb866000015184876040516160ea9392919061806f565b60405180910390a350509392505050565b6161036166c4565b82905060008211801561611a575060008360c00151115b1561617f5760008360c0015183116161325782616138565b8360c001515b9050616151818560c00151613c6390919063ffffffff16565b8260c001818152505061616d8184613c6390919063ffffffff16565b925061617d8185606001516157d8565b505b60008211156163bd5761619f828460800151613c6390919063ffffffff16565b8160800181815250508060a0015115616343576161ba6151f0565b73ffffffffffffffffffffffffffffffffffffffff16635246f2b98260600151846040518363ffffffff1660e01b81526004016161f8929190617b29565b600060405180830381600087803b15801561621257600080fd5b505af1158015616226573d6000803e3d6000fd5b50505050600073ffffffffffffffffffffffffffffffffffffffff16600960008360600151815260200190815260200160002060009054906101000a900473ffffffffffffffffffffffffffffffffffffffff1673ffffffffffffffffffffffffffffffffffffffff161461633e57600960008260600151815260200190815260200160002060009054906101000a900473ffffffffffffffffffffffffffffffffffffffff1673ffffffffffffffffffffffffffffffffffffffff1663f3fef3a38260200151846040518363ffffffff1660e01b815260040161630b9291906179ab565b600060405180830381600087803b15801561632557600080fd5b505af1158015616339573d6000803e3d6000fd5b505050505b6163bc565b61634b6151f0565b73ffffffffffffffffffffffffffffffffffffffff1663e50a31b38260600151846040518363ffffffff1660e01b8152600401616389929190617b29565b600060405180830381600087803b1580156163a357600080fd5b505af11580156163b7573d6000803e3d6000fd5b505050505b5b92915050565b60006163ee7f45786368616e6765720000000000000000000000000000000000000000000000616423565b905090565b600061641e7f466c657869626c6553746f726167650000000000000000000000000000000000616423565b905090565b6000806003600084815260200190815260200160002060009054906101000a900473ffffffffffffffffffffffffffffffffffffffff169050600073ffffffffffffffffffffffffffffffffffffffff168173ffffffffffffffffffffffffffffffffffffffff1614158360405160200161649e91906178eb565b604051602081830303815290604052906164ee576040517f08c379a00000000000000000000000000000000000000000000000000000000081526004016164e59190617bbf565b60405180910390fd5b5080915050919050565b60008083141561650b5760009050616562565b600082840290508284828161651c57fe5b041461655d576040517f08c379a000000000000000000000000000000000000000000000000000000000815260040161655490617ea1565b60405180910390fd5b809150505b92915050565b600061657c8383601260ff16600a0a616669565b905092915050565b60008082116165c8576040517f08c379a00000000000000000000000000000000000000000000000000000000081526004016165bf90617dc1565b60405180910390fd5b60008284816165d357fe5b0490508091505092915050565b600080600a83816165ed57fe5b0461660185876164f890919063ffffffff16565b8161660857fe5b0490506005600a828161661757fe5b061061662457600a810190505b600a818161662e57fe5b049150509392505050565b60006166647f466565506f6f6c00000000000000000000000000000000000000000000000000616423565b905090565b60008061669484616686600a8602886164f890919063ffffffff16565b61658490919063ffffffff16565b90506005600a82816166a257fe5b06106166af57600a810190505b600a81816166b957fe5b049150509392505050565b60405180610120016040528060008152602001600073ffffffffffffffffffffffffffffffffffffffff1681526020016000815260200160008019168152602001600081526020016000151581526020016000815260200160008152602001600081525090565b60008135905061673a816182c1565b92915050565b60008151905061674f816182c1565b92915050565b600081359050616764816182d8565b92915050565b600081519050616779816182d8565b92915050565b60008083601f84011261679157600080fd5b8235905067ffffffffffffffff8111156167aa57600080fd5b6020830191508360208202830111156167c257600080fd5b9250929050565b6000813590506167d8816182ef565b92915050565b6000815190506167ed816182ef565b92915050565b60008135905061680281618306565b92915050565b60008151905061681781618306565b92915050565b6000610120828403121561683057600080fd5b61683b6101206180f9565b9050600061684b848285016169d5565b600083015250602061685f84828501616755565b6020830152506040616873848285016169d5565b6040830152506060616887848285016167f3565b606083015250608061689b848285016169d5565b60808301525060a06168af848285016167c9565b60a08301525060c06168c3848285016169d5565b60c08301525060e06168d7848285016169d5565b60e0830152506101006168ec848285016169d5565b6101008301525092915050565b6000610120828403121561690c57600080fd5b6169176101206180f9565b90506000616927848285016169ea565b600083015250602061693b8482850161676a565b602083015250604061694f848285016169ea565b604083015250606061696384828501616808565b6060830152506080616977848285016169ea565b60808301525060a061698b848285016167de565b60a08301525060c061699f848285016169ea565b60c08301525060e06169b3848285016169ea565b60e0830152506101006169c8848285016169ea565b6101008301525092915050565b6000813590506169e48161831d565b92915050565b6000815190506169f98161831d565b92915050565b600060208284031215616a1157600080fd5b6000616a1f8482850161672b565b91505092915050565b600060208284031215616a3a57600080fd5b6000616a4884828501616740565b91505092915050565b60008060408385031215616a6457600080fd5b6000616a728582860161672b565b9250506020616a83858286016167f3565b9150509250929050565b60008060408385031215616aa057600080fd5b6000616aae8582860161672b565b9250506020616abf858286016169d5565b9150509250929050565b600080600060608486031215616ade57600080fd5b6000616aec8682870161672b565b9350506020616afd868287016169d5565b9250506040616b0e868287016169d5565b9150509250925092565b60008060008060408587031215616b2e57600080fd5b600085013567ffffffffffffffff811115616b4857600080fd5b616b548782880161677f565b9450945050602085013567ffffffffffffffff811115616b7357600080fd5b616b7f8782880161677f565b925092505092959194509250565b600060208284031215616b9f57600080fd5b6000616bad848285016167c9565b91505092915050565b600060208284031215616bc857600080fd5b6000616bd6848285016167de565b91505092915050565b60008060408385031215616bf257600080fd5b6000616c00858286016167de565b9250506020616c11858286016167de565b9150509250929050565b600060208284031215616c2d57600080fd5b6000616c3b848285016167f3565b91505092915050565b60008060408385031215616c5757600080fd5b6000616c65858286016167f3565b9250506020616c76858286016169d5565b9150509250929050565b60006101208284031215616c9357600080fd5b6000616ca18482850161681d565b91505092915050565b60006101208284031215616cbd57600080fd5b6000616ccb848285016168f9565b91505092915050565b600060208284031215616ce657600080fd5b6000616cf4848285016169d5565b91505092915050565b600060208284031215616d0f57600080fd5b6000616d1d848285016169ea565b91505092915050565b60008060408385031215616d3957600080fd5b6000616d47858286016169ea565b9250506020616d58858286016167de565b9150509250929050565b60008060408385031215616d7557600080fd5b6000616d83858286016169d5565b9250506020616d94858286016167f3565b9150509250929050565b60008060408385031215616db157600080fd5b6000616dbf858286016169d5565b9250506020616dd0858286016169d5565b9150509250929050565b60008060008060808587031215616df057600080fd5b6000616dfe878288016169ea565b9450506020616e0f878288016169ea565b9350506040616e20878288016169ea565b9250506060616e31878288016169ea565b91505092959194509250565b6000616e498383616efe565b60208301905092915050565b616e5e816181f5565b82525050565b616e6d816181a3565b82525050565b616e7c81618191565b82525050565b6000616e8d82618136565b616e978185618159565b9350616ea283618126565b8060005b83811015616ed3578151616eba8882616e3d565b9750616ec58361814c565b925050600181019050616ea6565b5085935050505092915050565b616ee9816181b5565b82525050565b616ef8816181b5565b82525050565b616f07816181c1565b82525050565b616f16816181c1565b82525050565b616f2d616f28826181c1565b6182a6565b82525050565b616f3c81618207565b82525050565b616f4b8161822b565b82525050565b6000616f5c82618141565b616f668185618175565b9350616f76818560208601618273565b616f7f816182b0565b840191505092915050565b6000616f97601b83618175565b91507f496e707574206172726179206c656e677468206d69736d6174636800000000006000830152602082019050919050565b6000616fd7601683618175565b91507f4d7573742062652067726561746572207468616e2031000000000000000000006000830152602082019050919050565b6000617017600e83618175565b91507f43726174696f20746f6f206c6f770000000000000000000000000000000000006000830152602082019050919050565b6000617057601583618175565b91507f43616e6e6f7420647261772074686973206d75636800000000000000000000006000830152602082019050919050565b6000617097603583618175565b91507f596f75206d757374206265206e6f6d696e61746564206265666f726520796f7560008301527f2063616e20616363657074206f776e65727368697000000000000000000000006020830152604082019050919050565b60006170fd600f83618175565b91507f5472616e73666572206661696c656400000000000000000000000000000000006000830152602082019050919050565b600061713d601d83618175565b91507f4c6f616e20726563656e746c7920696e746572616374656420776974680000006000830152602082019050919050565b600061717d601e83618175565b91507f5061796d656e74206d7573742062652067726561746572207468616e203000006000830152602082019050919050565b60006171bd601b83618175565b91507f536166654d6174683a206164646974696f6e206f766572666c6f7700000000006000830152602082019050919050565b60006171fd601283618175565b91507f4d6178206c6f616e7320657863656564656400000000000000000000000000006000830152602082019050919050565b600061723d601e83618175565b91507f43726174696f2061626f7665206c69717569646174696f6e20726174696f00006000830152602082019050919050565b600061727d601d83618175565b91507f4e6f7420656e6f75676820636f6c6c61746572616c20746f206f70656e0000006000830152602082019050919050565b60006172bd601883618175565b91507f43757272656e6379207261746520697320696e76616c696400000000000000006000830152602082019050919050565b60006172fd602083618175565b91507f57616974696e672073656373206f7220736574746c656d656e74206f77696e676000830152602082019050919050565b600061733d601e83618175565b91507f536166654d6174683a207375627472616374696f6e206f766572666c6f7700006000830152602082019050919050565b600061737d601a83618175565b91507f536166654d6174683a206469766973696f6e206279207a65726f0000000000006000830152602082019050919050565b60006173bd601183618186565b91507f4d697373696e6720616464726573733a200000000000000000000000000000006000830152601182019050919050565b60006173fd601183618175565b91507f52617465732061726520696e76616c69640000000000000000000000000000006000830152602082019050919050565b600061743d601383618175565b91507f4f70656e696e672069732064697361626c6564000000000000000000000000006000830152602082019050919050565b600061747d600a83618175565b91507f4d6178203120686f7572000000000000000000000000000000000000000000006000830152602082019050919050565b60006174bd601a83618175565b91507f436f6c6c61746572616c207261746520697320696e76616c69640000000000006000830152602082019050919050565b60006174fd601b83618175565b91507f45786365656473206d617820626f72726f77696e6720706f77657200000000006000830152602082019050919050565b600061753d602f83618175565b91507f4f6e6c792074686520636f6e7472616374206f776e6572206d6179207065726660008301527f6f726d207468697320616374696f6e00000000000000000000000000000000006020830152604082019050919050565b60006175a3602183618175565b91507f536166654d6174683a206d756c7469706c69636174696f6e206f766572666c6f60008301527f77000000000000000000000000000000000000000000000000000000000000006020830152604082019050919050565b6000617609601f83618175565b91507f4e6f7420616c6c6f77656420746f20697373756520746869732070796e7468006000830152602082019050919050565b6000617649601e83618175565b91507f4465706f736974206d7573742062652067726561746572207468616e203000006000830152602082019050919050565b6000617689601a83618175565b91507f44656274206c696d6974206f7220696e76616c696420726174650000000000006000830152602082019050919050565b60006176c9601983618186565b91507f5265736f6c766572206d697373696e67207461726765743a20000000000000006000830152601982019050919050565b600061770960008361816a565b9150600082019050919050565b6000617723601383618175565b91507f4c6f616e20646f6573206e6f74206578697374000000000000000000000000006000830152602082019050919050565b6000617763601f83618175565b91507f5265656e7472616e637947756172643a207265656e7472616e742063616c6c006000830152602082019050919050565b60006177a3601883618175565b91507f4e6f7420656e6f7567682070796e74682062616c616e636500000000000000006000830152602082019050919050565b60006177e3601b83618175565b91507f57616974696e67206f7220736574746c656d656e74206f77696e6700000000006000830152602082019050919050565b6101208201600082015161782d60008501826178cd565b5060208201516178406020850182616e64565b50604082015161785360408501826178cd565b5060608201516178666060850182616efe565b50608082015161787960808501826178cd565b5060a082015161788c60a0850182616ee0565b5060c082015161789f60c08501826178cd565b5060e08201516178b260e08501826178cd565b506101008201516178c76101008501826178cd565b50505050565b6178d6816181eb565b82525050565b6178e5816181eb565b82525050565b60006178f6826173b0565b91506179028284616f1c565b60208201915081905092915050565b600061791c826176bc565b91506179288284616f1c565b60208201915081905092915050565b6000617942826176fc565b9150819050919050565b60006020820190506179616000830184616e73565b92915050565b600060208201905061797c6000830184616e55565b92915050565b60006040820190506179976000830185616e55565b6179a46020830184616f0d565b9392505050565b60006040820190506179c06000830185616e55565b6179cd60208301846178dc565b9392505050565b60006040820190506179e96000830185616e73565b6179f66020830184616e73565b9392505050565b6000604082019050617a126000830185616e73565b617a1f6020830184616f0d565b9392505050565b6000604082019050617a3b6000830185616e73565b617a4860208301846178dc565b9392505050565b60006020820190508181036000830152617a698184616e82565b905092915050565b6000602082019050617a866000830184616eef565b92915050565b6000602082019050617aa16000830184616f0d565b92915050565b6000604082019050617abc6000830185616f0d565b617ac96020830184616e73565b9392505050565b6000604082019050617ae56000830185616f0d565b617af26020830184616f0d565b9392505050565b6000604082019050617b0e6000830185616f0d565b8181036020830152617b208184616f51565b90509392505050565b6000604082019050617b3e6000830185616f0d565b617b4b60208301846178dc565b9392505050565b6000606082019050617b676000830186616f0d565b617b7460208301856178dc565b617b816040830184616f0d565b949350505050565b6000602082019050617b9e6000830184616f33565b92915050565b6000602082019050617bb96000830184616f42565b92915050565b60006020820190508181036000830152617bd98184616f51565b905092915050565b60006020820190508181036000830152617bfa81616f8a565b9050919050565b60006020820190508181036000830152617c1a81616fca565b9050919050565b60006020820190508181036000830152617c3a8161700a565b9050919050565b60006020820190508181036000830152617c5a8161704a565b9050919050565b60006020820190508181036000830152617c7a8161708a565b9050919050565b60006020820190508181036000830152617c9a816170f0565b9050919050565b60006020820190508181036000830152617cba81617130565b9050919050565b60006020820190508181036000830152617cda81617170565b9050919050565b60006020820190508181036000830152617cfa816171b0565b9050919050565b60006020820190508181036000830152617d1a816171f0565b9050919050565b60006020820190508181036000830152617d3a81617230565b9050919050565b60006020820190508181036000830152617d5a81617270565b9050919050565b60006020820190508181036000830152617d7a816172b0565b9050919050565b60006020820190508181036000830152617d9a816172f0565b9050919050565b60006020820190508181036000830152617dba81617330565b9050919050565b60006020820190508181036000830152617dda81617370565b9050919050565b60006020820190508181036000830152617dfa816173f0565b9050919050565b60006020820190508181036000830152617e1a81617430565b9050919050565b60006020820190508181036000830152617e3a81617470565b9050919050565b60006020820190508181036000830152617e5a816174b0565b9050919050565b60006020820190508181036000830152617e7a816174f0565b9050919050565b60006020820190508181036000830152617e9a81617530565b9050919050565b60006020820190508181036000830152617eba81617596565b9050919050565b60006020820190508181036000830152617eda816175fc565b9050919050565b60006020820190508181036000830152617efa8161763c565b9050919050565b60006020820190508181036000830152617f1a8161767c565b9050919050565b60006020820190508181036000830152617f3a81617716565b9050919050565b60006020820190508181036000830152617f5a81617756565b9050919050565b60006020820190508181036000830152617f7a81617796565b9050919050565b60006020820190508181036000830152617f9a816177d6565b9050919050565b600061012082019050617fb76000830184617816565b92915050565b6000602082019050617fd260008301846178dc565b92915050565b6000608082019050617fed60008301876178dc565b617ffa6020830186616e55565b61800760408301856178dc565b61801460608301846178dc565b95945050505050565b600060408201905061803260008301856178dc565b61803f6020830184616f0d565b9392505050565b600060408201905061805b60008301856178dc565b61806860208301846178dc565b9392505050565b600060608201905061808460008301866178dc565b61809160208301856178dc565b61809e60408301846178dc565b949350505050565b600060a0820190506180bb60008301886178dc565b6180c860208301876178dc565b6180d560408301866178dc565b6180e26060830185616f0d565b6180ef60808301846178dc565b9695505050505050565b6000604051905081810181811067ffffffffffffffff8211171561811c57600080fd5b8060405250919050565b6000819050602082019050919050565b600081519050919050565b600081519050919050565b6000602082019050919050565b600082825260208201905092915050565b600081905092915050565b600082825260208201905092915050565b600081905092915050565b600061819c826181cb565b9050919050565b60006181ae826181cb565b9050919050565b60008115159050919050565b6000819050919050565b600073ffffffffffffffffffffffffffffffffffffffff82169050919050565b6000819050919050565b60006182008261824f565b9050919050565b600061821282618219565b9050919050565b6000618224826181cb565b9050919050565b60006182368261823d565b9050919050565b6000618248826181cb565b9050919050565b600061825a82618261565b9050919050565b600061826c826181cb565b9050919050565b60005b83811015618291578082015181840152602081019050618276565b838111156182a0576000848401525b50505050565b6000819050919050565b6000601f19601f8301169050919050565b6182ca81618191565b81146182d557600080fd5b50565b6182e1816181a3565b81146182ec57600080fd5b50565b6182f8816181b5565b811461830357600080fd5b50565b61830f816181c1565b811461831a57600080fd5b50565b618326816181eb565b811461833157600080fd5b5056fea365627a7a723158204559104b2a959153cc65bdcb95b01d82991509368b8e7812a302733a15357c556c6578706572696d656e74616cf564736f6c63430005100040",
  "linkReferences": {
    "contracts/SafeDecimalMath.sol": {
      "SafeDecimalMath": [
        {
          "length": 20,
          "start": 4136
        },
        {
          "length": 20,
          "start": 4473
        },
        {
          "length": 20,
          "start": 6256
        },
        {
          "length": 20,
          "start": 9783
        },
        {
          "length": 20,
          "start": 18608
        },
        {
          "length": 20,
          "start": 23102
        }
      ]
    }
  },
  "deployedLinkReferences": {
    "contracts/SafeDecimalMath.sol": {
      "SafeDecimalMath": [
        {
          "length": 20,
          "start": 2814
        },
        {
          "length": 20,
          "start": 3151
        },
        {
          "length": 20,
          "start": 4934
        },
        {
          "length": 20,
          "start": 8461
        },
        {
          "length": 20,
          "start": 17286
        },
        {
          "length": 20,
          "start": 21780
        }
      ]
    }
  }
}