{
  "_format": "hh-sol-artifact-1",
  "contractName": "CollateralState",
  "sourceName": "contracts/CollateralState.sol",
  "abi": [
    {
      "inputs": [
        {
          "internalType": "address",
          "name": "_owner",
          "type": "address"
        },
        {
          "internalType": "address",
          "name": "_associatedContract",
          "type": "address"
        }
      ],
      "payable": false,
      "stateMutability": "nonpayable",
      "type": "constructor"
    },
    {
      "anonymous": false,
      "inputs": [
        {
          "indexed": false,
          "internalType": "address",
          "name": "associatedContract",
          "type": "address"
        }
      ],
      "name": "AssociatedContractUpdated",
      "type": "event"
    },
    {
      "anonymous": false,
      "inputs": [
        {
          "indexed": false,
          "internalType": "address",
          "name": "oldOwner",
          "type": "address"
        },
        {
          "indexed": false,
          "internalType": "address",
          "name": "newOwner",
          "type": "address"
        }
      ],
      "name": "OwnerChanged",
      "type": "event"
    },
    {
      "anonymous": false,
      "inputs": [
        {
          "indexed": false,
          "internalType": "address",
          "name": "newOwner",
          "type": "address"
        }
      ],
      "name": "OwnerNominated",
      "type": "event"
    },
    {
      "constant": false,
      "inputs": [],
      "name": "acceptOwnership",
      "outputs": [],
      "payable": false,
      "stateMutability": "nonpayable",
      "type": "function"
    },
    {
      "constant": true,
      "inputs": [],
      "name": "associatedContract",
      "outputs": [
        {
          "internalType": "address",
          "name": "",
          "type": "address"
        }
      ],
      "payable": false,
      "stateMutability": "view",
      "type": "function"
    },
    {
      "constant": false,
      "inputs": [
        {
          "components": [
            {
              "internalType": "uint256",
              "name": "id",
              "type": "uint256"
            },
            {
              "internalType": "address payable",
              "name": "account",
              "type": "address"
            },
            {
              "internalType": "uint256",
              "name": "collateral",
              "type": "uint256"
            },
            {
              "internalType": "bytes32",
              "name": "currency",
              "type": "bytes32"
            },
            {
              "internalType": "uint256",
              "name": "amount",
              "type": "uint256"
            },
            {
              "internalType": "bool",
              "name": "short",
              "type": "bool"
            },
            {
              "internalType": "uint256",
              "name": "accruedInterest",
              "type": "uint256"
            },
            {
              "internalType": "uint256",
              "name": "interestIndex",
              "type": "uint256"
            },
            {
              "internalType": "uint256",
              "name": "lastInteraction",
              "type": "uint256"
            }
          ],
          "internalType": "struct ICollateralLoan.Loan",
          "name": "loan",
          "type": "tuple"
        }
      ],
      "name": "createLoan",
      "outputs": [],
      "payable": false,
      "stateMutability": "nonpayable",
      "type": "function"
    },
    {
      "constant": true,
      "inputs": [
        {
          "internalType": "address",
          "name": "account",
          "type": "address"
        },
        {
          "internalType": "uint256",
          "name": "loanID",
          "type": "uint256"
        }
      ],
      "name": "getLoan",
      "outputs": [
        {
          "components": [
            {
              "internalType": "uint256",
              "name": "id",
              "type": "uint256"
            },
            {
              "internalType": "address payable",
              "name": "account",
              "type": "address"
            },
            {
              "internalType": "uint256",
              "name": "collateral",
              "type": "uint256"
            },
            {
              "internalType": "bytes32",
              "name": "currency",
              "type": "bytes32"
            },
            {
              "internalType": "uint256",
              "name": "amount",
              "type": "uint256"
            },
            {
              "internalType": "bool",
              "name": "short",
              "type": "bool"
            },
            {
              "internalType": "uint256",
              "name": "accruedInterest",
              "type": "uint256"
            },
            {
              "internalType": "uint256",
              "name": "interestIndex",
              "type": "uint256"
            },
            {
              "internalType": "uint256",
              "name": "lastInteraction",
              "type": "uint256"
            }
          ],
          "internalType": "struct ICollateralLoan.Loan",
          "name": "",
          "type": "tuple"
        }
      ],
      "payable": false,
      "stateMutability": "view",
      "type": "function"
    },
    {
      "constant": true,
      "inputs": [
        {
          "internalType": "address",
          "name": "account",
          "type": "address"
        }
      ],
      "name": "getNumLoans",
      "outputs": [
        {
          "internalType": "uint256",
          "name": "numLoans",
          "type": "uint256"
        }
      ],
      "payable": false,
      "stateMutability": "view",
      "type": "function"
    },
    {
      "constant": true,
      "inputs": [
        {
          "internalType": "address",
          "name": "",
          "type": "address"
        },
        {
          "internalType": "uint256",
          "name": "",
          "type": "uint256"
        }
      ],
      "name": "loans",
      "outputs": [
        {
          "internalType": "uint256",
          "name": "id",
          "type": "uint256"
        },
        {
          "internalType": "address payable",
          "name": "account",
          "type": "address"
        },
        {
          "internalType": "uint256",
          "name": "collateral",
          "type": "uint256"
        },
        {
          "internalType": "bytes32",
          "name": "currency",
          "type": "bytes32"
        },
        {
          "internalType": "uint256",
          "name": "amount",
          "type": "uint256"
        },
        {
          "internalType": "bool",
          "name": "short",
          "type": "bool"
        },
        {
          "internalType": "uint256",
          "name": "accruedInterest",
          "type": "uint256"
        },
        {
          "internalType": "uint256",
          "name": "interestIndex",
          "type": "uint256"
        },
        {
          "internalType": "uint256",
          "name": "lastInteraction",
          "type": "uint256"
        }
      ],
      "payable": false,
      "stateMutability": "view",
      "type": "function"
    },
    {
      "constant": false,
      "inputs": [
        {
          "internalType": "address",
          "name": "_owner",
          "type": "address"
        }
      ],
      "name": "nominateNewOwner",
      "outputs": [],
      "payable": false,
      "stateMutability": "nonpayable",
      "type": "function"
    },
    {
      "constant": true,
      "inputs": [],
      "name": "nominatedOwner",
      "outputs": [
        {
          "internalType": "address",
          "name": "",
          "type": "address"
        }
      ],
      "payable": false,
      "stateMutability": "view",
      "type": "function"
    },
    {
      "constant": true,
      "inputs": [],
      "name": "owner",
      "outputs": [
        {
          "internalType": "address",
          "name": "",
          "type": "address"
        }
      ],
      "payable": false,
      "stateMutability": "view",
      "type": "function"
    },
    {
      "constant": false,
      "inputs": [
        {
          "internalType": "address",
          "name": "_associatedContract",
          "type": "address"
        }
      ],
      "name": "setAssociatedContract",
      "outputs": [],
      "payable": false,
      "stateMutability": "nonpayable",
      "type": "function"
    },
    {
      "constant": false,
      "inputs": [
        {
          "components": [
            {
              "internalType": "uint256",
              "name": "id",
              "type": "uint256"
            },
            {
              "internalType": "address payable",
              "name": "account",
              "type": "address"
            },
            {
              "internalType": "uint256",
              "name": "collateral",
              "type": "uint256"
            },
            {
              "internalType": "bytes32",
              "name": "currency",
              "type": "bytes32"
            },
            {
              "internalType": "uint256",
              "name": "amount",
              "type": "uint256"
            },
            {
              "internalType": "bool",
              "name": "short",
              "type": "bool"
            },
            {
              "internalType": "uint256",
              "name": "accruedInterest",
              "type": "uint256"
            },
            {
              "internalType": "uint256",
              "name": "interestIndex",
              "type": "uint256"
            },
            {
              "internalType": "uint256",
              "name": "lastInteraction",
              "type": "uint256"
            }
          ],
          "internalType": "struct ICollateralLoan.Loan",
          "name": "loan",
          "type": "tuple"
        }
      ],
      "name": "updateLoan",
      "outputs": [],
      "payable": false,
      "stateMutability": "nonpayable",
      "type": "function"
    }
  ],
  "bytecode": "0x60806040523480156200001157600080fd5b506040516200183738038062001837833981810160405262000037919081019062000257565b8082600073ffffffffffffffffffffffffffffffffffffffff168173ffffffffffffffffffffffffffffffffffffffff161415620000ac576040517f08c379a0000000000000000000000000000000000000000000000000000000008152600401620000a390620003aa565b60405180910390fd5b806000806101000a81548173ffffffffffffffffffffffffffffffffffffffff021916908373ffffffffffffffffffffffffffffffffffffffff1602179055507fb532073b38c83145e3e5135377a08bf9aab55bc0fd7c1179cd4fb995d2a5159c600082604051620001209291906200035b565b60405180910390a150600073ffffffffffffffffffffffffffffffffffffffff166000809054906101000a900473ffffffffffffffffffffffffffffffffffffffff1673ffffffffffffffffffffffffffffffffffffffff161415620001bd576040517f08c379a0000000000000000000000000000000000000000000000000000000008152600401620001b49062000388565b60405180910390fd5b80600260006101000a81548173ffffffffffffffffffffffffffffffffffffffff021916908373ffffffffffffffffffffffffffffffffffffffff1602179055507f73f20cff579e8a4086fa607db83867595f1b6a798e718c0bfa0b94a404128e03816040516200022f91906200033e565b60405180910390a150505062000467565b60008151905062000251816200044d565b92915050565b600080604083850312156200026b57600080fd5b60006200027b8582860162000240565b92505060206200028e8582860162000240565b9150509250929050565b620002a38162000411565b82525050565b620002b481620003dd565b82525050565b6000620002c9601183620003cc565b91507f4f776e6572206d757374206265207365740000000000000000000000000000006000830152602082019050919050565b60006200030b601983620003cc565b91507f4f776e657220616464726573732063616e6e6f742062652030000000000000006000830152602082019050919050565b6000602082019050620003556000830184620002a9565b92915050565b600060408201905062000372600083018562000298565b620003816020830184620002a9565b9392505050565b60006020820190508181036000830152620003a381620002ba565b9050919050565b60006020820190508181036000830152620003c581620002fc565b9050919050565b600082825260208201905092915050565b6000620003ea82620003f1565b9050919050565b600073ffffffffffffffffffffffffffffffffffffffff82169050919050565b60006200041e8262000425565b9050919050565b6000620004328262000439565b9050919050565b60006200044682620003f1565b9050919050565b6200045881620003dd565b81146200046457600080fd5b50565b6113c080620004776000396000f3fe608060405234801561001057600080fd5b50600436106100a95760003560e01c806379ba50971161007157806379ba50971461013c5780638da5cb5b1461014657806398c61c3714610164578063a1c515861461019c578063aefc4ccb146101cc578063e0b6adbc146101ea576100a9565b80631627540c146100ae57806344dce41c146100ca57806352f445ca146100e657806353a47bb7146101025780635c33120414610120575b600080fd5b6100c860048036036100c39190810190610e01565b61021a565b005b6100e460048036036100df9190810190610e66565b61029d565b005b61010060048036036100fb9190810190610e01565b6104d0565b005b61010a610553565b6040516101179190611100565b60405180910390f35b61013a60048036036101359190810190610e66565b610579565b005b61014461072c565b005b61014e6108de565b60405161015b9190611100565b60405180910390f35b61017e60048036036101799190810190610e2a565b610903565b604051610193999897969594939291906111db565b60405180910390f35b6101b660048036036101b19190810190610e2a565b610998565b6040516101c391906111a4565b60405180910390f35b6101d4610b52565b6040516101e19190611100565b60405180910390f35b61020460048036036101ff9190810190610e01565b610b78565b60405161021191906111c0565b60405180910390f35b610222610bc4565b80600160006101000a81548173ffffffffffffffffffffffffffffffffffffffff021916908373ffffffffffffffffffffffffffffffffffffffff1602179055507f906a1c6bd7e3091ea86693dd029a831c19049ce77f1dce2ce0bab1cacbabce22816040516102929190611100565b60405180910390a150565b600260009054906101000a900473ffffffffffffffffffffffffffffffffffffffff1673ffffffffffffffffffffffffffffffffffffffff163373ffffffffffffffffffffffffffffffffffffffff161461032d576040517f08c379a000000000000000000000000000000000000000000000000000000000815260040161032490611184565b60405180910390fd5b600060036000836020015173ffffffffffffffffffffffffffffffffffffffff1673ffffffffffffffffffffffffffffffffffffffff168152602001908152602001600020905060008090505b81805490508110156104cb57826000015182828154811061039757fe5b90600052602060002090600902016000015414156104be578260036000856020015173ffffffffffffffffffffffffffffffffffffffff1673ffffffffffffffffffffffffffffffffffffffff16815260200190815260200160002082815481106103fe57fe5b90600052602060002090600902016000820151816000015560208201518160010160006101000a81548173ffffffffffffffffffffffffffffffffffffffff021916908373ffffffffffffffffffffffffffffffffffffffff16021790555060408201518160020155606082015181600301556080820151816004015560a08201518160050160006101000a81548160ff02191690831515021790555060c0820151816006015560e0820151816007015561010082015181600801559050505b808060010191505061037a565b505050565b6104d8610bc4565b80600260006101000a81548173ffffffffffffffffffffffffffffffffffffffff021916908373ffffffffffffffffffffffffffffffffffffffff1602179055507f73f20cff579e8a4086fa607db83867595f1b6a798e718c0bfa0b94a404128e03816040516105489190611100565b60405180910390a150565b600160009054906101000a900473ffffffffffffffffffffffffffffffffffffffff1681565b600260009054906101000a900473ffffffffffffffffffffffffffffffffffffffff1673ffffffffffffffffffffffffffffffffffffffff163373ffffffffffffffffffffffffffffffffffffffff1614610609576040517f08c379a000000000000000000000000000000000000000000000000000000000815260040161060090611184565b60405180910390fd5b60036000826020015173ffffffffffffffffffffffffffffffffffffffff1673ffffffffffffffffffffffffffffffffffffffff16815260200190815260200160002081908060018154018082558091505090600182039060005260206000209060090201600090919290919091506000820151816000015560208201518160010160006101000a81548173ffffffffffffffffffffffffffffffffffffffff021916908373ffffffffffffffffffffffffffffffffffffffff16021790555060408201518160020155606082015181600301556080820151816004015560a08201518160050160006101000a81548160ff02191690831515021790555060c0820151816006015560e08201518160070155610100820151816008015550505050565b600160009054906101000a900473ffffffffffffffffffffffffffffffffffffffff1673ffffffffffffffffffffffffffffffffffffffff163373ffffffffffffffffffffffffffffffffffffffff16146107bc576040517f08c379a00000000000000000000000000000000000000000000000000000000081526004016107b390611144565b60405180910390fd5b7fb532073b38c83145e3e5135377a08bf9aab55bc0fd7c1179cd4fb995d2a5159c6000809054906101000a900473ffffffffffffffffffffffffffffffffffffffff16600160009054906101000a900473ffffffffffffffffffffffffffffffffffffffff1660405161083092919061111b565b60405180910390a1600160009054906101000a900473ffffffffffffffffffffffffffffffffffffffff166000806101000a81548173ffffffffffffffffffffffffffffffffffffffff021916908373ffffffffffffffffffffffffffffffffffffffff1602179055506000600160006101000a81548173ffffffffffffffffffffffffffffffffffffffff021916908373ffffffffffffffffffffffffffffffffffffffff160217905550565b6000809054906101000a900473ffffffffffffffffffffffffffffffffffffffff1681565b6003602052816000526040600020818154811061091c57fe5b9060005260206000209060090201600091509150508060000154908060010160009054906101000a900473ffffffffffffffffffffffffffffffffffffffff16908060020154908060030154908060040154908060050160009054906101000a900460ff16908060060154908060070154908060080154905089565b6109a0610c55565b6060600360008573ffffffffffffffffffffffffffffffffffffffff1673ffffffffffffffffffffffffffffffffffffffff168152602001908152602001600020805480602002602001604051908101604052809291908181526020016000905b82821015610aeb578382906000526020600020906009020160405180610120016040529081600082015481526020016001820160009054906101000a900473ffffffffffffffffffffffffffffffffffffffff1673ffffffffffffffffffffffffffffffffffffffff1673ffffffffffffffffffffffffffffffffffffffff1681526020016002820154815260200160038201548152602001600482015481526020016005820160009054906101000a900460ff16151515158152602001600682015481526020016007820154815260200160088201548152505081526020019060010190610a01565b50505050905060008090505b8151811015610b495783828281518110610b0d57fe5b6020026020010151600001511415610b3c57818181518110610b2b57fe5b602002602001015192505050610b4c565b8080600101915050610af7565b50505b92915050565b600260009054906101000a900473ffffffffffffffffffffffffffffffffffffffff1681565b6000600360008373ffffffffffffffffffffffffffffffffffffffff1673ffffffffffffffffffffffffffffffffffffffff168152602001908152602001600020805490509050919050565b6000809054906101000a900473ffffffffffffffffffffffffffffffffffffffff1673ffffffffffffffffffffffffffffffffffffffff163373ffffffffffffffffffffffffffffffffffffffff1614610c53576040517f08c379a0000000000000000000000000000000000000000000000000000000008152600401610c4a90611164565b60405180910390fd5b565b60405180610120016040528060008152602001600073ffffffffffffffffffffffffffffffffffffffff1681526020016000815260200160008019168152602001600081526020016000151581526020016000815260200160008152602001600081525090565b600081359050610ccb8161130a565b92915050565b600081359050610ce081611321565b92915050565b600081359050610cf581611338565b92915050565b600081359050610d0a8161134f565b92915050565b60006101208284031215610d2357600080fd5b610d2e610120611268565b90506000610d3e84828501610dec565b6000830152506020610d5284828501610cd1565b6020830152506040610d6684828501610dec565b6040830152506060610d7a84828501610cfb565b6060830152506080610d8e84828501610dec565b60808301525060a0610da284828501610ce6565b60a08301525060c0610db684828501610dec565b60c08301525060e0610dca84828501610dec565b60e083015250610100610ddf84828501610dec565b6101008301525092915050565b600081359050610dfb81611366565b92915050565b600060208284031215610e1357600080fd5b6000610e2184828501610cbc565b91505092915050565b60008060408385031215610e3d57600080fd5b6000610e4b85828601610cbc565b9250506020610e5c85828601610dec565b9150509250929050565b60006101208284031215610e7957600080fd5b6000610e8784828501610d10565b91505092915050565b610e99816112b8565b82525050565b610ea8816112b8565b82525050565b610eb7816112a6565b82525050565b610ec6816112ca565b82525050565b610ed5816112ca565b82525050565b610ee4816112d6565b82525050565b610ef3816112d6565b82525050565b6000610f06603583611295565b91507f596f75206d757374206265206e6f6d696e61746564206265666f726520796f7560008301527f2063616e20616363657074206f776e65727368697000000000000000000000006020830152604082019050919050565b6000610f6c602f83611295565b91507f4f6e6c792074686520636f6e7472616374206f776e6572206d6179207065726660008301527f6f726d207468697320616374696f6e00000000000000000000000000000000006020830152604082019050919050565b6000610fd2603483611295565b91507f4f6e6c7920746865206173736f63696174656420636f6e74726163742063616e60008301527f20706572666f726d207468697320616374696f6e0000000000000000000000006020830152604082019050919050565b6101208201600082015161104260008501826110e2565b5060208201516110556020850182610e90565b50604082015161106860408501826110e2565b50606082015161107b6060850182610edb565b50608082015161108e60808501826110e2565b5060a08201516110a160a0850182610ebd565b5060c08201516110b460c08501826110e2565b5060e08201516110c760e08501826110e2565b506101008201516110dc6101008501826110e2565b50505050565b6110eb81611300565b82525050565b6110fa81611300565b82525050565b60006020820190506111156000830184610eae565b92915050565b60006040820190506111306000830185610eae565b61113d6020830184610eae565b9392505050565b6000602082019050818103600083015261115d81610ef9565b9050919050565b6000602082019050818103600083015261117d81610f5f565b9050919050565b6000602082019050818103600083015261119d81610fc5565b9050919050565b6000610120820190506111ba600083018461102b565b92915050565b60006020820190506111d560008301846110f1565b92915050565b6000610120820190506111f1600083018c6110f1565b6111fe602083018b610e9f565b61120b604083018a6110f1565b6112186060830189610eea565b61122560808301886110f1565b61123260a0830187610ecc565b61123f60c08301866110f1565b61124c60e08301856110f1565b61125a6101008301846110f1565b9a9950505050505050505050565b6000604051905081810181811067ffffffffffffffff8211171561128b57600080fd5b8060405250919050565b600082825260208201905092915050565b60006112b1826112e0565b9050919050565b60006112c3826112e0565b9050919050565b60008115159050919050565b6000819050919050565b600073ffffffffffffffffffffffffffffffffffffffff82169050919050565b6000819050919050565b611313816112a6565b811461131e57600080fd5b50565b61132a816112b8565b811461133557600080fd5b50565b611341816112ca565b811461134c57600080fd5b50565b611358816112d6565b811461136357600080fd5b50565b61136f81611300565b811461137a57600080fd5b5056fea365627a7a7231582045ff282aac187187f5a7c0580a862c8e85f963f789dc226b6a6f18a9f6f5ba836c6578706572696d656e74616cf564736f6c63430005100040",
  "linkReferences": {},
  "deployedLinkReferences": {}
}