{
  "_format": "hh-sol-artifact-1",
  "contractName": "FeePool",
  "sourceName": "contracts/FeePool.sol",
  "abi": [
    {
      "inputs": [
        {
          "internalType": "address payable",
          "name": "_proxy",
          "type": "address"
        },
        {
          "internalType": "address",
          "name": "_owner",
          "type": "address"
        },
        {
          "internalType": "address",
          "name": "_resolver",
          "type": "address"
        }
      ],
      "payable": false,
      "stateMutability": "nonpayable",
      "type": "constructor"
    },
    {
      "anonymous": false,
      "inputs": [
        {
          "indexed": false,
          "internalType": "bytes32",
          "name": "name",
          "type": "bytes32"
        },
        {
          "indexed": false,
          "internalType": "address",
          "name": "destination",
          "type": "address"
        }
      ],
      "name": "CacheUpdated",
      "type": "event"
    },
    {
      "anonymous": false,
      "inputs": [
        {
          "indexed": false,
          "internalType": "uint256",
          "name": "feePeriodId",
          "type": "uint256"
        }
      ],
      "name": "FeePeriodClosed",
      "type": "event"
    },
    {
      "anonymous": false,
      "inputs": [
        {
          "indexed": false,
          "internalType": "address",
          "name": "account",
          "type": "address"
        },
        {
          "indexed": false,
          "internalType": "uint256",
          "name": "pUSDAmount",
          "type": "uint256"
        },
        {
          "indexed": false,
          "internalType": "uint256",
          "name": "snxRewards",
          "type": "uint256"
        }
      ],
      "name": "FeesClaimed",
      "type": "event"
    },
    {
      "anonymous": false,
      "inputs": [
        {
          "indexed": true,
          "internalType": "address",
          "name": "account",
          "type": "address"
        },
        {
          "indexed": false,
          "internalType": "uint256",
          "name": "debtRatio",
          "type": "uint256"
        },
        {
          "indexed": false,
          "internalType": "uint256",
          "name": "debtEntryIndex",
          "type": "uint256"
        },
        {
          "indexed": false,
          "internalType": "uint256",
          "name": "feePeriodStartingDebtIndex",
          "type": "uint256"
        }
      ],
      "name": "IssuanceDebtRatioEntry",
      "type": "event"
    },
    {
      "anonymous": false,
      "inputs": [
        {
          "indexed": false,
          "internalType": "address",
          "name": "oldOwner",
          "type": "address"
        },
        {
          "indexed": false,
          "internalType": "address",
          "name": "newOwner",
          "type": "address"
        }
      ],
      "name": "OwnerChanged",
      "type": "event"
    },
    {
      "anonymous": false,
      "inputs": [
        {
          "indexed": false,
          "internalType": "address",
          "name": "newOwner",
          "type": "address"
        }
      ],
      "name": "OwnerNominated",
      "type": "event"
    },
    {
      "anonymous": false,
      "inputs": [
        {
          "indexed": false,
          "internalType": "address",
          "name": "proxyAddress",
          "type": "address"
        }
      ],
      "name": "ProxyUpdated",
      "type": "event"
    },
    {
      "constant": true,
      "inputs": [],
      "name": "FEE_ADDRESS",
      "outputs": [
        {
          "internalType": "address",
          "name": "",
          "type": "address"
        }
      ],
      "payable": false,
      "stateMutability": "view",
      "type": "function"
    },
    {
      "constant": true,
      "inputs": [],
      "name": "FEE_PERIOD_LENGTH",
      "outputs": [
        {
          "internalType": "uint8",
          "name": "",
          "type": "uint8"
        }
      ],
      "payable": false,
      "stateMutability": "view",
      "type": "function"
    },
    {
      "constant": false,
      "inputs": [],
      "name": "acceptOwnership",
      "outputs": [],
      "payable": false,
      "stateMutability": "nonpayable",
      "type": "function"
    },
    {
      "constant": false,
      "inputs": [
        {
          "internalType": "address",
          "name": "account",
          "type": "address"
        },
        {
          "internalType": "uint256",
          "name": "debtRatio",
          "type": "uint256"
        },
        {
          "internalType": "uint256",
          "name": "debtEntryIndex",
          "type": "uint256"
        }
      ],
      "name": "appendAccountIssuanceRecord",
      "outputs": [],
      "payable": false,
      "stateMutability": "nonpayable",
      "type": "function"
    },
    {
      "constant": false,
      "inputs": [],
      "name": "claimFees",
      "outputs": [
        {
          "internalType": "bool",
          "name": "",
          "type": "bool"
        }
      ],
      "payable": false,
      "stateMutability": "nonpayable",
      "type": "function"
    },
    {
      "constant": false,
      "inputs": [
        {
          "internalType": "address",
          "name": "claimingForAddress",
          "type": "address"
        }
      ],
      "name": "claimOnBehalf",
      "outputs": [
        {
          "internalType": "bool",
          "name": "",
          "type": "bool"
        }
      ],
      "payable": false,
      "stateMutability": "nonpayable",
      "type": "function"
    },
    {
      "constant": false,
      "inputs": [],
      "name": "closeCurrentFeePeriod",
      "outputs": [],
      "payable": false,
      "stateMutability": "nonpayable",
      "type": "function"
    },
    {
      "constant": true,
      "inputs": [
        {
          "internalType": "address",
          "name": "account",
          "type": "address"
        },
        {
          "internalType": "uint256",
          "name": "period",
          "type": "uint256"
        }
      ],
      "name": "effectiveDebtRatioForPeriod",
      "outputs": [
        {
          "internalType": "uint256",
          "name": "",
          "type": "uint256"
        }
      ],
      "payable": false,
      "stateMutability": "view",
      "type": "function"
    },
    {
      "constant": true,
      "inputs": [],
      "name": "feePeriodDuration",
      "outputs": [
        {
          "internalType": "uint256",
          "name": "",
          "type": "uint256"
        }
      ],
      "payable": false,
      "stateMutability": "view",
      "type": "function"
    },
    {
      "constant": true,
      "inputs": [
        {
          "internalType": "address",
          "name": "account",
          "type": "address"
        }
      ],
      "name": "feesAvailable",
      "outputs": [
        {
          "internalType": "uint256",
          "name": "",
          "type": "uint256"
        },
        {
          "internalType": "uint256",
          "name": "",
          "type": "uint256"
        }
      ],
      "payable": false,
      "stateMutability": "view",
      "type": "function"
    },
    {
      "constant": true,
      "inputs": [
        {
          "internalType": "address",
          "name": "account",
          "type": "address"
        }
      ],
      "name": "feesByPeriod",
      "outputs": [
        {
          "internalType": "uint256[2][2]",
          "name": "results",
          "type": "uint256[2][2]"
        }
      ],
      "payable": false,
      "stateMutability": "view",
      "type": "function"
    },
    {
      "constant": true,
      "inputs": [
        {
          "internalType": "address",
          "name": "_claimingAddress",
          "type": "address"
        }
      ],
      "name": "getLastFeeWithdrawal",
      "outputs": [
        {
          "internalType": "uint256",
          "name": "",
          "type": "uint256"
        }
      ],
      "payable": false,
      "stateMutability": "view",
      "type": "function"
    },
    {
      "constant": true,
      "inputs": [],
      "name": "getPenaltyThresholdRatio",
      "outputs": [
        {
          "internalType": "uint256",
          "name": "",
          "type": "uint256"
        }
      ],
      "payable": false,
      "stateMutability": "view",
      "type": "function"
    },
    {
      "constant": false,
      "inputs": [
        {
          "internalType": "uint256",
          "name": "feePeriodIndex",
          "type": "uint256"
        },
        {
          "internalType": "uint256",
          "name": "feePeriodId",
          "type": "uint256"
        },
        {
          "internalType": "uint256",
          "name": "startingDebtIndex",
          "type": "uint256"
        },
        {
          "internalType": "uint256",
          "name": "startTime",
          "type": "uint256"
        },
        {
          "internalType": "uint256",
          "name": "feesToDistribute",
          "type": "uint256"
        },
        {
          "internalType": "uint256",
          "name": "feesClaimed",
          "type": "uint256"
        },
        {
          "internalType": "uint256",
          "name": "rewardsToDistribute",
          "type": "uint256"
        },
        {
          "internalType": "uint256",
          "name": "rewardsClaimed",
          "type": "uint256"
        }
      ],
      "name": "importFeePeriod",
      "outputs": [],
      "payable": false,
      "stateMutability": "nonpayable",
      "type": "function"
    },
    {
      "constant": true,
      "inputs": [],
      "name": "integrationProxy",
      "outputs": [
        {
          "internalType": "contract Proxy",
          "name": "",
          "type": "address"
        }
      ],
      "payable": false,
      "stateMutability": "view",
      "type": "function"
    },
    {
      "constant": true,
      "inputs": [
        {
          "internalType": "address",
          "name": "account",
          "type": "address"
        }
      ],
      "name": "isFeesClaimable",
      "outputs": [
        {
          "internalType": "bool",
          "name": "feesClaimable",
          "type": "bool"
        }
      ],
      "payable": false,
      "stateMutability": "view",
      "type": "function"
    },
    {
      "constant": true,
      "inputs": [],
      "name": "isResolverCached",
      "outputs": [
        {
          "internalType": "bool",
          "name": "",
          "type": "bool"
        }
      ],
      "payable": false,
      "stateMutability": "view",
      "type": "function"
    },
    {
      "constant": true,
      "inputs": [],
      "name": "issuanceRatio",
      "outputs": [
        {
          "internalType": "uint256",
          "name": "",
          "type": "uint256"
        }
      ],
      "payable": false,
      "stateMutability": "view",
      "type": "function"
    },
    {
      "constant": true,
      "inputs": [],
      "name": "messageSender",
      "outputs": [
        {
          "internalType": "address",
          "name": "",
          "type": "address"
        }
      ],
      "payable": false,
      "stateMutability": "view",
      "type": "function"
    },
    {
      "constant": false,
      "inputs": [
        {
          "internalType": "address",
          "name": "_owner",
          "type": "address"
        }
      ],
      "name": "nominateNewOwner",
      "outputs": [],
      "payable": false,
      "stateMutability": "nonpayable",
      "type": "function"
    },
    {
      "constant": true,
      "inputs": [],
      "name": "nominatedOwner",
      "outputs": [
        {
          "internalType": "address",
          "name": "",
          "type": "address"
        }
      ],
      "payable": false,
      "stateMutability": "view",
      "type": "function"
    },
    {
      "constant": true,
      "inputs": [],
      "name": "owner",
      "outputs": [
        {
          "internalType": "address",
          "name": "",
          "type": "address"
        }
      ],
      "payable": false,
      "stateMutability": "view",
      "type": "function"
    },
    {
      "constant": true,
      "inputs": [],
      "name": "proxy",
      "outputs": [
        {
          "internalType": "contract Proxy",
          "name": "",
          "type": "address"
        }
      ],
      "payable": false,
      "stateMutability": "view",
      "type": "function"
    },
    {
      "constant": false,
      "inputs": [],
      "name": "rebuildCache",
      "outputs": [],
      "payable": false,
      "stateMutability": "nonpayable",
      "type": "function"
    },
    {
      "constant": true,
      "inputs": [
        {
          "internalType": "uint256",
          "name": "index",
          "type": "uint256"
        }
      ],
      "name": "recentFeePeriods",
      "outputs": [
        {
          "internalType": "uint64",
          "name": "feePeriodId",
          "type": "uint64"
        },
        {
          "internalType": "uint64",
          "name": "startingDebtIndex",
          "type": "uint64"
        },
        {
          "internalType": "uint64",
          "name": "startTime",
          "type": "uint64"
        },
        {
          "internalType": "uint256",
          "name": "feesToDistribute",
          "type": "uint256"
        },
        {
          "internalType": "uint256",
          "name": "feesClaimed",
          "type": "uint256"
        },
        {
          "internalType": "uint256",
          "name": "rewardsToDistribute",
          "type": "uint256"
        },
        {
          "internalType": "uint256",
          "name": "rewardsClaimed",
          "type": "uint256"
        }
      ],
      "payable": false,
      "stateMutability": "view",
      "type": "function"
    },
    {
      "constant": false,
      "inputs": [
        {
          "internalType": "uint256",
          "name": "amount",
          "type": "uint256"
        }
      ],
      "name": "recordFeePaid",
      "outputs": [],
      "payable": false,
      "stateMutability": "nonpayable",
      "type": "function"
    },
    {
      "constant": true,
      "inputs": [],
      "name": "resolver",
      "outputs": [
        {
          "internalType": "contract AddressResolver",
          "name": "",
          "type": "address"
        }
      ],
      "payable": false,
      "stateMutability": "view",
      "type": "function"
    },
    {
      "constant": true,
      "inputs": [],
      "name": "resolverAddressesRequired",
      "outputs": [
        {
          "internalType": "bytes32[]",
          "name": "addresses",
          "type": "bytes32[]"
        }
      ],
      "payable": false,
      "stateMutability": "view",
      "type": "function"
    },
    {
      "constant": false,
      "inputs": [
        {
          "internalType": "address payable",
          "name": "_integrationProxy",
          "type": "address"
        }
      ],
      "name": "setIntegrationProxy",
      "outputs": [],
      "payable": false,
      "stateMutability": "nonpayable",
      "type": "function"
    },
    {
      "constant": false,
      "inputs": [
        {
          "internalType": "address",
          "name": "sender",
          "type": "address"
        }
      ],
      "name": "setMessageSender",
      "outputs": [],
      "payable": false,
      "stateMutability": "nonpayable",
      "type": "function"
    },
    {
      "constant": false,
      "inputs": [
        {
          "internalType": "address payable",
          "name": "_proxy",
          "type": "address"
        }
      ],
      "name": "setProxy",
      "outputs": [],
      "payable": false,
      "stateMutability": "nonpayable",
      "type": "function"
    },
    {
      "constant": false,
      "inputs": [
        {
          "internalType": "uint256",
          "name": "amount",
          "type": "uint256"
        }
      ],
      "name": "setRewardsToDistribute",
      "outputs": [],
      "payable": false,
      "stateMutability": "nonpayable",
      "type": "function"
    },
    {
      "constant": true,
      "inputs": [],
      "name": "setupExpiryTime",
      "outputs": [
        {
          "internalType": "uint256",
          "name": "",
          "type": "uint256"
        }
      ],
      "payable": false,
      "stateMutability": "view",
      "type": "function"
    },
    {
      "constant": true,
      "inputs": [],
      "name": "targetThreshold",
      "outputs": [
        {
          "internalType": "uint256",
          "name": "",
          "type": "uint256"
        }
      ],
      "payable": false,
      "stateMutability": "view",
      "type": "function"
    },
    {
      "constant": true,
      "inputs": [],
      "name": "totalFeesAvailable",
      "outputs": [
        {
          "internalType": "uint256",
          "name": "",
          "type": "uint256"
        }
      ],
      "payable": false,
      "stateMutability": "view",
      "type": "function"
    },
    {
      "constant": true,
      "inputs": [],
      "name": "totalRewardsAvailable",
      "outputs": [
        {
          "internalType": "uint256",
          "name": "",
          "type": "uint256"
        }
      ],
      "payable": false,
      "stateMutability": "view",
      "type": "function"
    }
  ],
  "bytecode": "0x60806040527f70555344000000000000000000000000000000000000000000000000000000006008553480156200003557600080fd5b5060405162005bb738038062005bb7833981810160405260608110156200005b57600080fd5b810190808051906020019092919080519060200190929190805190602001909291905050508080621baf808585600073ffffffffffffffffffffffffffffffffffffffff168173ffffffffffffffffffffffffffffffffffffffff1614156200012c576040517f08c379a00000000000000000000000000000000000000000000000000000000081526004018080602001828103825260198152602001807f4f776e657220616464726573732063616e6e6f7420626520300000000000000081525060200191505060405180910390fd5b806000806101000a81548173ffffffffffffffffffffffffffffffffffffffff021916908373ffffffffffffffffffffffffffffffffffffffff1602179055507fb532073b38c83145e3e5135377a08bf9aab55bc0fd7c1179cd4fb995d2a5159c600082604051808373ffffffffffffffffffffffffffffffffffffffff1673ffffffffffffffffffffffffffffffffffffffff1681526020018273ffffffffffffffffffffffffffffffffffffffff1673ffffffffffffffffffffffffffffffffffffffff1681526020019250505060405180910390a150600073ffffffffffffffffffffffffffffffffffffffff166000809054906101000a900473ffffffffffffffffffffffffffffffffffffffff1673ffffffffffffffffffffffffffffffffffffffff161415620002ca576040517f08c379a00000000000000000000000000000000000000000000000000000000081526004018080602001828103825260118152602001807f4f776e6572206d7573742062652073657400000000000000000000000000000081525060200191505060405180910390fd5b80600260006101000a81548173ffffffffffffffffffffffffffffffffffffffff021916908373ffffffffffffffffffffffffffffffffffffffff1602179055507ffc80377ca9c49cc11ae6982f390a42db976d5530af7c43889264b13fbbd7c57e81604051808273ffffffffffffffffffffffffffffffffffffffff1673ffffffffffffffffffffffffffffffffffffffff16815260200191505060405180910390a1508042016005819055505080600660006101000a81548173ffffffffffffffffffffffffffffffffffffffff021916908373ffffffffffffffffffffffffffffffffffffffff16021790555050506001620003d060006200043e60201b60201c565b60000160006101000a81548167ffffffffffffffff021916908367ffffffffffffffff160217905550426200040c60006200043e60201b60201c565b60000160106101000a81548167ffffffffffffffff021916908367ffffffffffffffff1602179055505050506200046b565b60006009600260ff168360135401816200045457fe5b06600281106200046057fe5b600502019050919050565b61573c806200047b6000396000f3fe608060405234801561001057600080fd5b506004361061021c5760003560e01c80637418536011610125578063b410a034116100ad578063d67bdd251161007c578063d67bdd2514610a09578063e0e6393d14610a53578063eb1edd6114610a71578063ec55688914610abb578063fd1f498d14610b055761021c565b8063b410a03414610961578063bc67f8321461097f578063cff2ddad146109c3578063d294f093146109e75761021c565b80638da5cb5b116100f45780638da5cb5b146107f657806397107d6d146108405780639cbdaeb614610884578063ac834193146108ce578063b10090b8146108ec5761021c565b8063741853601461072b57806379ba509714610735578063866452741461073f578063899ffef4146107975761021c565b806333140016116101a857806353a47bb71161017757806353a47bb7146105ed578063569249d01461063757806359a2f19f146106555780636466f45e146106b15780636de813f11461070d5761021c565b8063331400161461047a5780633ebc457a1461051d5780633fcd22401461052757806346ba2d90146105cf5761021c565b8063131b0ae7116101ef578063131b0ae7146103845780631627540c146103c857806322425fa41461040c57806322bf55ef1461042a5780632af64bd3146104585761021c565b806304f3bcec1461022157806307ea50cd1461026b5780630813071c146102c35780630de5861514610325575b600080fd5b610229610b33565b604051808273ffffffffffffffffffffffffffffffffffffffff1673ffffffffffffffffffffffffffffffffffffffff16815260200191505060405180910390f35b6102ad6004803603602081101561028157600080fd5b81019080803573ffffffffffffffffffffffffffffffffffffffff169060200190929190505050610b59565b6040518082815260200191505060405180910390f35b61030f600480360360408110156102d957600080fd5b81019080803573ffffffffffffffffffffffffffffffffffffffff16906020019092919080359060200190929190505050610c72565b6040518082815260200191505060405180910390f35b6103676004803603602081101561033b57600080fd5b81019080803573ffffffffffffffffffffffffffffffffffffffff169060200190929190505050610ed9565b604051808381526020018281526020019250505060405180910390f35b6103c66004803603602081101561039a57600080fd5b81019080803573ffffffffffffffffffffffffffffffffffffffff169060200190929190505050610f94565b005b61040a600480360360208110156103de57600080fd5b81019080803573ffffffffffffffffffffffffffffffffffffffff169060200190929190505050610fe0565b005b61041461108f565b6040518082815260200191505060405180910390f35b6104566004803603602081101561044057600080fd5b810190808035906020019092919050505061109e565b005b610460611361565b604051808215151515815260200191505060405180910390f35b6104bc6004803603602081101561049057600080fd5b81019080803573ffffffffffffffffffffffffffffffffffffffff169060200190929190505050611539565b604051808260026000925b8184101561050d5782846020020151600260200280838360005b838110156104fc5780820151818401526020810190506104e1565b5050505090500192600101926104c7565b9250505091505060405180910390f35b6105256118b3565b005b6105536004803603602081101561053d57600080fd5b8101908080359060200190929190505050611d5c565b604051808867ffffffffffffffff1667ffffffffffffffff1681526020018767ffffffffffffffff1667ffffffffffffffff1681526020018667ffffffffffffffff1667ffffffffffffffff16815260200185815260200184815260200183815260200182815260200197505050505050505060405180910390f35b6105d7611e80565b6040518082815260200191505060405180910390f35b6105f5611e86565b604051808273ffffffffffffffffffffffffffffffffffffffff1673ffffffffffffffffffffffffffffffffffffffff16815260200191505060405180910390f35b61063f611eac565b6040518082815260200191505060405180910390f35b6106976004803603602081101561066b57600080fd5b81019080803573ffffffffffffffffffffffffffffffffffffffff169060200190929190505050611f1d565b604051808215151515815260200191505060405180910390f35b6106f3600480360360208110156106c757600080fd5b81019080803573ffffffffffffffffffffffffffffffffffffffff169060200190929190505050611f32565b604051808215151515815260200191505060405180910390f35b610715612138565b6040518082815260200191505060405180910390f35b6107336121a9565b005b61073d612412565b005b6107956004803603606081101561075557600080fd5b81019080803573ffffffffffffffffffffffffffffffffffffffff1690602001909291908035906020019092919080359060200190929190505050612638565b005b61079f6127fd565b6040518080602001828103825283818151815260200191508051906020019060200280838360005b838110156107e25780820151818401526020810190506107c7565b505050509050019250505060405180910390f35b6107fe612b08565b604051808273ffffffffffffffffffffffffffffffffffffffff1673ffffffffffffffffffffffffffffffffffffffff16815260200191505060405180910390f35b6108826004803603602081101561085657600080fd5b81019080803573ffffffffffffffffffffffffffffffffffffffff169060200190929190505050612b2d565b005b61088c612bdc565b604051808273ffffffffffffffffffffffffffffffffffffffff1673ffffffffffffffffffffffffffffffffffffffff16815260200191505060405180910390f35b6108d6612c02565b6040518082815260200191505060405180910390f35b61095f600480360361010081101561090357600080fd5b810190808035906020019092919080359060200190929190803590602001909291908035906020019092919080359060200190929190803590602001909291908035906020019092919080359060200190929190505050612cba565b005b610969612f67565b6040518082815260200191505060405180910390f35b6109c16004803603602081101561099557600080fd5b81019080803573ffffffffffffffffffffffffffffffffffffffff169060200190929190505050612f76565b005b6109cb612fc2565b604051808260ff1660ff16815260200191505060405180910390f35b6109ef612fc7565b604051808215151515815260200191505060405180910390f35b610a11613066565b604051808273ffffffffffffffffffffffffffffffffffffffff1673ffffffffffffffffffffffffffffffffffffffff16815260200191505060405180910390f35b610a5b61308c565b6040518082815260200191505060405180910390f35b610a7961309b565b604051808273ffffffffffffffffffffffffffffffffffffffff1673ffffffffffffffffffffffffffffffffffffffff16815260200191505060405180910390f35b610ac36130b3565b604051808273ffffffffffffffffffffffffffffffffffffffff1673ffffffffffffffffffffffffffffffffffffffff16815260200191505060405180910390f35b610b3160048036036020811015610b1b57600080fd5b81019080803590602001909291905050506130d9565b005b600660009054906101000a900473ffffffffffffffffffffffffffffffffffffffff1681565b6000610b63613213565b73ffffffffffffffffffffffffffffffffffffffff1663bdc963d87f6c6173745f6665655f7769746864726177616c0000000000000000000000000084604051602001808381526020018273ffffffffffffffffffffffffffffffffffffffff1673ffffffffffffffffffffffffffffffffffffffff1660601b815260140192505050604051602081830303815290604052805190602001206040518263ffffffff1660e01b81526004018082815260200191505060206040518083038186803b158015610c3057600080fd5b505afa158015610c44573d6000803e3d6000fd5b505050506040513d6020811015610c5a57600080fd5b81019080805190602001909291905050509050919050565b600080821415610cea576040517f08c379a00000000000000000000000000000000000000000000000000000000081526004018080602001828103825260208152602001807f43757272656e7420706572696f64206973206e6f7420636c6f7365642079657481525060200191505060405180910390fd5b600260ff168210610d63576040517f08c379a000000000000000000000000000000000000000000000000000000000815260040180806020018281038252601d8152602001807f4578636565647320746865204645455f504552494f445f4c454e47544800000081525060200191505060405180910390fd5b6000610d7160018403613243565b60000160089054906101000a900467ffffffffffffffff1667ffffffffffffffff161415610da25760009050610ed3565b6000610de56001610db560018603613243565b60000160089054906101000a900467ffffffffffffffff1667ffffffffffffffff1661326e90919063ffffffff16565b9050600080610df26132f7565b73ffffffffffffffffffffffffffffffffffffffff1663d29c000a87856040518363ffffffff1660e01b8152600401808373ffffffffffffffffffffffffffffffffffffffff1673ffffffffffffffffffffffffffffffffffffffff16815260200182815260200192505050604080518083038186803b158015610e7557600080fd5b505afa158015610e89573d6000803e3d6000fd5b505050506040513d6040811015610e9f57600080fd5b8101908080519060200190929190805190602001909291905050508092508193505050610ecd838383613327565b93505050505b92915050565b600080610ee4615514565b610eed84611539565b9050600080905060008090506000600190505b600260ff16811015610f8557610f40848260028110610f1b57fe5b6020020151600060028110610f2c57fe5b60200201518461347f90919063ffffffff16565b9250610f76848260028110610f5157fe5b6020020151600160028110610f6257fe5b60200201518361347f90919063ffffffff16565b91508080600101915050610f00565b50818194509450505050915091565b610f9c613507565b80600360006101000a81548173ffffffffffffffffffffffffffffffffffffffff021916908373ffffffffffffffffffffffffffffffffffffffff16021790555050565b610fe8613507565b80600160006101000a81548173ffffffffffffffffffffffffffffffffffffffff021916908373ffffffffffffffffffffffffffffffffffffffff1602179055507f906a1c6bd7e3091ea86693dd029a831c19049ce77f1dce2ce0bab1cacbabce2281604051808273ffffffffffffffffffffffffffffffffffffffff1673ffffffffffffffffffffffffffffffffffffffff16815260200191505060405180910390a150565b60006110996135ae565b905090565b60006110a8613690565b73ffffffffffffffffffffffffffffffffffffffff163373ffffffffffffffffffffffffffffffffffffffff1614905060008060001b6110e66136c0565b73ffffffffffffffffffffffffffffffffffffffff1663c9a2f3ad336040518263ffffffff1660e01b8152600401808273ffffffffffffffffffffffffffffffffffffffff1673ffffffffffffffffffffffffffffffffffffffff16815260200191505060206040518083038186803b15801561116257600080fd5b505afa158015611176573d6000803e3d6000fd5b505050506040513d602081101561118c57600080fd5b81019080805190602001909291905050501415905060006111ab6136f0565b73ffffffffffffffffffffffffffffffffffffffff163373ffffffffffffffffffffffffffffffffffffffff1614905060006111e5613720565b73ffffffffffffffffffffffffffffffffffffffff1663b38988f7336040518263ffffffff1660e01b8152600401808273ffffffffffffffffffffffffffffffffffffffff1673ffffffffffffffffffffffffffffffffffffffff16815260200191505060206040518083038186803b15801561126157600080fd5b505afa158015611275573d6000803e3d6000fd5b505050506040513d602081101561128b57600080fd5b8101908080519060200190929190505050905083806112a75750825b806112af5750815b806112b75750805b611329576040517f08c379a00000000000000000000000000000000000000000000000000000000081526004018080602001828103825260178152602001807f4f6e6c7920496e7465726e616c20436f6e74726163747300000000000000000081525060200191505060405180910390fd5b611349856113376000613243565b6001015461347f90919063ffffffff16565b6113536000613243565b600101819055505050505050565b6000606061136d6127fd565b905060008090505b815181101561152f57600082828151811061138c57fe5b602002602001015190506007600082815260200190815260200160002060009054906101000a900473ffffffffffffffffffffffffffffffffffffffff1673ffffffffffffffffffffffffffffffffffffffff16600660009054906101000a900473ffffffffffffffffffffffffffffffffffffffff1673ffffffffffffffffffffffffffffffffffffffff166321f8a721836040518263ffffffff1660e01b81526004018082815260200191505060206040518083038186803b15801561145357600080fd5b505afa158015611467573d6000803e3d6000fd5b505050506040513d602081101561147d57600080fd5b810190808051906020019092919050505073ffffffffffffffffffffffffffffffffffffffff161415806115105750600073ffffffffffffffffffffffffffffffffffffffff166007600083815260200190815260200160002060009054906101000a900473ffffffffffffffffffffffffffffffffffffffff1673ffffffffffffffffffffffffffffffffffffffff16145b156115215760009350505050611536565b508080600101915050611375565b5060019150505b90565b611541615514565b600080600061154e6132f7565b90508073ffffffffffffffffffffffffffffffffffffffff1663b326f84e8660006040518363ffffffff1660e01b8152600401808373ffffffffffffffffffffffffffffffffffffffff1673ffffffffffffffffffffffffffffffffffffffff16815260200182815260200192505050604080518083038186803b1580156115d557600080fd5b505afa1580156115e9573d6000803e3d6000fd5b505050506040513d60408110156115ff57600080fd5b81019080805190602001909291908051906020019092919050505080935081945050506000821480156116325750600083145b1561164b5761163f615514565b809450505050506118ae565b60008061165a60008686613750565b8092508193505050818660006002811061167057fe5b602002015160006002811061168157fe5b602002018181525050808660006002811061169857fe5b60200201516001600281106116a957fe5b60200201818152505060006116bd88610b59565b90506000600160020360ff1690505b60008111156118a657600060018203905060006116e882613243565b60000160089054906101000a900467ffffffffffffffff1667ffffffffffffffff169050600081118015611745575061172083613243565b60000160009054906101000a900467ffffffffffffffff1667ffffffffffffffff1684105b1561189657600061176060018361326e90919063ffffffff16565b90508773ffffffffffffffffffffffffffffffffffffffff1663d29c000a8d836040518363ffffffff1660e01b8152600401808373ffffffffffffffffffffffffffffffffffffffff1673ffffffffffffffffffffffffffffffffffffffff16815260200182815260200192505050604080518083038186803b1580156117e657600080fd5b505afa1580156117fa573d6000803e3d6000fd5b505050506040513d604081101561181057600080fd5b810190808051906020019092919080519060200190929190505050809a50819b50505061183e848b8b613750565b8097508198505050868b856002811061185357fe5b602002015160006002811061186457fe5b602002018181525050858b856002811061187a57fe5b602002015160016002811061188b57fe5b602002018181525050505b50508080600190039150506116cc565b505050505050505b919050565b6118bb613838565b73ffffffffffffffffffffffffffffffffffffffff16637c3125416040518163ffffffff1660e01b815260040160006040518083038186803b15801561190057600080fd5b505afa158015611914573d6000803e3d6000fd5b5050505060006119226135ae565b11611995576040517f08c379a000000000000000000000000000000000000000000000000000000000815260040180806020018281038252601b8152602001807f46656520506572696f64204475726174696f6e206e6f7420736574000000000081525060200191505060405180910390fd5b61199d6135ae565b42036119a96000613243565b60000160109054906101000a900467ffffffffffffffff1667ffffffffffffffff161115611a3f576040517f08c379a000000000000000000000000000000000000000000000000000000000815260040180806020018281038252601d8152602001807f546f6f206561726c7920746f20636c6f73652066656520706572696f6400000081525060200191505060405180910390fd5b6000611a506002800360ff16613243565b90506000611a64600160020360ff16613243565b9050611a978260010154611a898360020154846001015461326e90919063ffffffff16565b61347f90919063ffffffff16565b611aa66002800360ff16613243565b60010181905550611ade8260030154611ad08360040154846003015461326e90919063ffffffff16565b61347f90919063ffffffff16565b611aed6002800360ff16613243565b60030181905550611b36600260ff16611b286001611b1a600260ff1660135461347f90919063ffffffff16565b61326e90919063ffffffff16565b61386890919063ffffffff16565b601381905550600960135460028110611b4b57fe5b60050201600080820160006101000a81549067ffffffffffffffff02191690556000820160086101000a81549067ffffffffffffffff02191690556000820160106101000a81549067ffffffffffffffff021916905560018201600090556002820160009055600382016000905560048201600090555050611c026001611bd26001613243565b60000160009054906101000a900467ffffffffffffffff1667ffffffffffffffff1661347f90919063ffffffff16565b611c0c6000613243565b60000160006101000a81548167ffffffffffffffff021916908367ffffffffffffffff160217905550611c3d6138f2565b73ffffffffffffffffffffffffffffffffffffffff1663cd92eba96040518163ffffffff1660e01b815260040160206040518083038186803b158015611c8257600080fd5b505afa158015611c96573d6000803e3d6000fd5b505050506040513d6020811015611cac57600080fd5b8101908080519060200190929190505050611cc76000613243565b60000160086101000a81548167ffffffffffffffff021916908367ffffffffffffffff16021790555042611cfb6000613243565b60000160106101000a81548167ffffffffffffffff021916908367ffffffffffffffff160217905550611d58611d316001613243565b60000160009054906101000a900467ffffffffffffffff1667ffffffffffffffff16613922565b5050565b6000806000806000806000611d6f615541565b611d7889613243565b6040518060e00160405290816000820160009054906101000a900467ffffffffffffffff1667ffffffffffffffff1667ffffffffffffffff1681526020016000820160089054906101000a900467ffffffffffffffff1667ffffffffffffffff1667ffffffffffffffff1681526020016000820160109054906101000a900467ffffffffffffffff1667ffffffffffffffff1667ffffffffffffffff1681526020016001820154815260200160028201548152602001600382015481526020016004820154815250509050806000015181602001518260400151836060015184608001518560a001518660c00151975097509750975097509750975050919395979092949650565b60055481565b600160009054906101000a900473ffffffffffffffffffffffffffffffffffffffff1681565b600080600090506000600190505b600260ff16811015611f1557611ee5611ed282613243565b600101548361347f90919063ffffffff16565b9150611f06611ef382613243565b600201548361326e90919063ffffffff16565b91508080600101915050611eba565b508091505090565b6000611f2882613a9f565b5080915050919050565b6000611f3c613838565b73ffffffffffffffffffffffffffffffffffffffff16637c3125416040518163ffffffff1660e01b815260040160006040518083038186803b158015611f8157600080fd5b505afa158015611f95573d6000803e3d6000fd5b50505050611fa1613c6b565b611fa9613dba565b73ffffffffffffffffffffffffffffffffffffffff166321f4ae5783600460009054906101000a900473ffffffffffffffffffffffffffffffffffffffff166040518363ffffffff1660e01b8152600401808373ffffffffffffffffffffffffffffffffffffffff1673ffffffffffffffffffffffffffffffffffffffff1681526020018273ffffffffffffffffffffffffffffffffffffffff1673ffffffffffffffffffffffffffffffffffffffff1681526020019250505060206040518083038186803b15801561207b57600080fd5b505afa15801561208f573d6000803e3d6000fd5b505050506040513d60208110156120a557600080fd5b8101908080519060200190929190505050612128576040517f08c379a000000000000000000000000000000000000000000000000000000000815260040180806020018281038252601f8152602001807f4e6f7420617070726f76656420746f20636c61696d206f6e20626568616c660081525060200191505060405180910390fd5b61213182613dea565b9050919050565b600080600090506000600190505b600260ff168110156121a15761217161215e82613243565b600301548361347f90919063ffffffff16565b915061219261217f82613243565b600401548361326e90919063ffffffff16565b91508080600101915050612146565b508091505090565b60606121b36127fd565b905060008090505b815181101561240e5760008282815181106121d257fe5b602002602001015190506000600660009054906101000a900473ffffffffffffffffffffffffffffffffffffffff1673ffffffffffffffffffffffffffffffffffffffff1663dacb2d01838460405160200180807f5265736f6c766572206d697373696e67207461726765743a20000000000000008152506019018281526020019150506040516020818303038152906040526040518363ffffffff1660e01b81526004018083815260200180602001828103825283818151815260200191508051906020019080838360005b838110156122ba57808201518184015260208101905061229f565b50505050905090810190601f1680156122e75780820380516001836020036101000a031916815260200191505b50935050505060206040518083038186803b15801561230557600080fd5b505afa158015612319573d6000803e3d6000fd5b505050506040513d602081101561232f57600080fd5b81019080805190602001909291905050509050806007600084815260200190815260200160002060006101000a81548173ffffffffffffffffffffffffffffffffffffffff021916908373ffffffffffffffffffffffffffffffffffffffff1602179055507f88a93678a3692f6789d9546fc621bf7234b101ddb7d4fe479455112831b8aa688282604051808381526020018273ffffffffffffffffffffffffffffffffffffffff1673ffffffffffffffffffffffffffffffffffffffff1681526020019250505060405180910390a1505080806001019150506121bb565b5050565b600160009054906101000a900473ffffffffffffffffffffffffffffffffffffffff1673ffffffffffffffffffffffffffffffffffffffff163373ffffffffffffffffffffffffffffffffffffffff16146124b8576040517f08c379a00000000000000000000000000000000000000000000000000000000081526004018080602001828103825260358152602001806155bf6035913960400191505060405180910390fd5b7fb532073b38c83145e3e5135377a08bf9aab55bc0fd7c1179cd4fb995d2a5159c6000809054906101000a900473ffffffffffffffffffffffffffffffffffffffff16600160009054906101000a900473ffffffffffffffffffffffffffffffffffffffff16604051808373ffffffffffffffffffffffffffffffffffffffff1673ffffffffffffffffffffffffffffffffffffffff1681526020018273ffffffffffffffffffffffffffffffffffffffff1673ffffffffffffffffffffffffffffffffffffffff1681526020019250505060405180910390a1600160009054906101000a900473ffffffffffffffffffffffffffffffffffffffff166000806101000a81548173ffffffffffffffffffffffffffffffffffffffff021916908373ffffffffffffffffffffffffffffffffffffffff1602179055506000600160006101000a81548173ffffffffffffffffffffffffffffffffffffffff021916908373ffffffffffffffffffffffffffffffffffffffff160217905550565b6126406136c0565b73ffffffffffffffffffffffffffffffffffffffff163373ffffffffffffffffffffffffffffffffffffffff16146126e0576040517f08c379a000000000000000000000000000000000000000000000000000000000815260040180806020018281038252601f8152602001807f466565506f6f6c3a204f6e6c792049737375657220417574686f72697365640081525060200191505060405180910390fd5b6126e86132f7565b73ffffffffffffffffffffffffffffffffffffffff166394e1a4488484846127106000613243565b60000160089054906101000a900467ffffffffffffffff166040518563ffffffff1660e01b8152600401808573ffffffffffffffffffffffffffffffffffffffff1673ffffffffffffffffffffffffffffffffffffffff1681526020018481526020018381526020018267ffffffffffffffff168152602001945050505050600060405180830381600087803b1580156127a957600080fd5b505af11580156127bd573d6000803e3d6000fd5b505050506127f88383836127d16000613243565b60000160089054906101000a900467ffffffffffffffff1667ffffffffffffffff16613ff2565b505050565b60608061280861417a565b90506060600c60405190808252806020026020018201604052801561283c5781602001602082028038833980820191505090505b5090507f53797374656d53746174757300000000000000000000000000000000000000008160008151811061286d57fe5b6020026020010181815250507f5065726946696e00000000000000000000000000000000000000000000000000816001815181106128a757fe5b6020026020010181815250507f466565506f6f6c53746174650000000000000000000000000000000000000000816002815181106128e157fe5b6020026020010181815250507f466565506f6f6c457465726e616c53746f7261676500000000000000000000008160038151811061291b57fe5b6020026020010181815250507f45786368616e67657200000000000000000000000000000000000000000000008160048151811061295557fe5b6020026020010181815250507f49737375657200000000000000000000000000000000000000000000000000008160058151811061298f57fe5b6020026020010181815250507f5065726946696e53746174650000000000000000000000000000000000000000816006815181106129c957fe5b6020026020010181815250507f526577617264457363726f77563200000000000000000000000000000000000081600781518110612a0357fe5b6020026020010181815250507f44656c6567617465417070726f76616c7300000000000000000000000000000081600881518110612a3d57fe5b6020026020010181815250507f4574686572436f6c6c61746572616c705553440000000000000000000000000081600981518110612a7757fe5b6020026020010181815250507f52657761726473446973747269627574696f6e0000000000000000000000000081600a81518110612ab157fe5b6020026020010181815250507f436f6c6c61746572616c4d616e6167657200000000000000000000000000000081600b81518110612aeb57fe5b602002602001018181525050612b0182826141ec565b9250505090565b6000809054906101000a900473ffffffffffffffffffffffffffffffffffffffff1681565b612b35613507565b80600260006101000a81548173ffffffffffffffffffffffffffffffffffffffff021916908373ffffffffffffffffffffffffffffffffffffffff1602179055507ffc80377ca9c49cc11ae6982f390a42db976d5530af7c43889264b13fbbd7c57e81604051808273ffffffffffffffffffffffffffffffffffffffff1673ffffffffffffffffffffffffffffffffffffffff16815260200191505060405180910390a150565b600360009054906101000a900473ffffffffffffffffffffffffffffffffffffffff1681565b6000612cb5612c9f612c126142bf565b73__$b8d33eeb36ac0d1e81cd70156e0043e778$__63907af6c06040518163ffffffff1660e01b815260040160206040518083038186803b158015612c5657600080fd5b505af4158015612c6a573d6000803e3d6000fd5b505050506040513d6020811015612c8057600080fd5b810190808051906020019092919050505061347f90919063ffffffff16565b612ca76143a1565b61448390919063ffffffff16565b905090565b612cc26144b0565b6005544210612d1c576040517f08c379a00000000000000000000000000000000000000000000000000000000081526004018080602001828103825260298152602001806156df6029913960400191505060405180910390fd5b612d246138f2565b73ffffffffffffffffffffffffffffffffffffffff1663cd92eba96040518163ffffffff1660e01b815260040160206040518083038186803b158015612d6957600080fd5b505afa158015612d7d573d6000803e3d6000fd5b505050506040513d6020811015612d9357600080fd5b8101908080519060200190929190505050861115612e19576040517f08c379a00000000000000000000000000000000000000000000000000000000081526004018080602001828103825260168152602001807f43616e6e6f7420696d706f72742062616420646174610000000000000000000081525060200191505060405180910390fd5b6040518060e001604052808867ffffffffffffffff1681526020018767ffffffffffffffff1681526020018667ffffffffffffffff168152602001858152602001848152602001838152602001828152506009612e97600260ff16612e898c60135461347f90919063ffffffff16565b61386890919063ffffffff16565b60028110612ea157fe5b6005020160008201518160000160006101000a81548167ffffffffffffffff021916908367ffffffffffffffff16021790555060208201518160000160086101000a81548167ffffffffffffffff021916908367ffffffffffffffff16021790555060408201518160000160106101000a81548167ffffffffffffffff021916908367ffffffffffffffff160217905550606082015181600101556080820151816002015560a0820151816003015560c082015181600401559050505050505050505050565b6000612f716143a1565b905090565b612f7e6146e3565b80600460006101000a81548173ffffffffffffffffffffffffffffffffffffffff021916908373ffffffffffffffffffffffffffffffffffffffff16021790555050565b600281565b6000612fd1613838565b73ffffffffffffffffffffffffffffffffffffffff16637c3125416040518163ffffffff1660e01b815260040160006040518083038186803b15801561301657600080fd5b505afa15801561302a573d6000803e3d6000fd5b50505050613036613c6b565b613061600460009054906101000a900473ffffffffffffffffffffffffffffffffffffffff16613dea565b905090565b600460009054906101000a900473ffffffffffffffffffffffffffffffffffffffff1681565b60006130966142bf565b905090565b73c8d3a942a82290612dd8167bd9ce2d3054baf8b781565b600260009054906101000a900473ffffffffffffffffffffffffffffffffffffffff1681565b60006130e3614800565b90508073ffffffffffffffffffffffffffffffffffffffff16600460009054906101000a900473ffffffffffffffffffffffffffffffffffffffff1673ffffffffffffffffffffffffffffffffffffffff16148061316c57508073ffffffffffffffffffffffffffffffffffffffff163373ffffffffffffffffffffffffffffffffffffffff16145b6131de576040517f08c379a000000000000000000000000000000000000000000000000000000000815260040180806020018281038252601e8152602001807f43616c6c6572206973206e6f742072657761726473417574686f72697479000081525060200191505060405180910390fd5b6131fe826131ec6000613243565b6003015461347f90919063ffffffff16565b6132086000613243565b600301819055505050565b600061323e7f466565506f6f6c457465726e616c53746f726167650000000000000000000000614830565b905090565b60006009600260ff1683601354018161325857fe5b066002811061326357fe5b600502019050919050565b6000828211156132e6576040517f08c379a000000000000000000000000000000000000000000000000000000000815260040180806020018281038252601e8152602001807f536166654d6174683a207375627472616374696f6e206f766572666c6f77000081525060200191505060405180910390fd5b600082840390508091505092915050565b60006133227f466565506f6f6c53746174650000000000000000000000000000000000000000614830565b905090565b6000806133326138f2565b90506000613471856134638473ffffffffffffffffffffffffffffffffffffffff166308d95cd5886040518263ffffffff1660e01b81526004018082815260200191505060206040518083038186803b15801561338e57600080fd5b505afa1580156133a2573d6000803e3d6000fd5b505050506040513d60208110156133b857600080fd5b81019080805190602001909291905050508573ffffffffffffffffffffffffffffffffffffffff166308d95cd58b6040518263ffffffff1660e01b81526004018082815260200191505060206040518083038186803b15801561341a57600080fd5b505afa15801561342e573d6000803e3d6000fd5b505050506040513d602081101561344457600080fd5b810190808051906020019092919050505061499290919063ffffffff16565b6149ae90919063ffffffff16565b905080925050509392505050565b6000808284019050838110156134fd576040517f08c379a000000000000000000000000000000000000000000000000000000000815260040180806020018281038252601b8152602001807f536166654d6174683a206164646974696f6e206f766572666c6f77000000000081525060200191505060405180910390fd5b8091505092915050565b6000809054906101000a900473ffffffffffffffffffffffffffffffffffffffff1673ffffffffffffffffffffffffffffffffffffffff163373ffffffffffffffffffffffffffffffffffffffff16146135ac576040517f08c379a000000000000000000000000000000000000000000000000000000000815260040180806020018281038252602f81526020018061568f602f913960400191505060405180910390fd5b565b60006135b86149ca565b73ffffffffffffffffffffffffffffffffffffffff166323257c2b7f53797374656d53657474696e67730000000000000000000000000000000000007f666565506572696f644475726174696f6e0000000000000000000000000000006040518363ffffffff1660e01b8152600401808381526020018281526020019250505060206040518083038186803b15801561365057600080fd5b505afa158015613664573d6000803e3d6000fd5b505050506040513d602081101561367a57600080fd5b8101908080519060200190929190505050905090565b60006136bb7f45786368616e6765720000000000000000000000000000000000000000000000614830565b905090565b60006136eb7f4973737565720000000000000000000000000000000000000000000000000000614830565b905090565b600061371b7f4574686572436f6c6c61746572616c7055534400000000000000000000000000614830565b905090565b600061374b7f436f6c6c61746572616c4d616e61676572000000000000000000000000000000614830565b905090565b600080600084141561376e5760008081915080905091509150613830565b600084905060008611156137d05760006137bf600161378f60018a03613243565b60000160089054906101000a900467ffffffffffffffff1667ffffffffffffffff1661326e90919063ffffffff16565b90506137cc818787613327565b9150505b60006137f1826137df89613243565b6001015461448390919063ffffffff16565b90506000613814836138028a613243565b6003015461448390919063ffffffff16565b905061381f826149fa565b613828826149fa565b945094505050505b935093915050565b60006138637f53797374656d5374617475730000000000000000000000000000000000000000614830565b905090565b6000808214156138e0576040517f08c379a00000000000000000000000000000000000000000000000000000000081526004018080602001828103825260188152602001807f536166654d6174683a206d6f64756c6f206279207a65726f000000000000000081525060200191505060405180910390fd5b8183816138e957fe5b06905092915050565b600061391d7f5065726946696e53746174650000000000000000000000000000000000000000614830565b905090565b600260009054906101000a900473ffffffffffffffffffffffffffffffffffffffff1673ffffffffffffffffffffffffffffffffffffffff1663907dff978260405160200180828152602001915050604051602081830303815290604052600160405180807f466565506572696f64436c6f7365642875696e743235362900000000000000008152506018019050604051809103902060008060006040518763ffffffff1660e01b815260040180806020018781526020018681526020018560001b81526020018460001b81526020018360001b8152602001828103825288818151815260200191508051906020019080838360005b83811015613a33578082015181840152602081019050613a18565b50505050905090810190601f168015613a605780820380516001836020036101000a031916815260200191505b50975050505050505050600060405180830381600087803b158015613a8457600080fd5b505af1158015613a98573d6000803e3d6000fd5b5050505050565b600080600080613aad6136c0565b73ffffffffffffffffffffffffffffffffffffffff1663ae3bbbbb866040518263ffffffff1660e01b8152600401808273ffffffffffffffffffffffffffffffffffffffff1673ffffffffffffffffffffffffffffffffffffffff168152602001915050604080518083038186803b158015613b2857600080fd5b505afa158015613b3c573d6000803e3d6000fd5b505050506040513d6040811015613b5257600080fd5b810190808051906020019092919080519060200190929190505050915091506000613b7b6143a1565b905080831015613b945760018294509450505050613c66565b6000613c40613c31613ba46142bf565b73__$b8d33eeb36ac0d1e81cd70156e0043e778$__63907af6c06040518163ffffffff1660e01b815260040160206040518083038186803b158015613be857600080fd5b505af4158015613bfc573d6000803e3d6000fd5b505050506040513d6020811015613c1257600080fd5b810190808051906020019092919050505061347f90919063ffffffff16565b8361448390919063ffffffff16565b905080841115613c5a576000839550955050505050613c66565b60018395509550505050505b915091565b600260009054906101000a900473ffffffffffffffffffffffffffffffffffffffff1673ffffffffffffffffffffffffffffffffffffffff163373ffffffffffffffffffffffffffffffffffffffff1614158015613d175750600360009054906101000a900473ffffffffffffffffffffffffffffffffffffffff1673ffffffffffffffffffffffffffffffffffffffff163373ffffffffffffffffffffffffffffffffffffffff1614155b8015613d7157503373ffffffffffffffffffffffffffffffffffffffff16600460009054906101000a900473ffffffffffffffffffffffffffffffffffffffff1673ffffffffffffffffffffffffffffffffffffffff1614155b15613db85733600460006101000a81548173ffffffffffffffffffffffffffffffffffffffff021916908373ffffffffffffffffffffffffffffffffffffffff1602179055505b565b6000613de57f44656c6567617465417070726f76616c73000000000000000000000000000000614830565b905090565b600080600090506000809050600080600080613e0588613a9f565b9150915081613e7c576040517f08c379a000000000000000000000000000000000000000000000000000000000815260040180806020018281038252601f8152602001807f432d526174696f2062656c6f772070656e616c7479207468726573686f6c640081525060200191505060405180910390fd5b8015613ef0576040517f08c379a000000000000000000000000000000000000000000000000000000000815260040180806020018281038252601f8152602001807f412070796e7468206f722050455249207261746520697320696e76616c69640081525060200191505060405180910390fd5b613ef988610ed9565b80945081955050506000841180613f105750600083115b613f65576040517f08c379a000000000000000000000000000000000000000000000000000000000815260040180806020018281038252604081526020018061564f6040913960400191505060405180910390fd5b613f9a88613f736001613243565b60000160009054906101000a900467ffffffffffffffff1667ffffffffffffffff16614a49565b6000841115613fb957613fac84614b44565b9450613fb88886614c50565b5b6000831115613fd857613fcb83614ef8565b9550613fd78887615009565b5b613fe388868861517d565b60019650505050505050919050565b600260009054906101000a900473ffffffffffffffffffffffffffffffffffffffff1673ffffffffffffffffffffffffffffffffffffffff1663907dff978484846040516020018084815260200183815260200182815260200193505050506040516020818303038152906040526002604051808061561860379139603701905060405180910390208873ffffffffffffffffffffffffffffffffffffffff1660001b6000806040518763ffffffff1660e01b815260040180806020018781526020018681526020018581526020018460001b81526020018360001b8152602001828103825288818151815260200191508051906020019080838360005b8381101561410b5780820151818401526020810190506140f0565b50505050905090810190601f1680156141385780820380516001836020036101000a031916815260200191505b50975050505050505050600060405180830381600087803b15801561415c57600080fd5b505af1158015614170573d6000803e3d6000fd5b5050505050505050565b606060016040519080825280602002602001820160405280156141ac5781602001602082028038833980820191505090505b5090507f466c657869626c6553746f726167650000000000000000000000000000000000816000815181106141dd57fe5b60200260200101818152505090565b606081518351016040519080825280602002602001820160405280156142215781602001602082028038833980820191505090505b50905060008090505b835181101561426c5783818151811061423f57fe5b602002602001015182828151811061425357fe5b602002602001018181525050808060010191505061422a565b5060008090505b82518110156142b85782818151811061428857fe5b602002602001015182828651018151811061429f57fe5b6020026020010181815250508080600101915050614273565b5092915050565b60006142c96149ca565b73ffffffffffffffffffffffffffffffffffffffff166323257c2b7f53797374656d53657474696e67730000000000000000000000000000000000007f7461726765745468726573686f6c6400000000000000000000000000000000006040518363ffffffff1660e01b8152600401808381526020018281526020019250505060206040518083038186803b15801561436157600080fd5b505afa158015614375573d6000803e3d6000fd5b505050506040513d602081101561438b57600080fd5b8101908080519060200190929190505050905090565b60006143ab6149ca565b73ffffffffffffffffffffffffffffffffffffffff166323257c2b7f53797374656d53657474696e67730000000000000000000000000000000000007f69737375616e6365526174696f000000000000000000000000000000000000006040518363ffffffff1660e01b8152600401808381526020018281526020019250505060206040518083038186803b15801561444357600080fd5b505afa158015614457573d6000803e3d6000fd5b505050506040513d602081101561446d57600080fd5b8101908080519060200190929190505050905090565b6000601260ff16600a0a6144a0838561531b90919063ffffffff16565b816144a757fe5b04905092915050565b600260009054906101000a900473ffffffffffffffffffffffffffffffffffffffff1673ffffffffffffffffffffffffffffffffffffffff163373ffffffffffffffffffffffffffffffffffffffff161415801561455c5750600360009054906101000a900473ffffffffffffffffffffffffffffffffffffffff1673ffffffffffffffffffffffffffffffffffffffff163373ffffffffffffffffffffffffffffffffffffffff1614155b80156145b657503373ffffffffffffffffffffffffffffffffffffffff16600460009054906101000a900473ffffffffffffffffffffffffffffffffffffffff1673ffffffffffffffffffffffffffffffffffffffff1614155b156145fd5733600460006101000a81548173ffffffffffffffffffffffffffffffffffffffff021916908373ffffffffffffffffffffffffffffffffffffffff1602179055505b6000809054906101000a900473ffffffffffffffffffffffffffffffffffffffff1673ffffffffffffffffffffffffffffffffffffffff16600460009054906101000a900473ffffffffffffffffffffffffffffffffffffffff1673ffffffffffffffffffffffffffffffffffffffff16146146e1576040517f08c379a00000000000000000000000000000000000000000000000000000000081526004018080602001828103825260138152602001807f4f776e6572206f6e6c792066756e6374696f6e0000000000000000000000000081525060200191505060405180910390fd5b565b600260009054906101000a900473ffffffffffffffffffffffffffffffffffffffff1673ffffffffffffffffffffffffffffffffffffffff163373ffffffffffffffffffffffffffffffffffffffff16148061478c5750600360009054906101000a900473ffffffffffffffffffffffffffffffffffffffff1673ffffffffffffffffffffffffffffffffffffffff163373ffffffffffffffffffffffffffffffffffffffff16145b6147fe576040517f08c379a00000000000000000000000000000000000000000000000000000000081526004018080602001828103825260178152602001807f4f6e6c79207468652070726f78792063616e2063616c6c00000000000000000081525060200191505060405180910390fd5b565b600061482b7f52657761726473446973747269627574696f6e00000000000000000000000000614830565b905090565b6000806007600084815260200190815260200160002060009054906101000a900473ffffffffffffffffffffffffffffffffffffffff169050600073ffffffffffffffffffffffffffffffffffffffff168173ffffffffffffffffffffffffffffffffffffffff1614158360405160200180807f4d697373696e6720616464726573733a2000000000000000000000000000000081525060110182815260200191505060405160208183030381529060405290614988576040517f08c379a00000000000000000000000000000000000000000000000000000000081526004018080602001828103825283818151815260200191508051906020019080838360005b8381101561494d578082015181840152602081019050614932565b50505050905090810190601f16801561497a5780820380516001836020036101000a031916815260200191505b509250505060405180910390fd5b5080915050919050565b60006149a68383601b60ff16600a0a6153a1565b905092915050565b60006149c28383601b60ff16600a0a6153fc565b905092915050565b60006149f57f466c657869626c6553746f726167650000000000000000000000000000000000614830565b905090565b600080600a6012601b0360ff16600a0a81614a1157fe5b048381614a1a57fe5b0490506005600a8281614a2957fe5b0610614a3657600a810190505b600a8181614a4057fe5b04915050919050565b614a51613213565b73ffffffffffffffffffffffffffffffffffffffff16633562fd207f6c6173745f6665655f7769746864726177616c0000000000000000000000000084604051602001808381526020018273ffffffffffffffffffffffffffffffffffffffff1673ffffffffffffffffffffffffffffffffffffffff1660601b81526014019250505060405160208183030381529060405280519060200120836040518363ffffffff1660e01b81526004018083815260200182815260200192505050600060405180830381600087803b158015614b2857600080fd5b505af1158015614b3c573d6000803e3d6000fd5b505050505050565b600080829050600080600160020360ff1690505b600260ff16811015614c44576000614b6f82613243565b6002015490506000614b9682614b8485613243565b6001015461326e90919063ffffffff16565b90506000811115614c34576000858210614bb05785614bb2565b815b9050614bc7818461347f90919063ffffffff16565b614bd085613243565b60020181905550614bea818761326e90919063ffffffff16565b9550614bff818661347f90919063ffffffff16565b94506000861415614c1857849650505050505050614c4b565b600084148015614c285750600086115b15614c3257600095505b505b5050808060019003915050614b58565b5080925050505b919050565b8173c8d3a942a82290612dd8167bd9ce2d3054baf8b773ffffffffffffffffffffffffffffffffffffffff168173ffffffffffffffffffffffffffffffffffffffff161415614d07576040517f08c379a00000000000000000000000000000000000000000000000000000000081526004018080602001828103825260178152602001807f4665652061646472657373206e6f7420616c6c6f77656400000000000000000081525060200191505060405180910390fd5b6000614d116136c0565b73ffffffffffffffffffffffffffffffffffffffff166357ad46636008546040518263ffffffff1660e01b81526004018082815260200191505060206040518083038186803b158015614d6357600080fd5b505afa158015614d77573d6000803e3d6000fd5b505050506040513d6020811015614d8d57600080fd5b810190808051906020019092919050505090508073ffffffffffffffffffffffffffffffffffffffff16639dc29fac73c8d3a942a82290612dd8167bd9ce2d3054baf8b7856040518363ffffffff1660e01b8152600401808373ffffffffffffffffffffffffffffffffffffffff1673ffffffffffffffffffffffffffffffffffffffff16815260200182815260200192505050600060405180830381600087803b158015614e3b57600080fd5b505af1158015614e4f573d6000803e3d6000fd5b505050508073ffffffffffffffffffffffffffffffffffffffff1663867904b485856040518363ffffffff1660e01b8152600401808373ffffffffffffffffffffffffffffffffffffffff1673ffffffffffffffffffffffffffffffffffffffff16815260200182815260200192505050600060405180830381600087803b158015614eda57600080fd5b505af1158015614eee573d6000803e3d6000fd5b5050505050505050565b600080829050600080600160020360ff1690505b600260ff16811015614ffd576000614f45614f2683613243565b60040154614f3384613243565b6003015461326e90919063ffffffff16565b90506000811115614fee576000848210614f5f5784614f61565b815b9050614f8281614f7085613243565b6004015461347f90919063ffffffff16565b614f8b84613243565b60040181905550614fa5818661326e90919063ffffffff16565b9450614fba818561347f90919063ffffffff16565b93506000851415614fd2578395505050505050615004565b600083148015614fe25750600085115b15614fec57600094505b505b50808060019003915050614f0c565b5080925050505b919050565b8173c8d3a942a82290612dd8167bd9ce2d3054baf8b773ffffffffffffffffffffffffffffffffffffffff168173ffffffffffffffffffffffffffffffffffffffff1614156150c0576040517f08c379a00000000000000000000000000000000000000000000000000000000081526004018080602001828103825260178152602001807f4665652061646472657373206e6f7420616c6c6f77656400000000000000000081525060200191505060405180910390fd5b60006301dfe20090506150d1615455565b73ffffffffffffffffffffffffffffffffffffffff16631bb47b448585846040518463ffffffff1660e01b8152600401808473ffffffffffffffffffffffffffffffffffffffff1673ffffffffffffffffffffffffffffffffffffffff1681526020018381526020018281526020019350505050600060405180830381600087803b15801561515f57600080fd5b505af1158015615173573d6000803e3d6000fd5b5050505050505050565b600260009054906101000a900473ffffffffffffffffffffffffffffffffffffffff1673ffffffffffffffffffffffffffffffffffffffff1663907dff97848484604051602001808473ffffffffffffffffffffffffffffffffffffffff1673ffffffffffffffffffffffffffffffffffffffff1681526020018381526020018281526020019350505050604051602081830303815290604052600160405180806155f4602491396024019050604051809103902060008060006040518763ffffffff1660e01b815260040180806020018781526020018681526020018560001b81526020018460001b81526020018360001b8152602001828103825288818151815260200191508051906020019080838360005b838110156152ad578082015181840152602081019050615292565b50505050905090810190601f1680156152da5780820380516001836020036101000a031916815260200191505b50975050505050505050600060405180830381600087803b1580156152fe57600080fd5b505af1158015615312573d6000803e3d6000fd5b50505050505050565b60008083141561532e576000905061539b565b600082840290508284828161533f57fe5b0414615396576040517f08c379a00000000000000000000000000000000000000000000000000000000081526004018080602001828103825260218152602001806156be6021913960400191505060405180910390fd5b809150505b92915050565b6000806153cc846153be600a86028861531b90919063ffffffff16565b61548590919063ffffffff16565b90506005600a82816153da57fe5b06106153e757600a810190505b600a81816153f157fe5b049150509392505050565b600080600a838161540957fe5b0461541d858761531b90919063ffffffff16565b8161542457fe5b0490506005600a828161543357fe5b061061544057600a810190505b600a818161544a57fe5b049150509392505050565b60006154807f526577617264457363726f775632000000000000000000000000000000000000614830565b905090565b60008082116154fc576040517f08c379a000000000000000000000000000000000000000000000000000000000815260040180806020018281038252601a8152602001807f536166654d6174683a206469766973696f6e206279207a65726f00000000000081525060200191505060405180910390fd5b600082848161550757fe5b0490508091505092915050565b60405180604001604052806002905b61552b61559c565b8152602001906001900390816155235790505090565b6040518060e00160405280600067ffffffffffffffff168152602001600067ffffffffffffffff168152602001600067ffffffffffffffff168152602001600081526020016000815260200160008152602001600081525090565b604051806040016040528060029060208202803883398082019150509050509056fe596f75206d757374206265206e6f6d696e61746564206265666f726520796f752063616e20616363657074206f776e65727368697046656573436c61696d656428616464726573732c75696e743235362c75696e743235362949737375616e636544656274526174696f456e74727928616464726573732c75696e743235362c75696e743235362c75696e74323536294e6f2066656573206f72207265776172647320617661696c61626c6520666f7220706572696f642c206f72206665657320616c726561647920636c61696d65644f6e6c792074686520636f6e7472616374206f776e6572206d617920706572666f726d207468697320616374696f6e536166654d6174683a206d756c7469706c69636174696f6e206f766572666c6f7743616e206f6e6c7920706572666f726d207468697320616374696f6e20647572696e67207365747570a265627a7a72315820b9b1c493d89d4121cc519270d5418b095dcb4e52d50c59c9847525c592748b1464736f6c63430005100032",
  "linkReferences": {
    "contracts/SafeDecimalMath.sol": {
      "SafeDecimalMath": [
        {
          "length": 20,
          "start": 12431
        },
        {
          "length": 20,
          "start": 16417
        }
      ]
    }
  },
  "deployedLinkReferences": {
    "contracts/SafeDecimalMath.sol": {
      "SafeDecimalMath": [
        {
          "length": 20,
          "start": 11284
        },
        {
          "length": 20,
          "start": 15270
        }
      ]
    }
  }
}