{
  "_format": "hh-sol-artifact-1",
  "contractName": "PynthUtil",
  "sourceName": "contracts/PynthUtil.sol",
  "abi": [
    {
      "inputs": [
        {
          "internalType": "address",
          "name": "resolver",
          "type": "address"
        }
      ],
      "payable": false,
      "stateMutability": "nonpayable",
      "type": "constructor"
    },
    {
      "constant": true,
      "inputs": [],
      "name": "addressResolverProxy",
      "outputs": [
        {
          "internalType": "contract IAddressResolver",
          "name": "",
          "type": "address"
        }
      ],
      "payable": false,
      "stateMutability": "view",
      "type": "function"
    },
    {
      "constant": true,
      "inputs": [],
      "name": "frozenPynths",
      "outputs": [
        {
          "internalType": "bytes32[]",
          "name": "",
          "type": "bytes32[]"
        }
      ],
      "payable": false,
      "stateMutability": "view",
      "type": "function"
    },
    {
      "constant": true,
      "inputs": [
        {
          "internalType": "address",
          "name": "account",
          "type": "address"
        }
      ],
      "name": "pynthsBalances",
      "outputs": [
        {
          "internalType": "bytes32[]",
          "name": "",
          "type": "bytes32[]"
        },
        {
          "internalType": "uint256[]",
          "name": "",
          "type": "uint256[]"
        },
        {
          "internalType": "uint256[]",
          "name": "",
          "type": "uint256[]"
        }
      ],
      "payable": false,
      "stateMutability": "view",
      "type": "function"
    },
    {
      "constant": true,
      "inputs": [],
      "name": "pynthsRates",
      "outputs": [
        {
          "internalType": "bytes32[]",
          "name": "",
          "type": "bytes32[]"
        },
        {
          "internalType": "uint256[]",
          "name": "",
          "type": "uint256[]"
        }
      ],
      "payable": false,
      "stateMutability": "view",
      "type": "function"
    },
    {
      "constant": true,
      "inputs": [],
      "name": "pynthsTotalSupplies",
      "outputs": [
        {
          "internalType": "bytes32[]",
          "name": "",
          "type": "bytes32[]"
        },
        {
          "internalType": "uint256[]",
          "name": "",
          "type": "uint256[]"
        },
        {
          "internalType": "uint256[]",
          "name": "",
          "type": "uint256[]"
        }
      ],
      "payable": false,
      "stateMutability": "view",
      "type": "function"
    },
    {
      "constant": true,
      "inputs": [
        {
          "internalType": "address",
          "name": "account",
          "type": "address"
        },
        {
          "internalType": "bytes32",
          "name": "currencyKey",
          "type": "bytes32"
        }
      ],
      "name": "totalPynthsInKey",
      "outputs": [
        {
          "internalType": "uint256",
          "name": "total",
          "type": "uint256"
        }
      ],
      "payable": false,
      "stateMutability": "view",
      "type": "function"
    }
  ],
  "bytecode": "0x608060405234801561001057600080fd5b506040516118cc3803806118cc8339818101604052602081101561003357600080fd5b8101908080519060200190929190505050806000806101000a81548173ffffffffffffffffffffffffffffffffffffffff021916908373ffffffffffffffffffffffffffffffffffffffff16021790555050611838806100946000396000f3fe608060405234801561001057600080fd5b50600436106100625760003560e01c80632ebf118b14610067578063597ece84146100c6578063b2637a91146101ef578063ca2577e1146102de578063d18ab37614610340578063d55415231461038a575b600080fd5b61006f610431565b6040518080602001828103825283818151815260200191508051906020019060200280838360005b838110156100b2578082015181840152602081019050610097565b505050509050019250505060405180910390f35b610108600480360360208110156100dc57600080fd5b81019080803573ffffffffffffffffffffffffffffffffffffffff169060200190929190505050610766565b60405180806020018060200180602001848103845287818151815260200191508051906020019060200280838360005b83811015610153578082015181840152602081019050610138565b50505050905001848103835286818151815260200191508051906020019060200280838360005b8381101561019557808201518184015260208101905061017a565b50505050905001848103825285818151815260200191508051906020019060200280838360005b838110156101d75780820151818401526020810190506101bc565b50505050905001965050505050505060405180910390f35b6101f7610bca565b60405180806020018060200180602001848103845287818151815260200191508051906020019060200280838360005b83811015610242578082015181840152602081019050610227565b50505050905001848103835286818151815260200191508051906020019060200280838360005b83811015610284578082015181840152602081019050610269565b50505050905001848103825285818151815260200191508051906020019060200280838360005b838110156102c65780820151818401526020810190506102ab565b50505050905001965050505050505060405180910390f35b61032a600480360360408110156102f457600080fd5b81019080803573ffffffffffffffffffffffffffffffffffffffff16906020019092919080359060200190929190505050610ff5565b6040518082815260200191505060405180910390f35b610348611323565b604051808273ffffffffffffffffffffffffffffffffffffffff1673ffffffffffffffffffffffffffffffffffffffff16815260200191505060405180910390f35b610392611348565b604051808060200180602001838103835285818151815260200191508051906020019060200280838360005b838110156103d95780820151818401526020810190506103be565b50505050905001838103825284818151815260200191508051906020019060200280838360005b8381101561041b578082015181840152602081019050610400565b5050505090500194505050505060405180910390f35b6060600061043d6115e9565b905060006104496116f6565b905060008273ffffffffffffffffffffffffffffffffffffffff1663d99947de6040518163ffffffff1660e01b815260040160206040518083038186803b15801561049357600080fd5b505afa1580156104a7573d6000803e3d6000fd5b505050506040513d60208110156104bd57600080fd5b810190808051906020019092919050505090506060816040519080825280602002602001820160405280156105015781602001602082028038833980820191505090505b50905060008090505b8281101561075b5760008573ffffffffffffffffffffffffffffffffffffffff16639df95f9f836040518263ffffffff1660e01b81526004018082815260200191505060206040518083038186803b15801561056557600080fd5b505afa158015610579573d6000803e3d6000fd5b505050506040513d602081101561058f57600080fd5b810190808051906020019092919050505090508473ffffffffffffffffffffffffffffffffffffffff1663af3aea868273ffffffffffffffffffffffffffffffffffffffff1663dbd06c856040518163ffffffff1660e01b815260040160206040518083038186803b15801561060457600080fd5b505afa158015610618573d6000803e3d6000fd5b505050506040513d602081101561062e57600080fd5b81019080805190602001909291905050506040518263ffffffff1660e01b81526004018082815260200191505060206040518083038186803b15801561067357600080fd5b505afa158015610687573d6000803e3d6000fd5b505050506040513d602081101561069d57600080fd5b81019080805190602001909291905050501561074d578073ffffffffffffffffffffffffffffffffffffffff1663dbd06c856040518163ffffffff1660e01b815260040160206040518083038186803b1580156106f957600080fd5b505afa15801561070d573d6000803e3d6000fd5b505050506040513d602081101561072357600080fd5b810190808051906020019092919050505083838151811061074057fe5b6020026020010181815250505b50808060010191505061050a565b508094505050505090565b606080606060006107756115e9565b905060006107816116f6565b905060008273ffffffffffffffffffffffffffffffffffffffff1663d99947de6040518163ffffffff1660e01b815260040160206040518083038186803b1580156107cb57600080fd5b505afa1580156107df573d6000803e3d6000fd5b505050506040513d60208110156107f557600080fd5b810190808051906020019092919050505090506060816040519080825280602002602001820160405280156108395781602001602082028038833980820191505090505b50905060608260405190808252806020026020018201604052801561086d5781602001602082028038833980820191505090505b5090506060836040519080825280602002602001820160405280156108a15781602001602082028038833980820191505090505b50905060008090505b84811015610bb35760008773ffffffffffffffffffffffffffffffffffffffff16639df95f9f836040518263ffffffff1660e01b81526004018082815260200191505060206040518083038186803b15801561090557600080fd5b505afa158015610919573d6000803e3d6000fd5b505050506040513d602081101561092f57600080fd5b810190808051906020019092919050505090508073ffffffffffffffffffffffffffffffffffffffff1663dbd06c856040518163ffffffff1660e01b815260040160206040518083038186803b15801561098857600080fd5b505afa15801561099c573d6000803e3d6000fd5b505050506040513d60208110156109b257600080fd5b81019080805190602001909291905050508583815181106109cf57fe5b6020026020010181815250508073ffffffffffffffffffffffffffffffffffffffff166370a082318d6040518263ffffffff1660e01b8152600401808273ffffffffffffffffffffffffffffffffffffffff1673ffffffffffffffffffffffffffffffffffffffff16815260200191505060206040518083038186803b158015610a5857600080fd5b505afa158015610a6c573d6000803e3d6000fd5b505050506040513d6020811015610a8257600080fd5b8101908080519060200190929190505050848381518110610a9f57fe5b6020026020010181815250508673ffffffffffffffffffffffffffffffffffffffff1663654a60ac868481518110610ad357fe5b6020026020010151868581518110610ae757fe5b60200260200101517f70555344000000000000000000000000000000000000000000000000000000006040518463ffffffff1660e01b815260040180848152602001838152602001828152602001935050505060206040518083038186803b158015610b5257600080fd5b505afa158015610b66573d6000803e3d6000fd5b505050506040513d6020811015610b7c57600080fd5b8101908080519060200190929190505050838381518110610b9957fe5b6020026020010181815250505080806001019150506108aa565b508282829850985098505050505050509193909250565b60608060606000610bd96115e9565b90506000610be56116f6565b905060008273ffffffffffffffffffffffffffffffffffffffff1663d99947de6040518163ffffffff1660e01b815260040160206040518083038186803b158015610c2f57600080fd5b505afa158015610c43573d6000803e3d6000fd5b505050506040513d6020811015610c5957600080fd5b81019080805190602001909291905050509050606081604051908082528060200260200182016040528015610c9d5781602001602082028038833980820191505090505b509050606082604051908082528060200260200182016040528015610cd15781602001602082028038833980820191505090505b509050606083604051908082528060200260200182016040528015610d055781602001602082028038833980820191505090505b50905060008090505b84811015610fe05760008773ffffffffffffffffffffffffffffffffffffffff16639df95f9f836040518263ffffffff1660e01b81526004018082815260200191505060206040518083038186803b158015610d6957600080fd5b505afa158015610d7d573d6000803e3d6000fd5b505050506040513d6020811015610d9357600080fd5b810190808051906020019092919050505090508073ffffffffffffffffffffffffffffffffffffffff1663dbd06c856040518163ffffffff1660e01b815260040160206040518083038186803b158015610dec57600080fd5b505afa158015610e00573d6000803e3d6000fd5b505050506040513d6020811015610e1657600080fd5b8101908080519060200190929190505050858381518110610e3357fe5b6020026020010181815250508073ffffffffffffffffffffffffffffffffffffffff166318160ddd6040518163ffffffff1660e01b815260040160206040518083038186803b158015610e8557600080fd5b505afa158015610e99573d6000803e3d6000fd5b505050506040513d6020811015610eaf57600080fd5b8101908080519060200190929190505050848381518110610ecc57fe5b6020026020010181815250508673ffffffffffffffffffffffffffffffffffffffff1663654a60ac868481518110610f0057fe5b6020026020010151868581518110610f1457fe5b60200260200101517f70555344000000000000000000000000000000000000000000000000000000006040518463ffffffff1660e01b815260040180848152602001838152602001828152602001935050505060206040518083038186803b158015610f7f57600080fd5b505afa158015610f93573d6000803e3d6000fd5b505050506040513d6020811015610fa957600080fd5b8101908080519060200190929190505050838381518110610fc657fe5b602002602001018181525050508080600101915050610d0e565b50828282985098509850505050505050909192565b6000806110006115e9565b9050600061100c6116f6565b905060008273ffffffffffffffffffffffffffffffffffffffff1663d99947de6040518163ffffffff1660e01b815260040160206040518083038186803b15801561105657600080fd5b505afa15801561106a573d6000803e3d6000fd5b505050506040513d602081101561108057600080fd5b8101908080519060200190929190505050905060008090505b818110156113165760008473ffffffffffffffffffffffffffffffffffffffff16639df95f9f836040518263ffffffff1660e01b81526004018082815260200191505060206040518083038186803b1580156110f457600080fd5b505afa158015611108573d6000803e3d6000fd5b505050506040513d602081101561111e57600080fd5b810190808051906020019092919050505090508373ffffffffffffffffffffffffffffffffffffffff1663654a60ac8273ffffffffffffffffffffffffffffffffffffffff1663dbd06c856040518163ffffffff1660e01b815260040160206040518083038186803b15801561119357600080fd5b505afa1580156111a7573d6000803e3d6000fd5b505050506040513d60208110156111bd57600080fd5b81019080805190602001909291905050508373ffffffffffffffffffffffffffffffffffffffff166370a082318c6040518263ffffffff1660e01b8152600401808273ffffffffffffffffffffffffffffffffffffffff1673ffffffffffffffffffffffffffffffffffffffff16815260200191505060206040518083038186803b15801561124b57600080fd5b505afa15801561125f573d6000803e3d6000fd5b505050506040513d602081101561127557600080fd5b81019080805190602001909291905050508a6040518463ffffffff1660e01b815260040180848152602001838152602001828152602001935050505060206040518083038186803b1580156112c957600080fd5b505afa1580156112dd573d6000803e3d6000fd5b505050506040513d60208110156112f357600080fd5b810190808051906020019092919050505086019550508080600101915050611099565b5083935050505092915050565b6000809054906101000a900473ffffffffffffffffffffffffffffffffffffffff1681565b60608060606113556115e9565b73ffffffffffffffffffffffffffffffffffffffff166372cb051f6040518163ffffffff1660e01b815260040160006040518083038186803b15801561139a57600080fd5b505afa1580156113ae573d6000803e3d6000fd5b505050506040513d6000823e3d601f19601f8201168201806040525060208110156113d857600080fd5b81019080805160405193929190846401000000008211156113f857600080fd5b8382019150602082018581111561140e57600080fd5b825186602082028301116401000000008211171561142b57600080fd5b8083526020830192505050908051906020019060200280838360005b83811015611462578082015181840152602081019050611447565b5050505090500160405250505090508061147a6116f6565b73ffffffffffffffffffffffffffffffffffffffff1663c2c8a676836040518263ffffffff1660e01b81526004018080602001828103825283818151815260200191508051906020019060200280838360005b838110156114e85780820151818401526020810190506114cd565b505050509050019250505060006040518083038186803b15801561150b57600080fd5b505afa15801561151f573d6000803e3d6000fd5b505050506040513d6000823e3d601f19601f82011682018060405250602081101561154957600080fd5b810190808051604051939291908464010000000082111561156957600080fd5b8382019150602082018581111561157f57600080fd5b825186602082028301116401000000008211171561159c57600080fd5b8083526020830192505050908051906020019060200280838360005b838110156115d35780820151818401526020810190506115b8565b5050505090500160405250505092509250509091565b60008060009054906101000a900473ffffffffffffffffffffffffffffffffffffffff1673ffffffffffffffffffffffffffffffffffffffff1663dacb2d017f5065726946696e000000000000000000000000000000000000000000000000006040518263ffffffff1660e01b81526004018082815260200180602001828103825260178152602001807f4d697373696e67205065726946696e20616464726573730000000000000000008152506020019250505060206040518083038186803b1580156116b657600080fd5b505afa1580156116ca573d6000803e3d6000fd5b505050506040513d60208110156116e057600080fd5b8101908080519060200190929190505050905090565b60008060009054906101000a900473ffffffffffffffffffffffffffffffffffffffff1673ffffffffffffffffffffffffffffffffffffffff1663dacb2d017f45786368616e67655261746573000000000000000000000000000000000000006040518263ffffffff1660e01b815260040180828152602001806020018281038252601d8152602001807f4d697373696e672045786368616e6765526174657320616464726573730000008152506020019250505060206040518083038186803b1580156117c357600080fd5b505afa1580156117d7573d6000803e3d6000fd5b505050506040513d60208110156117ed57600080fd5b810190808051906020019092919050505090509056fea265627a7a72315820590ab5679c177ec4955deeb532d83e35a485f3f0c1777b50da2ab878f6566b4764736f6c63430005100032",
  "linkReferences": {},
  "deployedLinkReferences": {}
}