{
  "_format": "hh-sol-artifact-1",
  "contractName": "EmptyCollateralManager",
  "sourceName": "contracts/EmptyCollateralManager.sol",
  "abi": [
    {
      "constant": false,
      "inputs": [
        {
          "internalType": "address[]",
          "name": "",
          "type": "address[]"
        }
      ],
      "name": "addCollaterals",
      "outputs": [],
      "payable": false,
      "stateMutability": "nonpayable",
      "type": "function"
    },
    {
      "constant": false,
      "inputs": [
        {
          "internalType": "bytes32[]",
          "name": "",
          "type": "bytes32[]"
        },
        {
          "internalType": "bytes32[]",
          "name": "",
          "type": "bytes32[]"
        }
      ],
      "name": "addPynths",
      "outputs": [],
      "payable": false,
      "stateMutability": "nonpayable",
      "type": "function"
    },
    {
      "constant": false,
      "inputs": [
        {
          "internalType": "bytes32[2][]",
          "name": "",
          "type": "bytes32[2][]"
        },
        {
          "internalType": "bytes32[]",
          "name": "",
          "type": "bytes32[]"
        }
      ],
      "name": "addShortablePynths",
      "outputs": [],
      "payable": false,
      "stateMutability": "nonpayable",
      "type": "function"
    },
    {
      "constant": true,
      "inputs": [
        {
          "internalType": "bytes32[]",
          "name": "",
          "type": "bytes32[]"
        },
        {
          "internalType": "bytes32[]",
          "name": "",
          "type": "bytes32[]"
        }
      ],
      "name": "arePynthsAndCurrenciesSet",
      "outputs": [
        {
          "internalType": "bool",
          "name": "",
          "type": "bool"
        }
      ],
      "payable": false,
      "stateMutability": "view",
      "type": "function"
    },
    {
      "constant": true,
      "inputs": [
        {
          "internalType": "bytes32[]",
          "name": "",
          "type": "bytes32[]"
        },
        {
          "internalType": "bytes32[]",
          "name": "",
          "type": "bytes32[]"
        }
      ],
      "name": "areShortablePynthsSet",
      "outputs": [
        {
          "internalType": "bool",
          "name": "",
          "type": "bool"
        }
      ],
      "payable": false,
      "stateMutability": "view",
      "type": "function"
    },
    {
      "constant": false,
      "inputs": [
        {
          "internalType": "bytes32",
          "name": "",
          "type": "bytes32"
        },
        {
          "internalType": "uint256",
          "name": "",
          "type": "uint256"
        }
      ],
      "name": "decrementLongs",
      "outputs": [],
      "payable": false,
      "stateMutability": "nonpayable",
      "type": "function"
    },
    {
      "constant": false,
      "inputs": [
        {
          "internalType": "bytes32",
          "name": "",
          "type": "bytes32"
        },
        {
          "internalType": "uint256",
          "name": "",
          "type": "uint256"
        }
      ],
      "name": "decrementShorts",
      "outputs": [],
      "payable": false,
      "stateMutability": "nonpayable",
      "type": "function"
    },
    {
      "constant": true,
      "inputs": [
        {
          "internalType": "uint256",
          "name": "",
          "type": "uint256"
        },
        {
          "internalType": "bytes32",
          "name": "",
          "type": "bytes32"
        }
      ],
      "name": "exceedsDebtLimit",
      "outputs": [
        {
          "internalType": "bool",
          "name": "canIssue",
          "type": "bool"
        },
        {
          "internalType": "bool",
          "name": "anyRateIsInvalid",
          "type": "bool"
        }
      ],
      "payable": false,
      "stateMutability": "view",
      "type": "function"
    },
    {
      "constant": true,
      "inputs": [],
      "name": "getBorrowRate",
      "outputs": [
        {
          "internalType": "uint256",
          "name": "borrowRate",
          "type": "uint256"
        },
        {
          "internalType": "bool",
          "name": "anyRateIsInvalid",
          "type": "bool"
        }
      ],
      "payable": false,
      "stateMutability": "view",
      "type": "function"
    },
    {
      "constant": false,
      "inputs": [],
      "name": "getNewLoanId",
      "outputs": [
        {
          "internalType": "uint256",
          "name": "id",
          "type": "uint256"
        }
      ],
      "payable": false,
      "stateMutability": "nonpayable",
      "type": "function"
    },
    {
      "constant": true,
      "inputs": [
        {
          "internalType": "uint256",
          "name": "",
          "type": "uint256"
        }
      ],
      "name": "getRatesAndTime",
      "outputs": [
        {
          "internalType": "uint256",
          "name": "entryRate",
          "type": "uint256"
        },
        {
          "internalType": "uint256",
          "name": "lastRate",
          "type": "uint256"
        },
        {
          "internalType": "uint256",
          "name": "lastUpdated",
          "type": "uint256"
        },
        {
          "internalType": "uint256",
          "name": "newIndex",
          "type": "uint256"
        }
      ],
      "payable": false,
      "stateMutability": "view",
      "type": "function"
    },
    {
      "constant": true,
      "inputs": [
        {
          "internalType": "bytes32",
          "name": "",
          "type": "bytes32"
        }
      ],
      "name": "getShortRate",
      "outputs": [
        {
          "internalType": "uint256",
          "name": "shortRate",
          "type": "uint256"
        },
        {
          "internalType": "bool",
          "name": "rateIsInvalid",
          "type": "bool"
        }
      ],
      "payable": false,
      "stateMutability": "view",
      "type": "function"
    },
    {
      "constant": true,
      "inputs": [
        {
          "internalType": "bytes32",
          "name": "",
          "type": "bytes32"
        },
        {
          "internalType": "uint256",
          "name": "",
          "type": "uint256"
        }
      ],
      "name": "getShortRatesAndTime",
      "outputs": [
        {
          "internalType": "uint256",
          "name": "entryRate",
          "type": "uint256"
        },
        {
          "internalType": "uint256",
          "name": "lastRate",
          "type": "uint256"
        },
        {
          "internalType": "uint256",
          "name": "lastUpdated",
          "type": "uint256"
        },
        {
          "internalType": "uint256",
          "name": "newIndex",
          "type": "uint256"
        }
      ],
      "payable": false,
      "stateMutability": "view",
      "type": "function"
    },
    {
      "constant": true,
      "inputs": [
        {
          "internalType": "address",
          "name": "",
          "type": "address"
        }
      ],
      "name": "hasCollateral",
      "outputs": [
        {
          "internalType": "bool",
          "name": "",
          "type": "bool"
        }
      ],
      "payable": false,
      "stateMutability": "view",
      "type": "function"
    },
    {
      "constant": false,
      "inputs": [
        {
          "internalType": "bytes32",
          "name": "",
          "type": "bytes32"
        },
        {
          "internalType": "uint256",
          "name": "",
          "type": "uint256"
        }
      ],
      "name": "incrementLongs",
      "outputs": [],
      "payable": false,
      "stateMutability": "nonpayable",
      "type": "function"
    },
    {
      "constant": false,
      "inputs": [
        {
          "internalType": "bytes32",
          "name": "",
          "type": "bytes32"
        },
        {
          "internalType": "uint256",
          "name": "",
          "type": "uint256"
        }
      ],
      "name": "incrementShorts",
      "outputs": [],
      "payable": false,
      "stateMutability": "nonpayable",
      "type": "function"
    },
    {
      "constant": true,
      "inputs": [
        {
          "internalType": "bytes32",
          "name": "",
          "type": "bytes32"
        }
      ],
      "name": "isPynthManaged",
      "outputs": [
        {
          "internalType": "bool",
          "name": "",
          "type": "bool"
        }
      ],
      "payable": false,
      "stateMutability": "view",
      "type": "function"
    },
    {
      "constant": true,
      "inputs": [
        {
          "internalType": "bytes32",
          "name": "",
          "type": "bytes32"
        }
      ],
      "name": "long",
      "outputs": [
        {
          "internalType": "uint256",
          "name": "amount",
          "type": "uint256"
        }
      ],
      "payable": false,
      "stateMutability": "view",
      "type": "function"
    },
    {
      "constant": false,
      "inputs": [
        {
          "internalType": "address[]",
          "name": "",
          "type": "address[]"
        }
      ],
      "name": "removeCollaterals",
      "outputs": [],
      "payable": false,
      "stateMutability": "nonpayable",
      "type": "function"
    },
    {
      "constant": false,
      "inputs": [
        {
          "internalType": "bytes32[]",
          "name": "",
          "type": "bytes32[]"
        },
        {
          "internalType": "bytes32[]",
          "name": "",
          "type": "bytes32[]"
        }
      ],
      "name": "removePynths",
      "outputs": [],
      "payable": false,
      "stateMutability": "nonpayable",
      "type": "function"
    },
    {
      "constant": false,
      "inputs": [
        {
          "internalType": "bytes32[]",
          "name": "",
          "type": "bytes32[]"
        }
      ],
      "name": "removeShortablePynths",
      "outputs": [],
      "payable": false,
      "stateMutability": "nonpayable",
      "type": "function"
    },
    {
      "constant": true,
      "inputs": [
        {
          "internalType": "bytes32",
          "name": "",
          "type": "bytes32"
        }
      ],
      "name": "short",
      "outputs": [
        {
          "internalType": "uint256",
          "name": "amount",
          "type": "uint256"
        }
      ],
      "payable": false,
      "stateMutability": "view",
      "type": "function"
    },
    {
      "constant": true,
      "inputs": [],
      "name": "totalLong",
      "outputs": [
        {
          "internalType": "uint256",
          "name": "susdValue",
          "type": "uint256"
        },
        {
          "internalType": "bool",
          "name": "anyRateIsInvalid",
          "type": "bool"
        }
      ],
      "payable": false,
      "stateMutability": "view",
      "type": "function"
    },
    {
      "constant": true,
      "inputs": [],
      "name": "totalShort",
      "outputs": [
        {
          "internalType": "uint256",
          "name": "susdValue",
          "type": "uint256"
        },
        {
          "internalType": "bool",
          "name": "anyRateIsInvalid",
          "type": "bool"
        }
      ],
      "payable": false,
      "stateMutability": "view",
      "type": "function"
    },
    {
      "constant": false,
      "inputs": [
        {
          "internalType": "uint256",
          "name": "",
          "type": "uint256"
        }
      ],
      "name": "updateBorrowRates",
      "outputs": [],
      "payable": false,
      "stateMutability": "nonpayable",
      "type": "function"
    },
    {
      "constant": false,
      "inputs": [
        {
          "internalType": "bytes32",
          "name": "",
          "type": "bytes32"
        },
        {
          "internalType": "uint256",
          "name": "",
          "type": "uint256"
        }
      ],
      "name": "updateShortRates",
      "outputs": [],
      "payable": false,
      "stateMutability": "nonpayable",
      "type": "function"
    }
  ],
  "bytecode": "0x608060405234801561001057600080fd5b50610cf3806100206000396000f3fe608060405234801561001057600080fd5b506004361061018e5760003560e01c8063b4d6cb40116100de578063e32261fe11610097578063ee81f79011610071578063ee81f790146109bf578063f53037b614610a0c578063fb5aa1e114610a3a578063ffa749cd14610b205761018e565b8063e32261fe1461090d578063e50a31b31461094f578063eb94bbde146109875761018e565b8063b4d6cb401461071d578063ba1c5e8014610778578063bbb601cd146107a1578063cc7ae6631461081a578063d2f0047514610893578063e31f27c1146108d55761018e565b806342e32f131161014b578063ad79a85811610125578063ad79a85814610619578063af07aa9d14610642578063b38988f7146106a3578063b3b46732146106ff5761018e565b806342e32f13146104cd5780635246f2b91461051357806355bd615c1461054b5761018e565b806303f048b0146101935780630692b170146101ea5780630e54a19b146102b85780631e33fc6b1461039e57806324620639146103c75780632e5de389146103ff575b600080fd5b6101bf600480360360208110156101a957600080fd5b8101908080359060200190929190505050610b99565b6040518085815260200184815260200183815260200182815260200194505050505060405180910390f35b6102b66004803603604081101561020057600080fd5b810190808035906020019064010000000081111561021d57600080fd5b82018360208201111561022f57600080fd5b8035906020019184604083028401116401000000008311171561025157600080fd5b90919293919293908035906020019064010000000081111561027257600080fd5b82018360208201111561028457600080fd5b803590602001918460208302840111640100000000831117156102a657600080fd5b9091929391929390505050610bc0565b005b610384600480360360408110156102ce57600080fd5b81019080803590602001906401000000008111156102eb57600080fd5b8201836020820111156102fd57600080fd5b8035906020019184602083028401116401000000008311171561031f57600080fd5b90919293919293908035906020019064010000000081111561034057600080fd5b82018360208201111561035257600080fd5b8035906020019184602083028401116401000000008311171561037457600080fd5b9091929391929390505050610bc6565b604051808215151515815260200191505060405180910390f35b6103a6610bd3565b60405180838152602001821515151581526020019250505060405180910390f35b6103fd600480360360408110156103dd57600080fd5b810190808035906020019092919080359060200190929190505050610be4565b005b6104cb6004803603604081101561041557600080fd5b810190808035906020019064010000000081111561043257600080fd5b82018360208201111561044457600080fd5b8035906020019184602083028401116401000000008311171561046657600080fd5b90919293919293908035906020019064010000000081111561048757600080fd5b82018360208201111561049957600080fd5b803590602001918460208302840111640100000000831117156104bb57600080fd5b9091929391929390505050610be8565b005b6104f9600480360360208110156104e357600080fd5b8101908080359060200190929190505050610bee565b604051808215151515815260200191505060405180910390f35b6105496004803603604081101561052957600080fd5b810190808035906020019092919080359060200190929190505050610bf8565b005b6106176004803603604081101561056157600080fd5b810190808035906020019064010000000081111561057e57600080fd5b82018360208201111561059057600080fd5b803590602001918460208302840111640100000000831117156105b257600080fd5b9091929391929390803590602001906401000000008111156105d357600080fd5b8201836020820111156105e557600080fd5b8035906020019184602083028401116401000000008311171561060757600080fd5b9091929391929390505050610bfc565b005b610621610c02565b60405180838152602001821515151581526020019250505060405180910390f35b6106786004803603604081101561065857600080fd5b810190808035906020019092919080359060200190929190505050610c13565b6040518085815260200184815260200183815260200182815260200194505050505060405180910390f35b6106e5600480360360208110156106b957600080fd5b81019080803573ffffffffffffffffffffffffffffffffffffffff169060200190929190505050610c3c565b604051808215151515815260200191505060405180910390f35b610707610c46565b6040518082815260200191505060405180910390f35b6107536004803603604081101561073357600080fd5b810190808035906020019092919080359060200190929190505050610c4e565b6040518083151515158152602001821515151581526020019250505060405180910390f35b610780610c5f565b60405180838152602001821515151581526020019250505060405180910390f35b610818600480360360208110156107b757600080fd5b81019080803590602001906401000000008111156107d457600080fd5b8201836020820111156107e657600080fd5b8035906020019184602083028401116401000000008311171561080857600080fd5b9091929391929390505050610c70565b005b6108916004803603602081101561083057600080fd5b810190808035906020019064010000000081111561084d57600080fd5b82018360208201111561085f57600080fd5b8035906020019184602083028401116401000000008311171561088157600080fd5b9091929391929390505050610c74565b005b6108bf600480360360208110156108a957600080fd5b8101908080359060200190929190505050610c78565b6040518082815260200191505060405180910390f35b61090b600480360360408110156108eb57600080fd5b810190808035906020019092919080359060200190929190505050610c82565b005b6109396004803603602081101561092357600080fd5b8101908080359060200190929190505050610c86565b6040518082815260200191505060405180910390f35b6109856004803603604081101561096557600080fd5b810190808035906020019092919080359060200190929190505050610c90565b005b6109bd6004803603604081101561099d57600080fd5b810190808035906020019092919080359060200190929190505050610c94565b005b6109eb600480360360208110156109d557600080fd5b8101908080359060200190929190505050610c98565b60405180838152602001821515151581526020019250505060405180910390f35b610a3860048036036020811015610a2257600080fd5b8101908080359060200190929190505050610caa565b005b610b0660048036036040811015610a5057600080fd5b8101908080359060200190640100000000811115610a6d57600080fd5b820183602082011115610a7f57600080fd5b80359060200191846020830284011164010000000083111715610aa157600080fd5b909192939192939080359060200190640100000000811115610ac257600080fd5b820183602082011115610ad457600080fd5b80359060200191846020830284011164010000000083111715610af657600080fd5b9091929391929390505050610cad565b604051808215151515815260200191505060405180910390f35b610b9760048036036020811015610b3657600080fd5b8101908080359060200190640100000000811115610b5357600080fd5b820183602082011115610b6557600080fd5b80359060200191846020830284011164010000000083111715610b8757600080fd5b9091929391929390505050610cba565b005b60008060008060008060008083935082925081915080905093509350935093509193509193565b50505050565b6000809050949350505050565b600080600080819150915091509091565b5050565b50505050565b6000809050919050565b5050565b50505050565b600080600080819150915091509091565b600080600080600080600080839350829250819150809050935093509350935092959194509250565b6000809050919050565b600080905090565b600080600080915091509250929050565b600080600080819150915091509091565b5050565b5050565b6000809050919050565b5050565b6000809050919050565b5050565b5050565b60008060008081915091509150915091565b50565b6000809050949350505050565b505056fea265627a7a72315820d32a1a787c86f6fd1cd80a7ef054b883c37ec2e89d843c0f61866e69d202edf364736f6c63430005100032",
  "linkReferences": {},
  "deployedLinkReferences": {}
}