{
  "_format": "hh-sol-artifact-1",
  "contractName": "ExchangeRates",
  "sourceName": "contracts/ExchangeRates.sol",
  "abi": [
    {
      "inputs": [
        {
          "internalType": "address",
          "name": "_owner",
          "type": "address"
        },
        {
          "internalType": "address",
          "name": "_oracle",
          "type": "address"
        },
        {
          "internalType": "address",
          "name": "_resolver",
          "type": "address"
        },
        {
          "internalType": "bytes32[]",
          "name": "_currencyKeys",
          "type": "bytes32[]"
        },
        {
          "internalType": "uint256[]",
          "name": "_newRates",
          "type": "uint256[]"
        }
      ],
      "payable": false,
      "stateMutability": "nonpayable",
      "type": "constructor"
    },
    {
      "anonymous": false,
      "inputs": [
        {
          "indexed": false,
          "internalType": "bytes32",
          "name": "currencyKey",
          "type": "bytes32"
        },
        {
          "indexed": false,
          "internalType": "address",
          "name": "aggregator",
          "type": "address"
        }
      ],
      "name": "AggregatorAdded",
      "type": "event"
    },
    {
      "anonymous": false,
      "inputs": [
        {
          "indexed": false,
          "internalType": "bytes32",
          "name": "currencyKey",
          "type": "bytes32"
        },
        {
          "indexed": false,
          "internalType": "address",
          "name": "aggregator",
          "type": "address"
        }
      ],
      "name": "AggregatorRemoved",
      "type": "event"
    },
    {
      "anonymous": false,
      "inputs": [
        {
          "indexed": false,
          "internalType": "bytes32",
          "name": "name",
          "type": "bytes32"
        },
        {
          "indexed": false,
          "internalType": "address",
          "name": "destination",
          "type": "address"
        }
      ],
      "name": "CacheUpdated",
      "type": "event"
    },
    {
      "anonymous": false,
      "inputs": [
        {
          "indexed": false,
          "internalType": "bytes32",
          "name": "currencyKey",
          "type": "bytes32"
        },
        {
          "indexed": false,
          "internalType": "uint256",
          "name": "entryPoint",
          "type": "uint256"
        },
        {
          "indexed": false,
          "internalType": "uint256",
          "name": "upperLimit",
          "type": "uint256"
        },
        {
          "indexed": false,
          "internalType": "uint256",
          "name": "lowerLimit",
          "type": "uint256"
        }
      ],
      "name": "InversePriceConfigured",
      "type": "event"
    },
    {
      "anonymous": false,
      "inputs": [
        {
          "indexed": false,
          "internalType": "bytes32",
          "name": "currencyKey",
          "type": "bytes32"
        },
        {
          "indexed": false,
          "internalType": "uint256",
          "name": "rate",
          "type": "uint256"
        },
        {
          "indexed": false,
          "internalType": "uint256",
          "name": "roundId",
          "type": "uint256"
        },
        {
          "indexed": false,
          "internalType": "address",
          "name": "initiator",
          "type": "address"
        }
      ],
      "name": "InversePriceFrozen",
      "type": "event"
    },
    {
      "anonymous": false,
      "inputs": [
        {
          "indexed": false,
          "internalType": "address",
          "name": "newOracle",
          "type": "address"
        }
      ],
      "name": "OracleUpdated",
      "type": "event"
    },
    {
      "anonymous": false,
      "inputs": [
        {
          "indexed": false,
          "internalType": "address",
          "name": "oldOwner",
          "type": "address"
        },
        {
          "indexed": false,
          "internalType": "address",
          "name": "newOwner",
          "type": "address"
        }
      ],
      "name": "OwnerChanged",
      "type": "event"
    },
    {
      "anonymous": false,
      "inputs": [
        {
          "indexed": false,
          "internalType": "address",
          "name": "newOwner",
          "type": "address"
        }
      ],
      "name": "OwnerNominated",
      "type": "event"
    },
    {
      "anonymous": false,
      "inputs": [
        {
          "indexed": false,
          "internalType": "bytes32",
          "name": "currencyKey",
          "type": "bytes32"
        }
      ],
      "name": "RateDeleted",
      "type": "event"
    },
    {
      "anonymous": false,
      "inputs": [
        {
          "indexed": false,
          "internalType": "bytes32[]",
          "name": "currencyKeys",
          "type": "bytes32[]"
        },
        {
          "indexed": false,
          "internalType": "uint256[]",
          "name": "newRates",
          "type": "uint256[]"
        }
      ],
      "name": "RatesUpdated",
      "type": "event"
    },
    {
      "constant": false,
      "inputs": [],
      "name": "acceptOwnership",
      "outputs": [],
      "payable": false,
      "stateMutability": "nonpayable",
      "type": "function"
    },
    {
      "constant": false,
      "inputs": [
        {
          "internalType": "bytes32",
          "name": "currencyKey",
          "type": "bytes32"
        },
        {
          "internalType": "address",
          "name": "aggregatorAddress",
          "type": "address"
        }
      ],
      "name": "addAggregator",
      "outputs": [],
      "payable": false,
      "stateMutability": "nonpayable",
      "type": "function"
    },
    {
      "constant": true,
      "inputs": [
        {
          "internalType": "uint256",
          "name": "",
          "type": "uint256"
        }
      ],
      "name": "aggregatorKeys",
      "outputs": [
        {
          "internalType": "bytes32",
          "name": "",
          "type": "bytes32"
        }
      ],
      "payable": false,
      "stateMutability": "view",
      "type": "function"
    },
    {
      "constant": true,
      "inputs": [],
      "name": "aggregatorWarningFlags",
      "outputs": [
        {
          "internalType": "address",
          "name": "",
          "type": "address"
        }
      ],
      "payable": false,
      "stateMutability": "view",
      "type": "function"
    },
    {
      "constant": true,
      "inputs": [
        {
          "internalType": "bytes32",
          "name": "",
          "type": "bytes32"
        }
      ],
      "name": "aggregators",
      "outputs": [
        {
          "internalType": "contract AggregatorV2V3Interface",
          "name": "",
          "type": "address"
        }
      ],
      "payable": false,
      "stateMutability": "view",
      "type": "function"
    },
    {
      "constant": true,
      "inputs": [
        {
          "internalType": "bytes32[]",
          "name": "currencyKeys",
          "type": "bytes32[]"
        }
      ],
      "name": "anyRateIsInvalid",
      "outputs": [
        {
          "internalType": "bool",
          "name": "",
          "type": "bool"
        }
      ],
      "payable": false,
      "stateMutability": "view",
      "type": "function"
    },
    {
      "constant": true,
      "inputs": [
        {
          "internalType": "bytes32",
          "name": "currencyKey",
          "type": "bytes32"
        }
      ],
      "name": "canFreezeRate",
      "outputs": [
        {
          "internalType": "bool",
          "name": "",
          "type": "bool"
        }
      ],
      "payable": false,
      "stateMutability": "view",
      "type": "function"
    },
    {
      "constant": true,
      "inputs": [
        {
          "internalType": "address",
          "name": "aggregator",
          "type": "address"
        }
      ],
      "name": "currenciesUsingAggregator",
      "outputs": [
        {
          "internalType": "bytes32[]",
          "name": "currencies",
          "type": "bytes32[]"
        }
      ],
      "payable": false,
      "stateMutability": "view",
      "type": "function"
    },
    {
      "constant": true,
      "inputs": [
        {
          "internalType": "bytes32",
          "name": "",
          "type": "bytes32"
        }
      ],
      "name": "currencyKeyDecimals",
      "outputs": [
        {
          "internalType": "uint8",
          "name": "",
          "type": "uint8"
        }
      ],
      "payable": false,
      "stateMutability": "view",
      "type": "function"
    },
    {
      "constant": true,
      "inputs": [
        {
          "internalType": "bytes32",
          "name": "",
          "type": "bytes32"
        }
      ],
      "name": "currentRoundForRate",
      "outputs": [
        {
          "internalType": "uint256",
          "name": "",
          "type": "uint256"
        }
      ],
      "payable": false,
      "stateMutability": "view",
      "type": "function"
    },
    {
      "constant": false,
      "inputs": [
        {
          "internalType": "bytes32",
          "name": "currencyKey",
          "type": "bytes32"
        }
      ],
      "name": "deleteRate",
      "outputs": [],
      "payable": false,
      "stateMutability": "nonpayable",
      "type": "function"
    },
    {
      "constant": true,
      "inputs": [
        {
          "internalType": "bytes32",
          "name": "sourceCurrencyKey",
          "type": "bytes32"
        },
        {
          "internalType": "uint256",
          "name": "sourceAmount",
          "type": "uint256"
        },
        {
          "internalType": "bytes32",
          "name": "destinationCurrencyKey",
          "type": "bytes32"
        }
      ],
      "name": "effectiveValue",
      "outputs": [
        {
          "internalType": "uint256",
          "name": "value",
          "type": "uint256"
        }
      ],
      "payable": false,
      "stateMutability": "view",
      "type": "function"
    },
    {
      "constant": true,
      "inputs": [
        {
          "internalType": "bytes32",
          "name": "sourceCurrencyKey",
          "type": "bytes32"
        },
        {
          "internalType": "uint256",
          "name": "sourceAmount",
          "type": "uint256"
        },
        {
          "internalType": "bytes32",
          "name": "destinationCurrencyKey",
          "type": "bytes32"
        }
      ],
      "name": "effectiveValueAndRates",
      "outputs": [
        {
          "internalType": "uint256",
          "name": "value",
          "type": "uint256"
        },
        {
          "internalType": "uint256",
          "name": "sourceRate",
          "type": "uint256"
        },
        {
          "internalType": "uint256",
          "name": "destinationRate",
          "type": "uint256"
        }
      ],
      "payable": false,
      "stateMutability": "view",
      "type": "function"
    },
    {
      "constant": true,
      "inputs": [
        {
          "internalType": "bytes32",
          "name": "sourceCurrencyKey",
          "type": "bytes32"
        },
        {
          "internalType": "uint256",
          "name": "sourceAmount",
          "type": "uint256"
        },
        {
          "internalType": "bytes32",
          "name": "destinationCurrencyKey",
          "type": "bytes32"
        },
        {
          "internalType": "uint256",
          "name": "roundIdForSrc",
          "type": "uint256"
        },
        {
          "internalType": "uint256",
          "name": "roundIdForDest",
          "type": "uint256"
        }
      ],
      "name": "effectiveValueAtRound",
      "outputs": [
        {
          "internalType": "uint256",
          "name": "value",
          "type": "uint256"
        }
      ],
      "payable": false,
      "stateMutability": "view",
      "type": "function"
    },
    {
      "constant": false,
      "inputs": [
        {
          "internalType": "bytes32",
          "name": "currencyKey",
          "type": "bytes32"
        }
      ],
      "name": "freezeRate",
      "outputs": [],
      "payable": false,
      "stateMutability": "nonpayable",
      "type": "function"
    },
    {
      "constant": true,
      "inputs": [
        {
          "internalType": "bytes32",
          "name": "currencyKey",
          "type": "bytes32"
        }
      ],
      "name": "getCurrentRoundId",
      "outputs": [
        {
          "internalType": "uint256",
          "name": "",
          "type": "uint256"
        }
      ],
      "payable": false,
      "stateMutability": "view",
      "type": "function"
    },
    {
      "constant": true,
      "inputs": [
        {
          "internalType": "bytes32",
          "name": "currencyKey",
          "type": "bytes32"
        },
        {
          "internalType": "uint256",
          "name": "startingRoundId",
          "type": "uint256"
        },
        {
          "internalType": "uint256",
          "name": "startingTimestamp",
          "type": "uint256"
        },
        {
          "internalType": "uint256",
          "name": "timediff",
          "type": "uint256"
        }
      ],
      "name": "getLastRoundIdBeforeElapsedSecs",
      "outputs": [
        {
          "internalType": "uint256",
          "name": "",
          "type": "uint256"
        }
      ],
      "payable": false,
      "stateMutability": "view",
      "type": "function"
    },
    {
      "constant": true,
      "inputs": [
        {
          "internalType": "bytes32",
          "name": "",
          "type": "bytes32"
        }
      ],
      "name": "inversePricing",
      "outputs": [
        {
          "internalType": "uint256",
          "name": "entryPoint",
          "type": "uint256"
        },
        {
          "internalType": "uint256",
          "name": "upperLimit",
          "type": "uint256"
        },
        {
          "internalType": "uint256",
          "name": "lowerLimit",
          "type": "uint256"
        },
        {
          "internalType": "bool",
          "name": "frozenAtUpperLimit",
          "type": "bool"
        },
        {
          "internalType": "bool",
          "name": "frozenAtLowerLimit",
          "type": "bool"
        }
      ],
      "payable": false,
      "stateMutability": "view",
      "type": "function"
    },
    {
      "constant": true,
      "inputs": [
        {
          "internalType": "uint256",
          "name": "",
          "type": "uint256"
        }
      ],
      "name": "invertedKeys",
      "outputs": [
        {
          "internalType": "bytes32",
          "name": "",
          "type": "bytes32"
        }
      ],
      "payable": false,
      "stateMutability": "view",
      "type": "function"
    },
    {
      "constant": true,
      "inputs": [],
      "name": "isResolverCached",
      "outputs": [
        {
          "internalType": "bool",
          "name": "",
          "type": "bool"
        }
      ],
      "payable": false,
      "stateMutability": "view",
      "type": "function"
    },
    {
      "constant": true,
      "inputs": [
        {
          "internalType": "bytes32",
          "name": "currencyKey",
          "type": "bytes32"
        }
      ],
      "name": "lastRateUpdateTimes",
      "outputs": [
        {
          "internalType": "uint256",
          "name": "",
          "type": "uint256"
        }
      ],
      "payable": false,
      "stateMutability": "view",
      "type": "function"
    },
    {
      "constant": true,
      "inputs": [
        {
          "internalType": "bytes32[]",
          "name": "currencyKeys",
          "type": "bytes32[]"
        }
      ],
      "name": "lastRateUpdateTimesForCurrencies",
      "outputs": [
        {
          "internalType": "uint256[]",
          "name": "",
          "type": "uint256[]"
        }
      ],
      "payable": false,
      "stateMutability": "view",
      "type": "function"
    },
    {
      "constant": false,
      "inputs": [
        {
          "internalType": "address",
          "name": "_owner",
          "type": "address"
        }
      ],
      "name": "nominateNewOwner",
      "outputs": [],
      "payable": false,
      "stateMutability": "nonpayable",
      "type": "function"
    },
    {
      "constant": true,
      "inputs": [],
      "name": "nominatedOwner",
      "outputs": [
        {
          "internalType": "address",
          "name": "",
          "type": "address"
        }
      ],
      "payable": false,
      "stateMutability": "view",
      "type": "function"
    },
    {
      "constant": true,
      "inputs": [],
      "name": "oracle",
      "outputs": [
        {
          "internalType": "address",
          "name": "",
          "type": "address"
        }
      ],
      "payable": false,
      "stateMutability": "view",
      "type": "function"
    },
    {
      "constant": true,
      "inputs": [],
      "name": "owner",
      "outputs": [
        {
          "internalType": "address",
          "name": "",
          "type": "address"
        }
      ],
      "payable": false,
      "stateMutability": "view",
      "type": "function"
    },
    {
      "constant": true,
      "inputs": [
        {
          "internalType": "bytes32",
          "name": "currencyKey",
          "type": "bytes32"
        }
      ],
      "name": "rateAndInvalid",
      "outputs": [
        {
          "internalType": "uint256",
          "name": "rate",
          "type": "uint256"
        },
        {
          "internalType": "bool",
          "name": "isInvalid",
          "type": "bool"
        }
      ],
      "payable": false,
      "stateMutability": "view",
      "type": "function"
    },
    {
      "constant": true,
      "inputs": [
        {
          "internalType": "bytes32",
          "name": "currencyKey",
          "type": "bytes32"
        },
        {
          "internalType": "uint256",
          "name": "roundId",
          "type": "uint256"
        }
      ],
      "name": "rateAndTimestampAtRound",
      "outputs": [
        {
          "internalType": "uint256",
          "name": "rate",
          "type": "uint256"
        },
        {
          "internalType": "uint256",
          "name": "time",
          "type": "uint256"
        }
      ],
      "payable": false,
      "stateMutability": "view",
      "type": "function"
    },
    {
      "constant": true,
      "inputs": [
        {
          "internalType": "bytes32",
          "name": "currencyKey",
          "type": "bytes32"
        }
      ],
      "name": "rateAndUpdatedTime",
      "outputs": [
        {
          "internalType": "uint256",
          "name": "rate",
          "type": "uint256"
        },
        {
          "internalType": "uint256",
          "name": "time",
          "type": "uint256"
        }
      ],
      "payable": false,
      "stateMutability": "view",
      "type": "function"
    },
    {
      "constant": true,
      "inputs": [
        {
          "internalType": "bytes32",
          "name": "currencyKey",
          "type": "bytes32"
        }
      ],
      "name": "rateForCurrency",
      "outputs": [
        {
          "internalType": "uint256",
          "name": "",
          "type": "uint256"
        }
      ],
      "payable": false,
      "stateMutability": "view",
      "type": "function"
    },
    {
      "constant": true,
      "inputs": [
        {
          "internalType": "bytes32",
          "name": "currencyKey",
          "type": "bytes32"
        }
      ],
      "name": "rateIsFlagged",
      "outputs": [
        {
          "internalType": "bool",
          "name": "",
          "type": "bool"
        }
      ],
      "payable": false,
      "stateMutability": "view",
      "type": "function"
    },
    {
      "constant": true,
      "inputs": [
        {
          "internalType": "bytes32",
          "name": "currencyKey",
          "type": "bytes32"
        }
      ],
      "name": "rateIsFrozen",
      "outputs": [
        {
          "internalType": "bool",
          "name": "",
          "type": "bool"
        }
      ],
      "payable": false,
      "stateMutability": "view",
      "type": "function"
    },
    {
      "constant": true,
      "inputs": [
        {
          "internalType": "bytes32",
          "name": "currencyKey",
          "type": "bytes32"
        }
      ],
      "name": "rateIsInvalid",
      "outputs": [
        {
          "internalType": "bool",
          "name": "",
          "type": "bool"
        }
      ],
      "payable": false,
      "stateMutability": "view",
      "type": "function"
    },
    {
      "constant": true,
      "inputs": [
        {
          "internalType": "bytes32",
          "name": "currencyKey",
          "type": "bytes32"
        }
      ],
      "name": "rateIsStale",
      "outputs": [
        {
          "internalType": "bool",
          "name": "",
          "type": "bool"
        }
      ],
      "payable": false,
      "stateMutability": "view",
      "type": "function"
    },
    {
      "constant": true,
      "inputs": [],
      "name": "rateStalePeriod",
      "outputs": [
        {
          "internalType": "uint256",
          "name": "",
          "type": "uint256"
        }
      ],
      "payable": false,
      "stateMutability": "view",
      "type": "function"
    },
    {
      "constant": true,
      "inputs": [
        {
          "internalType": "bytes32[]",
          "name": "currencyKeys",
          "type": "bytes32[]"
        }
      ],
      "name": "ratesAndInvalidForCurrencies",
      "outputs": [
        {
          "internalType": "uint256[]",
          "name": "rates",
          "type": "uint256[]"
        },
        {
          "internalType": "bool",
          "name": "anyRateInvalid",
          "type": "bool"
        }
      ],
      "payable": false,
      "stateMutability": "view",
      "type": "function"
    },
    {
      "constant": true,
      "inputs": [
        {
          "internalType": "bytes32",
          "name": "currencyKey",
          "type": "bytes32"
        },
        {
          "internalType": "uint256",
          "name": "numRounds",
          "type": "uint256"
        }
      ],
      "name": "ratesAndUpdatedTimeForCurrencyLastNRounds",
      "outputs": [
        {
          "internalType": "uint256[]",
          "name": "rates",
          "type": "uint256[]"
        },
        {
          "internalType": "uint256[]",
          "name": "times",
          "type": "uint256[]"
        }
      ],
      "payable": false,
      "stateMutability": "view",
      "type": "function"
    },
    {
      "constant": true,
      "inputs": [
        {
          "internalType": "bytes32[]",
          "name": "currencyKeys",
          "type": "bytes32[]"
        }
      ],
      "name": "ratesForCurrencies",
      "outputs": [
        {
          "internalType": "uint256[]",
          "name": "",
          "type": "uint256[]"
        }
      ],
      "payable": false,
      "stateMutability": "view",
      "type": "function"
    },
    {
      "constant": false,
      "inputs": [],
      "name": "rebuildCache",
      "outputs": [],
      "payable": false,
      "stateMutability": "nonpayable",
      "type": "function"
    },
    {
      "constant": false,
      "inputs": [
        {
          "internalType": "bytes32",
          "name": "currencyKey",
          "type": "bytes32"
        }
      ],
      "name": "removeAggregator",
      "outputs": [],
      "payable": false,
      "stateMutability": "nonpayable",
      "type": "function"
    },
    {
      "constant": false,
      "inputs": [
        {
          "internalType": "bytes32",
          "name": "currencyKey",
          "type": "bytes32"
        }
      ],
      "name": "removeInversePricing",
      "outputs": [],
      "payable": false,
      "stateMutability": "nonpayable",
      "type": "function"
    },
    {
      "constant": true,
      "inputs": [],
      "name": "resolver",
      "outputs": [
        {
          "internalType": "contract AddressResolver",
          "name": "",
          "type": "address"
        }
      ],
      "payable": false,
      "stateMutability": "view",
      "type": "function"
    },
    {
      "constant": true,
      "inputs": [],
      "name": "resolverAddressesRequired",
      "outputs": [
        {
          "internalType": "bytes32[]",
          "name": "addresses",
          "type": "bytes32[]"
        }
      ],
      "payable": false,
      "stateMutability": "view",
      "type": "function"
    },
    {
      "constant": true,
      "inputs": [
        {
          "internalType": "bytes32",
          "name": "",
          "type": "bytes32"
        }
      ],
      "name": "roundFrozen",
      "outputs": [
        {
          "internalType": "uint256",
          "name": "",
          "type": "uint256"
        }
      ],
      "payable": false,
      "stateMutability": "view",
      "type": "function"
    },
    {
      "constant": false,
      "inputs": [
        {
          "internalType": "bytes32",
          "name": "currencyKey",
          "type": "bytes32"
        },
        {
          "internalType": "uint256",
          "name": "entryPoint",
          "type": "uint256"
        },
        {
          "internalType": "uint256",
          "name": "upperLimit",
          "type": "uint256"
        },
        {
          "internalType": "uint256",
          "name": "lowerLimit",
          "type": "uint256"
        },
        {
          "internalType": "bool",
          "name": "freezeAtUpperLimit",
          "type": "bool"
        },
        {
          "internalType": "bool",
          "name": "freezeAtLowerLimit",
          "type": "bool"
        }
      ],
      "name": "setInversePricing",
      "outputs": [],
      "payable": false,
      "stateMutability": "nonpayable",
      "type": "function"
    },
    {
      "constant": false,
      "inputs": [
        {
          "internalType": "address",
          "name": "_oracle",
          "type": "address"
        }
      ],
      "name": "setOracle",
      "outputs": [],
      "payable": false,
      "stateMutability": "nonpayable",
      "type": "function"
    },
    {
      "constant": false,
      "inputs": [
        {
          "internalType": "bytes32[]",
          "name": "currencyKeys",
          "type": "bytes32[]"
        },
        {
          "internalType": "uint256[]",
          "name": "newRates",
          "type": "uint256[]"
        },
        {
          "internalType": "uint256",
          "name": "timeSent",
          "type": "uint256"
        }
      ],
      "name": "updateRates",
      "outputs": [
        {
          "internalType": "bool",
          "name": "",
          "type": "bool"
        }
      ],
      "payable": false,
      "stateMutability": "nonpayable",
      "type": "function"
    }
  ],
  "bytecode": "0x60806040523480156200001157600080fd5b5060405162006ab638038062006ab6833981810160405260a08110156200003757600080fd5b81019080805190602001909291908051906020019092919080519060200190929190805160405193929190846401000000008211156200007657600080fd5b838201915060208201858111156200008d57600080fd5b8251866020820283011164010000000082111715620000ab57600080fd5b8083526020830192505050908051906020019060200280838360005b83811015620000e4578082015181840152602081019050620000c7565b50505050905001604052602001805160405193929190846401000000008211156200010e57600080fd5b838201915060208201858111156200012557600080fd5b82518660208202830111640100000000821117156200014357600080fd5b8083526020830192505050908051906020019060200280838360005b838110156200017c5780820151818401526020810190506200015f565b50505050905001604052505050828086600073ffffffffffffffffffffffffffffffffffffffff168173ffffffffffffffffffffffffffffffffffffffff16141562000230576040517f08c379a00000000000000000000000000000000000000000000000000000000081526004018080602001828103825260198152602001807f4f776e657220616464726573732063616e6e6f7420626520300000000000000081525060200191505060405180910390fd5b806000806101000a81548173ffffffffffffffffffffffffffffffffffffffff021916908373ffffffffffffffffffffffffffffffffffffffff1602179055507fb532073b38c83145e3e5135377a08bf9aab55bc0fd7c1179cd4fb995d2a5159c600082604051808373ffffffffffffffffffffffffffffffffffffffff1673ffffffffffffffffffffffffffffffffffffffff1681526020018273ffffffffffffffffffffffffffffffffffffffff1673ffffffffffffffffffffffffffffffffffffffff1681526020019250505060405180910390a15080600260006101000a81548173ffffffffffffffffffffffffffffffffffffffff021916908373ffffffffffffffffffffffffffffffffffffffff16021790555050508051825114620003a8576040517f08c379a000000000000000000000000000000000000000000000000000000000815260040180806020018281038252602f815260200180620069c4602f913960400191505060405180910390fd5b83600560006101000a81548173ffffffffffffffffffffffffffffffffffffffff021916908373ffffffffffffffffffffffffffffffffffffffff1602179055506200049d7f705553440000000000000000000000000000000000000000000000000000000073__$b8d33eeb36ac0d1e81cd70156e0043e778$__63907af6c06040518163ffffffff1660e01b815260040160206040518083038186803b1580156200045357600080fd5b505af415801562000468573d6000803e3d6000fd5b505050506040513d60208110156200047f57600080fd5b810190808051906020019092919050505042620004bc60201b60201c565b620004b0828242620005d560201b60201c565b50505050505062001146565b600b6000848152602001908152602001600020600081548092919060010191905055506040518060400160405280837affffffffffffffffffffffffffffffffffffffffffffffffffffff1681526020018264ffffffffff16815250600460008581526020019081526020016000206000600b600087815260200190815260200160002054815260200190815260200160002060008201518160000160006101000a8154817affffffffffffffffffffffffffffffffffffffffffffffffffffff02191690837affffffffffffffffffffffffffffffffffffffffffffffffffffff160217905550602082015181600001601b6101000a81548164ffffffffff021916908364ffffffffff160217905550905050505050565b6000825184511462000633576040517f08c379a000000000000000000000000000000000000000000000000000000000815260040180806020018281038252603881526020018062006a456038913960400191505060405180910390fd5b61025842018210620006ad576040517f08c379a000000000000000000000000000000000000000000000000000000000815260040180806020018281038252601f8152602001807f54696d6520697320746f6f2066617220696e746f20746865206675747572650081525060200191505060405180910390fd5b60008090505b845181101562000818576000858281518110620006cc57fe5b602002602001015190506000858381518110620006e557fe5b6020026020010151141562000746576040517f08c379a000000000000000000000000000000000000000000000000000000000815260040180806020018281038252603981526020018062006a7d6039913960400191505060405180910390fd5b7f7055534400000000000000000000000000000000000000000000000000000000811415620007c1576040517f08c379a000000000000000000000000000000000000000000000000000000000815260040180806020018281038252603181526020018062006a146031913960400191505060405180910390fd5b620007d281620008e960201b60201c565b841015620007e157506200080a565b6200080881868481518110620007f357fe5b602002602001015186620004bc60201b60201c565b505b8080600101915050620006b3565b507f1bc0fc8997efa076f59b5ef02c315bc5390f7a6d24d661ce12128c01a3b0ba578484604051808060200180602001838103835285818151815260200191508051906020019060200280838360005b838110156200088557808201518184015260208101905062000868565b50505050905001838103825284818151815260200191508051906020019060200280838360005b83811015620008c9578082015181840152602081019050620008ac565b5050505090500194505050505060405180910390a1600190509392505050565b6000620008fc826200090e60201b60201c565b6020015164ffffffffff169050919050565b62000918620010d5565b60006006600084815260200190815260200160002060009054906101000a900473ffffffffffffffffffffffffffffffffffffffff169050600073ffffffffffffffffffffffffffffffffffffffff168173ffffffffffffffffffffffffffffffffffffffff161462000bac5760606040516024016040516020818303038152906040527ffeaf968c000000000000000000000000000000000000000000000000000000007bffffffffffffffffffffffffffffffffffffffffffffffffffffffff19166020820180517bffffffffffffffffffffffffffffffffffffffffffffffffffffffff83818316178352505050509050600060608373ffffffffffffffffffffffffffffffffffffffff16836040518082805190602001908083835b6020831062000a5d578051825260208201915060208101905060208303925062000a38565b6001836020036101000a038019825116818451168082178552505050505050905001915050600060405180830381855afa9150503d806000811462000abf576040519150601f19603f3d011682016040523d82523d6000602084013e62000ac4565b606091505b5091509150811562000ba35760008060008380602001905160a081101562000aeb57600080fd5b8101908080519060200190929190805190602001909291908051906020019092919080519060200190929190805190602001909291905050505093505092509250604051806040016040528062000b678b62000b4e8d8762000d1560201b60201c565b8769ffffffffffffffffffff1662000e2a60201b60201c565b7affffffffffffffffffffffffffffffffffffffffffffffffffffff1681526020018264ffffffffff1681525097505050505050505062000d10565b50505062000d0e565b6000600b600085815260200190815260200160002054905062000bce620010d5565b6004600086815260200190815260200160002060008381526020019081526020016000206040518060400160405290816000820160009054906101000a90047affffffffffffffffffffffffffffffffffffffffffffffffffffff167affffffffffffffffffffffffffffffffffffffffffffffffffffff167affffffffffffffffffffffffffffffffffffffffffffffffffffff16815260200160008201601b9054906101000a900464ffffffffff1664ffffffffff1664ffffffffff16815250509050604051806040016040528062000cd28784600001517affffffffffffffffffffffffffffffffffffffffffffffffffffff168662000e2a60201b60201c565b7affffffffffffffffffffffffffffffffffffffffffffffffffffff168152602001826020015164ffffffffff16815250935050505062000d10565b505b919050565b60008082121562000d8e576040517f08c379a000000000000000000000000000000000000000000000000000000000815260040180806020018281038252601b8152602001807f4e656761746976652072617465206e6f7420737570706f72746564000000000081525060200191505060405180910390fd5b60006007600085815260200190815260200160002060009054906101000a900460ff1660ff16111562000e2057600062000df860126007600087815260200190815260200160002060009054906101000a900460ff1660ff1662000fc060201b620054631760201c565b600a0a905062000e1781846200104a60201b62004a5e1790919060201c565b91505062000e24565b8190505b92915050565b600062000e3662001113565b600960008681526020019081526020016000206040518060a00160405290816000820154815260200160018201548152602001600282015481526020016003820160009054906101000a900460ff161515151581526020016003820160019054906101000a900460ff161515151581525050905060008160000151148062000ebe5750600084145b1562000ece578391505062000fb9565b8391506000600c600087815260200190815260200160002054905080841015801562000efb575081606001515b1562000f0e578160200151925062000fb6565b80841015801562000f20575081608001515b1562000f33578160400151925062000fb5565b600062000f54600284600001516200104a60201b62004a5e1790919060201c565b905085811162000f68576000935062000f85565b62000f82868262000fc060201b620054631790919060201c565b93505b8260200151841062000f9e578260200151935062000fb3565b8260400151841162000fb257826040015193505b5b505b5b50505b9392505050565b60008282111562001039576040517f08c379a000000000000000000000000000000000000000000000000000000000815260040180806020018281038252601e8152602001807f536166654d6174683a207375627472616374696f6e206f766572666c6f77000081525060200191505060405180910390fd5b600082840390508091505092915050565b6000808314156200105f5760009050620010cf565b60008284029050828482816200107157fe5b0414620010ca576040517f08c379a0000000000000000000000000000000000000000000000000000000008152600401808060200182810382526021815260200180620069f36021913960400191505060405180910390fd5b809150505b92915050565b604051806040016040528060007affffffffffffffffffffffffffffffffffffffffffffffffffffff168152602001600064ffffffffff1681525090565b6040518060a001604052806000815260200160008152602001600081526020016000151581526020016000151581525090565b61586e80620011566000396000f3fe608060405234801561001057600080fd5b50600436106102945760003560e01c8063654a60ac11610167578063935f4abd116100ce578063c2c8a67611610087578063c2c8a67614611031578063c8e5bbd5146110ff578063c8e6f395146111d8578063ce8480ea14611206578063de02795e14611248578063fdadbc7e1461127657610294565b8063935f4abd14610dcb578063ac82f60814610e0d578063af3aea8614610e4f578063b199c76414610e95578063b295ad3414610ef9578063bfa005ce14610f4157610294565b80637adbf973116101205780637adbf97314610bee5780637dc0d1d014610c325780637f6e9d1514610c7c5780638295016a14610cbe578063899ffef414610d225780638da5cb5b14610d8157610294565b8063654a60ac14610a6e5780637103353e14610ac4578063728dec2914610b325780637418536014610b9857806379ba509714610ba25780637a018a1e14610bac57610294565b80632af64bd31161020b5780633f0e084f116101c45780633f0e084f146108d35780634308a94f14610921578063459388491461096a5780634c36b837146109985780634f72def6146109e257806353a47bb714610a2457610294565b80632af64bd3146106e05780632bed9e0c146107025780632d7371e1146107305780632ea913d4146108055780633375fcd11461084757806338aa1b991461088d57610294565b80630ee4951b1161025d5780630ee4951b146104d5578063109e46a2146104f35780631627540c146105535780632528f0fe14610597578063266da16b146105dd5780632678df961461064757610294565b80629919c01461029957806304f3bcec146102df57806305a046e5146103295780630a7d36d1146103f75780630c71cd2314610488575b600080fd5b6102c5600480360360208110156102af57600080fd5b81019080803590602001909291905050506112c9565b604051808215151515815260200191505060405180910390f35b6102e76112e3565b604051808273ffffffffffffffffffffffffffffffffffffffff1673ffffffffffffffffffffffffffffffffffffffff16815260200191505060405180910390f35b6103a06004803603602081101561033f57600080fd5b810190808035906020019064010000000081111561035c57600080fd5b82018360208201111561036e57600080fd5b8035906020019184602083028401116401000000008311171561039057600080fd5b9091929391929390505050611309565b6040518080602001828103825283818151815260200191508051906020019060200280838360005b838110156103e35780820151818401526020810190506103c8565b505050509050019250505060405180910390f35b61046e6004803603602081101561040d57600080fd5b810190808035906020019064010000000081111561042a57600080fd5b82018360208201111561043c57600080fd5b8035906020019184602083028401116401000000008311171561045e57600080fd5b909192939192939050505061139d565b604051808215151515815260200191505060405180910390f35b6104b46004803603602081101561049e57600080fd5b810190808035906020019092919050505061146c565b60405180838152602001821515151581526020019250505060405180910390f35b6104dd61153f565b6040518082815260200191505060405180910390f35b61053d6004803603608081101561050957600080fd5b810190808035906020019092919080359060200190929190803590602001909291908035906020019092919050505061154e565b6040518082815260200191505060405180910390f35b6105956004803603602081101561056957600080fd5b81019080803573ffffffffffffffffffffffffffffffffffffffff1690602001909291905050506115ae565b005b6105c3600480360360208110156105ad57600080fd5b810190808035906020019092919050505061165d565b604051808215151515815260200191505060405180910390f35b610631600480360360a08110156105f357600080fd5b81019080803590602001909291908035906020019092919080359060200190929190803590602001909291908035906020019092919050505061168f565b6040518082815260200191505060405180910390f35b6106896004803603602081101561065d57600080fd5b81019080803573ffffffffffffffffffffffffffffffffffffffff169060200190929190505050611706565b6040518080602001828103825283818151815260200191508051906020019060200280838360005b838110156106cc5780820151818401526020810190506106b1565b505050509050019250505060405180910390f35b6106e861180f565b604051808215151515815260200191505060405180910390f35b61072e6004803603602081101561071857600080fd5b81019080803590602001909291905050506119e7565b005b6107666004803603604081101561074657600080fd5b810190808035906020019092919080359060200190929190505050611ba9565b604051808060200180602001838103835285818151815260200191508051906020019060200280838360005b838110156107ad578082015181840152602081019050610792565b50505050905001838103825284818151815260200191508051906020019060200280838360005b838110156107ef5780820151818401526020810190506107d4565b5050505090500194505050505060405180910390f35b6108316004803603602081101561081b57600080fd5b8101908080359060200190929190505050611c9b565b6040518082815260200191505060405180910390f35b6108736004803603602081101561085d57600080fd5b8101908080359060200190929190505050611cbc565b604051808215151515815260200191505060405180910390f35b6108b9600480360360208110156108a357600080fd5b8101908080359060200190929190505050611da3565b604051808215151515815260200191505060405180910390f35b61091f600480360360408110156108e957600080fd5b8101908080359060200190929190803573ffffffffffffffffffffffffffffffffffffffff169060200190929190505050611dbd565b005b61094d6004803603602081101561093757600080fd5b8101908080359060200190929190505050612127565b604051808381526020018281526020019250505060405180910390f35b6109966004803603602081101561098057600080fd5b810190808035906020019092919050505061217b565b005b6109a06122df565b604051808273ffffffffffffffffffffffffffffffffffffffff1673ffffffffffffffffffffffffffffffffffffffff16815260200191505060405180910390f35b610a0e600480360360208110156109f857600080fd5b81019080803590602001909291905050506122ee565b6040518082815260200191505060405180910390f35b610a2c61230f565b604051808273ffffffffffffffffffffffffffffffffffffffff1673ffffffffffffffffffffffffffffffffffffffff16815260200191505060405180910390f35b610aae60048036036060811015610a8457600080fd5b81019080803590602001909291908035906020019092919080359060200190929190505050612335565b6040518082815260200191505060405180910390f35b610af060048036036020811015610ada57600080fd5b8101908080359060200190929190505050612350565b604051808273ffffffffffffffffffffffffffffffffffffffff1673ffffffffffffffffffffffffffffffffffffffff16815260200191505060405180910390f35b610b5e60048036036020811015610b4857600080fd5b8101908080359060200190929190505050612383565b6040518086815260200185815260200184815260200183151515158152602001821515151581526020019550505050505060405180910390f35b610ba06123d3565b005b610baa61263c565b005b610bd860048036036020811015610bc257600080fd5b8101908080359060200190929190505050612862565b6040518082815260200191505060405180910390f35b610c3060048036036020811015610c0457600080fd5b81019080803573ffffffffffffffffffffffffffffffffffffffff169060200190929190505050612874565b005b610c3a612945565b604051808273ffffffffffffffffffffffffffffffffffffffff1673ffffffffffffffffffffffffffffffffffffffff16815260200191505060405180910390f35b610ca860048036036020811015610c9257600080fd5b810190808035906020019092919050505061296b565b6040518082815260200191505060405180910390f35b610cfe60048036036060811015610cd457600080fd5b81019080803590602001909291908035906020019092919080359060200190929190505050612983565b60405180848152602001838152602001828152602001935050505060405180910390f35b610d2a6129a2565b6040518080602001828103825283818151815260200191508051906020019060200280838360005b83811015610d6d578082015181840152602081019050610d52565b505050509050019250505060405180910390f35b610d89612a2f565b604051808273ffffffffffffffffffffffffffffffffffffffff1673ffffffffffffffffffffffffffffffffffffffff16815260200191505060405180910390f35b610df760048036036020811015610de157600080fd5b8101908080359060200190929190505050612a54565b6040518082815260200191505060405180910390f35b610e3960048036036020811015610e2357600080fd5b8101908080359060200190929190505050612a6c565b6040518082815260200191505060405180910390f35b610e7b60048036036020811015610e6557600080fd5b8101908080359060200190929190505050612a9f565b604051808215151515815260200191505060405180910390f35b610ef7600480360360c0811015610eab57600080fd5b8101908080359060200190929190803590602001909291908035906020019092919080359060200190929190803515159060200190929190803515159060200190929190505050612ab1565b005b610f2560048036036020811015610f0f57600080fd5b8101908080359060200190929190505050612f69565b604051808260ff1660ff16815260200191505060405180910390f35b61101760048036036060811015610f5757600080fd5b8101908080359060200190640100000000811115610f7457600080fd5b820183602082011115610f8657600080fd5b80359060200191846020830284011164010000000083111715610fa857600080fd5b909192939192939080359060200190640100000000811115610fc957600080fd5b820183602082011115610fdb57600080fd5b80359060200191846020830284011164010000000083111715610ffd57600080fd5b909192939192939080359060200190929190505050612f89565b604051808215151515815260200191505060405180910390f35b6110a86004803603602081101561104757600080fd5b810190808035906020019064010000000081111561106457600080fd5b82018360208201111561107657600080fd5b8035906020019184602083028401116401000000008311171561109857600080fd5b909192939192939050505061302b565b6040518080602001828103825283818151815260200191508051906020019060200280838360005b838110156110eb5780820151818401526020810190506110d0565b505050509050019250505060405180910390f35b6111766004803603602081101561111557600080fd5b810190808035906020019064010000000081111561113257600080fd5b82018360208201111561114457600080fd5b8035906020019184602083028401116401000000008311171561116657600080fd5b90919293919293905050506130bf565b604051808060200183151515158152602001828103825284818151815260200191508051906020019060200280838360005b838110156111c35780820151818401526020810190506111a8565b50505050905001935050505060405180910390f35b611204600480360360208110156111ee57600080fd5b8101908080359060200190929190505050613252565b005b6112326004803603602081101561121c57600080fd5b81019080803590602001909291905050506133a7565b6040518082815260200191505060405180910390f35b6112746004803603602081101561125e57600080fd5b81019080803590602001909291905050506133b9565b005b6112ac6004803603604081101561128c57600080fd5b81019080803590602001909291908035906020019092919050505061367c565b604051808381526020018281526020019250505060405180910390f35b60006112dc826112d7613694565b613776565b9050919050565b600260009054906101000a900473ffffffffffffffffffffffffffffffffffffffff1681565b6060808383905060405190808252806020026020018201604052801561133e5781602001602082028038833980820191505090505b50905060008090505b848490508110156113925761136d85858381811061136157fe5b905060200201356137c4565b82828151811061137957fe5b6020026020010181815250508080600101915050611347565b508091505092915050565b6000806113a8613694565b905060606113f6858580806020026020016040519081016040528093929190818152602001838360200280828437600081840152601f19601f820116905080830192505050505050506137e1565b905060008090505b8585905081101561145e5781818151811061141557fe5b602002602001015180611440575061143f86868381811061143257fe5b9050602002013584613776565b5b156114515760019350505050611466565b80806001019150506113fe565b506000925050505b92915050565b60008061147761557b565b61148084613aab565b90507f70555344000000000000000000000000000000000000000000000000000000008414156114db5780600001516000817affffffffffffffffffffffffffffffffffffffffffffffffffffff169150925092505061153a565b80600001516114fc6114eb613694565b836020015164ffffffffff16613e8c565b8061151457506115138561150e613eab565b613f8d565b5b817affffffffffffffffffffffffffffffffffffffffffffffffffffff16915092509250505b915091565b6000611549613694565b905090565b60008084905060008090505b6001156115a05761156e8760018401614130565b9050809150506000811480611584575083850181115b156115935781925050506115a6565b818060010192505061155a565b81925050505b949350505050565b6115b6614490565b80600160006101000a81548173ffffffffffffffffffffffffffffffffffffffff021916908373ffffffffffffffffffffffffffffffffffffffff1602179055507f906a1c6bd7e3091ea86693dd029a831c19049ce77f1dce2ce0bab1cacbabce2281604051808273ffffffffffffffffffffffffffffffffffffffff1673ffffffffffffffffffffffffffffffffffffffff16815260200191505060405180910390a150565b60006116708261166b613694565b613776565b80611688575061168782611682613eab565b613f8d565b5b9050919050565b6000838614156116a1578490506116fd565b60006116ad8785614130565b50905060006116bc8685614130565b50905060008114156116d3576000925050506116fd565b6116f8816116ea848a61453790919063ffffffff16565b61455390919063ffffffff16565b925050505b95945050505050565b606060008090506008805490506040519080825280602002602001820160405280156117415781602001602082028038833980820191505090505b50915060008090505b6008805490508110156118085760006008828154811061176657fe5b906000526020600020015490508473ffffffffffffffffffffffffffffffffffffffff166006600083815260200190815260200160002060009054906101000a900473ffffffffffffffffffffffffffffffffffffffff1673ffffffffffffffffffffffffffffffffffffffff1614156117fa57808484806001019550815181106117ed57fe5b6020026020010181815250505b50808060010191505061174a565b5050919050565b6000606061181b6129a2565b905060008090505b81518110156119dd57600082828151811061183a57fe5b602002602001015190506003600082815260200190815260200160002060009054906101000a900473ffffffffffffffffffffffffffffffffffffffff1673ffffffffffffffffffffffffffffffffffffffff16600260009054906101000a900473ffffffffffffffffffffffffffffffffffffffff1673ffffffffffffffffffffffffffffffffffffffff166321f8a721836040518263ffffffff1660e01b81526004018082815260200191505060206040518083038186803b15801561190157600080fd5b505afa158015611915573d6000803e3d6000fd5b505050506040513d602081101561192b57600080fd5b810190808051906020019092919050505073ffffffffffffffffffffffffffffffffffffffff161415806119be5750600073ffffffffffffffffffffffffffffffffffffffff166003600083815260200190815260200160002060009054906101000a900473ffffffffffffffffffffffffffffffffffffffff1673ffffffffffffffffffffffffffffffffffffffff16145b156119cf57600093505050506119e4565b508080600101915050611823565b5060019150505b90565b6119ef614490565b60006006600083815260200190815260200160002060009054906101000a900473ffffffffffffffffffffffffffffffffffffffff169050600073ffffffffffffffffffffffffffffffffffffffff168173ffffffffffffffffffffffffffffffffffffffff161415611aca576040517f08c379a000000000000000000000000000000000000000000000000000000000815260040180806020018281038252601c8152602001807f4e6f2061676772656761746f722065786973747320666f72206b65790000000081525060200191505060405180910390fd5b6006600083815260200190815260200160002060006101000a81549073ffffffffffffffffffffffffffffffffffffffff02191690556007600083815260200190815260200160002060006101000a81549060ff02191690556000611b3083600861456f565b90508015611ba4577fec70e890fc7db7de4059b114c9093a1f41283d18ffcfbcac45566feea4d4f7778383604051808381526020018273ffffffffffffffffffffffffffffffffffffffff1673ffffffffffffffffffffffffffffffffffffffff1681526020019250505060405180910390a15b505050565b60608082604051908082528060200260200182016040528015611bdb5781602001602082028038833980820191505090505b50915082604051908082528060200260200182016040528015611c0d5781602001602082028038833980820191505090505b5090506000611c1b8561462b565b905060008090505b84811015611c9157611c358683614130565b858381518110611c4157fe5b60200260200101858481518110611c5457fe5b60200260200101828152508281525050506000821415611c7b578383935093505050611c94565b8180600190039250508080600101915050611c23565b50505b9250929050565b600a8181548110611ca857fe5b906000526020600020016000915090505481565b6000611cc66155b9565b600960008481526020019081526020016000206040518060a00160405290816000820154815260200160018201548152602001600282015481526020016003820160009054906101000a900460ff161515151581526020016003820160019054906101000a900460ff1615151515815250509050600081600001511480611d4e575080606001515b80611d5a575080608001515b15611d69576000915050611d9e565b6000611d748461473e565b9050600081118015611d995750816020015181101580611d98575081604001518111155b5b925050505b919050565b6000611db682611db1613eab565b613f8d565b9050919050565b611dc5614490565b600081905060008173ffffffffffffffffffffffffffffffffffffffff1663668a0f026040518163ffffffff1660e01b815260040160206040518083038186803b158015611e1257600080fd5b505afa158015611e26573d6000803e3d6000fd5b505050506040513d6020811015611e3c57600080fd5b81019080805190602001909291905050501015611ec1576040517f08c379a000000000000000000000000000000000000000000000000000000000815260040180806020018281038252601b8152602001807f476976656e2041676772656761746f7220697320696e76616c6964000000000081525060200191505060405180910390fd5b60008173ffffffffffffffffffffffffffffffffffffffff1663313ce5676040518163ffffffff1660e01b815260040160206040518083038186803b158015611f0957600080fd5b505afa158015611f1d573d6000803e3d6000fd5b505050506040513d6020811015611f3357600080fd5b8101908080519060200190929190505050905060128160ff161115611fa3576040517f08c379a00000000000000000000000000000000000000000000000000000000081526004018080602001828103825260328152602001806157a86032913960400191505060405180910390fd5b600073ffffffffffffffffffffffffffffffffffffffff166006600086815260200190815260200160002060009054906101000a900473ffffffffffffffffffffffffffffffffffffffff1673ffffffffffffffffffffffffffffffffffffffff1614156120385760088490806001815401808255809150509060018203906000526020600020016000909192909190915055505b816006600086815260200190815260200160002060006101000a81548173ffffffffffffffffffffffffffffffffffffffff021916908373ffffffffffffffffffffffffffffffffffffffff160217905550806007600086815260200190815260200160002060006101000a81548160ff021916908360ff1602179055507f0bcae573430f69c5361e5d76534d3f61d2d803958778680cd74be9dc6299bc638483604051808381526020018273ffffffffffffffffffffffffffffffffffffffff1673ffffffffffffffffffffffffffffffffffffffff1681526020019250505060405180910390a150505050565b60008061213261557b565b61213b84613aab565b905080600001518160200151817affffffffffffffffffffffffffffffffffffffffffffffffffffff1691508064ffffffffff1690509250925050915091565b612183614771565b600061218e8261473e565b11612201576040517f08c379a000000000000000000000000000000000000000000000000000000000815260040180806020018281038252600c8152602001807f52617465206973207a65726f000000000000000000000000000000000000000081525060200191505060405180910390fd5b600460008281526020019081526020016000206000600b6000848152602001908152602001600020548152602001908152602001600020600080820160006101000a8154907affffffffffffffffffffffffffffffffffffffffffffffffffffff021916905560008201601b6101000a81549064ffffffffff02191690555050600b600082815260200190815260200160002060008154809291906001900391905055507fe69d655565c7ff1353d8eaeea62fb7904fa9696987431ec351be288c865f1ae1816040518082815260200191505060405180910390a150565b60006122e9613eab565b905090565b600881815481106122fb57fe5b906000526020600020016000915090505481565b600160009054906101000a900473ffffffffffffffffffffffffffffffffffffffff1681565b6000612342848484614819565b905050809150509392505050565b60066020528060005260406000206000915054906101000a900473ffffffffffffffffffffffffffffffffffffffff1681565b60096020528060005260406000206000915090508060000154908060010154908060020154908060030160009054906101000a900460ff16908060030160019054906101000a900460ff16905085565b60606123dd6129a2565b905060008090505b81518110156126385760008282815181106123fc57fe5b602002602001015190506000600260009054906101000a900473ffffffffffffffffffffffffffffffffffffffff1673ffffffffffffffffffffffffffffffffffffffff1663dacb2d01838460405160200180807f5265736f6c766572206d697373696e67207461726765743a20000000000000008152506019018281526020019150506040516020818303038152906040526040518363ffffffff1660e01b81526004018083815260200180602001828103825283818151815260200191508051906020019080838360005b838110156124e45780820151818401526020810190506124c9565b50505050905090810190601f1680156125115780820380516001836020036101000a031916815260200191505b50935050505060206040518083038186803b15801561252f57600080fd5b505afa158015612543573d6000803e3d6000fd5b505050506040513d602081101561255957600080fd5b81019080805190602001909291905050509050806003600084815260200190815260200160002060006101000a81548173ffffffffffffffffffffffffffffffffffffffff021916908373ffffffffffffffffffffffffffffffffffffffff1602179055507f88a93678a3692f6789d9546fc621bf7234b101ddb7d4fe479455112831b8aa688282604051808381526020018273ffffffffffffffffffffffffffffffffffffffff1673ffffffffffffffffffffffffffffffffffffffff1681526020019250505060405180910390a1505080806001019150506123e5565b5050565b600160009054906101000a900473ffffffffffffffffffffffffffffffffffffffff1673ffffffffffffffffffffffffffffffffffffffff163373ffffffffffffffffffffffffffffffffffffffff16146126e2576040517f08c379a000000000000000000000000000000000000000000000000000000000815260040180806020018281038252603581526020018061563e6035913960400191505060405180910390fd5b7fb532073b38c83145e3e5135377a08bf9aab55bc0fd7c1179cd4fb995d2a5159c6000809054906101000a900473ffffffffffffffffffffffffffffffffffffffff16600160009054906101000a900473ffffffffffffffffffffffffffffffffffffffff16604051808373ffffffffffffffffffffffffffffffffffffffff1673ffffffffffffffffffffffffffffffffffffffff1681526020018273ffffffffffffffffffffffffffffffffffffffff1673ffffffffffffffffffffffffffffffffffffffff1681526020019250505060405180910390a1600160009054906101000a900473ffffffffffffffffffffffffffffffffffffffff166000806101000a81548173ffffffffffffffffffffffffffffffffffffffff021916908373ffffffffffffffffffffffffffffffffffffffff1602179055506000600160006101000a81548173ffffffffffffffffffffffffffffffffffffffff021916908373ffffffffffffffffffffffffffffffffffffffff160217905550565b600061286d8261462b565b9050919050565b61287c614490565b80600560006101000a81548173ffffffffffffffffffffffffffffffffffffffff021916908373ffffffffffffffffffffffffffffffffffffffff1602179055507f3df77beb5db05fcdd70a30fc8adf3f83f9501b68579455adbd100b8180940394600560009054906101000a900473ffffffffffffffffffffffffffffffffffffffff16604051808273ffffffffffffffffffffffffffffffffffffffff1673ffffffffffffffffffffffffffffffffffffffff16815260200191505060405180910390a150565b600560009054906101000a900473ffffffffffffffffffffffffffffffffffffffff1681565b600c6020528060005260406000206000915090505481565b6000806000612993868686614819565b92509250925093509350939050565b6060806129ad614882565b9050606060016040519080825280602002602001820160405280156129e15781602001602082028038833980820191505090505b5090507f45786368616e676572000000000000000000000000000000000000000000000081600081518110612a1257fe5b602002602001018181525050612a2882826148f4565b9250505090565b6000809054906101000a900473ffffffffffffffffffffffffffffffffffffffff1681565b600b6020528060005260406000206000915090505481565b6000612a7782613aab565b600001517affffffffffffffffffffffffffffffffffffffffffffffffffffff169050919050565b6000612aaa826149c7565b9050919050565b612ab9614490565b60008311612b2f576040517f08c379a000000000000000000000000000000000000000000000000000000000815260040180806020018281038252601a8152602001807f6c6f7765724c696d6974206d7573742062652061626f7665203000000000000081525060200191505060405180910390fd5b848411612b87576040517f08c379a00000000000000000000000000000000000000000000000000000000081526004018080602001828103825260278152602001806158136027913960400191505060405180910390fd5b612b9b600286614a5e90919063ffffffff16565b8410612bf2576040517f08c379a000000000000000000000000000000000000000000000000000000000815260040180806020018281038252602e81526020018061577a602e913960400191505060405180910390fd5b848310612c4a576040517f08c379a00000000000000000000000000000000000000000000000000000000081526004018080602001828103825260278152602001806157536027913960400191505060405180910390fd5b818015612c545750805b15612cc7576040517f08c379a000000000000000000000000000000000000000000000000000000000815260040180806020018281038252601c8152602001807f43616e6e6f7420667265657a6520617420626f7468206c696d6974730000000081525060200191505060405180910390fd5b6000600960008881526020019081526020016000209050600081600001541415612d1857600a8790806001815401808255809150509060018203906000526020600020016000909192909190915055505b8581600001819055508481600101819055508381600201819055508280612d3c5750815b15612e2b57828160030160006101000a81548160ff021916908315150217905550818160030160016101000a81548160ff0219169083151502179055506000612d848861462b565b905080600c60008a8152602001908152602001600020819055507ff72828471e37526c68fd812a1fa6eeff993c3f81bd96c0242dc5b3e144145df08885612dcb5786612dcd565b875b8333604051808581526020018481526020018381526020018273ffffffffffffffffffffffffffffffffffffffff1673ffffffffffffffffffffffffffffffffffffffff16815260200194505050505060405180910390a150612e7f565b60008160030160006101000a81548160ff02191690831515021790555060008160030160016101000a81548160ff0219169083151502179055506000600c6000898152602001908152602001600020819055505b6000612e8a8861473e565b90506000811115612f1057612e9d614ae4565b73ffffffffffffffffffffffffffffffffffffffff166357630a4089836040518363ffffffff1660e01b81526004018083815260200182815260200192505050600060405180830381600087803b158015612ef757600080fd5b505af1158015612f0b573d6000803e3d6000fd5b505050505b7f37efb38e92b0f94698f6df0c9070e2f00946862a042ac09e34ae8c547684240a888888886040518085815260200184815260200183815260200182815260200194505050505060405180910390a15050505050505050565b60076020528060005260406000206000915054906101000a900460ff1681565b6000612f93614771565b613020868680806020026020016040519081016040528093929190818152602001838360200280828437600081840152601f19601f82011690508083019250505050505050858580806020026020016040519081016040528093929190818152602001838360200280828437600081840152601f19601f8201169050808301925050505050505084614b14565b905095945050505050565b606080838390506040519080825280602002602001820160405280156130605781602001602082028038833980820191505090505b50905060008090505b848490508110156130b45761308f85858381811061308357fe5b9050602002013561473e565b82828151811061309b57fe5b6020026020010181815250508080600101915050613069565b508091505092915050565b60606000838390506040519080825280602002602001820160405280156130f55781602001602082028038833980820191505090505b5091506000613102613694565b90506060613150868680806020026020016040519081016040528093929190818152602001838360200280828437600081840152601f19601f820116905080830192505050505050506137e1565b905060008090505b868690508110156132485761316b61557b565b61318688888481811061317a57fe5b90506020020135613aab565b905080600001517affffffffffffffffffffffffffffffffffffffffffffffffffffff168683815181106131b657fe5b6020026020010181815250508415801561320257507f70555344000000000000000000000000000000000000000000000000000000008888848181106131f857fe5b9050602002013514155b1561323a5782828151811061321357fe5b602002602001015180613237575061323684826020015164ffffffffff16613e8c565b5b94505b508080600101915050613158565b5050509250929050565b61325a614490565b60006009600083815260200190815260200160002060000154116132e6576040517f08c379a00000000000000000000000000000000000000000000000000000000081526004018080602001828103825260188152602001807f4e6f20696e76657274656420707269636520657869737473000000000000000081525060200191505060405180910390fd5b60096000828152602001908152602001600020600080820160009055600182016000905560028201600090556003820160006101000a81549060ff02191690556003820160016101000a81549060ff02191690555050600061334982600a61456f565b905080156133a3577f37efb38e92b0f94698f6df0c9070e2f00946862a042ac09e34ae8c547684240a8260008060006040518085815260200184815260200183815260200182815260200194505050505060405180910390a15b5050565b60006133b2826137c4565b9050919050565b6000600960008381526020019081526020016000209050600081600001541161344a576040517f08c379a000000000000000000000000000000000000000000000000000000000815260040180806020018281038252601e8152602001807f43616e6e6f7420667265657a65206e6f6e2d696e76657273652072617465000081525060200191505060405180910390fd5b8060030160009054906101000a900460ff1615801561347857508060030160019054906101000a900460ff16155b6134ea576040517f08c379a000000000000000000000000000000000000000000000000000000000815260040180806020018281038252601a8152602001807f546865207261746520697320616c72656164792066726f7a656e00000000000081525060200191505060405180910390fd5b60006134f58361473e565b905060008111801561351a5750816001015481101580613519575081600201548111155b5b1561360957816001015481148260030160006101000a81548160ff021916908315150217905550816002015481148260030160016101000a81548160ff021916908315150217905550600061356e8461462b565b905080600c6000868152602001908152602001600020819055507ff72828471e37526c68fd812a1fa6eeff993c3f81bd96c0242dc5b3e144145df084838333604051808581526020018481526020018381526020018273ffffffffffffffffffffffffffffffffffffffff1673ffffffffffffffffffffffffffffffffffffffff16815260200194505050505060405180910390a150613677565b6040517f08c379a00000000000000000000000000000000000000000000000000000000081526004018080602001828103825260128152602001807f526174652077697468696e20626f756e6473000000000000000000000000000081525060200191505060405180910390fd5b505050565b6000806136898484614130565b915091509250929050565b600061369e614e06565b73ffffffffffffffffffffffffffffffffffffffff166323257c2b7f53797374656d53657474696e67730000000000000000000000000000000000007f726174655374616c65506572696f6400000000000000000000000000000000006040518363ffffffff1660e01b8152600401808381526020018281526020019250505060206040518083038186803b15801561373657600080fd5b505afa15801561374a573d6000803e3d6000fd5b505050506040513d602081101561376057600080fd5b8101908080519060200190929190505050905090565b60007f70555344000000000000000000000000000000000000000000000000000000008314156137a957600090506137be565b6137bb826137b6856137c4565b613e8c565b90505b92915050565b60006137cf82613aab565b6020015164ffffffffff169050919050565b606060006137ed613eab565b9050600073ffffffffffffffffffffffffffffffffffffffff168173ffffffffffffffffffffffffffffffffffffffff1614613a7157606083516040519080825280602002602001820160405280156138555781602001602082028038833980820191505090505b50905060008090505b8451811015613901576006600086838151811061387757fe5b6020026020010151815260200190815260200160002060009054906101000a900473ffffffffffffffffffffffffffffffffffffffff168282815181106138ba57fe5b602002602001019073ffffffffffffffffffffffffffffffffffffffff16908173ffffffffffffffffffffffffffffffffffffffff1681525050808060010191505061385e565b508173ffffffffffffffffffffffffffffffffffffffff16637d723cac826040518263ffffffff1660e01b81526004018080602001828103825283818151815260200191508051906020019060200280838360005b83811015613971578082015181840152602081019050613956565b505050509050019250505060006040518083038186803b15801561399457600080fd5b505afa1580156139a8573d6000803e3d6000fd5b505050506040513d6000823e3d601f19601f8201168201806040525060208110156139d257600080fd5b81019080805160405193929190846401000000008211156139f257600080fd5b83820191506020820185811115613a0857600080fd5b8251866020820283011164010000000082111715613a2557600080fd5b8083526020830192505050908051906020019060200280838360005b83811015613a5c578082015181840152602081019050613a41565b50505050905001604052505050925050613aa5565b8251604051908082528060200260200182016040528015613aa15781602001602082028038833980820191505090505b5091505b50919050565b613ab361557b565b60006006600084815260200190815260200160002060009054906101000a900473ffffffffffffffffffffffffffffffffffffffff169050600073ffffffffffffffffffffffffffffffffffffffff168173ffffffffffffffffffffffffffffffffffffffff1614613d2e5760606040516024016040516020818303038152906040527ffeaf968c000000000000000000000000000000000000000000000000000000007bffffffffffffffffffffffffffffffffffffffffffffffffffffffff19166020820180517bffffffffffffffffffffffffffffffffffffffffffffffffffffffff83818316178352505050509050600060608373ffffffffffffffffffffffffffffffffffffffff16836040518082805190602001908083835b60208310613bf55780518252602082019150602081019050602083039250613bd2565b6001836020036101000a038019825116818451168082178552505050505050905001915050600060405180830381855afa9150503d8060008114613c55576040519150601f19603f3d011682016040523d82523d6000602084013e613c5a565b606091505b50915091508115613d265760008060008380602001905160a0811015613c7f57600080fd5b81019080805190602001909291908051906020019092919080519060200190929190805190602001909291908051906020019092919050505050935050925092506040518060400160405280613ceb8b613cd98d87614e36565b8769ffffffffffffffffffff16614f34565b7affffffffffffffffffffffffffffffffffffffffffffffffffffff1681526020018264ffffffffff16815250975050505050505050613e87565b505050613e85565b6000600b6000858152602001908152602001600020549050613d4e61557b565b6004600086815260200190815260200160002060008381526020019081526020016000206040518060400160405290816000820160009054906101000a90047affffffffffffffffffffffffffffffffffffffffffffffffffffff167affffffffffffffffffffffffffffffffffffffffffffffffffffff167affffffffffffffffffffffffffffffffffffffffffffffffffffff16815260200160008201601b9054906101000a900464ffffffffff1664ffffffffff1664ffffffffff168152505090506040518060400160405280613e4a8784600001517affffffffffffffffffffffffffffffffffffffffffffffffffffff1686614f34565b7affffffffffffffffffffffffffffffffffffffffffffffffffffff168152602001826020015164ffffffffff168152509350505050613e87565b505b919050565b600042613ea284846150ac90919063ffffffff16565b10905092915050565b6000613eb5614e06565b73ffffffffffffffffffffffffffffffffffffffff16639ee5955a7f53797374656d53657474696e67730000000000000000000000000000000000007f61676772656761746f725761726e696e67466c616773000000000000000000006040518363ffffffff1660e01b8152600401808381526020018281526020019250505060206040518083038186803b158015613f4d57600080fd5b505afa158015613f61573d6000803e3d6000fd5b505050506040513d6020811015613f7757600080fd5b8101908080519060200190929190505050905090565b60007f7055534400000000000000000000000000000000000000000000000000000000831415613fc0576000905061412a565b60006006600085815260200190815260200160002060009054906101000a900473ffffffffffffffffffffffffffffffffffffffff169050600073ffffffffffffffffffffffffffffffffffffffff168173ffffffffffffffffffffffffffffffffffffffff16148061405f5750600073ffffffffffffffffffffffffffffffffffffffff168373ffffffffffffffffffffffffffffffffffffffff16145b1561406e57600091505061412a565b8273ffffffffffffffffffffffffffffffffffffffff1663357e47fe826040518263ffffffff1660e01b8152600401808273ffffffffffffffffffffffffffffffffffffffff1673ffffffffffffffffffffffffffffffffffffffff16815260200191505060206040518083038186803b1580156140eb57600080fd5b505afa1580156140ff573d6000803e3d6000fd5b505050506040513d602081101561411557600080fd5b81019080805190602001909291905050509150505b92915050565b60008060006006600086815260200190815260200160002060009054906101000a900473ffffffffffffffffffffffffffffffffffffffff169050600073ffffffffffffffffffffffffffffffffffffffff168173ffffffffffffffffffffffffffffffffffffffff161461437457606084604051602401808281526020019150506040516020818303038152906040527f9a6fc8f5000000000000000000000000000000000000000000000000000000007bffffffffffffffffffffffffffffffffffffffffffffffffffffffff19166020820180517bffffffffffffffffffffffffffffffffffffffffffffffffffffffff83818316178352505050509050600060608373ffffffffffffffffffffffffffffffffffffffff16836040518082805190602001908083835b60208310614280578051825260208201915060208101905060208303925061425d565b6001836020036101000a038019825116818451168082178552505050505050905001915050600060405180830381855afa9150503d80600081146142e0576040519150601f19603f3d011682016040523d82523d6000602084013e6142e5565b606091505b5091509150811561436c576000808280602001905160a081101561430857600080fd5b8101908080519060200190929190805190602001909291908051906020019092919080519060200190929190805190602001909291905050505093505092505061435c8a6143568c85614e36565b8b614f34565b8197509750505050505050614489565b505050614487565b61437c61557b565b6004600087815260200190815260200160002060008681526020019081526020016000206040518060400160405290816000820160009054906101000a90047affffffffffffffffffffffffffffffffffffffffffffffffffffff167affffffffffffffffffffffffffffffffffffffffffffffffffffff167affffffffffffffffffffffffffffffffffffffffffffffffffffff16815260200160008201601b9054906101000a900464ffffffffff1664ffffffffff1664ffffffffff1681525050905061446d8682600001517affffffffffffffffffffffffffffffffffffffffffffffffffffff1687614f34565b81602001518064ffffffffff169050935093505050614489565b505b9250929050565b6000809054906101000a900473ffffffffffffffffffffffffffffffffffffffff1673ffffffffffffffffffffffffffffffffffffffff163373ffffffffffffffffffffffffffffffffffffffff1614614535576040517f08c379a000000000000000000000000000000000000000000000000000000000815260040180806020018281038252602f81526020018061569a602f913960400191505060405180910390fd5b565b600061454b8383601260ff16600a0a615134565b905092915050565b60006145678383601260ff16600a0a61518d565b905092915050565b600080600090505b828054905081101561461f578383828154811061459057fe5b90600052602060002001541415614612578281815481106145ad57fe5b9060005260206000200160009055826001848054905003815481106145ce57fe5b90600052602060002001548382815481106145e557fe5b90600052602060002001819055508280548091906001900361460791906155ec565b506001915050614625565b8080600101915050614577565b50600090505b92915050565b6000806006600084815260200190815260200160002060009054906101000a900473ffffffffffffffffffffffffffffffffffffffff169050600073ffffffffffffffffffffffffffffffffffffffff168173ffffffffffffffffffffffffffffffffffffffff1614614721578073ffffffffffffffffffffffffffffffffffffffff1663668a0f026040518163ffffffff1660e01b815260040160206040518083038186803b1580156146de57600080fd5b505afa1580156146f2573d6000803e3d6000fd5b505050506040513d602081101561470857600080fd5b8101908080519060200190929190505050915050614739565b600b6000848152602001908152602001600020549150505b919050565b600061474982613aab565b600001517affffffffffffffffffffffffffffffffffffffffffffffffffffff169050919050565b600560009054906101000a900473ffffffffffffffffffffffffffffffffffffffff1673ffffffffffffffffffffffffffffffffffffffff163373ffffffffffffffffffffffffffffffffffffffff1614614817576040517f08c379a00000000000000000000000000000000000000000000000000000000081526004018080602001828103825260278152602001806156736027913960400191505060405180910390fd5b565b60008060006148278661473e565b91508386141561483c57819050849250614879565b6148458461473e565b905060008111156148785761487581614867848861453790919063ffffffff16565b61455390919063ffffffff16565b92505b5b93509350939050565b606060016040519080825280602002602001820160405280156148b45781602001602082028038833980820191505090505b5090507f466c657869626c6553746f726167650000000000000000000000000000000000816000815181106148e557fe5b60200260200101818152505090565b606081518351016040519080825280602002602001820160405280156149295781602001602082028038833980820191505090505b50905060008090505b83518110156149745783818151811061494757fe5b602002602001015182828151811061495b57fe5b6020026020010181815250508080600101915050614932565b5060008090505b82518110156149c05782818151811061499057fe5b60200260200101518282865101815181106149a757fe5b602002602001018181525050808060010191505061497b565b5092915050565b60006149d16155b9565b600960008481526020019081526020016000206040518060a00160405290816000820154815260200160018201548152602001600282015481526020016003820160009054906101000a900460ff161515151581526020016003820160019054906101000a900460ff1615151515815250509050806060015180614a56575080608001515b915050919050565b600080831415614a715760009050614ade565b6000828402905082848281614a8257fe5b0414614ad9576040517f08c379a00000000000000000000000000000000000000000000000000000000081526004018080602001828103825260218152602001806156c96021913960400191505060405180910390fd5b809150505b92915050565b6000614b0f7f45786368616e67657200000000000000000000000000000000000000000000006151e8565b905090565b60008251845114614b70576040517f08c379a000000000000000000000000000000000000000000000000000000000815260040180806020018281038252603881526020018061571b6038913960400191505060405180910390fd5b61025842018210614be9576040517f08c379a000000000000000000000000000000000000000000000000000000000815260040180806020018281038252601f8152602001807f54696d6520697320746f6f2066617220696e746f20746865206675747572650081525060200191505060405180910390fd5b60008090505b8451811015614d39576000858281518110614c0657fe5b602002602001015190506000858381518110614c1e57fe5b60200260200101511415614c7d576040517f08c379a00000000000000000000000000000000000000000000000000000000081526004018080602001828103825260398152602001806157da6039913960400191505060405180910390fd5b7f7055534400000000000000000000000000000000000000000000000000000000811415614cf6576040517f08c379a00000000000000000000000000000000000000000000000000000000081526004018080602001828103825260318152602001806156ea6031913960400191505060405180910390fd5b614cff816137c4565b841015614d0c5750614d2c565b614d2a81868481518110614d1c57fe5b60200260200101518661534a565b505b8080600101915050614bef565b507f1bc0fc8997efa076f59b5ef02c315bc5390f7a6d24d661ce12128c01a3b0ba578484604051808060200180602001838103835285818151815260200191508051906020019060200280838360005b83811015614da4578082015181840152602081019050614d89565b50505050905001838103825284818151815260200191508051906020019060200280838360005b83811015614de6578082015181840152602081019050614dcb565b5050505090500194505050505060405180910390a1600190509392505050565b6000614e317f466c657869626c6553746f7261676500000000000000000000000000000000006151e8565b905090565b600080821215614eae576040517f08c379a000000000000000000000000000000000000000000000000000000000815260040180806020018281038252601b8152602001807f4e656761746976652072617465206e6f7420737570706f72746564000000000081525060200191505060405180910390fd5b60006007600085815260200190815260200160002060009054906101000a900460ff1660ff161115614f2a576000614f0a60126007600087815260200190815260200160002060009054906101000a900460ff1660ff16615463565b600a0a9050614f228184614a5e90919063ffffffff16565b915050614f2e565b8190505b92915050565b6000614f3e6155b9565b600960008681526020019081526020016000206040518060a00160405290816000820154815260200160018201548152602001600282015481526020016003820160009054906101000a900460ff161515151581526020016003820160019054906101000a900460ff1615151515815250509050600081600001511480614fc55750600084145b15614fd357839150506150a5565b8391506000600c6000878152602001908152602001600020549050808410158015614fff575081606001515b1561501057816020015192506150a2565b808410158015615021575081608001515b1561503257816040015192506150a1565b600061504c60028460000151614a5e90919063ffffffff16565b905085811161505e5760009350615074565b615071868261546390919063ffffffff16565b93505b8260200151841061508b578260200151935061509f565b8260400151841161509e57826040015193505b5b505b5b50505b9392505050565b60008082840190508381101561512a576040517f08c379a000000000000000000000000000000000000000000000000000000000815260040180806020018281038252601b8152602001807f536166654d6174683a206164646974696f6e206f766572666c6f77000000000081525060200191505060405180910390fd5b8091505092915050565b600080600a838161514157fe5b046151558587614a5e90919063ffffffff16565b8161515c57fe5b0490506005600a828161516b57fe5b061061517857600a810190505b600a818161518257fe5b049150509392505050565b6000806151b8846151aa600a860288614a5e90919063ffffffff16565b6154ec90919063ffffffff16565b90506005600a82816151c657fe5b06106151d357600a810190505b600a81816151dd57fe5b049150509392505050565b6000806003600084815260200190815260200160002060009054906101000a900473ffffffffffffffffffffffffffffffffffffffff169050600073ffffffffffffffffffffffffffffffffffffffff168173ffffffffffffffffffffffffffffffffffffffff1614158360405160200180807f4d697373696e6720616464726573733a2000000000000000000000000000000081525060110182815260200191505060405160208183030381529060405290615340576040517f08c379a00000000000000000000000000000000000000000000000000000000081526004018080602001828103825283818151815260200191508051906020019080838360005b838110156153055780820151818401526020810190506152ea565b50505050905090810190601f1680156153325780820380516001836020036101000a031916815260200191505b509250505060405180910390fd5b5080915050919050565b600b6000848152602001908152602001600020600081548092919060010191905055506040518060400160405280837affffffffffffffffffffffffffffffffffffffffffffffffffffff1681526020018264ffffffffff16815250600460008581526020019081526020016000206000600b600087815260200190815260200160002054815260200190815260200160002060008201518160000160006101000a8154817affffffffffffffffffffffffffffffffffffffffffffffffffffff02191690837affffffffffffffffffffffffffffffffffffffffffffffffffffff160217905550602082015181600001601b6101000a81548164ffffffffff021916908364ffffffffff160217905550905050505050565b6000828211156154db576040517f08c379a000000000000000000000000000000000000000000000000000000000815260040180806020018281038252601e8152602001807f536166654d6174683a207375627472616374696f6e206f766572666c6f77000081525060200191505060405180910390fd5b600082840390508091505092915050565b6000808211615563576040517f08c379a000000000000000000000000000000000000000000000000000000000815260040180806020018281038252601a8152602001807f536166654d6174683a206469766973696f6e206279207a65726f00000000000081525060200191505060405180910390fd5b600082848161556e57fe5b0490508091505092915050565b604051806040016040528060007affffffffffffffffffffffffffffffffffffffffffffffffffffff168152602001600064ffffffffff1681525090565b6040518060a001604052806000815260200160008152602001600081526020016000151581526020016000151581525090565b815481835581811115615613578183600052602060002091820191016156129190615618565b5b505050565b61563a91905b8082111561563657600081600090555060010161561e565b5090565b9056fe596f75206d757374206265206e6f6d696e61746564206265666f726520796f752063616e20616363657074206f776e6572736869704f6e6c7920746865206f7261636c652063616e20706572666f726d207468697320616374696f6e4f6e6c792074686520636f6e7472616374206f776e6572206d617920706572666f726d207468697320616374696f6e536166654d6174683a206d756c7469706c69636174696f6e206f766572666c6f7752617465206f6620705553442063616e6e6f7420626520757064617465642c206974277320616c7761797320554e49542e43757272656e6379206b6579206172726179206c656e677468206d757374206d61746368207261746573206172726179206c656e6774682e6c6f7765724c696d6974206d7573742062652062656c6f772074686520656e747279506f696e7475707065724c696d6974206d757374206265206c657373207468616e20646f75626c6520656e747279506f696e7441676772656761746f7220646563696d616c732073686f756c64206265206c6f776572206f7220657175616c20746f2031385a65726f206973206e6f7420612076616c696420726174652c20706c656173652063616c6c2064656c6574655261746520696e73746561642e75707065724c696d6974206d7573742062652061626f76652074686520656e747279506f696e74a265627a7a72315820d7da2152e7569eb09ca270b5defea4d2ab1f00c507d6648ccf8bbe5b4dacfa3564736f6c6343000510003243757272656e6379206b6579206c656e67746820616e642072617465206c656e677468206d757374206d617463682e536166654d6174683a206d756c7469706c69636174696f6e206f766572666c6f7752617465206f6620705553442063616e6e6f7420626520757064617465642c206974277320616c7761797320554e49542e43757272656e6379206b6579206172726179206c656e677468206d757374206d61746368207261746573206172726179206c656e6774682e5a65726f206973206e6f7420612076616c696420726174652c20706c656173652063616c6c2064656c6574655261746520696e73746561642e",
  "linkReferences": {
    "contracts/SafeDecimalMath.sol": {
      "SafeDecimalMath": [
        {
          "length": 20,
          "start": 1040
        }
      ]
    }
  },
  "deployedLinkReferences": {}
}