{
  "_format": "hh-sol-artifact-1",
  "contractName": "EmptyEtherCollateral",
  "sourceName": "contracts/EmptyEtherCollateral.sol",
  "abi": [
    {
      "constant": true,
      "inputs": [],
      "name": "totalIssuedPynths",
      "outputs": [
        {
          "internalType": "uint256",
          "name": "",
          "type": "uint256"
        }
      ],
      "payable": false,
      "stateMutability": "pure",
      "type": "function"
    }
  ],
  "bytecode": "0x6080604052348015600f57600080fd5b5060868061001e6000396000f3fe6080604052348015600f57600080fd5b506004361060285760003560e01c806357b2192014602d575b600080fd5b60336049565b6040518082815260200191505060405180910390f35b60008090509056fea265627a7a72315820f307128d0b630efad8660d82fe5197fc32b14a3c767a8b499ccb9b937d54944e64736f6c63430005100032",
  "linkReferences": {},
  "deployedLinkReferences": {}
}