{
  "_format": "hh-sol-artifact-1",
  "contractName": "IssuerWithoutLiquidations",
  "sourceName": "contracts/IssuerWithoutLiquidations.sol",
  "abi": [
    {
      "inputs": [
        {
          "internalType": "address",
          "name": "_owner",
          "type": "address"
        },
        {
          "internalType": "address",
          "name": "_resolver",
          "type": "address"
        }
      ],
      "payable": false,
      "stateMutability": "nonpayable",
      "type": "constructor"
    },
    {
      "anonymous": false,
      "inputs": [
        {
          "indexed": false,
          "internalType": "bytes32",
          "name": "name",
          "type": "bytes32"
        },
        {
          "indexed": false,
          "internalType": "address",
          "name": "destination",
          "type": "address"
        }
      ],
      "name": "CacheUpdated",
      "type": "event"
    },
    {
      "anonymous": false,
      "inputs": [
        {
          "indexed": false,
          "internalType": "address",
          "name": "oldOwner",
          "type": "address"
        },
        {
          "indexed": false,
          "internalType": "address",
          "name": "newOwner",
          "type": "address"
        }
      ],
      "name": "OwnerChanged",
      "type": "event"
    },
    {
      "anonymous": false,
      "inputs": [
        {
          "indexed": false,
          "internalType": "address",
          "name": "newOwner",
          "type": "address"
        }
      ],
      "name": "OwnerNominated",
      "type": "event"
    },
    {
      "anonymous": false,
      "inputs": [
        {
          "indexed": false,
          "internalType": "bytes32",
          "name": "currencyKey",
          "type": "bytes32"
        },
        {
          "indexed": false,
          "internalType": "address",
          "name": "pynth",
          "type": "address"
        }
      ],
      "name": "PynthAdded",
      "type": "event"
    },
    {
      "anonymous": false,
      "inputs": [
        {
          "indexed": false,
          "internalType": "bytes32",
          "name": "currencyKey",
          "type": "bytes32"
        },
        {
          "indexed": false,
          "internalType": "address",
          "name": "pynth",
          "type": "address"
        }
      ],
      "name": "PynthRemoved",
      "type": "event"
    },
    {
      "constant": true,
      "inputs": [],
      "name": "CONTRACT_NAME",
      "outputs": [
        {
          "internalType": "bytes32",
          "name": "",
          "type": "bytes32"
        }
      ],
      "payable": false,
      "stateMutability": "view",
      "type": "function"
    },
    {
      "constant": false,
      "inputs": [],
      "name": "acceptOwnership",
      "outputs": [],
      "payable": false,
      "stateMutability": "nonpayable",
      "type": "function"
    },
    {
      "constant": false,
      "inputs": [
        {
          "internalType": "contract IPynth",
          "name": "pynth",
          "type": "address"
        }
      ],
      "name": "addPynth",
      "outputs": [],
      "payable": false,
      "stateMutability": "nonpayable",
      "type": "function"
    },
    {
      "constant": false,
      "inputs": [
        {
          "internalType": "contract IPynth[]",
          "name": "pynthsToAdd",
          "type": "address[]"
        }
      ],
      "name": "addPynths",
      "outputs": [],
      "payable": false,
      "stateMutability": "nonpayable",
      "type": "function"
    },
    {
      "constant": true,
      "inputs": [],
      "name": "anyPynthOrPERIRateIsInvalid",
      "outputs": [
        {
          "internalType": "bool",
          "name": "anyRateInvalid",
          "type": "bool"
        }
      ],
      "payable": false,
      "stateMutability": "view",
      "type": "function"
    },
    {
      "constant": true,
      "inputs": [],
      "name": "availableCurrencyKeys",
      "outputs": [
        {
          "internalType": "bytes32[]",
          "name": "",
          "type": "bytes32[]"
        }
      ],
      "payable": false,
      "stateMutability": "view",
      "type": "function"
    },
    {
      "constant": true,
      "inputs": [],
      "name": "availablePynthCount",
      "outputs": [
        {
          "internalType": "uint256",
          "name": "",
          "type": "uint256"
        }
      ],
      "payable": false,
      "stateMutability": "view",
      "type": "function"
    },
    {
      "constant": true,
      "inputs": [
        {
          "internalType": "uint256",
          "name": "",
          "type": "uint256"
        }
      ],
      "name": "availablePynths",
      "outputs": [
        {
          "internalType": "contract IPynth",
          "name": "",
          "type": "address"
        }
      ],
      "payable": false,
      "stateMutability": "view",
      "type": "function"
    },
    {
      "constant": false,
      "inputs": [
        {
          "internalType": "address",
          "name": "from",
          "type": "address"
        },
        {
          "internalType": "uint256",
          "name": "amount",
          "type": "uint256"
        }
      ],
      "name": "burnPynths",
      "outputs": [],
      "payable": false,
      "stateMutability": "nonpayable",
      "type": "function"
    },
    {
      "constant": false,
      "inputs": [
        {
          "internalType": "address",
          "name": "burnForAddress",
          "type": "address"
        },
        {
          "internalType": "address",
          "name": "from",
          "type": "address"
        },
        {
          "internalType": "uint256",
          "name": "amount",
          "type": "uint256"
        }
      ],
      "name": "burnPynthsOnBehalf",
      "outputs": [],
      "payable": false,
      "stateMutability": "nonpayable",
      "type": "function"
    },
    {
      "constant": false,
      "inputs": [
        {
          "internalType": "address",
          "name": "from",
          "type": "address"
        }
      ],
      "name": "burnPynthsToTarget",
      "outputs": [],
      "payable": false,
      "stateMutability": "nonpayable",
      "type": "function"
    },
    {
      "constant": false,
      "inputs": [
        {
          "internalType": "address",
          "name": "burnForAddress",
          "type": "address"
        },
        {
          "internalType": "address",
          "name": "from",
          "type": "address"
        }
      ],
      "name": "burnPynthsToTargetOnBehalf",
      "outputs": [],
      "payable": false,
      "stateMutability": "nonpayable",
      "type": "function"
    },
    {
      "constant": true,
      "inputs": [
        {
          "internalType": "address",
          "name": "account",
          "type": "address"
        }
      ],
      "name": "canBurnPynths",
      "outputs": [
        {
          "internalType": "bool",
          "name": "",
          "type": "bool"
        }
      ],
      "payable": false,
      "stateMutability": "view",
      "type": "function"
    },
    {
      "constant": true,
      "inputs": [
        {
          "internalType": "address",
          "name": "account",
          "type": "address"
        }
      ],
      "name": "collateral",
      "outputs": [
        {
          "internalType": "uint256",
          "name": "",
          "type": "uint256"
        }
      ],
      "payable": false,
      "stateMutability": "view",
      "type": "function"
    },
    {
      "constant": true,
      "inputs": [
        {
          "internalType": "address",
          "name": "_issuer",
          "type": "address"
        }
      ],
      "name": "collateralisationRatio",
      "outputs": [
        {
          "internalType": "uint256",
          "name": "cratio",
          "type": "uint256"
        }
      ],
      "payable": false,
      "stateMutability": "view",
      "type": "function"
    },
    {
      "constant": true,
      "inputs": [
        {
          "internalType": "address",
          "name": "_issuer",
          "type": "address"
        }
      ],
      "name": "collateralisationRatioAndAnyRatesInvalid",
      "outputs": [
        {
          "internalType": "uint256",
          "name": "cratio",
          "type": "uint256"
        },
        {
          "internalType": "bool",
          "name": "anyRateIsInvalid",
          "type": "bool"
        }
      ],
      "payable": false,
      "stateMutability": "view",
      "type": "function"
    },
    {
      "constant": true,
      "inputs": [
        {
          "internalType": "address",
          "name": "_issuer",
          "type": "address"
        },
        {
          "internalType": "bytes32",
          "name": "currencyKey",
          "type": "bytes32"
        }
      ],
      "name": "debtBalanceOf",
      "outputs": [
        {
          "internalType": "uint256",
          "name": "debtBalance",
          "type": "uint256"
        }
      ],
      "payable": false,
      "stateMutability": "view",
      "type": "function"
    },
    {
      "constant": true,
      "inputs": [
        {
          "internalType": "bytes32[]",
          "name": "currencyKeys",
          "type": "bytes32[]"
        }
      ],
      "name": "getPynths",
      "outputs": [
        {
          "internalType": "contract IPynth[]",
          "name": "",
          "type": "address[]"
        }
      ],
      "payable": false,
      "stateMutability": "view",
      "type": "function"
    },
    {
      "constant": true,
      "inputs": [],
      "name": "isResolverCached",
      "outputs": [
        {
          "internalType": "bool",
          "name": "",
          "type": "bool"
        }
      ],
      "payable": false,
      "stateMutability": "view",
      "type": "function"
    },
    {
      "constant": true,
      "inputs": [],
      "name": "issuanceRatio",
      "outputs": [
        {
          "internalType": "uint256",
          "name": "",
          "type": "uint256"
        }
      ],
      "payable": false,
      "stateMutability": "view",
      "type": "function"
    },
    {
      "constant": false,
      "inputs": [
        {
          "internalType": "address",
          "name": "from",
          "type": "address"
        }
      ],
      "name": "issueMaxPynths",
      "outputs": [],
      "payable": false,
      "stateMutability": "nonpayable",
      "type": "function"
    },
    {
      "constant": false,
      "inputs": [
        {
          "internalType": "address",
          "name": "issueForAddress",
          "type": "address"
        },
        {
          "internalType": "address",
          "name": "from",
          "type": "address"
        }
      ],
      "name": "issueMaxPynthsOnBehalf",
      "outputs": [],
      "payable": false,
      "stateMutability": "nonpayable",
      "type": "function"
    },
    {
      "constant": false,
      "inputs": [
        {
          "internalType": "address",
          "name": "from",
          "type": "address"
        },
        {
          "internalType": "uint256",
          "name": "amount",
          "type": "uint256"
        }
      ],
      "name": "issuePynths",
      "outputs": [],
      "payable": false,
      "stateMutability": "nonpayable",
      "type": "function"
    },
    {
      "constant": false,
      "inputs": [
        {
          "internalType": "address",
          "name": "issueForAddress",
          "type": "address"
        },
        {
          "internalType": "address",
          "name": "from",
          "type": "address"
        },
        {
          "internalType": "uint256",
          "name": "amount",
          "type": "uint256"
        }
      ],
      "name": "issuePynthsOnBehalf",
      "outputs": [],
      "payable": false,
      "stateMutability": "nonpayable",
      "type": "function"
    },
    {
      "constant": true,
      "inputs": [
        {
          "internalType": "address",
          "name": "account",
          "type": "address"
        }
      ],
      "name": "lastIssueEvent",
      "outputs": [
        {
          "internalType": "uint256",
          "name": "",
          "type": "uint256"
        }
      ],
      "payable": false,
      "stateMutability": "view",
      "type": "function"
    },
    {
      "constant": false,
      "inputs": [
        {
          "internalType": "address",
          "name": "account",
          "type": "address"
        },
        {
          "internalType": "uint256",
          "name": "susdAmount",
          "type": "uint256"
        },
        {
          "internalType": "address",
          "name": "liquidator",
          "type": "address"
        }
      ],
      "name": "liquidateDelinquentAccount",
      "outputs": [
        {
          "internalType": "uint256",
          "name": "totalRedeemed",
          "type": "uint256"
        },
        {
          "internalType": "uint256",
          "name": "amountToLiquidate",
          "type": "uint256"
        }
      ],
      "payable": false,
      "stateMutability": "nonpayable",
      "type": "function"
    },
    {
      "constant": true,
      "inputs": [
        {
          "internalType": "address",
          "name": "_issuer",
          "type": "address"
        }
      ],
      "name": "maxIssuablePynths",
      "outputs": [
        {
          "internalType": "uint256",
          "name": "",
          "type": "uint256"
        }
      ],
      "payable": false,
      "stateMutability": "view",
      "type": "function"
    },
    {
      "constant": true,
      "inputs": [],
      "name": "minimumStakeTime",
      "outputs": [
        {
          "internalType": "uint256",
          "name": "",
          "type": "uint256"
        }
      ],
      "payable": false,
      "stateMutability": "view",
      "type": "function"
    },
    {
      "constant": false,
      "inputs": [
        {
          "internalType": "address",
          "name": "_owner",
          "type": "address"
        }
      ],
      "name": "nominateNewOwner",
      "outputs": [],
      "payable": false,
      "stateMutability": "nonpayable",
      "type": "function"
    },
    {
      "constant": true,
      "inputs": [],
      "name": "nominatedOwner",
      "outputs": [
        {
          "internalType": "address",
          "name": "",
          "type": "address"
        }
      ],
      "payable": false,
      "stateMutability": "view",
      "type": "function"
    },
    {
      "constant": true,
      "inputs": [],
      "name": "owner",
      "outputs": [
        {
          "internalType": "address",
          "name": "",
          "type": "address"
        }
      ],
      "payable": false,
      "stateMutability": "view",
      "type": "function"
    },
    {
      "constant": true,
      "inputs": [
        {
          "internalType": "bytes32",
          "name": "",
          "type": "bytes32"
        }
      ],
      "name": "pynths",
      "outputs": [
        {
          "internalType": "contract IPynth",
          "name": "",
          "type": "address"
        }
      ],
      "payable": false,
      "stateMutability": "view",
      "type": "function"
    },
    {
      "constant": true,
      "inputs": [
        {
          "internalType": "address",
          "name": "",
          "type": "address"
        }
      ],
      "name": "pynthsByAddress",
      "outputs": [
        {
          "internalType": "bytes32",
          "name": "",
          "type": "bytes32"
        }
      ],
      "payable": false,
      "stateMutability": "view",
      "type": "function"
    },
    {
      "constant": false,
      "inputs": [],
      "name": "rebuildCache",
      "outputs": [],
      "payable": false,
      "stateMutability": "nonpayable",
      "type": "function"
    },
    {
      "constant": true,
      "inputs": [
        {
          "internalType": "address",
          "name": "_issuer",
          "type": "address"
        }
      ],
      "name": "remainingIssuablePynths",
      "outputs": [
        {
          "internalType": "uint256",
          "name": "maxIssuable",
          "type": "uint256"
        },
        {
          "internalType": "uint256",
          "name": "alreadyIssued",
          "type": "uint256"
        },
        {
          "internalType": "uint256",
          "name": "totalSystemDebt",
          "type": "uint256"
        }
      ],
      "payable": false,
      "stateMutability": "view",
      "type": "function"
    },
    {
      "constant": false,
      "inputs": [
        {
          "internalType": "bytes32",
          "name": "currencyKey",
          "type": "bytes32"
        }
      ],
      "name": "removePynth",
      "outputs": [],
      "payable": false,
      "stateMutability": "nonpayable",
      "type": "function"
    },
    {
      "constant": false,
      "inputs": [
        {
          "internalType": "bytes32[]",
          "name": "currencyKeys",
          "type": "bytes32[]"
        }
      ],
      "name": "removePynths",
      "outputs": [],
      "payable": false,
      "stateMutability": "nonpayable",
      "type": "function"
    },
    {
      "constant": true,
      "inputs": [],
      "name": "resolver",
      "outputs": [
        {
          "internalType": "contract AddressResolver",
          "name": "",
          "type": "address"
        }
      ],
      "payable": false,
      "stateMutability": "view",
      "type": "function"
    },
    {
      "constant": true,
      "inputs": [],
      "name": "resolverAddressesRequired",
      "outputs": [
        {
          "internalType": "bytes32[]",
          "name": "addresses",
          "type": "bytes32[]"
        }
      ],
      "payable": false,
      "stateMutability": "view",
      "type": "function"
    },
    {
      "constant": true,
      "inputs": [
        {
          "internalType": "bytes32",
          "name": "currencyKey",
          "type": "bytes32"
        },
        {
          "internalType": "bool",
          "name": "excludeEtherCollateral",
          "type": "bool"
        }
      ],
      "name": "totalIssuedPynths",
      "outputs": [
        {
          "internalType": "uint256",
          "name": "totalIssued",
          "type": "uint256"
        }
      ],
      "payable": false,
      "stateMutability": "view",
      "type": "function"
    },
    {
      "constant": true,
      "inputs": [
        {
          "internalType": "address",
          "name": "account",
          "type": "address"
        },
        {
          "internalType": "uint256",
          "name": "balance",
          "type": "uint256"
        }
      ],
      "name": "transferablePeriFinAndAnyRateIsInvalid",
      "outputs": [
        {
          "internalType": "uint256",
          "name": "transferable",
          "type": "uint256"
        },
        {
          "internalType": "bool",
          "name": "anyRateIsInvalid",
          "type": "bool"
        }
      ],
      "payable": false,
      "stateMutability": "view",
      "type": "function"
    }
  ],
  "bytecode": "0x60806040523480156200001157600080fd5b506040516200636138038062006361833981810160405260408110156200003757600080fd5b8101908080519060200190929190805190602001909291905050508181808083600073ffffffffffffffffffffffffffffffffffffffff168173ffffffffffffffffffffffffffffffffffffffff161415620000fb576040517f08c379a00000000000000000000000000000000000000000000000000000000081526004018080602001828103825260198152602001807f4f776e657220616464726573732063616e6e6f7420626520300000000000000081525060200191505060405180910390fd5b806000806101000a81548173ffffffffffffffffffffffffffffffffffffffff021916908373ffffffffffffffffffffffffffffffffffffffff1602179055507fb532073b38c83145e3e5135377a08bf9aab55bc0fd7c1179cd4fb995d2a5159c600082604051808373ffffffffffffffffffffffffffffffffffffffff1673ffffffffffffffffffffffffffffffffffffffff1681526020018273ffffffffffffffffffffffffffffffffffffffff1673ffffffffffffffffffffffffffffffffffffffff1681526020019250505060405180910390a15080600260006101000a81548173ffffffffffffffffffffffffffffffffffffffff021916908373ffffffffffffffffffffffffffffffffffffffff160217905550505050505050616136806200022b6000396000f3fe608060405234801561001057600080fd5b50600436106102535760003560e01c806372cb051f11610146578063b410a034116100c3578063daa0101511610087578063daa0101514610d79578063dd3d2b2e14610de7578063e71c452f14610e3f578063f023e8db14610ead578063f0617e5b14610efb578063f5adc4f514610f3f57610253565b8063b410a03414610c35578063ba92122314610c53578063c9a2f3ad14610ca1578063d37c4d8b14610cf9578063d99947de14610d5b57610253565b80639df95f9f1161010a5780639df95f9f14610a2b578063a311c7c214610a99578063a5fdc5de14610af1578063a63c4df414610b49578063ae3bbbbb14610bd257610253565b806372cb051f1461090f578063741853601461096e57806379ba509714610978578063899ffef4146109825780638da5cb5b146109e157610253565b80633b09280a116101d45780635543dadc116101985780635543dadc1461074d57806356c25f82146107c657806357ad46631461080a5780636017c45814610878578063614d08f8146108f157610253565b80633b09280a146105b35780634669106a146106195780634c29b0af1461067d57806353a47bb7146106ab57806355182ccb146106f557610253565b80631db63a331161021b5780631db63a33146103e5578063242df9e1146104b35780632ae78fdb146104d15780632af64bd31461052d57806330662ab91461054f57610253565b806304f3bcec14610258578063095314a8146102a257806312928a62146102f0578063156b4ff61461035d5780631627540c146103a1575b600080fd5b610260610f61565b604051808273ffffffffffffffffffffffffffffffffffffffff1673ffffffffffffffffffffffffffffffffffffffff16815260200191505060405180910390f35b6102ee600480360360408110156102b857600080fd5b81019080803573ffffffffffffffffffffffffffffffffffffffff16906020019092919080359060200190929190505050610f87565b005b61033c6004803603604081101561030657600080fd5b81019080803573ffffffffffffffffffffffffffffffffffffffff16906020019092919080359060200190929190505050610f9f565b60405180838152602001821515151581526020019250505060405180910390f35b61039f6004803603602081101561037357600080fd5b81019080803573ffffffffffffffffffffffffffffffffffffffff169060200190929190505050611025565b005b6103e3600480360360208110156103b757600080fd5b81019080803573ffffffffffffffffffffffffffffffffffffffff1690602001909291905050506110b0565b005b61045c600480360360208110156103fb57600080fd5b810190808035906020019064010000000081111561041857600080fd5b82018360208201111561042a57600080fd5b8035906020019184602083028401116401000000008311171561044c57600080fd5b909192939192939050505061115f565b6040518080602001828103825283818151815260200191508051906020019060200280838360005b8381101561049f578082015181840152602081019050610484565b505050509050019250505060405180910390f35b6104bb611250565b6040518082815260200191505060405180910390f35b610513600480360360208110156104e757600080fd5b81019080803573ffffffffffffffffffffffffffffffffffffffff16906020019092919050505061125f565b604051808215151515815260200191505060405180910390f35b610535611271565b604051808215151515815260200191505060405180910390f35b6105b16004803603604081101561056557600080fd5b81019080803573ffffffffffffffffffffffffffffffffffffffff169060200190929190803573ffffffffffffffffffffffffffffffffffffffff169060200190929190505050611449565b005b6105f5600480360360208110156105c957600080fd5b81019080803573ffffffffffffffffffffffffffffffffffffffff16906020019092919050505061146c565b60405180848152602001838152602001828152602001935050505060405180910390f35b61067b6004803603604081101561062f57600080fd5b81019080803573ffffffffffffffffffffffffffffffffffffffff169060200190929190803573ffffffffffffffffffffffffffffffffffffffff16906020019092919050505061148e565b005b6106a96004803603602081101561069357600080fd5b81019080803590602001909291905050506114b1565b005b6106b36115b6565b604051808273ffffffffffffffffffffffffffffffffffffffff1673ffffffffffffffffffffffffffffffffffffffff16815260200191505060405180910390f35b6107376004803603602081101561070b57600080fd5b81019080803573ffffffffffffffffffffffffffffffffffffffff1690602001909291905050506115dc565b6040518082815260200191505060405180910390f35b6107c46004803603602081101561076357600080fd5b810190808035906020019064010000000081111561078057600080fd5b82018360208201111561079257600080fd5b803590602001918460208302840111640100000000831117156107b457600080fd5b90919293919293905050506115f4565b005b610808600480360360208110156107dc57600080fd5b81019080803573ffffffffffffffffffffffffffffffffffffffff1690602001909291905050506116cd565b005b6108366004803603602081101561082057600080fd5b81019080803590602001909291905050506116e5565b604051808273ffffffffffffffffffffffffffffffffffffffff1673ffffffffffffffffffffffffffffffffffffffff16815260200191505060405180910390f35b6108ef6004803603602081101561088e57600080fd5b81019080803590602001906401000000008111156108ab57600080fd5b8201836020820111156108bd57600080fd5b803590602001918460208302840111640100000000831117156108df57600080fd5b9091929391929390505050611718565b005b6108f96118f9565b6040518082815260200191505060405180910390f35b61091761191d565b6040518080602001828103825283818151815260200191508051906020019060200280838360005b8381101561095a57808201518184015260208101905061093f565b505050509050019250505060405180910390f35b61097661192e565b005b610980611b97565b005b61098a611dbd565b6040518080602001828103825283818151815260200191508051906020019060200280838360005b838110156109cd5780820151818401526020810190506109b2565b505050509050019250505060405180910390f35b6109e9612102565b604051808273ffffffffffffffffffffffffffffffffffffffff1673ffffffffffffffffffffffffffffffffffffffff16815260200191505060405180910390f35b610a5760048036036020811015610a4157600080fd5b8101908080359060200190929190505050612127565b604051808273ffffffffffffffffffffffffffffffffffffffff1673ffffffffffffffffffffffffffffffffffffffff16815260200191505060405180910390f35b610adb60048036036020811015610aaf57600080fd5b81019080803573ffffffffffffffffffffffffffffffffffffffff169060200190929190505050612163565b6040518082815260200191505060405180910390f35b610b3360048036036020811015610b0757600080fd5b81019080803573ffffffffffffffffffffffffffffffffffffffff169060200190929190505050612178565b6040518082815260200191505060405180910390f35b610bb560048036036060811015610b5f57600080fd5b81019080803573ffffffffffffffffffffffffffffffffffffffff16906020019092919080359060200190929190803573ffffffffffffffffffffffffffffffffffffffff16906020019092919050505061218a565b604051808381526020018281526020019250505060405180910390f35b610c1460048036036020811015610be857600080fd5b81019080803573ffffffffffffffffffffffffffffffffffffffff16906020019092919050505061219d565b60405180838152602001821515151581526020019250505060405180910390f35b610c3d6121b2565b6040518082815260200191505060405180910390f35b610c9f60048036036040811015610c6957600080fd5b81019080803573ffffffffffffffffffffffffffffffffffffffff169060200190929190803590602001909291905050506121c1565b005b610ce360048036036020811015610cb757600080fd5b81019080803573ffffffffffffffffffffffffffffffffffffffff1690602001909291905050506121d9565b6040518082815260200191505060405180910390f35b610d4560048036036040811015610d0f57600080fd5b81019080803573ffffffffffffffffffffffffffffffffffffffff169060200190929190803590602001909291905050506121f1565b6040518082815260200191505060405180910390f35b610d636122f2565b6040518082815260200191505060405180910390f35b610de560048036036060811015610d8f57600080fd5b81019080803573ffffffffffffffffffffffffffffffffffffffff169060200190929190803573ffffffffffffffffffffffffffffffffffffffff169060200190929190803590602001909291905050506122ff565b005b610e2960048036036020811015610dfd57600080fd5b81019080803573ffffffffffffffffffffffffffffffffffffffff169060200190929190505050612322565b6040518082815260200191505060405180910390f35b610eab60048036036060811015610e5557600080fd5b81019080803573ffffffffffffffffffffffffffffffffffffffff169060200190929190803573ffffffffffffffffffffffffffffffffffffffff16906020019092919080359060200190929190505050612334565b005b610ee560048036036040811015610ec357600080fd5b8101908080359060200190929190803515159060200190929190505050612357565b6040518082815260200191505060405180910390f35b610f3d60048036036020811015610f1157600080fd5b81019080803573ffffffffffffffffffffffffffffffffffffffff16906020019092919050505061236e565b005b610f47612386565b604051808215151515815260200191505060405180910390f35b600260009054906101000a900473ffffffffffffffffffffffffffffffffffffffff1681565b610f8f612515565b610f9b828260006125a2565b5050565b6000806000610fce857f50455249000000000000000000000000000000000000000000000000000000006129e9565b905080935081925050506000610ff4610fe5612c5d565b83612d3f90919063ffffffff16565b9050848110611006576000935061101c565b6110198186612d5b90919063ffffffff16565b93505b50509250929050565b61102d612de4565b61103681612e8b565b61103e613207565b73ffffffffffffffffffffffffffffffffffffffff166304bd11e560016040518263ffffffff1660e01b81526004018082151515158152602001915050600060405180830381600087803b15801561109557600080fd5b505af11580156110a9573d6000803e3d6000fd5b5050505050565b6110b8612de4565b80600160006101000a81548173ffffffffffffffffffffffffffffffffffffffff021916908373ffffffffffffffffffffffffffffffffffffffff1602179055507f906a1c6bd7e3091ea86693dd029a831c19049ce77f1dce2ce0bab1cacbabce2281604051808273ffffffffffffffffffffffffffffffffffffffff1673ffffffffffffffffffffffffffffffffffffffff16815260200191505060405180910390a150565b6060600083839050905060608160405190808252806020026020018201604052801561119a5781602001602082028038833980820191505090505b50905060008090505b8281101561124457600560008787848181106111bb57fe5b90506020020135815260200190815260200160002060009054906101000a900473ffffffffffffffffffffffffffffffffffffffff168282815181106111fd57fe5b602002602001019073ffffffffffffffffffffffffffffffffffffffff16908173ffffffffffffffffffffffffffffffffffffffff168152505080806001019150506111a3565b50809250505092915050565b600061125a613237565b905090565b600061126a82613319565b9050919050565b6000606061127d611dbd565b905060008090505b815181101561143f57600082828151811061129c57fe5b602002602001015190506003600082815260200190815260200160002060009054906101000a900473ffffffffffffffffffffffffffffffffffffffff1673ffffffffffffffffffffffffffffffffffffffff16600260009054906101000a900473ffffffffffffffffffffffffffffffffffffffff1673ffffffffffffffffffffffffffffffffffffffff166321f8a721836040518263ffffffff1660e01b81526004018082815260200191505060206040518083038186803b15801561136357600080fd5b505afa158015611377573d6000803e3d6000fd5b505050506040513d602081101561138d57600080fd5b810190808051906020019092919050505073ffffffffffffffffffffffffffffffffffffffff161415806114205750600073ffffffffffffffffffffffffffffffffffffffff166003600083815260200190815260200160002060009054906101000a900473ffffffffffffffffffffffffffffffffffffffff1673ffffffffffffffffffffffffffffffffffffffff16145b156114315760009350505050611446565b508080600101915050611285565b5060019150505b90565b611451612515565b61145b8282613347565b61146882600060016134b0565b5050565b600080600061147a84613785565b508093508194508295505050509193909250565b611496612515565b6114a0828261380e565b6114ad82600060016125a2565b5050565b6114b9612de4565b60006114c3613207565b90508073ffffffffffffffffffffffffffffffffffffffff16638376a7828360006040518363ffffffff1660e01b81526004018083815260200182815260200192505050600060405180830381600087803b15801561152157600080fd5b505af1158015611535573d6000803e3d6000fd5b505050508073ffffffffffffffffffffffffffffffffffffffff166304bd11e560016040518263ffffffff1660e01b81526004018082151515158152602001915050600060405180830381600087803b15801561159157600080fd5b505af11580156115a5573d6000803e3d6000fd5b505050506115b282613977565b5050565b600160009054906101000a900473ffffffffffffffffffffffffffffffffffffffff1681565b6000806115e883613e3c565b50905080915050919050565b6115fc612de4565b600082829050905060008090505b818110156116505761164384848381811061162157fe5b9050602002013573ffffffffffffffffffffffffffffffffffffffff16612e8b565b808060010191505061160a565b50611659613207565b73ffffffffffffffffffffffffffffffffffffffff166304bd11e560016040518263ffffffff1660e01b81526004018082151515158152602001915050600060405180830381600087803b1580156116b057600080fd5b505af11580156116c4573d6000803e3d6000fd5b50505050505050565b6116d5612515565b6116e281600060016125a2565b50565b60056020528060005260406000206000915054906101000a900473ffffffffffffffffffffffffffffffffffffffff1681565b611720612de4565b60008282905090506000611732613207565b90506060826040519080825280602002602001820160405280156117655781602001602082028038833980820191505090505b5090508173ffffffffffffffffffffffffffffffffffffffff16639f98fb498686846040518463ffffffff1660e01b81526004018080602001806020018381038352868682818152602001925060200280828437600081840152601f19601f820116905080830192505050838103825284818151815260200191508051906020019060200280838360005b8381101561180b5780820151818401526020810190506117f0565b5050505090500195505050505050600060405180830381600087803b15801561183357600080fd5b505af1158015611847573d6000803e3d6000fd5b505050508173ffffffffffffffffffffffffffffffffffffffff166304bd11e560016040518263ffffffff1660e01b81526004018082151515158152602001915050600060405180830381600087803b1580156118a357600080fd5b505af11580156118b7573d6000803e3d6000fd5b5050505060008090505b838110156118f1576118e48686838181106118d857fe5b90506020020135613977565b80806001019150506118c1565b505050505050565b7f497373756572000000000000000000000000000000000000000000000000000081565b60606119296000613f3f565b905090565b6060611938611dbd565b905060008090505b8151811015611b9357600082828151811061195757fe5b602002602001015190506000600260009054906101000a900473ffffffffffffffffffffffffffffffffffffffff1673ffffffffffffffffffffffffffffffffffffffff1663dacb2d01838460405160200180807f5265736f6c766572206d697373696e67207461726765743a20000000000000008152506019018281526020019150506040516020818303038152906040526040518363ffffffff1660e01b81526004018083815260200180602001828103825283818151815260200191508051906020019080838360005b83811015611a3f578082015181840152602081019050611a24565b50505050905090810190601f168015611a6c5780820380516001836020036101000a031916815260200191505b50935050505060206040518083038186803b158015611a8a57600080fd5b505afa158015611a9e573d6000803e3d6000fd5b505050506040513d6020811015611ab457600080fd5b81019080805190602001909291905050509050806003600084815260200190815260200160002060006101000a81548173ffffffffffffffffffffffffffffffffffffffff021916908373ffffffffffffffffffffffffffffffffffffffff1602179055507f88a93678a3692f6789d9546fc621bf7234b101ddb7d4fe479455112831b8aa688282604051808381526020018273ffffffffffffffffffffffffffffffffffffffff1673ffffffffffffffffffffffffffffffffffffffff1681526020019250505060405180910390a150508080600101915050611940565b5050565b600160009054906101000a900473ffffffffffffffffffffffffffffffffffffffff1673ffffffffffffffffffffffffffffffffffffffff163373ffffffffffffffffffffffffffffffffffffffff1614611c3d576040517f08c379a00000000000000000000000000000000000000000000000000000000081526004018080602001828103825260358152602001806160446035913960400191505060405180910390fd5b7fb532073b38c83145e3e5135377a08bf9aab55bc0fd7c1179cd4fb995d2a5159c6000809054906101000a900473ffffffffffffffffffffffffffffffffffffffff16600160009054906101000a900473ffffffffffffffffffffffffffffffffffffffff16604051808373ffffffffffffffffffffffffffffffffffffffff1673ffffffffffffffffffffffffffffffffffffffff1681526020018273ffffffffffffffffffffffffffffffffffffffff1673ffffffffffffffffffffffffffffffffffffffff1681526020019250505060405180910390a1600160009054906101000a900473ffffffffffffffffffffffffffffffffffffffff166000806101000a81548173ffffffffffffffffffffffffffffffffffffffff021916908373ffffffffffffffffffffffffffffffffffffffff1602179055506000600160006101000a81548173ffffffffffffffffffffffffffffffffffffffff021916908373ffffffffffffffffffffffffffffffffffffffff160217905550565b606080611dc861408a565b90506060600d604051908082528060200260200182016040528015611dfc5781602001602082028038833980820191505090505b5090507f5065726946696e0000000000000000000000000000000000000000000000000081600081518110611e2d57fe5b6020026020010181815250507f45786368616e676572000000000000000000000000000000000000000000000081600181518110611e6757fe5b6020026020010181815250507f45786368616e676552617465730000000000000000000000000000000000000081600281518110611ea157fe5b6020026020010181815250507f5065726946696e5374617465000000000000000000000000000000000000000081600381518110611edb57fe5b6020026020010181815250507f466565506f6f6c0000000000000000000000000000000000000000000000000081600481518110611f1557fe5b6020026020010181815250507f44656c6567617465417070726f76616c7300000000000000000000000000000081600581518110611f4f57fe5b6020026020010181815250507f4574686572436f6c6c61746572616c000000000000000000000000000000000081600681518110611f8957fe5b6020026020010181815250507f4574686572436f6c6c61746572616c705553440000000000000000000000000081600781518110611fc357fe5b6020026020010181815250507f526577617264457363726f77563200000000000000000000000000000000000081600881518110611ffd57fe5b6020026020010181815250507f5065726946696e457363726f77000000000000000000000000000000000000008160098151811061203757fe5b6020026020010181815250507f4c69717569646174696f6e73000000000000000000000000000000000000000081600a8151811061207157fe5b6020026020010181815250507f446562744361636865000000000000000000000000000000000000000000000081600b815181106120ab57fe5b6020026020010181815250507f436f6c6c61746572616c4d616e6167657200000000000000000000000000000081600c815181106120e557fe5b6020026020010181815250506120fb82826140fc565b9250505090565b6000809054906101000a900473ffffffffffffffffffffffffffffffffffffffff1681565b6004818154811061213457fe5b906000526020600020016000915054906101000a900473ffffffffffffffffffffffffffffffffffffffff1681565b600061216e826141cf565b5080915050919050565b60006121838261424d565b9050919050565b600080612195612515565b935093915050565b6000806121a9836141cf565b91509150915091565b60006121bc612c5d565b905090565b6121c9612515565b6121d5828260006134b0565b5050565b60066020528060005260406000206000915090505481565b6000806121fc614538565b905060008173ffffffffffffffffffffffffffffffffffffffff16638b3f8088866040518263ffffffff1660e01b8152600401808273ffffffffffffffffffffffffffffffffffffffff1673ffffffffffffffffffffffffffffffffffffffff168152602001915050604080518083038186803b15801561227c57600080fd5b505afa158015612290573d6000803e3d6000fd5b505050506040513d60408110156122a657600080fd5b81019080805190602001909291908051906020019092919050505050905060008114156122d8576000925050506122ec565b6122e285856129e9565b9050508093505050505b92915050565b6000600480549050905090565b612307612515565b6123118383613347565b61231d838260006134b0565b505050565b600061232d82614568565b9050919050565b61233c612515565b612346838361380e565b612352838260006125a2565b505050565b600061236383836146a9565b508091505092915050565b612376612515565b61238381600060016134b0565b50565b6000612390614b4f565b73ffffffffffffffffffffffffffffffffffffffff1663c8e5bbd56123b56001613f3f565b6040518263ffffffff1660e01b81526004018080602001828103825283818151815260200191508051906020019060200280838360005b838110156124075780820151818401526020810190506123ec565b505050509050019250505060006040518083038186803b15801561242a57600080fd5b505afa15801561243e573d6000803e3d6000fd5b505050506040513d6000823e3d601f19601f82011682018060405250604081101561246857600080fd5b810190808051604051939291908464010000000082111561248857600080fd5b8382019150602082018581111561249e57600080fd5b82518660208202830111640100000000821117156124bb57600080fd5b8083526020830192505050908051906020019060200280838360005b838110156124f25780820151818401526020810190506124d7565b505050509050016040526020018051906020019092919050505090508091505090565b61251d614b7f565b73ffffffffffffffffffffffffffffffffffffffff163373ffffffffffffffffffffffffffffffffffffffff16146125a0576040517f08c379a00000000000000000000000000000000000000000000000000000000081526004018080602001828103825260398152602001806160c96039913960400191505060405180910390fd5b565b8061282d576125b083613319565b612622576040517f08c379a000000000000000000000000000000000000000000000000000000000815260040180806020018281038252601e8152602001807f4d696e696d756d207374616b652074696d65206e6f742072656163686564000081525060200191505060405180910390fd5b60008061262d614baf565b73ffffffffffffffffffffffffffffffffffffffff16631b16802c867f70555344000000000000000000000000000000000000000000000000000000006040518363ffffffff1660e01b8152600401808373ffffffffffffffffffffffffffffffffffffffff1673ffffffffffffffffffffffffffffffffffffffff16815260200182815260200192505050606060405180830381600087803b1580156126d357600080fd5b505af11580156126e7573d6000803e3d6000fd5b505050506040513d60608110156126fd57600080fd5b810190808051906020019092919080519060200190929190805190602001909291905050509250925050600081111561282a57612738614baf565b73ffffffffffffffffffffffffffffffffffffffff16634c268fc8867f705553440000000000000000000000000000000000000000000000000000000087866040518563ffffffff1660e01b8152600401808573ffffffffffffffffffffffffffffffffffffffff1673ffffffffffffffffffffffffffffffffffffffff16815260200184815260200183815260200182815260200194505050505060206040518083038186803b1580156127ec57600080fd5b505afa158015612800573d6000803e3d6000fd5b505050506040513d602081101561281657600080fd5b810190808051906020019092919050505093505b50505b600080600061285c867f70555344000000000000000000000000000000000000000000000000000000006129e9565b92509250925060008061286e88613e3c565b91509150612883838061287e5750815b614bdf565b600085116128f9576040517f08c379a00000000000000000000000000000000000000000000000000000000081526004018080602001828103825260128152602001807f4e6f206465627420746f20666f7267697665000000000000000000000000000081525060200191505060405180910390fd5b8515612915576129128286612d5b90919063ffffffff16565b96505b6000612924898a8a8989614c56565b90508261293a8288612d5b90919063ffffffff16565b116129de57612947614e91565b73ffffffffffffffffffffffffffffffffffffffff1663974e9e7f8a6040518263ffffffff1660e01b8152600401808273ffffffffffffffffffffffffffffffffffffffff1673ffffffffffffffffffffffffffffffffffffffff168152602001915050600060405180830381600087803b1580156129c557600080fd5b505af11580156129d9573d6000803e3d6000fd5b505050505b505050505050505050565b6000806000806129f7614538565b90506000808273ffffffffffffffffffffffffffffffffffffffff16638b3f8088896040518263ffffffff1660e01b8152600401808273ffffffffffffffffffffffffffffffffffffffff1673ffffffffffffffffffffffffffffffffffffffff168152602001915050604080518083038186803b158015612a7857600080fd5b505afa158015612a8c573d6000803e3d6000fd5b505050506040513d6040811015612aa257600080fd5b81019080805190602001909291908051906020019092919050505091509150612acc8760016146a9565b80955081965050506000821415612af25760008585829250955095509550505050612c56565b6000612c2483612c168673ffffffffffffffffffffffffffffffffffffffff166308d95cd5866040518263ffffffff1660e01b81526004018082815260200191505060206040518083038186803b158015612b4c57600080fd5b505afa158015612b60573d6000803e3d6000fd5b505050506040513d6020811015612b7657600080fd5b81019080805190602001909291905050508773ffffffffffffffffffffffffffffffffffffffff1663463177126040518163ffffffff1660e01b815260040160206040518083038186803b158015612bcd57600080fd5b505afa158015612be1573d6000803e3d6000fd5b505050506040513d6020811015612bf757600080fd5b8101908080519060200190929190505050614ec190919063ffffffff16565b614edd90919063ffffffff16565b90506000612c4382612c3589614ef9565b614edd90919063ffffffff16565b9050612c4e81614f1f565b975050505050505b9250925092565b6000612c67614f6e565b73ffffffffffffffffffffffffffffffffffffffff166323257c2b7f53797374656d53657474696e67730000000000000000000000000000000000007f69737375616e6365526174696f000000000000000000000000000000000000006040518363ffffffff1660e01b8152600401808381526020018281526020019250505060206040518083038186803b158015612cff57600080fd5b505afa158015612d13573d6000803e3d6000fd5b505050506040513d6020811015612d2957600080fd5b8101908080519060200190929190505050905090565b6000612d538383601260ff16600a0a614f9e565b905092915050565b600082821115612dd3576040517f08c379a000000000000000000000000000000000000000000000000000000000815260040180806020018281038252601e8152602001807f536166654d6174683a207375627472616374696f6e206f766572666c6f77000081525060200191505060405180910390fd5b600082840390508091505092915050565b6000809054906101000a900473ffffffffffffffffffffffffffffffffffffffff1673ffffffffffffffffffffffffffffffffffffffff163373ffffffffffffffffffffffffffffffffffffffff1614612e89576040517f08c379a000000000000000000000000000000000000000000000000000000000815260040180806020018281038252602f815260200180616079602f913960400191505060405180910390fd5b565b60008173ffffffffffffffffffffffffffffffffffffffff1663dbd06c856040518163ffffffff1660e01b815260040160206040518083038186803b158015612ed357600080fd5b505afa158015612ee7573d6000803e3d6000fd5b505050506040513d6020811015612efd57600080fd5b81019080805190602001909291905050509050600073ffffffffffffffffffffffffffffffffffffffff166005600083815260200190815260200160002060009054906101000a900473ffffffffffffffffffffffffffffffffffffffff1673ffffffffffffffffffffffffffffffffffffffff1614612fe5576040517f08c379a000000000000000000000000000000000000000000000000000000000815260040180806020018281038252600c8152602001807f50796e746820657869737473000000000000000000000000000000000000000081525060200191505060405180910390fd5b6000801b600660008473ffffffffffffffffffffffffffffffffffffffff1673ffffffffffffffffffffffffffffffffffffffff168152602001908152602001600020541461309c576040517f08c379a000000000000000000000000000000000000000000000000000000000815260040180806020018281038252601c8152602001807f50796e7468206164647265737320616c7265616479206578697374730000000081525060200191505060405180910390fd5b60048290806001815401808255809150509060018203906000526020600020016000909192909190916101000a81548173ffffffffffffffffffffffffffffffffffffffff021916908373ffffffffffffffffffffffffffffffffffffffff16021790555050816005600083815260200190815260200160002060006101000a81548173ffffffffffffffffffffffffffffffffffffffff021916908373ffffffffffffffffffffffffffffffffffffffff16021790555080600660008473ffffffffffffffffffffffffffffffffffffffff1673ffffffffffffffffffffffffffffffffffffffff168152602001908152602001600020819055507fe82414a85733a2b51473d0ab66a73f2af64f044531104dc04ca01db8c9c5f5cf8183604051808381526020018273ffffffffffffffffffffffffffffffffffffffff1673ffffffffffffffffffffffffffffffffffffffff1681526020019250505060405180910390a15050565b60006132327f4465627443616368650000000000000000000000000000000000000000000000614ff9565b905090565b6000613241614f6e565b73ffffffffffffffffffffffffffffffffffffffff166323257c2b7f53797374656d53657474696e67730000000000000000000000000000000000007f6d696e696d756d5374616b6554696d65000000000000000000000000000000006040518363ffffffff1660e01b8152600401808381526020018281526020019250505060206040518083038186803b1580156132d957600080fd5b505afa1580156132ed573d6000803e3d6000fd5b505050506040513d602081101561330357600080fd5b8101908080519060200190929190505050905090565b600061333d613326613237565b61332f84614568565b61515b90919063ffffffff16565b4210159050919050565b61334f6151e3565b73ffffffffffffffffffffffffffffffffffffffff16630487261783836040518363ffffffff1660e01b8152600401808373ffffffffffffffffffffffffffffffffffffffff1673ffffffffffffffffffffffffffffffffffffffff1681526020018273ffffffffffffffffffffffffffffffffffffffff1673ffffffffffffffffffffffffffffffffffffffff1681526020019250505060206040518083038186803b1580156133ff57600080fd5b505afa158015613413573d6000803e3d6000fd5b505050506040513d602081101561342957600080fd5b81019080805190602001909291905050506134ac576040517f08c379a000000000000000000000000000000000000000000000000000000000815260040180806020018281038252601d8152602001807f4e6f7420617070726f76656420746f20616374206f6e20626568616c6600000081525060200191505060405180910390fd5b5050565b6000806000806134bf87613785565b93509350935093506134d081614bdf565b84613550578386111561354b576040517f08c379a00000000000000000000000000000000000000000000000000000000081526004018080602001828103825260108152602001807f416d6f756e7420746f6f206c617267650000000000000000000000000000000081525060200191505060405180910390fd5b613554565b8395505b61356087878585615213565b61356987615696565b600560007f7055534400000000000000000000000000000000000000000000000000000000815260200190815260200160002060009054906101000a900473ffffffffffffffffffffffffffffffffffffffff1673ffffffffffffffffffffffffffffffffffffffff1663867904b488886040518363ffffffff1660e01b8152600401808373ffffffffffffffffffffffffffffffffffffffff1673ffffffffffffffffffffffffffffffffffffffff16815260200182815260200192505050600060405180830381600087803b15801561364357600080fd5b505af1158015613657573d6000803e3d6000fd5b50505050613663613207565b73ffffffffffffffffffffffffffffffffffffffff16638376a7827f705553440000000000000000000000000000000000000000000000000000000073__$b8d33eeb36ac0d1e81cd70156e0043e778$__63907af6c06040518163ffffffff1660e01b815260040160206040518083038186803b1580156136e357600080fd5b505af41580156136f7573d6000803e3d6000fd5b505050506040513d602081101561370d57600080fd5b81019080805190602001909291905050506040518363ffffffff1660e01b81526004018083815260200182815260200192505050600060405180830381600087803b15801561375b57600080fd5b505af115801561376f573d6000803e3d6000fd5b5050505061377c876157b8565b50505050505050565b6000806000806137b5857f70555344000000000000000000000000000000000000000000000000000000006129e9565b8093508194508295505050506000806137cd87613e3c565b9150915081955082806137dd5750805b92508585106137ef5760009550613805565b6138028587612d5b90919063ffffffff16565b95505b50509193509193565b6138166151e3565b73ffffffffffffffffffffffffffffffffffffffff16637d3f0ba283836040518363ffffffff1660e01b8152600401808373ffffffffffffffffffffffffffffffffffffffff1673ffffffffffffffffffffffffffffffffffffffff1681526020018273ffffffffffffffffffffffffffffffffffffffff1673ffffffffffffffffffffffffffffffffffffffff1681526020019250505060206040518083038186803b1580156138c657600080fd5b505afa1580156138da573d6000803e3d6000fd5b505050506040513d60208110156138f057600080fd5b8101908080519060200190929190505050613973576040517f08c379a000000000000000000000000000000000000000000000000000000000815260040180806020018281038252601d8152602001807f4e6f7420617070726f76656420746f20616374206f6e20626568616c6600000081525060200191505060405180910390fd5b5050565b60006005600083815260200190815260200160002060009054906101000a900473ffffffffffffffffffffffffffffffffffffffff169050600073ffffffffffffffffffffffffffffffffffffffff168173ffffffffffffffffffffffffffffffffffffffff161415613a52576040517f08c379a00000000000000000000000000000000000000000000000000000000081526004018080602001828103825260148152602001807f50796e746820646f6573206e6f7420657869737400000000000000000000000081525060200191505060405180910390fd5b60008173ffffffffffffffffffffffffffffffffffffffff166318160ddd6040518163ffffffff1660e01b815260040160206040518083038186803b158015613a9a57600080fd5b505afa158015613aae573d6000803e3d6000fd5b505050506040513d6020811015613ac457600080fd5b810190808051906020019092919050505014613b48576040517f08c379a00000000000000000000000000000000000000000000000000000000081526004018080602001828103825260138152602001807f50796e746820737570706c79206578697374730000000000000000000000000081525060200191505060405180910390fd5b7f7055534400000000000000000000000000000000000000000000000000000000821415613bde576040517f08c379a00000000000000000000000000000000000000000000000000000000081526004018080602001828103825260138152602001807f43616e6e6f742072656d6f76652070796e74680000000000000000000000000081525060200191505060405180910390fd5b60008090505b600480549050811015613d53578173ffffffffffffffffffffffffffffffffffffffff1660048281548110613c1557fe5b9060005260206000200160009054906101000a900473ffffffffffffffffffffffffffffffffffffffff1673ffffffffffffffffffffffffffffffffffffffff161415613d465760048181548110613c6957fe5b9060005260206000200160006101000a81549073ffffffffffffffffffffffffffffffffffffffff0219169055600460016004805490500381548110613cab57fe5b9060005260206000200160009054906101000a900473ffffffffffffffffffffffffffffffffffffffff1660048281548110613ce357fe5b9060005260206000200160006101000a81548173ffffffffffffffffffffffffffffffffffffffff021916908373ffffffffffffffffffffffffffffffffffffffff1602179055506004805480919060019003613d409190615ff2565b50613d53565b8080600101915050613be4565b50600660008273ffffffffffffffffffffffffffffffffffffffff1673ffffffffffffffffffffffffffffffffffffffff168152602001908152602001600020600090556005600083815260200190815260200160002060006101000a81549073ffffffffffffffffffffffffffffffffffffffff02191690557f1f2a4e9868db18b9d103e44efacb2690000d9d78bd600bf5f24757e13f0f891b8282604051808381526020018273ffffffffffffffffffffffffffffffffffffffff1673ffffffffffffffffffffffffffffffffffffffff1681526020019250505060405180910390a15050565b600080600080613e4a614b4f565b73ffffffffffffffffffffffffffffffffffffffff16630c71cd237f50455249000000000000000000000000000000000000000000000000000000006040518263ffffffff1660e01b815260040180828152602001915050604080518083038186803b158015613eb957600080fd5b505afa158015613ecd573d6000803e3d6000fd5b505050506040513d6040811015613ee357600080fd5b810190808051906020019092919080519060200190929190505050915091506000613f16613f108761424d565b8461593e565b9050613f32613f23612c5d565b8261595b90919063ffffffff16565b8294509450505050915091565b60608082613f4e576000613f51565b60015b60ff1660048054905001604051908082528060200260200182016040528015613f895781602001602082028038833980820191505090505b50905060008090505b60048054905081101561403b576006600060048381548110613fb057fe5b9060005260206000200160009054906101000a900473ffffffffffffffffffffffffffffffffffffffff1673ffffffffffffffffffffffffffffffffffffffff1673ffffffffffffffffffffffffffffffffffffffff1681526020019081526020016000205482828151811061402257fe5b6020026020010181815250508080600101915050613f92565b508215614081577f5045524900000000000000000000000000000000000000000000000000000000816004805490508151811061407457fe5b6020026020010181815250505b80915050919050565b606060016040519080825280602002602001820160405280156140bc5781602001602082028038833980820191505090505b5090507f466c657869626c6553746f726167650000000000000000000000000000000000816000815181106140ed57fe5b60200260200101818152505090565b606081518351016040519080825280602002602001820160405280156141315781602001602082028038833980820191505090505b50905060008090505b835181101561417c5783818151811061414f57fe5b602002602001015182828151811061416357fe5b602002602001018181525050808060010191505061413a565b5060008090505b82518110156141c85782818151811061419857fe5b60200260200101518282865101815181106141af57fe5b6020026020010181815250508080600101915050614183565b5092915050565b60008060006141dd8461424d565b905060008061420c867f50455249000000000000000000000000000000000000000000000000000000006129e9565b9250509150600083141561422c5760008181915094509450505050614248565b61423f8383612d3f90919063ffffffff16565b81945094505050505b915091565b600080614258614b7f565b73ffffffffffffffffffffffffffffffffffffffff166370a08231846040518263ffffffff1660e01b8152600401808273ffffffffffffffffffffffffffffffffffffffff1673ffffffffffffffffffffffffffffffffffffffff16815260200191505060206040518083038186803b1580156142d457600080fd5b505afa1580156142e8573d6000803e3d6000fd5b505050506040513d60208110156142fe57600080fd5b81019080805190602001909291905050509050600073ffffffffffffffffffffffffffffffffffffffff16614331615988565b73ffffffffffffffffffffffffffffffffffffffff16146144205761441d614357615988565b73ffffffffffffffffffffffffffffffffffffffff166370a08231856040518263ffffffff1660e01b8152600401808273ffffffffffffffffffffffffffffffffffffffff1673ffffffffffffffffffffffffffffffffffffffff16815260200191505060206040518083038186803b1580156143d357600080fd5b505afa1580156143e7573d6000803e3d6000fd5b505050506040513d60208110156143fd57600080fd5b81019080805190602001909291905050508261515b90919063ffffffff16565b90505b600073ffffffffffffffffffffffffffffffffffffffff166144406159b8565b73ffffffffffffffffffffffffffffffffffffffff161461452f5761452c6144666159b8565b73ffffffffffffffffffffffffffffffffffffffff166370a08231856040518263ffffffff1660e01b8152600401808273ffffffffffffffffffffffffffffffffffffffff1673ffffffffffffffffffffffffffffffffffffffff16815260200191505060206040518083038186803b1580156144e257600080fd5b505afa1580156144f6573d6000803e3d6000fd5b505050506040513d602081101561450c57600080fd5b81019080805190602001909291905050508261515b90919063ffffffff16565b90505b80915050919050565b60006145637f5065726946696e53746174650000000000000000000000000000000000000000614ff9565b905090565b6000614572614f6e565b73ffffffffffffffffffffffffffffffffffffffff166323257c2b7f49737375657200000000000000000000000000000000000000000000000000007f6c61737449737375654576656e7400000000000000000000000000000000000085604051602001808381526020018273ffffffffffffffffffffffffffffffffffffffff1673ffffffffffffffffffffffffffffffffffffffff1660601b815260140192505050604051602081830303815290604052805190602001206040518363ffffffff1660e01b8152600401808381526020018281526020019250505060206040518083038186803b15801561466757600080fd5b505afa15801561467b573d6000803e3d6000fd5b505050506040513d602081101561469157600080fd5b81019080805190602001909291905050509050919050565b60008060008060006146b9613207565b73ffffffffffffffffffffffffffffffffffffffff16633a900a2e6040518163ffffffff1660e01b815260040160806040518083038186803b1580156146fe57600080fd5b505afa158015614712573d6000803e3d6000fd5b505050506040513d608081101561472857600080fd5b81019080805190602001909291908051906020019092919080519060200190929190805190602001909291905050509350935050925081806147675750805b93506000614773614b4f565b905086614a4e576000806147856159e8565b73ffffffffffffffffffffffffffffffffffffffff16631e33fc6b6040518163ffffffff1660e01b8152600401604080518083038186803b1580156147c957600080fd5b505afa1580156147dd573d6000803e3d6000fd5b505050506040513d60408110156147f357600080fd5b81019080805190602001909291908051906020019092919050505091509150614825828761515b90919063ffffffff16565b955086806148305750805b96506148cc61483d615a18565b73ffffffffffffffffffffffffffffffffffffffff166357b219206040518163ffffffff1660e01b815260040160206040518083038186803b15801561488257600080fd5b505afa158015614896573d6000803e3d6000fd5b505050506040513d60208110156148ac57600080fd5b81019080805190602001909291905050508761515b90919063ffffffff16565b95506000808473ffffffffffffffffffffffffffffffffffffffff16630c71cd237f70455448000000000000000000000000000000000000000000000000000000006040518263ffffffff1660e01b815260040180828152602001915050604080518083038186803b15801561494157600080fd5b505afa158015614955573d6000803e3d6000fd5b505050506040513d604081101561496b57600080fd5b810190808051906020019092919080519060200190929190505050915091506000614a2683614998615a48565b73ffffffffffffffffffffffffffffffffffffffff166357b219206040518163ffffffff1660e01b815260040160206040518083038186803b1580156149dd57600080fd5b505afa1580156149f1573d6000803e3d6000fd5b505050506040513d6020811015614a0757600080fd5b8101908080519060200190929190505050615a7890919063ffffffff16565b9050614a3b818a61515b90919063ffffffff16565b98508980614a465750815b995050505050505b7f7055534400000000000000000000000000000000000000000000000000000000881415614a855783859550955050505050614b48565b6000808273ffffffffffffffffffffffffffffffffffffffff16630c71cd238b6040518263ffffffff1660e01b815260040180828152602001915050604080518083038186803b158015614ad857600080fd5b505afa158015614aec573d6000803e3d6000fd5b505050506040513d6040811015614b0257600080fd5b81019080805190602001909291908051906020019092919050505091509150614b348287612d3f90919063ffffffff16565b8780614b3d5750815b975097505050505050505b9250929050565b6000614b7a7f45786368616e6765526174657300000000000000000000000000000000000000614ff9565b905090565b6000614baa7f5065726946696e00000000000000000000000000000000000000000000000000614ff9565b905090565b6000614bda7f45786368616e6765720000000000000000000000000000000000000000000000614ff9565b905090565b8015614c53576040517f08c379a000000000000000000000000000000000000000000000000000000000815260040180806020018281038252601f8152602001807f412070796e7468206f722050455249207261746520697320696e76616c69640081525060200191505060405180910390fd5b50565b6000838310614c655783614c67565b825b9050614c7586828585615a94565b600560007f7055534400000000000000000000000000000000000000000000000000000000815260200190815260200160002060009054906101000a900473ffffffffffffffffffffffffffffffffffffffff1673ffffffffffffffffffffffffffffffffffffffff16639dc29fac86836040518363ffffffff1660e01b8152600401808373ffffffffffffffffffffffffffffffffffffffff1673ffffffffffffffffffffffffffffffffffffffff16815260200182815260200192505050600060405180830381600087803b158015614d4f57600080fd5b505af1158015614d63573d6000803e3d6000fd5b50505050614d6f613207565b73ffffffffffffffffffffffffffffffffffffffff16638376a7827f705553440000000000000000000000000000000000000000000000000000000073__$b8d33eeb36ac0d1e81cd70156e0043e778$__63907af6c06040518163ffffffff1660e01b815260040160206040518083038186803b158015614def57600080fd5b505af4158015614e03573d6000803e3d6000fd5b505050506040513d6020811015614e1957600080fd5b81019080805190602001909291905050506040518363ffffffff1660e01b81526004018083815260200182815260200192505050600060405180830381600087803b158015614e6757600080fd5b505af1158015614e7b573d6000803e3d6000fd5b50505050614e88866157b8565b95945050505050565b6000614ebc7f4c69717569646174696f6e730000000000000000000000000000000000000000614ff9565b905090565b6000614ed58383601b60ff16600a0a614f9e565b905092915050565b6000614ef18383601b60ff16600a0a615e54565b905092915050565b6000614f186012601b0360ff16600a0a83615ead90919063ffffffff16565b9050919050565b600080600a6012601b0360ff16600a0a81614f3657fe5b048381614f3f57fe5b0490506005600a8281614f4e57fe5b0610614f5b57600a810190505b600a8181614f6557fe5b04915050919050565b6000614f997f466c657869626c6553746f726167650000000000000000000000000000000000614ff9565b905090565b600080614fc984614fbb600a860288615ead90919063ffffffff16565b615f3390919063ffffffff16565b90506005600a8281614fd757fe5b0610614fe457600a810190505b600a8181614fee57fe5b049150509392505050565b6000806003600084815260200190815260200160002060009054906101000a900473ffffffffffffffffffffffffffffffffffffffff169050600073ffffffffffffffffffffffffffffffffffffffff168173ffffffffffffffffffffffffffffffffffffffff1614158360405160200180807f4d697373696e6720616464726573733a2000000000000000000000000000000081525060110182815260200191505060405160208183030381529060405290615151576040517f08c379a00000000000000000000000000000000000000000000000000000000081526004018080602001828103825283818151815260200191508051906020019080838360005b838110156151165780820151818401526020810190506150fb565b50505050905090810190601f1680156151435780820380516001836020036101000a031916815260200191505b509250505060405180910390fd5b5080915050919050565b6000808284019050838110156151d9576040517f08c379a000000000000000000000000000000000000000000000000000000000815260040180806020018281038252601b8152602001807f536166654d6174683a206164646974696f6e206f766572666c6f77000000000081525060200191505060405180910390fd5b8091505092915050565b600061520e7f44656c6567617465417070726f76616c73000000000000000000000000000000614ff9565b905090565b600061521d614538565b90506000615234838661515b90919063ffffffff16565b9050600061524b8287614ec190919063ffffffff16565b905060006152e08273__$b8d33eeb36ac0d1e81cd70156e0043e778$__63d5e5e6e66040518163ffffffff1660e01b815260040160206040518083038186803b15801561529757600080fd5b505af41580156152ab573d6000803e3d6000fd5b505050506040513d60208110156152c157600080fd5b8101908080519060200190929190505050612d5b90919063ffffffff16565b905060008611156153175761531083615302888a61515b90919063ffffffff16565b614ec190919063ffffffff16565b9150615378565b8373ffffffffffffffffffffffffffffffffffffffff16631bfba5956040518163ffffffff1660e01b8152600401600060405180830381600087803b15801561535f57600080fd5b505af1158015615373573d6000803e3d6000fd5b505050505b8373ffffffffffffffffffffffffffffffffffffffff1663a764eb4589846040518363ffffffff1660e01b8152600401808373ffffffffffffffffffffffffffffffffffffffff1673ffffffffffffffffffffffffffffffffffffffff16815260200182815260200192505050600060405180830381600087803b1580156153ff57600080fd5b505af1158015615413573d6000803e3d6000fd5b5050505060008473ffffffffffffffffffffffffffffffffffffffff1663cd92eba96040518163ffffffff1660e01b815260040160206040518083038186803b15801561545f57600080fd5b505afa158015615473573d6000803e3d6000fd5b505050506040513d602081101561548957600080fd5b810190808051906020019092919050505011156155a2578373ffffffffffffffffffffffffffffffffffffffff16633d31e97b61554f838773ffffffffffffffffffffffffffffffffffffffff1663463177126040518163ffffffff1660e01b815260040160206040518083038186803b15801561550657600080fd5b505afa15801561551a573d6000803e3d6000fd5b505050506040513d602081101561553057600080fd5b8101908080519060200190929190505050614edd90919063ffffffff16565b6040518263ffffffff1660e01b815260040180828152602001915050600060405180830381600087803b15801561558557600080fd5b505af1158015615599573d6000803e3d6000fd5b5050505061568c565b8373ffffffffffffffffffffffffffffffffffffffff16633d31e97b73__$b8d33eeb36ac0d1e81cd70156e0043e778$__63d5e5e6e66040518163ffffffff1660e01b815260040160206040518083038186803b15801561560257600080fd5b505af4158015615616573d6000803e3d6000fd5b505050506040513d602081101561562c57600080fd5b81019080805190602001909291905050506040518263ffffffff1660e01b815260040180828152602001915050600060405180830381600087803b15801561567357600080fd5b505af1158015615687573d6000803e3d6000fd5b505050505b5050505050505050565b61569e614f6e565b73ffffffffffffffffffffffffffffffffffffffff16631d5b277f7f49737375657200000000000000000000000000000000000000000000000000007f6c61737449737375654576656e7400000000000000000000000000000000000084604051602001808381526020018273ffffffffffffffffffffffffffffffffffffffff1673ffffffffffffffffffffffffffffffffffffffff1660601b81526014019250505060405160208183030381529060405280519060200120426040518463ffffffff1660e01b8152600401808481526020018381526020018281526020019350505050600060405180830381600087803b15801561579d57600080fd5b505af11580156157b1573d6000803e3d6000fd5b5050505050565b6000806157c3614538565b73ffffffffffffffffffffffffffffffffffffffff16638b3f8088846040518263ffffffff1660e01b8152600401808273ffffffffffffffffffffffffffffffffffffffff1673ffffffffffffffffffffffffffffffffffffffff168152602001915050604080518083038186803b15801561583e57600080fd5b505afa158015615852573d6000803e3d6000fd5b505050506040513d604081101561586857600080fd5b8101908080519060200190929190805190602001909291905050508092508193505050615893615fc2565b73ffffffffffffffffffffffffffffffffffffffff1663866452748484846040518463ffffffff1660e01b8152600401808473ffffffffffffffffffffffffffffffffffffffff1673ffffffffffffffffffffffffffffffffffffffff1681526020018381526020018281526020019350505050600060405180830381600087803b15801561592157600080fd5b505af1158015615935573d6000803e3d6000fd5b50505050505050565b60006159538284615a7890919063ffffffff16565b905092915050565b6000601260ff16600a0a6159788385615ead90919063ffffffff16565b8161597f57fe5b04905092915050565b60006159b37f5065726946696e457363726f7700000000000000000000000000000000000000614ff9565b905090565b60006159e37f526577617264457363726f775632000000000000000000000000000000000000614ff9565b905090565b6000615a137f436f6c6c61746572616c4d616e61676572000000000000000000000000000000614ff9565b905090565b6000615a437f4574686572436f6c6c61746572616c7055534400000000000000000000000000614ff9565b905090565b6000615a737f4574686572436f6c6c61746572616c0000000000000000000000000000000000614ff9565b905090565b6000615a8c8383601260ff16600a0a615e54565b905092915050565b6000615a9e614538565b90506000615ab58584612d5b90919063ffffffff16565b905060008090506000821115615b71576000615ada8388614ec190919063ffffffff16565b9050615b6d8173__$b8d33eeb36ac0d1e81cd70156e0043e778$__63d5e5e6e66040518163ffffffff1660e01b815260040160206040518083038186803b158015615b2457600080fd5b505af4158015615b38573d6000803e3d6000fd5b505050506040513d6020811015615b4e57600080fd5b810190808051906020019092919050505061515b90919063ffffffff16565b9150505b84861415615c7e578273ffffffffffffffffffffffffffffffffffffffff1663a764eb458860006040518363ffffffff1660e01b8152600401808373ffffffffffffffffffffffffffffffffffffffff1673ffffffffffffffffffffffffffffffffffffffff16815260200182815260200192505050600060405180830381600087803b158015615c0157600080fd5b505af1158015615c15573d6000803e3d6000fd5b505050508273ffffffffffffffffffffffffffffffffffffffff1663ba08f2996040518163ffffffff1660e01b8152600401600060405180830381600087803b158015615c6157600080fd5b505af1158015615c75573d6000803e3d6000fd5b50505050615d4e565b6000615c938787612d5b90919063ffffffff16565b90506000615caa8483614ec190919063ffffffff16565b90508473ffffffffffffffffffffffffffffffffffffffff1663a764eb458a836040518363ffffffff1660e01b8152600401808373ffffffffffffffffffffffffffffffffffffffff1673ffffffffffffffffffffffffffffffffffffffff16815260200182815260200192505050600060405180830381600087803b158015615d3357600080fd5b505af1158015615d47573d6000803e3d6000fd5b5050505050505b8273ffffffffffffffffffffffffffffffffffffffff16633d31e97b615dfd838673ffffffffffffffffffffffffffffffffffffffff1663463177126040518163ffffffff1660e01b815260040160206040518083038186803b158015615db457600080fd5b505afa158015615dc8573d6000803e3d6000fd5b505050506040513d6020811015615dde57600080fd5b8101908080519060200190929190505050614edd90919063ffffffff16565b6040518263ffffffff1660e01b815260040180828152602001915050600060405180830381600087803b158015615e3357600080fd5b505af1158015615e47573d6000803e3d6000fd5b5050505050505050505050565b600080600a8381615e6157fe5b04615e758587615ead90919063ffffffff16565b81615e7c57fe5b0490506005600a8281615e8b57fe5b0610615e9857600a810190505b600a8181615ea257fe5b049150509392505050565b600080831415615ec05760009050615f2d565b6000828402905082848281615ed157fe5b0414615f28576040517f08c379a00000000000000000000000000000000000000000000000000000000081526004018080602001828103825260218152602001806160a86021913960400191505060405180910390fd5b809150505b92915050565b6000808211615faa576040517f08c379a000000000000000000000000000000000000000000000000000000000815260040180806020018281038252601a8152602001807f536166654d6174683a206469766973696f6e206279207a65726f00000000000081525060200191505060405180910390fd5b6000828481615fb557fe5b0490508091505092915050565b6000615fed7f466565506f6f6c00000000000000000000000000000000000000000000000000614ff9565b905090565b81548183558181111561601957818360005260206000209182019101616018919061601e565b5b505050565b61604091905b8082111561603c576000816000905550600101616024565b5090565b9056fe596f75206d757374206265206e6f6d696e61746564206265666f726520796f752063616e20616363657074206f776e6572736869704f6e6c792074686520636f6e7472616374206f776e6572206d617920706572666f726d207468697320616374696f6e536166654d6174683a206d756c7469706c69636174696f6e206f766572666c6f774973737565723a204f6e6c7920746865207065726966696e20636f6e74726163742063616e20706572666f726d207468697320616374696f6ea265627a7a7231582017908c93068550db2d926d6df5f4577361f0aaf0fe9c8de1eb243d56f4b0d62d64736f6c63430005100032",
  "linkReferences": {
    "contracts/SafeDecimalMath.sol": {
      "SafeDecimalMath": [
        {
          "length": 20,
          "start": 14540
        },
        {
          "length": 20,
          "start": 20440
        },
        {
          "length": 20,
          "start": 21632
        },
        {
          "length": 20,
          "start": 22507
        },
        {
          "length": 20,
          "start": 23821
        }
      ]
    }
  },
  "deployedLinkReferences": {
    "contracts/SafeDecimalMath.sol": {
      "SafeDecimalMath": [
        {
          "length": 20,
          "start": 13985
        },
        {
          "length": 20,
          "start": 19885
        },
        {
          "length": 20,
          "start": 21077
        },
        {
          "length": 20,
          "start": 21952
        },
        {
          "length": 20,
          "start": 23266
        }
      ]
    }
  }
}