{
  "_format": "hh-sol-artifact-1",
  "contractName": "CollateralManagerState",
  "sourceName": "contracts/CollateralManagerState.sol",
  "abi": [
    {
      "inputs": [
        {
          "internalType": "address",
          "name": "_owner",
          "type": "address"
        },
        {
          "internalType": "address",
          "name": "_associatedContract",
          "type": "address"
        }
      ],
      "payable": false,
      "stateMutability": "nonpayable",
      "type": "constructor"
    },
    {
      "anonymous": false,
      "inputs": [
        {
          "indexed": false,
          "internalType": "address",
          "name": "associatedContract",
          "type": "address"
        }
      ],
      "name": "AssociatedContractUpdated",
      "type": "event"
    },
    {
      "anonymous": false,
      "inputs": [
        {
          "indexed": false,
          "internalType": "address",
          "name": "oldOwner",
          "type": "address"
        },
        {
          "indexed": false,
          "internalType": "address",
          "name": "newOwner",
          "type": "address"
        }
      ],
      "name": "OwnerChanged",
      "type": "event"
    },
    {
      "anonymous": false,
      "inputs": [
        {
          "indexed": false,
          "internalType": "address",
          "name": "newOwner",
          "type": "address"
        }
      ],
      "name": "OwnerNominated",
      "type": "event"
    },
    {
      "constant": false,
      "inputs": [],
      "name": "acceptOwnership",
      "outputs": [],
      "payable": false,
      "stateMutability": "nonpayable",
      "type": "function"
    },
    {
      "constant": false,
      "inputs": [
        {
          "internalType": "bytes32",
          "name": "currency",
          "type": "bytes32"
        }
      ],
      "name": "addShortCurrency",
      "outputs": [],
      "payable": false,
      "stateMutability": "nonpayable",
      "type": "function"
    },
    {
      "constant": true,
      "inputs": [],
      "name": "associatedContract",
      "outputs": [
        {
          "internalType": "address",
          "name": "",
          "type": "address"
        }
      ],
      "payable": false,
      "stateMutability": "view",
      "type": "function"
    },
    {
      "constant": true,
      "inputs": [
        {
          "internalType": "uint256",
          "name": "",
          "type": "uint256"
        }
      ],
      "name": "borrowRates",
      "outputs": [
        {
          "internalType": "uint256",
          "name": "",
          "type": "uint256"
        }
      ],
      "payable": false,
      "stateMutability": "view",
      "type": "function"
    },
    {
      "constant": true,
      "inputs": [],
      "name": "borrowRatesLastUpdated",
      "outputs": [
        {
          "internalType": "uint256",
          "name": "",
          "type": "uint256"
        }
      ],
      "payable": false,
      "stateMutability": "view",
      "type": "function"
    },
    {
      "constant": false,
      "inputs": [
        {
          "internalType": "bytes32",
          "name": "pynth",
          "type": "bytes32"
        },
        {
          "internalType": "uint256",
          "name": "amount",
          "type": "uint256"
        }
      ],
      "name": "decrementLongs",
      "outputs": [],
      "payable": false,
      "stateMutability": "nonpayable",
      "type": "function"
    },
    {
      "constant": false,
      "inputs": [
        {
          "internalType": "bytes32",
          "name": "pynth",
          "type": "bytes32"
        },
        {
          "internalType": "uint256",
          "name": "amount",
          "type": "uint256"
        }
      ],
      "name": "decrementShorts",
      "outputs": [],
      "payable": false,
      "stateMutability": "nonpayable",
      "type": "function"
    },
    {
      "constant": true,
      "inputs": [
        {
          "internalType": "uint256",
          "name": "index",
          "type": "uint256"
        }
      ],
      "name": "getRateAt",
      "outputs": [
        {
          "internalType": "uint256",
          "name": "",
          "type": "uint256"
        }
      ],
      "payable": false,
      "stateMutability": "view",
      "type": "function"
    },
    {
      "constant": true,
      "inputs": [
        {
          "internalType": "uint256",
          "name": "index",
          "type": "uint256"
        }
      ],
      "name": "getRatesAndTime",
      "outputs": [
        {
          "internalType": "uint256",
          "name": "entryRate",
          "type": "uint256"
        },
        {
          "internalType": "uint256",
          "name": "lastRate",
          "type": "uint256"
        },
        {
          "internalType": "uint256",
          "name": "lastUpdated",
          "type": "uint256"
        },
        {
          "internalType": "uint256",
          "name": "newIndex",
          "type": "uint256"
        }
      ],
      "payable": false,
      "stateMutability": "view",
      "type": "function"
    },
    {
      "constant": true,
      "inputs": [],
      "name": "getRatesLength",
      "outputs": [
        {
          "internalType": "uint256",
          "name": "",
          "type": "uint256"
        }
      ],
      "payable": false,
      "stateMutability": "view",
      "type": "function"
    },
    {
      "constant": true,
      "inputs": [
        {
          "internalType": "bytes32",
          "name": "currency",
          "type": "bytes32"
        },
        {
          "internalType": "uint256",
          "name": "index",
          "type": "uint256"
        }
      ],
      "name": "getShortRatesAndTime",
      "outputs": [
        {
          "internalType": "uint256",
          "name": "entryRate",
          "type": "uint256"
        },
        {
          "internalType": "uint256",
          "name": "lastRate",
          "type": "uint256"
        },
        {
          "internalType": "uint256",
          "name": "lastUpdated",
          "type": "uint256"
        },
        {
          "internalType": "uint256",
          "name": "newIndex",
          "type": "uint256"
        }
      ],
      "payable": false,
      "stateMutability": "view",
      "type": "function"
    },
    {
      "constant": true,
      "inputs": [
        {
          "internalType": "bytes32",
          "name": "currency",
          "type": "bytes32"
        }
      ],
      "name": "getShortRatesLength",
      "outputs": [
        {
          "internalType": "uint256",
          "name": "",
          "type": "uint256"
        }
      ],
      "payable": false,
      "stateMutability": "view",
      "type": "function"
    },
    {
      "constant": false,
      "inputs": [
        {
          "internalType": "bytes32",
          "name": "pynth",
          "type": "bytes32"
        },
        {
          "internalType": "uint256",
          "name": "amount",
          "type": "uint256"
        }
      ],
      "name": "incrementLongs",
      "outputs": [],
      "payable": false,
      "stateMutability": "nonpayable",
      "type": "function"
    },
    {
      "constant": false,
      "inputs": [
        {
          "internalType": "bytes32",
          "name": "pynth",
          "type": "bytes32"
        },
        {
          "internalType": "uint256",
          "name": "amount",
          "type": "uint256"
        }
      ],
      "name": "incrementShorts",
      "outputs": [],
      "payable": false,
      "stateMutability": "nonpayable",
      "type": "function"
    },
    {
      "constant": false,
      "inputs": [],
      "name": "incrementTotalLoans",
      "outputs": [
        {
          "internalType": "uint256",
          "name": "",
          "type": "uint256"
        }
      ],
      "payable": false,
      "stateMutability": "nonpayable",
      "type": "function"
    },
    {
      "constant": true,
      "inputs": [
        {
          "internalType": "bytes32",
          "name": "pynth",
          "type": "bytes32"
        }
      ],
      "name": "long",
      "outputs": [
        {
          "internalType": "uint256",
          "name": "",
          "type": "uint256"
        }
      ],
      "payable": false,
      "stateMutability": "view",
      "type": "function"
    },
    {
      "constant": false,
      "inputs": [
        {
          "internalType": "address",
          "name": "_owner",
          "type": "address"
        }
      ],
      "name": "nominateNewOwner",
      "outputs": [],
      "payable": false,
      "stateMutability": "nonpayable",
      "type": "function"
    },
    {
      "constant": true,
      "inputs": [],
      "name": "nominatedOwner",
      "outputs": [
        {
          "internalType": "address",
          "name": "",
          "type": "address"
        }
      ],
      "payable": false,
      "stateMutability": "view",
      "type": "function"
    },
    {
      "constant": true,
      "inputs": [],
      "name": "owner",
      "outputs": [
        {
          "internalType": "address",
          "name": "",
          "type": "address"
        }
      ],
      "payable": false,
      "stateMutability": "view",
      "type": "function"
    },
    {
      "constant": true,
      "inputs": [],
      "name": "ratesLastUpdated",
      "outputs": [
        {
          "internalType": "uint256",
          "name": "",
          "type": "uint256"
        }
      ],
      "payable": false,
      "stateMutability": "view",
      "type": "function"
    },
    {
      "constant": false,
      "inputs": [
        {
          "internalType": "bytes32",
          "name": "currency",
          "type": "bytes32"
        }
      ],
      "name": "removeShortCurrency",
      "outputs": [],
      "payable": false,
      "stateMutability": "nonpayable",
      "type": "function"
    },
    {
      "constant": false,
      "inputs": [
        {
          "internalType": "address",
          "name": "_associatedContract",
          "type": "address"
        }
      ],
      "name": "setAssociatedContract",
      "outputs": [],
      "payable": false,
      "stateMutability": "nonpayable",
      "type": "function"
    },
    {
      "constant": true,
      "inputs": [
        {
          "internalType": "bytes32",
          "name": "pynth",
          "type": "bytes32"
        }
      ],
      "name": "short",
      "outputs": [
        {
          "internalType": "uint256",
          "name": "",
          "type": "uint256"
        }
      ],
      "payable": false,
      "stateMutability": "view",
      "type": "function"
    },
    {
      "constant": true,
      "inputs": [
        {
          "internalType": "bytes32",
          "name": "",
          "type": "bytes32"
        },
        {
          "internalType": "uint256",
          "name": "",
          "type": "uint256"
        }
      ],
      "name": "shortRates",
      "outputs": [
        {
          "internalType": "uint256",
          "name": "",
          "type": "uint256"
        }
      ],
      "payable": false,
      "stateMutability": "view",
      "type": "function"
    },
    {
      "constant": true,
      "inputs": [
        {
          "internalType": "bytes32",
          "name": "",
          "type": "bytes32"
        }
      ],
      "name": "shortRatesLastUpdated",
      "outputs": [
        {
          "internalType": "uint256",
          "name": "",
          "type": "uint256"
        }
      ],
      "payable": false,
      "stateMutability": "view",
      "type": "function"
    },
    {
      "constant": true,
      "inputs": [
        {
          "internalType": "bytes32",
          "name": "",
          "type": "bytes32"
        }
      ],
      "name": "totalIssuedPynths",
      "outputs": [
        {
          "internalType": "uint256",
          "name": "long",
          "type": "uint256"
        },
        {
          "internalType": "uint256",
          "name": "short",
          "type": "uint256"
        }
      ],
      "payable": false,
      "stateMutability": "view",
      "type": "function"
    },
    {
      "constant": true,
      "inputs": [],
      "name": "totalLoans",
      "outputs": [
        {
          "internalType": "uint256",
          "name": "",
          "type": "uint256"
        }
      ],
      "payable": false,
      "stateMutability": "view",
      "type": "function"
    },
    {
      "constant": false,
      "inputs": [
        {
          "internalType": "uint256",
          "name": "rate",
          "type": "uint256"
        }
      ],
      "name": "updateBorrowRates",
      "outputs": [],
      "payable": false,
      "stateMutability": "nonpayable",
      "type": "function"
    },
    {
      "constant": false,
      "inputs": [
        {
          "internalType": "bytes32",
          "name": "currency",
          "type": "bytes32"
        },
        {
          "internalType": "uint256",
          "name": "rate",
          "type": "uint256"
        }
      ],
      "name": "updateShortRates",
      "outputs": [],
      "payable": false,
      "stateMutability": "nonpayable",
      "type": "function"
    }
  ],
  "bytecode": "0x60806040523480156200001157600080fd5b5060405162001ecf38038062001ecf83398181016040526200003791908101906200028b565b8082600073ffffffffffffffffffffffffffffffffffffffff168173ffffffffffffffffffffffffffffffffffffffff161415620000ac576040517f08c379a0000000000000000000000000000000000000000000000000000000008152600401620000a390620003de565b60405180910390fd5b806000806101000a81548173ffffffffffffffffffffffffffffffffffffffff021916908373ffffffffffffffffffffffffffffffffffffffff1602179055507fb532073b38c83145e3e5135377a08bf9aab55bc0fd7c1179cd4fb995d2a5159c600082604051620001209291906200038f565b60405180910390a150600073ffffffffffffffffffffffffffffffffffffffff166000809054906101000a900473ffffffffffffffffffffffffffffffffffffffff1673ffffffffffffffffffffffffffffffffffffffff161415620001bd576040517f08c379a0000000000000000000000000000000000000000000000000000000008152600401620001b490620003bc565b60405180910390fd5b80600260006101000a81548173ffffffffffffffffffffffffffffffffffffffff021916908373ffffffffffffffffffffffffffffffffffffffff1602179055507f73f20cff579e8a4086fa607db83867595f1b6a798e718c0bfa0b94a404128e03816040516200022f919062000372565b60405180910390a1506004600090806001815401808255809150509060018203906000526020600020016000909192909190915055504260058190555050506200049b565b600081519050620002858162000481565b92915050565b600080604083850312156200029f57600080fd5b6000620002af8582860162000274565b9250506020620002c28582860162000274565b9150509250929050565b620002d78162000445565b82525050565b620002e88162000411565b82525050565b6000620002fd60118362000400565b91507f4f776e6572206d757374206265207365740000000000000000000000000000006000830152602082019050919050565b60006200033f60198362000400565b91507f4f776e657220616464726573732063616e6e6f742062652030000000000000006000830152602082019050919050565b6000602082019050620003896000830184620002dd565b92915050565b6000604082019050620003a66000830185620002cc565b620003b56020830184620002dd565b9392505050565b60006020820190508181036000830152620003d781620002ee565b9050919050565b60006020820190508181036000830152620003f98162000330565b9050919050565b600082825260208201905092915050565b60006200041e8262000425565b9050919050565b600073ffffffffffffffffffffffffffffffffffffffff82169050919050565b6000620004528262000459565b9050919050565b600062000466826200046d565b9050919050565b60006200047a8262000425565b9050919050565b6200048c8162000411565b81146200049857600080fd5b50565b611a2480620004ab6000396000f3fe608060405234801561001057600080fd5b50600436106101cf5760003560e01c80638da5cb5b11610104578063d2f00475116100a2578063e50a31b311610071578063e50a31b31461055d578063eb94bbde14610579578063ed03915414610595578063f53037b6146105b1576101cf565b8063d2f00475146104b0578063d3a71202146104e0578063e31f27c114610511578063e32261fe1461052d576101cf565b8063aefc4ccb116100de578063aefc4ccb14610411578063af07aa9d1461042f578063b52e0dc814610462578063cc952b5714610492576101cf565b80638da5cb5b14610393578063a0356f6e146103b1578063a29fe7b8146103e1576101cf565b806352f445ca116101715780636431e0bd1161014b5780636431e0bd14610331578063781dc0e21461034d57806379ba50971461036b5780638c58250314610375576101cf565b806352f445ca146102c757806353a47bb7146102e35780635537479914610301576101cf565b806322e07b7a116101ad57806322e07b7a146102535780632462063914610271578063381c5cb51461028d5780635246f2b9146102ab576101cf565b806303f048b0146101d45780631627540c14610207578063173fcb4114610223575b600080fd5b6101ee60048036036101e991908101906115df565b6105cd565b6040516101fe9493929190611900565b60405180910390f35b610221600480360361021c9190810190611551565b610607565b005b61023d600480360361023891908101906115a3565b61068a565b60405161024a91906118bc565b60405180910390f35b61025b6106b8565b60405161026891906118bc565b60405180910390f35b61028b600480360361028691908101906115a3565b6106be565b005b6102956107a7565b6040516102a291906118bc565b60405180910390f35b6102c560048036036102c091908101906115a3565b6107b4565b005b6102e160048036036102dc9190810190611551565b61088b565b005b6102eb61090e565b6040516102f891906117d8565b60405180910390f35b61031b6004803603610316919081019061157a565b610934565b60405161032891906118bc565b60405180910390f35b61034b6004803603610346919081019061157a565b61094c565b005b6103556109fe565b60405161036291906118bc565b60405180910390f35b610373610a08565b005b61037d610bba565b60405161038a91906118bc565b60405180910390f35b61039b610c70565b6040516103a891906117d8565b60405180910390f35b6103cb60048036036103c6919081019061157a565b610c95565b6040516103d891906118bc565b60405180910390f35b6103fb60048036036103f691908101906115df565b610cb5565b60405161040891906118bc565b60405180910390f35b610419610cd6565b60405161042691906117d8565b60405180910390f35b610449600480360361044491908101906115a3565b610cfc565b6040516104599493929190611900565b60405180910390f35b61047c600480360361047791908101906115df565b610d3c565b60405161048991906118bc565b60405180910390f35b61049a610d5d565b6040516104a791906118bc565b60405180910390f35b6104ca60048036036104c5919081019061157a565b610d63565b6040516104d791906118bc565b60405180910390f35b6104fa60048036036104f5919081019061157a565b610e13565b6040516105089291906118d7565b60405180910390f35b61052b600480360361052691908101906115a3565b610e37565b005b6105476004803603610542919081019061157a565b610f0e565b60405161055491906118bc565b60405180910390f35b610577600480360361057291908101906115a3565b610fbe565b005b610593600480360361058e91908101906115a3565b611095565b005b6105af60048036036105aa919081019061157a565b61116c565b005b6105cb60048036036105c691908101906115df565b61127a565b005b6000806000806105db6107a7565b90506105e685610d3c565b93506105f460018203610d3c565b92506105fe6109fe565b91509193509193565b61060f611340565b80600160006101000a81548173ffffffffffffffffffffffffffffffffffffffff021916908373ffffffffffffffffffffffffffffffffffffffff1602179055507f906a1c6bd7e3091ea86693dd029a831c19049ce77f1dce2ce0bab1cacbabce228160405161067f91906117d8565b60405180910390a150565b600660205281600052604060002081815481106106a357fe5b90600052602060002001600091509150505481565b60055481565b600260009054906101000a900473ffffffffffffffffffffffffffffffffffffffff1673ffffffffffffffffffffffffffffffffffffffff163373ffffffffffffffffffffffffffffffffffffffff161461074e576040517f08c379a00000000000000000000000000000000000000000000000000000000081526004016107459061189c565b60405180910390fd5b600660008381526020019081526020016000208190806001815401808255809150509060018203906000526020600020016000909192909190915055504260076000848152602001908152602001600020819055505050565b6000600480549050905090565b600260009054906101000a900473ffffffffffffffffffffffffffffffffffffffff1673ffffffffffffffffffffffffffffffffffffffff163373ffffffffffffffffffffffffffffffffffffffff1614610844576040517f08c379a000000000000000000000000000000000000000000000000000000000815260040161083b9061189c565b60405180910390fd5b61086d8160086000858152602001908152602001600020600101546113d190919063ffffffff16565b60086000848152602001908152602001600020600101819055505050565b610893611340565b80600260006101000a81548173ffffffffffffffffffffffffffffffffffffffff021916908373ffffffffffffffffffffffffffffffffffffffff1602179055507f73f20cff579e8a4086fa607db83867595f1b6a798e718c0bfa0b94a404128e038160405161090391906117d8565b60405180910390a150565b600160009054906101000a900473ffffffffffffffffffffffffffffffffffffffff1681565b60076020528060005260406000206000915090505481565b600260009054906101000a900473ffffffffffffffffffffffffffffffffffffffff1673ffffffffffffffffffffffffffffffffffffffff163373ffffffffffffffffffffffffffffffffffffffff16146109dc576040517f08c379a00000000000000000000000000000000000000000000000000000000081526004016109d39061189c565b60405180910390fd5b6006600082815260200190815260200160002060006109fb91906114cc565b50565b6000600554905090565b600160009054906101000a900473ffffffffffffffffffffffffffffffffffffffff1673ffffffffffffffffffffffffffffffffffffffff163373ffffffffffffffffffffffffffffffffffffffff1614610a98576040517f08c379a0000000000000000000000000000000000000000000000000000000008152600401610a8f9061181c565b60405180910390fd5b7fb532073b38c83145e3e5135377a08bf9aab55bc0fd7c1179cd4fb995d2a5159c6000809054906101000a900473ffffffffffffffffffffffffffffffffffffffff16600160009054906101000a900473ffffffffffffffffffffffffffffffffffffffff16604051610b0c9291906117f3565b60405180910390a1600160009054906101000a900473ffffffffffffffffffffffffffffffffffffffff166000806101000a81548173ffffffffffffffffffffffffffffffffffffffff021916908373ffffffffffffffffffffffffffffffffffffffff1602179055506000600160006101000a81548173ffffffffffffffffffffffffffffffffffffffff021916908373ffffffffffffffffffffffffffffffffffffffff160217905550565b6000600260009054906101000a900473ffffffffffffffffffffffffffffffffffffffff1673ffffffffffffffffffffffffffffffffffffffff163373ffffffffffffffffffffffffffffffffffffffff1614610c4c576040517f08c379a0000000000000000000000000000000000000000000000000000000008152600401610c439061189c565b60405180910390fd5b610c62600160035461142790919063ffffffff16565b600381905550600354905090565b6000809054906101000a900473ffffffffffffffffffffffffffffffffffffffff1681565b600060066000838152602001908152602001600020805490509050919050565b60048181548110610cc257fe5b906000526020600020016000915090505481565b600260009054906101000a900473ffffffffffffffffffffffffffffffffffffffff1681565b600080600080610d0b86610c95565b9050610d17868661147c565b9350610d26866001830361147c565b9250610d31866114af565b915092959194509250565b600060048281548110610d4b57fe5b90600052602060002001549050919050565b60035481565b6000600260009054906101000a900473ffffffffffffffffffffffffffffffffffffffff1673ffffffffffffffffffffffffffffffffffffffff163373ffffffffffffffffffffffffffffffffffffffff1614610df5576040517f08c379a0000000000000000000000000000000000000000000000000000000008152600401610dec9061189c565b60405180910390fd5b60086000838152602001908152602001600020600001549050919050565b60086020528060005260406000206000915090508060000154908060010154905082565b600260009054906101000a900473ffffffffffffffffffffffffffffffffffffffff1673ffffffffffffffffffffffffffffffffffffffff163373ffffffffffffffffffffffffffffffffffffffff1614610ec7576040517f08c379a0000000000000000000000000000000000000000000000000000000008152600401610ebe9061189c565b60405180910390fd5b610ef081600860008581526020019081526020016000206001015461142790919063ffffffff16565b60086000848152602001908152602001600020600101819055505050565b6000600260009054906101000a900473ffffffffffffffffffffffffffffffffffffffff1673ffffffffffffffffffffffffffffffffffffffff163373ffffffffffffffffffffffffffffffffffffffff1614610fa0576040517f08c379a0000000000000000000000000000000000000000000000000000000008152600401610f979061189c565b60405180910390fd5b60086000838152602001908152602001600020600101549050919050565b600260009054906101000a900473ffffffffffffffffffffffffffffffffffffffff1673ffffffffffffffffffffffffffffffffffffffff163373ffffffffffffffffffffffffffffffffffffffff161461104e576040517f08c379a00000000000000000000000000000000000000000000000000000000081526004016110459061189c565b60405180910390fd5b6110778160086000858152602001908152602001600020600001546113d190919063ffffffff16565b60086000848152602001908152602001600020600001819055505050565b600260009054906101000a900473ffffffffffffffffffffffffffffffffffffffff1673ffffffffffffffffffffffffffffffffffffffff163373ffffffffffffffffffffffffffffffffffffffff1614611125576040517f08c379a000000000000000000000000000000000000000000000000000000000815260040161111c9061189c565b60405180910390fd5b61114e81600860008581526020019081526020016000206000015461142790919063ffffffff16565b60086000848152602001908152602001600020600001819055505050565b600260009054906101000a900473ffffffffffffffffffffffffffffffffffffffff1673ffffffffffffffffffffffffffffffffffffffff163373ffffffffffffffffffffffffffffffffffffffff16146111fc576040517f08c379a00000000000000000000000000000000000000000000000000000000081526004016111f39061189c565b60405180910390fd5b60006006600083815260200190815260200160002080549050111561122057611277565b60066000828152602001908152602001600020600090806001815401808255809150509060018203906000526020600020016000909192909190915055504260076000838152602001908152602001600020819055505b50565b600260009054906101000a900473ffffffffffffffffffffffffffffffffffffffff1673ffffffffffffffffffffffffffffffffffffffff163373ffffffffffffffffffffffffffffffffffffffff161461130a576040517f08c379a00000000000000000000000000000000000000000000000000000000081526004016113019061189c565b60405180910390fd5b60048190806001815401808255809150509060018203906000526020600020016000909192909190915055504260058190555050565b6000809054906101000a900473ffffffffffffffffffffffffffffffffffffffff1673ffffffffffffffffffffffffffffffffffffffff163373ffffffffffffffffffffffffffffffffffffffff16146113cf576040517f08c379a00000000000000000000000000000000000000000000000000000000081526004016113c69061187c565b60405180910390fd5b565b600082821115611416576040517f08c379a000000000000000000000000000000000000000000000000000000000815260040161140d9061185c565b60405180910390fd5b600082840390508091505092915050565b600080828401905083811015611472576040517f08c379a00000000000000000000000000000000000000000000000000000000081526004016114699061183c565b60405180910390fd5b8091505092915050565b600060066000848152602001908152602001600020828154811061149c57fe5b9060005260206000200154905092915050565b600060076000838152602001908152602001600020549050919050565b50805460008255906000526020600020908101906114ea91906114ed565b50565b61150f91905b8082111561150b5760008160009055506001016114f3565b5090565b90565b6000813590506115218161199c565b92915050565b600081359050611536816119b3565b92915050565b60008135905061154b816119ca565b92915050565b60006020828403121561156357600080fd5b600061157184828501611512565b91505092915050565b60006020828403121561158c57600080fd5b600061159a84828501611527565b91505092915050565b600080604083850312156115b657600080fd5b60006115c485828601611527565b92505060206115d58582860161153c565b9150509250929050565b6000602082840312156115f157600080fd5b60006115ff8482850161153c565b91505092915050565b61161181611956565b82525050565b6000611624603583611945565b91507f596f75206d757374206265206e6f6d696e61746564206265666f726520796f7560008301527f2063616e20616363657074206f776e65727368697000000000000000000000006020830152604082019050919050565b600061168a601b83611945565b91507f536166654d6174683a206164646974696f6e206f766572666c6f7700000000006000830152602082019050919050565b60006116ca601e83611945565b91507f536166654d6174683a207375627472616374696f6e206f766572666c6f7700006000830152602082019050919050565b600061170a602f83611945565b91507f4f6e6c792074686520636f6e7472616374206f776e6572206d6179207065726660008301527f6f726d207468697320616374696f6e00000000000000000000000000000000006020830152604082019050919050565b6000611770603483611945565b91507f4f6e6c7920746865206173736f63696174656420636f6e74726163742063616e60008301527f20706572666f726d207468697320616374696f6e0000000000000000000000006020830152604082019050919050565b6117d281611992565b82525050565b60006020820190506117ed6000830184611608565b92915050565b60006040820190506118086000830185611608565b6118156020830184611608565b9392505050565b6000602082019050818103600083015261183581611617565b9050919050565b600060208201905081810360008301526118558161167d565b9050919050565b60006020820190508181036000830152611875816116bd565b9050919050565b60006020820190508181036000830152611895816116fd565b9050919050565b600060208201905081810360008301526118b581611763565b9050919050565b60006020820190506118d160008301846117c9565b92915050565b60006040820190506118ec60008301856117c9565b6118f960208301846117c9565b9392505050565b600060808201905061191560008301876117c9565b61192260208301866117c9565b61192f60408301856117c9565b61193c60608301846117c9565b95945050505050565b600082825260208201905092915050565b600061196182611972565b9050919050565b6000819050919050565b600073ffffffffffffffffffffffffffffffffffffffff82169050919050565b6000819050919050565b6119a581611956565b81146119b057600080fd5b50565b6119bc81611968565b81146119c757600080fd5b50565b6119d381611992565b81146119de57600080fd5b5056fea365627a7a72315820fc6809890d16880bffc6c5f38983c62a1fdee0ef35bfbf7f9442110674f9c2206c6578706572696d656e74616cf564736f6c63430005100040",
  "linkReferences": {},
  "deployedLinkReferences": {}
}