{
  "_format": "hh-sol-artifact-1",
  "contractName": "Depot",
  "sourceName": "contracts/Depot.sol",
  "abi": [
    {
      "inputs": [
        {
          "internalType": "address",
          "name": "_owner",
          "type": "address"
        },
        {
          "internalType": "address payable",
          "name": "_fundsWallet",
          "type": "address"
        },
        {
          "internalType": "address",
          "name": "_resolver",
          "type": "address"
        }
      ],
      "payable": false,
      "stateMutability": "nonpayable",
      "type": "constructor"
    },
    {
      "anonymous": false,
      "inputs": [
        {
          "indexed": false,
          "internalType": "bytes32",
          "name": "name",
          "type": "bytes32"
        },
        {
          "indexed": false,
          "internalType": "address",
          "name": "destination",
          "type": "address"
        }
      ],
      "name": "CacheUpdated",
      "type": "event"
    },
    {
      "anonymous": false,
      "inputs": [
        {
          "indexed": true,
          "internalType": "address",
          "name": "fromAddress",
          "type": "address"
        },
        {
          "indexed": true,
          "internalType": "address",
          "name": "toAddress",
          "type": "address"
        },
        {
          "indexed": false,
          "internalType": "uint256",
          "name": "fromETHAmount",
          "type": "uint256"
        },
        {
          "indexed": false,
          "internalType": "uint256",
          "name": "toAmount",
          "type": "uint256"
        },
        {
          "indexed": true,
          "internalType": "uint256",
          "name": "depositIndex",
          "type": "uint256"
        }
      ],
      "name": "ClearedDeposit",
      "type": "event"
    },
    {
      "anonymous": false,
      "inputs": [
        {
          "indexed": false,
          "internalType": "string",
          "name": "fromCurrency",
          "type": "string"
        },
        {
          "indexed": false,
          "internalType": "uint256",
          "name": "fromAmount",
          "type": "uint256"
        },
        {
          "indexed": false,
          "internalType": "string",
          "name": "toCurrency",
          "type": "string"
        },
        {
          "indexed": false,
          "internalType": "uint256",
          "name": "toAmount",
          "type": "uint256"
        }
      ],
      "name": "Exchange",
      "type": "event"
    },
    {
      "anonymous": false,
      "inputs": [
        {
          "indexed": false,
          "internalType": "address",
          "name": "newFundsWallet",
          "type": "address"
        }
      ],
      "name": "FundsWalletUpdated",
      "type": "event"
    },
    {
      "anonymous": false,
      "inputs": [
        {
          "indexed": false,
          "internalType": "uint256",
          "name": "amount",
          "type": "uint256"
        }
      ],
      "name": "MaxEthPurchaseUpdated",
      "type": "event"
    },
    {
      "anonymous": false,
      "inputs": [
        {
          "indexed": false,
          "internalType": "uint256",
          "name": "amount",
          "type": "uint256"
        }
      ],
      "name": "MinimumDepositAmountUpdated",
      "type": "event"
    },
    {
      "anonymous": false,
      "inputs": [
        {
          "indexed": true,
          "internalType": "address",
          "name": "receiver",
          "type": "address"
        },
        {
          "indexed": false,
          "internalType": "uint256",
          "name": "amount",
          "type": "uint256"
        }
      ],
      "name": "NonPayableContract",
      "type": "event"
    },
    {
      "anonymous": false,
      "inputs": [
        {
          "indexed": false,
          "internalType": "address",
          "name": "oldOwner",
          "type": "address"
        },
        {
          "indexed": false,
          "internalType": "address",
          "name": "newOwner",
          "type": "address"
        }
      ],
      "name": "OwnerChanged",
      "type": "event"
    },
    {
      "anonymous": false,
      "inputs": [
        {
          "indexed": false,
          "internalType": "address",
          "name": "newOwner",
          "type": "address"
        }
      ],
      "name": "OwnerNominated",
      "type": "event"
    },
    {
      "anonymous": false,
      "inputs": [
        {
          "indexed": false,
          "internalType": "bool",
          "name": "isPaused",
          "type": "bool"
        }
      ],
      "name": "PauseChanged",
      "type": "event"
    },
    {
      "anonymous": false,
      "inputs": [
        {
          "indexed": true,
          "internalType": "address",
          "name": "user",
          "type": "address"
        },
        {
          "indexed": false,
          "internalType": "uint256",
          "name": "amount",
          "type": "uint256"
        },
        {
          "indexed": true,
          "internalType": "uint256",
          "name": "depositIndex",
          "type": "uint256"
        }
      ],
      "name": "PynthDeposit",
      "type": "event"
    },
    {
      "anonymous": false,
      "inputs": [
        {
          "indexed": false,
          "internalType": "address",
          "name": "user",
          "type": "address"
        },
        {
          "indexed": false,
          "internalType": "uint256",
          "name": "amount",
          "type": "uint256"
        },
        {
          "indexed": false,
          "internalType": "uint256",
          "name": "minimum",
          "type": "uint256"
        }
      ],
      "name": "PynthDepositNotAccepted",
      "type": "event"
    },
    {
      "anonymous": false,
      "inputs": [
        {
          "indexed": true,
          "internalType": "address",
          "name": "user",
          "type": "address"
        },
        {
          "indexed": false,
          "internalType": "uint256",
          "name": "amount",
          "type": "uint256"
        },
        {
          "indexed": true,
          "internalType": "uint256",
          "name": "depositIndex",
          "type": "uint256"
        }
      ],
      "name": "PynthDepositRemoved",
      "type": "event"
    },
    {
      "anonymous": false,
      "inputs": [
        {
          "indexed": false,
          "internalType": "address",
          "name": "user",
          "type": "address"
        },
        {
          "indexed": false,
          "internalType": "uint256",
          "name": "amount",
          "type": "uint256"
        }
      ],
      "name": "PynthWithdrawal",
      "type": "event"
    },
    {
      "payable": true,
      "stateMutability": "payable",
      "type": "fallback"
    },
    {
      "constant": false,
      "inputs": [],
      "name": "acceptOwnership",
      "outputs": [],
      "payable": false,
      "stateMutability": "nonpayable",
      "type": "function"
    },
    {
      "constant": true,
      "inputs": [],
      "name": "depositEndIndex",
      "outputs": [
        {
          "internalType": "uint256",
          "name": "",
          "type": "uint256"
        }
      ],
      "payable": false,
      "stateMutability": "view",
      "type": "function"
    },
    {
      "constant": false,
      "inputs": [
        {
          "internalType": "uint256",
          "name": "amount",
          "type": "uint256"
        }
      ],
      "name": "depositPynths",
      "outputs": [],
      "payable": false,
      "stateMutability": "nonpayable",
      "type": "function"
    },
    {
      "constant": true,
      "inputs": [],
      "name": "depositStartIndex",
      "outputs": [
        {
          "internalType": "uint256",
          "name": "",
          "type": "uint256"
        }
      ],
      "payable": false,
      "stateMutability": "view",
      "type": "function"
    },
    {
      "constant": true,
      "inputs": [
        {
          "internalType": "uint256",
          "name": "",
          "type": "uint256"
        }
      ],
      "name": "deposits",
      "outputs": [
        {
          "internalType": "address payable",
          "name": "user",
          "type": "address"
        },
        {
          "internalType": "uint256",
          "name": "amount",
          "type": "uint256"
        }
      ],
      "payable": false,
      "stateMutability": "view",
      "type": "function"
    },
    {
      "constant": false,
      "inputs": [],
      "name": "exchangeEtherForPERI",
      "outputs": [
        {
          "internalType": "uint256",
          "name": "",
          "type": "uint256"
        }
      ],
      "payable": true,
      "stateMutability": "payable",
      "type": "function"
    },
    {
      "constant": false,
      "inputs": [
        {
          "internalType": "uint256",
          "name": "guaranteedEtherRate",
          "type": "uint256"
        },
        {
          "internalType": "uint256",
          "name": "guaranteedPeriFinRate",
          "type": "uint256"
        }
      ],
      "name": "exchangeEtherForPERIAtRate",
      "outputs": [
        {
          "internalType": "uint256",
          "name": "",
          "type": "uint256"
        }
      ],
      "payable": true,
      "stateMutability": "payable",
      "type": "function"
    },
    {
      "constant": false,
      "inputs": [],
      "name": "exchangeEtherForPynths",
      "outputs": [
        {
          "internalType": "uint256",
          "name": "",
          "type": "uint256"
        }
      ],
      "payable": true,
      "stateMutability": "payable",
      "type": "function"
    },
    {
      "constant": false,
      "inputs": [
        {
          "internalType": "uint256",
          "name": "guaranteedRate",
          "type": "uint256"
        }
      ],
      "name": "exchangeEtherForPynthsAtRate",
      "outputs": [
        {
          "internalType": "uint256",
          "name": "",
          "type": "uint256"
        }
      ],
      "payable": true,
      "stateMutability": "payable",
      "type": "function"
    },
    {
      "constant": false,
      "inputs": [
        {
          "internalType": "uint256",
          "name": "pynthAmount",
          "type": "uint256"
        }
      ],
      "name": "exchangePynthsForPERI",
      "outputs": [
        {
          "internalType": "uint256",
          "name": "",
          "type": "uint256"
        }
      ],
      "payable": false,
      "stateMutability": "nonpayable",
      "type": "function"
    },
    {
      "constant": false,
      "inputs": [
        {
          "internalType": "uint256",
          "name": "pynthAmount",
          "type": "uint256"
        },
        {
          "internalType": "uint256",
          "name": "guaranteedRate",
          "type": "uint256"
        }
      ],
      "name": "exchangePynthsForPERIAtRate",
      "outputs": [
        {
          "internalType": "uint256",
          "name": "",
          "type": "uint256"
        }
      ],
      "payable": false,
      "stateMutability": "nonpayable",
      "type": "function"
    },
    {
      "constant": true,
      "inputs": [],
      "name": "fundsWallet",
      "outputs": [
        {
          "internalType": "address payable",
          "name": "",
          "type": "address"
        }
      ],
      "payable": false,
      "stateMutability": "view",
      "type": "function"
    },
    {
      "constant": true,
      "inputs": [],
      "name": "isResolverCached",
      "outputs": [
        {
          "internalType": "bool",
          "name": "",
          "type": "bool"
        }
      ],
      "payable": false,
      "stateMutability": "view",
      "type": "function"
    },
    {
      "constant": true,
      "inputs": [],
      "name": "lastPauseTime",
      "outputs": [
        {
          "internalType": "uint256",
          "name": "",
          "type": "uint256"
        }
      ],
      "payable": false,
      "stateMutability": "view",
      "type": "function"
    },
    {
      "constant": true,
      "inputs": [],
      "name": "maxEthPurchase",
      "outputs": [
        {
          "internalType": "uint256",
          "name": "",
          "type": "uint256"
        }
      ],
      "payable": false,
      "stateMutability": "view",
      "type": "function"
    },
    {
      "constant": true,
      "inputs": [],
      "name": "minimumDepositAmount",
      "outputs": [
        {
          "internalType": "uint256",
          "name": "",
          "type": "uint256"
        }
      ],
      "payable": false,
      "stateMutability": "view",
      "type": "function"
    },
    {
      "constant": false,
      "inputs": [
        {
          "internalType": "address",
          "name": "_owner",
          "type": "address"
        }
      ],
      "name": "nominateNewOwner",
      "outputs": [],
      "payable": false,
      "stateMutability": "nonpayable",
      "type": "function"
    },
    {
      "constant": true,
      "inputs": [],
      "name": "nominatedOwner",
      "outputs": [
        {
          "internalType": "address",
          "name": "",
          "type": "address"
        }
      ],
      "payable": false,
      "stateMutability": "view",
      "type": "function"
    },
    {
      "constant": true,
      "inputs": [],
      "name": "owner",
      "outputs": [
        {
          "internalType": "address",
          "name": "",
          "type": "address"
        }
      ],
      "payable": false,
      "stateMutability": "view",
      "type": "function"
    },
    {
      "constant": true,
      "inputs": [],
      "name": "paused",
      "outputs": [
        {
          "internalType": "bool",
          "name": "",
          "type": "bool"
        }
      ],
      "payable": false,
      "stateMutability": "view",
      "type": "function"
    },
    {
      "constant": true,
      "inputs": [
        {
          "internalType": "uint256",
          "name": "amount",
          "type": "uint256"
        }
      ],
      "name": "perifinReceivedForEther",
      "outputs": [
        {
          "internalType": "uint256",
          "name": "",
          "type": "uint256"
        }
      ],
      "payable": false,
      "stateMutability": "view",
      "type": "function"
    },
    {
      "constant": true,
      "inputs": [
        {
          "internalType": "uint256",
          "name": "amount",
          "type": "uint256"
        }
      ],
      "name": "perifinReceivedForPynths",
      "outputs": [
        {
          "internalType": "uint256",
          "name": "",
          "type": "uint256"
        }
      ],
      "payable": false,
      "stateMutability": "view",
      "type": "function"
    },
    {
      "constant": true,
      "inputs": [
        {
          "internalType": "uint256",
          "name": "amount",
          "type": "uint256"
        }
      ],
      "name": "pynthsReceivedForEther",
      "outputs": [
        {
          "internalType": "uint256",
          "name": "",
          "type": "uint256"
        }
      ],
      "payable": false,
      "stateMutability": "view",
      "type": "function"
    },
    {
      "constant": false,
      "inputs": [],
      "name": "rebuildCache",
      "outputs": [],
      "payable": false,
      "stateMutability": "nonpayable",
      "type": "function"
    },
    {
      "constant": true,
      "inputs": [],
      "name": "resolver",
      "outputs": [
        {
          "internalType": "contract AddressResolver",
          "name": "",
          "type": "address"
        }
      ],
      "payable": false,
      "stateMutability": "view",
      "type": "function"
    },
    {
      "constant": true,
      "inputs": [],
      "name": "resolverAddressesRequired",
      "outputs": [
        {
          "internalType": "bytes32[]",
          "name": "addresses",
          "type": "bytes32[]"
        }
      ],
      "payable": false,
      "stateMutability": "view",
      "type": "function"
    },
    {
      "constant": false,
      "inputs": [
        {
          "internalType": "address payable",
          "name": "_fundsWallet",
          "type": "address"
        }
      ],
      "name": "setFundsWallet",
      "outputs": [],
      "payable": false,
      "stateMutability": "nonpayable",
      "type": "function"
    },
    {
      "constant": false,
      "inputs": [
        {
          "internalType": "uint256",
          "name": "_maxEthPurchase",
          "type": "uint256"
        }
      ],
      "name": "setMaxEthPurchase",
      "outputs": [],
      "payable": false,
      "stateMutability": "nonpayable",
      "type": "function"
    },
    {
      "constant": false,
      "inputs": [
        {
          "internalType": "uint256",
          "name": "_amount",
          "type": "uint256"
        }
      ],
      "name": "setMinimumDepositAmount",
      "outputs": [],
      "payable": false,
      "stateMutability": "nonpayable",
      "type": "function"
    },
    {
      "constant": false,
      "inputs": [
        {
          "internalType": "bool",
          "name": "_paused",
          "type": "bool"
        }
      ],
      "name": "setPaused",
      "outputs": [],
      "payable": false,
      "stateMutability": "nonpayable",
      "type": "function"
    },
    {
      "constant": true,
      "inputs": [
        {
          "internalType": "address",
          "name": "",
          "type": "address"
        }
      ],
      "name": "smallDeposits",
      "outputs": [
        {
          "internalType": "uint256",
          "name": "",
          "type": "uint256"
        }
      ],
      "payable": false,
      "stateMutability": "view",
      "type": "function"
    },
    {
      "constant": true,
      "inputs": [],
      "name": "totalSellableDeposits",
      "outputs": [
        {
          "internalType": "uint256",
          "name": "",
          "type": "uint256"
        }
      ],
      "payable": false,
      "stateMutability": "view",
      "type": "function"
    },
    {
      "constant": false,
      "inputs": [],
      "name": "withdrawMyDepositedPynths",
      "outputs": [],
      "payable": false,
      "stateMutability": "nonpayable",
      "type": "function"
    },
    {
      "constant": false,
      "inputs": [
        {
          "internalType": "uint256",
          "name": "amount",
          "type": "uint256"
        }
      ],
      "name": "withdrawPeriFin",
      "outputs": [],
      "payable": false,
      "stateMutability": "nonpayable",
      "type": "function"
    }
  ],
  "bytecode": "0x608060405273__$b8d33eeb36ac0d1e81cd70156e0043e778$__63907af6c06040518163ffffffff1660e01b815260040160206040518083038186803b1580156200004957600080fd5b505af41580156200005e573d6000803e3d6000fd5b505050506040513d60208110156200007557600080fd5b8101908080519060200190929190505050603202600c5573__$b8d33eeb36ac0d1e81cd70156e0043e778$__63907af6c06040518163ffffffff1660e01b815260040160206040518083038186803b158015620000d157600080fd5b505af4158015620000e6573d6000803e3d6000fd5b505050506040513d6020811015620000fd57600080fd5b81019080805190602001909291905050506101f402600d553480156200012257600080fd5b5060405162004fef38038062004fef833981810160405260608110156200014857600080fd5b810190808051906020019092919080519060200190929190805190602001909291905050508083600073ffffffffffffffffffffffffffffffffffffffff168173ffffffffffffffffffffffffffffffffffffffff16141562000213576040517f08c379a00000000000000000000000000000000000000000000000000000000081526004018080602001828103825260198152602001807f4f776e657220616464726573732063616e6e6f7420626520300000000000000081525060200191505060405180910390fd5b806000806101000a81548173ffffffffffffffffffffffffffffffffffffffff021916908373ffffffffffffffffffffffffffffffffffffffff1602179055507fb532073b38c83145e3e5135377a08bf9aab55bc0fd7c1179cd4fb995d2a5159c600082604051808373ffffffffffffffffffffffffffffffffffffffff1673ffffffffffffffffffffffffffffffffffffffff1681526020018273ffffffffffffffffffffffffffffffffffffffff1673ffffffffffffffffffffffffffffffffffffffff1681526020019250505060405180910390a150600073ffffffffffffffffffffffffffffffffffffffff166000809054906101000a900473ffffffffffffffffffffffffffffffffffffffff1673ffffffffffffffffffffffffffffffffffffffff161415620003b1576040517f08c379a00000000000000000000000000000000000000000000000000000000081526004018080602001828103825260118152602001807f4f776e6572206d7573742062652073657400000000000000000000000000000081525060200191505060405180910390fd5b600160048190555080600560006101000a81548173ffffffffffffffffffffffffffffffffffffffff021916908373ffffffffffffffffffffffffffffffffffffffff1602179055505081600760006101000a81548173ffffffffffffffffffffffffffffffffffffffff021916908373ffffffffffffffffffffffffffffffffffffffff160217905550505050614ba0806200044f6000396000f3fe6080604052600436106101f95760003560e01c806376569fbf1161010d578063aab483d6116100a0578063bb7df1721161006f578063bb7df17214610b58578063c6abb7c714610b93578063ce379b5a14610bf8578063dcaa3e9f14610c33578063fd12167f14610c75576101f9565b8063aab483d614610a21578063b02c43d014610a5c578063b1338cc414610ade578063ba72747714610b09576101f9565b806391b4ded9116100dc57806391b4ded91461093a578063a2c9083814610965578063a705a834146109be578063a8f9844614610a0a576101f9565b806376569fbf1461084257806379ba509714610860578063899ffef4146108775780638da5cb5b146108e3576101f9565b80634d0387fb116101905780635c975abb1161015f5780635c975abb1461076257806364e39b87146107915780636d5ab4a9146107e25780636fd62e8c1461080d578063741853601461082b576101f9565b80634d0387fb1461065657806353a47bb714610681578063571bae75146106d85780635a81c34614610727576101f9565b80632194f3a2116101cc5780632194f3a2146105325780632af64bd31461058957806334d2e0f2146105b857806343de4fd014610607576101f9565b806304f3bcec14610422578063080c279a146104795780631627540c146104a457806316c38b3c146104f5575b6001600460008282540192505081905550600060045490507f455448000000000000000000000000000000000000000000000000000000000061023a610ca0565b73ffffffffffffffffffffffffffffffffffffffff16632528f0fe826040518263ffffffff1660e01b81526004018082815260200191505060206040518083038186803b15801561028a57600080fd5b505afa15801561029e573d6000803e3d6000fd5b505050506040513d60208110156102b457600080fd5b810190808051906020019092919050505015610338576040517f08c379a000000000000000000000000000000000000000000000000000000000815260040180806020018281038252601b8152602001807f5261746520696e76616c6964206f72206e6f7420612070796e7468000000000081525060200191505060405180910390fd5b600360009054906101000a900460ff161561039e576040517f08c379a000000000000000000000000000000000000000000000000000000000815260040180806020018281038252603c815260200180614b0b603c913960400191505060405180910390fd5b6103a6610cd0565b5050600454811461041f576040517f08c379a000000000000000000000000000000000000000000000000000000000815260040180806020018281038252601f8152602001807f5265656e7472616e637947756172643a207265656e7472616e742063616c6c0081525060200191505060405180910390fd5b50005b34801561042e57600080fd5b50610437611893565b604051808273ffffffffffffffffffffffffffffffffffffffff1673ffffffffffffffffffffffffffffffffffffffff16815260200191505060405180910390f35b34801561048557600080fd5b5061048e6118b9565b6040518082815260200191505060405180910390f35b3480156104b057600080fd5b506104f3600480360360208110156104c757600080fd5b81019080803573ffffffffffffffffffffffffffffffffffffffff1690602001909291905050506118bf565b005b34801561050157600080fd5b506105306004803603602081101561051857600080fd5b8101908080351515906020019092919050505061196e565b005b34801561053e57600080fd5b50610547611a1b565b604051808273ffffffffffffffffffffffffffffffffffffffff1673ffffffffffffffffffffffffffffffffffffffff16815260200191505060405180910390f35b34801561059557600080fd5b5061059e611a41565b604051808215151515815260200191505060405180910390f35b3480156105c457600080fd5b506105f1600480360360208110156105db57600080fd5b8101908080359060200190929190505050611c19565b6040518082815260200191505060405180910390f35b34801561061357600080fd5b506106406004803603602081101561062a57600080fd5b8101908080359060200190929190505050611ce7565b6040518082815260200191505060405180910390f35b34801561066257600080fd5b5061066b611e87565b6040518082815260200191505060405180910390f35b34801561068d57600080fd5b50610696611e8d565b604051808273ffffffffffffffffffffffffffffffffffffffff1673ffffffffffffffffffffffffffffffffffffffff16815260200191505060405180910390f35b3480156106e457600080fd5b50610711600480360360208110156106fb57600080fd5b8101908080359060200190929190505050611eb3565b6040518082815260200191505060405180910390f35b34801561073357600080fd5b506107606004803603602081101561074a57600080fd5b8101908080359060200190929190505050611f8e565b005b34801561076e57600080fd5b506107776122c5565b604051808215151515815260200191505060405180910390f35b34801561079d57600080fd5b506107e0600480360360208110156107b457600080fd5b81019080803573ffffffffffffffffffffffffffffffffffffffff1690602001909291905050506122d8565b005b3480156107ee57600080fd5b506107f76123a9565b6040518082815260200191505060405180910390f35b6108156123af565b6040518082815260200191505060405180910390f35b34801561083757600080fd5b50610840612674565b005b61084a6128dd565b6040518082815260200191505060405180910390f35b34801561086c57600080fd5b50610875612b0a565b005b34801561088357600080fd5b5061088c612d30565b6040518080602001828103825283818151815260200191508051906020019060200280838360005b838110156108cf5780820151818401526020810190506108b4565b505050509050019250505060405180910390f35b3480156108ef57600080fd5b506108f8612e16565b604051808273ffffffffffffffffffffffffffffffffffffffff1673ffffffffffffffffffffffffffffffffffffffff16815260200191505060405180910390f35b34801561094657600080fd5b5061094f612e3b565b6040518082815260200191505060405180910390f35b34801561097157600080fd5b506109a86004803603604081101561098857600080fd5b810190808035906020019092919080359060200190929190505050612e41565b6040518082815260200191505060405180910390f35b6109f4600480360360408110156109d457600080fd5b8101908080359060200190929190803590602001909291905050506130ec565b6040518082815260200191505060405180910390f35b348015610a1657600080fd5b50610a1f6135c8565b005b348015610a2d57600080fd5b50610a5a60048036036020811015610a4457600080fd5b81019080803590602001909291905050506139a9565b005b348015610a6857600080fd5b50610a9560048036036020811015610a7f57600080fd5b8101908080359060200190929190505050613aca565b604051808373ffffffffffffffffffffffffffffffffffffffff1673ffffffffffffffffffffffffffffffffffffffff1681526020018281526020019250505060405180910390f35b348015610aea57600080fd5b50610af3613b0e565b6040518082815260200191505060405180910390f35b348015610b1557600080fd5b50610b4260048036036020811015610b2c57600080fd5b8101908080359060200190929190505050613b14565b6040518082815260200191505060405180910390f35b348015610b6457600080fd5b50610b9160048036036020811015610b7b57600080fd5b8101908080359060200190929190505050613be2565b005b348015610b9f57600080fd5b50610be260048036036020811015610bb657600080fd5b81019080803573ffffffffffffffffffffffffffffffffffffffff169060200190929190505050613c2d565b6040518082815260200191505060405180910390f35b348015610c0457600080fd5b50610c3160048036036020811015610c1b57600080fd5b8101908080359060200190929190505050613c45565b005b610c5f60048036036020811015610c4957600080fd5b8101908080359060200190929190505050613d3b565b6040518082815260200191505060405180910390f35b348015610c8157600080fd5b50610c8a613fe4565b6040518082815260200191505060405180910390f35b6000610ccb7f45786368616e6765526174657300000000000000000000000000000000000000613fea565b905090565b6000600d54341115610d2d576040517f08c379a0000000000000000000000000000000000000000000000000000000008152600401808060200182810382526025815260200180614a896025913960400191505060405180910390fd5b600080610df5610d3b610ca0565b73ffffffffffffffffffffffffffffffffffffffff1663ac82f6087f45544800000000000000000000000000000000000000000000000000000000006040518263ffffffff1660e01b81526004018082815260200191505060206040518083038186803b158015610dab57600080fd5b505afa158015610dbf573d6000803e3d6000fd5b505050506040513d6020811015610dd557600080fd5b81019080805190602001909291905050503461414c90919063ffffffff16565b90506000819050600060095490505b600082118015610e155750600a5481105b156116a157610e22614987565b600860008381526020019081526020016000206040518060400160405290816000820160009054906101000a900473ffffffffffffffffffffffffffffffffffffffff1673ffffffffffffffffffffffffffffffffffffffff1673ffffffffffffffffffffffffffffffffffffffff1681526020016001820154815250509050600073ffffffffffffffffffffffffffffffffffffffff16816000015173ffffffffffffffffffffffffffffffffffffffff161415610efc57610ef1600160095461417990919063ffffffff16565b600981905550611693565b82816020015111156112df576000610f2184836020015161420190919063ffffffff16565b90506040518060400160405280836000015173ffffffffffffffffffffffffffffffffffffffff168152602001828152506008600085815260200190815260200160002060008201518160000160006101000a81548173ffffffffffffffffffffffffffffffffffffffff021916908373ffffffffffffffffffffffffffffffffffffffff16021790555060208201518160010155905050610fce84600b5461420190919063ffffffff16565b600b81905550611099610fdf610ca0565b73ffffffffffffffffffffffffffffffffffffffff1663ac82f6087f45544800000000000000000000000000000000000000000000000000000000006040518263ffffffff1660e01b81526004018082815260200191505060206040518083038186803b15801561104f57600080fd5b505afa158015611063573d6000803e3d6000fd5b505050506040513d602081101561107957600080fd5b81019080805190602001909291905050508561428a90919063ffffffff16565b9550816000015173ffffffffffffffffffffffffffffffffffffffff166108fc879081150290604051600060405180830381858888f1935050505061119857600760009054906101000a900473ffffffffffffffffffffffffffffffffffffffff1673ffffffffffffffffffffffffffffffffffffffff166108fc879081150290604051600060405180830381858888f19350505050158015611140573d6000803e3d6000fd5b50816000015173ffffffffffffffffffffffffffffffffffffffff167ff2435d3901399daa085f8b58d2409fff9b83ce4ca97c1f144b532f5a08b1c96c876040518082815260200191505060405180910390a261120b565b82826000015173ffffffffffffffffffffffffffffffffffffffff163373ffffffffffffffffffffffffffffffffffffffff167f6d957e9e816107f67cb7118461e3c259e96896f80223c9af2972596c2fdd401c8988604051808381526020018281526020019250505060405180910390a45b6112136142c0565b73ffffffffffffffffffffffffffffffffffffffff1663a9059cbb33866040518363ffffffff1660e01b8152600401808373ffffffffffffffffffffffffffffffffffffffff1673ffffffffffffffffffffffffffffffffffffffff16815260200182815260200192505050602060405180830381600087803b15801561129957600080fd5b505af11580156112ad573d6000803e3d6000fd5b505050506040513d60208110156112c357600080fd5b8101908080519060200190929190505050506000935050611692565b828160200151116116915760086000838152602001908152602001600020600080820160006101000a81549073ffffffffffffffffffffffffffffffffffffffff021916905560018201600090555050611345600160095461417990919063ffffffff16565b6009819055506113648160200151600b5461420190919063ffffffff16565b600b81905550611433611375610ca0565b73ffffffffffffffffffffffffffffffffffffffff1663ac82f6087f45544800000000000000000000000000000000000000000000000000000000006040518263ffffffff1660e01b81526004018082815260200191505060206040518083038186803b1580156113e557600080fd5b505afa1580156113f9573d6000803e3d6000fd5b505050506040513d602081101561140f57600080fd5b8101908080519060200190929190505050826020015161428a90919063ffffffff16565b9450806000015173ffffffffffffffffffffffffffffffffffffffff166108fc869081150290604051600060405180830381858888f1935050505061153257600760009054906101000a900473ffffffffffffffffffffffffffffffffffffffff1673ffffffffffffffffffffffffffffffffffffffff166108fc869081150290604051600060405180830381858888f193505050501580156114da573d6000803e3d6000fd5b50806000015173ffffffffffffffffffffffffffffffffffffffff167ff2435d3901399daa085f8b58d2409fff9b83ce4ca97c1f144b532f5a08b1c96c866040518082815260200191505060405180910390a26115a9565b81816000015173ffffffffffffffffffffffffffffffffffffffff163373ffffffffffffffffffffffffffffffffffffffff167f6d957e9e816107f67cb7118461e3c259e96896f80223c9af2972596c2fdd401c888560200151604051808381526020018281526020019250505060405180910390a45b6115b16142c0565b73ffffffffffffffffffffffffffffffffffffffff1663a9059cbb3383602001516040518363ffffffff1660e01b8152600401808373ffffffffffffffffffffffffffffffffffffffff1673ffffffffffffffffffffffffffffffffffffffff16815260200182815260200192505050602060405180830381600087803b15801561163b57600080fd5b505af115801561164f573d6000803e3d6000fd5b505050506040513d602081101561166557600080fd5b81019080805190602001909291905050505061168e81602001518461420190919063ffffffff16565b92505b5b5b508080600101915050610e04565b5060008111156117b7573373ffffffffffffffffffffffffffffffffffffffff166108fc61178a6116d0610ca0565b73ffffffffffffffffffffffffffffffffffffffff1663ac82f6087f45544800000000000000000000000000000000000000000000000000000000006040518263ffffffff1660e01b81526004018082815260200191505060206040518083038186803b15801561174057600080fd5b505afa158015611754573d6000803e3d6000fd5b505050506040513d602081101561176a57600080fd5b81019080805190602001909291905050508461428a90919063ffffffff16565b9081150290604051600060405180830381858888f193505050501580156117b5573d6000803e3d6000fd5b505b60006117cc828461420190919063ffffffff16565b90506000811115611889577fdb1741ffc6844b04a9284bb6337fb0ccfe543a493ef0ac8e725242201e93d4bd3482604051808060200184815260200180602001848152602001838103835260038152602001807f4554480000000000000000000000000000000000000000000000000000000000815250602001838103825260048152602001807f705553440000000000000000000000000000000000000000000000000000000081525060200194505050505060405180910390a15b8094505050505090565b600560009054906101000a900473ffffffffffffffffffffffffffffffffffffffff1681565b600c5481565b6118c76142f0565b80600160006101000a81548173ffffffffffffffffffffffffffffffffffffffff021916908373ffffffffffffffffffffffffffffffffffffffff1602179055507f906a1c6bd7e3091ea86693dd029a831c19049ce77f1dce2ce0bab1cacbabce2281604051808273ffffffffffffffffffffffffffffffffffffffff1673ffffffffffffffffffffffffffffffffffffffff16815260200191505060405180910390a150565b6119766142f0565b600360009054906101000a900460ff161515811515141561199657611a18565b80600360006101000a81548160ff021916908315150217905550600360009054906101000a900460ff16156119cd57426002819055505b7f8fb6c181ee25a520cf3dd6565006ef91229fcfe5a989566c2a3b8c115570cec5600360009054906101000a900460ff16604051808215151515815260200191505060405180910390a15b50565b600760009054906101000a900473ffffffffffffffffffffffffffffffffffffffff1681565b60006060611a4d612d30565b905060008090505b8151811015611c0f576000828281518110611a6c57fe5b602002602001015190506006600082815260200190815260200160002060009054906101000a900473ffffffffffffffffffffffffffffffffffffffff1673ffffffffffffffffffffffffffffffffffffffff16600560009054906101000a900473ffffffffffffffffffffffffffffffffffffffff1673ffffffffffffffffffffffffffffffffffffffff166321f8a721836040518263ffffffff1660e01b81526004018082815260200191505060206040518083038186803b158015611b3357600080fd5b505afa158015611b47573d6000803e3d6000fd5b505050506040513d6020811015611b5d57600080fd5b810190808051906020019092919050505073ffffffffffffffffffffffffffffffffffffffff16141580611bf05750600073ffffffffffffffffffffffffffffffffffffffff166006600083815260200190815260200160002060009054906101000a900473ffffffffffffffffffffffffffffffffffffffff1673ffffffffffffffffffffffffffffffffffffffff16145b15611c015760009350505050611c16565b508080600101915050611a55565b5060019150505b90565b6000611ce0611c26610ca0565b73ffffffffffffffffffffffffffffffffffffffff1663ac82f6087f45544800000000000000000000000000000000000000000000000000000000006040518263ffffffff1660e01b81526004018082815260200191505060206040518083038186803b158015611c9657600080fd5b505afa158015611caa573d6000803e3d6000fd5b505050506040513d6020811015611cc057600080fd5b81019080805190602001909291905050508361414c90919063ffffffff16565b9050919050565b60007f5045524900000000000000000000000000000000000000000000000000000000611d12610ca0565b73ffffffffffffffffffffffffffffffffffffffff16632528f0fe826040518263ffffffff1660e01b81526004018082815260200191505060206040518083038186803b158015611d6257600080fd5b505afa158015611d76573d6000803e3d6000fd5b505050506040513d6020811015611d8c57600080fd5b810190808051906020019092919050505015611e10576040517f08c379a000000000000000000000000000000000000000000000000000000000815260040180806020018281038252601b8152602001807f5261746520696e76616c6964206f72206e6f7420612070796e7468000000000081525060200191505060405180910390fd5b600360009054906101000a900460ff1615611e76576040517f08c379a000000000000000000000000000000000000000000000000000000000815260040180806020018281038252603c815260200180614b0b603c913960400191505060405180910390fd5b611e7f83614397565b915050919050565b600b5481565b600160009054906101000a900473ffffffffffffffffffffffffffffffffffffffff1681565b600080611f7b611ec1610ca0565b73ffffffffffffffffffffffffffffffffffffffff1663ac82f6087f45544800000000000000000000000000000000000000000000000000000000006040518263ffffffff1660e01b81526004018082815260200191505060206040518083038186803b158015611f3157600080fd5b505afa158015611f45573d6000803e3d6000fd5b505050506040513d6020811015611f5b57600080fd5b81019080805190602001909291905050508461414c90919063ffffffff16565b9050611f8681613b14565b915050919050565b611f966142c0565b73ffffffffffffffffffffffffffffffffffffffff166323b872dd3330846040518463ffffffff1660e01b8152600401808473ffffffffffffffffffffffffffffffffffffffff1673ffffffffffffffffffffffffffffffffffffffff1681526020018373ffffffffffffffffffffffffffffffffffffffff1673ffffffffffffffffffffffffffffffffffffffff1681526020018281526020019350505050602060405180830381600087803b15801561205057600080fd5b505af1158015612064573d6000803e3d6000fd5b505050506040513d602081101561207a57600080fd5b810190808051906020019092919050505050600c548110156121a5576120e881600e60003373ffffffffffffffffffffffffffffffffffffffff1673ffffffffffffffffffffffffffffffffffffffff1681526020019081526020016000205461417990919063ffffffff16565b600e60003373ffffffffffffffffffffffffffffffffffffffff1673ffffffffffffffffffffffffffffffffffffffff168152602001908152602001600020819055507fa53e8531fc7a8d8cd1aeccdc1b953e2b1bfcbeb6f5acb3a8fd571b8c57a5fd3d3382600c54604051808473ffffffffffffffffffffffffffffffffffffffff1673ffffffffffffffffffffffffffffffffffffffff168152602001838152602001828152602001935050505060405180910390a16122c2565b60405180604001604052803373ffffffffffffffffffffffffffffffffffffffff1681526020018281525060086000600a54815260200190815260200160002060008201518160000160006101000a81548173ffffffffffffffffffffffffffffffffffffffff021916908373ffffffffffffffffffffffffffffffffffffffff16021790555060208201518160010155905050600a543373ffffffffffffffffffffffffffffffffffffffff167f55037147ed62d28238c4ff02e6d4053961a9fdba94b336f5e2f1c94daf2732a0836040518082815260200191505060405180910390a36122a06001600a5461417990919063ffffffff16565b600a819055506122bb81600b5461417990919063ffffffff16565b600b819055505b50565b600360009054906101000a900460ff1681565b6122e06142f0565b80600760006101000a81548173ffffffffffffffffffffffffffffffffffffffff021916908373ffffffffffffffffffffffffffffffffffffffff1602179055507f4deb077bf9c4bc824cc2c989e01a5e53b0a4ecc44c5039d46abc9ffc88f8a050600760009054906101000a900473ffffffffffffffffffffffffffffffffffffffff16604051808273ffffffffffffffffffffffffffffffffffffffff1673ffffffffffffffffffffffffffffffffffffffff16815260200191505060405180910390a150565b60095481565b60007f50455249000000000000000000000000000000000000000000000000000000006123da610ca0565b73ffffffffffffffffffffffffffffffffffffffff16632528f0fe826040518263ffffffff1660e01b81526004018082815260200191505060206040518083038186803b15801561242a57600080fd5b505afa15801561243e573d6000803e3d6000fd5b505050506040513d602081101561245457600080fd5b8101908080519060200190929190505050156124d8576040517f08c379a000000000000000000000000000000000000000000000000000000000815260040180806020018281038252601b8152602001807f5261746520696e76616c6964206f72206e6f7420612070796e7468000000000081525060200191505060405180910390fd5b7f4554480000000000000000000000000000000000000000000000000000000000612501610ca0565b73ffffffffffffffffffffffffffffffffffffffff16632528f0fe826040518263ffffffff1660e01b81526004018082815260200191505060206040518083038186803b15801561255157600080fd5b505afa158015612565573d6000803e3d6000fd5b505050506040513d602081101561257b57600080fd5b8101908080519060200190929190505050156125ff576040517f08c379a000000000000000000000000000000000000000000000000000000000815260040180806020018281038252601b8152602001807f5261746520696e76616c6964206f72206e6f7420612070796e7468000000000081525060200191505060405180910390fd5b600360009054906101000a900460ff1615612665576040517f08c379a000000000000000000000000000000000000000000000000000000000815260040180806020018281038252603c815260200180614b0b603c913960400191505060405180910390fd5b61266d614649565b9250505090565b606061267e612d30565b905060008090505b81518110156128d957600082828151811061269d57fe5b602002602001015190506000600560009054906101000a900473ffffffffffffffffffffffffffffffffffffffff1673ffffffffffffffffffffffffffffffffffffffff1663dacb2d01838460405160200180807f5265736f6c766572206d697373696e67207461726765743a20000000000000008152506019018281526020019150506040516020818303038152906040526040518363ffffffff1660e01b81526004018083815260200180602001828103825283818151815260200191508051906020019080838360005b8381101561278557808201518184015260208101905061276a565b50505050905090810190601f1680156127b25780820380516001836020036101000a031916815260200191505b50935050505060206040518083038186803b1580156127d057600080fd5b505afa1580156127e4573d6000803e3d6000fd5b505050506040513d60208110156127fa57600080fd5b81019080805190602001909291905050509050806006600084815260200190815260200160002060006101000a81548173ffffffffffffffffffffffffffffffffffffffff021916908373ffffffffffffffffffffffffffffffffffffffff1602179055507f88a93678a3692f6789d9546fc621bf7234b101ddb7d4fe479455112831b8aa688282604051808381526020018273ffffffffffffffffffffffffffffffffffffffff1673ffffffffffffffffffffffffffffffffffffffff1681526020019250505060405180910390a150508080600101915050612686565b5050565b60006001600460008282540192505081905550600060045490507f4554480000000000000000000000000000000000000000000000000000000000612920610ca0565b73ffffffffffffffffffffffffffffffffffffffff16632528f0fe826040518263ffffffff1660e01b81526004018082815260200191505060206040518083038186803b15801561297057600080fd5b505afa158015612984573d6000803e3d6000fd5b505050506040513d602081101561299a57600080fd5b810190808051906020019092919050505015612a1e576040517f08c379a000000000000000000000000000000000000000000000000000000000815260040180806020018281038252601b8152602001807f5261746520696e76616c6964206f72206e6f7420612070796e7468000000000081525060200191505060405180910390fd5b600360009054906101000a900460ff1615612a84576040517f08c379a000000000000000000000000000000000000000000000000000000000815260040180806020018281038252603c815260200180614b0b603c913960400191505060405180910390fd5b612a8c610cd0565b9250506004548114612b06576040517f08c379a000000000000000000000000000000000000000000000000000000000815260040180806020018281038252601f8152602001807f5265656e7472616e637947756172643a207265656e7472616e742063616c6c0081525060200191505060405180910390fd5b5090565b600160009054906101000a900473ffffffffffffffffffffffffffffffffffffffff1673ffffffffffffffffffffffffffffffffffffffff163373ffffffffffffffffffffffffffffffffffffffff1614612bb0576040517f08c379a00000000000000000000000000000000000000000000000000000000081526004018080602001828103825260358152602001806149e36035913960400191505060405180910390fd5b7fb532073b38c83145e3e5135377a08bf9aab55bc0fd7c1179cd4fb995d2a5159c6000809054906101000a900473ffffffffffffffffffffffffffffffffffffffff16600160009054906101000a900473ffffffffffffffffffffffffffffffffffffffff16604051808373ffffffffffffffffffffffffffffffffffffffff1673ffffffffffffffffffffffffffffffffffffffff1681526020018273ffffffffffffffffffffffffffffffffffffffff1673ffffffffffffffffffffffffffffffffffffffff1681526020019250505060405180910390a1600160009054906101000a900473ffffffffffffffffffffffffffffffffffffffff166000806101000a81548173ffffffffffffffffffffffffffffffffffffffff021916908373ffffffffffffffffffffffffffffffffffffffff1602179055506000600160006101000a81548173ffffffffffffffffffffffffffffffffffffffff021916908373ffffffffffffffffffffffffffffffffffffffff160217905550565b60606003604051908082528060200260200182016040528015612d625781602001602082028038833980820191505090505b5090507f50796e746870555344000000000000000000000000000000000000000000000081600081518110612d9357fe5b6020026020010181815250507f45786368616e676552617465730000000000000000000000000000000000000081600181518110612dcd57fe5b6020026020010181815250507f5065726946696e0000000000000000000000000000000000000000000000000081600281518110612e0757fe5b60200260200101818152505090565b6000809054906101000a900473ffffffffffffffffffffffffffffffffffffffff1681565b60025481565b60007f5045524900000000000000000000000000000000000000000000000000000000612e6c610ca0565b73ffffffffffffffffffffffffffffffffffffffff16632528f0fe826040518263ffffffff1660e01b81526004018082815260200191505060206040518083038186803b158015612ebc57600080fd5b505afa158015612ed0573d6000803e3d6000fd5b505050506040513d6020811015612ee657600080fd5b810190808051906020019092919050505015612f6a576040517f08c379a000000000000000000000000000000000000000000000000000000000815260040180806020018281038252601b8152602001807f5261746520696e76616c6964206f72206e6f7420612070796e7468000000000081525060200191505060405180910390fd5b600360009054906101000a900460ff1615612fd0576040517f08c379a000000000000000000000000000000000000000000000000000000000815260040180806020018281038252603c815260200180614b0b603c913960400191505060405180910390fd5b612fd8610ca0565b73ffffffffffffffffffffffffffffffffffffffff1663ac82f6087f50455249000000000000000000000000000000000000000000000000000000006040518263ffffffff1660e01b81526004018082815260200191505060206040518083038186803b15801561304857600080fd5b505afa15801561305c573d6000803e3d6000fd5b505050506040513d602081101561307257600080fd5b810190808051906020019092919050505083146130da576040517f08c379a0000000000000000000000000000000000000000000000000000000008152600401808060200182810382526025815260200180614b476025913960400191505060405180910390fd5b6130e384614397565b91505092915050565b60007f5045524900000000000000000000000000000000000000000000000000000000613117610ca0565b73ffffffffffffffffffffffffffffffffffffffff16632528f0fe826040518263ffffffff1660e01b81526004018082815260200191505060206040518083038186803b15801561316757600080fd5b505afa15801561317b573d6000803e3d6000fd5b505050506040513d602081101561319157600080fd5b810190808051906020019092919050505015613215576040517f08c379a000000000000000000000000000000000000000000000000000000000815260040180806020018281038252601b8152602001807f5261746520696e76616c6964206f72206e6f7420612070796e7468000000000081525060200191505060405180910390fd5b7f455448000000000000000000000000000000000000000000000000000000000061323e610ca0565b73ffffffffffffffffffffffffffffffffffffffff16632528f0fe826040518263ffffffff1660e01b81526004018082815260200191505060206040518083038186803b15801561328e57600080fd5b505afa1580156132a2573d6000803e3d6000fd5b505050506040513d60208110156132b857600080fd5b81019080805190602001909291905050501561333c576040517f08c379a000000000000000000000000000000000000000000000000000000000815260040180806020018281038252601b8152602001807f5261746520696e76616c6964206f72206e6f7420612070796e7468000000000081525060200191505060405180910390fd5b600360009054906101000a900460ff16156133a2576040517f08c379a000000000000000000000000000000000000000000000000000000000815260040180806020018281038252603c815260200180614b0b603c913960400191505060405180910390fd5b6133aa610ca0565b73ffffffffffffffffffffffffffffffffffffffff1663ac82f6087f45544800000000000000000000000000000000000000000000000000000000006040518263ffffffff1660e01b81526004018082815260200191505060206040518083038186803b15801561341a57600080fd5b505afa15801561342e573d6000803e3d6000fd5b505050506040513d602081101561344457600080fd5b810190808051906020019092919050505085146134ac576040517f08c379a000000000000000000000000000000000000000000000000000000000815260040180806020018281038252602b8152602001806149b8602b913960400191505060405180910390fd5b6134b4610ca0565b73ffffffffffffffffffffffffffffffffffffffff1663ac82f6087f50455249000000000000000000000000000000000000000000000000000000006040518263ffffffff1660e01b81526004018082815260200191505060206040518083038186803b15801561352457600080fd5b505afa158015613538573d6000803e3d6000fd5b505050506040513d602081101561354e57600080fd5b810190808051906020019092919050505084146135b6576040517f08c379a000000000000000000000000000000000000000000000000000000000815260040180806020018281038252602d815260200180614aae602d913960400191505060405180910390fd5b6135be614649565b9250505092915050565b6000809050600060095490505b600a54811015613763576135e7614987565b600860008381526020019081526020016000206040518060400160405290816000820160009054906101000a900473ffffffffffffffffffffffffffffffffffffffff1673ffffffffffffffffffffffffffffffffffffffff1673ffffffffffffffffffffffffffffffffffffffff16815260200160018201548152505090503373ffffffffffffffffffffffffffffffffffffffff16816000015173ffffffffffffffffffffffffffffffffffffffff161415613755576136b681602001518461417990919063ffffffff16565b925060086000838152602001908152602001600020600080820160006101000a81549073ffffffffffffffffffffffffffffffffffffffff02191690556001820160009055505081816000015173ffffffffffffffffffffffffffffffffffffffff167fa3192e28d63900a325ec19d7b4c6a3690995015d92e4483f4b3ec54dea5e598483602001516040518082815260200191505060405180910390a35b5080806001019150506135d5565b5061377981600b5461420190919063ffffffff16565b600b819055506137d1600e60003373ffffffffffffffffffffffffffffffffffffffff1673ffffffffffffffffffffffffffffffffffffffff168152602001908152602001600020548261417990919063ffffffff16565b90506000600e60003373ffffffffffffffffffffffffffffffffffffffff1673ffffffffffffffffffffffffffffffffffffffff1681526020019081526020016000208190555060008111613871576040517f08c379a0000000000000000000000000000000000000000000000000000000008152600401808060200182810382526021815260200180614a186021913960400191505060405180910390fd5b6138796142c0565b73ffffffffffffffffffffffffffffffffffffffff1663a9059cbb33836040518363ffffffff1660e01b8152600401808373ffffffffffffffffffffffffffffffffffffffff1673ffffffffffffffffffffffffffffffffffffffff16815260200182815260200192505050602060405180830381600087803b1580156138ff57600080fd5b505af1158015613913573d6000803e3d6000fd5b505050506040513d602081101561392957600080fd5b8101908080519060200190929190505050507f561ed20453aa36ac35f599e6b1f20818af8d303c090fb9ffc306da39814757b23382604051808373ffffffffffffffffffffffffffffffffffffffff1673ffffffffffffffffffffffffffffffffffffffff1681526020018281526020019250505060405180910390a150565b6139b16142f0565b73__$b8d33eeb36ac0d1e81cd70156e0043e778$__63907af6c06040518163ffffffff1660e01b815260040160206040518083038186803b1580156139f557600080fd5b505af4158015613a09573d6000803e3d6000fd5b505050506040513d6020811015613a1f57600080fd5b81019080805190602001909291905050508111613a87576040517f08c379a0000000000000000000000000000000000000000000000000000000008152600401808060200182810382526030815260200180614adb6030913960400191505060405180910390fd5b80600c819055507fa39eacd162ee82c70b2b030a1bc8fe89adcccc61122fad4821a8772dbcc54267600c546040518082815260200191505060405180910390a150565b60086020528060005260406000206000915090508060000160009054906101000a900473ffffffffffffffffffffffffffffffffffffffff16908060010154905082565b600d5481565b6000613bdb613b21610ca0565b73ffffffffffffffffffffffffffffffffffffffff1663ac82f6087f50455249000000000000000000000000000000000000000000000000000000006040518263ffffffff1660e01b81526004018082815260200191505060206040518083038186803b158015613b9157600080fd5b505afa158015613ba5573d6000803e3d6000fd5b505050506040513d6020811015613bbb57600080fd5b81019080805190602001909291905050508361428a90919063ffffffff16565b9050919050565b613bea6142f0565b80600d819055507fdc2be810a133e01cb21a41082f15b2863d96f9fe79d1f84d7e2d5b810c5c8243600d546040518082815260200191505060405180910390a150565b600e6020528060005260406000206000915090505481565b613c4d6142f0565b613c55614842565b73ffffffffffffffffffffffffffffffffffffffff1663a9059cbb6000809054906101000a900473ffffffffffffffffffffffffffffffffffffffff16836040518363ffffffff1660e01b8152600401808373ffffffffffffffffffffffffffffffffffffffff1673ffffffffffffffffffffffffffffffffffffffff16815260200182815260200192505050602060405180830381600087803b158015613cfc57600080fd5b505af1158015613d10573d6000803e3d6000fd5b505050506040513d6020811015613d2657600080fd5b81019080805190602001909291905050505050565b60007f4554480000000000000000000000000000000000000000000000000000000000613d66610ca0565b73ffffffffffffffffffffffffffffffffffffffff16632528f0fe826040518263ffffffff1660e01b81526004018082815260200191505060206040518083038186803b158015613db657600080fd5b505afa158015613dca573d6000803e3d6000fd5b505050506040513d6020811015613de057600080fd5b810190808051906020019092919050505015613e64576040517f08c379a000000000000000000000000000000000000000000000000000000000815260040180806020018281038252601b8152602001807f5261746520696e76616c6964206f72206e6f7420612070796e7468000000000081525060200191505060405180910390fd5b600360009054906101000a900460ff1615613eca576040517f08c379a000000000000000000000000000000000000000000000000000000000815260040180806020018281038252603c815260200180614b0b603c913960400191505060405180910390fd5b613ed2610ca0565b73ffffffffffffffffffffffffffffffffffffffff1663ac82f6087f45544800000000000000000000000000000000000000000000000000000000006040518263ffffffff1660e01b81526004018082815260200191505060206040518083038186803b158015613f4257600080fd5b505afa158015613f56573d6000803e3d6000fd5b505050506040513d6020811015613f6c57600080fd5b81019080805190602001909291905050508314613fd4576040517f08c379a0000000000000000000000000000000000000000000000000000000008152600401808060200182810382526025815260200180614b476025913960400191505060405180910390fd5b613fdc610cd0565b915050919050565b600a5481565b6000806006600084815260200190815260200160002060009054906101000a900473ffffffffffffffffffffffffffffffffffffffff169050600073ffffffffffffffffffffffffffffffffffffffff168173ffffffffffffffffffffffffffffffffffffffff1614158360405160200180807f4d697373696e6720616464726573733a2000000000000000000000000000000081525060110182815260200191505060405160208183030381529060405290614142576040517f08c379a00000000000000000000000000000000000000000000000000000000081526004018080602001828103825283818151815260200191508051906020019080838360005b838110156141075780820151818401526020810190506140ec565b50505050905090810190601f1680156141345780820380516001836020036101000a031916815260200191505b509250505060405180910390fd5b5080915050919050565b6000601260ff16600a0a614169838561487290919063ffffffff16565b8161417057fe5b04905092915050565b6000808284019050838110156141f7576040517f08c379a000000000000000000000000000000000000000000000000000000000815260040180806020018281038252601b8152602001807f536166654d6174683a206164646974696f6e206f766572666c6f77000000000081525060200191505060405180910390fd5b8091505092915050565b600082821115614279576040517f08c379a000000000000000000000000000000000000000000000000000000000815260040180806020018281038252601e8152602001807f536166654d6174683a207375627472616374696f6e206f766572666c6f77000081525060200191505060405180910390fd5b600082840390508091505092915050565b60006142b8826142aa601260ff16600a0a8661487290919063ffffffff16565b6148f890919063ffffffff16565b905092915050565b60006142eb7f50796e7468705553440000000000000000000000000000000000000000000000613fea565b905090565b6000809054906101000a900473ffffffffffffffffffffffffffffffffffffffff1673ffffffffffffffffffffffffffffffffffffffff163373ffffffffffffffffffffffffffffffffffffffff1614614395576040517f08c379a000000000000000000000000000000000000000000000000000000000815260040180806020018281038252602f815260200180614a39602f913960400191505060405180910390fd5b565b6000806143a383613b14565b90506143ad6142c0565b73ffffffffffffffffffffffffffffffffffffffff166323b872dd33600760009054906101000a900473ffffffffffffffffffffffffffffffffffffffff16866040518463ffffffff1660e01b8152600401808473ffffffffffffffffffffffffffffffffffffffff1673ffffffffffffffffffffffffffffffffffffffff1681526020018373ffffffffffffffffffffffffffffffffffffffff1673ffffffffffffffffffffffffffffffffffffffff1681526020018281526020019350505050602060405180830381600087803b15801561448957600080fd5b505af115801561449d573d6000803e3d6000fd5b505050506040513d60208110156144b357600080fd5b8101908080519060200190929190505050506144cd614842565b73ffffffffffffffffffffffffffffffffffffffff1663a9059cbb33836040518363ffffffff1660e01b8152600401808373ffffffffffffffffffffffffffffffffffffffff1673ffffffffffffffffffffffffffffffffffffffff16815260200182815260200192505050602060405180830381600087803b15801561455357600080fd5b505af1158015614567573d6000803e3d6000fd5b505050506040513d602081101561457d57600080fd5b8101908080519060200190929190505050507fdb1741ffc6844b04a9284bb6337fb0ccfe543a493ef0ac8e725242201e93d4bd8382604051808060200184815260200180602001848152602001838103835260048152602001807f7055534400000000000000000000000000000000000000000000000000000000815250602001838103825260048152602001807f504552490000000000000000000000000000000000000000000000000000000081525060200194505050505060405180910390a180915050919050565b60008061465534611eb3565b9050600760009054906101000a900473ffffffffffffffffffffffffffffffffffffffff1673ffffffffffffffffffffffffffffffffffffffff166108fc349081150290604051600060405180830381858888f193505050501580156146bf573d6000803e3d6000fd5b506146c8614842565b73ffffffffffffffffffffffffffffffffffffffff1663a9059cbb33836040518363ffffffff1660e01b8152600401808373ffffffffffffffffffffffffffffffffffffffff1673ffffffffffffffffffffffffffffffffffffffff16815260200182815260200192505050602060405180830381600087803b15801561474e57600080fd5b505af1158015614762573d6000803e3d6000fd5b505050506040513d602081101561477857600080fd5b8101908080519060200190929190505050507fdb1741ffc6844b04a9284bb6337fb0ccfe543a493ef0ac8e725242201e93d4bd3482604051808060200184815260200180602001848152602001838103835260038152602001807f4554480000000000000000000000000000000000000000000000000000000000815250602001838103825260048152602001807f504552490000000000000000000000000000000000000000000000000000000081525060200194505050505060405180910390a18091505090565b600061486d7f5065726946696e00000000000000000000000000000000000000000000000000613fea565b905090565b60008083141561488557600090506148f2565b600082840290508284828161489657fe5b04146148ed576040517f08c379a0000000000000000000000000000000000000000000000000000000008152600401808060200182810382526021815260200180614a686021913960400191505060405180910390fd5b809150505b92915050565b600080821161496f576040517f08c379a000000000000000000000000000000000000000000000000000000000815260040180806020018281038252601a8152602001807f536166654d6174683a206469766973696f6e206279207a65726f00000000000081525060200191505060405180910390fd5b600082848161497a57fe5b0490508091505092915050565b6040518060400160405280600073ffffffffffffffffffffffffffffffffffffffff16815260200160008152509056fe47756172616e74656564206574686572207261746520776f756c64206e6f74206265207265636569766564596f75206d757374206265206e6f6d696e61746564206265666f726520796f752063616e20616363657074206f776e657273686970596f752068617665206e6f206465706f7369747320746f2077697468647261772e4f6e6c792074686520636f6e7472616374206f776e6572206d617920706572666f726d207468697320616374696f6e536166654d6174683a206d756c7469706c69636174696f6e206f766572666c6f7745544820616d6f756e742061626f7665206d61784574685075726368617365206c696d697447756172616e74656564207065726966696e207261746520776f756c64206e6f742062652072656365697665644d696e696d756d206465706f73697420616d6f756e74206d7573742062652067726561746572207468616e20554e49545468697320616374696f6e2063616e6e6f7420626520706572666f726d6564207768696c652074686520636f6e74726163742069732070617573656447756172616e74656564207261746520776f756c64206e6f74206265207265636569766564a265627a7a72315820b1f28203d932ef7358465c4b16b78313e2b75c976fff67e165cac4cc48db6ebf64736f6c63430005100032",
  "linkReferences": {
    "contracts/SafeDecimalMath.sol": {
      "SafeDecimalMath": [
        {
          "length": 20,
          "start": 6
        },
        {
          "length": 20,
          "start": 142
        },
        {
          "length": 20,
          "start": 15874
        }
      ]
    }
  },
  "deployedLinkReferences": {
    "contracts/SafeDecimalMath.sol": {
      "SafeDecimalMath": [
        {
          "length": 20,
          "start": 14771
        }
      ]
    }
  }
}