{
  "_format": "hh-sol-artifact-1",
  "contractName": "DebtCache",
  "sourceName": "contracts/DebtCache.sol",
  "abi": [
    {
      "inputs": [
        {
          "internalType": "address",
          "name": "_owner",
          "type": "address"
        },
        {
          "internalType": "address",
          "name": "_resolver",
          "type": "address"
        }
      ],
      "payable": false,
      "stateMutability": "nonpayable",
      "type": "constructor"
    },
    {
      "anonymous": false,
      "inputs": [
        {
          "indexed": false,
          "internalType": "bytes32",
          "name": "name",
          "type": "bytes32"
        },
        {
          "indexed": false,
          "internalType": "address",
          "name": "destination",
          "type": "address"
        }
      ],
      "name": "CacheUpdated",
      "type": "event"
    },
    {
      "anonymous": false,
      "inputs": [
        {
          "indexed": false,
          "internalType": "uint256",
          "name": "timestamp",
          "type": "uint256"
        }
      ],
      "name": "DebtCacheSnapshotTaken",
      "type": "event"
    },
    {
      "anonymous": false,
      "inputs": [
        {
          "indexed": false,
          "internalType": "uint256",
          "name": "cachedDebt",
          "type": "uint256"
        }
      ],
      "name": "DebtCacheUpdated",
      "type": "event"
    },
    {
      "anonymous": false,
      "inputs": [
        {
          "indexed": true,
          "internalType": "bool",
          "name": "isInvalid",
          "type": "bool"
        }
      ],
      "name": "DebtCacheValidityChanged",
      "type": "event"
    },
    {
      "anonymous": false,
      "inputs": [
        {
          "indexed": false,
          "internalType": "address",
          "name": "oldOwner",
          "type": "address"
        },
        {
          "indexed": false,
          "internalType": "address",
          "name": "newOwner",
          "type": "address"
        }
      ],
      "name": "OwnerChanged",
      "type": "event"
    },
    {
      "anonymous": false,
      "inputs": [
        {
          "indexed": false,
          "internalType": "address",
          "name": "newOwner",
          "type": "address"
        }
      ],
      "name": "OwnerNominated",
      "type": "event"
    },
    {
      "constant": false,
      "inputs": [],
      "name": "acceptOwnership",
      "outputs": [],
      "payable": false,
      "stateMutability": "nonpayable",
      "type": "function"
    },
    {
      "constant": true,
      "inputs": [],
      "name": "cacheInfo",
      "outputs": [
        {
          "internalType": "uint256",
          "name": "debt",
          "type": "uint256"
        },
        {
          "internalType": "uint256",
          "name": "timestamp",
          "type": "uint256"
        },
        {
          "internalType": "bool",
          "name": "isInvalid",
          "type": "bool"
        },
        {
          "internalType": "bool",
          "name": "isStale",
          "type": "bool"
        }
      ],
      "payable": false,
      "stateMutability": "view",
      "type": "function"
    },
    {
      "constant": true,
      "inputs": [],
      "name": "cacheInvalid",
      "outputs": [
        {
          "internalType": "bool",
          "name": "",
          "type": "bool"
        }
      ],
      "payable": false,
      "stateMutability": "view",
      "type": "function"
    },
    {
      "constant": true,
      "inputs": [],
      "name": "cacheStale",
      "outputs": [
        {
          "internalType": "bool",
          "name": "",
          "type": "bool"
        }
      ],
      "payable": false,
      "stateMutability": "view",
      "type": "function"
    },
    {
      "constant": true,
      "inputs": [],
      "name": "cacheTimestamp",
      "outputs": [
        {
          "internalType": "uint256",
          "name": "",
          "type": "uint256"
        }
      ],
      "payable": false,
      "stateMutability": "view",
      "type": "function"
    },
    {
      "constant": true,
      "inputs": [],
      "name": "cachedDebt",
      "outputs": [
        {
          "internalType": "uint256",
          "name": "",
          "type": "uint256"
        }
      ],
      "payable": false,
      "stateMutability": "view",
      "type": "function"
    },
    {
      "constant": true,
      "inputs": [
        {
          "internalType": "bytes32",
          "name": "currencyKey",
          "type": "bytes32"
        }
      ],
      "name": "cachedPynthDebt",
      "outputs": [
        {
          "internalType": "uint256",
          "name": "",
          "type": "uint256"
        }
      ],
      "payable": false,
      "stateMutability": "view",
      "type": "function"
    },
    {
      "constant": true,
      "inputs": [
        {
          "internalType": "bytes32[]",
          "name": "currencyKeys",
          "type": "bytes32[]"
        }
      ],
      "name": "cachedPynthDebts",
      "outputs": [
        {
          "internalType": "uint256[]",
          "name": "snxIssuedDebts",
          "type": "uint256[]"
        }
      ],
      "payable": false,
      "stateMutability": "view",
      "type": "function"
    },
    {
      "constant": true,
      "inputs": [],
      "name": "currentDebt",
      "outputs": [
        {
          "internalType": "uint256",
          "name": "debt",
          "type": "uint256"
        },
        {
          "internalType": "bool",
          "name": "anyRateIsInvalid",
          "type": "bool"
        }
      ],
      "payable": false,
      "stateMutability": "view",
      "type": "function"
    },
    {
      "constant": true,
      "inputs": [
        {
          "internalType": "bytes32[]",
          "name": "currencyKeys",
          "type": "bytes32[]"
        }
      ],
      "name": "currentPynthDebts",
      "outputs": [
        {
          "internalType": "uint256[]",
          "name": "debtValues",
          "type": "uint256[]"
        },
        {
          "internalType": "bool",
          "name": "anyRateIsInvalid",
          "type": "bool"
        }
      ],
      "payable": false,
      "stateMutability": "view",
      "type": "function"
    },
    {
      "constant": true,
      "inputs": [],
      "name": "debtSnapshotStaleTime",
      "outputs": [
        {
          "internalType": "uint256",
          "name": "",
          "type": "uint256"
        }
      ],
      "payable": false,
      "stateMutability": "view",
      "type": "function"
    },
    {
      "constant": true,
      "inputs": [],
      "name": "isResolverCached",
      "outputs": [
        {
          "internalType": "bool",
          "name": "",
          "type": "bool"
        }
      ],
      "payable": false,
      "stateMutability": "view",
      "type": "function"
    },
    {
      "constant": false,
      "inputs": [
        {
          "internalType": "address",
          "name": "_owner",
          "type": "address"
        }
      ],
      "name": "nominateNewOwner",
      "outputs": [],
      "payable": false,
      "stateMutability": "nonpayable",
      "type": "function"
    },
    {
      "constant": true,
      "inputs": [],
      "name": "nominatedOwner",
      "outputs": [
        {
          "internalType": "address",
          "name": "",
          "type": "address"
        }
      ],
      "payable": false,
      "stateMutability": "view",
      "type": "function"
    },
    {
      "constant": true,
      "inputs": [],
      "name": "owner",
      "outputs": [
        {
          "internalType": "address",
          "name": "",
          "type": "address"
        }
      ],
      "payable": false,
      "stateMutability": "view",
      "type": "function"
    },
    {
      "constant": false,
      "inputs": [
        {
          "internalType": "bytes32",
          "name": "currencyKey",
          "type": "bytes32"
        }
      ],
      "name": "purgeCachedPynthDebt",
      "outputs": [],
      "payable": false,
      "stateMutability": "nonpayable",
      "type": "function"
    },
    {
      "constant": false,
      "inputs": [],
      "name": "rebuildCache",
      "outputs": [],
      "payable": false,
      "stateMutability": "nonpayable",
      "type": "function"
    },
    {
      "constant": true,
      "inputs": [],
      "name": "resolver",
      "outputs": [
        {
          "internalType": "contract AddressResolver",
          "name": "",
          "type": "address"
        }
      ],
      "payable": false,
      "stateMutability": "view",
      "type": "function"
    },
    {
      "constant": true,
      "inputs": [],
      "name": "resolverAddressesRequired",
      "outputs": [
        {
          "internalType": "bytes32[]",
          "name": "addresses",
          "type": "bytes32[]"
        }
      ],
      "payable": false,
      "stateMutability": "view",
      "type": "function"
    },
    {
      "constant": false,
      "inputs": [],
      "name": "takeDebtSnapshot",
      "outputs": [],
      "payable": false,
      "stateMutability": "nonpayable",
      "type": "function"
    },
    {
      "constant": false,
      "inputs": [
        {
          "internalType": "bytes32",
          "name": "currencyKey",
          "type": "bytes32"
        },
        {
          "internalType": "uint256",
          "name": "currencyRate",
          "type": "uint256"
        }
      ],
      "name": "updateCachedPynthDebtWithRate",
      "outputs": [],
      "payable": false,
      "stateMutability": "nonpayable",
      "type": "function"
    },
    {
      "constant": false,
      "inputs": [
        {
          "internalType": "bytes32[]",
          "name": "currencyKeys",
          "type": "bytes32[]"
        }
      ],
      "name": "updateCachedPynthDebts",
      "outputs": [],
      "payable": false,
      "stateMutability": "nonpayable",
      "type": "function"
    },
    {
      "constant": false,
      "inputs": [
        {
          "internalType": "bytes32[]",
          "name": "currencyKeys",
          "type": "bytes32[]"
        },
        {
          "internalType": "uint256[]",
          "name": "currencyRates",
          "type": "uint256[]"
        }
      ],
      "name": "updateCachedPynthDebtsWithRates",
      "outputs": [],
      "payable": false,
      "stateMutability": "nonpayable",
      "type": "function"
    },
    {
      "constant": false,
      "inputs": [
        {
          "internalType": "bool",
          "name": "currentlyInvalid",
          "type": "bool"
        }
      ],
      "name": "updateDebtCacheValidity",
      "outputs": [],
      "payable": false,
      "stateMutability": "nonpayable",
      "type": "function"
    }
  ],
  "bytecode": "0x60806040526001600760006101000a81548160ff02191690831515021790555034801561002b57600080fd5b506040516134503803806134508339818101604052604081101561004e57600080fd5b810190808051906020019092919080519060200190929190505050808083600073ffffffffffffffffffffffffffffffffffffffff168173ffffffffffffffffffffffffffffffffffffffff16141561010f576040517f08c379a00000000000000000000000000000000000000000000000000000000081526004018080602001828103825260198152602001807f4f776e657220616464726573732063616e6e6f7420626520300000000000000081525060200191505060405180910390fd5b806000806101000a81548173ffffffffffffffffffffffffffffffffffffffff021916908373ffffffffffffffffffffffffffffffffffffffff1602179055507fb532073b38c83145e3e5135377a08bf9aab55bc0fd7c1179cd4fb995d2a5159c600082604051808373ffffffffffffffffffffffffffffffffffffffff1673ffffffffffffffffffffffffffffffffffffffff1681526020018273ffffffffffffffffffffffffffffffffffffffff1673ffffffffffffffffffffffffffffffffffffffff1681526020019250505060405180910390a15080600260006101000a81548173ffffffffffffffffffffffffffffffffffffffff021916908373ffffffffffffffffffffffffffffffffffffffff160217905550505050506132148061023c6000396000f3fe608060405234801561001057600080fd5b50600436106101585760003560e01c80638da5cb5b116100c3578063dae3de981161007c578063dae3de9814610558578063e3476cd414610626578063f7cc999f14610630578063fa9f18d314610672578063fc524773146106eb578063fca28f741461070d57610158565b80638da5cb5b146103b45780639f98fb49146103fe578063a5f27edb146104cc578063af5355d8146104ee578063d0fffafd1461050c578063d6576c841461052a57610158565b806353a47bb71161011557806353a47bb71461029657806374185360146102e0578063759076e5146102ea57806379ba5097146103135780638376a7821461031d578063899ffef41461035557610158565b806304bd11e51461015d57806304f3bcec1461018d57806305393262146101d75780631627540c146101f55780632af64bd3146102395780633a900a2e1461025b575b600080fd5b61018b6004803603602081101561017357600080fd5b810190808035151590602001909291905050506107e6565b005b6101956107fa565b604051808273ffffffffffffffffffffffffffffffffffffffff1673ffffffffffffffffffffffffffffffffffffffff16815260200191505060405180910390f35b6101df610820565b6040518082815260200191505060405180910390f35b6102376004803603602081101561020b57600080fd5b81019080803573ffffffffffffffffffffffffffffffffffffffff16906020019092919050505061082a565b005b6102416108d9565b604051808215151515815260200191505060405180910390f35b610263610ab1565b60405180858152602001848152602001831515151581526020018215151515815260200194505050505060405180910390f35b61029e610aea565b604051808273ffffffffffffffffffffffffffffffffffffffff1673ffffffffffffffffffffffffffffffffffffffff16815260200191505060405180910390f35b6102e8610b10565b005b6102f2610d79565b60405180838152602001821515151581526020019250505060405180910390f35b61031b610d8c565b005b6103536004803603604081101561033357600080fd5b810190808035906020019092919080359060200190929190505050610fb2565b005b61035d61106a565b6040518080602001828103825283818151815260200191508051906020019060200280838360005b838110156103a0578082015181840152602081019050610385565b505050509050019250505060405180910390f35b6103bc611253565b604051808273ffffffffffffffffffffffffffffffffffffffff1673ffffffffffffffffffffffffffffffffffffffff16815260200191505060405180910390f35b6104ca6004803603604081101561041457600080fd5b810190808035906020019064010000000081111561043157600080fd5b82018360208201111561044357600080fd5b8035906020019184602083028401116401000000008311171561046557600080fd5b90919293919293908035906020019064010000000081111561048657600080fd5b82018360208201111561049857600080fd5b803590602001918460208302840111640100000000831117156104ba57600080fd5b9091929391929390505050611278565b005b6104d4611314565b604051808215151515815260200191505060405180910390f35b6104f661132b565b6040518082815260200191505060405180910390f35b61051461133a565b6040518082815260200191505060405180910390f35b6105566004803603602081101561054057600080fd5b8101908080359060200190929190505050611344565b005b6105cf6004803603602081101561056e57600080fd5b810190808035906020019064010000000081111561058b57600080fd5b82018360208201111561059d57600080fd5b803590602001918460208302840111640100000000831117156105bf57600080fd5b909192939192939050505061149a565b6040518080602001828103825283818151815260200191508051906020019060200280838360005b838110156106125780820151818401526020810190506105f7565b505050509050019250505060405180910390f35b61062e6114ee565b005b61065c6004803603602081101561064657600080fd5b81019080803590602001909291905050506117db565b6040518082815260200191505060405180910390f35b6106e96004803603602081101561068857600080fd5b81019080803590602001906401000000008111156106a557600080fd5b8201836020820111156106b757600080fd5b803590602001918460208302840111640100000000831117156106d957600080fd5b90919293919293905050506117f8565b005b6106f36119c3565b604051808215151515815260200191505060405180910390f35b6107846004803603602081101561072357600080fd5b810190808035906020019064010000000081111561074057600080fd5b82018360208201111561075257600080fd5b8035906020019184602083028401116401000000008311171561077457600080fd5b90919293919293905050506119d5565b604051808060200183151515158152602001828103825284818151815260200191508051906020019060200280838360005b838110156107d15780820151818401526020810190506107b6565b50505050905001935050505060405180910390f35b6107ee611a2e565b6107f781611ad8565b50565b600260009054906101000a900473ffffffffffffffffffffffffffffffffffffffff1681565b6000600454905090565b610832611b3f565b80600160006101000a81548173ffffffffffffffffffffffffffffffffffffffff021916908373ffffffffffffffffffffffffffffffffffffffff1602179055507f906a1c6bd7e3091ea86693dd029a831c19049ce77f1dce2ce0bab1cacbabce2281604051808273ffffffffffffffffffffffffffffffffffffffff1673ffffffffffffffffffffffffffffffffffffffff16815260200191505060405180910390a150565b600060606108e561106a565b905060008090505b8151811015610aa757600082828151811061090457fe5b602002602001015190506003600082815260200190815260200160002060009054906101000a900473ffffffffffffffffffffffffffffffffffffffff1673ffffffffffffffffffffffffffffffffffffffff16600260009054906101000a900473ffffffffffffffffffffffffffffffffffffffff1673ffffffffffffffffffffffffffffffffffffffff166321f8a721836040518263ffffffff1660e01b81526004018082815260200191505060206040518083038186803b1580156109cb57600080fd5b505afa1580156109df573d6000803e3d6000fd5b505050506040513d60208110156109f557600080fd5b810190808051906020019092919050505073ffffffffffffffffffffffffffffffffffffffff16141580610a885750600073ffffffffffffffffffffffffffffffffffffffff166003600083815260200190815260200160002060009054906101000a900473ffffffffffffffffffffffffffffffffffffffff1673ffffffffffffffffffffffffffffffffffffffff16145b15610a995760009350505050610aae565b5080806001019150506108ed565b5060019150505b90565b6000806000806000600654905060045481600760009054906101000a900460ff16610adb84611be6565b94509450945094505090919293565b600160009054906101000a900473ffffffffffffffffffffffffffffffffffffffff1681565b6060610b1a61106a565b905060008090505b8151811015610d75576000828281518110610b3957fe5b602002602001015190506000600260009054906101000a900473ffffffffffffffffffffffffffffffffffffffff1673ffffffffffffffffffffffffffffffffffffffff1663dacb2d01838460405160200180807f5265736f6c766572206d697373696e67207461726765743a20000000000000008152506019018281526020019150506040516020818303038152906040526040518363ffffffff1660e01b81526004018083815260200180602001828103825283818151815260200191508051906020019080838360005b83811015610c21578082015181840152602081019050610c06565b50505050905090810190601f168015610c4e5780820380516001836020036101000a031916815260200191505b50935050505060206040518083038186803b158015610c6c57600080fd5b505afa158015610c80573d6000803e3d6000fd5b505050506040513d6020811015610c9657600080fd5b81019080805190602001909291905050509050806003600084815260200190815260200160002060006101000a81548173ffffffffffffffffffffffffffffffffffffffff021916908373ffffffffffffffffffffffffffffffffffffffff1602179055507f88a93678a3692f6789d9546fc621bf7234b101ddb7d4fe479455112831b8aa688282604051808381526020018273ffffffffffffffffffffffffffffffffffffffff1673ffffffffffffffffffffffffffffffffffffffff1681526020019250505060405180910390a150508080600101915050610b22565b5050565b600080610d84611c06565b915091509091565b600160009054906101000a900473ffffffffffffffffffffffffffffffffffffffff1673ffffffffffffffffffffffffffffffffffffffff163373ffffffffffffffffffffffffffffffffffffffff1614610e32576040517f08c379a000000000000000000000000000000000000000000000000000000000815260040180806020018281038252603581526020018061313a6035913960400191505060405180910390fd5b7fb532073b38c83145e3e5135377a08bf9aab55bc0fd7c1179cd4fb995d2a5159c6000809054906101000a900473ffffffffffffffffffffffffffffffffffffffff16600160009054906101000a900473ffffffffffffffffffffffffffffffffffffffff16604051808373ffffffffffffffffffffffffffffffffffffffff1673ffffffffffffffffffffffffffffffffffffffff1681526020018273ffffffffffffffffffffffffffffffffffffffff1673ffffffffffffffffffffffffffffffffffffffff1681526020019250505060405180910390a1600160009054906101000a900473ffffffffffffffffffffffffffffffffffffffff166000806101000a81548173ffffffffffffffffffffffffffffffffffffffff021916908373ffffffffffffffffffffffffffffffffffffffff1602179055506000600160006101000a81548173ffffffffffffffffffffffffffffffffffffffff021916908373ffffffffffffffffffffffffffffffffffffffff160217905550565b610fba611a2e565b60606001604051908082528060200260200182016040528015610fec5781602001602082028038833980820191505090505b5090508281600081518110610ffd57fe5b6020026020010181815250506060600160405190808252806020026020018201604052801561103b5781602001602082028038833980820191505090505b509050828160008151811061104c57fe5b60200260200101818152505061106482826000611e4b565b50505050565b606080611075612062565b9050606060076040519080825280602002602001820160405280156110a95781602001602082028038833980820191505090505b5090507f4973737565720000000000000000000000000000000000000000000000000000816000815181106110da57fe5b6020026020010181815250507f45786368616e67657200000000000000000000000000000000000000000000008160018151811061111457fe5b6020026020010181815250507f45786368616e67655261746573000000000000000000000000000000000000008160028151811061114e57fe5b6020026020010181815250507f53797374656d53746174757300000000000000000000000000000000000000008160038151811061118857fe5b6020026020010181815250507f4574686572436f6c6c61746572616c0000000000000000000000000000000000816004815181106111c257fe5b6020026020010181815250507f4574686572436f6c6c61746572616c7055534400000000000000000000000000816005815181106111fc57fe5b6020026020010181815250507f436f6c6c61746572616c4d616e616765720000000000000000000000000000008160068151811061123657fe5b60200260200101818152505061124c82826120d4565b9250505090565b6000809054906101000a900473ffffffffffffffffffffffffffffffffffffffff1681565b6112806121a7565b61130e848480806020026020016040519081016040528093929190818152602001838360200280828437600081840152601f19601f82011690508083019250505050505050838380806020026020016040519081016040528093929190818152602001838360200280828437600081840152601f19601f820116905080830192505050505050506000611e4b565b50505050565b6000600760009054906101000a900460ff16905090565b6000611335612271565b905090565b6000600654905090565b61134c611b3f565b600073ffffffffffffffffffffffffffffffffffffffff1661136c612353565b73ffffffffffffffffffffffffffffffffffffffff166357ad4663836040518263ffffffff1660e01b81526004018082815260200191505060206040518083038186803b1580156113bc57600080fd5b505afa1580156113d0573d6000803e3d6000fd5b505050506040513d60208110156113e657600080fd5b810190808051906020019092919050505073ffffffffffffffffffffffffffffffffffffffff1614611480576040517f08c379a000000000000000000000000000000000000000000000000000000000815260040180806020018281038252600c8152602001807f50796e746820657869737473000000000000000000000000000000000000000081525060200191505060405180910390fd5b600560008281526020019081526020016000206000905550565b60606114e6838380806020026020016040519081016040528093929190818152602001838360200280828437600081840152601f19601f82011690508083019250505050505050612383565b905092915050565b6114f6612424565b6060611500612353565b73ffffffffffffffffffffffffffffffffffffffff166372cb051f6040518163ffffffff1660e01b815260040160006040518083038186803b15801561154557600080fd5b505afa158015611559573d6000803e3d6000fd5b505050506040513d6000823e3d601f19601f82011682018060405250602081101561158357600080fd5b81019080805160405193929190846401000000008211156115a357600080fd5b838201915060208201858111156115b957600080fd5b82518660208202830111640100000000821117156115d657600080fd5b8083526020830192505050908051906020019060200280838360005b8381101561160d5780820151818401526020810190506115f2565b50505050905001604052505050905060606000611629836124e0565b91509150600061163761267d565b73ffffffffffffffffffffffffffffffffffffffff1663ad79a8586040518163ffffffff1660e01b8152600401604080518083038186803b15801561167b57600080fd5b505afa15801561168f573d6000803e3d6000fd5b505050506040513d60408110156116a557600080fd5b8101908080519060200190929190805190602001909291905050505090506000835190506000805b8281101561173b5760008682815181106116e357fe5b6020026020010151905061170081846126ad90919063ffffffff16565b925080600560008a858151811061171357fe5b60200260200101518152602001908152602001600020819055505080806001019150506116cd565b5061174f838261273590919063ffffffff16565b600481905550426006819055507f294a7c394e53042c7d754779562747d93b41db019dd4b970dd9b531db71be599816040518082815260200191505060405180910390a17fc481e742c89630d4b1a5ed3a0fc624c1c41ed463bd00ac26a7e93c71e932126f426040518082815260200191505060405180910390a16117d384611ad8565b505050505050565b600060056000838152602001908152602001600020549050919050565b611800612424565b6060600061180c6127be565b73ffffffffffffffffffffffffffffffffffffffff1663c8e5bbd585856040518363ffffffff1660e01b815260040180806020018281038252848482818152602001925060200280828437600081840152601f19601f820116905080830192505050935050505060006040518083038186803b15801561188b57600080fd5b505afa15801561189f573d6000803e3d6000fd5b505050506040513d6000823e3d601f19601f8201168201806040525060408110156118c957600080fd5b81019080805160405193929190846401000000008211156118e957600080fd5b838201915060208201858111156118ff57600080fd5b825186602082028301116401000000008211171561191c57600080fd5b8083526020830192505050908051906020019060200280838360005b83811015611953578082015181840152602081019050611938565b5050505090500160405260200180519060200190929190505050915091506119bd848480806020026020016040519081016040528093929190818152602001838360200280828437600081840152601f19601f820116905080830192505050505050508383611e4b565b50505050565b60006119d0600654611be6565b905090565b60606000611a23848480806020026020016040519081016040528093929190818152602001838360200280828437600081840152601f19601f820116905080830192505050505050506124e0565b915091509250929050565b611a36612353565b73ffffffffffffffffffffffffffffffffffffffff163373ffffffffffffffffffffffffffffffffffffffff1614611ad6576040517f08c379a00000000000000000000000000000000000000000000000000000000081526004018080602001828103825260148152602001807f53656e646572206973206e6f742049737375657200000000000000000000000081525060200191505060405180910390fd5b565b801515600760009054906101000a900460ff16151514611b3c5780600760006101000a81548160ff0219169083151502179055508015157f8eebec690c34bbf0fe0d5b93e442beaf16bdaf99052569581de2dcb3e31a53a760405160405180910390a25b50565b6000809054906101000a900473ffffffffffffffffffffffffffffffffffffffff1673ffffffffffffffffffffffffffffffffffffffff163373ffffffffffffffffffffffffffffffffffffffff1614611be4576040517f08c379a000000000000000000000000000000000000000000000000000000000815260040180806020018281038252602f815260200180613190602f913960400191505060405180910390fd5b565b6000814203611bf3612271565b1080611bff5750600082145b9050919050565b60008060606000611d37611c18612353565b73ffffffffffffffffffffffffffffffffffffffff166372cb051f6040518163ffffffff1660e01b815260040160006040518083038186803b158015611c5d57600080fd5b505afa158015611c71573d6000803e3d6000fd5b505050506040513d6000823e3d601f19601f820116820180604052506020811015611c9b57600080fd5b8101908080516040519392919084640100000000821115611cbb57600080fd5b83820191506020820185811115611cd157600080fd5b8251866020820283011164010000000082111715611cee57600080fd5b8083526020830192505050908051906020019060200280838360005b83811015611d25578082015181840152602081019050611d0a565b505050509050016040525050506124e0565b915091506000825190506000805b82811015611d8257611d73858281518110611d5c57fe5b6020026020010151836126ad90919063ffffffff16565b91508080600101915050611d45565b50600080611d8e61267d565b73ffffffffffffffffffffffffffffffffffffffff1663ad79a8586040518163ffffffff1660e01b8152600401604080518083038186803b158015611dd257600080fd5b505afa158015611de6573d6000803e3d6000fd5b505050506040513d6040811015611dfc57600080fd5b81019080805190602001909291908051906020019092919050505091509150611e2e828461273590919063ffffffff16565b92508480611e395750805b94508285975097505050505050509091565b60008351905082518114611ec7576040517f08c379a000000000000000000000000000000000000000000000000000000000815260040180806020018281038252601a8152602001807f496e707574206172726179206c656e677468732064696666657200000000000081525060200191505060405180910390fd5b6000806060611ed687876127ee565b905060008090505b84811015611f7a576000888281518110611ef457fe5b602002602001015190506000838381518110611f0c57fe5b60200260200101519050611f3c6005600084815260200190815260200160002054876126ad90919063ffffffff16565b9550611f5181866126ad90919063ffffffff16565b945080600560008481526020019081526020016000208190555050508080600101915050611ede565b50818314612049576000600454905080841115611fe2576040517f08c379a00000000000000000000000000000000000000000000000000000000081526004018080602001828103825260238152602001806131176023913960400191505060405180910390fd5b61200783611ff9868461273590919063ffffffff16565b6126ad90919063ffffffff16565b9050806004819055507f294a7c394e53042c7d754779562747d93b41db019dd4b970dd9b531db71be599816040518082815260200191505060405180910390a1505b84156120595761205885611ad8565b5b50505050505050565b606060016040519080825280602002602001820160405280156120945781602001602082028038833980820191505090505b5090507f466c657869626c6553746f726167650000000000000000000000000000000000816000815181106120c557fe5b60200260200101818152505090565b606081518351016040519080825280602002602001820160405280156121095781602001602082028038833980820191505090505b50905060008090505b83518110156121545783818151811061212757fe5b602002602001015182828151811061213b57fe5b6020026020010181815250508080600101915050612112565b5060008090505b82518110156121a05782818151811061217057fe5b602002602001015182828651018151811061218757fe5b602002602001018181525050808060010191505061215b565b5092915050565b6121af612353565b73ffffffffffffffffffffffffffffffffffffffff163373ffffffffffffffffffffffffffffffffffffffff16148061221a57506121eb612dc9565b73ffffffffffffffffffffffffffffffffffffffff163373ffffffffffffffffffffffffffffffffffffffff16145b61226f576040517f08c379a000000000000000000000000000000000000000000000000000000000815260040180806020018281038252602181526020018061316f6021913960400191505060405180910390fd5b565b600061227b612df9565b73ffffffffffffffffffffffffffffffffffffffff166323257c2b7f53797374656d53657474696e67730000000000000000000000000000000000007f64656274536e617073686f745374616c6554696d6500000000000000000000006040518363ffffffff1660e01b8152600401808381526020018281526020019250505060206040518083038186803b15801561231357600080fd5b505afa158015612327573d6000803e3d6000fd5b505050506040513d602081101561233d57600080fd5b8101908080519060200190929190505050905090565b600061237e7f4973737565720000000000000000000000000000000000000000000000000000612e29565b905090565b60606000825190506060816040519080825280602002602001820160405280156123bc5781602001602082028038833980820191505090505b50905060008090505b8281101561241957600560008683815181106123dd57fe5b602002602001015181526020019081526020016000205482828151811061240057fe5b60200260200101818152505080806001019150506123c5565b508092505050919050565b6000809054906101000a900473ffffffffffffffffffffffffffffffffffffffff1673ffffffffffffffffffffffffffffffffffffffff163373ffffffffffffffffffffffffffffffffffffffff16146124de57612480612f8b565b73ffffffffffffffffffffffffffffffffffffffff1663086dabd16040518163ffffffff1660e01b815260040160006040518083038186803b1580156124c557600080fd5b505afa1580156124d9573d6000803e3d6000fd5b505050505b565b60606000606060006124f06127be565b73ffffffffffffffffffffffffffffffffffffffff1663c8e5bbd5866040518263ffffffff1660e01b81526004018080602001828103825283818151815260200191508051906020019060200280838360005b8381101561255e578082015181840152602081019050612543565b505050509050019250505060006040518083038186803b15801561258157600080fd5b505afa158015612595573d6000803e3d6000fd5b505050506040513d6000823e3d601f19601f8201168201806040525060408110156125bf57600080fd5b81019080805160405193929190846401000000008211156125df57600080fd5b838201915060208201858111156125f557600080fd5b825186602082028301116401000000008211171561261257600080fd5b8083526020830192505050908051906020019060200280838360005b8381101561264957808201518184015260208101905061262e565b50505050905001604052602001805190602001909291905050509150915061267185836127ee565b81935093505050915091565b60006126a87f436f6c6c61746572616c4d616e61676572000000000000000000000000000000612e29565b905090565b60008082840190508381101561272b576040517f08c379a000000000000000000000000000000000000000000000000000000000815260040180806020018281038252601b8152602001807f536166654d6174683a206164646974696f6e206f766572666c6f77000000000081525060200191505060405180910390fd5b8091505092915050565b6000828211156127ad576040517f08c379a000000000000000000000000000000000000000000000000000000000815260040180806020018281038252601e8152602001807f536166654d6174683a207375627472616374696f6e206f766572666c6f77000081525060200191505060405180910390fd5b600082840390508091505092915050565b60006127e97f45786368616e6765526174657300000000000000000000000000000000000000612e29565b905090565b60606000835190506060816040519080825280602002602001820160405280156128275781602001602082028038833980820191505090505b5090506060612834612353565b73ffffffffffffffffffffffffffffffffffffffff16631db63a33876040518263ffffffff1660e01b81526004018080602001828103825283818151815260200191508051906020019060200280838360005b838110156128a2578082015181840152602081019050612887565b505050509050019250505060006040518083038186803b1580156128c557600080fd5b505afa1580156128d9573d6000803e3d6000fd5b505050506040513d6000823e3d601f19601f82011682018060405250602081101561290357600080fd5b810190808051604051939291908464010000000082111561292357600080fd5b8382019150602082018581111561293957600080fd5b825186602082028301116401000000008211171561295657600080fd5b8083526020830192505050908051906020019060200280838360005b8381101561298d578082015181840152602081019050612972565b50505050905001604052505050905060008090505b83811015612dbc5760008782815181106129b857fe5b6020026020010151905060008383815181106129d057fe5b60200260200101519050600073ffffffffffffffffffffffffffffffffffffffff168173ffffffffffffffffffffffffffffffffffffffff161415612a7d576040517f08c379a00000000000000000000000000000000000000000000000000000000081526004018080602001828103825260148152602001807f50796e746820646f6573206e6f7420657869737400000000000000000000000081525060200191505060405180910390fd5b60008173ffffffffffffffffffffffffffffffffffffffff166318160ddd6040518163ffffffff1660e01b815260040160206040518083038186803b158015612ac557600080fd5b505afa158015612ad9573d6000803e3d6000fd5b505050506040513d6020811015612aef57600080fd5b81019080805190602001909291905050509050612b0a61267d565b73ffffffffffffffffffffffffffffffffffffffff166342e32f13846040518263ffffffff1660e01b81526004018082815260200191505060206040518083038186803b158015612b5a57600080fd5b505afa158015612b6e573d6000803e3d6000fd5b505050506040513d6020811015612b8457600080fd5b810190808051906020019092919050505015612c5a576000612ba461267d565b73ffffffffffffffffffffffffffffffffffffffff1663d2f00475856040518263ffffffff1660e01b81526004018082815260200191505060206040518083038186803b158015612bf457600080fd5b505afa158015612c08573d6000803e3d6000fd5b505050506040513d6020811015612c1e57600080fd5b8101908080519060200190929190505050905081811115612c425760009150612c58565b612c55818361273590919063ffffffff16565b91505b505b60007f7055534400000000000000000000000000000000000000000000000000000000841490508080612cac57507f704554480000000000000000000000000000000000000000000000000000000084145b15612d6d57600081612cc557612cc0612fbb565b612cce565b612ccd612feb565b5b905060008173ffffffffffffffffffffffffffffffffffffffff166357b219206040518163ffffffff1660e01b815260040160206040518083038186803b158015612d1857600080fd5b505afa158015612d2c573d6000803e3d6000fd5b505050506040513d6020811015612d4257600080fd5b81019080805190602001909291905050509050612d68818561273590919063ffffffff16565b935050505b612d938a8681518110612d7c57fe5b60200260200101518361301b90919063ffffffff16565b878681518110612d9f57fe5b6020026020010181815250505050505080806001019150506129a2565b5081935050505092915050565b6000612df47f45786368616e6765720000000000000000000000000000000000000000000000612e29565b905090565b6000612e247f466c657869626c6553746f726167650000000000000000000000000000000000612e29565b905090565b6000806003600084815260200190815260200160002060009054906101000a900473ffffffffffffffffffffffffffffffffffffffff169050600073ffffffffffffffffffffffffffffffffffffffff168173ffffffffffffffffffffffffffffffffffffffff1614158360405160200180807f4d697373696e6720616464726573733a2000000000000000000000000000000081525060110182815260200191505060405160208183030381529060405290612f81576040517f08c379a00000000000000000000000000000000000000000000000000000000081526004018080602001828103825283818151815260200191508051906020019080838360005b83811015612f46578082015181840152602081019050612f2b565b50505050905090810190601f168015612f735780820380516001836020036101000a031916815260200191505b509250505060405180910390fd5b5080915050919050565b6000612fb67f53797374656d5374617475730000000000000000000000000000000000000000612e29565b905090565b6000612fe67f4574686572436f6c6c61746572616c0000000000000000000000000000000000612e29565b905090565b60006130167f4574686572436f6c6c61746572616c7055534400000000000000000000000000612e29565b905090565b600061302f8383601260ff16600a0a613037565b905092915050565b600080600a838161304457fe5b04613058858761309090919063ffffffff16565b8161305f57fe5b0490506005600a828161306e57fe5b061061307b57600a810190505b600a818161308557fe5b049150509392505050565b6000808314156130a35760009050613110565b60008284029050828482816130b457fe5b041461310b576040517f08c379a00000000000000000000000000000000000000000000000000000000081526004018080602001828103825260218152602001806131bf6021913960400191505060405180910390fd5b809150505b9291505056fe4361636865642070796e74682073756d206578636565647320746f74616c2064656274596f75206d757374206265206e6f6d696e61746564206265666f726520796f752063616e20616363657074206f776e65727368697053656e646572206973206e6f7420497373756572206f722045786368616e6765724f6e6c792074686520636f6e7472616374206f776e6572206d617920706572666f726d207468697320616374696f6e536166654d6174683a206d756c7469706c69636174696f6e206f766572666c6f77a265627a7a72315820c010296d22874c354c18793d58f0c0be69702afc97f440abddbc679e9b270e8e64736f6c63430005100032",
  "linkReferences": {},
  "deployedLinkReferences": {}
}