{
  "_format": "hh-sol-artifact-1",
  "contractName": "PeriFinBridgeToBase",
  "sourceName": "contracts/PeriFinBridgeToBase.sol",
  "abi": [
    {
      "inputs": [
        {
          "internalType": "address",
          "name": "_owner",
          "type": "address"
        },
        {
          "internalType": "address",
          "name": "_resolver",
          "type": "address"
        }
      ],
      "payable": false,
      "stateMutability": "nonpayable",
      "type": "constructor"
    },
    {
      "anonymous": false,
      "inputs": [
        {
          "indexed": false,
          "internalType": "bytes32",
          "name": "name",
          "type": "bytes32"
        },
        {
          "indexed": false,
          "internalType": "address",
          "name": "destination",
          "type": "address"
        }
      ],
      "name": "CacheUpdated",
      "type": "event"
    },
    {
      "anonymous": false,
      "inputs": [
        {
          "indexed": true,
          "internalType": "address",
          "name": "account",
          "type": "address"
        },
        {
          "indexed": false,
          "internalType": "uint256",
          "name": "escrowedAmount",
          "type": "uint256"
        },
        {
          "components": [
            {
              "internalType": "uint64",
              "name": "endTime",
              "type": "uint64"
            },
            {
              "internalType": "uint256",
              "name": "escrowAmount",
              "type": "uint256"
            }
          ],
          "indexed": false,
          "internalType": "struct VestingEntries.VestingEntry[]",
          "name": "vestingEntries",
          "type": "tuple[]"
        }
      ],
      "name": "ImportedVestingEntries",
      "type": "event"
    },
    {
      "anonymous": false,
      "inputs": [
        {
          "indexed": true,
          "internalType": "address",
          "name": "account",
          "type": "address"
        },
        {
          "indexed": false,
          "internalType": "uint256",
          "name": "amount",
          "type": "uint256"
        }
      ],
      "name": "MintedSecondary",
      "type": "event"
    },
    {
      "anonymous": false,
      "inputs": [
        {
          "indexed": false,
          "internalType": "uint256",
          "name": "amount",
          "type": "uint256"
        }
      ],
      "name": "MintedSecondaryRewards",
      "type": "event"
    },
    {
      "anonymous": false,
      "inputs": [
        {
          "indexed": false,
          "internalType": "address",
          "name": "oldOwner",
          "type": "address"
        },
        {
          "indexed": false,
          "internalType": "address",
          "name": "newOwner",
          "type": "address"
        }
      ],
      "name": "OwnerChanged",
      "type": "event"
    },
    {
      "anonymous": false,
      "inputs": [
        {
          "indexed": false,
          "internalType": "address",
          "name": "newOwner",
          "type": "address"
        }
      ],
      "name": "OwnerNominated",
      "type": "event"
    },
    {
      "anonymous": false,
      "inputs": [
        {
          "indexed": true,
          "internalType": "address",
          "name": "account",
          "type": "address"
        },
        {
          "indexed": false,
          "internalType": "uint256",
          "name": "amount",
          "type": "uint256"
        }
      ],
      "name": "WithdrawalInitiated",
      "type": "event"
    },
    {
      "constant": false,
      "inputs": [],
      "name": "acceptOwnership",
      "outputs": [],
      "payable": false,
      "stateMutability": "nonpayable",
      "type": "function"
    },
    {
      "constant": false,
      "inputs": [
        {
          "internalType": "address",
          "name": "account",
          "type": "address"
        },
        {
          "internalType": "uint256",
          "name": "depositAmount",
          "type": "uint256"
        }
      ],
      "name": "completeDeposit",
      "outputs": [],
      "payable": false,
      "stateMutability": "nonpayable",
      "type": "function"
    },
    {
      "constant": false,
      "inputs": [
        {
          "internalType": "address",
          "name": "account",
          "type": "address"
        },
        {
          "internalType": "uint256",
          "name": "escrowedAmount",
          "type": "uint256"
        },
        {
          "components": [
            {
              "internalType": "uint64",
              "name": "endTime",
              "type": "uint64"
            },
            {
              "internalType": "uint256",
              "name": "escrowAmount",
              "type": "uint256"
            }
          ],
          "internalType": "struct VestingEntries.VestingEntry[]",
          "name": "vestingEntries",
          "type": "tuple[]"
        }
      ],
      "name": "completeEscrowMigration",
      "outputs": [],
      "payable": false,
      "stateMutability": "nonpayable",
      "type": "function"
    },
    {
      "constant": false,
      "inputs": [
        {
          "internalType": "uint256",
          "name": "amount",
          "type": "uint256"
        }
      ],
      "name": "completeRewardDeposit",
      "outputs": [],
      "payable": false,
      "stateMutability": "nonpayable",
      "type": "function"
    },
    {
      "constant": false,
      "inputs": [
        {
          "internalType": "uint256",
          "name": "amount",
          "type": "uint256"
        }
      ],
      "name": "initiateWithdrawal",
      "outputs": [],
      "payable": false,
      "stateMutability": "nonpayable",
      "type": "function"
    },
    {
      "constant": true,
      "inputs": [],
      "name": "isResolverCached",
      "outputs": [
        {
          "internalType": "bool",
          "name": "",
          "type": "bool"
        }
      ],
      "payable": false,
      "stateMutability": "view",
      "type": "function"
    },
    {
      "constant": false,
      "inputs": [
        {
          "internalType": "address",
          "name": "_owner",
          "type": "address"
        }
      ],
      "name": "nominateNewOwner",
      "outputs": [],
      "payable": false,
      "stateMutability": "nonpayable",
      "type": "function"
    },
    {
      "constant": true,
      "inputs": [],
      "name": "nominatedOwner",
      "outputs": [
        {
          "internalType": "address",
          "name": "",
          "type": "address"
        }
      ],
      "payable": false,
      "stateMutability": "view",
      "type": "function"
    },
    {
      "constant": true,
      "inputs": [],
      "name": "owner",
      "outputs": [
        {
          "internalType": "address",
          "name": "",
          "type": "address"
        }
      ],
      "payable": false,
      "stateMutability": "view",
      "type": "function"
    },
    {
      "constant": false,
      "inputs": [],
      "name": "rebuildCache",
      "outputs": [],
      "payable": false,
      "stateMutability": "nonpayable",
      "type": "function"
    },
    {
      "constant": true,
      "inputs": [],
      "name": "resolver",
      "outputs": [
        {
          "internalType": "contract AddressResolver",
          "name": "",
          "type": "address"
        }
      ],
      "payable": false,
      "stateMutability": "view",
      "type": "function"
    },
    {
      "constant": true,
      "inputs": [],
      "name": "resolverAddressesRequired",
      "outputs": [
        {
          "internalType": "bytes32[]",
          "name": "addresses",
          "type": "bytes32[]"
        }
      ],
      "payable": false,
      "stateMutability": "view",
      "type": "function"
    }
  ],
  "bytecode": "0x60806040523480156200001157600080fd5b50604051620026243803806200262483398181016040526200003791908101906200018c565b808083600073ffffffffffffffffffffffffffffffffffffffff168173ffffffffffffffffffffffffffffffffffffffff161415620000ad576040517f08c379a0000000000000000000000000000000000000000000000000000000008152600401620000a4906200025e565b60405180910390fd5b806000806101000a81548173ffffffffffffffffffffffffffffffffffffffff021916908373ffffffffffffffffffffffffffffffffffffffff1602179055507fb532073b38c83145e3e5135377a08bf9aab55bc0fd7c1179cd4fb995d2a5159c6000826040516200012192919062000231565b60405180910390a15080600260006101000a81548173ffffffffffffffffffffffffffffffffffffffff021916908373ffffffffffffffffffffffffffffffffffffffff160217905550505050506200031b565b600081519050620001868162000301565b92915050565b60008060408385031215620001a057600080fd5b6000620001b08582860162000175565b9250506020620001c38582860162000175565b9150509250929050565b620001d881620002c5565b82525050565b620001e98162000291565b82525050565b6000620001fe60198362000280565b91507f4f776e657220616464726573732063616e6e6f742062652030000000000000006000830152602082019050919050565b6000604082019050620002486000830185620001cd565b620002576020830184620001de565b9392505050565b600060208201905081810360008301526200027981620001ef565b9050919050565b600082825260208201905092915050565b60006200029e82620002a5565b9050919050565b600073ffffffffffffffffffffffffffffffffffffffff82169050919050565b6000620002d282620002d9565b9050919050565b6000620002e682620002ed565b9050919050565b6000620002fa82620002a5565b9050919050565b6200030c8162000291565b81146200031857600080fd5b50565b6122f9806200032b6000396000f3fe608060405234801561001057600080fd5b50600436106100b45760003560e01c80636ab7e1c2116100715780636ab7e1c214610167578063741853601461018357806379ba50971461018d578063899ffef4146101975780638da5cb5b146101b5578063f69053c5146101d3576100b4565b806304f3bcec146100b957806312edde5e146100d7578063130a75fe146100f35780631627540c1461010f5780632af64bd31461012b57806353a47bb714610149575b600080fd5b6100c16101ef565b6040516100ce9190611f1a565b60405180910390f35b6100f160048036036100ec91908101906117a6565b610215565b005b61010d600480360361010891908101906116fe565b6104cb565b005b610129600480360361012491908101906116ac565b610599565b005b61013361061c565b6040516101409190611e62565b60405180910390f35b6101516107f1565b60405161015e9190611ce8565b60405180910390f35b610181600480360361017c919081019061173a565b610817565b005b61018b610969565b005b610195610b0a565b005b61019f610cbc565b6040516101ac9190611e40565b60405180910390f35b6101bd610df7565b6040516101ca9190611ce8565b60405180910390f35b6101ed60048036036101e891908101906117a6565b610e1c565b005b600260009054906101000a900473ffffffffffffffffffffffffffffffffffffffff1681565b8061021e610ed0565b73ffffffffffffffffffffffffffffffffffffffff1663ebee2675336040518263ffffffff1660e01b81526004016102569190611d03565b60206040518083038186803b15801561026e57600080fd5b505afa158015610282573d6000803e3d6000fd5b505050506040513d601f19601f820116820180604052506102a691908101906117cf565b10156102e7576040517f08c379a00000000000000000000000000000000000000000000000000000000081526004016102de90611fd7565b60405180910390fd5b6102ef610ed0565b73ffffffffffffffffffffffffffffffffffffffff1663edef719a33836040518363ffffffff1660e01b8152600401610329929190611d47565b600060405180830381600087803b15801561034357600080fd5b505af1158015610357573d6000803e3d6000fd5b50505050600060608173ffffffffffffffffffffffffffffffffffffffff1663e2ff2d43905060e01b3384604051602401610393929190611d1e565b604051602081830303815290604052907bffffffffffffffffffffffffffffffffffffffffffffffffffffffff19166020820180517bffffffffffffffffffffffffffffffffffffffffffffffffffffffff838183161783525050505090506103fa610f00565b73ffffffffffffffffffffffffffffffffffffffff16633dbb202b61041d610f30565b836104286003610f60565b6040518463ffffffff1660e01b815260040161044693929190611d99565b600060405180830381600087803b15801561046057600080fd5b505af1158015610474573d6000803e3d6000fd5b505050503373ffffffffffffffffffffffffffffffffffffffff167f6d92f7d3303f995bf21956bb0c51b388bae348eaf45c23debd2cfa3fcd9ec646846040516104be9190612017565b60405180910390a2505050565b6104d3611023565b6104db610ed0565b73ffffffffffffffffffffffffffffffffffffffff1663666ed4f183836040518363ffffffff1660e01b8152600401610515929190611dd7565b600060405180830381600087803b15801561052f57600080fd5b505af1158015610543573d6000803e3d6000fd5b505050508173ffffffffffffffffffffffffffffffffffffffff167f8bee677ce808ba08aedfdf407cbf9c4414e77f8b66c0d96f335b275cbf5341448260405161058d9190612017565b60405180910390a25050565b6105a1611192565b80600160006101000a81548173ffffffffffffffffffffffffffffffffffffffff021916908373ffffffffffffffffffffffffffffffffffffffff1602179055507f906a1c6bd7e3091ea86693dd029a831c19049ce77f1dce2ce0bab1cacbabce22816040516106119190611ce8565b60405180910390a150565b60006060610628610cbc565b905060008090505b81518110156107e757600082828151811061064757fe5b602002602001015190506003600082815260200190815260200160002060009054906101000a900473ffffffffffffffffffffffffffffffffffffffff1673ffffffffffffffffffffffffffffffffffffffff16600260009054906101000a900473ffffffffffffffffffffffffffffffffffffffff1673ffffffffffffffffffffffffffffffffffffffff166321f8a721836040518263ffffffff1660e01b81526004016106f69190611e7d565b60206040518083038186803b15801561070e57600080fd5b505afa158015610722573d6000803e3d6000fd5b505050506040513d601f19601f8201168201806040525061074691908101906116d5565b73ffffffffffffffffffffffffffffffffffffffff161415806107c85750600073ffffffffffffffffffffffffffffffffffffffff166003600083815260200190815260200160002060009054906101000a900473ffffffffffffffffffffffffffffffffffffffff1673ffffffffffffffffffffffffffffffffffffffff16145b156107d957600093505050506107ee565b508080600101915050610630565b5060019150505b90565b600160009054906101000a900473ffffffffffffffffffffffffffffffffffffffff1681565b61081f611023565b6000610829611223565b9050610833610ed0565b73ffffffffffffffffffffffffffffffffffffffff1663666ed4f182866040518363ffffffff1660e01b815260040161086d929190611dd7565b600060405180830381600087803b15801561088757600080fd5b505af115801561089b573d6000803e3d6000fd5b505050508073ffffffffffffffffffffffffffffffffffffffff1663cd7b43dd868686866040518563ffffffff1660e01b81526004016108de9493929190611e00565b600060405180830381600087803b1580156108f857600080fd5b505af115801561090c573d6000803e3d6000fd5b505050508473ffffffffffffffffffffffffffffffffffffffff167f7538b9bce825b4555048bb2f80c04ee79b5ffc422f39b959994a27c21c32c8d185858560405161095a93929190612032565b60405180910390a25050505050565b6060610973610cbc565b905060008090505b8151811015610b0657600082828151811061099257fe5b602002602001015190506000600260009054906101000a900473ffffffffffffffffffffffffffffffffffffffff1673ffffffffffffffffffffffffffffffffffffffff1663dacb2d0183846040516020016109ee9190611cc2565b6040516020818303038152906040526040518363ffffffff1660e01b8152600401610a1a929190611eea565b60206040518083038186803b158015610a3257600080fd5b505afa158015610a46573d6000803e3d6000fd5b505050506040513d601f19601f82011682018060405250610a6a91908101906116d5565b9050806003600084815260200190815260200160002060006101000a81548173ffffffffffffffffffffffffffffffffffffffff021916908373ffffffffffffffffffffffffffffffffffffffff1602179055507f88a93678a3692f6789d9546fc621bf7234b101ddb7d4fe479455112831b8aa688282604051610aef929190611e98565b60405180910390a15050808060010191505061097b565b5050565b600160009054906101000a900473ffffffffffffffffffffffffffffffffffffffff1673ffffffffffffffffffffffffffffffffffffffff163373ffffffffffffffffffffffffffffffffffffffff1614610b9a576040517f08c379a0000000000000000000000000000000000000000000000000000000008152600401610b9190611f57565b60405180910390fd5b7fb532073b38c83145e3e5135377a08bf9aab55bc0fd7c1179cd4fb995d2a5159c6000809054906101000a900473ffffffffffffffffffffffffffffffffffffffff16600160009054906101000a900473ffffffffffffffffffffffffffffffffffffffff16604051610c0e929190611d70565b60405180910390a1600160009054906101000a900473ffffffffffffffffffffffffffffffffffffffff166000806101000a81548173ffffffffffffffffffffffffffffffffffffffff021916908373ffffffffffffffffffffffffffffffffffffffff1602179055506000600160006101000a81548173ffffffffffffffffffffffffffffffffffffffff021916908373ffffffffffffffffffffffffffffffffffffffff160217905550565b606080610cc7611253565b905060606004604051908082528060200260200182016040528015610cfb5781602001602082028038833980820191505090505b5090507f6578743a4d657373656e6765720000000000000000000000000000000000000081600081518110610d2c57fe5b6020026020010181815250507f5065726946696e0000000000000000000000000000000000000000000000000081600181518110610d6657fe5b6020026020010181815250507f626173653a5065726946696e427269646765546f4f7074696d69736d0000000081600281518110610da057fe5b6020026020010181815250507f526577617264457363726f77563200000000000000000000000000000000000081600381518110610dda57fe5b602002602001018181525050610df082826112c5565b9250505090565b6000809054906101000a900473ffffffffffffffffffffffffffffffffffffffff1681565b610e24611023565b610e2c610ed0565b73ffffffffffffffffffffffffffffffffffffffff1663d8a1f76f826040518263ffffffff1660e01b8152600401610e649190612017565b600060405180830381600087803b158015610e7e57600080fd5b505af1158015610e92573d6000803e3d6000fd5b505050507f4c867b72baae24147e49f29f47f17923bea3b5d1a076dff11e0bac8c180a84c181604051610ec59190612017565b60405180910390a150565b6000610efb7f5065726946696e00000000000000000000000000000000000000000000000000611398565b905090565b6000610f2b7f6578743a4d657373656e67657200000000000000000000000000000000000000611398565b905090565b6000610f5b7f626173653a5065726946696e427269646765546f4f7074696d69736d00000000611398565b905090565b6000610f6a61146d565b73ffffffffffffffffffffffffffffffffffffffff166323257c2b7f53797374656d53657474696e6773000000000000000000000000000000000000610faf8561149d565b6040518363ffffffff1660e01b8152600401610fcc929190611ec1565b60206040518083038186803b158015610fe457600080fd5b505afa158015610ff8573d6000803e3d6000fd5b505050506040513d601f19601f8201168201806040525061101c91908101906117cf565b9050919050565b600061102d610f00565b90508073ffffffffffffffffffffffffffffffffffffffff163373ffffffffffffffffffffffffffffffffffffffff161461109d576040517f08c379a000000000000000000000000000000000000000000000000000000000815260040161109490611f97565b60405180910390fd5b6110a5610f30565b73ffffffffffffffffffffffffffffffffffffffff168173ffffffffffffffffffffffffffffffffffffffff16636e296e456040518163ffffffff1660e01b815260040160206040518083038186803b15801561110157600080fd5b505afa158015611115573d6000803e3d6000fd5b505050506040513d601f19601f8201168201806040525061113991908101906116d5565b73ffffffffffffffffffffffffffffffffffffffff161461118f576040517f08c379a000000000000000000000000000000000000000000000000000000000815260040161118690611fb7565b60405180910390fd5b50565b6000809054906101000a900473ffffffffffffffffffffffffffffffffffffffff1673ffffffffffffffffffffffffffffffffffffffff163373ffffffffffffffffffffffffffffffffffffffff1614611221576040517f08c379a000000000000000000000000000000000000000000000000000000000815260040161121890611f77565b60405180910390fd5b565b600061124e7f526577617264457363726f775632000000000000000000000000000000000000611398565b905090565b606060016040519080825280602002602001820160405280156112855781602001602082028038833980820191505090505b5090507f466c657869626c6553746f726167650000000000000000000000000000000000816000815181106112b657fe5b60200260200101818152505090565b606081518351016040519080825280602002602001820160405280156112fa5781602001602082028038833980820191505090505b50905060008090505b83518110156113455783818151811061131857fe5b602002602001015182828151811061132c57fe5b6020026020010181815250508080600101915050611303565b5060008090505b82518110156113915782818151811061136157fe5b602002602001015182828651018151811061137857fe5b602002602001018181525050808060010191505061134c565b5092915050565b6000806003600084815260200190815260200160002060009054906101000a900473ffffffffffffffffffffffffffffffffffffffff169050600073ffffffffffffffffffffffffffffffffffffffff168173ffffffffffffffffffffffffffffffffffffffff161415836040516020016114139190611c9c565b60405160208183030381529060405290611463576040517f08c379a000000000000000000000000000000000000000000000000000000000815260040161145a9190611f35565b60405180910390fd5b5080915050919050565b60006114987f466c657869626c6553746f726167650000000000000000000000000000000000611398565b905090565b60008060038111156114ab57fe5b8260038111156114b757fe5b14156114e5577f63726f7373446f6d61696e4465706f7369744761734c696d697400000000000090506115f4565b600160038111156114f257fe5b8260038111156114fe57fe5b141561152c577f63726f7373446f6d61696e457363726f774761734c696d69740000000000000090506115f4565b6002600381111561153957fe5b82600381111561154557fe5b1415611573577f63726f7373446f6d61696e5265776172644761734c696d69740000000000000090506115f4565b60038081111561157f57fe5b82600381111561158b57fe5b14156115b9577f63726f7373446f6d61696e5769746864726177616c4761734c696d697400000090506115f4565b6040517f08c379a00000000000000000000000000000000000000000000000000000000081526004016115eb90611ff7565b60405180910390fd5b919050565b60008135905061160881612271565b92915050565b60008151905061161d81612271565b92915050565b60008083601f84011261163557600080fd5b8235905067ffffffffffffffff81111561164e57600080fd5b60208301915083604082028301111561166657600080fd5b9250929050565b60008135905061167c81612288565b92915050565b60008151905061169181612288565b92915050565b6000813590506116a68161229f565b92915050565b6000602082840312156116be57600080fd5b60006116cc848285016115f9565b91505092915050565b6000602082840312156116e757600080fd5b60006116f58482850161160e565b91505092915050565b6000806040838503121561171157600080fd5b600061171f858286016115f9565b92505060206117308582860161166d565b9150509250929050565b6000806000806060858703121561175057600080fd5b600061175e878288016115f9565b945050602061176f8782880161166d565b935050604085013567ffffffffffffffff81111561178c57600080fd5b61179887828801611623565b925092505092959194509250565b6000602082840312156117b857600080fd5b60006117c68482850161166d565b91505092915050565b6000602082840312156117e157600080fd5b60006117ef84828501611682565b91505092915050565b6000611804838361191f565b60208301905092915050565b600061181c8383611c21565b60408301905092915050565b611831816121c9565b82525050565b61184081612153565b82525050565b61184f81612141565b82525050565b60006118608261207e565b61186a81856120b9565b935061187583612064565b8060005b838110156118a657815161188d88826117f8565b97506118988361209f565b925050600181019050611879565b5085935050505092915050565b60006118bf83856120ca565b93506118ca82612074565b8060005b85811015611903576118e08284612108565b6118ea8882611810565b97506118f5836120ac565b9250506001810190506118ce565b5085925050509392505050565b61191981612165565b82525050565b61192881612171565b82525050565b61193781612171565b82525050565b61194e61194982612171565b612256565b82525050565b600061195f82612089565b61196981856120db565b9350611979818560208601612223565b61198281612260565b840191505092915050565b611996816121db565b82525050565b60006119a782612094565b6119b181856120ec565b93506119c1818560208601612223565b6119ca81612260565b840191505092915050565b60006119e26035836120ec565b91507f596f75206d757374206265206e6f6d696e61746564206265666f726520796f7560008301527f2063616e20616363657074206f776e65727368697000000000000000000000006020830152604082019050919050565b6000611a486011836120fd565b91507f4d697373696e6720616464726573733a200000000000000000000000000000006000830152601182019050919050565b6000611a88602f836120ec565b91507f4f6e6c792074686520636f6e7472616374206f776e6572206d6179207065726660008301527f6f726d207468697320616374696f6e00000000000000000000000000000000006020830152604082019050919050565b6000611aee601e836120ec565b91507f4f6e6c79207468652072656c617965722063616e2063616c6c207468697300006000830152602082019050919050565b6000611b2e601d836120ec565b91507f4f6e6c7920746865204c31206272696467652063616e20696e766f6b650000006000830152602082019050919050565b6000611b6e6019836120fd565b91507f5265736f6c766572206d697373696e67207461726765743a20000000000000006000830152601982019050919050565b6000611bae601c836120ec565b91507f4e6f7420656e6f756768207472616e7366657261626c652050455249000000006000830152602082019050919050565b6000611bee6016836120ec565b91507f556e6b6e6f776e20676173206c696d69742074797065000000000000000000006000830152602082019050919050565b60408201611c32600083018361212a565b611c3f6000850182611c8d565b50611c4d6020830183612113565b611c5a6020850182611c60565b50505050565b611c698161219b565b82525050565b611c788161219b565b82525050565b611c87816121a5565b82525050565b611c96816121b5565b82525050565b6000611ca782611a3b565b9150611cb3828461193d565b60208201915081905092915050565b6000611ccd82611b61565b9150611cd9828461193d565b60208201915081905092915050565b6000602082019050611cfd6000830184611846565b92915050565b6000602082019050611d186000830184611828565b92915050565b6000604082019050611d336000830185611837565b611d406020830184611c6f565b9392505050565b6000604082019050611d5c6000830185611828565b611d696020830184611c6f565b9392505050565b6000604082019050611d856000830185611846565b611d926020830184611846565b9392505050565b6000606082019050611dae6000830186611846565b8181036020830152611dc08185611954565b9050611dcf6040830184611c7e565b949350505050565b6000604082019050611dec6000830185611846565b611df96020830184611c6f565b9392505050565b6000606082019050611e156000830187611846565b611e226020830186611c6f565b8181036040830152611e358184866118b3565b905095945050505050565b60006020820190508181036000830152611e5a8184611855565b905092915050565b6000602082019050611e776000830184611910565b92915050565b6000602082019050611e92600083018461192e565b92915050565b6000604082019050611ead600083018561192e565b611eba6020830184611846565b9392505050565b6000604082019050611ed6600083018561192e565b611ee3602083018461192e565b9392505050565b6000604082019050611eff600083018561192e565b8181036020830152611f11818461199c565b90509392505050565b6000602082019050611f2f600083018461198d565b92915050565b60006020820190508181036000830152611f4f818461199c565b905092915050565b60006020820190508181036000830152611f70816119d5565b9050919050565b60006020820190508181036000830152611f9081611a7b565b9050919050565b60006020820190508181036000830152611fb081611ae1565b9050919050565b60006020820190508181036000830152611fd081611b21565b9050919050565b60006020820190508181036000830152611ff081611ba1565b9050919050565b6000602082019050818103600083015261201081611be1565b9050919050565b600060208201905061202c6000830184611c6f565b92915050565b60006040820190506120476000830186611c6f565b818103602083015261205a8184866118b3565b9050949350505050565b6000819050602082019050919050565b6000819050919050565b600081519050919050565b600081519050919050565b600081519050919050565b6000602082019050919050565b6000604082019050919050565b600082825260208201905092915050565b600082825260208201905092915050565b600082825260208201905092915050565b600082825260208201905092915050565b600081905092915050565b600082905092915050565b6000612122602084018461166d565b905092915050565b60006121396020840184611697565b905092915050565b600061214c8261217b565b9050919050565b600061215e8261217b565b9050919050565b60008115159050919050565b6000819050919050565b600073ffffffffffffffffffffffffffffffffffffffff82169050919050565b6000819050919050565b600063ffffffff82169050919050565b600067ffffffffffffffff82169050919050565b60006121d4826121ff565b9050919050565b60006121e6826121ed565b9050919050565b60006121f88261217b565b9050919050565b600061220a82612211565b9050919050565b600061221c8261217b565b9050919050565b60005b83811015612241578082015181840152602081019050612226565b83811115612250576000848401525b50505050565b6000819050919050565b6000601f19601f8301169050919050565b61227a81612141565b811461228557600080fd5b50565b6122918161219b565b811461229c57600080fd5b50565b6122a8816121b5565b81146122b357600080fd5b5056fea365627a7a723158207b0be581ae69cbbca24b300362b879fae2a2278c8ee80fbbda4f0dd68cdceb266c6578706572696d656e74616cf564736f6c63430005100040",
  "linkReferences": {},
  "deployedLinkReferences": {}
}