{
  "_format": "hh-sol-artifact-1",
  "contractName": "SystemSettings",
  "sourceName": "contracts/SystemSettings.sol",
  "abi": [
    {
      "inputs": [
        {
          "internalType": "address",
          "name": "_owner",
          "type": "address"
        },
        {
          "internalType": "address",
          "name": "_resolver",
          "type": "address"
        }
      ],
      "payable": false,
      "stateMutability": "nonpayable",
      "type": "constructor"
    },
    {
      "anonymous": false,
      "inputs": [
        {
          "indexed": false,
          "internalType": "address",
          "name": "flags",
          "type": "address"
        }
      ],
      "name": "AggregatorWarningFlagsUpdated",
      "type": "event"
    },
    {
      "anonymous": false,
      "inputs": [
        {
          "indexed": false,
          "internalType": "bytes32",
          "name": "name",
          "type": "bytes32"
        },
        {
          "indexed": false,
          "internalType": "address",
          "name": "destination",
          "type": "address"
        }
      ],
      "name": "CacheUpdated",
      "type": "event"
    },
    {
      "anonymous": false,
      "inputs": [
        {
          "indexed": false,
          "internalType": "enum MixinSystemSettings.CrossDomainMessageGasLimits",
          "name": "gasLimitType",
          "type": "uint8"
        },
        {
          "indexed": false,
          "internalType": "uint256",
          "name": "newLimit",
          "type": "uint256"
        }
      ],
      "name": "CrossDomainMessageGasLimitChanged",
      "type": "event"
    },
    {
      "anonymous": false,
      "inputs": [
        {
          "indexed": false,
          "internalType": "uint256",
          "name": "debtSnapshotStaleTime",
          "type": "uint256"
        }
      ],
      "name": "DebtSnapshotStaleTimeUpdated",
      "type": "event"
    },
    {
      "anonymous": false,
      "inputs": [
        {
          "indexed": false,
          "internalType": "bytes32",
          "name": "pynthKey",
          "type": "bytes32"
        },
        {
          "indexed": false,
          "internalType": "uint256",
          "name": "newExchangeFeeRate",
          "type": "uint256"
        }
      ],
      "name": "ExchangeFeeUpdated",
      "type": "event"
    },
    {
      "anonymous": false,
      "inputs": [
        {
          "indexed": false,
          "internalType": "uint256",
          "name": "newFeePeriodDuration",
          "type": "uint256"
        }
      ],
      "name": "FeePeriodDurationUpdated",
      "type": "event"
    },
    {
      "anonymous": false,
      "inputs": [
        {
          "indexed": false,
          "internalType": "uint256",
          "name": "newRatio",
          "type": "uint256"
        }
      ],
      "name": "IssuanceRatioUpdated",
      "type": "event"
    },
    {
      "anonymous": false,
      "inputs": [
        {
          "indexed": false,
          "internalType": "uint256",
          "name": "newDelay",
          "type": "uint256"
        }
      ],
      "name": "LiquidationDelayUpdated",
      "type": "event"
    },
    {
      "anonymous": false,
      "inputs": [
        {
          "indexed": false,
          "internalType": "uint256",
          "name": "newPenalty",
          "type": "uint256"
        }
      ],
      "name": "LiquidationPenaltyUpdated",
      "type": "event"
    },
    {
      "anonymous": false,
      "inputs": [
        {
          "indexed": false,
          "internalType": "uint256",
          "name": "newRatio",
          "type": "uint256"
        }
      ],
      "name": "LiquidationRatioUpdated",
      "type": "event"
    },
    {
      "anonymous": false,
      "inputs": [
        {
          "indexed": false,
          "internalType": "uint256",
          "name": "minimumStakeTime",
          "type": "uint256"
        }
      ],
      "name": "MinimumStakeTimeUpdated",
      "type": "event"
    },
    {
      "anonymous": false,
      "inputs": [
        {
          "indexed": false,
          "internalType": "address",
          "name": "oldOwner",
          "type": "address"
        },
        {
          "indexed": false,
          "internalType": "address",
          "name": "newOwner",
          "type": "address"
        }
      ],
      "name": "OwnerChanged",
      "type": "event"
    },
    {
      "anonymous": false,
      "inputs": [
        {
          "indexed": false,
          "internalType": "address",
          "name": "newOwner",
          "type": "address"
        }
      ],
      "name": "OwnerNominated",
      "type": "event"
    },
    {
      "anonymous": false,
      "inputs": [
        {
          "indexed": false,
          "internalType": "uint256",
          "name": "threshold",
          "type": "uint256"
        }
      ],
      "name": "PriceDeviationThresholdUpdated",
      "type": "event"
    },
    {
      "anonymous": false,
      "inputs": [
        {
          "indexed": false,
          "internalType": "uint256",
          "name": "rateStalePeriod",
          "type": "uint256"
        }
      ],
      "name": "RateStalePeriodUpdated",
      "type": "event"
    },
    {
      "anonymous": false,
      "inputs": [
        {
          "indexed": false,
          "internalType": "uint256",
          "name": "newTargetThreshold",
          "type": "uint256"
        }
      ],
      "name": "TargetThresholdUpdated",
      "type": "event"
    },
    {
      "anonymous": false,
      "inputs": [
        {
          "indexed": false,
          "internalType": "bool",
          "name": "enabled",
          "type": "bool"
        }
      ],
      "name": "TradingRewardsEnabled",
      "type": "event"
    },
    {
      "anonymous": false,
      "inputs": [
        {
          "indexed": false,
          "internalType": "uint256",
          "name": "waitingPeriodSecs",
          "type": "uint256"
        }
      ],
      "name": "WaitingPeriodSecsUpdated",
      "type": "event"
    },
    {
      "constant": true,
      "inputs": [],
      "name": "MAX_CROSS_DOMAIN_GAS_LIMIT",
      "outputs": [
        {
          "internalType": "uint256",
          "name": "",
          "type": "uint256"
        }
      ],
      "payable": false,
      "stateMutability": "view",
      "type": "function"
    },
    {
      "constant": true,
      "inputs": [],
      "name": "MAX_EXCHANGE_FEE_RATE",
      "outputs": [
        {
          "internalType": "uint256",
          "name": "",
          "type": "uint256"
        }
      ],
      "payable": false,
      "stateMutability": "view",
      "type": "function"
    },
    {
      "constant": true,
      "inputs": [],
      "name": "MAX_FEE_PERIOD_DURATION",
      "outputs": [
        {
          "internalType": "uint256",
          "name": "",
          "type": "uint256"
        }
      ],
      "payable": false,
      "stateMutability": "view",
      "type": "function"
    },
    {
      "constant": true,
      "inputs": [],
      "name": "MAX_ISSUANCE_RATIO",
      "outputs": [
        {
          "internalType": "uint256",
          "name": "",
          "type": "uint256"
        }
      ],
      "payable": false,
      "stateMutability": "view",
      "type": "function"
    },
    {
      "constant": true,
      "inputs": [],
      "name": "MAX_LIQUIDATION_DELAY",
      "outputs": [
        {
          "internalType": "uint256",
          "name": "",
          "type": "uint256"
        }
      ],
      "payable": false,
      "stateMutability": "view",
      "type": "function"
    },
    {
      "constant": true,
      "inputs": [],
      "name": "MAX_LIQUIDATION_PENALTY",
      "outputs": [
        {
          "internalType": "uint256",
          "name": "",
          "type": "uint256"
        }
      ],
      "payable": false,
      "stateMutability": "view",
      "type": "function"
    },
    {
      "constant": true,
      "inputs": [],
      "name": "MAX_LIQUIDATION_RATIO",
      "outputs": [
        {
          "internalType": "uint256",
          "name": "",
          "type": "uint256"
        }
      ],
      "payable": false,
      "stateMutability": "view",
      "type": "function"
    },
    {
      "constant": true,
      "inputs": [],
      "name": "MAX_MINIMUM_STAKE_TIME",
      "outputs": [
        {
          "internalType": "uint256",
          "name": "",
          "type": "uint256"
        }
      ],
      "payable": false,
      "stateMutability": "view",
      "type": "function"
    },
    {
      "constant": true,
      "inputs": [],
      "name": "MAX_TARGET_THRESHOLD",
      "outputs": [
        {
          "internalType": "uint256",
          "name": "",
          "type": "uint256"
        }
      ],
      "payable": false,
      "stateMutability": "view",
      "type": "function"
    },
    {
      "constant": true,
      "inputs": [],
      "name": "MIN_CROSS_DOMAIN_GAS_LIMIT",
      "outputs": [
        {
          "internalType": "uint256",
          "name": "",
          "type": "uint256"
        }
      ],
      "payable": false,
      "stateMutability": "view",
      "type": "function"
    },
    {
      "constant": true,
      "inputs": [],
      "name": "MIN_FEE_PERIOD_DURATION",
      "outputs": [
        {
          "internalType": "uint256",
          "name": "",
          "type": "uint256"
        }
      ],
      "payable": false,
      "stateMutability": "view",
      "type": "function"
    },
    {
      "constant": true,
      "inputs": [],
      "name": "MIN_LIQUIDATION_DELAY",
      "outputs": [
        {
          "internalType": "uint256",
          "name": "",
          "type": "uint256"
        }
      ],
      "payable": false,
      "stateMutability": "view",
      "type": "function"
    },
    {
      "constant": true,
      "inputs": [],
      "name": "RATIO_FROM_TARGET_BUFFER",
      "outputs": [
        {
          "internalType": "uint256",
          "name": "",
          "type": "uint256"
        }
      ],
      "payable": false,
      "stateMutability": "view",
      "type": "function"
    },
    {
      "constant": false,
      "inputs": [],
      "name": "acceptOwnership",
      "outputs": [],
      "payable": false,
      "stateMutability": "nonpayable",
      "type": "function"
    },
    {
      "constant": true,
      "inputs": [],
      "name": "aggregatorWarningFlags",
      "outputs": [
        {
          "internalType": "address",
          "name": "",
          "type": "address"
        }
      ],
      "payable": false,
      "stateMutability": "view",
      "type": "function"
    },
    {
      "constant": true,
      "inputs": [
        {
          "internalType": "enum MixinSystemSettings.CrossDomainMessageGasLimits",
          "name": "gasLimitType",
          "type": "uint8"
        }
      ],
      "name": "crossDomainMessageGasLimit",
      "outputs": [
        {
          "internalType": "uint256",
          "name": "",
          "type": "uint256"
        }
      ],
      "payable": false,
      "stateMutability": "view",
      "type": "function"
    },
    {
      "constant": true,
      "inputs": [],
      "name": "debtSnapshotStaleTime",
      "outputs": [
        {
          "internalType": "uint256",
          "name": "",
          "type": "uint256"
        }
      ],
      "payable": false,
      "stateMutability": "view",
      "type": "function"
    },
    {
      "constant": true,
      "inputs": [
        {
          "internalType": "bytes32",
          "name": "currencyKey",
          "type": "bytes32"
        }
      ],
      "name": "exchangeFeeRate",
      "outputs": [
        {
          "internalType": "uint256",
          "name": "",
          "type": "uint256"
        }
      ],
      "payable": false,
      "stateMutability": "view",
      "type": "function"
    },
    {
      "constant": true,
      "inputs": [],
      "name": "feePeriodDuration",
      "outputs": [
        {
          "internalType": "uint256",
          "name": "",
          "type": "uint256"
        }
      ],
      "payable": false,
      "stateMutability": "view",
      "type": "function"
    },
    {
      "constant": true,
      "inputs": [],
      "name": "isResolverCached",
      "outputs": [
        {
          "internalType": "bool",
          "name": "",
          "type": "bool"
        }
      ],
      "payable": false,
      "stateMutability": "view",
      "type": "function"
    },
    {
      "constant": true,
      "inputs": [],
      "name": "issuanceRatio",
      "outputs": [
        {
          "internalType": "uint256",
          "name": "",
          "type": "uint256"
        }
      ],
      "payable": false,
      "stateMutability": "view",
      "type": "function"
    },
    {
      "constant": true,
      "inputs": [],
      "name": "liquidationDelay",
      "outputs": [
        {
          "internalType": "uint256",
          "name": "",
          "type": "uint256"
        }
      ],
      "payable": false,
      "stateMutability": "view",
      "type": "function"
    },
    {
      "constant": true,
      "inputs": [],
      "name": "liquidationPenalty",
      "outputs": [
        {
          "internalType": "uint256",
          "name": "",
          "type": "uint256"
        }
      ],
      "payable": false,
      "stateMutability": "view",
      "type": "function"
    },
    {
      "constant": true,
      "inputs": [],
      "name": "liquidationRatio",
      "outputs": [
        {
          "internalType": "uint256",
          "name": "",
          "type": "uint256"
        }
      ],
      "payable": false,
      "stateMutability": "view",
      "type": "function"
    },
    {
      "constant": true,
      "inputs": [],
      "name": "minimumStakeTime",
      "outputs": [
        {
          "internalType": "uint256",
          "name": "",
          "type": "uint256"
        }
      ],
      "payable": false,
      "stateMutability": "view",
      "type": "function"
    },
    {
      "constant": false,
      "inputs": [
        {
          "internalType": "address",
          "name": "_owner",
          "type": "address"
        }
      ],
      "name": "nominateNewOwner",
      "outputs": [],
      "payable": false,
      "stateMutability": "nonpayable",
      "type": "function"
    },
    {
      "constant": true,
      "inputs": [],
      "name": "nominatedOwner",
      "outputs": [
        {
          "internalType": "address",
          "name": "",
          "type": "address"
        }
      ],
      "payable": false,
      "stateMutability": "view",
      "type": "function"
    },
    {
      "constant": true,
      "inputs": [],
      "name": "owner",
      "outputs": [
        {
          "internalType": "address",
          "name": "",
          "type": "address"
        }
      ],
      "payable": false,
      "stateMutability": "view",
      "type": "function"
    },
    {
      "constant": true,
      "inputs": [],
      "name": "priceDeviationThresholdFactor",
      "outputs": [
        {
          "internalType": "uint256",
          "name": "",
          "type": "uint256"
        }
      ],
      "payable": false,
      "stateMutability": "view",
      "type": "function"
    },
    {
      "constant": true,
      "inputs": [],
      "name": "rateStalePeriod",
      "outputs": [
        {
          "internalType": "uint256",
          "name": "",
          "type": "uint256"
        }
      ],
      "payable": false,
      "stateMutability": "view",
      "type": "function"
    },
    {
      "constant": false,
      "inputs": [],
      "name": "rebuildCache",
      "outputs": [],
      "payable": false,
      "stateMutability": "nonpayable",
      "type": "function"
    },
    {
      "constant": true,
      "inputs": [],
      "name": "resolver",
      "outputs": [
        {
          "internalType": "contract AddressResolver",
          "name": "",
          "type": "address"
        }
      ],
      "payable": false,
      "stateMutability": "view",
      "type": "function"
    },
    {
      "constant": true,
      "inputs": [],
      "name": "resolverAddressesRequired",
      "outputs": [
        {
          "internalType": "bytes32[]",
          "name": "addresses",
          "type": "bytes32[]"
        }
      ],
      "payable": false,
      "stateMutability": "view",
      "type": "function"
    },
    {
      "constant": false,
      "inputs": [
        {
          "internalType": "address",
          "name": "_flags",
          "type": "address"
        }
      ],
      "name": "setAggregatorWarningFlags",
      "outputs": [],
      "payable": false,
      "stateMutability": "nonpayable",
      "type": "function"
    },
    {
      "constant": false,
      "inputs": [
        {
          "internalType": "enum MixinSystemSettings.CrossDomainMessageGasLimits",
          "name": "_gasLimitType",
          "type": "uint8"
        },
        {
          "internalType": "uint256",
          "name": "_crossDomainMessageGasLimit",
          "type": "uint256"
        }
      ],
      "name": "setCrossDomainMessageGasLimit",
      "outputs": [],
      "payable": false,
      "stateMutability": "nonpayable",
      "type": "function"
    },
    {
      "constant": false,
      "inputs": [
        {
          "internalType": "uint256",
          "name": "_seconds",
          "type": "uint256"
        }
      ],
      "name": "setDebtSnapshotStaleTime",
      "outputs": [],
      "payable": false,
      "stateMutability": "nonpayable",
      "type": "function"
    },
    {
      "constant": false,
      "inputs": [
        {
          "internalType": "bytes32[]",
          "name": "pynthKeys",
          "type": "bytes32[]"
        },
        {
          "internalType": "uint256[]",
          "name": "exchangeFeeRates",
          "type": "uint256[]"
        }
      ],
      "name": "setExchangeFeeRateForPynths",
      "outputs": [],
      "payable": false,
      "stateMutability": "nonpayable",
      "type": "function"
    },
    {
      "constant": false,
      "inputs": [
        {
          "internalType": "uint256",
          "name": "_feePeriodDuration",
          "type": "uint256"
        }
      ],
      "name": "setFeePeriodDuration",
      "outputs": [],
      "payable": false,
      "stateMutability": "nonpayable",
      "type": "function"
    },
    {
      "constant": false,
      "inputs": [
        {
          "internalType": "uint256",
          "name": "_issuanceRatio",
          "type": "uint256"
        }
      ],
      "name": "setIssuanceRatio",
      "outputs": [],
      "payable": false,
      "stateMutability": "nonpayable",
      "type": "function"
    },
    {
      "constant": false,
      "inputs": [
        {
          "internalType": "uint256",
          "name": "time",
          "type": "uint256"
        }
      ],
      "name": "setLiquidationDelay",
      "outputs": [],
      "payable": false,
      "stateMutability": "nonpayable",
      "type": "function"
    },
    {
      "constant": false,
      "inputs": [
        {
          "internalType": "uint256",
          "name": "penalty",
          "type": "uint256"
        }
      ],
      "name": "setLiquidationPenalty",
      "outputs": [],
      "payable": false,
      "stateMutability": "nonpayable",
      "type": "function"
    },
    {
      "constant": false,
      "inputs": [
        {
          "internalType": "uint256",
          "name": "_liquidationRatio",
          "type": "uint256"
        }
      ],
      "name": "setLiquidationRatio",
      "outputs": [],
      "payable": false,
      "stateMutability": "nonpayable",
      "type": "function"
    },
    {
      "constant": false,
      "inputs": [
        {
          "internalType": "uint256",
          "name": "_seconds",
          "type": "uint256"
        }
      ],
      "name": "setMinimumStakeTime",
      "outputs": [],
      "payable": false,
      "stateMutability": "nonpayable",
      "type": "function"
    },
    {
      "constant": false,
      "inputs": [
        {
          "internalType": "uint256",
          "name": "_priceDeviationThresholdFactor",
          "type": "uint256"
        }
      ],
      "name": "setPriceDeviationThresholdFactor",
      "outputs": [],
      "payable": false,
      "stateMutability": "nonpayable",
      "type": "function"
    },
    {
      "constant": false,
      "inputs": [
        {
          "internalType": "uint256",
          "name": "period",
          "type": "uint256"
        }
      ],
      "name": "setRateStalePeriod",
      "outputs": [],
      "payable": false,
      "stateMutability": "nonpayable",
      "type": "function"
    },
    {
      "constant": false,
      "inputs": [
        {
          "internalType": "uint256",
          "name": "_percent",
          "type": "uint256"
        }
      ],
      "name": "setTargetThreshold",
      "outputs": [],
      "payable": false,
      "stateMutability": "nonpayable",
      "type": "function"
    },
    {
      "constant": false,
      "inputs": [
        {
          "internalType": "bool",
          "name": "_tradingRewardsEnabled",
          "type": "bool"
        }
      ],
      "name": "setTradingRewardsEnabled",
      "outputs": [],
      "payable": false,
      "stateMutability": "nonpayable",
      "type": "function"
    },
    {
      "constant": false,
      "inputs": [
        {
          "internalType": "uint256",
          "name": "_waitingPeriodSecs",
          "type": "uint256"
        }
      ],
      "name": "setWaitingPeriodSecs",
      "outputs": [],
      "payable": false,
      "stateMutability": "nonpayable",
      "type": "function"
    },
    {
      "constant": true,
      "inputs": [],
      "name": "targetThreshold",
      "outputs": [
        {
          "internalType": "uint256",
          "name": "",
          "type": "uint256"
        }
      ],
      "payable": false,
      "stateMutability": "view",
      "type": "function"
    },
    {
      "constant": true,
      "inputs": [],
      "name": "tradingRewardsEnabled",
      "outputs": [
        {
          "internalType": "bool",
          "name": "",
          "type": "bool"
        }
      ],
      "payable": false,
      "stateMutability": "view",
      "type": "function"
    },
    {
      "constant": true,
      "inputs": [],
      "name": "waitingPeriodSecs",
      "outputs": [
        {
          "internalType": "uint256",
          "name": "",
          "type": "uint256"
        }
      ],
      "payable": false,
      "stateMutability": "view",
      "type": "function"
    }
  ],
  "bytecode": "0x60806040523480156200001157600080fd5b506040516200442838038062004428833981810160405260408110156200003757600080fd5b810190808051906020019092919080519060200190929190505050808083600073ffffffffffffffffffffffffffffffffffffffff168173ffffffffffffffffffffffffffffffffffffffff161415620000f9576040517f08c379a00000000000000000000000000000000000000000000000000000000081526004018080602001828103825260198152602001807f4f776e657220616464726573732063616e6e6f7420626520300000000000000081525060200191505060405180910390fd5b806000806101000a81548173ffffffffffffffffffffffffffffffffffffffff021916908373ffffffffffffffffffffffffffffffffffffffff1602179055507fb532073b38c83145e3e5135377a08bf9aab55bc0fd7c1179cd4fb995d2a5159c600082604051808373ffffffffffffffffffffffffffffffffffffffff1673ffffffffffffffffffffffffffffffffffffffff1681526020018273ffffffffffffffffffffffffffffffffffffffff1673ffffffffffffffffffffffffffffffffffffffff1681526020019250505060405180910390a15080600260006101000a81548173ffffffffffffffffffffffffffffffffffffffff021916908373ffffffffffffffffffffffffffffffffffffffff1602179055505050505061420180620002276000396000f3fe608060405234801561001057600080fd5b50600436106102f15760003560e01c806379ba50971161019d578063af5355d8116100e9578063d62ae399116100a2578063e94220461161007c578063e942204614610b5f578063f1076b2514610b8d578063f344da6714610bab578063fb1b4c7e14610bc9576102f1565b8063d62ae39914610ae8578063dc8f4a1b14610b06578063e0e6393d14610b41576102f1565b8063af5355d814610a30578063af8bc66014610a4e578063b2ea705414610a6c578063b410a03414610a8a578063c193f0d814610aa8578063c58c9ae414610aca576102f1565b8063899ffef411610156578063967706e911610130578063967706e914610994578063a0cf7451146109d6578063a4ce5b71146109f4578063add0989d14610a12576102f1565b8063899ffef4146108bd5780638da5cb5b1461091c578063946ce8cd14610966576102f1565b806379ba50971461073757806379cb657a146107415780637bf823051461076f5780637ce2cc7f146107b3578063826098e8146107d1578063892571171461089f576102f1565b80632806a7431161025c57806353a47bb7116102155780636190dd7a116101ef5780636190dd7a146106b3578063635a3872146106e1578063657c6dc71461070f578063741853601461072d576102f1565b806353a47bb71461061d578063580a975c146106675780635e0117d614610685576102f1565b80632806a743146105075780632af64bd3146105355780632cce0e5414610557578063372a395a146105855780634641ab66146105a35780634c36b837146105d3576102f1565b80631627540c116102ae5780631627540c1461041d5780631775765f146104615780631e6e21901461047f57806322425fa4146104ad57806323f5589a146104cb578063242df9e1146104e9576102f1565b8063038e47fe146102f657806304c49f2c1461033b57806304f3bcec14610369578063054be0b7146103b3578063085f95cd146103e15780630ee4951b146103ff575b600080fd5b6103256004803603602081101561030c57600080fd5b81019080803560ff169060200190929190505050610be7565b6040518082815260200191505060405180910390f35b6103676004803603602081101561035157600080fd5b8101908080359060200190929190505050610bf9565b005b610371610def565b604051808273ffffffffffffffffffffffffffffffffffffffff1673ffffffffffffffffffffffffffffffffffffffff16815260200191505060405180910390f35b6103df600480360360208110156103c957600080fd5b8101908080359060200190929190505050610e15565b005b6103e9610f7a565b6040518082815260200191505060405180910390f35b610407610f86565b6040518082815260200191505060405180910390f35b61045f6004803603602081101561043357600080fd5b81019080803573ffffffffffffffffffffffffffffffffffffffff169060200190929190505050610f95565b005b610469611044565b6040518082815260200191505060405180910390f35b6104ab6004803603602081101561049557600080fd5b8101908080359060200190929190505050611053565b005b6104b5611157565b6040518082815260200191505060405180910390f35b6104d3611166565b6040518082815260200191505060405180910390f35b6104f1611175565b6040518082815260200191505060405180910390f35b6105336004803603602081101561051d57600080fd5b8101908080359060200190929190505050611184565b005b61053d6112e9565b604051808215151515815260200191505060405180910390f35b6105836004803603602081101561056d57600080fd5b81019080803590602001909291905050506114c1565b005b61058d6116e5565b6040518082815260200191505060405180910390f35b6105d1600480360360208110156105b957600080fd5b810190808035151590602001909291905050506116f4565b005b6105db611800565b604051808273ffffffffffffffffffffffffffffffffffffffff1673ffffffffffffffffffffffffffffffffffffffff16815260200191505060405180910390f35b61062561180f565b604051808273ffffffffffffffffffffffffffffffffffffffff1673ffffffffffffffffffffffffffffffffffffffff16815260200191505060405180910390f35b61066f611835565b6040518082815260200191505060405180910390f35b6106b16004803603602081101561069b57600080fd5b810190808035906020019092919050505061183c565b005b6106df600480360360208110156106c957600080fd5b8101908080359060200190929190505050611a32565b005b61070d600480360360208110156106f757600080fd5b8101908080359060200190929190505050611b36565b005b610717611c3a565b6040518082815260200191505060405180910390f35b610735611c46565b005b61073f611eaf565b005b61076d6004803603602081101561075757600080fd5b81019080803590602001909291905050506120d5565b005b6107b16004803603602081101561078557600080fd5b81019080803573ffffffffffffffffffffffffffffffffffffffff1690602001909291905050506121d9565b005b6107bb6123d8565b6040518082815260200191505060405180910390f35b61089d600480360360408110156107e757600080fd5b810190808035906020019064010000000081111561080457600080fd5b82018360208201111561081657600080fd5b8035906020019184602083028401116401000000008311171561083857600080fd5b90919293919293908035906020019064010000000081111561085957600080fd5b82018360208201111561086b57600080fd5b8035906020019184602083028401116401000000008311171561088d57600080fd5b90919293919293905050506123df565b005b6108a761268e565b6040518082815260200191505060405180910390f35b6108c561269d565b6040518080602001828103825283818151815260200191508051906020019060200280838360005b838110156109085780820151818401526020810190506108ed565b505050509050019250505060405180910390f35b61092461270f565b604051808273ffffffffffffffffffffffffffffffffffffffff1673ffffffffffffffffffffffffffffffffffffffff16815260200191505060405180910390f35b6109926004803603602081101561097c57600080fd5b8101908080359060200190929190505050612734565b005b6109c0600480360360208110156109aa57600080fd5b81019080803590602001909291905050506129c2565b6040518082815260200191505060405180910390f35b6109de6129d4565b6040518082815260200191505060405180910390f35b6109fc6129e3565b6040518082815260200191505060405180910390f35b610a1a6129ef565b6040518082815260200191505060405180910390f35b610a386129f6565b6040518082815260200191505060405180910390f35b610a56612a05565b6040518082815260200191505060405180910390f35b610a74612a0a565b6040518082815260200191505060405180910390f35b610a92612a16565b6040518082815260200191505060405180910390f35b610ab0612a25565b604051808215151515815260200191505060405180910390f35b610ad2612a34565b6040518082815260200191505060405180910390f35b610af0612a3b565b6040518082815260200191505060405180910390f35b610b3f60048036036040811015610b1c57600080fd5b81019080803560ff16906020019092919080359060200190929190505050612a42565b005b610b49612bcd565b6040518082815260200191505060405180910390f35b610b8b60048036036020811015610b7557600080fd5b8101908080359060200190929190505050612bdc565b005b610b95612d59565b6040518082815260200191505060405180910390f35b610bb3612d60565b6040518082815260200191505060405180910390f35b610bd1612d67565b6040518082815260200191505060405180910390f35b6000610bf282612d73565b9050919050565b610c01612e3f565b62015180811015610c7a576040517f08c379a000000000000000000000000000000000000000000000000000000000815260040180806020018281038252601f8152602001807f76616c7565203c204d494e5f4645455f504552494f445f4455524154494f4e0081525060200191505060405180910390fd5b624f1a00811115610cf3576040517f08c379a000000000000000000000000000000000000000000000000000000000815260040180806020018281038252601f8152602001807f76616c7565203e204d41585f4645455f504552494f445f4455524154494f4e0081525060200191505060405180910390fd5b610cfb612ee6565b73ffffffffffffffffffffffffffffffffffffffff16631d5b277f7f53797374656d53657474696e67730000000000000000000000000000000000007f666565506572696f644475726174696f6e000000000000000000000000000000846040518463ffffffff1660e01b8152600401808481526020018381526020018281526020019350505050600060405180830381600087803b158015610d9d57600080fd5b505af1158015610db1573d6000803e3d6000fd5b505050507f791bd58dd9719b5eb5ccdd6ec4d5c459b0ab8efcf59b723cf477693c0889eacd816040518082815260200191505060405180910390a150565b600260009054906101000a900473ffffffffffffffffffffffffffffffffffffffff1681565b610e1d612e3f565b670de0b6b3a7640000811115610e7e576040517f08c379a00000000000000000000000000000000000000000000000000000000081526004018080602001828103825260338152602001806141726033913960400191505060405180910390fd5b610e86612ee6565b73ffffffffffffffffffffffffffffffffffffffff16631d5b277f7f53797374656d53657474696e67730000000000000000000000000000000000007f69737375616e6365526174696f00000000000000000000000000000000000000846040518463ffffffff1660e01b8152600401808481526020018381526020018281526020019350505050600060405180830381600087803b158015610f2857600080fd5b505af1158015610f3c573d6000803e3d6000fd5b505050507f63b22e09cc3a33e847c063e35f887bd4ea96bc8c0f93f1f8c311e4fa6d885452816040518082815260200191505060405180910390a150565b6703782dace9d9000081565b6000610f90612f16565b905090565b610f9d612e3f565b80600160006101000a81548173ffffffffffffffffffffffffffffffffffffffff021916908373ffffffffffffffffffffffffffffffffffffffff1602179055507f906a1c6bd7e3091ea86693dd029a831c19049ce77f1dce2ce0bab1cacbabce2281604051808273ffffffffffffffffffffffffffffffffffffffff1673ffffffffffffffffffffffffffffffffffffffff16815260200191505060405180910390a150565b600061104e612ff8565b905090565b61105b612e3f565b611063612ee6565b73ffffffffffffffffffffffffffffffffffffffff16631d5b277f7f53797374656d53657474696e67730000000000000000000000000000000000007f7072696365446576696174696f6e5468726573686f6c64466163746f72000000846040518463ffffffff1660e01b8152600401808481526020018381526020018281526020019350505050600060405180830381600087803b15801561110557600080fd5b505af1158015611119573d6000803e3d6000fd5b505050507f6e65c7d32a9129ebc4e4e6d755e2a9668753c046f4b128ac8aeb4f3e5446a1e5816040518082815260200191505060405180910390a150565b60006111616130da565b905090565b60006111706131bc565b905090565b600061117f61329e565b905090565b61118c612e3f565b6703782dace9d900008111156111ed576040517f08c379a00000000000000000000000000000000000000000000000000000000081526004018080602001828103825260218152602001806140946021913960400191505060405180910390fd5b6111f5612ee6565b73ffffffffffffffffffffffffffffffffffffffff16631d5b277f7f53797374656d53657474696e67730000000000000000000000000000000000007f6c69717569646174696f6e50656e616c74790000000000000000000000000000846040518463ffffffff1660e01b8152600401808481526020018381526020018281526020019350505050600060405180830381600087803b15801561129757600080fd5b505af11580156112ab573d6000803e3d6000fd5b505050507fbfb22c07314f4682bba789860ceb851eb8cea2d867920332b2a42cf56be5b2e9816040518082815260200191505060405180910390a150565b600060606112f561269d565b905060008090505b81518110156114b757600082828151811061131457fe5b602002602001015190506003600082815260200190815260200160002060009054906101000a900473ffffffffffffffffffffffffffffffffffffffff1673ffffffffffffffffffffffffffffffffffffffff16600260009054906101000a900473ffffffffffffffffffffffffffffffffffffffff1673ffffffffffffffffffffffffffffffffffffffff166321f8a721836040518263ffffffff1660e01b81526004018082815260200191505060206040518083038186803b1580156113db57600080fd5b505afa1580156113ef573d6000803e3d6000fd5b505050506040513d602081101561140557600080fd5b810190808051906020019092919050505073ffffffffffffffffffffffffffffffffffffffff161415806114985750600073ffffffffffffffffffffffffffffffffffffffff166003600083815260200190815260200160002060009054906101000a900473ffffffffffffffffffffffffffffffffffffffff1673ffffffffffffffffffffffffffffffffffffffff16145b156114a957600093505050506114be565b5080806001019150506112fd565b5060019150505b90565b6114c9612e3f565b6032811115611540576040517f08c379a00000000000000000000000000000000000000000000000000000000081526004018080602001828103825260128152602001807f5468726573686f6c6420746f6f2068696768000000000000000000000000000081525060200191505060405180910390fd5b60006115e660646115d873__$b8d33eeb36ac0d1e81cd70156e0043e778$__63907af6c06040518163ffffffff1660e01b815260040160206040518083038186803b15801561158e57600080fd5b505af41580156115a2573d6000803e3d6000fd5b505050506040513d60208110156115b857600080fd5b81019080805190602001909291905050508561338090919063ffffffff16565b61340690919063ffffffff16565b90506115f0612ee6565b73ffffffffffffffffffffffffffffffffffffffff16631d5b277f7f53797374656d53657474696e67730000000000000000000000000000000000007f7461726765745468726573686f6c640000000000000000000000000000000000846040518463ffffffff1660e01b8152600401808481526020018381526020018281526020019350505050600060405180830381600087803b15801561169257600080fd5b505af11580156116a6573d6000803e3d6000fd5b505050507fb2b3a840c101d8e7f0cf8d80d3868976968714347038fe89b36c5031f94dab12816040518082815260200191505060405180910390a15050565b60006116ef613495565b905090565b6116fc612e3f565b611704612ee6565b73ffffffffffffffffffffffffffffffffffffffff16633f28a6fc7f53797374656d53657474696e67730000000000000000000000000000000000007f74726164696e6752657761726473456e61626c65640000000000000000000000846040518463ffffffff1660e01b815260040180848152602001838152602001821515151581526020019350505050600060405180830381600087803b1580156117aa57600080fd5b505af11580156117be573d6000803e3d6000fd5b505050507fe11c1893b6f97decd3ac13637137734a4b75d159e899e5a8abb48470ab0bc4fd81604051808215151515815260200191505060405180910390a150565b600061180a613577565b905090565b600160009054906101000a900473ffffffffffffffffffffffffffffffffffffffff1681565b62093a8081565b611844612e3f565b62278d008111156118bd576040517f08c379a00000000000000000000000000000000000000000000000000000000081526004018080602001828103825260198152602001807f4d757374206265206c657373207468616e20333020646179730000000000000081525060200191505060405180910390fd5b62015180811015611936576040517f08c379a000000000000000000000000000000000000000000000000000000000815260040180806020018281038252601a8152602001807f4d7573742062652067726561746572207468616e20312064617900000000000081525060200191505060405180910390fd5b61193e612ee6565b73ffffffffffffffffffffffffffffffffffffffff16631d5b277f7f53797374656d53657474696e67730000000000000000000000000000000000007f6c69717569646174696f6e44656c617900000000000000000000000000000000846040518463ffffffff1660e01b8152600401808481526020018381526020018281526020019350505050600060405180830381600087803b1580156119e057600080fd5b505af11580156119f4573d6000803e3d6000fd5b505050507f9917e32433edcb65f8982c1b2c26c3469468308456f93cf34b98c1b0459c5398816040518082815260200191505060405180910390a150565b611a3a612e3f565b611a42612ee6565b73ffffffffffffffffffffffffffffffffffffffff16631d5b277f7f53797374656d53657474696e67730000000000000000000000000000000000007f64656274536e617073686f745374616c6554696d650000000000000000000000846040518463ffffffff1660e01b8152600401808481526020018381526020018281526020019350505050600060405180830381600087803b158015611ae457600080fd5b505af1158015611af8573d6000803e3d6000fd5b505050507f9795be9f1478ed09e9e47e67318b8aa7a0c0213170403191099bf7dd435fb4d7816040518082815260200191505060405180910390a150565b611b3e612e3f565b611b46612ee6565b73ffffffffffffffffffffffffffffffffffffffff16631d5b277f7f53797374656d53657474696e67730000000000000000000000000000000000007f77616974696e67506572696f6453656373000000000000000000000000000000846040518463ffffffff1660e01b8152600401808481526020018381526020018281526020019350505050600060405180830381600087803b158015611be857600080fd5b505af1158015611bfc573d6000803e3d6000fd5b505050507fc32c92cac11e29883e0fb2d9e38230cc510e3bda48abc270b780de60bb8465f8816040518082815260200191505060405180910390a150565b670de0b6b3a764000081565b6060611c5061269d565b905060008090505b8151811015611eab576000828281518110611c6f57fe5b602002602001015190506000600260009054906101000a900473ffffffffffffffffffffffffffffffffffffffff1673ffffffffffffffffffffffffffffffffffffffff1663dacb2d01838460405160200180807f5265736f6c766572206d697373696e67207461726765743a20000000000000008152506019018281526020019150506040516020818303038152906040526040518363ffffffff1660e01b81526004018083815260200180602001828103825283818151815260200191508051906020019080838360005b83811015611d57578082015181840152602081019050611d3c565b50505050905090810190601f168015611d845780820380516001836020036101000a031916815260200191505b50935050505060206040518083038186803b158015611da257600080fd5b505afa158015611db6573d6000803e3d6000fd5b505050506040513d6020811015611dcc57600080fd5b81019080805190602001909291905050509050806003600084815260200190815260200160002060006101000a81548173ffffffffffffffffffffffffffffffffffffffff021916908373ffffffffffffffffffffffffffffffffffffffff1602179055507f88a93678a3692f6789d9546fc621bf7234b101ddb7d4fe479455112831b8aa688282604051808381526020018273ffffffffffffffffffffffffffffffffffffffff1673ffffffffffffffffffffffffffffffffffffffff1681526020019250505060405180910390a150508080600101915050611c58565b5050565b600160009054906101000a900473ffffffffffffffffffffffffffffffffffffffff1673ffffffffffffffffffffffffffffffffffffffff163373ffffffffffffffffffffffffffffffffffffffff1614611f55576040517f08c379a00000000000000000000000000000000000000000000000000000000081526004018080602001828103825260358152602001806140b56035913960400191505060405180910390fd5b7fb532073b38c83145e3e5135377a08bf9aab55bc0fd7c1179cd4fb995d2a5159c6000809054906101000a900473ffffffffffffffffffffffffffffffffffffffff16600160009054906101000a900473ffffffffffffffffffffffffffffffffffffffff16604051808373ffffffffffffffffffffffffffffffffffffffff1673ffffffffffffffffffffffffffffffffffffffff1681526020018273ffffffffffffffffffffffffffffffffffffffff1673ffffffffffffffffffffffffffffffffffffffff1681526020019250505060405180910390a1600160009054906101000a900473ffffffffffffffffffffffffffffffffffffffff166000806101000a81548173ffffffffffffffffffffffffffffffffffffffff021916908373ffffffffffffffffffffffffffffffffffffffff1602179055506000600160006101000a81548173ffffffffffffffffffffffffffffffffffffffff021916908373ffffffffffffffffffffffffffffffffffffffff160217905550565b6120dd612e3f565b6120e5612ee6565b73ffffffffffffffffffffffffffffffffffffffff16631d5b277f7f53797374656d53657474696e67730000000000000000000000000000000000007f726174655374616c65506572696f640000000000000000000000000000000000846040518463ffffffff1660e01b8152600401808481526020018381526020018281526020019350505050600060405180830381600087803b15801561218757600080fd5b505af115801561219b573d6000803e3d6000fd5b505050507f16529d8c407b08938da67de7fa4319199baffce4f5d1971f812cc770b0237e66816040518082815260200191505060405180910390a150565b6121e1612e3f565b600073ffffffffffffffffffffffffffffffffffffffff168173ffffffffffffffffffffffffffffffffffffffff161415612284576040517f08c379a000000000000000000000000000000000000000000000000000000000815260040180806020018281038252601b8152602001807f56616c69642061646472657373206d75737420626520676976656e000000000081525060200191505060405180910390fd5b61228c612ee6565b73ffffffffffffffffffffffffffffffffffffffff16634dca09787f53797374656d53657474696e67730000000000000000000000000000000000007f61676772656761746f725761726e696e67466c61677300000000000000000000846040518463ffffffff1660e01b8152600401808481526020018381526020018273ffffffffffffffffffffffffffffffffffffffff1673ffffffffffffffffffffffffffffffffffffffff1681526020019350505050600060405180830381600087803b15801561235a57600080fd5b505af115801561236e573d6000803e3d6000fd5b505050507f0f4cbdee769ea02d5757b91905563555cc648fe42fc3ef201e28d97d2bbde96581604051808273ffffffffffffffffffffffffffffffffffffffff1673ffffffffffffffffffffffffffffffffffffffff16815260200191505060405180910390a150565b622dc6c081565b6123e7612e3f565b818190508484905014612462576040517f08c379a00000000000000000000000000000000000000000000000000000000081526004018080602001828103825260188152602001807f4172726179206c656e6774687320646f6e74206d61746368000000000000000081525060200191505060405180910390fd5b60008090505b848490508110156126875767016345785d8a000083838381811061248857fe5b905060200201351115612503576040517f08c379a000000000000000000000000000000000000000000000000000000000815260040180806020018281038252601e8152602001807f4d41585f45584348414e47455f4645455f52415445206578636565646564000081525060200191505060405180910390fd5b61250b612ee6565b73ffffffffffffffffffffffffffffffffffffffff16631d5b277f7f53797374656d53657474696e67730000000000000000000000000000000000007f65786368616e676546656552617465000000000000000000000000000000000088888681811061257457fe5b905060200201356040516020018083815260200182815260200192505050604051602081830303815290604052805190602001208686868181106125b457fe5b905060200201356040518463ffffffff1660e01b8152600401808481526020018381526020018281526020019350505050600060405180830381600087803b1580156125ff57600080fd5b505af1158015612613573d6000803e3d6000fd5b505050507fbbdab54f0da6d720d21f53e4d6f5bbe83e5a2f74c1354175140ea74f8e90c77e85858381811061264457fe5b9050602002013584848481811061265757fe5b90506020020135604051808381526020018281526020019250505060405180910390a18080600101915050612468565b5050505050565b6000612698613659565b905090565b606060016040519080825280602002602001820160405280156126cf5781602001602082028038833980820191505090505b5090507f466c657869626c6553746f7261676500000000000000000000000000000000008160008151811061270057fe5b60200260200101818152505090565b6000809054906101000a900473ffffffffffffffffffffffffffffffffffffffff1681565b61273c612e3f565b6127ee6127d761274a6131bc565b73__$b8d33eeb36ac0d1e81cd70156e0043e778$__63907af6c06040518163ffffffff1660e01b815260040160206040518083038186803b15801561278e57600080fd5b505af41580156127a2573d6000803e3d6000fd5b505050506040513d60208110156127b857600080fd5b810190808051906020019092919050505061373b90919063ffffffff16565b670de0b6b3a76400006137c390919063ffffffff16565b811115612846576040517f08c379a00000000000000000000000000000000000000000000000000000000081526004018080602001828103825260388152602001806140ea6038913960400191505060405180910390fd5b600061286a671bc16d674ec8000061285c6137f9565b6138db90919063ffffffff16565b9050808210156128c5576040517f08c379a00000000000000000000000000000000000000000000000000000000081526004018080602001828103825260288152602001806141a56028913960400191505060405180910390fd5b6128cd612ee6565b73ffffffffffffffffffffffffffffffffffffffff16631d5b277f7f53797374656d53657474696e67730000000000000000000000000000000000007f6c69717569646174696f6e526174696f00000000000000000000000000000000856040518463ffffffff1660e01b8152600401808481526020018381526020018281526020019350505050600060405180830381600087803b15801561296f57600080fd5b505af1158015612983573d6000803e3d6000fd5b505050507f5568be83e5cf7405adf8fb39305e2cdf49c43336606d23c3e0d3fe54e205150a826040518082815260200191505060405180910390a15050565b60006129cd82613908565b9050919050565b60006129de613a1a565b905090565b671bc16d674ec8000081565b6201518081565b6000612a00613afc565b905090565b603281565b670de0b6b3a764000081565b6000612a206137f9565b905090565b6000612a2f613bde565b905090565b627a120081565b6201518081565b612a4a612e3f565b622dc6c08110158015612a605750627a12008111155b612ad2576040517f08c379a000000000000000000000000000000000000000000000000000000000815260040180806020018281038252601d8152602001807f4f7574206f662072616e67652078446f6d61696e206761734c696d697400000081525060200191505060405180910390fd5b612ada612ee6565b73ffffffffffffffffffffffffffffffffffffffff16631d5b277f7f53797374656d53657474696e6773000000000000000000000000000000000000612b1f85613cc0565b846040518463ffffffff1660e01b8152600401808481526020018381526020018281526020019350505050600060405180830381600087803b158015612b6457600080fd5b505af1158015612b78573d6000803e3d6000fd5b505050507fbf62a396f632016f0e0cffedb18ee9be41a161c79cee3b64736b0c97a924554a828260405180836003811115612baf57fe5b60ff1681526020018281526020019250505060405180910390a15050565b6000612bd7613e4f565b905090565b612be4612e3f565b62093a80811115612c5d576040517f08c379a00000000000000000000000000000000000000000000000000000000081526004018080602001828103825260208152602001807f7374616b652074696d6520657863656564206d6178696d756d2031207765656b81525060200191505060405180910390fd5b612c65612ee6565b73ffffffffffffffffffffffffffffffffffffffff16631d5b277f7f53797374656d53657474696e67730000000000000000000000000000000000007f6d696e696d756d5374616b6554696d6500000000000000000000000000000000846040518463ffffffff1660e01b8152600401808481526020018381526020018281526020019350505050600060405180830381600087803b158015612d0757600080fd5b505af1158015612d1b573d6000803e3d6000fd5b505050507f2b0fa66d155c9598699cb6569577f27b95729bbf580268eed39db6bc4e814477816040518082815260200191505060405180910390a150565b62278d0081565b624f1a0081565b67016345785d8a000081565b6000612d7d612ee6565b73ffffffffffffffffffffffffffffffffffffffff166323257c2b7f53797374656d53657474696e6773000000000000000000000000000000000000612dc285613cc0565b6040518363ffffffff1660e01b8152600401808381526020018281526020019250505060206040518083038186803b158015612dfd57600080fd5b505afa158015612e11573d6000803e3d6000fd5b505050506040513d6020811015612e2757600080fd5b81019080805190602001909291905050509050919050565b6000809054906101000a900473ffffffffffffffffffffffffffffffffffffffff1673ffffffffffffffffffffffffffffffffffffffff163373ffffffffffffffffffffffffffffffffffffffff1614612ee4576040517f08c379a000000000000000000000000000000000000000000000000000000000815260040180806020018281038252602f815260200180614122602f913960400191505060405180910390fd5b565b6000612f117f466c657869626c6553746f726167650000000000000000000000000000000000613f31565b905090565b6000612f20612ee6565b73ffffffffffffffffffffffffffffffffffffffff166323257c2b7f53797374656d53657474696e67730000000000000000000000000000000000007f726174655374616c65506572696f6400000000000000000000000000000000006040518363ffffffff1660e01b8152600401808381526020018281526020019250505060206040518083038186803b158015612fb857600080fd5b505afa158015612fcc573d6000803e3d6000fd5b505050506040513d6020811015612fe257600080fd5b8101908080519060200190929190505050905090565b6000613002612ee6565b73ffffffffffffffffffffffffffffffffffffffff166323257c2b7f53797374656d53657474696e67730000000000000000000000000000000000007f6c69717569646174696f6e526174696f000000000000000000000000000000006040518363ffffffff1660e01b8152600401808381526020018281526020019250505060206040518083038186803b15801561309a57600080fd5b505afa1580156130ae573d6000803e3d6000fd5b505050506040513d60208110156130c457600080fd5b8101908080519060200190929190505050905090565b60006130e4612ee6565b73ffffffffffffffffffffffffffffffffffffffff166323257c2b7f53797374656d53657474696e67730000000000000000000000000000000000007f666565506572696f644475726174696f6e0000000000000000000000000000006040518363ffffffff1660e01b8152600401808381526020018281526020019250505060206040518083038186803b15801561317c57600080fd5b505afa158015613190573d6000803e3d6000fd5b505050506040513d60208110156131a657600080fd5b8101908080519060200190929190505050905090565b60006131c6612ee6565b73ffffffffffffffffffffffffffffffffffffffff166323257c2b7f53797374656d53657474696e67730000000000000000000000000000000000007f6c69717569646174696f6e50656e616c747900000000000000000000000000006040518363ffffffff1660e01b8152600401808381526020018281526020019250505060206040518083038186803b15801561325e57600080fd5b505afa158015613272573d6000803e3d6000fd5b505050506040513d602081101561328857600080fd5b8101908080519060200190929190505050905090565b60006132a8612ee6565b73ffffffffffffffffffffffffffffffffffffffff166323257c2b7f53797374656d53657474696e67730000000000000000000000000000000000007f6d696e696d756d5374616b6554696d65000000000000000000000000000000006040518363ffffffff1660e01b8152600401808381526020018281526020019250505060206040518083038186803b15801561334057600080fd5b505afa158015613354573d6000803e3d6000fd5b505050506040513d602081101561336a57600080fd5b8101908080519060200190929190505050905090565b6000808314156133935760009050613400565b60008284029050828482816133a457fe5b04146133fb576040517f08c379a00000000000000000000000000000000000000000000000000000000081526004018080602001828103825260218152602001806141516021913960400191505060405180910390fd5b809150505b92915050565b600080821161347d576040517f08c379a000000000000000000000000000000000000000000000000000000000815260040180806020018281038252601a8152602001807f536166654d6174683a206469766973696f6e206279207a65726f00000000000081525060200191505060405180910390fd5b600082848161348857fe5b0490508091505092915050565b600061349f612ee6565b73ffffffffffffffffffffffffffffffffffffffff166323257c2b7f53797374656d53657474696e67730000000000000000000000000000000000007f7072696365446576696174696f6e5468726573686f6c64466163746f720000006040518363ffffffff1660e01b8152600401808381526020018281526020019250505060206040518083038186803b15801561353757600080fd5b505afa15801561354b573d6000803e3d6000fd5b505050506040513d602081101561356157600080fd5b8101908080519060200190929190505050905090565b6000613581612ee6565b73ffffffffffffffffffffffffffffffffffffffff16639ee5955a7f53797374656d53657474696e67730000000000000000000000000000000000007f61676772656761746f725761726e696e67466c616773000000000000000000006040518363ffffffff1660e01b8152600401808381526020018281526020019250505060206040518083038186803b15801561361957600080fd5b505afa15801561362d573d6000803e3d6000fd5b505050506040513d602081101561364357600080fd5b8101908080519060200190929190505050905090565b6000613663612ee6565b73ffffffffffffffffffffffffffffffffffffffff166323257c2b7f53797374656d53657474696e67730000000000000000000000000000000000007f77616974696e67506572696f64536563730000000000000000000000000000006040518363ffffffff1660e01b8152600401808381526020018281526020019250505060206040518083038186803b1580156136fb57600080fd5b505afa15801561370f573d6000803e3d6000fd5b505050506040513d602081101561372557600080fd5b8101908080519060200190929190505050905090565b6000808284019050838110156137b9576040517f08c379a000000000000000000000000000000000000000000000000000000000815260040180806020018281038252601b8152602001807f536166654d6174683a206164646974696f6e206f766572666c6f77000000000081525060200191505060405180910390fd5b8091505092915050565b60006137f1826137e3601260ff16600a0a8661338090919063ffffffff16565b61340690919063ffffffff16565b905092915050565b6000613803612ee6565b73ffffffffffffffffffffffffffffffffffffffff166323257c2b7f53797374656d53657474696e67730000000000000000000000000000000000007f69737375616e6365526174696f000000000000000000000000000000000000006040518363ffffffff1660e01b8152600401808381526020018281526020019250505060206040518083038186803b15801561389b57600080fd5b505afa1580156138af573d6000803e3d6000fd5b505050506040513d60208110156138c557600080fd5b8101908080519060200190929190505050905090565b6000601260ff16600a0a6138f8838561338090919063ffffffff16565b816138ff57fe5b04905092915050565b6000613912612ee6565b73ffffffffffffffffffffffffffffffffffffffff166323257c2b7f53797374656d53657474696e67730000000000000000000000000000000000007f65786368616e6765466565526174650000000000000000000000000000000000856040516020018083815260200182815260200192505050604051602081830303815290604052805190602001206040518363ffffffff1660e01b8152600401808381526020018281526020019250505060206040518083038186803b1580156139d857600080fd5b505afa1580156139ec573d6000803e3d6000fd5b505050506040513d6020811015613a0257600080fd5b81019080805190602001909291905050509050919050565b6000613a24612ee6565b73ffffffffffffffffffffffffffffffffffffffff166323257c2b7f53797374656d53657474696e67730000000000000000000000000000000000007f6c69717569646174696f6e44656c6179000000000000000000000000000000006040518363ffffffff1660e01b8152600401808381526020018281526020019250505060206040518083038186803b158015613abc57600080fd5b505afa158015613ad0573d6000803e3d6000fd5b505050506040513d6020811015613ae657600080fd5b8101908080519060200190929190505050905090565b6000613b06612ee6565b73ffffffffffffffffffffffffffffffffffffffff166323257c2b7f53797374656d53657474696e67730000000000000000000000000000000000007f64656274536e617073686f745374616c6554696d6500000000000000000000006040518363ffffffff1660e01b8152600401808381526020018281526020019250505060206040518083038186803b158015613b9e57600080fd5b505afa158015613bb2573d6000803e3d6000fd5b505050506040513d6020811015613bc857600080fd5b8101908080519060200190929190505050905090565b6000613be8612ee6565b73ffffffffffffffffffffffffffffffffffffffff1663d994502d7f53797374656d53657474696e67730000000000000000000000000000000000007f74726164696e6752657761726473456e61626c656400000000000000000000006040518363ffffffff1660e01b8152600401808381526020018281526020019250505060206040518083038186803b158015613c8057600080fd5b505afa158015613c94573d6000803e3d6000fd5b505050506040513d6020811015613caa57600080fd5b8101908080519060200190929190505050905090565b6000806003811115613cce57fe5b826003811115613cda57fe5b1415613d08577f63726f7373446f6d61696e4465706f7369744761734c696d69740000000000009050613e4a565b60016003811115613d1557fe5b826003811115613d2157fe5b1415613d4f577f63726f7373446f6d61696e457363726f774761734c696d6974000000000000009050613e4a565b60026003811115613d5c57fe5b826003811115613d6857fe5b1415613d96577f63726f7373446f6d61696e5265776172644761734c696d6974000000000000009050613e4a565b600380811115613da257fe5b826003811115613dae57fe5b1415613ddc577f63726f7373446f6d61696e5769746864726177616c4761734c696d69740000009050613e4a565b6040517f08c379a00000000000000000000000000000000000000000000000000000000081526004018080602001828103825260168152602001807f556e6b6e6f776e20676173206c696d697420747970650000000000000000000081525060200191505060405180910390fd5b919050565b6000613e59612ee6565b73ffffffffffffffffffffffffffffffffffffffff166323257c2b7f53797374656d53657474696e67730000000000000000000000000000000000007f7461726765745468726573686f6c6400000000000000000000000000000000006040518363ffffffff1660e01b8152600401808381526020018281526020019250505060206040518083038186803b158015613ef157600080fd5b505afa158015613f05573d6000803e3d6000fd5b505050506040513d6020811015613f1b57600080fd5b8101908080519060200190929190505050905090565b6000806003600084815260200190815260200160002060009054906101000a900473ffffffffffffffffffffffffffffffffffffffff169050600073ffffffffffffffffffffffffffffffffffffffff168173ffffffffffffffffffffffffffffffffffffffff1614158360405160200180807f4d697373696e6720616464726573733a2000000000000000000000000000000081525060110182815260200191505060405160208183030381529060405290614089576040517f08c379a00000000000000000000000000000000000000000000000000000000081526004018080602001828103825283818151815260200191508051906020019080838360005b8381101561404e578082015181840152602081019050614033565b50505050905090810190601f16801561407b5780820380516001836020036101000a031916815260200191505b509250505060405180910390fd5b508091505091905056fe70656e616c7479203e204d41585f4c49515549444154494f4e5f50454e414c5459596f75206d757374206265206e6f6d696e61746564206265666f726520796f752063616e20616363657074206f776e6572736869706c69717569646174696f6e526174696f203e204d41585f4c49515549444154494f4e5f524154494f202f202831202b2070656e616c7479294f6e6c792074686520636f6e7472616374206f776e6572206d617920706572666f726d207468697320616374696f6e536166654d6174683a206d756c7469706c69636174696f6e206f766572666c6f774e65772069737375616e636520726174696f2063616e6e6f7420657863656564204d41585f49535355414e43455f524154494f6c69717569646174696f6e526174696f203c204d494e5f4c49515549444154494f4e5f524154494fa265627a7a72315820f7e43b3087e06d5b20827346f5cd122f8ced51c9b7f1443f2388de95c68e229f64736f6c63430005100032",
  "linkReferences": {
    "contracts/SafeDecimalMath.sol": {
      "SafeDecimalMath": [
        {
          "length": 20,
          "start": 6003
        },
        {
          "length": 20,
          "start": 10611
        }
      ]
    }
  },
  "deployedLinkReferences": {
    "contracts/SafeDecimalMath.sol": {
      "SafeDecimalMath": [
        {
          "length": 20,
          "start": 5452
        },
        {
          "length": 20,
          "start": 10060
        }
      ]
    }
  }
}