{
  "_format": "hh-sol-artifact-1",
  "contractName": "SystemStatus",
  "sourceName": "contracts/SystemStatus.sol",
  "abi": [
    {
      "inputs": [
        {
          "internalType": "address",
          "name": "_owner",
          "type": "address"
        }
      ],
      "payable": false,
      "stateMutability": "nonpayable",
      "type": "constructor"
    },
    {
      "anonymous": false,
      "inputs": [
        {
          "indexed": true,
          "internalType": "bytes32",
          "name": "section",
          "type": "bytes32"
        },
        {
          "indexed": true,
          "internalType": "address",
          "name": "account",
          "type": "address"
        },
        {
          "indexed": false,
          "internalType": "bool",
          "name": "canSuspend",
          "type": "bool"
        },
        {
          "indexed": false,
          "internalType": "bool",
          "name": "canResume",
          "type": "bool"
        }
      ],
      "name": "AccessControlUpdated",
      "type": "event"
    },
    {
      "anonymous": false,
      "inputs": [
        {
          "indexed": false,
          "internalType": "uint256",
          "name": "reason",
          "type": "uint256"
        }
      ],
      "name": "ExchangeResumed",
      "type": "event"
    },
    {
      "anonymous": false,
      "inputs": [
        {
          "indexed": false,
          "internalType": "uint256",
          "name": "reason",
          "type": "uint256"
        }
      ],
      "name": "ExchangeSuspended",
      "type": "event"
    },
    {
      "anonymous": false,
      "inputs": [
        {
          "indexed": false,
          "internalType": "uint256",
          "name": "reason",
          "type": "uint256"
        }
      ],
      "name": "IssuanceResumed",
      "type": "event"
    },
    {
      "anonymous": false,
      "inputs": [
        {
          "indexed": false,
          "internalType": "uint256",
          "name": "reason",
          "type": "uint256"
        }
      ],
      "name": "IssuanceSuspended",
      "type": "event"
    },
    {
      "anonymous": false,
      "inputs": [
        {
          "indexed": false,
          "internalType": "address",
          "name": "oldOwner",
          "type": "address"
        },
        {
          "indexed": false,
          "internalType": "address",
          "name": "newOwner",
          "type": "address"
        }
      ],
      "name": "OwnerChanged",
      "type": "event"
    },
    {
      "anonymous": false,
      "inputs": [
        {
          "indexed": false,
          "internalType": "address",
          "name": "newOwner",
          "type": "address"
        }
      ],
      "name": "OwnerNominated",
      "type": "event"
    },
    {
      "anonymous": false,
      "inputs": [
        {
          "indexed": false,
          "internalType": "bytes32",
          "name": "currencyKey",
          "type": "bytes32"
        },
        {
          "indexed": false,
          "internalType": "uint256",
          "name": "reason",
          "type": "uint256"
        }
      ],
      "name": "PynthResumed",
      "type": "event"
    },
    {
      "anonymous": false,
      "inputs": [
        {
          "indexed": false,
          "internalType": "bytes32",
          "name": "currencyKey",
          "type": "bytes32"
        },
        {
          "indexed": false,
          "internalType": "uint256",
          "name": "reason",
          "type": "uint256"
        }
      ],
      "name": "PynthSuspended",
      "type": "event"
    },
    {
      "anonymous": false,
      "inputs": [
        {
          "indexed": false,
          "internalType": "uint256",
          "name": "reason",
          "type": "uint256"
        }
      ],
      "name": "SystemResumed",
      "type": "event"
    },
    {
      "anonymous": false,
      "inputs": [
        {
          "indexed": false,
          "internalType": "uint256",
          "name": "reason",
          "type": "uint256"
        }
      ],
      "name": "SystemSuspended",
      "type": "event"
    },
    {
      "constant": true,
      "inputs": [],
      "name": "SECTION_EXCHANGE",
      "outputs": [
        {
          "internalType": "bytes32",
          "name": "",
          "type": "bytes32"
        }
      ],
      "payable": false,
      "stateMutability": "view",
      "type": "function"
    },
    {
      "constant": true,
      "inputs": [],
      "name": "SECTION_ISSUANCE",
      "outputs": [
        {
          "internalType": "bytes32",
          "name": "",
          "type": "bytes32"
        }
      ],
      "payable": false,
      "stateMutability": "view",
      "type": "function"
    },
    {
      "constant": true,
      "inputs": [],
      "name": "SECTION_PYNTH",
      "outputs": [
        {
          "internalType": "bytes32",
          "name": "",
          "type": "bytes32"
        }
      ],
      "payable": false,
      "stateMutability": "view",
      "type": "function"
    },
    {
      "constant": true,
      "inputs": [],
      "name": "SECTION_SYSTEM",
      "outputs": [
        {
          "internalType": "bytes32",
          "name": "",
          "type": "bytes32"
        }
      ],
      "payable": false,
      "stateMutability": "view",
      "type": "function"
    },
    {
      "constant": true,
      "inputs": [],
      "name": "SUSPENSION_REASON_UPGRADE",
      "outputs": [
        {
          "internalType": "uint248",
          "name": "",
          "type": "uint248"
        }
      ],
      "payable": false,
      "stateMutability": "view",
      "type": "function"
    },
    {
      "constant": false,
      "inputs": [],
      "name": "acceptOwnership",
      "outputs": [],
      "payable": false,
      "stateMutability": "nonpayable",
      "type": "function"
    },
    {
      "constant": true,
      "inputs": [
        {
          "internalType": "bytes32",
          "name": "",
          "type": "bytes32"
        },
        {
          "internalType": "address",
          "name": "",
          "type": "address"
        }
      ],
      "name": "accessControl",
      "outputs": [
        {
          "internalType": "bool",
          "name": "canSuspend",
          "type": "bool"
        },
        {
          "internalType": "bool",
          "name": "canResume",
          "type": "bool"
        }
      ],
      "payable": false,
      "stateMutability": "view",
      "type": "function"
    },
    {
      "constant": true,
      "inputs": [],
      "name": "exchangeSuspension",
      "outputs": [
        {
          "internalType": "bool",
          "name": "suspended",
          "type": "bool"
        },
        {
          "internalType": "uint248",
          "name": "reason",
          "type": "uint248"
        }
      ],
      "payable": false,
      "stateMutability": "view",
      "type": "function"
    },
    {
      "constant": true,
      "inputs": [
        {
          "internalType": "bytes32[]",
          "name": "pynths",
          "type": "bytes32[]"
        }
      ],
      "name": "getPynthSuspensions",
      "outputs": [
        {
          "internalType": "bool[]",
          "name": "suspensions",
          "type": "bool[]"
        },
        {
          "internalType": "uint256[]",
          "name": "reasons",
          "type": "uint256[]"
        }
      ],
      "payable": false,
      "stateMutability": "view",
      "type": "function"
    },
    {
      "constant": true,
      "inputs": [],
      "name": "isSystemUpgrading",
      "outputs": [
        {
          "internalType": "bool",
          "name": "",
          "type": "bool"
        }
      ],
      "payable": false,
      "stateMutability": "view",
      "type": "function"
    },
    {
      "constant": true,
      "inputs": [],
      "name": "issuanceSuspension",
      "outputs": [
        {
          "internalType": "bool",
          "name": "suspended",
          "type": "bool"
        },
        {
          "internalType": "uint248",
          "name": "reason",
          "type": "uint248"
        }
      ],
      "payable": false,
      "stateMutability": "view",
      "type": "function"
    },
    {
      "constant": false,
      "inputs": [
        {
          "internalType": "address",
          "name": "_owner",
          "type": "address"
        }
      ],
      "name": "nominateNewOwner",
      "outputs": [],
      "payable": false,
      "stateMutability": "nonpayable",
      "type": "function"
    },
    {
      "constant": true,
      "inputs": [],
      "name": "nominatedOwner",
      "outputs": [
        {
          "internalType": "address",
          "name": "",
          "type": "address"
        }
      ],
      "payable": false,
      "stateMutability": "view",
      "type": "function"
    },
    {
      "constant": true,
      "inputs": [],
      "name": "owner",
      "outputs": [
        {
          "internalType": "address",
          "name": "",
          "type": "address"
        }
      ],
      "payable": false,
      "stateMutability": "view",
      "type": "function"
    },
    {
      "constant": true,
      "inputs": [
        {
          "internalType": "bytes32",
          "name": "",
          "type": "bytes32"
        }
      ],
      "name": "pynthSuspension",
      "outputs": [
        {
          "internalType": "bool",
          "name": "suspended",
          "type": "bool"
        },
        {
          "internalType": "uint248",
          "name": "reason",
          "type": "uint248"
        }
      ],
      "payable": false,
      "stateMutability": "view",
      "type": "function"
    },
    {
      "constant": true,
      "inputs": [],
      "name": "requireExchangeActive",
      "outputs": [],
      "payable": false,
      "stateMutability": "view",
      "type": "function"
    },
    {
      "constant": true,
      "inputs": [],
      "name": "requireIssuanceActive",
      "outputs": [],
      "payable": false,
      "stateMutability": "view",
      "type": "function"
    },
    {
      "constant": true,
      "inputs": [
        {
          "internalType": "bytes32",
          "name": "currencyKey",
          "type": "bytes32"
        }
      ],
      "name": "requirePynthActive",
      "outputs": [],
      "payable": false,
      "stateMutability": "view",
      "type": "function"
    },
    {
      "constant": true,
      "inputs": [
        {
          "internalType": "bytes32",
          "name": "sourceCurrencyKey",
          "type": "bytes32"
        },
        {
          "internalType": "bytes32",
          "name": "destinationCurrencyKey",
          "type": "bytes32"
        }
      ],
      "name": "requirePynthsActive",
      "outputs": [],
      "payable": false,
      "stateMutability": "view",
      "type": "function"
    },
    {
      "constant": true,
      "inputs": [],
      "name": "requireSystemActive",
      "outputs": [],
      "payable": false,
      "stateMutability": "view",
      "type": "function"
    },
    {
      "constant": false,
      "inputs": [],
      "name": "resumeExchange",
      "outputs": [],
      "payable": false,
      "stateMutability": "nonpayable",
      "type": "function"
    },
    {
      "constant": false,
      "inputs": [],
      "name": "resumeIssuance",
      "outputs": [],
      "payable": false,
      "stateMutability": "nonpayable",
      "type": "function"
    },
    {
      "constant": false,
      "inputs": [
        {
          "internalType": "bytes32",
          "name": "currencyKey",
          "type": "bytes32"
        }
      ],
      "name": "resumePynth",
      "outputs": [],
      "payable": false,
      "stateMutability": "nonpayable",
      "type": "function"
    },
    {
      "constant": false,
      "inputs": [],
      "name": "resumeSystem",
      "outputs": [],
      "payable": false,
      "stateMutability": "nonpayable",
      "type": "function"
    },
    {
      "constant": false,
      "inputs": [
        {
          "internalType": "uint256",
          "name": "reason",
          "type": "uint256"
        }
      ],
      "name": "suspendExchange",
      "outputs": [],
      "payable": false,
      "stateMutability": "nonpayable",
      "type": "function"
    },
    {
      "constant": false,
      "inputs": [
        {
          "internalType": "uint256",
          "name": "reason",
          "type": "uint256"
        }
      ],
      "name": "suspendIssuance",
      "outputs": [],
      "payable": false,
      "stateMutability": "nonpayable",
      "type": "function"
    },
    {
      "constant": false,
      "inputs": [
        {
          "internalType": "bytes32",
          "name": "currencyKey",
          "type": "bytes32"
        },
        {
          "internalType": "uint256",
          "name": "reason",
          "type": "uint256"
        }
      ],
      "name": "suspendPynth",
      "outputs": [],
      "payable": false,
      "stateMutability": "nonpayable",
      "type": "function"
    },
    {
      "constant": false,
      "inputs": [
        {
          "internalType": "uint256",
          "name": "reason",
          "type": "uint256"
        }
      ],
      "name": "suspendSystem",
      "outputs": [],
      "payable": false,
      "stateMutability": "nonpayable",
      "type": "function"
    },
    {
      "constant": true,
      "inputs": [],
      "name": "systemSuspension",
      "outputs": [
        {
          "internalType": "bool",
          "name": "suspended",
          "type": "bool"
        },
        {
          "internalType": "uint248",
          "name": "reason",
          "type": "uint248"
        }
      ],
      "payable": false,
      "stateMutability": "view",
      "type": "function"
    },
    {
      "constant": false,
      "inputs": [
        {
          "internalType": "bytes32",
          "name": "section",
          "type": "bytes32"
        },
        {
          "internalType": "address",
          "name": "account",
          "type": "address"
        },
        {
          "internalType": "bool",
          "name": "canSuspend",
          "type": "bool"
        },
        {
          "internalType": "bool",
          "name": "canResume",
          "type": "bool"
        }
      ],
      "name": "updateAccessControl",
      "outputs": [],
      "payable": false,
      "stateMutability": "nonpayable",
      "type": "function"
    }
  ],
  "bytecode": "0x60806040523480156200001157600080fd5b50604051620027d4380380620027d4833981810160405260208110156200003757600080fd5b810190808051906020019092919050505080600073ffffffffffffffffffffffffffffffffffffffff168173ffffffffffffffffffffffffffffffffffffffff161415620000ed576040517f08c379a00000000000000000000000000000000000000000000000000000000081526004018080602001828103825260198152602001807f4f776e657220616464726573732063616e6e6f7420626520300000000000000081525060200191505060405180910390fd5b806000806101000a81548173ffffffffffffffffffffffffffffffffffffffff021916908373ffffffffffffffffffffffffffffffffffffffff1602179055507fb532073b38c83145e3e5135377a08bf9aab55bc0fd7c1179cd4fb995d2a5159c600082604051808373ffffffffffffffffffffffffffffffffffffffff1673ffffffffffffffffffffffffffffffffffffffff1681526020018273ffffffffffffffffffffffffffffffffffffffff1673ffffffffffffffffffffffffffffffffffffffff1681526020019250505060405180910390a150620001fb7f53797374656d000000000000000000000000000000000000000000000000000082600180620002a160201b60201c565b620002307f49737375616e636500000000000000000000000000000000000000000000000082600180620002a160201b60201c565b620002657f45786368616e676500000000000000000000000000000000000000000000000082600180620002a160201b60201c565b6200029a7f50796e746800000000000000000000000000000000000000000000000000000082600180620002a160201b60201c565b50620004f3565b7f53797374656d0000000000000000000000000000000000000000000000000000841480620002ef57507f49737375616e636500000000000000000000000000000000000000000000000084145b806200031a57507f45786368616e676500000000000000000000000000000000000000000000000084145b806200034557507f50796e746800000000000000000000000000000000000000000000000000000084145b620003b8576040517f08c379a00000000000000000000000000000000000000000000000000000000081526004018080602001828103825260188152602001807f496e76616c69642073656374696f6e20737570706c696564000000000000000081525060200191505060405180910390fd5b816002600086815260200190815260200160002060008573ffffffffffffffffffffffffffffffffffffffff1673ffffffffffffffffffffffffffffffffffffffff16815260200190815260200160002060000160006101000a81548160ff021916908315150217905550806002600086815260200190815260200160002060008573ffffffffffffffffffffffffffffffffffffffff1673ffffffffffffffffffffffffffffffffffffffff16815260200190815260200160002060000160016101000a81548160ff0219169083151502179055508273ffffffffffffffffffffffffffffffffffffffff16847f95bad30f8fe717e4a02906d7b05a6f90698c7135cd053e5b6d5239146b4c40d184846040518083151515158152602001821515151581526020019250505060405180910390a350505050565b6122d180620005036000396000f3fe608060405234801561001057600080fd5b50600436106101da5760003560e01c806353a47bb7116101045780638da5cb5b116100a2578063e470df5811610071578063e470df5814610849578063f161620714610877578063f405f65a14610895578063f8b4b0841461089f576101da565b80638da5cb5b1461065b5780639f8a95ba146106a5578063c09290bb14610705578063d7f2c3851461081b576101da565b80637118d431116100de5780637118d431146105ae57806379ba5097146105b85780637c312541146105c25780638c38729d146105cc576101da565b806353a47bb714610522578063631070fc1461056c57806367a280b2146105a4576101da565b806320f2bf001161017c578063396e258e1161014b578063396e258e146104385780633cb4d4431461046657806348bf19711461049e5780634abdb44d14610504576101da565b806320f2bf00146102cf5780632366245e146103405780632dd8afdb146103ab5780632e8d0b9e14610416576101da565b80631588e817116101b85780631588e817146102115780631627540c1461023f5780631635b0ce146102835780631d7e7789146102a1576101da565b8063086dabd1146101df57806312bde514146101e9578063157c51d314610207575b600080fd5b6101e761090a565b005b6101f1610914565b6040518082815260200191505060405180910390f35b61020f610938565b005b61023d6004803603602081101561022757600080fd5b8101908080359060200190929190505050610a64565b005b6102816004803603602081101561025557600080fd5b81019080803573ffffffffffffffffffffffffffffffffffffffff169060200190929190505050610b3f565b005b61028b610bee565b6040518082815260200191505060405180910390f35b6102cd600480360360208110156102b757600080fd5b8101908080359060200190929190505050610c12565b005b61031b600480360360408110156102e557600080fd5b8101908080359060200190929190803573ffffffffffffffffffffffffffffffffffffffff169060200190929190505050610c97565b6040518083151515158152602001821515151581526020019250505060405180910390f35b610348610ce2565b6040518083151515158152602001827effffffffffffffffffffffffffffffffffffffffffffffffffffffffffffff167effffffffffffffffffffffffffffffffffffffffffffffffffffffffffffff1681526020019250505060405180910390f35b6103b3610d2c565b6040518083151515158152602001827effffffffffffffffffffffffffffffffffffffffffffffffffffffffffffff167effffffffffffffffffffffffffffffffffffffffffffffffffffffffffffff1681526020019250505060405180910390f35b61041e610d76565b604051808215151515815260200191505060405180910390f35b6104646004803603602081101561044e57600080fd5b8101908080359060200190929190505050610e0e565b005b61049c6004803603604081101561047c57600080fd5b810190808035906020019092919080359060200190929190505050610ee9565b005b610502600480360360808110156104b457600080fd5b8101908080359060200190929190803573ffffffffffffffffffffffffffffffffffffffff169060200190929190803515159060200190929190803515159060200190929190505050610f9c565b005b61050c610fb6565b6040518082815260200191505060405180910390f35b61052a610fda565b604051808273ffffffffffffffffffffffffffffffffffffffff1673ffffffffffffffffffffffffffffffffffffffff16815260200191505060405180910390f35b6105a26004803603604081101561058257600080fd5b810190808035906020019092919080359060200190929190505050611000565b005b6105ac611106565b005b6105b6611232565b005b6105c06112a5565b005b6105ca6114cb565b005b6105f8600480360360208110156105e257600080fd5b810190808035906020019092919050505061153e565b6040518083151515158152602001827effffffffffffffffffffffffffffffffffffffffffffffffffffffffffffff167effffffffffffffffffffffffffffffffffffffffffffffffffffffffffffff1681526020019250505060405180910390f35b61066361159a565b604051808273ffffffffffffffffffffffffffffffffffffffff1673ffffffffffffffffffffffffffffffffffffffff16815260200191505060405180910390f35b6106ad6115bf565b60405180827effffffffffffffffffffffffffffffffffffffffffffffffffffffffffffff167effffffffffffffffffffffffffffffffffffffffffffffffffffffffffffff16815260200191505060405180910390f35b61077c6004803603602081101561071b57600080fd5b810190808035906020019064010000000081111561073857600080fd5b82018360208201111561074a57600080fd5b8035906020019184602083028401116401000000008311171561076c57600080fd5b90919293919293905050506115c4565b604051808060200180602001838103835285818151815260200191508051906020019060200280838360005b838110156107c35780820151818401526020810190506107a8565b50505050905001838103825284818151815260200191508051906020019060200280838360005b838110156108055780820151818401526020810190506107ea565b5050505090500194505050505060405180910390f35b6108476004803603602081101561083157600080fd5b8101908080359060200190929190505050611738565b005b6108756004803603602081101561085f57600080fd5b8101908080359060200190929190505050611861565b005b61087f61198d565b6040518082815260200191505060405180910390f35b61089d6119b1565b005b6108a7611add565b6040518083151515158152602001827effffffffffffffffffffffffffffffffffffffffffffffffffffffffffffff167effffffffffffffffffffffffffffffffffffffffffffffffffffffffffffff1681526020019250505060405180910390f35b610912611b27565b565b7f53797374656d000000000000000000000000000000000000000000000000000081565b6109617f53797374656d0000000000000000000000000000000000000000000000000000611c96565b6000600360000160006101000a81548160ff0219169083151502179055507fb392a95118344e8edff8eff56183afb4bb0240310c406a0fc1217d2755c66d8f600360000160019054906101000a90047effffffffffffffffffffffffffffffffffffffffffffffffffffffffffffff167effffffffffffffffffffffffffffffffffffffffffffffffffffffffffffff166040518082815260200191505060405180910390a16000600360000160016101000a8154817effffffffffffffffffffffffffffffffffffffffffffffffffffffffffffff02191690837effffffffffffffffffffffffffffffffffffffffffffffffffffffffffffff160217905550565b610a8d7f45786368616e6765000000000000000000000000000000000000000000000000611d4f565b6001600560000160006101000a81548160ff02191690831515021790555080600560000160016101000a8154817effffffffffffffffffffffffffffffffffffffffffffffffffffffffffffff02191690837effffffffffffffffffffffffffffffffffffffffffffffffffffffffffffff1602179055507f078773069a9216cdb6acaa7b184785f12f62048c7ce8b7ede1bad6785de16b22816040518082815260200191505060405180910390a150565b610b47611e08565b80600160006101000a81548173ffffffffffffffffffffffffffffffffffffffff021916908373ffffffffffffffffffffffffffffffffffffffff1602179055507f906a1c6bd7e3091ea86693dd029a831c19049ce77f1dce2ce0bab1cacbabce2281604051808273ffffffffffffffffffffffffffffffffffffffff1673ffffffffffffffffffffffffffffffffffffffff16815260200191505060405180910390a150565b7f50796e746800000000000000000000000000000000000000000000000000000081565b610c1a611b27565b6006600082815260200190815260200160002060000160009054906101000a900460ff1615610c94576040517f08c379a00000000000000000000000000000000000000000000000000000000081526004018080602001828103825260288152602001806122756028913960400191505060405180910390fd5b50565b6002602052816000526040600020602052806000526040600020600091509150508060000160009054906101000a900460ff16908060000160019054906101000a900460ff16905082565b60048060000160009054906101000a900460ff16908060000160019054906101000a90047effffffffffffffffffffffffffffffffffffffffffffffffffffffffffffff16905082565b60038060000160009054906101000a900460ff16908060000160019054906101000a90047effffffffffffffffffffffffffffffffffffffffffffffffffffffffffffff16905082565b6000600360000160009054906101000a900460ff168015610e09575060017effffffffffffffffffffffffffffffffffffffffffffffffffffffffffffff16600360000160019054906101000a90047effffffffffffffffffffffffffffffffffffffffffffffffffffffffffffff167effffffffffffffffffffffffffffffffffffffffffffffffffffffffffffff16145b905090565b610e377f49737375616e6365000000000000000000000000000000000000000000000000611d4f565b6001600460000160006101000a81548160ff02191690831515021790555080600460000160016101000a8154817effffffffffffffffffffffffffffffffffffffffffffffffffffffffffffff02191690837effffffffffffffffffffffffffffffffffffffffffffffffffffffffffffff1602179055507fee8bf45d6e3141aa521ae4f0d05dfefe0327a3f23a9fbae6a64680458b34ebb8816040518082815260200191505060405180910390a150565b610ef1611b27565b6006600083815260200190815260200160002060000160009054906101000a900460ff16158015610f4357506006600082815260200190815260200160002060000160009054906101000a900460ff16155b610f98576040517f08c379a000000000000000000000000000000000000000000000000000000000815260040180806020018281038252603681526020018061221e6036913960400191505060405180910390fd5b5050565b610fa4611e08565b610fb084848484611eaf565b50505050565b7f49737375616e636500000000000000000000000000000000000000000000000081565b600160009054906101000a900473ffffffffffffffffffffffffffffffffffffffff1681565b6110297f50796e7468000000000000000000000000000000000000000000000000000000611d4f565b60016006600084815260200190815260200160002060000160006101000a81548160ff021916908315150217905550806006600084815260200190815260200160002060000160016101000a8154817effffffffffffffffffffffffffffffffffffffffffffffffffffffffffffff02191690837effffffffffffffffffffffffffffffffffffffffffffffffffffffffffffff1602179055507ffd3feff79fa642f72408a90c33c6b2ae245bd7077eec45d2502714178e692c868282604051808381526020018281526020019250505060405180910390a15050565b61112f7f49737375616e6365000000000000000000000000000000000000000000000000611c96565b6000600460000160006101000a81548160ff0219169083151502179055507f0f1a80395faba9a11017f830db5f90ad6525a1621dbfb2cbc2b6679ba5716837600460000160019054906101000a90047effffffffffffffffffffffffffffffffffffffffffffffffffffffffffffff167effffffffffffffffffffffffffffffffffffffffffffffffffffffffffffff166040518082815260200191505060405180910390a16000600460000160016101000a8154817effffffffffffffffffffffffffffffffffffffffffffffffffffffffffffff02191690837effffffffffffffffffffffffffffffffffffffffffffffffffffffffffffff160217905550565b61123a611b27565b600560000160009054906101000a900460ff16156112a3576040517f08c379a000000000000000000000000000000000000000000000000000000000815260040180806020018281038252602b8152602001806121f3602b913960400191505060405180910390fd5b565b600160009054906101000a900473ffffffffffffffffffffffffffffffffffffffff1673ffffffffffffffffffffffffffffffffffffffff163373ffffffffffffffffffffffffffffffffffffffff161461134b576040517f08c379a00000000000000000000000000000000000000000000000000000000081526004018080602001828103825260358152602001806120fe6035913960400191505060405180910390fd5b7fb532073b38c83145e3e5135377a08bf9aab55bc0fd7c1179cd4fb995d2a5159c6000809054906101000a900473ffffffffffffffffffffffffffffffffffffffff16600160009054906101000a900473ffffffffffffffffffffffffffffffffffffffff16604051808373ffffffffffffffffffffffffffffffffffffffff1673ffffffffffffffffffffffffffffffffffffffff1681526020018273ffffffffffffffffffffffffffffffffffffffff1673ffffffffffffffffffffffffffffffffffffffff1681526020019250505060405180910390a1600160009054906101000a900473ffffffffffffffffffffffffffffffffffffffff166000806101000a81548173ffffffffffffffffffffffffffffffffffffffff021916908373ffffffffffffffffffffffffffffffffffffffff1602179055506000600160006101000a81548173ffffffffffffffffffffffffffffffffffffffff021916908373ffffffffffffffffffffffffffffffffffffffff160217905550565b6114d3611b27565b600460000160009054906101000a900460ff161561153c576040517f08c379a000000000000000000000000000000000000000000000000000000000815260040180806020018281038252602b815260200180612133602b913960400191505060405180910390fd5b565b60066020528060005260406000206000915090508060000160009054906101000a900460ff16908060000160019054906101000a90047effffffffffffffffffffffffffffffffffffffffffffffffffffffffffffff16905082565b6000809054906101000a900473ffffffffffffffffffffffffffffffffffffffff1681565b600181565b606080838390506040519080825280602002602001820160405280156115f95781602001602082028038833980820191505090505b5091508383905060405190808252806020026020018201604052801561162e5781602001602082028038833980820191505090505b50905060008090505b84849050811015611730576006600086868481811061165257fe5b90506020020135815260200190815260200160002060000160009054906101000a900460ff1683828151811061168457fe5b602002602001019015159081151581525050600660008686848181106116a657fe5b90506020020135815260200190815260200160002060000160019054906101000a90047effffffffffffffffffffffffffffffffffffffffffffffffffffffffffffff167effffffffffffffffffffffffffffffffffffffffffffffffffffffffffffff1682828151811061171757fe5b6020026020010181815250508080600101915050611637565b509250929050565b6117617f50796e7468000000000000000000000000000000000000000000000000000000611c96565b7fddc88fc179cf33f24e5569dd8635c3cd44864e66a1b359bdd9d95e50d94a0d39816006600084815260200190815260200160002060000160019054906101000a90047effffffffffffffffffffffffffffffffffffffffffffffffffffffffffffff167effffffffffffffffffffffffffffffffffffffffffffffffffffffffffffff16604051808381526020018281526020019250505060405180910390a160066000828152602001908152602001600020600080820160006101000a81549060ff02191690556000820160016101000a8154907effffffffffffffffffffffffffffffffffffffffffffffffffffffffffffff0219169055505050565b61188a7f53797374656d0000000000000000000000000000000000000000000000000000611d4f565b6001600360000160006101000a81548160ff02191690831515021790555080600360000160016101000a8154817effffffffffffffffffffffffffffffffffffffffffffffffffffffffffffff02191690837effffffffffffffffffffffffffffffffffffffffffffffffffffffffffffff1602179055507f86b7ed06c3a2c3763514d475ced33f9ac8b1bb8f028ded18de0100b7678f3c4f600360000160019054906101000a90047effffffffffffffffffffffffffffffffffffffffffffffffffffffffffffff1660405180827effffffffffffffffffffffffffffffffffffffffffffffffffffffffffffff16815260200191505060405180910390a150565b7f45786368616e676500000000000000000000000000000000000000000000000081565b6119da7f45786368616e6765000000000000000000000000000000000000000000000000611c96565b6000600560000160006101000a81548160ff0219169083151502179055507f07966fe79d35c7abf1f3b2ad9970ea24cae0f11406e283e848e3e6608ae3c214600560000160019054906101000a90047effffffffffffffffffffffffffffffffffffffffffffffffffffffffffffff167effffffffffffffffffffffffffffffffffffffffffffffffffffffffffffff166040518082815260200191505060405180910390a16000600560000160016101000a8154817effffffffffffffffffffffffffffffffffffffffffffffffffffffffffffff02191690837effffffffffffffffffffffffffffffffffffffffffffffffffffffffffffff160217905550565b60058060000160009054906101000a900460ff16908060000160019054906101000a90047effffffffffffffffffffffffffffffffffffffffffffffffffffffffffffff16905082565b600360000160009054906101000a900460ff161560017effffffffffffffffffffffffffffffffffffffffffffffffffffffffffffff16600360000160019054906101000a90047effffffffffffffffffffffffffffffffffffffffffffffffffffffffffffff167effffffffffffffffffffffffffffffffffffffffffffffffffffffffffffff1614611bd3576040518060600160405280602a81526020016121c9602a9139611bed565b6040518060600160405280603c815260200161215e603c91395b90611c93576040517f08c379a00000000000000000000000000000000000000000000000000000000081526004018080602001828103825283818151815260200191508051906020019080838360005b83811015611c58578082015181840152602081019050611c3d565b50505050905090810190601f168015611c855780820380516001836020036101000a031916815260200191505b509250505060405180910390fd5b50565b6002600082815260200190815260200160002060003373ffffffffffffffffffffffffffffffffffffffff1673ffffffffffffffffffffffffffffffffffffffff16815260200190815260200160002060000160019054906101000a900460ff16611d4c576040517f08c379a00000000000000000000000000000000000000000000000000000000081526004018080602001828103825260218152602001806122546021913960400191505060405180910390fd5b50565b6002600082815260200190815260200160002060003373ffffffffffffffffffffffffffffffffffffffff1673ffffffffffffffffffffffffffffffffffffffff16815260200190815260200160002060000160009054906101000a900460ff16611e05576040517f08c379a00000000000000000000000000000000000000000000000000000000081526004018080602001828103825260218152602001806122546021913960400191505060405180910390fd5b50565b6000809054906101000a900473ffffffffffffffffffffffffffffffffffffffff1673ffffffffffffffffffffffffffffffffffffffff163373ffffffffffffffffffffffffffffffffffffffff1614611ead576040517f08c379a000000000000000000000000000000000000000000000000000000000815260040180806020018281038252602f81526020018061219a602f913960400191505060405180910390fd5b565b7f53797374656d0000000000000000000000000000000000000000000000000000841480611efc57507f49737375616e636500000000000000000000000000000000000000000000000084145b80611f2657507f45786368616e676500000000000000000000000000000000000000000000000084145b80611f5057507f50796e746800000000000000000000000000000000000000000000000000000084145b611fc2576040517f08c379a00000000000000000000000000000000000000000000000000000000081526004018080602001828103825260188152602001807f496e76616c69642073656374696f6e20737570706c696564000000000000000081525060200191505060405180910390fd5b816002600086815260200190815260200160002060008573ffffffffffffffffffffffffffffffffffffffff1673ffffffffffffffffffffffffffffffffffffffff16815260200190815260200160002060000160006101000a81548160ff021916908315150217905550806002600086815260200190815260200160002060008573ffffffffffffffffffffffffffffffffffffffff1673ffffffffffffffffffffffffffffffffffffffff16815260200190815260200160002060000160016101000a81548160ff0219169083151502179055508273ffffffffffffffffffffffffffffffffffffffff16847f95bad30f8fe717e4a02906d7b05a6f90698c7135cd053e5b6d5239146b4c40d184846040518083151515158152602001821515151581526020019250505060405180910390a35050505056fe596f75206d757374206265206e6f6d696e61746564206265666f726520796f752063616e20616363657074206f776e65727368697049737375616e63652069732073757370656e6465642e204f7065726174696f6e2070726f686962697465645065726946696e2069732073757370656e6465642c207570677261646520696e2070726f67726573732e2e2e20706c65617365207374616e642062794f6e6c792074686520636f6e7472616374206f776e6572206d617920706572666f726d207468697320616374696f6e5065726946696e2069732073757370656e6465642e204f7065726174696f6e2070726f6869626974656445786368616e67652069732073757370656e6465642e204f7065726174696f6e2070726f686962697465644f6e65206f72206d6f72652070796e746873206172652073757370656e6465642e204f7065726174696f6e2070726f686962697465645265737472696374656420746f2061636365737320636f6e74726f6c206c69737450796e74682069732073757370656e6465642e204f7065726174696f6e2070726f68696269746564a265627a7a723158209060cb7e2fc5674b8fc4bf3078dd6b9d3bc6505dabdcfd465e046292b4d4270f64736f6c63430005100032",
  "linkReferences": {},
  "deployedLinkReferences": {}
}