{
  "_format": "hh-sol-artifact-1",
  "contractName": "ExchangerWithVirtualPynth",
  "sourceName": "contracts/ExchangerWithVirtualPynth.sol",
  "abi": [
    {
      "inputs": [
        {
          "internalType": "address",
          "name": "_owner",
          "type": "address"
        },
        {
          "internalType": "address",
          "name": "_resolver",
          "type": "address"
        }
      ],
      "payable": false,
      "stateMutability": "nonpayable",
      "type": "constructor"
    },
    {
      "anonymous": false,
      "inputs": [
        {
          "indexed": false,
          "internalType": "bytes32",
          "name": "name",
          "type": "bytes32"
        },
        {
          "indexed": false,
          "internalType": "address",
          "name": "destination",
          "type": "address"
        }
      ],
      "name": "CacheUpdated",
      "type": "event"
    },
    {
      "anonymous": false,
      "inputs": [
        {
          "indexed": true,
          "internalType": "address",
          "name": "account",
          "type": "address"
        },
        {
          "indexed": false,
          "internalType": "bytes32",
          "name": "src",
          "type": "bytes32"
        },
        {
          "indexed": false,
          "internalType": "uint256",
          "name": "amount",
          "type": "uint256"
        },
        {
          "indexed": false,
          "internalType": "bytes32",
          "name": "dest",
          "type": "bytes32"
        },
        {
          "indexed": false,
          "internalType": "uint256",
          "name": "amountReceived",
          "type": "uint256"
        },
        {
          "indexed": false,
          "internalType": "uint256",
          "name": "exchangeFeeRate",
          "type": "uint256"
        },
        {
          "indexed": false,
          "internalType": "uint256",
          "name": "roundIdForSrc",
          "type": "uint256"
        },
        {
          "indexed": false,
          "internalType": "uint256",
          "name": "roundIdForDest",
          "type": "uint256"
        }
      ],
      "name": "ExchangeEntryAppended",
      "type": "event"
    },
    {
      "anonymous": false,
      "inputs": [
        {
          "indexed": true,
          "internalType": "address",
          "name": "from",
          "type": "address"
        },
        {
          "indexed": false,
          "internalType": "bytes32",
          "name": "src",
          "type": "bytes32"
        },
        {
          "indexed": false,
          "internalType": "uint256",
          "name": "amount",
          "type": "uint256"
        },
        {
          "indexed": false,
          "internalType": "bytes32",
          "name": "dest",
          "type": "bytes32"
        },
        {
          "indexed": false,
          "internalType": "uint256",
          "name": "reclaim",
          "type": "uint256"
        },
        {
          "indexed": false,
          "internalType": "uint256",
          "name": "rebate",
          "type": "uint256"
        },
        {
          "indexed": false,
          "internalType": "uint256",
          "name": "srcRoundIdAtPeriodEnd",
          "type": "uint256"
        },
        {
          "indexed": false,
          "internalType": "uint256",
          "name": "destRoundIdAtPeriodEnd",
          "type": "uint256"
        },
        {
          "indexed": false,
          "internalType": "uint256",
          "name": "exchangeTimestamp",
          "type": "uint256"
        }
      ],
      "name": "ExchangeEntrySettled",
      "type": "event"
    },
    {
      "anonymous": false,
      "inputs": [
        {
          "indexed": false,
          "internalType": "address",
          "name": "oldOwner",
          "type": "address"
        },
        {
          "indexed": false,
          "internalType": "address",
          "name": "newOwner",
          "type": "address"
        }
      ],
      "name": "OwnerChanged",
      "type": "event"
    },
    {
      "anonymous": false,
      "inputs": [
        {
          "indexed": false,
          "internalType": "address",
          "name": "newOwner",
          "type": "address"
        }
      ],
      "name": "OwnerNominated",
      "type": "event"
    },
    {
      "anonymous": false,
      "inputs": [
        {
          "indexed": true,
          "internalType": "address",
          "name": "pynth",
          "type": "address"
        },
        {
          "indexed": true,
          "internalType": "address",
          "name": "recipient",
          "type": "address"
        },
        {
          "indexed": false,
          "internalType": "address",
          "name": "vPynth",
          "type": "address"
        },
        {
          "indexed": false,
          "internalType": "bytes32",
          "name": "currencyKey",
          "type": "bytes32"
        },
        {
          "indexed": false,
          "internalType": "uint256",
          "name": "amount",
          "type": "uint256"
        }
      ],
      "name": "VirtualPynthCreated",
      "type": "event"
    },
    {
      "constant": true,
      "inputs": [],
      "name": "CIRCUIT_BREAKER_SUSPENSION_REASON",
      "outputs": [
        {
          "internalType": "uint256",
          "name": "",
          "type": "uint256"
        }
      ],
      "payable": false,
      "stateMutability": "view",
      "type": "function"
    },
    {
      "constant": false,
      "inputs": [],
      "name": "acceptOwnership",
      "outputs": [],
      "payable": false,
      "stateMutability": "nonpayable",
      "type": "function"
    },
    {
      "constant": true,
      "inputs": [
        {
          "internalType": "address",
          "name": "from",
          "type": "address"
        },
        {
          "internalType": "bytes32",
          "name": "currencyKey",
          "type": "bytes32"
        },
        {
          "internalType": "uint256",
          "name": "amount",
          "type": "uint256"
        },
        {
          "internalType": "uint256",
          "name": "refunded",
          "type": "uint256"
        }
      ],
      "name": "calculateAmountAfterSettlement",
      "outputs": [
        {
          "internalType": "uint256",
          "name": "amountAfterSettlement",
          "type": "uint256"
        }
      ],
      "payable": false,
      "stateMutability": "view",
      "type": "function"
    },
    {
      "constant": false,
      "inputs": [
        {
          "internalType": "address",
          "name": "from",
          "type": "address"
        },
        {
          "internalType": "bytes32",
          "name": "sourceCurrencyKey",
          "type": "bytes32"
        },
        {
          "internalType": "uint256",
          "name": "sourceAmount",
          "type": "uint256"
        },
        {
          "internalType": "bytes32",
          "name": "destinationCurrencyKey",
          "type": "bytes32"
        },
        {
          "internalType": "address",
          "name": "destinationAddress",
          "type": "address"
        }
      ],
      "name": "exchange",
      "outputs": [
        {
          "internalType": "uint256",
          "name": "amountReceived",
          "type": "uint256"
        }
      ],
      "payable": false,
      "stateMutability": "nonpayable",
      "type": "function"
    },
    {
      "constant": false,
      "inputs": [
        {
          "internalType": "address",
          "name": "exchangeForAddress",
          "type": "address"
        },
        {
          "internalType": "address",
          "name": "from",
          "type": "address"
        },
        {
          "internalType": "bytes32",
          "name": "sourceCurrencyKey",
          "type": "bytes32"
        },
        {
          "internalType": "uint256",
          "name": "sourceAmount",
          "type": "uint256"
        },
        {
          "internalType": "bytes32",
          "name": "destinationCurrencyKey",
          "type": "bytes32"
        }
      ],
      "name": "exchangeOnBehalf",
      "outputs": [
        {
          "internalType": "uint256",
          "name": "amountReceived",
          "type": "uint256"
        }
      ],
      "payable": false,
      "stateMutability": "nonpayable",
      "type": "function"
    },
    {
      "constant": false,
      "inputs": [
        {
          "internalType": "address",
          "name": "exchangeForAddress",
          "type": "address"
        },
        {
          "internalType": "address",
          "name": "from",
          "type": "address"
        },
        {
          "internalType": "bytes32",
          "name": "sourceCurrencyKey",
          "type": "bytes32"
        },
        {
          "internalType": "uint256",
          "name": "sourceAmount",
          "type": "uint256"
        },
        {
          "internalType": "bytes32",
          "name": "destinationCurrencyKey",
          "type": "bytes32"
        },
        {
          "internalType": "address",
          "name": "originator",
          "type": "address"
        },
        {
          "internalType": "bytes32",
          "name": "trackingCode",
          "type": "bytes32"
        }
      ],
      "name": "exchangeOnBehalfWithTracking",
      "outputs": [
        {
          "internalType": "uint256",
          "name": "amountReceived",
          "type": "uint256"
        }
      ],
      "payable": false,
      "stateMutability": "nonpayable",
      "type": "function"
    },
    {
      "constant": false,
      "inputs": [
        {
          "internalType": "address",
          "name": "from",
          "type": "address"
        },
        {
          "internalType": "bytes32",
          "name": "sourceCurrencyKey",
          "type": "bytes32"
        },
        {
          "internalType": "uint256",
          "name": "sourceAmount",
          "type": "uint256"
        },
        {
          "internalType": "bytes32",
          "name": "destinationCurrencyKey",
          "type": "bytes32"
        },
        {
          "internalType": "address",
          "name": "destinationAddress",
          "type": "address"
        },
        {
          "internalType": "address",
          "name": "originator",
          "type": "address"
        },
        {
          "internalType": "bytes32",
          "name": "trackingCode",
          "type": "bytes32"
        }
      ],
      "name": "exchangeWithTracking",
      "outputs": [
        {
          "internalType": "uint256",
          "name": "amountReceived",
          "type": "uint256"
        }
      ],
      "payable": false,
      "stateMutability": "nonpayable",
      "type": "function"
    },
    {
      "constant": false,
      "inputs": [
        {
          "internalType": "address",
          "name": "from",
          "type": "address"
        },
        {
          "internalType": "bytes32",
          "name": "sourceCurrencyKey",
          "type": "bytes32"
        },
        {
          "internalType": "uint256",
          "name": "sourceAmount",
          "type": "uint256"
        },
        {
          "internalType": "bytes32",
          "name": "destinationCurrencyKey",
          "type": "bytes32"
        },
        {
          "internalType": "address",
          "name": "destinationAddress",
          "type": "address"
        },
        {
          "internalType": "bytes32",
          "name": "trackingCode",
          "type": "bytes32"
        }
      ],
      "name": "exchangeWithVirtual",
      "outputs": [
        {
          "internalType": "uint256",
          "name": "amountReceived",
          "type": "uint256"
        },
        {
          "internalType": "contract IVirtualPynth",
          "name": "vPynth",
          "type": "address"
        }
      ],
      "payable": false,
      "stateMutability": "nonpayable",
      "type": "function"
    },
    {
      "constant": true,
      "inputs": [
        {
          "internalType": "bytes32",
          "name": "sourceCurrencyKey",
          "type": "bytes32"
        },
        {
          "internalType": "bytes32",
          "name": "destinationCurrencyKey",
          "type": "bytes32"
        }
      ],
      "name": "feeRateForExchange",
      "outputs": [
        {
          "internalType": "uint256",
          "name": "exchangeFeeRate",
          "type": "uint256"
        }
      ],
      "payable": false,
      "stateMutability": "view",
      "type": "function"
    },
    {
      "constant": true,
      "inputs": [
        {
          "internalType": "uint256",
          "name": "sourceAmount",
          "type": "uint256"
        },
        {
          "internalType": "bytes32",
          "name": "sourceCurrencyKey",
          "type": "bytes32"
        },
        {
          "internalType": "bytes32",
          "name": "destinationCurrencyKey",
          "type": "bytes32"
        }
      ],
      "name": "getAmountsForExchange",
      "outputs": [
        {
          "internalType": "uint256",
          "name": "amountReceived",
          "type": "uint256"
        },
        {
          "internalType": "uint256",
          "name": "fee",
          "type": "uint256"
        },
        {
          "internalType": "uint256",
          "name": "exchangeFeeRate",
          "type": "uint256"
        }
      ],
      "payable": false,
      "stateMutability": "view",
      "type": "function"
    },
    {
      "constant": true,
      "inputs": [
        {
          "internalType": "address",
          "name": "account",
          "type": "address"
        },
        {
          "internalType": "bytes32",
          "name": "currencyKey",
          "type": "bytes32"
        }
      ],
      "name": "hasWaitingPeriodOrSettlementOwing",
      "outputs": [
        {
          "internalType": "bool",
          "name": "",
          "type": "bool"
        }
      ],
      "payable": false,
      "stateMutability": "view",
      "type": "function"
    },
    {
      "constant": true,
      "inputs": [
        {
          "internalType": "bytes32",
          "name": "currencyKey",
          "type": "bytes32"
        }
      ],
      "name": "isPynthRateInvalid",
      "outputs": [
        {
          "internalType": "bool",
          "name": "",
          "type": "bool"
        }
      ],
      "payable": false,
      "stateMutability": "view",
      "type": "function"
    },
    {
      "constant": true,
      "inputs": [],
      "name": "isResolverCached",
      "outputs": [
        {
          "internalType": "bool",
          "name": "",
          "type": "bool"
        }
      ],
      "payable": false,
      "stateMutability": "view",
      "type": "function"
    },
    {
      "constant": true,
      "inputs": [
        {
          "internalType": "bytes32",
          "name": "",
          "type": "bytes32"
        }
      ],
      "name": "lastExchangeRate",
      "outputs": [
        {
          "internalType": "uint256",
          "name": "",
          "type": "uint256"
        }
      ],
      "payable": false,
      "stateMutability": "view",
      "type": "function"
    },
    {
      "constant": true,
      "inputs": [
        {
          "internalType": "address",
          "name": "account",
          "type": "address"
        },
        {
          "internalType": "bytes32",
          "name": "currencyKey",
          "type": "bytes32"
        }
      ],
      "name": "maxSecsLeftInWaitingPeriod",
      "outputs": [
        {
          "internalType": "uint256",
          "name": "",
          "type": "uint256"
        }
      ],
      "payable": false,
      "stateMutability": "view",
      "type": "function"
    },
    {
      "constant": false,
      "inputs": [
        {
          "internalType": "address",
          "name": "_owner",
          "type": "address"
        }
      ],
      "name": "nominateNewOwner",
      "outputs": [],
      "payable": false,
      "stateMutability": "nonpayable",
      "type": "function"
    },
    {
      "constant": true,
      "inputs": [],
      "name": "nominatedOwner",
      "outputs": [
        {
          "internalType": "address",
          "name": "",
          "type": "address"
        }
      ],
      "payable": false,
      "stateMutability": "view",
      "type": "function"
    },
    {
      "constant": true,
      "inputs": [],
      "name": "owner",
      "outputs": [
        {
          "internalType": "address",
          "name": "",
          "type": "address"
        }
      ],
      "payable": false,
      "stateMutability": "view",
      "type": "function"
    },
    {
      "constant": true,
      "inputs": [],
      "name": "priceDeviationThresholdFactor",
      "outputs": [
        {
          "internalType": "uint256",
          "name": "",
          "type": "uint256"
        }
      ],
      "payable": false,
      "stateMutability": "view",
      "type": "function"
    },
    {
      "constant": false,
      "inputs": [],
      "name": "rebuildCache",
      "outputs": [],
      "payable": false,
      "stateMutability": "nonpayable",
      "type": "function"
    },
    {
      "constant": true,
      "inputs": [],
      "name": "resolver",
      "outputs": [
        {
          "internalType": "contract AddressResolver",
          "name": "",
          "type": "address"
        }
      ],
      "payable": false,
      "stateMutability": "view",
      "type": "function"
    },
    {
      "constant": true,
      "inputs": [],
      "name": "resolverAddressesRequired",
      "outputs": [
        {
          "internalType": "bytes32[]",
          "name": "addresses",
          "type": "bytes32[]"
        }
      ],
      "payable": false,
      "stateMutability": "view",
      "type": "function"
    },
    {
      "constant": false,
      "inputs": [
        {
          "internalType": "bytes32",
          "name": "currencyKey",
          "type": "bytes32"
        },
        {
          "internalType": "uint256",
          "name": "rate",
          "type": "uint256"
        }
      ],
      "name": "setLastExchangeRateForPynth",
      "outputs": [],
      "payable": false,
      "stateMutability": "nonpayable",
      "type": "function"
    },
    {
      "constant": false,
      "inputs": [
        {
          "internalType": "address",
          "name": "from",
          "type": "address"
        },
        {
          "internalType": "bytes32",
          "name": "currencyKey",
          "type": "bytes32"
        }
      ],
      "name": "settle",
      "outputs": [
        {
          "internalType": "uint256",
          "name": "reclaimed",
          "type": "uint256"
        },
        {
          "internalType": "uint256",
          "name": "refunded",
          "type": "uint256"
        },
        {
          "internalType": "uint256",
          "name": "numEntriesSettled",
          "type": "uint256"
        }
      ],
      "payable": false,
      "stateMutability": "nonpayable",
      "type": "function"
    },
    {
      "constant": true,
      "inputs": [
        {
          "internalType": "address",
          "name": "account",
          "type": "address"
        },
        {
          "internalType": "bytes32",
          "name": "currencyKey",
          "type": "bytes32"
        }
      ],
      "name": "settlementOwing",
      "outputs": [
        {
          "internalType": "uint256",
          "name": "reclaimAmount",
          "type": "uint256"
        },
        {
          "internalType": "uint256",
          "name": "rebateAmount",
          "type": "uint256"
        },
        {
          "internalType": "uint256",
          "name": "numEntries",
          "type": "uint256"
        }
      ],
      "payable": false,
      "stateMutability": "view",
      "type": "function"
    },
    {
      "constant": false,
      "inputs": [
        {
          "internalType": "bytes32",
          "name": "currencyKey",
          "type": "bytes32"
        }
      ],
      "name": "suspendPynthWithInvalidRate",
      "outputs": [],
      "payable": false,
      "stateMutability": "nonpayable",
      "type": "function"
    },
    {
      "constant": true,
      "inputs": [],
      "name": "tradingRewardsEnabled",
      "outputs": [
        {
          "internalType": "bool",
          "name": "",
          "type": "bool"
        }
      ],
      "payable": false,
      "stateMutability": "view",
      "type": "function"
    },
    {
      "constant": true,
      "inputs": [],
      "name": "waitingPeriodSecs",
      "outputs": [
        {
          "internalType": "uint256",
          "name": "",
          "type": "uint256"
        }
      ],
      "payable": false,
      "stateMutability": "view",
      "type": "function"
    }
  ],
  "bytecode": "0x60806040523480156200001157600080fd5b506040516200875638038062008756833981810160405260408110156200003757600080fd5b8101908080519060200190929190805190602001909291905050508181808083600073ffffffffffffffffffffffffffffffffffffffff168173ffffffffffffffffffffffffffffffffffffffff161415620000fb576040517f08c379a00000000000000000000000000000000000000000000000000000000081526004018080602001828103825260198152602001807f4f776e657220616464726573732063616e6e6f7420626520300000000000000081525060200191505060405180910390fd5b806000806101000a81548173ffffffffffffffffffffffffffffffffffffffff021916908373ffffffffffffffffffffffffffffffffffffffff1602179055507fb532073b38c83145e3e5135377a08bf9aab55bc0fd7c1179cd4fb995d2a5159c600082604051808373ffffffffffffffffffffffffffffffffffffffff1673ffffffffffffffffffffffffffffffffffffffff1681526020018273ffffffffffffffffffffffffffffffffffffffff1673ffffffffffffffffffffffffffffffffffffffff1681526020019250505060405180910390a15080600260006101000a81548173ffffffffffffffffffffffffffffffffffffffff021916908373ffffffffffffffffffffffffffffffffffffffff16021790555050505050505061852b806200022b6000396000f3fe60806040523480156200001157600080fd5b5060043610620001f05760003560e01c80636a1c475811620001115780638da5cb5b11620000a5578063d6f32e06116200007b578063d6f32e061462000945578063dfffca7614620009ae578063f39952241462000a71578063f450aa341462000b4757620001f0565b80638da5cb5b146200088c578063a4a9c26614620008d8578063c193f0d8146200092157620001f0565b80637dd1a57a11620000e75780637dd1a57a146200070157806386baa45c1462000746578063892571171462000809578063899ffef4146200082957620001f0565b80636a1c475814620006505780637418536014620006e957806379ba509714620006f557620001f0565b80631b16802c11620001895780633fa70f45116200015f5780633fa70f4514620005305780634c268fc8146200055057806353a47bb714620005c957806357630a40146200061557620001f0565b80631b16802c14620004795780632af64bd314620004ec578063372a395a146200051057620001f0565b80630aed5b4611620001cb5780630aed5b46146200033f5780631627540c146200037057806319d5c66514620003b75780631a5c6095146200042a57620001f0565b806304f3bcec14620001f5578063059c29ec14620002415780630a1e187d14620002a6575b600080fd5b620001ff62000bae565b604051808273ffffffffffffffffffffffffffffffffffffffff1673ffffffffffffffffffffffffffffffffffffffff16815260200191505060405180910390f35b62000290600480360360408110156200025957600080fd5b81019080803573ffffffffffffffffffffffffffffffffffffffff1690602001909291908035906020019092919050505062000bd4565b6040518082815260200191505060405180910390f35b62000329600480360360a0811015620002be57600080fd5b81019080803573ffffffffffffffffffffffffffffffffffffffff169060200190929190803590602001909291908035906020019092919080359060200190929190803573ffffffffffffffffffffffffffffffffffffffff16906020019092919050505062000cb4565b6040518082815260200191505060405180910390f35b6200036e600480360360208110156200035757600080fd5b810190808035906020019092919050505062000e45565b005b620003b5600480360360208110156200038857600080fd5b81019080803573ffffffffffffffffffffffffffffffffffffffff16906020019092919050505062001181565b005b6200040660048036036040811015620003cf57600080fd5b81019080803573ffffffffffffffffffffffffffffffffffffffff1690602001909291908035906020019092919050505062001232565b60405180848152602001838152602001828152602001935050505060405180910390f35b62000463600480360360408110156200044257600080fd5b81019080803590602001909291908035906020019092919050505062001257565b6040518082815260200191505060405180910390f35b620004c8600480360360408110156200049157600080fd5b81019080803573ffffffffffffffffffffffffffffffffffffffff169060200190929190803590602001909291905050506200126d565b60405180848152602001838152602001828152602001935050505060405180910390f35b620004f662001301565b604051808215151515815260200191505060405180910390f35b6200051a620014e4565b6040518082815260200191505060405180910390f35b6200053a620014f5565b6040518082815260200191505060405180910390f35b620005b3600480360360808110156200056857600080fd5b81019080803573ffffffffffffffffffffffffffffffffffffffff169060200190929190803590602001909291908035906020019092919080359060200190929190505050620014fa565b6040518082815260200191505060405180910390f35b620005d36200168d565b604051808273ffffffffffffffffffffffffffffffffffffffff1673ffffffffffffffffffffffffffffffffffffffff16815260200191505060405180910390f35b6200064e600480360360408110156200062d57600080fd5b810190808035906020019092919080359060200190929190505050620016b3565b005b620006d3600480360360a08110156200066857600080fd5b81019080803573ffffffffffffffffffffffffffffffffffffffff169060200190929190803573ffffffffffffffffffffffffffffffffffffffff169060200190929190803590602001909291908035906020019092919080359060200190929190505050620017f7565b6040518082815260200191505060405180910390f35b620006f362001af3565b005b620006ff62001d67565b005b62000730600480360360208110156200071957600080fd5b810190808035906020019092919050505062001f8f565b6040518082815260200191505060405180910390f35b620007f3600480360360e08110156200075e57600080fd5b81019080803573ffffffffffffffffffffffffffffffffffffffff169060200190929190803590602001909291908035906020019092919080359060200190929190803573ffffffffffffffffffffffffffffffffffffffff169060200190929190803573ffffffffffffffffffffffffffffffffffffffff1690602001909291908035906020019092919050505062001fa7565b6040518082815260200191505060405180910390f35b6200081362002147565b6040518082815260200191505060405180910390f35b6200083362002158565b6040518080602001828103825283818151815260200191508051906020019060200280838360005b83811015620008785780820151818401526020810190506200085b565b505050509050019250505060405180910390f35b62000896620023c3565b604051808273ffffffffffffffffffffffffffffffffffffffff1673ffffffffffffffffffffffffffffffffffffffff16815260200191505060405180910390f35b6200090760048036036020811015620008f057600080fd5b8101908080359060200190929190505050620023e8565b604051808215151515815260200191505060405180910390f35b6200092b62002494565b604051808215151515815260200191505060405180910390f35b62000994600480360360408110156200095d57600080fd5b81019080803573ffffffffffffffffffffffffffffffffffffffff16906020019092919080359060200190929190505050620024a5565b604051808215151515815260200191505060405180910390f35b62000a5b600480360360e0811015620009c657600080fd5b81019080803573ffffffffffffffffffffffffffffffffffffffff169060200190929190803573ffffffffffffffffffffffffffffffffffffffff169060200190929190803590602001909291908035906020019092919080359060200190929190803573ffffffffffffffffffffffffffffffffffffffff16906020019092919080359060200190929190505050620024e5565b6040518082815260200191505060405180910390f35b62000afe600480360360c081101562000a8957600080fd5b81019080803573ffffffffffffffffffffffffffffffffffffffff169060200190929190803590602001909291908035906020019092919080359060200190929190803573ffffffffffffffffffffffffffffffffffffffff16906020019092919080359060200190929190505050620027f0565b604051808381526020018273ffffffffffffffffffffffffffffffffffffffff1673ffffffffffffffffffffffffffffffffffffffff1681526020019250505060405180910390f35b62000b8a6004803603606081101562000b5f57600080fd5b81019080803590602001909291908035906020019092919080359060200190929190505050620029a1565b60405180848152602001838152602001828152602001935050505060405180910390f35b600260009054906101000a900473ffffffffffffffffffffffffffffffffffffffff1681565b600062000cac62000be4620029cb565b73ffffffffffffffffffffffffffffffffffffffff1663f1406dc885856040518363ffffffff1660e01b8152600401808373ffffffffffffffffffffffffffffffffffffffff1673ffffffffffffffffffffffffffffffffffffffff1681526020018281526020019250505060206040518083038186803b15801562000c6957600080fd5b505afa15801562000c7e573d6000803e3d6000fd5b505050506040513d602081101562000c9557600080fd5b8101908080519060200190929190505050620029fd565b905092915050565b60008062000cc162002a73565b90508073ffffffffffffffffffffffffffffffffffffffff163373ffffffffffffffffffffffffffffffffffffffff16148062000dbb57506000801b8173ffffffffffffffffffffffffffffffffffffffff1663c9a2f3ad336040518263ffffffff1660e01b8152600401808273ffffffffffffffffffffffffffffffffffffffff1673ffffffffffffffffffffffffffffffffffffffff16815260200191505060206040518083038186803b15801562000d7b57600080fd5b505afa15801562000d90573d6000803e3d6000fd5b505050506040513d602081101562000da757600080fd5b810190808051906020019092919050505014155b62000e12576040517f08c379a00000000000000000000000000000000000000000000000000000000081526004018080602001828103825260438152602001806200846f6043913960600191505060405180910390fd5b600062000e258888888888600062002aa5565b50809250819450505062000e3a818562003017565b505095945050505050565b62000e4f6200311d565b73ffffffffffffffffffffffffffffffffffffffff1663086dabd16040518163ffffffff1660e01b815260040160006040518083038186803b15801562000e9557600080fd5b505afa15801562000eaa573d6000803e3d6000fd5b50505050600073ffffffffffffffffffffffffffffffffffffffff1662000ed06200314f565b73ffffffffffffffffffffffffffffffffffffffff166357ad4663836040518263ffffffff1660e01b81526004018082815260200191505060206040518083038186803b15801562000f2157600080fd5b505afa15801562000f36573d6000803e3d6000fd5b505050506040513d602081101562000f4d57600080fd5b810190808051906020019092919050505073ffffffffffffffffffffffffffffffffffffffff16141562000fe9576040517f08c379a000000000000000000000000000000000000000000000000000000000815260040180806020018281038252600d8152602001807f4e6f20737563682070796e74680000000000000000000000000000000000000081525060200191505060405180910390fd5b6200108c8162000ff862003181565b73ffffffffffffffffffffffffffffffffffffffff1663ac82f608846040518263ffffffff1660e01b81526004018082815260200191505060206040518083038186803b1580156200104957600080fd5b505afa1580156200105e573d6000803e3d6000fd5b505050506040513d60208110156200107557600080fd5b8101908080519060200190929190505050620031b3565b620010ff576040517f08c379a00000000000000000000000000000000000000000000000000000000081526004018080602001828103825260148152602001807f50796e74682070726963652069732076616c696400000000000000000000000081525060200191505060405180910390fd5b620011096200311d565b73ffffffffffffffffffffffffffffffffffffffff1663631070fc8260416040518363ffffffff1660e01b81526004018083815260200182815260200192505050600060405180830381600087803b1580156200116557600080fd5b505af11580156200117a573d6000803e3d6000fd5b5050505050565b6200118b6200345d565b80600160006101000a81548173ffffffffffffffffffffffffffffffffffffffff021916908373ffffffffffffffffffffffffffffffffffffffff1602179055507f906a1c6bd7e3091ea86693dd029a831c19049ce77f1dce2ce0bab1cacbabce2281604051808273ffffffffffffffffffffffffffffffffffffffff1673ffffffffffffffffffffffffffffffffffffffff16815260200191505060405180910390a150565b600080600062001243858562003506565b508093508194508295505050509250925092565b600062001265838362003861565b905092915050565b60008060006200127c6200311d565b73ffffffffffffffffffffffffffffffffffffffff16631d7e7789856040518263ffffffff1660e01b81526004018082815260200191505060006040518083038186803b158015620012cd57600080fd5b505afa158015620012e2573d6000803e3d6000fd5b50505050620012f485856001620039f8565b9250925092509250925092565b600060606200130f62002158565b905060008090505b8151811015620014da5760008282815181106200133057fe5b602002602001015190506003600082815260200190815260200160002060009054906101000a900473ffffffffffffffffffffffffffffffffffffffff1673ffffffffffffffffffffffffffffffffffffffff16600260009054906101000a900473ffffffffffffffffffffffffffffffffffffffff1673ffffffffffffffffffffffffffffffffffffffff166321f8a721836040518263ffffffff1660e01b81526004018082815260200191505060206040518083038186803b158015620013f857600080fd5b505afa1580156200140d573d6000803e3d6000fd5b505050506040513d60208110156200142457600080fd5b810190808051906020019092919050505073ffffffffffffffffffffffffffffffffffffffff16141580620014b85750600073ffffffffffffffffffffffffffffffffffffffff166003600083815260200190815260200160002060009054906101000a900473ffffffffffffffffffffffffffffffffffffffff1673ffffffffffffffffffffffffffffffffffffffff16145b15620014cb5760009350505050620014e1565b50808060010191505062001317565b5060019150505b90565b6000620014f062003e11565b905090565b604181565b600082905060006200150b6200314f565b73ffffffffffffffffffffffffffffffffffffffff166357ad4663866040518263ffffffff1660e01b81526004018082815260200191505060206040518083038186803b1580156200155c57600080fd5b505afa15801562001571573d6000803e3d6000fd5b505050506040513d60208110156200158857600080fd5b810190808051906020019092919050505073ffffffffffffffffffffffffffffffffffffffff166370a08231876040518263ffffffff1660e01b8152600401808273ffffffffffffffffffffffffffffffffffffffff1673ffffffffffffffffffffffffffffffffffffffff16815260200191505060206040518083038186803b1580156200161657600080fd5b505afa1580156200162b573d6000803e3d6000fd5b505050506040513d60208110156200164257600080fd5b810190808051906020019092919050505090508082111562001662578091505b6000831115620016845762001681838362003ef890919063ffffffff16565b91505b50949350505050565b600160009054906101000a900473ffffffffffffffffffffffffffffffffffffffff1681565b6000620016bf62003181565b90508073ffffffffffffffffffffffffffffffffffffffff163373ffffffffffffffffffffffffffffffffffffffff161462001763576040517f08c379a000000000000000000000000000000000000000000000000000000000815260040180806020018281038252601b8152602001807f5265737472696374656420746f2045786368616e67655261746573000000000081525060200191505060405180910390fd5b60008211620017da576040517f08c379a00000000000000000000000000000000000000000000000000000000081526004018080602001828103825260148152602001807f52617465206d7573742062652061626f7665203000000000000000000000000081525060200191505060405180910390fd5b816004600085815260200190815260200160002081905550505050565b6000806200180462002a73565b90508073ffffffffffffffffffffffffffffffffffffffff163373ffffffffffffffffffffffffffffffffffffffff161480620018fe57506000801b8173ffffffffffffffffffffffffffffffffffffffff1663c9a2f3ad336040518263ffffffff1660e01b8152600401808273ffffffffffffffffffffffffffffffffffffffff1673ffffffffffffffffffffffffffffffffffffffff16815260200191505060206040518083038186803b158015620018be57600080fd5b505afa158015620018d3573d6000803e3d6000fd5b505050506040513d6020811015620018ea57600080fd5b810190808051906020019092919050505014155b62001955576040517f08c379a00000000000000000000000000000000000000000000000000000000081526004018080602001828103825260438152602001806200846f6043913960600191505060405180910390fd5b6200195f62003f81565b73ffffffffffffffffffffffffffffffffffffffff1663faf431bb88886040518363ffffffff1660e01b8152600401808373ffffffffffffffffffffffffffffffffffffffff1673ffffffffffffffffffffffffffffffffffffffff1681526020018273ffffffffffffffffffffffffffffffffffffffff1673ffffffffffffffffffffffffffffffffffffffff1681526020019250505060206040518083038186803b15801562001a1057600080fd5b505afa15801562001a25573d6000803e3d6000fd5b505050506040513d602081101562001a3c57600080fd5b810190808051906020019092919050505062001ac0576040517f08c379a000000000000000000000000000000000000000000000000000000000815260040180806020018281038252601d8152602001807f4e6f7420617070726f76656420746f20616374206f6e20626568616c6600000081525060200191505060405180910390fd5b600062001ad3888787878c600062002aa5565b50809250819450505062001ae8818962003017565b505095945050505050565b606062001aff62002158565b905060008090505b815181101562001d6357600082828151811062001b2057fe5b602002602001015190506000600260009054906101000a900473ffffffffffffffffffffffffffffffffffffffff1673ffffffffffffffffffffffffffffffffffffffff1663dacb2d01838460405160200180807f5265736f6c766572206d697373696e67207461726765743a20000000000000008152506019018281526020019150506040516020818303038152906040526040518363ffffffff1660e01b81526004018083815260200180602001828103825283818151815260200191508051906020019080838360005b8381101562001c0a57808201518184015260208101905062001bed565b50505050905090810190601f16801562001c385780820380516001836020036101000a031916815260200191505b50935050505060206040518083038186803b15801562001c5757600080fd5b505afa15801562001c6c573d6000803e3d6000fd5b505050506040513d602081101562001c8357600080fd5b81019080805190602001909291905050509050806003600084815260200190815260200160002060006101000a81548173ffffffffffffffffffffffffffffffffffffffff021916908373ffffffffffffffffffffffffffffffffffffffff1602179055507f88a93678a3692f6789d9546fc621bf7234b101ddb7d4fe479455112831b8aa688282604051808381526020018273ffffffffffffffffffffffffffffffffffffffff1673ffffffffffffffffffffffffffffffffffffffff1681526020019250505060405180910390a15050808060010191505062001b07565b5050565b600160009054906101000a900473ffffffffffffffffffffffffffffffffffffffff1673ffffffffffffffffffffffffffffffffffffffff163373ffffffffffffffffffffffffffffffffffffffff161462001e0f576040517f08c379a0000000000000000000000000000000000000000000000000000000008152600401808060200182810382526035815260200180620083ea6035913960400191505060405180910390fd5b7fb532073b38c83145e3e5135377a08bf9aab55bc0fd7c1179cd4fb995d2a5159c6000809054906101000a900473ffffffffffffffffffffffffffffffffffffffff16600160009054906101000a900473ffffffffffffffffffffffffffffffffffffffff16604051808373ffffffffffffffffffffffffffffffffffffffff1673ffffffffffffffffffffffffffffffffffffffff1681526020018273ffffffffffffffffffffffffffffffffffffffff1673ffffffffffffffffffffffffffffffffffffffff1681526020019250505060405180910390a1600160009054906101000a900473ffffffffffffffffffffffffffffffffffffffff166000806101000a81548173ffffffffffffffffffffffffffffffffffffffff021916908373ffffffffffffffffffffffffffffffffffffffff1602179055506000600160006101000a81548173ffffffffffffffffffffffffffffffffffffffff021916908373ffffffffffffffffffffffffffffffffffffffff160217905550565b60046020528060005260406000206000915090505481565b60008062001fb462002a73565b90508073ffffffffffffffffffffffffffffffffffffffff163373ffffffffffffffffffffffffffffffffffffffff161480620020ae57506000801b8173ffffffffffffffffffffffffffffffffffffffff1663c9a2f3ad336040518263ffffffff1660e01b8152600401808273ffffffffffffffffffffffffffffffffffffffff1673ffffffffffffffffffffffffffffffffffffffff16815260200191505060206040518083038186803b1580156200206e57600080fd5b505afa15801562002083573d6000803e3d6000fd5b505050506040513d60208110156200209a57600080fd5b810190808051906020019092919050505014155b62002105576040517f08c379a00000000000000000000000000000000000000000000000000000000081526004018080602001828103825260438152602001806200846f6043913960600191505060405180910390fd5b6000620021188a8a8a8a8a600062002aa5565b5080925081945050506200212d818662003017565b6200213a84888562003fb3565b5050979650505050505050565b6000620021536200403e565b905090565b6060806200216562004125565b9050606060096040519080825280602002602001820160405280156200219a5781602001602082028038833980820191505090505b5090507f53797374656d537461747573000000000000000000000000000000000000000081600081518110620021cc57fe5b6020026020010181815250507f45786368616e6765537461746500000000000000000000000000000000000000816001815181106200220757fe5b6020026020010181815250507f45786368616e6765526174657300000000000000000000000000000000000000816002815181106200224257fe5b6020026020010181815250507f5065726946696e00000000000000000000000000000000000000000000000000816003815181106200227d57fe5b6020026020010181815250507f466565506f6f6c0000000000000000000000000000000000000000000000000081600481518110620022b857fe5b6020026020010181815250507f54726164696e675265776172647300000000000000000000000000000000000081600581518110620022f357fe5b6020026020010181815250507f44656c6567617465417070726f76616c73000000000000000000000000000000816006815181106200232e57fe5b6020026020010181815250507f4973737565720000000000000000000000000000000000000000000000000000816007815181106200236957fe5b6020026020010181815250507f446562744361636865000000000000000000000000000000000000000000000081600881518110620023a457fe5b602002602001018181525050620023bc828262004199565b9250505090565b6000809054906101000a900473ffffffffffffffffffffffffffffffffffffffff1681565b60006200248d82620023f962003181565b73ffffffffffffffffffffffffffffffffffffffff1663ac82f608856040518263ffffffff1660e01b81526004018082815260200191505060206040518083038186803b1580156200244a57600080fd5b505afa1580156200245f573d6000803e3d6000fd5b505050506040513d60208110156200247657600080fd5b8101908080519060200190929190505050620031b3565b9050919050565b6000620024a062004275565b905090565b600080620024b4848462000bd4565b14620024c45760019050620024df565b6000620024d2848462003506565b5050509050600081119150505b92915050565b600080620024f262002a73565b90508073ffffffffffffffffffffffffffffffffffffffff163373ffffffffffffffffffffffffffffffffffffffff161480620025ec57506000801b8173ffffffffffffffffffffffffffffffffffffffff1663c9a2f3ad336040518263ffffffff1660e01b8152600401808273ffffffffffffffffffffffffffffffffffffffff1673ffffffffffffffffffffffffffffffffffffffff16815260200191505060206040518083038186803b158015620025ac57600080fd5b505afa158015620025c1573d6000803e3d6000fd5b505050506040513d6020811015620025d857600080fd5b810190808051906020019092919050505014155b62002643576040517f08c379a00000000000000000000000000000000000000000000000000000000081526004018080602001828103825260438152602001806200846f6043913960600191505060405180910390fd5b6200264d62003f81565b73ffffffffffffffffffffffffffffffffffffffff1663faf431bb8a8a6040518363ffffffff1660e01b8152600401808373ffffffffffffffffffffffffffffffffffffffff1673ffffffffffffffffffffffffffffffffffffffff1681526020018273ffffffffffffffffffffffffffffffffffffffff1673ffffffffffffffffffffffffffffffffffffffff1681526020019250505060206040518083038186803b158015620026fe57600080fd5b505afa15801562002713573d6000803e3d6000fd5b505050506040513d60208110156200272a57600080fd5b8101908080519060200190929190505050620027ae576040517f08c379a000000000000000000000000000000000000000000000000000000000815260040180806020018281038252601d8152602001807f4e6f7420617070726f76656420746f20616374206f6e20626568616c6600000081525060200191505060405180910390fd5b6000620027c18a8989898e600062002aa5565b508092508194505050620027d6818662003017565b620027e384878562003fb3565b5050979650505050505050565b6000806000620027ff62002a73565b90508073ffffffffffffffffffffffffffffffffffffffff163373ffffffffffffffffffffffffffffffffffffffff161480620028f957506000801b8173ffffffffffffffffffffffffffffffffffffffff1663c9a2f3ad336040518263ffffffff1660e01b8152600401808273ffffffffffffffffffffffffffffffffffffffff1673ffffffffffffffffffffffffffffffffffffffff16815260200191505060206040518083038186803b158015620028b957600080fd5b505afa158015620028ce573d6000803e3d6000fd5b505050506040513d6020811015620028e557600080fd5b810190808051906020019092919050505014155b62002950576040517f08c379a00000000000000000000000000000000000000000000000000000000081526004018080602001828103825260438152602001806200846f6043913960600191505060405180910390fd5b6000620029638a8a8a8a8a600162002aa5565b8095508193508296505050506200297b818762003017565b6000801b851462002994576200299385888662003fb3565b5b5050965096945050505050565b6000806000620029b38686866200435c565b90505080935081945082955050505093509350939050565b6000620029f87f45786368616e67655374617465000000000000000000000000000000000000006200446c565b905090565b60008062002a0a6200403e565b9050600083148062002a30575062002a2c818462003ef890919063ffffffff16565b4210155b1562002a4157600091505062002a6e565b62002a6a4262002a5b838662003ef890919063ffffffff16565b620045d290919063ffffffff16565b9150505b919050565b600062002aa07f5065726946696e000000000000000000000000000000000000000000000000006200446c565b905090565b600080600062002ab78888886200465c565b600062002ac6888b8b620048ef565b9050600081141562002aea576000806000829250819150935093509350506200300b565b600080600062002afc848d8c6200435c565b809550819650829750839a50849b50505050505062002b1c8c836200492e565b8062002b30575062002b2f8a826200492e565b5b1562002b51576000806000829250819150965096509650505050506200300b565b62002b628c8e868d8b8e8e620049ea565b9450600073ffffffffffffffffffffffffffffffffffffffff168573ffffffffffffffffffffffffffffffffffffffff161462002b9d578498505b600086111562002ecc5762002bb162003181565b73ffffffffffffffffffffffffffffffffffffffff1663654a60ac8b887f70555344000000000000000000000000000000000000000000000000000000006040518463ffffffff1660e01b815260040180848152602001838152602001828152602001935050505060206040518083038186803b15801562002c3257600080fd5b505afa15801562002c47573d6000803e3d6000fd5b505050506040513d602081101562002c5e57600080fd5b8101908080519060200190929190505050955062002c7b6200314f565b73ffffffffffffffffffffffffffffffffffffffff166357ad46637f70555344000000000000000000000000000000000000000000000000000000006040518263ffffffff1660e01b81526004018082815260200191505060206040518083038186803b15801562002cec57600080fd5b505afa15801562002d01573d6000803e3d6000fd5b505050506040513d602081101562002d1857600080fd5b810190808051906020019092919050505073ffffffffffffffffffffffffffffffffffffffff1663867904b462002d4e62004db5565b73ffffffffffffffffffffffffffffffffffffffff1663eb1edd616040518163ffffffff1660e01b815260040160206040518083038186803b15801562002d9457600080fd5b505afa15801562002da9573d6000803e3d6000fd5b505050506040513d602081101562002dc057600080fd5b8101908080519060200190929190505050886040518363ffffffff1660e01b8152600401808373ffffffffffffffffffffffffffffffffffffffff1673ffffffffffffffffffffffffffffffffffffffff16815260200182815260200192505050600060405180830381600087803b15801562002e3c57600080fd5b505af115801562002e51573d6000803e3d6000fd5b5050505062002e5f62004db5565b73ffffffffffffffffffffffffffffffffffffffff166322bf55ef876040518263ffffffff1660e01b815260040180828152602001915050600060405180830381600087803b15801562002eb257600080fd5b505af115801562002ec7573d6000803e3d6000fd5b505050505b62002f0060405180604001604052808e81526020018c81525060405180604001604052808581526020018481525062004de7565b62002f0a62002a73565b73ffffffffffffffffffffffffffffffffffffffff16631b99084c8e8e878e8c8f6040518763ffffffff1660e01b8152600401808773ffffffffffffffffffffffffffffffffffffffff1673ffffffffffffffffffffffffffffffffffffffff1681526020018681526020018581526020018481526020018381526020018273ffffffffffffffffffffffffffffffffffffffff1673ffffffffffffffffffffffffffffffffffffffff1681526020019650505050505050600060405180830381600087803b15801562002fdd57600080fd5b505af115801562002ff2573d6000803e3d6000fd5b5050505062003006898d868d8b886200517d565b505050505b96509650969350505050565b600082118015620030555750600073ffffffffffffffffffffffffffffffffffffffff168173ffffffffffffffffffffffffffffffffffffffff1614155b80156200306857506200306762004275565b5b156200311957620030786200541c565b73ffffffffffffffffffffffffffffffffffffffff166321cad77483836040518363ffffffff1660e01b8152600401808381526020018273ffffffffffffffffffffffffffffffffffffffff1673ffffffffffffffffffffffffffffffffffffffff16815260200192505050600060405180830381600087803b158015620030ff57600080fd5b505af115801562003114573d6000803e3d6000fd5b505050505b5050565b60006200314a7f53797374656d53746174757300000000000000000000000000000000000000006200446c565b905090565b60006200317c7f49737375657200000000000000000000000000000000000000000000000000006200446c565b905090565b6000620031ae7f45786368616e67655261746573000000000000000000000000000000000000006200446c565b905090565b600080821415620031c8576001905062003457565b6000600460008581526020019081526020016000205490506000811115620031ff57620031f681846200544e565b91505062003457565b60606200320b62003181565b73ffffffffffffffffffffffffffffffffffffffff16632d7371e18660046040518363ffffffff1660e01b8152600401808381526020018281526020019250505060006040518083038186803b1580156200326557600080fd5b505afa1580156200327a573d6000803e3d6000fd5b505050506040513d6000823e3d601f19601f820116820180604052506040811015620032a557600080fd5b8101908080516040519392919084640100000000821115620032c657600080fd5b83820191506020820185811115620032dd57600080fd5b8251866020820283011164010000000082111715620032fb57600080fd5b8083526020830192505050908051906020019060200280838360005b838110156200333457808201518184015260208101905062003317565b50505050905001604052602001805160405193929190846401000000008211156200335e57600080fd5b838201915060208201858111156200337557600080fd5b82518660208202830111640100000000821117156200339357600080fd5b8083526020830192505050908051906020019060200280838360005b83811015620033cc578082015181840152602081019050620033af565b505050509050016040525050505090506000600190505b81518110156200344f576000828281518110620033fc57fe5b60200260200101511180156200342e57506200342d8282815181106200341e57fe5b6020026020010151866200544e565b5b1562003441576001935050505062003457565b8080600101915050620033e3565b506000925050505b92915050565b6000809054906101000a900473ffffffffffffffffffffffffffffffffffffffff1673ffffffffffffffffffffffffffffffffffffffff163373ffffffffffffffffffffffffffffffffffffffff161462003504576040517f08c379a000000000000000000000000000000000000000000000000000000000815260040180806020018281038252602f8152602001806200841f602f913960400191505060405180910390fd5b565b6000806000606062003517620029cb565b73ffffffffffffffffffffffffffffffffffffffff1663b44e975387876040518363ffffffff1660e01b8152600401808373ffffffffffffffffffffffffffffffffffffffff1673ffffffffffffffffffffffffffffffffffffffff1681526020018281526020019250505060206040518083038186803b1580156200359c57600080fd5b505afa158015620035b1573d6000803e3d6000fd5b505050506040513d6020811015620035c857600080fd5b810190808051906020019092919050505091506060826040519080825280602002602001820160405280156200361b57816020015b62003607620061ce565b815260200190600190039081620035fd5790505b50905060008090505b838110156200384a576000806200363a62006219565b620036478b8b86620054c6565b9050600080620036578362005653565b9150915060006200366762003181565b73ffffffffffffffffffffffffffffffffffffffff1663266da16b85600001518660200151876040015187876040518663ffffffff1660e01b8152600401808681526020018581526020018481526020018381526020018281526020019550505050505060206040518083038186803b158015620036e457600080fd5b505afa158015620036f9573d6000803e3d6000fd5b505050506040513d60208110156200371057600080fd5b81019080805190602001909291905050509050600062003735828660800151620057e3565b9050620037478560600151826200544e565b620037d3578085606001511115620037915762003772818660600151620045d290919063ffffffff16565b965062003789878e62003ef890919063ffffffff16565b9c50620037d2565b8460600151811115620037d157620037b7856060015182620045d290919063ffffffff16565b9550620037ce868d62003ef890919063ffffffff16565b9b505b5b5b6040518061010001604052808660000151815260200186602001518152602001866040015181526020018881526020018781526020018581526020018481526020018660a001518152508989815181106200382a57fe5b602002602001018190525050505050505050808060010191505062003624565b508484848394509450945094505092959194509250565b60006200386e8262005897565b90507f7055534400000000000000000000000000000000000000000000000000000000831480620038be57507f705553440000000000000000000000000000000000000000000000000000000082145b15620038cd57809050620039f2565b607360f81b83600060208110620038e057fe5b1a60f81b7effffffffffffffffffffffffffffffffffffffffffffffffffffffffffffff19161480156200394a5750606960f81b826000602081106200392257fe5b1a60f81b7effffffffffffffffffffffffffffffffffffffffffffffffffffffffffffff1916145b80620039cf5750606960f81b836000602081106200396457fe5b1a60f81b7effffffffffffffffffffffffffffffffffffffffffffffffffffffffffffff1916148015620039ce5750607360f81b82600060208110620039a657fe5b1a60f81b7effffffffffffffffffffffffffffffffffffffffffffffffffffffffffffff1916145b5b15620039ee57620039eb600282620059ae90919063ffffffff16565b90505b8090505b92915050565b60008060008062003a0a878762000bd4565b1462003a62576040517f08c379a0000000000000000000000000000000000000000000000000000000008152600401808060200182810382526023815260200180620084d46023913960400191505060405180910390fd5b6000806000606062003a758a8a62003506565b93509350935093508284111562003ab05762003a9b8385620045d290919063ffffffff16565b965062003aaa8a8a8962005a39565b62003adf565b8383111562003ade5762003ace8484620045d290919063ffffffff16565b955062003add8a8a8862005c28565b5b5b871562003bf2576060600160405190808252806020026020018201604052801562003b195781602001602082028038833980820191505090505b509050898160008151811062003b2b57fe5b60200260200101818152505062003b4162005e17565b73ffffffffffffffffffffffffffffffffffffffff1663fa9f18d3826040518263ffffffff1660e01b81526004018080602001828103825283818151815260200191508051906020019060200280838360005b8381101562003bb157808201518184015260208101905062003b94565b5050505090500192505050600060405180830381600087803b15801562003bd757600080fd5b505af115801562003bec573d6000803e3d6000fd5b50505050505b60008090505b815181101562003d56578a73ffffffffffffffffffffffffffffffffffffffff167f8e3ad1f68bec55de3b6fa12ae2674a2a683a17c918a4cbf5157ac5d9ddc6e94083838151811062003c4757fe5b60200260200101516000015184848151811062003c6057fe5b60200260200101516020015185858151811062003c7957fe5b60200260200101516040015186868151811062003c9257fe5b60200260200101516060015187878151811062003cab57fe5b60200260200101516080015188888151811062003cc457fe5b602002602001015160a0015189898151811062003cdd57fe5b602002602001015160c001518a8a8151811062003cf657fe5b602002602001015160e00151604051808981526020018881526020018781526020018681526020018581526020018481526020018381526020018281526020019850505050505050505060405180910390a2808060010191505062003bf8565b5081945062003d64620029cb565b73ffffffffffffffffffffffffffffffffffffffff1663d0d3d62a8b8b6040518363ffffffff1660e01b8152600401808373ffffffffffffffffffffffffffffffffffffffff1673ffffffffffffffffffffffffffffffffffffffff16815260200182815260200192505050600060405180830381600087803b15801562003deb57600080fd5b505af115801562003e00573d6000803e3d6000fd5b505050505050505093509350939050565b600062003e1d62005e49565b73ffffffffffffffffffffffffffffffffffffffff166323257c2b7f53797374656d53657474696e67730000000000000000000000000000000000007f7072696365446576696174696f6e5468726573686f6c64466163746f720000006040518363ffffffff1660e01b8152600401808381526020018281526020019250505060206040518083038186803b15801562003eb657600080fd5b505afa15801562003ecb573d6000803e3d6000fd5b505050506040513d602081101562003ee257600080fd5b8101908080519060200190929190505050905090565b60008082840190508381101562003f77576040517f08c379a000000000000000000000000000000000000000000000000000000000815260040180806020018281038252601b8152602001807f536166654d6174683a206164646974696f6e206f766572666c6f77000000000081525060200191505060405180910390fd5b8091505092915050565b600062003fae7f44656c6567617465417070726f76616c730000000000000000000000000000006200446c565b905090565b62003fbd62002a73565b73ffffffffffffffffffffffffffffffffffffffff1663ddd03a3f8484846040518463ffffffff1660e01b8152600401808481526020018381526020018281526020019350505050600060405180830381600087803b1580156200402057600080fd5b505af115801562004035573d6000803e3d6000fd5b50505050505050565b60006200404a62005e49565b73ffffffffffffffffffffffffffffffffffffffff166323257c2b7f53797374656d53657474696e67730000000000000000000000000000000000007f77616974696e67506572696f64536563730000000000000000000000000000006040518363ffffffff1660e01b8152600401808381526020018281526020019250505060206040518083038186803b158015620040e357600080fd5b505afa158015620040f8573d6000803e3d6000fd5b505050506040513d60208110156200410f57600080fd5b8101908080519060200190929190505050905090565b60606001604051908082528060200260200182016040528015620041585781602001602082028038833980820191505090505b5090507f466c657869626c6553746f726167650000000000000000000000000000000000816000815181106200418a57fe5b60200260200101818152505090565b60608151835101604051908082528060200260200182016040528015620041cf5781602001602082028038833980820191505090505b50905060008090505b83518110156200421e57838181518110620041ef57fe5b60200260200101518282815181106200420457fe5b6020026020010181815250508080600101915050620041d8565b5060008090505b82518110156200426e578281815181106200423c57fe5b60200260200101518282865101815181106200425457fe5b602002602001018181525050808060010191505062004225565b5092915050565b60006200428162005e49565b73ffffffffffffffffffffffffffffffffffffffff1663d994502d7f53797374656d53657474696e67730000000000000000000000000000000000007f74726164696e6752657761726473456e61626c656400000000000000000000006040518363ffffffff1660e01b8152600401808381526020018281526020019250505060206040518083038186803b1580156200431a57600080fd5b505afa1580156200432f573d6000803e3d6000fd5b505050506040513d60208110156200434657600080fd5b8101908080519060200190929190505050905090565b6000806000806000806200436f62003181565b73ffffffffffffffffffffffffffffffffffffffff16638295016a898b8a6040518463ffffffff1660e01b815260040180848152602001838152602001828152602001935050505060606040518083038186803b158015620043d057600080fd5b505afa158015620043e5573d6000803e3d6000fd5b505050506040513d6060811015620043fc57600080fd5b8101908080519060200190929190805190602001909291908051906020019092919050505080945081955082935050505062004439888862003861565b9350620044478185620057e3565b95506200445e8682620045d290919063ffffffff16565b945050939792965093509350565b6000806003600084815260200190815260200160002060009054906101000a900473ffffffffffffffffffffffffffffffffffffffff169050600073ffffffffffffffffffffffffffffffffffffffff168173ffffffffffffffffffffffffffffffffffffffff1614158360405160200180807f4d697373696e6720616464726573733a2000000000000000000000000000000081525060110182815260200191505060405160208183030381529060405290620045c8576040517f08c379a00000000000000000000000000000000000000000000000000000000081526004018080602001828103825283818151815260200191508051906020019080838360005b838110156200458c5780820151818401526020810190506200456f565b50505050905090810190601f168015620045ba5780820380516001836020036101000a031916815260200191505b509250505060405180910390fd5b5080915050919050565b6000828211156200464b576040517f08c379a000000000000000000000000000000000000000000000000000000000815260040180806020018281038252601e8152602001807f536166654d6174683a207375627472616374696f6e206f766572666c6f77000081525060200191505060405180910390fd5b600082840390508091505092915050565b80831415620046d3576040517f08c379a00000000000000000000000000000000000000000000000000000000081526004018080602001828103825260138152602001807f43616e27742062652073616d652070796e74680000000000000000000000000081525060200191505060405180910390fd5b600082116200474a576040517f08c379a000000000000000000000000000000000000000000000000000000000815260040180806020018281038252600b8152602001807f5a65726f20616d6f756e7400000000000000000000000000000000000000000081525060200191505060405180910390fd5b606060026040519080825280602002602001820160405280156200477d5781602001602082028038833980820191505090505b50905083816000815181106200478f57fe5b6020026020010181815250508181600181518110620047aa57fe5b602002602001018181525050620047c062003181565b73ffffffffffffffffffffffffffffffffffffffff16630a7d36d1826040518263ffffffff1660e01b81526004018080602001828103825283818151815260200191508051906020019060200280838360005b838110156200483057808201518184015260208101905062004813565b505050509050019250505060206040518083038186803b1580156200485457600080fd5b505afa15801562004869573d6000803e3d6000fd5b505050506040513d60208110156200488057600080fd5b810190808051906020019092919050505015620048e9576040517f08c379a0000000000000000000000000000000000000000000000000000000008152600401808060200182810382526022815260200180620084b26022913960400191505060405180910390fd5b50505050565b60008060006200490285856000620039f8565b9250925050859250600081111562004925576200492285858885620014fa565b92505b50509392505050565b60006200493c8383620031b3565b15620049cb576200494c6200311d565b73ffffffffffffffffffffffffffffffffffffffff1663631070fc8460416040518363ffffffff1660e01b81526004018083815260200182815260200192505050600060405180830381600087803b158015620049a857600080fd5b505af1158015620049bd573d6000803e3d6000fd5b5050505060019050620049e4565b8160046000858152602001908152602001600020819055505b92915050565b6000620049f66200314f565b73ffffffffffffffffffffffffffffffffffffffff166357ad4663896040518263ffffffff1660e01b81526004018082815260200191505060206040518083038186803b15801562004a4757600080fd5b505afa15801562004a5c573d6000803e3d6000fd5b505050506040513d602081101562004a7357600080fd5b810190808051906020019092919050505073ffffffffffffffffffffffffffffffffffffffff16639dc29fac88886040518363ffffffff1660e01b8152600401808373ffffffffffffffffffffffffffffffffffffffff1673ffffffffffffffffffffffffffffffffffffffff16815260200182815260200192505050600060405180830381600087803b15801562004b0b57600080fd5b505af115801562004b20573d6000803e3d6000fd5b50505050600062004b306200314f565b73ffffffffffffffffffffffffffffffffffffffff166357ad4663876040518263ffffffff1660e01b81526004018082815260200191505060206040518083038186803b15801562004b8157600080fd5b505afa15801562004b96573d6000803e3d6000fd5b505050506040513d602081101562004bad57600080fd5b81019080805190602001909291905050509050821562004d0757600081905062004c5d8173ffffffffffffffffffffffffffffffffffffffff1663ec5568896040518163ffffffff1660e01b815260040160206040518083038186803b15801562004c1757600080fd5b505afa15801562004c2c573d6000803e3d6000fd5b505050506040513d602081101562004c4357600080fd5b810190808051906020019092919050505086888a62005e7b565b92508173ffffffffffffffffffffffffffffffffffffffff1663867904b484886040518363ffffffff1660e01b8152600401808373ffffffffffffffffffffffffffffffffffffffff1673ffffffffffffffffffffffffffffffffffffffff16815260200182815260200192505050600060405180830381600087803b15801562004ce757600080fd5b505af115801562004cfc573d6000803e3d6000fd5b505050505062004da9565b8073ffffffffffffffffffffffffffffffffffffffff1663867904b485876040518363ffffffff1660e01b8152600401808373ffffffffffffffffffffffffffffffffffffffff1673ffffffffffffffffffffffffffffffffffffffff16815260200182815260200192505050600060405180830381600087803b15801562004d8f57600080fd5b505af115801562004da4573d6000803e3d6000fd5b505050505b50979650505050505050565b600062004de27f466565506f6f6c000000000000000000000000000000000000000000000000006200446c565b905090565b60007f70555344000000000000000000000000000000000000000000000000000000008360006002811062004e1857fe5b6020020151148062004e5b57507f70555344000000000000000000000000000000000000000000000000000000008360016002811062004e5457fe5b6020020151145b905060008162004e6d57600362004e70565b60025b60ff16905060608160405190808252806020026020018201604052801562004ea75781602001602082028038833980820191505090505b5090508460006002811062004eb857fe5b60200201518160008151811062004ecb57fe5b6020026020010181815250508460016002811062004ee557fe5b60200201518160018151811062004ef857fe5b60200260200101818152505060608260405190808252806020026020018201604052801562004f365781602001602082028038833980820191505090505b5090508460006002811062004f4757fe5b60200201518160008151811062004f5a57fe5b6020026020010181815250508460016002811062004f7457fe5b60200201518160018151811062004f8757fe5b6020026020010181815250508362005071577f70555344000000000000000000000000000000000000000000000000000000008260028151811062004fc857fe5b60200260200101818152505073__$b8d33eeb36ac0d1e81cd70156e0043e778$__63907af6c06040518163ffffffff1660e01b815260040160206040518083038186803b1580156200501957600080fd5b505af41580156200502e573d6000803e3d6000fd5b505050506040513d60208110156200504557600080fd5b8101908080519060200190929190505050816002815181106200506457fe5b6020026020010181815250505b6200507b62005e17565b73ffffffffffffffffffffffffffffffffffffffff16639f98fb4983836040518363ffffffff1660e01b8152600401808060200180602001838103835285818151815260200191508051906020019060200280838360005b83811015620050f0578082015181840152602081019050620050d3565b50505050905001838103825284818151815260200191508051906020019060200280838360005b838110156200513457808201518184015260208101905062005117565b50505050905001945050505050600060405180830381600087803b1580156200515c57600080fd5b505af115801562005171573d6000803e3d6000fd5b50505050505050505050565b60006200518962003181565b905060008173ffffffffffffffffffffffffffffffffffffffff16637a018a1e886040518263ffffffff1660e01b81526004018082815260200191505060206040518083038186803b158015620051df57600080fd5b505afa158015620051f4573d6000803e3d6000fd5b505050506040513d60208110156200520b57600080fd5b8101908080519060200190929190505050905060008273ffffffffffffffffffffffffffffffffffffffff16637a018a1e876040518263ffffffff1660e01b81526004018082815260200191505060206040518083038186803b1580156200527257600080fd5b505afa15801562005287573d6000803e3d6000fd5b505050506040513d60208110156200529e57600080fd5b81019080805190602001909291905050509050620052bb620029cb565b73ffffffffffffffffffffffffffffffffffffffff16633ca9d85c8a8a8a8a8a8a428a8a6040518a63ffffffff1660e01b8152600401808a73ffffffffffffffffffffffffffffffffffffffff1673ffffffffffffffffffffffffffffffffffffffff1681526020018981526020018881526020018781526020018681526020018581526020018481526020018381526020018281526020019950505050505050505050600060405180830381600087803b1580156200537a57600080fd5b505af11580156200538f573d6000803e3d6000fd5b505050508873ffffffffffffffffffffffffffffffffffffffff167f62e40d554c7abcdd31074960d8347a2225daeb04d93bc748f049ba2ce9462398898989898988886040518088815260200187815260200186815260200185815260200184815260200183815260200182815260200197505050505050505060405180910390a2505050505050505050565b6000620054497f54726164696e67526577617264730000000000000000000000000000000000006200446c565b905090565b6000808314806200545f5750600082145b156200546f5760019050620054c0565b60008383111562005497576200548f8484620060d390919063ffffffff16565b9050620054af565b620054ac8385620060d390919063ffffffff16565b90505b620054b962003e11565b8110159150505b92915050565b620054d062006219565b600080600080600080600080620054e6620029cb565b73ffffffffffffffffffffffffffffffffffffffff166315987eb68d8d8d6040518463ffffffff1660e01b8152600401808473ffffffffffffffffffffffffffffffffffffffff1673ffffffffffffffffffffffffffffffffffffffff16815260200183815260200182815260200193505050506101006040518083038186803b1580156200557457600080fd5b505afa15801562005589573d6000803e3d6000fd5b505050506040513d610100811015620055a157600080fd5b8101908080519060200190929190805190602001909291908051906020019092919080519060200190929190805190602001909291908051906020019092919080519060200190929190805190602001909291905050509750975097509750975097509750975060405180610100016040528089815260200188815260200187815260200186815260200185815260200184815260200183815260200182815250985050505050505050509392505050565b60008060006200566262003181565b90506000620056706200403e565b90508173ffffffffffffffffffffffffffffffffffffffff1663109e46a286600001518760c001518860a00151856040518563ffffffff1660e01b81526004018085815260200184815260200183815260200182815260200194505050505060206040518083038186803b158015620056e857600080fd5b505afa158015620056fd573d6000803e3d6000fd5b505050506040513d60208110156200571457600080fd5b810190808051906020019092919050505093508173ffffffffffffffffffffffffffffffffffffffff1663109e46a286604001518760e001518860a00151856040518563ffffffff1660e01b81526004018085815260200184815260200183815260200182815260200194505050505060206040518083038186803b1580156200579d57600080fd5b505afa158015620057b2573d6000803e3d6000fd5b505050506040513d6020811015620057c957600080fd5b810190808051906020019092919050505092505050915091565b60006200588f6200587f8373__$b8d33eeb36ac0d1e81cd70156e0043e778$__63907af6c06040518163ffffffff1660e01b815260040160206040518083038186803b1580156200583357600080fd5b505af415801562005848573d6000803e3d6000fd5b505050506040513d60208110156200585f57600080fd5b8101908080519060200190929190505050620045d290919063ffffffff16565b846200610d90919063ffffffff16565b905092915050565b6000620058a362005e49565b73ffffffffffffffffffffffffffffffffffffffff166323257c2b7f53797374656d53657474696e67730000000000000000000000000000000000007f65786368616e6765466565526174650000000000000000000000000000000000856040516020018083815260200182815260200192505050604051602081830303815290604052805190602001206040518363ffffffff1660e01b8152600401808381526020018281526020019250505060206040518083038186803b1580156200596a57600080fd5b505afa1580156200597f573d6000803e3d6000fd5b505050506040513d60208110156200599657600080fd5b81019080805190602001909291905050509050919050565b600080831415620059c3576000905062005a33565b6000828402905082848281620059d557fe5b041462005a2e576040517f08c379a00000000000000000000000000000000000000000000000000000000081526004018080602001828103825260218152602001806200844e6021913960400191505060405180910390fd5b809150505b92915050565b62005a436200314f565b73ffffffffffffffffffffffffffffffffffffffff166357ad4663836040518263ffffffff1660e01b81526004018082815260200191505060206040518083038186803b15801562005a9457600080fd5b505afa15801562005aa9573d6000803e3d6000fd5b505050506040513d602081101562005ac057600080fd5b810190808051906020019092919050505073ffffffffffffffffffffffffffffffffffffffff16639dc29fac84836040518363ffffffff1660e01b8152600401808373ffffffffffffffffffffffffffffffffffffffff1673ffffffffffffffffffffffffffffffffffffffff16815260200182815260200192505050600060405180830381600087803b15801562005b5857600080fd5b505af115801562005b6d573d6000803e3d6000fd5b5050505062005b7b62002a73565b73ffffffffffffffffffffffffffffffffffffffff1663ace88afd8484846040518463ffffffff1660e01b8152600401808473ffffffffffffffffffffffffffffffffffffffff1673ffffffffffffffffffffffffffffffffffffffff1681526020018381526020018281526020019350505050600060405180830381600087803b15801562005c0a57600080fd5b505af115801562005c1f573d6000803e3d6000fd5b50505050505050565b62005c326200314f565b73ffffffffffffffffffffffffffffffffffffffff166357ad4663836040518263ffffffff1660e01b81526004018082815260200191505060206040518083038186803b15801562005c8357600080fd5b505afa15801562005c98573d6000803e3d6000fd5b505050506040513d602081101562005caf57600080fd5b810190808051906020019092919050505073ffffffffffffffffffffffffffffffffffffffff1663867904b484836040518363ffffffff1660e01b8152600401808373ffffffffffffffffffffffffffffffffffffffff1673ffffffffffffffffffffffffffffffffffffffff16815260200182815260200192505050600060405180830381600087803b15801562005d4757600080fd5b505af115801562005d5c573d6000803e3d6000fd5b5050505062005d6a62002a73565b73ffffffffffffffffffffffffffffffffffffffff16636f01a9868484846040518463ffffffff1660e01b8152600401808473ffffffffffffffffffffffffffffffffffffffff1673ffffffffffffffffffffffffffffffffffffffff1681526020018381526020018281526020019350505050600060405180830381600087803b15801562005df957600080fd5b505af115801562005e0e573d6000803e3d6000fd5b50505050505050565b600062005e447f44656274436163686500000000000000000000000000000000000000000000006200446c565b905090565b600062005e767f466c657869626c6553746f7261676500000000000000000000000000000000006200446c565b905090565b6000606960f81b8260006020811062005e9057fe5b1a60f81b7effffffffffffffffffffffffffffffffffffffffffffffffffffffffffffff1916141562005f2b576040517f08c379a000000000000000000000000000000000000000000000000000000000815260040180806020018281038252601c8152602001807f43616e6e6f74207669727475616c697a6520746869732070796e74680000000081525060200191505060405180910390fd5b84600260009054906101000a900473ffffffffffffffffffffffffffffffffffffffff1685858560405162005f609062006264565b808673ffffffffffffffffffffffffffffffffffffffff1673ffffffffffffffffffffffffffffffffffffffff1681526020018573ffffffffffffffffffffffffffffffffffffffff1673ffffffffffffffffffffffffffffffffffffffff1681526020018473ffffffffffffffffffffffffffffffffffffffff1673ffffffffffffffffffffffffffffffffffffffff16815260200183815260200182815260200195505050505050604051809103906000f08015801562006027573d6000803e3d6000fd5b5090508373ffffffffffffffffffffffffffffffffffffffff168573ffffffffffffffffffffffffffffffffffffffff167f40d987c0a731a91929904e2b9a1a44b1aa1c6ab528b7ee2e35652fe1691cbd36838587604051808473ffffffffffffffffffffffffffffffffffffffff1673ffffffffffffffffffffffffffffffffffffffff168152602001838152602001828152602001935050505060405180910390a3949350505050565b60006200610582620060f6601260ff16600a0a86620059ae90919063ffffffff16565b6200613d90919063ffffffff16565b905092915050565b6000601260ff16600a0a6200612c8385620059ae90919063ffffffff16565b816200613457fe5b04905092915050565b6000808211620061b5576040517f08c379a000000000000000000000000000000000000000000000000000000000815260040180806020018281038252601a8152602001807f536166654d6174683a206469766973696f6e206279207a65726f00000000000081525060200191505060405180910390fd5b6000828481620061c157fe5b0490508091505092915050565b60405180610100016040528060008019168152602001600081526020016000801916815260200160008152602001600081526020016000815260200160008152602001600081525090565b60405180610100016040528060008019168152602001600081526020016000801916815260200160008152602001600081526020016000815260200160008152602001600081525090565b61217780620062738339019056fe60806040526000600460146101000a81548160ff0219169083151502179055503480156200002c57600080fd5b506040516200217738038062002177833981810160405260a08110156200005257600080fd5b81019080805190602001909291908051906020019092919080519060200190929190805190602001909291908051906020019092919050505084600360006101000a81548173ffffffffffffffffffffffffffffffffffffffff021916908373ffffffffffffffffffffffffffffffffffffffff16021790555083600460006101000a81548173ffffffffffffffffffffffffffffffffffffffff021916908373ffffffffffffffffffffffffffffffffffffffff160217905550806007819055506200012683836200013860201b60201c565b8160058190555050505050506200038b565b600073ffffffffffffffffffffffffffffffffffffffff168273ffffffffffffffffffffffffffffffffffffffff161415620001dc576040517f08c379a000000000000000000000000000000000000000000000000000000000815260040180806020018281038252601f8152602001807f45524332303a206d696e7420746f20746865207a65726f20616464726573730081525060200191505060405180910390fd5b620001f8816002546200030260201b620014601790919060201c565b60028190555062000256816000808573ffffffffffffffffffffffffffffffffffffffff1673ffffffffffffffffffffffffffffffffffffffff168152602001908152602001600020546200030260201b620014601790919060201c565b6000808473ffffffffffffffffffffffffffffffffffffffff1673ffffffffffffffffffffffffffffffffffffffff168152602001908152602001600020819055508173ffffffffffffffffffffffffffffffffffffffff16600073ffffffffffffffffffffffffffffffffffffffff167fddf252ad1be2c89b69c2b068fc378daa952ba7f163c4a11628f55a4df523b3ef836040518082815260200191505060405180910390a35050565b60008082840190508381101562000381576040517f08c379a000000000000000000000000000000000000000000000000000000000815260040180806020018281038252601b8152602001807f536166654d6174683a206164646974696f6e206f766572666c6f77000000000081525060200191505060405180910390fd5b8091505092915050565b611ddc806200039b6000396000f3fe608060405234801561001057600080fd5b50600436106101425760003560e01c80633db3dc9b116100b85780638f7758391161007c5780638f7758391461058057806395d89b41146105a2578063a457c2d714610625578063a9059cbb1461068b578063dbd06c85146106f1578063dd62ed3e1461070f57610142565b80633db3dc9b146104865780634be37cea146104a45780636a256b29146104c257806370a082311461050657806378f2ac261461055e57610142565b806323b872dd1161010a57806323b872dd146102e25780632c4e722e14610368578063313ce56714610386578063378dc3dc146103aa57806339509351146103c85780633af9e6691461042e57610142565b806304f3bcec1461014757806306fdde0314610191578063095ea7b31461021457806318160ddd1461027a5780631d0cbc8b14610298575b600080fd5b61014f610787565b604051808273ffffffffffffffffffffffffffffffffffffffff1673ffffffffffffffffffffffffffffffffffffffff16815260200191505060405180910390f35b6101996107ad565b6040518080602001828103825283818151815260200191508051906020019080838360005b838110156101d95780820151818401526020810190506101be565b50505050905090810190601f1680156102065780820380516001836020036101000a031916815260200191505b509250505060405180910390f35b6102606004803603604081101561022a57600080fd5b81019080803573ffffffffffffffffffffffffffffffffffffffff169060200190929190803590602001909291905050506107fe565b604051808215151515815260200191505060405180910390f35b610282610815565b6040518082815260200191505060405180910390f35b6102a061081f565b604051808273ffffffffffffffffffffffffffffffffffffffff1673ffffffffffffffffffffffffffffffffffffffff16815260200191505060405180910390f35b61034e600480360360608110156102f857600080fd5b81019080803573ffffffffffffffffffffffffffffffffffffffff169060200190929190803573ffffffffffffffffffffffffffffffffffffffff16906020019092919080359060200190929190505050610845565b604051808215151515815260200191505060405180910390f35b6103706108f6565b6040518082815260200191505060405180910390f35b61038e610905565b604051808260ff1660ff16815260200191505060405180910390f35b6103b261090a565b6040518082815260200191505060405180910390f35b610414600480360360408110156103de57600080fd5b81019080803573ffffffffffffffffffffffffffffffffffffffff16906020019092919080359060200190929190505050610910565b604051808215151515815260200191505060405180910390f35b6104706004803603602081101561044457600080fd5b81019080803573ffffffffffffffffffffffffffffffffffffffff1690602001909291905050506109b5565b6040518082815260200191505060405180910390f35b61048e6109c7565b6040518082815260200191505060405180910390f35b6104ac6109cd565b6040518082815260200191505060405180910390f35b610504600480360360208110156104d857600080fd5b81019080803573ffffffffffffffffffffffffffffffffffffffff1690602001909291905050506109dc565b005b6105486004803603602081101561051c57600080fd5b81019080803573ffffffffffffffffffffffffffffffffffffffff169060200190929190505050610ae6565b6040518082815260200191505060405180910390f35b610566610b2e565b604051808215151515815260200191505060405180910390f35b610588610b3f565b604051808215151515815260200191505060405180910390f35b6105aa610b52565b6040518080602001828103825283818151815260200191508051906020019080838360005b838110156105ea5780820151818401526020810190506105cf565b50505050905090810190601f1680156106175780820380516001836020036101000a031916815260200191505b509250505060405180910390f35b6106716004803603604081101561063b57600080fd5b81019080803573ffffffffffffffffffffffffffffffffffffffff16906020019092919080359060200190929190505050610ba3565b604051808215151515815260200191505060405180910390f35b6106d7600480360360408110156106a157600080fd5b81019080803573ffffffffffffffffffffffffffffffffffffffff16906020019092919080359060200190929190505050610c48565b604051808215151515815260200191505060405180910390f35b6106f9610c5f565b6040518082815260200191505060405180910390f35b6107716004803603604081101561072557600080fd5b81019080803573ffffffffffffffffffffffffffffffffffffffff169060200190929190803573ffffffffffffffffffffffffffffffffffffffff169060200190929190505050610c65565b6040518082815260200191505060405180910390f35b600460009054906101000a900473ffffffffffffffffffffffffffffffffffffffff1681565b606060075460405160200180807f5669727475616c2050796e746820000000000000000000000000000000000000815250600e01828152602001915050604051602081830303815290604052905090565b600061080b338484610cec565b6001905092915050565b6000600254905090565b600360009054906101000a900473ffffffffffffffffffffffffffffffffffffffff1681565b6000610852848484610ee3565b6108eb84336108e685600160008a73ffffffffffffffffffffffffffffffffffffffff1673ffffffffffffffffffffffffffffffffffffffff16815260200190815260200160002060003373ffffffffffffffffffffffffffffffffffffffff1673ffffffffffffffffffffffffffffffffffffffff1681526020019081526020016000205461117f90919063ffffffff16565b610cec565b600190509392505050565b6000610900611208565b905090565b601281565b60055481565b60006109ab33846109a685600160003373ffffffffffffffffffffffffffffffffffffffff1673ffffffffffffffffffffffffffffffffffffffff16815260200190815260200160002060008973ffffffffffffffffffffffffffffffffffffffff1673ffffffffffffffffffffffffffffffffffffffff1681526020019081526020016000205461146090919063ffffffff16565b610cec565b6001905092915050565b60006109c0826114e8565b9050919050565b60065481565b60006109d7611518565b905090565b6109e46115e8565b600360009054906101000a900473ffffffffffffffffffffffffffffffffffffffff1673ffffffffffffffffffffffffffffffffffffffff1663a9059cbb82610a2c846114e8565b6040518363ffffffff1660e01b8152600401808373ffffffffffffffffffffffffffffffffffffffff1673ffffffffffffffffffffffffffffffffffffffff16815260200182815260200192505050602060405180830381600087803b158015610a9557600080fd5b505af1158015610aa9573d6000803e3d6000fd5b505050506040513d6020811015610abf57600080fd5b810190808051906020019092919050505050610ae381610ade83610ae6565b61182a565b50565b60008060008373ffffffffffffffffffffffffffffffffffffffff1673ffffffffffffffffffffffffffffffffffffffff168152602001908152602001600020549050919050565b600080610b39611518565b14905090565b600460149054906101000a900460ff1681565b606060075460405160200180807f7600000000000000000000000000000000000000000000000000000000000000815250600101828152602001915050604051602081830303815290604052905090565b6000610c3e3384610c3985600160003373ffffffffffffffffffffffffffffffffffffffff1673ffffffffffffffffffffffffffffffffffffffff16815260200190815260200160002060008973ffffffffffffffffffffffffffffffffffffffff1673ffffffffffffffffffffffffffffffffffffffff1681526020019081526020016000205461117f90919063ffffffff16565b610cec565b6001905092915050565b6000610c55338484610ee3565b6001905092915050565b60075481565b6000600160008473ffffffffffffffffffffffffffffffffffffffff1673ffffffffffffffffffffffffffffffffffffffff16815260200190815260200160002060008373ffffffffffffffffffffffffffffffffffffffff1673ffffffffffffffffffffffffffffffffffffffff16815260200190815260200160002054905092915050565b600073ffffffffffffffffffffffffffffffffffffffff168373ffffffffffffffffffffffffffffffffffffffff161415610d72576040517f08c379a0000000000000000000000000000000000000000000000000000000008152600401808060200182810382526024815260200180611d846024913960400191505060405180910390fd5b600073ffffffffffffffffffffffffffffffffffffffff168273ffffffffffffffffffffffffffffffffffffffff161415610df8576040517f08c379a0000000000000000000000000000000000000000000000000000000008152600401808060200182810382526022815260200180611cfb6022913960400191505060405180910390fd5b80600160008573ffffffffffffffffffffffffffffffffffffffff1673ffffffffffffffffffffffffffffffffffffffff16815260200190815260200160002060008473ffffffffffffffffffffffffffffffffffffffff1673ffffffffffffffffffffffffffffffffffffffff168152602001908152602001600020819055508173ffffffffffffffffffffffffffffffffffffffff168373ffffffffffffffffffffffffffffffffffffffff167f8c5be1e5ebec7d5bd14f71427d1e84f3dd0314c0f7b2291e5b200ac8c7c3b925836040518082815260200191505060405180910390a3505050565b600073ffffffffffffffffffffffffffffffffffffffff168373ffffffffffffffffffffffffffffffffffffffff161415610f69576040517f08c379a0000000000000000000000000000000000000000000000000000000008152600401808060200182810382526025815260200180611d5f6025913960400191505060405180910390fd5b600073ffffffffffffffffffffffffffffffffffffffff168273ffffffffffffffffffffffffffffffffffffffff161415610fef576040517f08c379a0000000000000000000000000000000000000000000000000000000008152600401808060200182810382526023815260200180611cd86023913960400191505060405180910390fd5b611040816000808673ffffffffffffffffffffffffffffffffffffffff1673ffffffffffffffffffffffffffffffffffffffff1681526020019081526020016000205461117f90919063ffffffff16565b6000808573ffffffffffffffffffffffffffffffffffffffff1673ffffffffffffffffffffffffffffffffffffffff168152602001908152602001600020819055506110d3816000808573ffffffffffffffffffffffffffffffffffffffff1673ffffffffffffffffffffffffffffffffffffffff1681526020019081526020016000205461146090919063ffffffff16565b6000808473ffffffffffffffffffffffffffffffffffffffff1673ffffffffffffffffffffffffffffffffffffffff168152602001908152602001600020819055508173ffffffffffffffffffffffffffffffffffffffff168373ffffffffffffffffffffffffffffffffffffffff167fddf252ad1be2c89b69c2b068fc378daa952ba7f163c4a11628f55a4df523b3ef836040518082815260200191505060405180910390a3505050565b6000828211156111f7576040517f08c379a000000000000000000000000000000000000000000000000000000000815260040180806020018281038252601e8152602001807f536166654d6174683a207375627472616374696f6e206f766572666c6f77000081525060200191505060405180910390fd5b600082840390508091505092915050565b600080600554141561121d576000905061145d565b6000600460149054906101000a900460ff1661143e57600360009054906101000a900473ffffffffffffffffffffffffffffffffffffffff1673ffffffffffffffffffffffffffffffffffffffff166370a08231306040518263ffffffff1660e01b8152600401808273ffffffffffffffffffffffffffffffffffffffff1673ffffffffffffffffffffffffffffffffffffffff16815260200191505060206040518083038186803b1580156112d257600080fd5b505afa1580156112e6573d6000803e3d6000fd5b505050506040513d60208110156112fc57600080fd5b8101908080519060200190929190505050905060008061131a6119c8565b73ffffffffffffffffffffffffffffffffffffffff166319d5c665306007546040518363ffffffff1660e01b8152600401808373ffffffffffffffffffffffffffffffffffffffff1673ffffffffffffffffffffffffffffffffffffffff1681526020018281526020019250505060606040518083038186803b1580156113a057600080fd5b505afa1580156113b4573d6000803e3d6000fd5b505050506040513d60608110156113ca57600080fd5b810190808051906020019092919080519060200190929190805190602001909291905050505091509150600082111561141757611410828461117f90919063ffffffff16565b9250611437565b600081111561143657611433818461146090919063ffffffff16565b92505b5b5050611444565b60065490505b61145960055482611ad690919063ffffffff16565b9150505b90565b6000808284019050838110156114de576040517f08c379a000000000000000000000000000000000000000000000000000000000815260040180806020018281038252601b8152602001807f536166654d6174683a206164646974696f6e206f766572666c6f77000000000081525060200191505060405180910390fd5b8091505092915050565b6000806114f483610ae6565b9050611510611501611208565b82611af290919063ffffffff16565b915050919050565b60006115226119c8565b73ffffffffffffffffffffffffffffffffffffffff1663059c29ec306007546040518363ffffffff1660e01b8152600401808373ffffffffffffffffffffffffffffffffffffffff1673ffffffffffffffffffffffffffffffffffffffff1681526020018281526020019250505060206040518083038186803b1580156115a857600080fd5b505afa1580156115bc573d6000803e3d6000fd5b505050506040513d60208110156115d257600080fd5b8101908080519060200190929190505050905090565b600460149054906101000a900460ff161561160257611828565b6001600460146101000a81548160ff0219169083151502179055506116256119c8565b73ffffffffffffffffffffffffffffffffffffffff16631b16802c306007546040518363ffffffff1660e01b8152600401808373ffffffffffffffffffffffffffffffffffffffff1673ffffffffffffffffffffffffffffffffffffffff16815260200182815260200192505050606060405180830381600087803b1580156116ad57600080fd5b505af11580156116c1573d6000803e3d6000fd5b505050506040513d60608110156116d757600080fd5b81019080805190602001909291908051906020019092919080519060200190929190505050505050600360009054906101000a900473ffffffffffffffffffffffffffffffffffffffff1673ffffffffffffffffffffffffffffffffffffffff166370a08231306040518263ffffffff1660e01b8152600401808273ffffffffffffffffffffffffffffffffffffffff1673ffffffffffffffffffffffffffffffffffffffff16815260200191505060206040518083038186803b15801561179e57600080fd5b505afa1580156117b2573d6000803e3d6000fd5b505050506040513d60208110156117c857600080fd5b81019080805190602001909291905050506006819055507ff5b268a3ff315cc44ccceeef86259c9e8eef81ceecb14001543809115380dd62611808610815565b600654604051808381526020018281526020019250505060405180910390a15b565b600073ffffffffffffffffffffffffffffffffffffffff168273ffffffffffffffffffffffffffffffffffffffff1614156118b0576040517f08c379a0000000000000000000000000000000000000000000000000000000008152600401808060200182810382526021815260200180611d3e6021913960400191505060405180910390fd5b6118c58160025461117f90919063ffffffff16565b60028190555061191c816000808573ffffffffffffffffffffffffffffffffffffffff1673ffffffffffffffffffffffffffffffffffffffff1681526020019081526020016000205461117f90919063ffffffff16565b6000808473ffffffffffffffffffffffffffffffffffffffff1673ffffffffffffffffffffffffffffffffffffffff16815260200190815260200160002081905550600073ffffffffffffffffffffffffffffffffffffffff168273ffffffffffffffffffffffffffffffffffffffff167fddf252ad1be2c89b69c2b068fc378daa952ba7f163c4a11628f55a4df523b3ef836040518082815260200191505060405180910390a35050565b6000600460009054906101000a900473ffffffffffffffffffffffffffffffffffffffff1673ffffffffffffffffffffffffffffffffffffffff1663dacb2d016040518163ffffffff1660e01b815260040180807f45786368616e6765720000000000000000000000000000000000000000000000815250602001806020018281038252601c8152602001807f45786368616e67657220636f6e7472616374206e6f7420666f756e640000000081525060200191505060206040518083038186803b158015611a9657600080fd5b505afa158015611aaa573d6000803e3d6000fd5b505050506040513d6020811015611ac057600080fd5b8101908080519060200190929190505050905090565b6000611aea8383601260ff16600a0a611b0e565b905092915050565b6000611b068383601260ff16600a0a611b69565b905092915050565b600080611b3984611b2b600a860288611bc290919063ffffffff16565b611c4890919063ffffffff16565b90506005600a8281611b4757fe5b0610611b5457600a810190505b600a8181611b5e57fe5b049150509392505050565b600080600a8381611b7657fe5b04611b8a8587611bc290919063ffffffff16565b81611b9157fe5b0490506005600a8281611ba057fe5b0610611bad57600a810190505b600a8181611bb757fe5b049150509392505050565b600080831415611bd55760009050611c42565b6000828402905082848281611be657fe5b0414611c3d576040517f08c379a0000000000000000000000000000000000000000000000000000000008152600401808060200182810382526021815260200180611d1d6021913960400191505060405180910390fd5b809150505b92915050565b6000808211611cbf576040517f08c379a000000000000000000000000000000000000000000000000000000000815260040180806020018281038252601a8152602001807f536166654d6174683a206469766973696f6e206279207a65726f00000000000081525060200191505060405180910390fd5b6000828481611cca57fe5b049050809150509291505056fe45524332303a207472616e7366657220746f20746865207a65726f206164647265737345524332303a20617070726f766520746f20746865207a65726f2061646472657373536166654d6174683a206d756c7469706c69636174696f6e206f766572666c6f7745524332303a206275726e2066726f6d20746865207a65726f206164647265737345524332303a207472616e736665722066726f6d20746865207a65726f206164647265737345524332303a20617070726f76652066726f6d20746865207a65726f2061646472657373a265627a7a72315820eb94a00606dc06df5b0df318f03b57946e93e2648db1cd9f52630e8aa4e489b664736f6c63430005100032596f75206d757374206265206e6f6d696e61746564206265666f726520796f752063616e20616363657074206f776e6572736869704f6e6c792074686520636f6e7472616374206f776e6572206d617920706572666f726d207468697320616374696f6e536166654d6174683a206d756c7469706c69636174696f6e206f766572666c6f7745786368616e6765723a204f6e6c79207065726966696e206f7220612070796e746820636f6e74726163742063616e20706572666f726d207468697320616374696f6e5372632f64657374207261746520696e76616c6964206f72206e6f7420666f756e6443616e6e6f7420736574746c6520647572696e672077616974696e6720706572696f64a265627a7a723158208ee66602d6aaa211678ee482450ecb70ef4e4c530da70d15a740a790f00965b864736f6c63430005100032",
  "linkReferences": {
    "contracts/SafeDecimalMath.sol": {
      "SafeDecimalMath": [
        {
          "length": 20,
          "start": 20993
        },
        {
          "length": 20,
          "start": 23067
        }
      ]
    }
  },
  "deployedLinkReferences": {
    "contracts/SafeDecimalMath.sol": {
      "SafeDecimalMath": [
        {
          "length": 20,
          "start": 20438
        },
        {
          "length": 20,
          "start": 22512
        }
      ]
    }
  }
}