{
  "_format": "hh-sol-artifact-1",
  "contractName": "RewardEscrowV2",
  "sourceName": "contracts/RewardEscrowV2.sol",
  "abi": [
    {
      "inputs": [
        {
          "internalType": "address",
          "name": "_owner",
          "type": "address"
        },
        {
          "internalType": "address",
          "name": "_resolver",
          "type": "address"
        }
      ],
      "payable": false,
      "stateMutability": "nonpayable",
      "type": "constructor"
    },
    {
      "anonymous": false,
      "inputs": [
        {
          "indexed": true,
          "internalType": "address",
          "name": "accountToMerge",
          "type": "address"
        },
        {
          "indexed": false,
          "internalType": "address",
          "name": "destinationAddress",
          "type": "address"
        },
        {
          "indexed": false,
          "internalType": "uint256",
          "name": "escrowAmountMerged",
          "type": "uint256"
        },
        {
          "indexed": false,
          "internalType": "uint256[]",
          "name": "entryIDs",
          "type": "uint256[]"
        },
        {
          "indexed": false,
          "internalType": "uint256",
          "name": "time",
          "type": "uint256"
        }
      ],
      "name": "AccountMerged",
      "type": "event"
    },
    {
      "anonymous": false,
      "inputs": [
        {
          "indexed": false,
          "internalType": "uint256",
          "name": "newDuration",
          "type": "uint256"
        }
      ],
      "name": "AccountMergingDurationUpdated",
      "type": "event"
    },
    {
      "anonymous": false,
      "inputs": [
        {
          "indexed": false,
          "internalType": "uint256",
          "name": "time",
          "type": "uint256"
        },
        {
          "indexed": false,
          "internalType": "uint256",
          "name": "endTime",
          "type": "uint256"
        }
      ],
      "name": "AccountMergingStarted",
      "type": "event"
    },
    {
      "anonymous": false,
      "inputs": [
        {
          "indexed": true,
          "internalType": "address",
          "name": "account",
          "type": "address"
        },
        {
          "indexed": false,
          "internalType": "uint256[]",
          "name": "entryIDs",
          "type": "uint256[]"
        },
        {
          "indexed": false,
          "internalType": "uint256",
          "name": "escrowedAmountMigrated",
          "type": "uint256"
        },
        {
          "indexed": false,
          "internalType": "uint256",
          "name": "time",
          "type": "uint256"
        }
      ],
      "name": "BurnedForMigrationToL2",
      "type": "event"
    },
    {
      "anonymous": false,
      "inputs": [
        {
          "indexed": false,
          "internalType": "bytes32",
          "name": "name",
          "type": "bytes32"
        },
        {
          "indexed": false,
          "internalType": "address",
          "name": "destination",
          "type": "address"
        }
      ],
      "name": "CacheUpdated",
      "type": "event"
    },
    {
      "anonymous": false,
      "inputs": [
        {
          "indexed": true,
          "internalType": "address",
          "name": "account",
          "type": "address"
        },
        {
          "indexed": false,
          "internalType": "uint256",
          "name": "entryID",
          "type": "uint256"
        },
        {
          "indexed": false,
          "internalType": "uint256",
          "name": "escrowAmount",
          "type": "uint256"
        },
        {
          "indexed": false,
          "internalType": "uint256",
          "name": "endTime",
          "type": "uint256"
        }
      ],
      "name": "ImportedVestingEntry",
      "type": "event"
    },
    {
      "anonymous": false,
      "inputs": [
        {
          "indexed": true,
          "internalType": "address",
          "name": "account",
          "type": "address"
        },
        {
          "indexed": false,
          "internalType": "uint256",
          "name": "time",
          "type": "uint256"
        },
        {
          "indexed": false,
          "internalType": "uint256",
          "name": "escrowAmount",
          "type": "uint256"
        }
      ],
      "name": "ImportedVestingSchedule",
      "type": "event"
    },
    {
      "anonymous": false,
      "inputs": [
        {
          "indexed": false,
          "internalType": "uint256",
          "name": "newDuration",
          "type": "uint256"
        }
      ],
      "name": "MaxAccountMergingDurationUpdated",
      "type": "event"
    },
    {
      "anonymous": false,
      "inputs": [
        {
          "indexed": false,
          "internalType": "uint256",
          "name": "newDuration",
          "type": "uint256"
        }
      ],
      "name": "MaxEscrowDurationUpdated",
      "type": "event"
    },
    {
      "anonymous": false,
      "inputs": [
        {
          "indexed": false,
          "internalType": "uint256",
          "name": "newAmount",
          "type": "uint256"
        }
      ],
      "name": "MigrateEntriesThresholdAmountUpdated",
      "type": "event"
    },
    {
      "anonymous": false,
      "inputs": [
        {
          "indexed": true,
          "internalType": "address",
          "name": "account",
          "type": "address"
        },
        {
          "indexed": false,
          "internalType": "uint256",
          "name": "escrowedAmount",
          "type": "uint256"
        },
        {
          "indexed": false,
          "internalType": "uint256",
          "name": "vestedAmount",
          "type": "uint256"
        },
        {
          "indexed": false,
          "internalType": "uint256",
          "name": "time",
          "type": "uint256"
        }
      ],
      "name": "MigratedAccountEscrow",
      "type": "event"
    },
    {
      "anonymous": false,
      "inputs": [
        {
          "indexed": true,
          "internalType": "address",
          "name": "account",
          "type": "address"
        },
        {
          "indexed": false,
          "internalType": "address",
          "name": "destination",
          "type": "address"
        }
      ],
      "name": "NominateAccountToMerge",
      "type": "event"
    },
    {
      "anonymous": false,
      "inputs": [
        {
          "indexed": false,
          "internalType": "address",
          "name": "oldOwner",
          "type": "address"
        },
        {
          "indexed": false,
          "internalType": "address",
          "name": "newOwner",
          "type": "address"
        }
      ],
      "name": "OwnerChanged",
      "type": "event"
    },
    {
      "anonymous": false,
      "inputs": [
        {
          "indexed": false,
          "internalType": "address",
          "name": "newOwner",
          "type": "address"
        }
      ],
      "name": "OwnerNominated",
      "type": "event"
    },
    {
      "anonymous": false,
      "inputs": [
        {
          "indexed": true,
          "internalType": "address",
          "name": "beneficiary",
          "type": "address"
        },
        {
          "indexed": false,
          "internalType": "uint256",
          "name": "time",
          "type": "uint256"
        },
        {
          "indexed": false,
          "internalType": "uint256",
          "name": "value",
          "type": "uint256"
        }
      ],
      "name": "Vested",
      "type": "event"
    },
    {
      "anonymous": false,
      "inputs": [
        {
          "indexed": true,
          "internalType": "address",
          "name": "beneficiary",
          "type": "address"
        },
        {
          "indexed": false,
          "internalType": "uint256",
          "name": "time",
          "type": "uint256"
        },
        {
          "indexed": false,
          "internalType": "uint256",
          "name": "value",
          "type": "uint256"
        },
        {
          "indexed": false,
          "internalType": "uint256",
          "name": "duration",
          "type": "uint256"
        },
        {
          "indexed": false,
          "internalType": "uint256",
          "name": "entryID",
          "type": "uint256"
        }
      ],
      "name": "VestingEntryCreated",
      "type": "event"
    },
    {
      "constant": false,
      "inputs": [],
      "name": "acceptOwnership",
      "outputs": [],
      "payable": false,
      "stateMutability": "nonpayable",
      "type": "function"
    },
    {
      "constant": true,
      "inputs": [],
      "name": "accountMergingDuration",
      "outputs": [
        {
          "internalType": "uint256",
          "name": "",
          "type": "uint256"
        }
      ],
      "payable": false,
      "stateMutability": "view",
      "type": "function"
    },
    {
      "constant": true,
      "inputs": [],
      "name": "accountMergingIsOpen",
      "outputs": [
        {
          "internalType": "bool",
          "name": "",
          "type": "bool"
        }
      ],
      "payable": false,
      "stateMutability": "view",
      "type": "function"
    },
    {
      "constant": true,
      "inputs": [],
      "name": "accountMergingStartTime",
      "outputs": [
        {
          "internalType": "uint256",
          "name": "",
          "type": "uint256"
        }
      ],
      "payable": false,
      "stateMutability": "view",
      "type": "function"
    },
    {
      "constant": true,
      "inputs": [
        {
          "internalType": "address",
          "name": "",
          "type": "address"
        },
        {
          "internalType": "uint256",
          "name": "",
          "type": "uint256"
        }
      ],
      "name": "accountVestingEntryIDs",
      "outputs": [
        {
          "internalType": "uint256",
          "name": "",
          "type": "uint256"
        }
      ],
      "payable": false,
      "stateMutability": "view",
      "type": "function"
    },
    {
      "constant": false,
      "inputs": [
        {
          "internalType": "address",
          "name": "account",
          "type": "address"
        },
        {
          "internalType": "uint256",
          "name": "quantity",
          "type": "uint256"
        },
        {
          "internalType": "uint256",
          "name": "duration",
          "type": "uint256"
        }
      ],
      "name": "appendVestingEntry",
      "outputs": [],
      "payable": false,
      "stateMutability": "nonpayable",
      "type": "function"
    },
    {
      "constant": true,
      "inputs": [
        {
          "internalType": "address",
          "name": "account",
          "type": "address"
        }
      ],
      "name": "balanceOf",
      "outputs": [
        {
          "internalType": "uint256",
          "name": "",
          "type": "uint256"
        }
      ],
      "payable": false,
      "stateMutability": "view",
      "type": "function"
    },
    {
      "constant": false,
      "inputs": [
        {
          "internalType": "address",
          "name": "account",
          "type": "address"
        },
        {
          "internalType": "uint256[]",
          "name": "entryIDs",
          "type": "uint256[]"
        }
      ],
      "name": "burnForMigration",
      "outputs": [
        {
          "internalType": "uint256",
          "name": "escrowedAccountBalance",
          "type": "uint256"
        },
        {
          "components": [
            {
              "internalType": "uint64",
              "name": "endTime",
              "type": "uint64"
            },
            {
              "internalType": "uint256",
              "name": "escrowAmount",
              "type": "uint256"
            }
          ],
          "internalType": "struct VestingEntries.VestingEntry[]",
          "name": "vestingEntries",
          "type": "tuple[]"
        }
      ],
      "payable": false,
      "stateMutability": "nonpayable",
      "type": "function"
    },
    {
      "constant": false,
      "inputs": [
        {
          "internalType": "address",
          "name": "beneficiary",
          "type": "address"
        },
        {
          "internalType": "uint256",
          "name": "deposit",
          "type": "uint256"
        },
        {
          "internalType": "uint256",
          "name": "duration",
          "type": "uint256"
        }
      ],
      "name": "createEscrowEntry",
      "outputs": [],
      "payable": false,
      "stateMutability": "nonpayable",
      "type": "function"
    },
    {
      "constant": true,
      "inputs": [
        {
          "internalType": "address",
          "name": "account",
          "type": "address"
        },
        {
          "internalType": "uint256",
          "name": "index",
          "type": "uint256"
        },
        {
          "internalType": "uint256",
          "name": "pageSize",
          "type": "uint256"
        }
      ],
      "name": "getAccountVestingEntryIDs",
      "outputs": [
        {
          "internalType": "uint256[]",
          "name": "",
          "type": "uint256[]"
        }
      ],
      "payable": false,
      "stateMutability": "view",
      "type": "function"
    },
    {
      "constant": true,
      "inputs": [
        {
          "internalType": "address",
          "name": "account",
          "type": "address"
        },
        {
          "internalType": "uint256",
          "name": "entryID",
          "type": "uint256"
        }
      ],
      "name": "getVestingEntry",
      "outputs": [
        {
          "internalType": "uint64",
          "name": "endTime",
          "type": "uint64"
        },
        {
          "internalType": "uint256",
          "name": "escrowAmount",
          "type": "uint256"
        }
      ],
      "payable": false,
      "stateMutability": "view",
      "type": "function"
    },
    {
      "constant": true,
      "inputs": [
        {
          "internalType": "address",
          "name": "account",
          "type": "address"
        },
        {
          "internalType": "uint256",
          "name": "entryID",
          "type": "uint256"
        }
      ],
      "name": "getVestingEntryClaimable",
      "outputs": [
        {
          "internalType": "uint256",
          "name": "",
          "type": "uint256"
        }
      ],
      "payable": false,
      "stateMutability": "view",
      "type": "function"
    },
    {
      "constant": true,
      "inputs": [
        {
          "internalType": "address",
          "name": "account",
          "type": "address"
        },
        {
          "internalType": "uint256[]",
          "name": "entryIDs",
          "type": "uint256[]"
        }
      ],
      "name": "getVestingQuantity",
      "outputs": [
        {
          "internalType": "uint256",
          "name": "total",
          "type": "uint256"
        }
      ],
      "payable": false,
      "stateMutability": "view",
      "type": "function"
    },
    {
      "constant": true,
      "inputs": [
        {
          "internalType": "address",
          "name": "account",
          "type": "address"
        },
        {
          "internalType": "uint256",
          "name": "index",
          "type": "uint256"
        },
        {
          "internalType": "uint256",
          "name": "pageSize",
          "type": "uint256"
        }
      ],
      "name": "getVestingSchedules",
      "outputs": [
        {
          "components": [
            {
              "internalType": "uint64",
              "name": "endTime",
              "type": "uint64"
            },
            {
              "internalType": "uint256",
              "name": "escrowAmount",
              "type": "uint256"
            },
            {
              "internalType": "uint256",
              "name": "entryID",
              "type": "uint256"
            }
          ],
          "internalType": "struct VestingEntries.VestingEntryWithID[]",
          "name": "",
          "type": "tuple[]"
        }
      ],
      "payable": false,
      "stateMutability": "view",
      "type": "function"
    },
    {
      "constant": false,
      "inputs": [
        {
          "internalType": "address",
          "name": "",
          "type": "address"
        },
        {
          "internalType": "uint256",
          "name": "",
          "type": "uint256"
        },
        {
          "components": [
            {
              "internalType": "uint64",
              "name": "endTime",
              "type": "uint64"
            },
            {
              "internalType": "uint256",
              "name": "escrowAmount",
              "type": "uint256"
            }
          ],
          "internalType": "struct VestingEntries.VestingEntry[]",
          "name": "",
          "type": "tuple[]"
        }
      ],
      "name": "importVestingEntries",
      "outputs": [],
      "payable": false,
      "stateMutability": "nonpayable",
      "type": "function"
    },
    {
      "constant": false,
      "inputs": [
        {
          "internalType": "address[]",
          "name": "accounts",
          "type": "address[]"
        },
        {
          "internalType": "uint256[]",
          "name": "escrowAmounts",
          "type": "uint256[]"
        }
      ],
      "name": "importVestingSchedule",
      "outputs": [],
      "payable": false,
      "stateMutability": "nonpayable",
      "type": "function"
    },
    {
      "constant": true,
      "inputs": [],
      "name": "isResolverCached",
      "outputs": [
        {
          "internalType": "bool",
          "name": "",
          "type": "bool"
        }
      ],
      "payable": false,
      "stateMutability": "view",
      "type": "function"
    },
    {
      "constant": true,
      "inputs": [],
      "name": "maxAccountMergingDuration",
      "outputs": [
        {
          "internalType": "uint256",
          "name": "",
          "type": "uint256"
        }
      ],
      "payable": false,
      "stateMutability": "view",
      "type": "function"
    },
    {
      "constant": true,
      "inputs": [],
      "name": "max_duration",
      "outputs": [
        {
          "internalType": "uint256",
          "name": "",
          "type": "uint256"
        }
      ],
      "payable": false,
      "stateMutability": "view",
      "type": "function"
    },
    {
      "constant": false,
      "inputs": [
        {
          "internalType": "address",
          "name": "accountToMerge",
          "type": "address"
        },
        {
          "internalType": "uint256[]",
          "name": "entryIDs",
          "type": "uint256[]"
        }
      ],
      "name": "mergeAccount",
      "outputs": [],
      "payable": false,
      "stateMutability": "nonpayable",
      "type": "function"
    },
    {
      "constant": false,
      "inputs": [
        {
          "internalType": "address[]",
          "name": "accounts",
          "type": "address[]"
        },
        {
          "internalType": "uint256[]",
          "name": "escrowBalances",
          "type": "uint256[]"
        },
        {
          "internalType": "uint256[]",
          "name": "vestedBalances",
          "type": "uint256[]"
        }
      ],
      "name": "migrateAccountEscrowBalances",
      "outputs": [],
      "payable": false,
      "stateMutability": "nonpayable",
      "type": "function"
    },
    {
      "constant": true,
      "inputs": [],
      "name": "migrateEntriesThresholdAmount",
      "outputs": [
        {
          "internalType": "uint256",
          "name": "",
          "type": "uint256"
        }
      ],
      "payable": false,
      "stateMutability": "view",
      "type": "function"
    },
    {
      "constant": false,
      "inputs": [
        {
          "internalType": "address",
          "name": "addressToMigrate",
          "type": "address"
        }
      ],
      "name": "migrateVestingSchedule",
      "outputs": [],
      "payable": false,
      "stateMutability": "nonpayable",
      "type": "function"
    },
    {
      "constant": true,
      "inputs": [],
      "name": "nextEntryId",
      "outputs": [
        {
          "internalType": "uint256",
          "name": "",
          "type": "uint256"
        }
      ],
      "payable": false,
      "stateMutability": "view",
      "type": "function"
    },
    {
      "constant": false,
      "inputs": [
        {
          "internalType": "address",
          "name": "account",
          "type": "address"
        }
      ],
      "name": "nominateAccountToMerge",
      "outputs": [],
      "payable": false,
      "stateMutability": "nonpayable",
      "type": "function"
    },
    {
      "constant": false,
      "inputs": [
        {
          "internalType": "address",
          "name": "_owner",
          "type": "address"
        }
      ],
      "name": "nominateNewOwner",
      "outputs": [],
      "payable": false,
      "stateMutability": "nonpayable",
      "type": "function"
    },
    {
      "constant": true,
      "inputs": [],
      "name": "nominatedOwner",
      "outputs": [
        {
          "internalType": "address",
          "name": "",
          "type": "address"
        }
      ],
      "payable": false,
      "stateMutability": "view",
      "type": "function"
    },
    {
      "constant": true,
      "inputs": [
        {
          "internalType": "address",
          "name": "",
          "type": "address"
        }
      ],
      "name": "nominatedReceiver",
      "outputs": [
        {
          "internalType": "address",
          "name": "",
          "type": "address"
        }
      ],
      "payable": false,
      "stateMutability": "view",
      "type": "function"
    },
    {
      "constant": true,
      "inputs": [
        {
          "internalType": "address",
          "name": "account",
          "type": "address"
        }
      ],
      "name": "numVestingEntries",
      "outputs": [
        {
          "internalType": "uint256",
          "name": "",
          "type": "uint256"
        }
      ],
      "payable": false,
      "stateMutability": "view",
      "type": "function"
    },
    {
      "constant": true,
      "inputs": [],
      "name": "owner",
      "outputs": [
        {
          "internalType": "address",
          "name": "",
          "type": "address"
        }
      ],
      "payable": false,
      "stateMutability": "view",
      "type": "function"
    },
    {
      "constant": false,
      "inputs": [],
      "name": "rebuildCache",
      "outputs": [],
      "payable": false,
      "stateMutability": "nonpayable",
      "type": "function"
    },
    {
      "constant": true,
      "inputs": [],
      "name": "resolver",
      "outputs": [
        {
          "internalType": "contract AddressResolver",
          "name": "",
          "type": "address"
        }
      ],
      "payable": false,
      "stateMutability": "view",
      "type": "function"
    },
    {
      "constant": true,
      "inputs": [],
      "name": "resolverAddressesRequired",
      "outputs": [
        {
          "internalType": "bytes32[]",
          "name": "addresses",
          "type": "bytes32[]"
        }
      ],
      "payable": false,
      "stateMutability": "view",
      "type": "function"
    },
    {
      "constant": false,
      "inputs": [
        {
          "internalType": "uint256",
          "name": "duration",
          "type": "uint256"
        }
      ],
      "name": "setAccountMergingDuration",
      "outputs": [],
      "payable": false,
      "stateMutability": "nonpayable",
      "type": "function"
    },
    {
      "constant": false,
      "inputs": [
        {
          "internalType": "uint256",
          "name": "duration",
          "type": "uint256"
        }
      ],
      "name": "setMaxAccountMergingWindow",
      "outputs": [],
      "payable": false,
      "stateMutability": "nonpayable",
      "type": "function"
    },
    {
      "constant": false,
      "inputs": [
        {
          "internalType": "uint256",
          "name": "duration",
          "type": "uint256"
        }
      ],
      "name": "setMaxEscrowDuration",
      "outputs": [],
      "payable": false,
      "stateMutability": "nonpayable",
      "type": "function"
    },
    {
      "constant": false,
      "inputs": [
        {
          "internalType": "uint256",
          "name": "amount",
          "type": "uint256"
        }
      ],
      "name": "setMigrateEntriesThresholdAmount",
      "outputs": [],
      "payable": false,
      "stateMutability": "nonpayable",
      "type": "function"
    },
    {
      "constant": true,
      "inputs": [],
      "name": "setupExpiryTime",
      "outputs": [
        {
          "internalType": "uint256",
          "name": "",
          "type": "uint256"
        }
      ],
      "payable": false,
      "stateMutability": "view",
      "type": "function"
    },
    {
      "constant": false,
      "inputs": [],
      "name": "startMergingWindow",
      "outputs": [],
      "payable": false,
      "stateMutability": "nonpayable",
      "type": "function"
    },
    {
      "constant": true,
      "inputs": [
        {
          "internalType": "address",
          "name": "",
          "type": "address"
        }
      ],
      "name": "totalBalancePendingMigration",
      "outputs": [
        {
          "internalType": "uint256",
          "name": "",
          "type": "uint256"
        }
      ],
      "payable": false,
      "stateMutability": "view",
      "type": "function"
    },
    {
      "constant": true,
      "inputs": [
        {
          "internalType": "address",
          "name": "",
          "type": "address"
        }
      ],
      "name": "totalEscrowedAccountBalance",
      "outputs": [
        {
          "internalType": "uint256",
          "name": "",
          "type": "uint256"
        }
      ],
      "payable": false,
      "stateMutability": "view",
      "type": "function"
    },
    {
      "constant": true,
      "inputs": [],
      "name": "totalEscrowedBalance",
      "outputs": [
        {
          "internalType": "uint256",
          "name": "",
          "type": "uint256"
        }
      ],
      "payable": false,
      "stateMutability": "view",
      "type": "function"
    },
    {
      "constant": true,
      "inputs": [
        {
          "internalType": "address",
          "name": "",
          "type": "address"
        }
      ],
      "name": "totalVestedAccountBalance",
      "outputs": [
        {
          "internalType": "uint256",
          "name": "",
          "type": "uint256"
        }
      ],
      "payable": false,
      "stateMutability": "view",
      "type": "function"
    },
    {
      "constant": false,
      "inputs": [
        {
          "internalType": "uint256[]",
          "name": "entryIDs",
          "type": "uint256[]"
        }
      ],
      "name": "vest",
      "outputs": [],
      "payable": false,
      "stateMutability": "nonpayable",
      "type": "function"
    },
    {
      "constant": true,
      "inputs": [
        {
          "internalType": "address",
          "name": "",
          "type": "address"
        },
        {
          "internalType": "uint256",
          "name": "",
          "type": "uint256"
        }
      ],
      "name": "vestingSchedules",
      "outputs": [
        {
          "internalType": "uint64",
          "name": "endTime",
          "type": "uint64"
        },
        {
          "internalType": "uint256",
          "name": "escrowAmount",
          "type": "uint256"
        }
      ],
      "payable": false,
      "stateMutability": "view",
      "type": "function"
    }
  ],
  "bytecode": "0x60806040526303bfc400600c556224ea00600d5562093a80600e556103e873__$b8d33eeb36ac0d1e81cd70156e0043e778$__63907af6c06040518163ffffffff1660e01b815260040160206040518083038186803b1580156200006257600080fd5b505af415801562000077573d6000803e3d6000fd5b505050506040513d601f19601f820116820180604052506200009d919081019062000299565b02601155348015620000ae57600080fd5b50604051620062c9380380620062c98339818101604052620000d4919081019062000258565b8181806249d40083600073ffffffffffffffffffffffffffffffffffffffff168173ffffffffffffffffffffffffffffffffffffffff1614156200014f576040517f08c379a0000000000000000000000000000000000000000000000000000000008152600401620001469062000356565b60405180910390fd5b806000806101000a81548173ffffffffffffffffffffffffffffffffffffffff021916908373ffffffffffffffffffffffffffffffffffffffff1602179055507fb532073b38c83145e3e5135377a08bf9aab55bc0fd7c1179cd4fb995d2a5159c600082604051620001c392919062000329565b60405180910390a1508042016002819055505080600360006101000a81548173ffffffffffffffffffffffffffffffffffffffff021916908373ffffffffffffffffffffffffffffffffffffffff1602179055505060016007819055505050505062000437565b6000815190506200023b8162000403565b92915050565b60008151905062000252816200041d565b92915050565b600080604083850312156200026c57600080fd5b60006200027c858286016200022a565b92505060206200028f858286016200022a565b9150509250929050565b600060208284031215620002ac57600080fd5b6000620002bc8482850162000241565b91505092915050565b620002d081620003c7565b82525050565b620002e18162000389565b82525050565b6000620002f660198362000378565b91507f4f776e657220616464726573732063616e6e6f742062652030000000000000006000830152602082019050919050565b6000604082019050620003406000830185620002c5565b6200034f6020830184620002d6565b9392505050565b600060208201905081810360008301526200037181620002e7565b9050919050565b600082825260208201905092915050565b600062000396826200039d565b9050919050565b600073ffffffffffffffffffffffffffffffffffffffff82169050919050565b6000819050919050565b6000620003d482620003db565b9050919050565b6000620003e882620003ef565b9050919050565b6000620003fc826200039d565b9050919050565b6200040e8162000389565b81146200041a57600080fd5b50565b6200042881620003bd565b81146200043457600080fd5b50565b615e8280620004476000396000f3fe608060405234801561001057600080fd5b506004361061027f5760003560e01c806370a082311161015c5780638da5cb5b116100ce578063b95375bd11610087578063b95375bd146107b3578063cd7b43dd146107cf578063d621a169146107eb578063e6b2cf6c14610807578063eac6248914610825578063f0b882ba146108555761027f565b80638da5cb5b146106dd578063910a326d146106fb5780639ad6a7e514610719578063a0416ed314610737578063ae58254914610753578063b0fd5963146107835761027f565b80637839b92f116101205780637839b92f146106305780637993e6991461064c57806379ba5097146106685780637cc1d7561461067257806380d46f581461068e578063899ffef4146106bf5761027f565b806370a082311461057857806371e780f3146105a857806373307e40146105c657806374185360146105f6578063773ab39f146106005761027f565b8063326a3cfb116101f557806346ba2d90116101b957806346ba2d90146104a157806353a47bb7146104bf5780635b85c200146104dd5780635eb8cf25146104f95780636154c343146105175780636dc05bd3146105485761027f565b8063326a3cfb146103ea57806334c7fec91461041a57806337088ffc146104365780634525aabc1461045457806345626bd6146104705761027f565b8063178c565511610247578063178c5655146103165780631bb47b4414610320578063204b676a1461033c578063227d517a1461036c5780632af64bd31461039c57806330104c5f146103ba5761027f565b8063018c6c551461028457806304f3bcec146102a057806305662986146102be5780630fcdefb7146102dc5780631627540c146102fa575b600080fd5b61029e600480360361029991908101906146fb565b610871565b005b6102a86108ba565b6040516102b591906156c4565b60405180910390f35b6102c66108e0565b6040516102d39190615635565b60405180910390f35b6102e4610900565b6040516102f19190615a21565b60405180910390f35b610314600480360361030f91908101906143aa565b610906565b005b61031e610989565b005b61033a600480360361033591908101906144fc565b6109eb565b005b610356600480360361035191908101906143aa565b610a70565b6040516103639190615a21565b60405180910390f35b610386600480360361038191908101906143aa565b610abc565b6040516103939190615a21565b60405180910390f35b6103a4610ad4565b6040516103b19190615635565b60405180910390f35b6103d460048036036103cf9190810190614454565b610ca9565b6040516103e19190615a21565b60405180910390f35b61040460048036036103ff91908101906143aa565b610d5e565b6040516104119190615a21565b60405180910390f35b610434600480360361042f919081019061468d565b610d76565b005b61043e610ea1565b60405161044b9190615a21565b60405180910390f35b61046e600480360361046991908101906146fb565b610ea7565b005b61048a60048036036104859190810190614454565b610ef0565b604051610498929190615b48565b60405180910390f35b6104a9610f35565b6040516104b69190615a21565b60405180910390f35b6104c7610f3b565b6040516104d4919061544f565b60405180910390f35b6104f760048036036104f291908101906146fb565b610f61565b005b610501610faa565b60405161050e9190615a21565b60405180910390f35b610531600480360361052c9190810190614454565b610fb0565b60405161053f929190615b48565b60405180910390f35b610562600480360361055d91908101906143fc565b61107a565b60405161056f9190615a21565b60405180910390f35b610592600480360361058d91908101906143aa565b611186565b60405161059f9190615a21565b60405180910390f35b6105b06111cf565b6040516105bd9190615a21565b60405180910390f35b6105e060048036036105db91908101906143aa565b6111d5565b6040516105ed919061544f565b60405180910390f35b6105fe611208565b005b61061a600480360361061591908101906144fc565b6113a9565b60405161062791906155b1565b60405180910390f35b61064a600480360361064591908101906143aa565b61163c565b005b610666600480360361066191908101906146fb565b611aea565b005b610670611b78565b005b61068c600480360361068791908101906143aa565b611d2a565b005b6106a860048036036106a391908101906143fc565b611f81565b6040516106b6929190615a3c565b60405180910390f35b6106c7612326565b6040516106d4919061558f565b60405180910390f35b6106e5612427565b6040516106f2919061544f565b60405180910390f35b61070361244c565b6040516107109190615a21565b60405180910390f35b610721612452565b60405161072e9190615a21565b60405180910390f35b610751600480360361074c91908101906144fc565b612458565b005b61076d60048036036107689190810190614454565b6125ad565b60405161077a9190615a21565b60405180910390f35b61079d600480360361079891908101906143aa565b6125db565b6040516107aa9190615a21565b60405180910390f35b6107cd60048036036107c891908101906145c0565b6125f3565b005b6107e960048036036107e49190810190614490565b6129a9565b005b6108056004803603610800919081019061454b565b6129b7565b005b61080f612cbf565b60405161081c9190615a21565b60405180910390f35b61083f600480360361083a91908101906144fc565b612cc5565b60405161084c9190615613565b60405180910390f35b61086f600480360361086a91908101906143fc565b612e6f565b005b610879613478565b80600d819055507fe829efae5d8a2f7163f46c23a8190bf14625c1e446561ca0f5cf279ab7c8015e816040516108af9190615a21565b60405180910390a150565b600360009054906101000a900473ffffffffffffffffffffffffffffffffffffffff1681565b6000426108fa600e54600f5461350990919063ffffffff16565b11905090565b600f5481565b61090e613478565b80600160006101000a81548173ffffffffffffffffffffffffffffffffffffffff021916908373ffffffffffffffffffffffffffffffffffffffff1602179055507f906a1c6bd7e3091ea86693dd029a831c19049ce77f1dce2ce0bab1cacbabce228160405161097e919061544f565b60405180910390a150565b610991613478565b42600f819055507fceade2b9bc02350b17075c94bb699508b89ed2752f501ea42024b1bb5fd34445600f546109d3600e54600f5461350990919063ffffffff16565b6040516109e1929190615a6c565b60405180910390a1565b6109f361355e565b73ffffffffffffffffffffffffffffffffffffffff163373ffffffffffffffffffffffffffffffffffffffff1614610a60576040517f08c379a0000000000000000000000000000000000000000000000000000000008152600401610a5790615981565b60405180910390fd5b610a6b83838361358e565b505050565b6000600660008373ffffffffffffffffffffffffffffffffffffffff1673ffffffffffffffffffffffffffffffffffffffff168152602001908152602001600020805490509050919050565b60096020528060005260406000206000915090505481565b60006060610ae0612326565b905060008090505b8151811015610c9f576000828281518110610aff57fe5b602002602001015190506004600082815260200190815260200160002060009054906101000a900473ffffffffffffffffffffffffffffffffffffffff1673ffffffffffffffffffffffffffffffffffffffff16600360009054906101000a900473ffffffffffffffffffffffffffffffffffffffff1673ffffffffffffffffffffffffffffffffffffffff166321f8a721836040518263ffffffff1660e01b8152600401610bae9190615650565b60206040518083038186803b158015610bc657600080fd5b505afa158015610bda573d6000803e3d6000fd5b505050506040513d601f19601f82011682018060405250610bfe91908101906143d3565b73ffffffffffffffffffffffffffffffffffffffff16141580610c805750600073ffffffffffffffffffffffffffffffffffffffff166004600083815260200190815260200160002060009054906101000a900473ffffffffffffffffffffffffffffffffffffffff1673ffffffffffffffffffffffffffffffffffffffff16145b15610c915760009350505050610ca6565b508080600101915050610ae8565b5060019150505b90565b6000610cb361415a565b600560008573ffffffffffffffffffffffffffffffffffffffff1673ffffffffffffffffffffffffffffffffffffffff16815260200190815260200160002060008481526020019081526020016000206040518060400160405290816000820160009054906101000a900467ffffffffffffffff1667ffffffffffffffff1667ffffffffffffffff1681526020016001820154815250509050610d5581613940565b91505092915050565b60086020528060005260406000206000915090505481565b600080600090505b83839050811015610e88576000600560003373ffffffffffffffffffffffffffffffffffffffff1673ffffffffffffffffffffffffffffffffffffffff1681526020019081526020016000206000868685818110610dd857fe5b90506020020135815260200190815260200160002090506000816001015414610e7a576000610e4d826040518060400160405290816000820160009054906101000a900467ffffffffffffffff1667ffffffffffffffff1667ffffffffffffffff168152602001600182015481525050613940565b90506000811115610e6357600082600101819055505b610e76818561350990919063ffffffff16565b9350505b508080600101915050610d7e565b5060008114610e9c57610e9b338261397e565b5b505050565b600d5481565b610eaf613478565b80600c819055507f6b92bd20c4b2e6861047ba7209ddc78d538419aae187d0df46716b827b8997a481604051610ee59190615a21565b60405180910390a150565b6005602052816000526040600020602052806000526040600020600091509150508060000160009054906101000a900467ffffffffffffffff16908060010154905082565b60025481565b600160009054906101000a900473ffffffffffffffffffffffffffffffffffffffff1681565b610f69613478565b806011819055507f7829b48ec37298e3e9b1cb2971e47abc072159681eaf558f8649a25d66ef867281604051610f9f9190615a21565b60405180910390a150565b600c5481565b600080600560008573ffffffffffffffffffffffffffffffffffffffff1673ffffffffffffffffffffffffffffffffffffffff168152602001908152602001600020600084815260200190815260200160002060000160009054906101000a900467ffffffffffffffff169150600560008573ffffffffffffffffffffffffffffffffffffffff1673ffffffffffffffffffffffffffffffffffffffff16815260200190815260200160002060008481526020019081526020016000206001015490509250929050565b600080600090505b8383905081101561117e5761109561415a565b600560008773ffffffffffffffffffffffffffffffffffffffff1673ffffffffffffffffffffffffffffffffffffffff16815260200190815260200160002060008686858181106110e257fe5b9050602002013581526020019081526020016000206040518060400160405290816000820160009054906101000a900467ffffffffffffffff1667ffffffffffffffff1667ffffffffffffffff1681526020016001820154815250509050600081602001511461117057600061115782613940565b905061116c818561350990919063ffffffff16565b9350505b508080600101915050611082565b509392505050565b6000600860008373ffffffffffffffffffffffffffffffffffffffff1673ffffffffffffffffffffffffffffffffffffffff168152602001908152602001600020549050919050565b600b5481565b600a6020528060005260406000206000915054906101000a900473ffffffffffffffffffffffffffffffffffffffff1681565b6060611212612326565b905060008090505b81518110156113a557600082828151811061123157fe5b602002602001015190506000600360009054906101000a900473ffffffffffffffffffffffffffffffffffffffff1673ffffffffffffffffffffffffffffffffffffffff1663dacb2d01838460405160200161128d9190615429565b6040516020818303038152906040526040518363ffffffff1660e01b81526004016112b9929190615694565b60206040518083038186803b1580156112d157600080fd5b505afa1580156112e5573d6000803e3d6000fd5b505050506040513d601f19601f8201168201806040525061130991908101906143d3565b9050806004600084815260200190815260200160002060006101000a81548173ffffffffffffffffffffffffffffffffffffffff021916908373ffffffffffffffffffffffffffffffffffffffff1602179055507f88a93678a3692f6789d9546fc621bf7234b101ddb7d4fe479455112831b8aa68828260405161138e92919061566b565b60405180910390a15050808060010191505061121a565b5050565b6060600082840190508381116113fd5760006040519080825280602002602001820160405280156113f457816020015b6113e161417e565b8152602001906001900390816113d95790505b50915050611635565b600660008673ffffffffffffffffffffffffffffffffffffffff1673ffffffffffffffffffffffffffffffffffffffff1681526020019081526020016000208054905081111561148d57600660008673ffffffffffffffffffffffffffffffffffffffff1673ffffffffffffffffffffffffffffffffffffffff1681526020019081526020016000208054905090505b600084820390506060816040519080825280602002602001820160405280156114d057816020015b6114bd61417e565b8152602001906001900390816114b55790505b50905060005b8281101561162d576000600660008a73ffffffffffffffffffffffffffffffffffffffff1673ffffffffffffffffffffffffffffffffffffffff1681526020019081526020016000208883018154811061152c57fe5b9060005260206000200154905061154161415a565b600560008b73ffffffffffffffffffffffffffffffffffffffff1673ffffffffffffffffffffffffffffffffffffffff16815260200190815260200160002060008381526020019081526020016000206040518060400160405290816000820160009054906101000a900467ffffffffffffffff1667ffffffffffffffff1667ffffffffffffffff16815260200160018201548152505090506040518060600160405280826000015167ffffffffffffffff168152602001826020015181526020018381525084848151811061161357fe5b6020026020010181905250505080806001019150506114d6565b508093505050505b9392505050565b611644613b06565b73ffffffffffffffffffffffffffffffffffffffff1663086dabd16040518163ffffffff1660e01b815260040160006040518083038186803b15801561168957600080fd5b505afa15801561169d573d6000803e3d6000fd5b505050506000601060008373ffffffffffffffffffffffffffffffffffffffff1673ffffffffffffffffffffffffffffffffffffffff1681526020019081526020016000205411611723576040517f08c379a000000000000000000000000000000000000000000000000000000000815260040161171a90615801565b60405180910390fd5b6000600860008373ffffffffffffffffffffffffffffffffffffffff1673ffffffffffffffffffffffffffffffffffffffff16815260200190815260200160002054116117a5576040517f08c379a000000000000000000000000000000000000000000000000000000000815260040161179c906159c1565b60405180910390fd5b601154601060008373ffffffffffffffffffffffffffffffffffffffff1673ffffffffffffffffffffffffffffffffffffffff168152602001908152602001600020541161189c576118548160405180604001604052804267ffffffffffffffff168152602001601060008673ffffffffffffffffffffffffffffffffffffffff1673ffffffffffffffffffffffffffffffffffffffff16815260200190815260200160002054815250613b36565b601060008273ffffffffffffffffffffffffffffffffffffffff1673ffffffffffffffffffffffffffffffffffffffff16815260200190815260200160002060009055611ae7565b60006118a6613ba3565b73ffffffffffffffffffffffffffffffffffffffff1663204b676a836040518263ffffffff1660e01b81526004016118de919061544f565b60206040518083038186803b1580156118f657600080fd5b505afa15801561190a573d6000803e3d6000fd5b505050506040513d601f19601f8201168201806040525061192e9190810190614724565b90506000600190505b818111611ae4576119466141a9565b61194e613ba3565b73ffffffffffffffffffffffffffffffffffffffff1663da7bd3e9858486036040518363ffffffff1660e01b815260040161198a929190615566565b604080518083038186803b1580156119a157600080fd5b505afa1580156119b5573d6000803e3d6000fd5b505050506040513d601f19601f820116820180604052506119d99190810190614664565b90506000816000600281106119ea57fe5b60200201519050600082600160028110611a0057fe5b6020020151905042821015611a1757505050611ae4565b611a3f8660405180604001604052808567ffffffffffffffff16815260200184815250613b36565b611a9181601060008973ffffffffffffffffffffffffffffffffffffffff1673ffffffffffffffffffffffffffffffffffffffff16815260200190815260200160002054613bd390919063ffffffff16565b601060008873ffffffffffffffffffffffffffffffffffffffff1673ffffffffffffffffffffffffffffffffffffffff168152602001908152602001600020819055505050508080600101915050611937565b50505b50565b611af2613478565b600d54811115611b37576040517f08c379a0000000000000000000000000000000000000000000000000000000008152600401611b2e90615961565b60405180910390fd5b80600e819055507f723c43349da7aeae47190396f2e2fbe6bedb46b9e9705bc5b908d65bc7a1e0e681604051611b6d9190615a21565b60405180910390a150565b600160009054906101000a900473ffffffffffffffffffffffffffffffffffffffff1673ffffffffffffffffffffffffffffffffffffffff163373ffffffffffffffffffffffffffffffffffffffff1614611c08576040517f08c379a0000000000000000000000000000000000000000000000000000000008152600401611bff90615701565b60405180910390fd5b7fb532073b38c83145e3e5135377a08bf9aab55bc0fd7c1179cd4fb995d2a5159c6000809054906101000a900473ffffffffffffffffffffffffffffffffffffffff16600160009054906101000a900473ffffffffffffffffffffffffffffffffffffffff16604051611c7c929190615516565b60405180910390a1600160009054906101000a900473ffffffffffffffffffffffffffffffffffffffff166000806101000a81548173ffffffffffffffffffffffffffffffffffffffff021916908373ffffffffffffffffffffffffffffffffffffffff1602179055506000600160006101000a81548173ffffffffffffffffffffffffffffffffffffffff021916908373ffffffffffffffffffffffffffffffffffffffff160217905550565b3373ffffffffffffffffffffffffffffffffffffffff168173ffffffffffffffffffffffffffffffffffffffff161415611d99576040517f08c379a0000000000000000000000000000000000000000000000000000000008152600401611d90906158a1565b60405180910390fd5b611da16108e0565b611de0576040517f08c379a0000000000000000000000000000000000000000000000000000000008152600401611dd790615861565b60405180910390fd5b6000611dea613c29565b73ffffffffffffffffffffffffffffffffffffffff1663d37c4d8b336040518263ffffffff1660e01b8152600401611e2291906154a1565b60206040518083038186803b158015611e3a57600080fd5b505afa158015611e4e573d6000803e3d6000fd5b505050506040513d601f19601f82011682018060405250611e729190810190614724565b14611eb2576040517f08c379a0000000000000000000000000000000000000000000000000000000008152600401611ea990615a01565b60405180910390fd5b80600a60003373ffffffffffffffffffffffffffffffffffffffff1673ffffffffffffffffffffffffffffffffffffffff16815260200190815260200160002060006101000a81548173ffffffffffffffffffffffffffffffffffffffff021916908373ffffffffffffffffffffffffffffffffffffffff1602179055503373ffffffffffffffffffffffffffffffffffffffff167fcf51776bb16e5780edcca2e64a9ba8a9c7d5d00a6699cbd7606e465361ba485282604051611f76919061544f565b60405180910390a250565b60006060611f8d613c59565b73ffffffffffffffffffffffffffffffffffffffff163373ffffffffffffffffffffffffffffffffffffffff1614611ffa576040517f08c379a0000000000000000000000000000000000000000000000000000000008152600401611ff1906159e1565b60405180910390fd5b60008484905011612040576040517f08c379a0000000000000000000000000000000000000000000000000000000008152600401612037906158c1565b60405180910390fd5b8383905060405190808252806020026020018201604052801561207d57816020015b61206a6141cb565b8152602001906001900390816120625790505b50905060008090505b84849050811015612213576000600560008873ffffffffffffffffffffffffffffffffffffffff1673ffffffffffffffffffffffffffffffffffffffff16815260200190815260200160002060008787858181106120e057fe5b905060200201358152602001908152602001600020905060008160010154111561220557806040518060400160405290816000820160009054906101000a900467ffffffffffffffff1667ffffffffffffffff1667ffffffffffffffff16815260200160018201548152505083838151811061215857fe5b602002602001018190525061217a81600101548561350990919063ffffffff16565b9350600560008873ffffffffffffffffffffffffffffffffffffffff1673ffffffffffffffffffffffffffffffffffffffff16815260200190815260200160002060008787858181106121c957fe5b905060200201358152602001908152602001600020600080820160006101000a81549067ffffffffffffffff0219169055600182016000905550505b508080600101915050612086565b5060008211156122c4576122278583613c89565b61222f613d3d565b73ffffffffffffffffffffffffffffffffffffffff1663a9059cbb612252613c59565b846040518363ffffffff1660e01b8152600401612270929190615566565b602060405180830381600087803b15801561228a57600080fd5b505af115801561229e573d6000803e3d6000fd5b505050506040513d601f19601f820116820180604052506122c291908101906146d2565b505b8473ffffffffffffffffffffffffffffffffffffffff167f929c8a2a06883affd05f43baf52398dbbfb6930730ce1bdb2cfe413cd44b107c8585854260405161231094939291906155d3565b60405180910390a2818191509150935093915050565b606080612331613d6d565b9050606060036040519080825280602002602001820160405280156123655781602001602082028038833980820191505090505b5090507f5065726946696e427269646765546f4f7074696d69736d0000000000000000008160008151811061239657fe5b6020026020010181815250507f526577617264457363726f770000000000000000000000000000000000000000816001815181106123d057fe5b6020026020010181815250507f53797374656d53746174757300000000000000000000000000000000000000008160028151811061240a57fe5b6020026020010181815250506124208282613e53565b9250505090565b6000809054906101000a900473ffffffffffffffffffffffffffffffffffffffff1681565b600e5481565b60115481565b600073ffffffffffffffffffffffffffffffffffffffff168373ffffffffffffffffffffffffffffffffffffffff1614156124c8576040517f08c379a00000000000000000000000000000000000000000000000000000000081526004016124bf90615781565b60405180910390fd5b6124d0613d3d565b73ffffffffffffffffffffffffffffffffffffffff166323b872dd3330856040518463ffffffff1660e01b815260040161250c9392919061546a565b602060405180830381600087803b15801561252657600080fd5b505af115801561253a573d6000803e3d6000fd5b505050506040513d601f19601f8201168201806040525061255e91908101906146d2565b61259d576040517f08c379a000000000000000000000000000000000000000000000000000000000815260040161259490615881565b60405180910390fd5b6125a883838361358e565b505050565b600660205281600052604060002081815481106125c657fe5b90600052602060002001600091509150505481565b60106020528060005260406000206000915090505481565b6002544210612637576040517f08c379a000000000000000000000000000000000000000000000000000000000815260040161262e90615941565b60405180910390fd5b61263f613478565b838390508686905014612687576040517f08c379a000000000000000000000000000000000000000000000000000000000815260040161267e906159a1565b60405180910390fd5b8181905086869050146126cf576040517f08c379a00000000000000000000000000000000000000000000000000000000081526004016126c6906157e1565b60405180910390fd5b60008090505b868690508110156129a05760008787838181106126ee57fe5b905060200201602061270391908101906143aa565b9050600086868481811061271357fe5b905060200201359050600085858581811061272a57fe5b9050602002013590506000601060008573ffffffffffffffffffffffffffffffffffffffff1673ffffffffffffffffffffffffffffffffffffffff16815260200190815260200160002054146127b5576040517f08c379a00000000000000000000000000000000000000000000000000000000081526004016127ac90615721565b60405180910390fd5b6127ca82600b5461350990919063ffffffff16565b600b8190555061282282600860008673ffffffffffffffffffffffffffffffffffffffff1673ffffffffffffffffffffffffffffffffffffffff1681526020019081526020016000205461350990919063ffffffff16565b600860008573ffffffffffffffffffffffffffffffffffffffff1673ffffffffffffffffffffffffffffffffffffffff168152602001908152602001600020819055506128b781600960008673ffffffffffffffffffffffffffffffffffffffff1673ffffffffffffffffffffffffffffffffffffffff1681526020019081526020016000205461350990919063ffffffff16565b600960008573ffffffffffffffffffffffffffffffffffffffff1673ffffffffffffffffffffffffffffffffffffffff1681526020019081526020016000208190555081601060008573ffffffffffffffffffffffffffffffffffffffff1673ffffffffffffffffffffffffffffffffffffffff168152602001908152602001600020819055508273ffffffffffffffffffffffffffffffffffffffff167fa2a5ac2d2500e30aea994fc4bc99ef5535241c79d428e43c3fe204862f2874d683834260405161298893929190615a95565b60405180910390a250505080806001019150506126d5565b50505050505050565b6129b1613f26565b50505050565b60025442106129fb576040517f08c379a00000000000000000000000000000000000000000000000000000000081526004016129f290615941565b60405180910390fd5b612a03613478565b818190508484905014612a4b576040517f08c379a0000000000000000000000000000000000000000000000000000000008152600401612a4290615921565b60405180910390fd5b60008090505b84849050811015612cb8576000858583818110612a6a57fe5b9050602002016020612a7f91908101906143aa565b90506000848484818110612a8f57fe5b9050602002013590506000600860008473ffffffffffffffffffffffffffffffffffffffff1673ffffffffffffffffffffffffffffffffffffffff1681526020019081526020016000205411612b1a576040517f08c379a0000000000000000000000000000000000000000000000000000000008152600401612b11906159c1565b60405180910390fd5b6000601060008473ffffffffffffffffffffffffffffffffffffffff1673ffffffffffffffffffffffffffffffffffffffff1681526020019081526020016000205411612b9c576040517f08c379a0000000000000000000000000000000000000000000000000000000008152600401612b9390615801565b60405180910390fd5b612bc48260405180604001604052804267ffffffffffffffff16815260200184815250613b36565b612c1681601060008573ffffffffffffffffffffffffffffffffffffffff1673ffffffffffffffffffffffffffffffffffffffff16815260200190815260200160002054613bd390919063ffffffff16565b601060008473ffffffffffffffffffffffffffffffffffffffff1673ffffffffffffffffffffffffffffffffffffffff168152602001908152602001600020819055508173ffffffffffffffffffffffffffffffffffffffff167f73cefcb01ff86c575a4fbf40317a93c37b7312e0b294e588ee24b312e4f97cc44283604051612ca1929190615a6c565b60405180910390a250508080600101915050612a51565b5050505050565b60075481565b606060008284019050600660008673ffffffffffffffffffffffffffffffffffffffff1673ffffffffffffffffffffffffffffffffffffffff16815260200190815260200160002080549050811115612d5e57600660008673ffffffffffffffffffffffffffffffffffffffff1673ffffffffffffffffffffffffffffffffffffffff1681526020019081526020016000208054905090505b838111612d9e576000604051908082528060200260200182016040528015612d955781602001602082028038833980820191505090505b50915050612e68565b60008482039050606081604051908082528060200260200182016040528015612dd65781602001602082028038833980820191505090505b50905060005b82811015612e6057600660008973ffffffffffffffffffffffffffffffffffffffff1673ffffffffffffffffffffffffffffffffffffffff16815260200190815260200160002087820181548110612e3057fe5b9060005260206000200154828281518110612e4757fe5b6020026020010181815250508080600101915050612ddc565b508093505050505b9392505050565b612e776108e0565b612eb6576040517f08c379a0000000000000000000000000000000000000000000000000000000008152600401612ead90615861565b60405180910390fd5b6000612ec0613c29565b73ffffffffffffffffffffffffffffffffffffffff1663d37c4d8b856040518263ffffffff1660e01b8152600401612ef8919061553f565b60206040518083038186803b158015612f1057600080fd5b505afa158015612f24573d6000803e3d6000fd5b505050506040513d601f19601f82011682018060405250612f489190810190614724565b14612f88576040517f08c379a0000000000000000000000000000000000000000000000000000000008152600401612f7f90615a01565b60405180910390fd5b3373ffffffffffffffffffffffffffffffffffffffff16600a60008573ffffffffffffffffffffffffffffffffffffffff1673ffffffffffffffffffffffffffffffffffffffff16815260200190815260200160002060009054906101000a900473ffffffffffffffffffffffffffffffffffffffff1673ffffffffffffffffffffffffffffffffffffffff1614613055576040517f08c379a000000000000000000000000000000000000000000000000000000000815260040161304c90615901565b60405180910390fd5b600080600090505b838390508110156132f15761307061415a565b600560008773ffffffffffffffffffffffffffffffffffffffff1673ffffffffffffffffffffffffffffffffffffffff16815260200190815260200160002060008686858181106130bd57fe5b9050602002013581526020019081526020016000206040518060400160405290816000820160009054906101000a900467ffffffffffffffff1667ffffffffffffffff1667ffffffffffffffff168152602001600182015481525050905060008160200151146132e35780600560003373ffffffffffffffffffffffffffffffffffffffff1673ffffffffffffffffffffffffffffffffffffffff168152602001908152602001600020600087878681811061317557fe5b90506020020135815260200190815260200160002060008201518160000160006101000a81548167ffffffffffffffff021916908367ffffffffffffffff160217905550602082015181600101559050506131dd81602001518461350990919063ffffffff16565b9250600660003373ffffffffffffffffffffffffffffffffffffffff1673ffffffffffffffffffffffffffffffffffffffff16815260200190815260200160002085858481811061322a57fe5b905060200201359080600181540180825580915050906001820390600052602060002001600090919290919091505550600560008773ffffffffffffffffffffffffffffffffffffffff1673ffffffffffffffffffffffffffffffffffffffff16815260200190815260200160002060008686858181106132a757fe5b905060200201358152602001908152602001600020600080820160006101000a81549067ffffffffffffffff0219169055600182016000905550505b50808060010191505061305d565b5061334481600860008773ffffffffffffffffffffffffffffffffffffffff1673ffffffffffffffffffffffffffffffffffffffff16815260200190815260200160002054613bd390919063ffffffff16565b600860008673ffffffffffffffffffffffffffffffffffffffff1673ffffffffffffffffffffffffffffffffffffffff168152602001908152602001600020819055506133d981600860003373ffffffffffffffffffffffffffffffffffffffff1673ffffffffffffffffffffffffffffffffffffffff1681526020019081526020016000205461350990919063ffffffff16565b600860003373ffffffffffffffffffffffffffffffffffffffff1673ffffffffffffffffffffffffffffffffffffffff168152602001908152602001600020819055508373ffffffffffffffffffffffffffffffffffffffff167f48d567deaa7db90f8a443344e519ca8906521ffe118e1df43e89a3c257963f7c338386864260405161346a9594939291906154c8565b60405180910390a250505050565b6000809054906101000a900473ffffffffffffffffffffffffffffffffffffffff1673ffffffffffffffffffffffffffffffffffffffff163373ffffffffffffffffffffffffffffffffffffffff1614613507576040517f08c379a00000000000000000000000000000000000000000000000000000000081526004016134fe906158e1565b60405180910390fd5b565b600080828401905083811015613554576040517f08c379a000000000000000000000000000000000000000000000000000000000815260040161354b90615741565b60405180910390fd5b8091505092915050565b60006135897f466565506f6f6c00000000000000000000000000000000000000000000000000613f61565b905090565b60008214156135d2576040517f08c379a00000000000000000000000000000000000000000000000000000000081526004016135c990615821565b60405180910390fd5b6000811180156135e45750600c548111155b613623576040517f08c379a000000000000000000000000000000000000000000000000000000000815260040161361a90615761565b60405180910390fd5b61363882600b5461350990919063ffffffff16565b600b81905550613646613d3d565b73ffffffffffffffffffffffffffffffffffffffff166370a08231306040518263ffffffff1660e01b815260040161367e919061544f565b60206040518083038186803b15801561369657600080fd5b505afa1580156136aa573d6000803e3d6000fd5b505050506040513d601f19601f820116820180604052506136ce9190810190614724565b600b541115613712576040517f08c379a000000000000000000000000000000000000000000000000000000000815260040161370990615841565b60405180910390fd5b6000814201905061376b83600860008773ffffffffffffffffffffffffffffffffffffffff1673ffffffffffffffffffffffffffffffffffffffff1681526020019081526020016000205461350990919063ffffffff16565b600860008673ffffffffffffffffffffffffffffffffffffffff1673ffffffffffffffffffffffffffffffffffffffff168152602001908152602001600020819055506000600754905060405180604001604052808367ffffffffffffffff16815260200185815250600560008773ffffffffffffffffffffffffffffffffffffffff1673ffffffffffffffffffffffffffffffffffffffff168152602001908152602001600020600083815260200190815260200160002060008201518160000160006101000a81548167ffffffffffffffff021916908367ffffffffffffffff16021790555060208201518160010155905050600660008673ffffffffffffffffffffffffffffffffffffffff1673ffffffffffffffffffffffffffffffffffffffff1681526020019081526020016000208190806001815401808255809150509060018203906000526020600020016000909192909190915055506138df600160075461350990919063ffffffff16565b6007819055508473ffffffffffffffffffffffffffffffffffffffff167f2cc016694185d38abbe28d9e9baea2e9d95a321ae43475e5ea7b643756840bc0428686856040516139319493929190615acc565b60405180910390a25050505050565b600080600083602001511461397557826000015167ffffffffffffffff1642101561396c576000613972565b82602001515b90505b80915050919050565b6139888282613c89565b6139da81600960008573ffffffffffffffffffffffffffffffffffffffff1673ffffffffffffffffffffffffffffffffffffffff1681526020019081526020016000205461350990919063ffffffff16565b600960008473ffffffffffffffffffffffffffffffffffffffff1673ffffffffffffffffffffffffffffffffffffffff16815260200190815260200160002081905550613a25613d3d565b73ffffffffffffffffffffffffffffffffffffffff1663a9059cbb83836040518363ffffffff1660e01b8152600401613a5f929190615566565b602060405180830381600087803b158015613a7957600080fd5b505af1158015613a8d573d6000803e3d6000fd5b505050506040513d601f19601f82011682018060405250613ab191908101906146d2565b508173ffffffffffffffffffffffffffffffffffffffff167ffbeff59d2bfda0d79ea8a29f8c57c66d48c7a13eabbdb90908d9115ec41c9dc64283604051613afa929190615a6c565b60405180910390a25050565b6000613b317f53797374656d5374617475730000000000000000000000000000000000000000613f61565b905090565b6000613b428383614036565b90508273ffffffffffffffffffffffffffffffffffffffff167fa0ba170b0a148bd927eafc64518e6c9d92eba1ea1fdf703dd8cfee6d329012bb8284602001518560000151604051613b9693929190615b11565b60405180910390a2505050565b6000613bce7f526577617264457363726f770000000000000000000000000000000000000000613f61565b905090565b600082821115613c18576040517f08c379a0000000000000000000000000000000000000000000000000000000008152600401613c0f906157a1565b60405180910390fd5b600082840390508091505092915050565b6000613c547f4973737565720000000000000000000000000000000000000000000000000000613f61565b905090565b6000613c847f5065726946696e427269646765546f4f7074696d69736d000000000000000000613f61565b905090565b613c9e81600b54613bd390919063ffffffff16565b600b81905550613cf681600860008573ffffffffffffffffffffffffffffffffffffffff1673ffffffffffffffffffffffffffffffffffffffff16815260200190815260200160002054613bd390919063ffffffff16565b600860008473ffffffffffffffffffffffffffffffffffffffff1673ffffffffffffffffffffffffffffffffffffffff168152602001908152602001600020819055505050565b6000613d687f5065726946696e00000000000000000000000000000000000000000000000000613f61565b905090565b60606003604051908082528060200260200182016040528015613d9f5781602001602082028038833980820191505090505b5090507f5065726946696e0000000000000000000000000000000000000000000000000081600081518110613dd057fe5b6020026020010181815250507f466565506f6f6c0000000000000000000000000000000000000000000000000081600181518110613e0a57fe5b6020026020010181815250507f497373756572000000000000000000000000000000000000000000000000000081600281518110613e4457fe5b60200260200101818152505090565b60608151835101604051908082528060200260200182016040528015613e885781602001602082028038833980820191505090505b50905060008090505b8351811015613ed357838181518110613ea657fe5b6020026020010151828281518110613eba57fe5b6020026020010181815250508080600101915050613e91565b5060008090505b8251811015613f1f57828181518110613eef57fe5b6020026020010151828286510181518110613f0657fe5b6020026020010181815250508080600101915050613eda565b5092915050565b6040517f08c379a0000000000000000000000000000000000000000000000000000000008152600401613f58906157c1565b60405180910390fd5b6000806004600084815260200190815260200160002060009054906101000a900473ffffffffffffffffffffffffffffffffffffffff169050600073ffffffffffffffffffffffffffffffffffffffff168173ffffffffffffffffffffffffffffffffffffffff16141583604051602001613fdc9190615403565b6040516020818303038152906040529061402c576040517f08c379a000000000000000000000000000000000000000000000000000000000815260040161402391906156df565b60405180910390fd5b5080915050919050565b600080600754905082600560008673ffffffffffffffffffffffffffffffffffffffff1673ffffffffffffffffffffffffffffffffffffffff168152602001908152602001600020600083815260200190815260200160002060008201518160000160006101000a81548167ffffffffffffffff021916908367ffffffffffffffff16021790555060208201518160010155905050600660008573ffffffffffffffffffffffffffffffffffffffff1673ffffffffffffffffffffffffffffffffffffffff16815260200190815260200160002081908060018154018082558091505090600182039060005260206000200160009091929091909150555061414a600160075461350990919063ffffffff16565b6007819055508091505092915050565b6040518060400160405280600067ffffffffffffffff168152602001600081525090565b6040518060600160405280600067ffffffffffffffff16815260200160008152602001600081525090565b6040518060400160405280600290602082028038833980820191505090505090565b6040518060400160405280600067ffffffffffffffff168152602001600081525090565b6000813590506141fe81615dfa565b92915050565b60008151905061421381615dfa565b92915050565b60008083601f84011261422b57600080fd5b8235905067ffffffffffffffff81111561424457600080fd5b60208301915083602082028301111561425c57600080fd5b9250929050565b60008083601f84011261427557600080fd5b8235905067ffffffffffffffff81111561428e57600080fd5b6020830191508360408202830111156142a657600080fd5b9250929050565b600082601f8301126142be57600080fd5b60026142d16142cc82615b9e565b615b71565b915081838560208402820111156142e757600080fd5b60005b8381101561431757816142fd8882614395565b8452602084019350602083019250506001810190506142ea565b5050505092915050565b60008083601f84011261433357600080fd5b8235905067ffffffffffffffff81111561434c57600080fd5b60208301915083602082028301111561436457600080fd5b9250929050565b60008151905061437a81615e11565b92915050565b60008135905061438f81615e28565b92915050565b6000815190506143a481615e28565b92915050565b6000602082840312156143bc57600080fd5b60006143ca848285016141ef565b91505092915050565b6000602082840312156143e557600080fd5b60006143f384828501614204565b91505092915050565b60008060006040848603121561441157600080fd5b600061441f868287016141ef565b935050602084013567ffffffffffffffff81111561443c57600080fd5b61444886828701614321565b92509250509250925092565b6000806040838503121561446757600080fd5b6000614475858286016141ef565b925050602061448685828601614380565b9150509250929050565b600080600080606085870312156144a657600080fd5b60006144b4878288016141ef565b94505060206144c587828801614380565b935050604085013567ffffffffffffffff8111156144e257600080fd5b6144ee87828801614263565b925092505092959194509250565b60008060006060848603121561451157600080fd5b600061451f868287016141ef565b935050602061453086828701614380565b925050604061454186828701614380565b9150509250925092565b6000806000806040858703121561456157600080fd5b600085013567ffffffffffffffff81111561457b57600080fd5b61458787828801614219565b9450945050602085013567ffffffffffffffff8111156145a657600080fd5b6145b287828801614321565b925092505092959194509250565b600080600080600080606087890312156145d957600080fd5b600087013567ffffffffffffffff8111156145f357600080fd5b6145ff89828a01614219565b9650965050602087013567ffffffffffffffff81111561461e57600080fd5b61462a89828a01614321565b9450945050604087013567ffffffffffffffff81111561464957600080fd5b61465589828a01614321565b92509250509295509295509295565b60006040828403121561467657600080fd5b6000614684848285016142ad565b91505092915050565b600080602083850312156146a057600080fd5b600083013567ffffffffffffffff8111156146ba57600080fd5b6146c685828601614321565b92509250509250929050565b6000602082840312156146e457600080fd5b60006146f28482850161436b565b91505092915050565b60006020828403121561470d57600080fd5b600061471b84828501614380565b91505092915050565b60006020828403121561473657600080fd5b600061474484828501614395565b91505092915050565b600061475983836149aa565b60208301905092915050565b60006147718383615347565b60608301905092915050565b60006147898383615389565b60408301905092915050565b60006147a183836153b8565b60208301905092915050565b6147b681615d31565b82525050565b6147c581615ccb565b82525050565b60006147d682615c00565b6147e08185615c6b565b93506147eb83615bc0565b8060005b8381101561481c578151614803888261474d565b975061480e83615c37565b9250506001810190506147ef565b5085935050505092915050565b600061483482615c0b565b61483e8185615c7c565b935061484983615bd0565b8060005b8381101561487a5781516148618882614765565b975061486c83615c44565b92505060018101905061484d565b5085935050505092915050565b600061489282615c16565b61489c8185615c8d565b93506148a783615be0565b8060005b838110156148d85781516148bf888261477d565b97506148ca83615c51565b9250506001810190506148ab565b5085935050505092915050565b60006148f18385615c9e565b93507f07ffffffffffffffffffffffffffffffffffffffffffffffffffffffffffffff83111561492057600080fd5b602083029250614931838584615d9d565b82840190509392505050565b600061494882615c21565b6149528185615c9e565b935061495d83615bf0565b8060005b8381101561498e5781516149758882614795565b975061498083615c5e565b925050600181019050614961565b5085935050505092915050565b6149a481615cdd565b82525050565b6149b381615ce9565b82525050565b6149c281615ce9565b82525050565b6149d96149d482615ce9565b615ddf565b82525050565b6149e881615d43565b82525050565b60006149f982615c2c565b614a038185615caf565b9350614a13818560208601615dac565b614a1c81615de9565b840191505092915050565b6000614a34603583615caf565b91507f596f75206d757374206265206e6f6d696e61746564206265666f726520796f7560008301527f2063616e20616363657074206f776e65727368697000000000000000000000006020830152604082019050919050565b6000614a9a602483615caf565b91507f4163636f756e74206d6967726174696f6e2069732070656e64696e6720616c7260008301527f65616479000000000000000000000000000000000000000000000000000000006020830152604082019050919050565b6000614b00601b83615caf565b91507f536166654d6174683a206164646974696f6e206f766572666c6f7700000000006000830152602082019050919050565b6000614b40603383615caf565b91507f43616e6e6f7420657363726f7720776974682030206475726174696f6e204f5260008301527f2061626f7665206d61785f6475726174696f6e000000000000000000000000006020830152604082019050919050565b6000614ba6602483615caf565b91507f43616e6e6f742063726561746520657363726f7720776974682061646472657360008301527f73283029000000000000000000000000000000000000000000000000000000006020830152604082019050919050565b6000614c0c601e83615caf565b91507f536166654d6174683a207375627472616374696f6e206f766572666c6f7700006000830152602082019050919050565b6000614c4c601b83615caf565b91507f43616e6e6f742062652072756e206f6e2074686973206c6179657200000000006000830152602082019050919050565b6000614c8c603183615caf565b91507f4e756d626572206f66206163636f756e747320616e642076657374656442616c60008301527f616e63657320646f6e2774206d617463680000000000000000000000000000006020830152604082019050919050565b6000614cf2601b83615caf565b91507f4e6f20657363726f77206d6967726174696f6e2070656e64696e6700000000006000830152602082019050919050565b6000614d32601183615cc0565b91507f4d697373696e6720616464726573733a200000000000000000000000000000006000830152601182019050919050565b6000614d72601783615caf565b91507f5175616e746974792063616e6e6f74206265207a65726f0000000000000000006000830152602082019050919050565b6000614db2604783615caf565b91507f4d75737420626520656e6f7567682062616c616e636520696e2074686520636f60008301527f6e747261637420746f2070726f7669646520666f72207468652076657374696e60208301527f6720656e747279000000000000000000000000000000000000000000000000006040830152606082019050919050565b6000614e3e601983615caf565b91507f4163636f756e74206d657267696e672068617320656e646564000000000000006000830152602082019050919050565b6000614e7e601583615caf565b91507f746f6b656e207472616e73666572206661696c656400000000000000000000006000830152602082019050919050565b6000614ebe602483615caf565b91507f43616e6e6f74206e6f6d696e617465206f776e206163636f756e7420746f206d60008301527f65726765000000000000000000000000000000000000000000000000000000006020830152604082019050919050565b6000614f24601283615caf565b91507f456e7472792049447320726571756972656400000000000000000000000000006000830152602082019050919050565b6000614f64602f83615caf565b91507f4f6e6c792074686520636f6e7472616374206f776e6572206d6179207065726660008301527f6f726d207468697320616374696f6e00000000000000000000000000000000006020830152604082019050919050565b6000614fca602183615caf565b91507f41646472657373206973206e6f74206e6f6d696e6174656420746f206d65726760008301527f65000000000000000000000000000000000000000000000000000000000000006020830152604082019050919050565b6000615030602983615caf565b91507f4163636f756e7420616e6420657363726f77416d6f756e7473204c656e67746860008301527f206d69736d6174636800000000000000000000000000000000000000000000006020830152604082019050919050565b6000615096602983615caf565b91507f43616e206f6e6c7920706572666f726d207468697320616374696f6e2064757260008301527f696e6720736574757000000000000000000000000000000000000000000000006020830152604082019050919050565b7f7055534400000000000000000000000000000000000000000000000000000000815250565b6000615122601c83615caf565b91507f65786365656473206d6178206d657267696e67206475726174696f6e000000006000830152602082019050919050565b6000615162601983615cc0565b91507f5265736f6c766572206d697373696e67207461726765743a20000000000000006000830152601982019050919050565b60006151a2602883615caf565b91507f4f6e6c792074686520466565506f6f6c2063616e20706572666f726d2074686960008301527f7320616374696f6e0000000000000000000000000000000000000000000000006020830152604082019050919050565b6000615208602b83615caf565b91507f4e756d626572206f66206163636f756e747320616e642062616c616e6365732060008301527f646f6e2774206d617463680000000000000000000000000000000000000000006020830152604082019050919050565b600061526e601b83615caf565b91507f4164647265737320657363726f772062616c616e6365206973203000000000006000830152602082019050919050565b60006152ae603783615caf565b91507f43616e206f6e6c7920626520696e766f6b6564206279205065726946696e427260008301527f69646765546f4f7074696d69736d20636f6e74726163740000000000000000006020830152604082019050919050565b6000615314601f83615caf565b91507f43616e6e6f74206d65726765206163636f756e747320776974682064656274006000830152602082019050919050565b60608201600082015161535d60008501826153e5565b50602082015161537060208501826153b8565b50604082015161538360408501826153b8565b50505050565b60408201600082015161539f60008501826153e5565b5060208201516153b260208501826153b8565b50505050565b6153c181615d13565b82525050565b6153d081615d13565b82525050565b6153df81615d8b565b82525050565b6153ee81615d1d565b82525050565b6153fd81615d1d565b82525050565b600061540e82614d25565b915061541a82846149c8565b60208201915081905092915050565b600061543482615155565b915061544082846149c8565b60208201915081905092915050565b600060208201905061546460008301846147bc565b92915050565b600060608201905061547f60008301866147ad565b61548c60208301856147bc565b61549960408301846153c7565b949350505050565b60006040820190506154b660008301846147ad565b6154c2602083016150ef565b92915050565b60006080820190506154dd60008301886147ad565b6154ea60208301876153c7565b81810360408301526154fd8185876148e5565b905061550c60608301846153c7565b9695505050505050565b600060408201905061552b60008301856147bc565b61553860208301846147bc565b9392505050565b600060408201905061555460008301846147bc565b615560602083016150ef565b92915050565b600060408201905061557b60008301856147bc565b61558860208301846153c7565b9392505050565b600060208201905081810360008301526155a981846147cb565b905092915050565b600060208201905081810360008301526155cb8184614829565b905092915050565b600060608201905081810360008301526155ee8186886148e5565b90506155fd60208301856153c7565b61560a60408301846153c7565b95945050505050565b6000602082019050818103600083015261562d818461493d565b905092915050565b600060208201905061564a600083018461499b565b92915050565b600060208201905061566560008301846149b9565b92915050565b600060408201905061568060008301856149b9565b61568d60208301846147bc565b9392505050565b60006040820190506156a960008301856149b9565b81810360208301526156bb81846149ee565b90509392505050565b60006020820190506156d960008301846149df565b92915050565b600060208201905081810360008301526156f981846149ee565b905092915050565b6000602082019050818103600083015261571a81614a27565b9050919050565b6000602082019050818103600083015261573a81614a8d565b9050919050565b6000602082019050818103600083015261575a81614af3565b9050919050565b6000602082019050818103600083015261577a81614b33565b9050919050565b6000602082019050818103600083015261579a81614b99565b9050919050565b600060208201905081810360008301526157ba81614bff565b9050919050565b600060208201905081810360008301526157da81614c3f565b9050919050565b600060208201905081810360008301526157fa81614c7f565b9050919050565b6000602082019050818103600083015261581a81614ce5565b9050919050565b6000602082019050818103600083015261583a81614d65565b9050919050565b6000602082019050818103600083015261585a81614da5565b9050919050565b6000602082019050818103600083015261587a81614e31565b9050919050565b6000602082019050818103600083015261589a81614e71565b9050919050565b600060208201905081810360008301526158ba81614eb1565b9050919050565b600060208201905081810360008301526158da81614f17565b9050919050565b600060208201905081810360008301526158fa81614f57565b9050919050565b6000602082019050818103600083015261591a81614fbd565b9050919050565b6000602082019050818103600083015261593a81615023565b9050919050565b6000602082019050818103600083015261595a81615089565b9050919050565b6000602082019050818103600083015261597a81615115565b9050919050565b6000602082019050818103600083015261599a81615195565b9050919050565b600060208201905081810360008301526159ba816151fb565b9050919050565b600060208201905081810360008301526159da81615261565b9050919050565b600060208201905081810360008301526159fa816152a1565b9050919050565b60006020820190508181036000830152615a1a81615307565b9050919050565b6000602082019050615a3660008301846153c7565b92915050565b6000604082019050615a5160008301856153c7565b8181036020830152615a638184614887565b90509392505050565b6000604082019050615a8160008301856153c7565b615a8e60208301846153c7565b9392505050565b6000606082019050615aaa60008301866153c7565b615ab760208301856153c7565b615ac460408301846153c7565b949350505050565b6000608082019050615ae160008301876153c7565b615aee60208301866153c7565b615afb60408301856153c7565b615b0860608301846153c7565b95945050505050565b6000606082019050615b2660008301866153c7565b615b3360208301856153c7565b615b4060408301846153d6565b949350505050565b6000604082019050615b5d60008301856153f4565b615b6a60208301846153c7565b9392505050565b6000604051905081810181811067ffffffffffffffff82111715615b9457600080fd5b8060405250919050565b600067ffffffffffffffff821115615bb557600080fd5b602082029050919050565b6000819050602082019050919050565b6000819050602082019050919050565b6000819050602082019050919050565b6000819050602082019050919050565b600081519050919050565b600081519050919050565b600081519050919050565b600081519050919050565b600081519050919050565b6000602082019050919050565b6000602082019050919050565b6000602082019050919050565b6000602082019050919050565b600082825260208201905092915050565b600082825260208201905092915050565b600082825260208201905092915050565b600082825260208201905092915050565b600082825260208201905092915050565b600081905092915050565b6000615cd682615cf3565b9050919050565b60008115159050919050565b6000819050919050565b600073ffffffffffffffffffffffffffffffffffffffff82169050919050565b6000819050919050565b600067ffffffffffffffff82169050919050565b6000615d3c82615d67565b9050919050565b6000615d4e82615d55565b9050919050565b6000615d6082615cf3565b9050919050565b6000615d7282615d79565b9050919050565b6000615d8482615cf3565b9050919050565b6000615d9682615d1d565b9050919050565b82818337600083830152505050565b60005b83811015615dca578082015181840152602081019050615daf565b83811115615dd9576000848401525b50505050565b6000819050919050565b6000601f19601f8301169050919050565b615e0381615ccb565b8114615e0e57600080fd5b50565b615e1a81615cdd565b8114615e2557600080fd5b50565b615e3181615d13565b8114615e3c57600080fd5b5056fea365627a7a723158202f9378d9b4223a3bf02fa8c2e2b98d961429e089a6e549e3cd73b22b6427d79d6c6578706572696d656e74616cf564736f6c63430005100040",
  "linkReferences": {
    "contracts/SafeDecimalMath.sol": {
      "SafeDecimalMath": [
        {
          "length": 20,
          "start": 31
        }
      ]
    }
  },
  "deployedLinkReferences": {}
}