{
  "_format": "hh-sol-artifact-1",
  "contractName": "ShortingRewards",
  "sourceName": "contracts/ShortingRewards.sol",
  "abi": [
    {
      "inputs": [
        {
          "internalType": "address",
          "name": "_owner",
          "type": "address"
        },
        {
          "internalType": "address",
          "name": "_resolver",
          "type": "address"
        },
        {
          "internalType": "address",
          "name": "_rewardsDistribution",
          "type": "address"
        },
        {
          "internalType": "address",
          "name": "_rewardsToken",
          "type": "address"
        },
        {
          "internalType": "address",
          "name": "_short",
          "type": "address"
        },
        {
          "internalType": "bytes32",
          "name": "_pynth",
          "type": "bytes32"
        }
      ],
      "payable": false,
      "stateMutability": "nonpayable",
      "type": "constructor"
    },
    {
      "anonymous": false,
      "inputs": [
        {
          "indexed": false,
          "internalType": "bytes32",
          "name": "name",
          "type": "bytes32"
        },
        {
          "indexed": false,
          "internalType": "address",
          "name": "destination",
          "type": "address"
        }
      ],
      "name": "CacheUpdated",
      "type": "event"
    },
    {
      "anonymous": false,
      "inputs": [
        {
          "indexed": true,
          "internalType": "address",
          "name": "user",
          "type": "address"
        },
        {
          "indexed": false,
          "internalType": "uint256",
          "name": "amount",
          "type": "uint256"
        }
      ],
      "name": "Enrol",
      "type": "event"
    },
    {
      "anonymous": false,
      "inputs": [
        {
          "indexed": false,
          "internalType": "address",
          "name": "oldOwner",
          "type": "address"
        },
        {
          "indexed": false,
          "internalType": "address",
          "name": "newOwner",
          "type": "address"
        }
      ],
      "name": "OwnerChanged",
      "type": "event"
    },
    {
      "anonymous": false,
      "inputs": [
        {
          "indexed": false,
          "internalType": "address",
          "name": "newOwner",
          "type": "address"
        }
      ],
      "name": "OwnerNominated",
      "type": "event"
    },
    {
      "anonymous": false,
      "inputs": [
        {
          "indexed": false,
          "internalType": "bool",
          "name": "isPaused",
          "type": "bool"
        }
      ],
      "name": "PauseChanged",
      "type": "event"
    },
    {
      "anonymous": false,
      "inputs": [
        {
          "indexed": false,
          "internalType": "address",
          "name": "token",
          "type": "address"
        },
        {
          "indexed": false,
          "internalType": "uint256",
          "name": "amount",
          "type": "uint256"
        }
      ],
      "name": "Recovered",
      "type": "event"
    },
    {
      "anonymous": false,
      "inputs": [
        {
          "indexed": false,
          "internalType": "uint256",
          "name": "reward",
          "type": "uint256"
        }
      ],
      "name": "RewardAdded",
      "type": "event"
    },
    {
      "anonymous": false,
      "inputs": [
        {
          "indexed": true,
          "internalType": "address",
          "name": "user",
          "type": "address"
        },
        {
          "indexed": false,
          "internalType": "uint256",
          "name": "reward",
          "type": "uint256"
        }
      ],
      "name": "RewardPaid",
      "type": "event"
    },
    {
      "anonymous": false,
      "inputs": [
        {
          "indexed": false,
          "internalType": "uint256",
          "name": "newDuration",
          "type": "uint256"
        }
      ],
      "name": "RewardsDurationUpdated",
      "type": "event"
    },
    {
      "anonymous": false,
      "inputs": [
        {
          "indexed": true,
          "internalType": "address",
          "name": "user",
          "type": "address"
        },
        {
          "indexed": false,
          "internalType": "uint256",
          "name": "amount",
          "type": "uint256"
        }
      ],
      "name": "Withdrawn",
      "type": "event"
    },
    {
      "constant": false,
      "inputs": [],
      "name": "acceptOwnership",
      "outputs": [],
      "payable": false,
      "stateMutability": "nonpayable",
      "type": "function"
    },
    {
      "constant": true,
      "inputs": [
        {
          "internalType": "address",
          "name": "account",
          "type": "address"
        }
      ],
      "name": "balanceOf",
      "outputs": [
        {
          "internalType": "uint256",
          "name": "",
          "type": "uint256"
        }
      ],
      "payable": false,
      "stateMutability": "view",
      "type": "function"
    },
    {
      "constant": true,
      "inputs": [
        {
          "internalType": "address",
          "name": "account",
          "type": "address"
        }
      ],
      "name": "earned",
      "outputs": [
        {
          "internalType": "uint256",
          "name": "",
          "type": "uint256"
        }
      ],
      "payable": false,
      "stateMutability": "view",
      "type": "function"
    },
    {
      "constant": false,
      "inputs": [
        {
          "internalType": "address",
          "name": "account",
          "type": "address"
        },
        {
          "internalType": "uint256",
          "name": "amount",
          "type": "uint256"
        }
      ],
      "name": "enrol",
      "outputs": [],
      "payable": false,
      "stateMutability": "nonpayable",
      "type": "function"
    },
    {
      "constant": false,
      "inputs": [
        {
          "internalType": "address",
          "name": "account",
          "type": "address"
        }
      ],
      "name": "exit",
      "outputs": [],
      "payable": false,
      "stateMutability": "nonpayable",
      "type": "function"
    },
    {
      "constant": false,
      "inputs": [
        {
          "internalType": "address",
          "name": "account",
          "type": "address"
        }
      ],
      "name": "getReward",
      "outputs": [],
      "payable": false,
      "stateMutability": "nonpayable",
      "type": "function"
    },
    {
      "constant": true,
      "inputs": [],
      "name": "getRewardForDuration",
      "outputs": [
        {
          "internalType": "uint256",
          "name": "",
          "type": "uint256"
        }
      ],
      "payable": false,
      "stateMutability": "view",
      "type": "function"
    },
    {
      "constant": true,
      "inputs": [],
      "name": "isResolverCached",
      "outputs": [
        {
          "internalType": "bool",
          "name": "",
          "type": "bool"
        }
      ],
      "payable": false,
      "stateMutability": "view",
      "type": "function"
    },
    {
      "constant": true,
      "inputs": [],
      "name": "lastPauseTime",
      "outputs": [
        {
          "internalType": "uint256",
          "name": "",
          "type": "uint256"
        }
      ],
      "payable": false,
      "stateMutability": "view",
      "type": "function"
    },
    {
      "constant": true,
      "inputs": [],
      "name": "lastTimeRewardApplicable",
      "outputs": [
        {
          "internalType": "uint256",
          "name": "",
          "type": "uint256"
        }
      ],
      "payable": false,
      "stateMutability": "view",
      "type": "function"
    },
    {
      "constant": true,
      "inputs": [],
      "name": "lastUpdateTime",
      "outputs": [
        {
          "internalType": "uint256",
          "name": "",
          "type": "uint256"
        }
      ],
      "payable": false,
      "stateMutability": "view",
      "type": "function"
    },
    {
      "constant": false,
      "inputs": [
        {
          "internalType": "address",
          "name": "_owner",
          "type": "address"
        }
      ],
      "name": "nominateNewOwner",
      "outputs": [],
      "payable": false,
      "stateMutability": "nonpayable",
      "type": "function"
    },
    {
      "constant": true,
      "inputs": [],
      "name": "nominatedOwner",
      "outputs": [
        {
          "internalType": "address",
          "name": "",
          "type": "address"
        }
      ],
      "payable": false,
      "stateMutability": "view",
      "type": "function"
    },
    {
      "constant": false,
      "inputs": [
        {
          "internalType": "uint256",
          "name": "reward",
          "type": "uint256"
        }
      ],
      "name": "notifyRewardAmount",
      "outputs": [],
      "payable": false,
      "stateMutability": "nonpayable",
      "type": "function"
    },
    {
      "constant": true,
      "inputs": [],
      "name": "owner",
      "outputs": [
        {
          "internalType": "address",
          "name": "",
          "type": "address"
        }
      ],
      "payable": false,
      "stateMutability": "view",
      "type": "function"
    },
    {
      "constant": true,
      "inputs": [],
      "name": "paused",
      "outputs": [
        {
          "internalType": "bool",
          "name": "",
          "type": "bool"
        }
      ],
      "payable": false,
      "stateMutability": "view",
      "type": "function"
    },
    {
      "constant": true,
      "inputs": [],
      "name": "periodFinish",
      "outputs": [
        {
          "internalType": "uint256",
          "name": "",
          "type": "uint256"
        }
      ],
      "payable": false,
      "stateMutability": "view",
      "type": "function"
    },
    {
      "constant": true,
      "inputs": [],
      "name": "pynth",
      "outputs": [
        {
          "internalType": "bytes32",
          "name": "",
          "type": "bytes32"
        }
      ],
      "payable": false,
      "stateMutability": "view",
      "type": "function"
    },
    {
      "constant": false,
      "inputs": [],
      "name": "rebuildCache",
      "outputs": [],
      "payable": false,
      "stateMutability": "nonpayable",
      "type": "function"
    },
    {
      "constant": true,
      "inputs": [],
      "name": "resolver",
      "outputs": [
        {
          "internalType": "contract AddressResolver",
          "name": "",
          "type": "address"
        }
      ],
      "payable": false,
      "stateMutability": "view",
      "type": "function"
    },
    {
      "constant": true,
      "inputs": [],
      "name": "resolverAddressesRequired",
      "outputs": [
        {
          "internalType": "bytes32[]",
          "name": "addresses",
          "type": "bytes32[]"
        }
      ],
      "payable": false,
      "stateMutability": "view",
      "type": "function"
    },
    {
      "constant": true,
      "inputs": [],
      "name": "rewardPerToken",
      "outputs": [
        {
          "internalType": "uint256",
          "name": "",
          "type": "uint256"
        }
      ],
      "payable": false,
      "stateMutability": "view",
      "type": "function"
    },
    {
      "constant": true,
      "inputs": [],
      "name": "rewardPerTokenStored",
      "outputs": [
        {
          "internalType": "uint256",
          "name": "",
          "type": "uint256"
        }
      ],
      "payable": false,
      "stateMutability": "view",
      "type": "function"
    },
    {
      "constant": true,
      "inputs": [],
      "name": "rewardRate",
      "outputs": [
        {
          "internalType": "uint256",
          "name": "",
          "type": "uint256"
        }
      ],
      "payable": false,
      "stateMutability": "view",
      "type": "function"
    },
    {
      "constant": true,
      "inputs": [
        {
          "internalType": "address",
          "name": "",
          "type": "address"
        }
      ],
      "name": "rewards",
      "outputs": [
        {
          "internalType": "uint256",
          "name": "",
          "type": "uint256"
        }
      ],
      "payable": false,
      "stateMutability": "view",
      "type": "function"
    },
    {
      "constant": true,
      "inputs": [],
      "name": "rewardsDistribution",
      "outputs": [
        {
          "internalType": "address",
          "name": "",
          "type": "address"
        }
      ],
      "payable": false,
      "stateMutability": "view",
      "type": "function"
    },
    {
      "constant": true,
      "inputs": [],
      "name": "rewardsDuration",
      "outputs": [
        {
          "internalType": "uint256",
          "name": "",
          "type": "uint256"
        }
      ],
      "payable": false,
      "stateMutability": "view",
      "type": "function"
    },
    {
      "constant": true,
      "inputs": [],
      "name": "rewardsToken",
      "outputs": [
        {
          "internalType": "contract IERC20",
          "name": "",
          "type": "address"
        }
      ],
      "payable": false,
      "stateMutability": "view",
      "type": "function"
    },
    {
      "constant": false,
      "inputs": [
        {
          "internalType": "bool",
          "name": "_paused",
          "type": "bool"
        }
      ],
      "name": "setPaused",
      "outputs": [],
      "payable": false,
      "stateMutability": "nonpayable",
      "type": "function"
    },
    {
      "constant": false,
      "inputs": [
        {
          "internalType": "address",
          "name": "_rewardsDistribution",
          "type": "address"
        }
      ],
      "name": "setRewardsDistribution",
      "outputs": [],
      "payable": false,
      "stateMutability": "nonpayable",
      "type": "function"
    },
    {
      "constant": false,
      "inputs": [
        {
          "internalType": "uint256",
          "name": "_rewardsDuration",
          "type": "uint256"
        }
      ],
      "name": "setRewardsDuration",
      "outputs": [],
      "payable": false,
      "stateMutability": "nonpayable",
      "type": "function"
    },
    {
      "constant": true,
      "inputs": [],
      "name": "short",
      "outputs": [
        {
          "internalType": "contract ICollateralErc20",
          "name": "",
          "type": "address"
        }
      ],
      "payable": false,
      "stateMutability": "view",
      "type": "function"
    },
    {
      "constant": true,
      "inputs": [],
      "name": "totalSupply",
      "outputs": [
        {
          "internalType": "uint256",
          "name": "",
          "type": "uint256"
        }
      ],
      "payable": false,
      "stateMutability": "view",
      "type": "function"
    },
    {
      "constant": true,
      "inputs": [
        {
          "internalType": "address",
          "name": "",
          "type": "address"
        }
      ],
      "name": "userRewardPerTokenPaid",
      "outputs": [
        {
          "internalType": "uint256",
          "name": "",
          "type": "uint256"
        }
      ],
      "payable": false,
      "stateMutability": "view",
      "type": "function"
    },
    {
      "constant": false,
      "inputs": [
        {
          "internalType": "address",
          "name": "account",
          "type": "address"
        },
        {
          "internalType": "uint256",
          "name": "amount",
          "type": "uint256"
        }
      ],
      "name": "withdraw",
      "outputs": [],
      "payable": false,
      "stateMutability": "nonpayable",
      "type": "function"
    }
  ],
  "bytecode": "0x60806040526000600a556000600b5562093a80600c553480156200002257600080fd5b50604051620037663803806200376683398181016040526200004891908101906200031c565b8486600073ffffffffffffffffffffffffffffffffffffffff168173ffffffffffffffffffffffffffffffffffffffff161415620000bd576040517f08c379a0000000000000000000000000000000000000000000000000000000008152600401620000b490620004a7565b60405180910390fd5b806000806101000a81548173ffffffffffffffffffffffffffffffffffffffff021916908373ffffffffffffffffffffffffffffffffffffffff1602179055507fb532073b38c83145e3e5135377a08bf9aab55bc0fd7c1179cd4fb995d2a5159c6000826040516200013192919062000458565b60405180910390a1506001600381905550600073ffffffffffffffffffffffffffffffffffffffff166000809054906101000a900473ffffffffffffffffffffffffffffffffffffffff1673ffffffffffffffffffffffffffffffffffffffff161415620001d6576040517f08c379a0000000000000000000000000000000000000000000000000000000008152600401620001cd9062000485565b60405180910390fd5b80600560016101000a81548173ffffffffffffffffffffffffffffffffffffffff021916908373ffffffffffffffffffffffffffffffffffffffff1602179055505082600760006101000a81548173ffffffffffffffffffffffffffffffffffffffff021916908373ffffffffffffffffffffffffffffffffffffffff16021790555081600860006101000a81548173ffffffffffffffffffffffffffffffffffffffff021916908373ffffffffffffffffffffffffffffffffffffffff16021790555083600260006101000a81548173ffffffffffffffffffffffffffffffffffffffff021916908373ffffffffffffffffffffffffffffffffffffffff1602179055508060098190555050505050505062000588565b600081519050620002ff8162000554565b92915050565b60008151905062000316816200056e565b92915050565b60008060008060008060c087890312156200033657600080fd5b60006200034689828a01620002ee565b96505060206200035989828a01620002ee565b95505060406200036c89828a01620002ee565b94505060606200037f89828a01620002ee565b93505060806200039289828a01620002ee565b92505060a0620003a589828a0162000305565b9150509295509295509295565b620003bd8162000518565b82525050565b620003ce81620004da565b82525050565b6000620003e3601183620004c9565b91507f4f776e6572206d757374206265207365740000000000000000000000000000006000830152602082019050919050565b600062000425601983620004c9565b91507f4f776e657220616464726573732063616e6e6f742062652030000000000000006000830152602082019050919050565b60006040820190506200046f6000830185620003b2565b6200047e6020830184620003c3565b9392505050565b60006020820190508181036000830152620004a081620003d4565b9050919050565b60006020820190508181036000830152620004c28162000416565b9050919050565b600082825260208201905092915050565b6000620004e782620004f8565b9050919050565b6000819050919050565b600073ffffffffffffffffffffffffffffffffffffffff82169050919050565b600062000525826200052c565b9050919050565b6000620005398262000540565b9050919050565b60006200054d82620004f8565b9050919050565b6200055f81620004da565b81146200056b57600080fd5b50565b6200057981620004ee565b81146200058557600080fd5b50565b6131ce80620005986000396000f3fe608060405234801561001057600080fd5b50600436106102105760003560e01c80637418536011610125578063c00007b0116100ad578063d1af0c7d1161007c578063d1af0c7d146105ab578063db454a51146105c9578063df136d65146105e5578063ebe2b12b14610603578063f3fef3a31461062157610210565b8063c00007b014610537578063c8f33c9114610553578063cc1a378f14610571578063cd3daf9d1461058d57610210565b8063899ffef4116100f4578063899ffef4146104915780638b876347146104af5780638da5cb5b146104df57806391b4ded9146104fd578063b42652e91461051b57610210565b8063741853601461044157806379ba50971461044b5780637b0a47ee1461045557806380faa57d1461047357610210565b80631d0cbc8b116101a85780633c6b16ab116101775780633c6b16ab1461039b5780633fc6df6e146103b757806353a47bb7146103d55780635c975abb146103f357806370a082311461041157610210565b80631d0cbc8b146103235780632af64bd314610341578063386a95251461035f57806338bea4cb1461037d57610210565b806316c38b3c116101e457806316c38b3c146102af57806318160ddd146102cb57806319762143146102e95780631c1f78eb1461030557610210565b80628cc2621461021557806304f3bcec146102455780630700037d146102635780631627540c14610293575b600080fd5b61022f600480360361022a9190810190612364565b61063d565b60405161023c9190612fa9565b60405180910390f35b61024d61075b565b60405161025a9190612d36565b60405180910390f35b61027d60048036036102789190810190612364565b610781565b60405161028a9190612fa9565b60405180910390f35b6102ad60048036036102a89190810190612364565b610799565b005b6102c960048036036102c491908101906123f2565b61081c565b005b6102d36108c5565b6040516102e09190612fa9565b60405180910390f35b61030360048036036102fe9190810190612364565b6108cf565b005b61030d61091b565b60405161031a9190612fa9565b60405180910390f35b61032b610939565b6040516103389190612cc2565b60405180910390f35b61034961093f565b6040516103569190612ca7565b60405180910390f35b610367610b14565b6040516103749190612fa9565b60405180910390f35b610385610b1a565b6040516103929190612d51565b60405180910390f35b6103b560048036036103b09190810190612444565b610b40565b005b6103bf610ea6565b6040516103cc9190612c18565b60405180910390f35b6103dd610ecc565b6040516103ea9190612c18565b60405180910390f35b6103fb610ef2565b6040516104089190612ca7565b60405180910390f35b61042b60048036036104269190810190612364565b610f05565b6040516104389190612fa9565b60405180910390f35b610449610f4e565b005b6104536110ef565b005b61045d6112a1565b60405161046a9190612fa9565b60405180910390f35b61047b6112a7565b6040516104889190612fa9565b60405180910390f35b6104996112ba565b6040516104a69190612c85565b60405180910390f35b6104c960048036036104c49190810190612364565b61132c565b6040516104d69190612fa9565b60405180910390f35b6104e7611344565b6040516104f49190612c18565b60405180910390f35b610505611369565b6040516105129190612fa9565b60405180910390f35b61053560048036036105309190810190612364565b61136f565b005b610551600480360361054c9190810190612364565b6113ff565b005b61055b611673565b6040516105689190612fa9565b60405180910390f35b61058b60048036036105869190810190612444565b611679565b005b610595611708565b6040516105a29190612fa9565b60405180910390f35b6105b3611796565b6040516105c09190612d6c565b60405180910390f35b6105e360048036036105de91908101906123b6565b6117bc565b005b6105ed611ace565b6040516105fa9190612fa9565b60405180910390f35b61060b611ad4565b6040516106189190612fa9565b60405180910390f35b61063b600480360361063691908101906123b6565b611ada565b005b6000610754601060008473ffffffffffffffffffffffffffffffffffffffff1673ffffffffffffffffffffffffffffffffffffffff16815260200190815260200160002054610746670de0b6b3a76400006107386106ea600f60008973ffffffffffffffffffffffffffffffffffffffff1673ffffffffffffffffffffffffffffffffffffffff168152602001908152602001600020546106dc611708565b611d9c90919063ffffffff16565b601260008973ffffffffffffffffffffffffffffffffffffffff1673ffffffffffffffffffffffffffffffffffffffff16815260200190815260200160002054611df290919063ffffffff16565b611e6290919063ffffffff16565b611ebe90919063ffffffff16565b9050919050565b600560019054906101000a900473ffffffffffffffffffffffffffffffffffffffff1681565b60106020528060005260406000206000915090505481565b6107a1611f13565b80600160006101000a81548173ffffffffffffffffffffffffffffffffffffffff021916908373ffffffffffffffffffffffffffffffffffffffff1602179055507f906a1c6bd7e3091ea86693dd029a831c19049ce77f1dce2ce0bab1cacbabce22816040516108119190612c18565b60405180910390a150565b610824611f13565b600560009054906101000a900460ff1615158115151415610844576108c2565b80600560006101000a81548160ff021916908315150217905550600560009054906101000a900460ff161561087b57426004819055505b7f8fb6c181ee25a520cf3dd6565006ef91229fcfe5a989566c2a3b8c115570cec5600560009054906101000a900460ff166040516108b99190612ca7565b60405180910390a15b50565b6000601154905090565b6108d7611f13565b80600260006101000a81548173ffffffffffffffffffffffffffffffffffffffff021916908373ffffffffffffffffffffffffffffffffffffffff16021790555050565b6000610934600c54600b54611df290919063ffffffff16565b905090565b60095481565b6000606061094b6112ba565b905060008090505b8151811015610b0a57600082828151811061096a57fe5b602002602001015190506006600082815260200190815260200160002060009054906101000a900473ffffffffffffffffffffffffffffffffffffffff1673ffffffffffffffffffffffffffffffffffffffff16600560019054906101000a900473ffffffffffffffffffffffffffffffffffffffff1673ffffffffffffffffffffffffffffffffffffffff166321f8a721836040518263ffffffff1660e01b8152600401610a199190612cc2565b60206040518083038186803b158015610a3157600080fd5b505afa158015610a45573d6000803e3d6000fd5b505050506040513d601f19601f82011682018060405250610a69919081019061238d565b73ffffffffffffffffffffffffffffffffffffffff16141580610aeb5750600073ffffffffffffffffffffffffffffffffffffffff166006600083815260200190815260200160002060009054906101000a900473ffffffffffffffffffffffffffffffffffffffff1673ffffffffffffffffffffffffffffffffffffffff16145b15610afc5760009350505050610b11565b508080600101915050610953565b5060019150505b90565b600c5481565b600860009054906101000a900473ffffffffffffffffffffffffffffffffffffffff1681565b600260009054906101000a900473ffffffffffffffffffffffffffffffffffffffff1673ffffffffffffffffffffffffffffffffffffffff163373ffffffffffffffffffffffffffffffffffffffff1614610bd0576040517f08c379a0000000000000000000000000000000000000000000000000000000008152600401610bc790612f29565b60405180910390fd5b6000610bda611708565b600e81905550610be86112a7565b600d81905550600073ffffffffffffffffffffffffffffffffffffffff168173ffffffffffffffffffffffffffffffffffffffff1614610cb557610c2b8161063d565b601060008373ffffffffffffffffffffffffffffffffffffffff1673ffffffffffffffffffffffffffffffffffffffff16815260200190815260200160002081905550600e54600f60008373ffffffffffffffffffffffffffffffffffffffff1673ffffffffffffffffffffffffffffffffffffffff168152602001908152602001600020819055505b600a544210610cde57610cd3600c5483611e6290919063ffffffff16565b600b81905550610d40565b6000610cf542600a54611d9c90919063ffffffff16565b90506000610d0e600b5483611df290919063ffffffff16565b9050610d37600c54610d298387611ebe90919063ffffffff16565b611e6290919063ffffffff16565b600b8190555050505b6000600760009054906101000a900473ffffffffffffffffffffffffffffffffffffffff1673ffffffffffffffffffffffffffffffffffffffff166370a08231306040518263ffffffff1660e01b8152600401610d9d9190612c18565b60206040518083038186803b158015610db557600080fd5b505afa158015610dc9573d6000803e3d6000fd5b505050506040513d601f19601f82011682018060405250610ded919081019061246d565b9050610e04600c5482611e6290919063ffffffff16565b600b541115610e48576040517f08c379a0000000000000000000000000000000000000000000000000000000008152600401610e3f90612ee9565b60405180910390fd5b42600d81905550610e64600c5442611ebe90919063ffffffff16565b600a819055507fde88a922e0d3b88b24e9623efeb464919c6bf9f66857a65e2bfcf2ce87a9433d83604051610e999190612fa9565b60405180910390a1505050565b600260009054906101000a900473ffffffffffffffffffffffffffffffffffffffff1681565b600160009054906101000a900473ffffffffffffffffffffffffffffffffffffffff1681565b600560009054906101000a900460ff1681565b6000601260008373ffffffffffffffffffffffffffffffffffffffff1673ffffffffffffffffffffffffffffffffffffffff168152602001908152602001600020549050919050565b6060610f586112ba565b905060008090505b81518110156110eb576000828281518110610f7757fe5b602002602001015190506000600560019054906101000a900473ffffffffffffffffffffffffffffffffffffffff1673ffffffffffffffffffffffffffffffffffffffff1663dacb2d018384604051602001610fd39190612bf2565b6040516020818303038152906040526040518363ffffffff1660e01b8152600401610fff929190612d06565b60206040518083038186803b15801561101757600080fd5b505afa15801561102b573d6000803e3d6000fd5b505050506040513d601f19601f8201168201806040525061104f919081019061238d565b9050806006600084815260200190815260200160002060006101000a81548173ffffffffffffffffffffffffffffffffffffffff021916908373ffffffffffffffffffffffffffffffffffffffff1602179055507f88a93678a3692f6789d9546fc621bf7234b101ddb7d4fe479455112831b8aa6882826040516110d4929190612cdd565b60405180910390a150508080600101915050610f60565b5050565b600160009054906101000a900473ffffffffffffffffffffffffffffffffffffffff1673ffffffffffffffffffffffffffffffffffffffff163373ffffffffffffffffffffffffffffffffffffffff161461117f576040517f08c379a000000000000000000000000000000000000000000000000000000000815260040161117690612dc9565b60405180910390fd5b7fb532073b38c83145e3e5135377a08bf9aab55bc0fd7c1179cd4fb995d2a5159c6000809054906101000a900473ffffffffffffffffffffffffffffffffffffffff16600160009054906101000a900473ffffffffffffffffffffffffffffffffffffffff166040516111f3929190612c33565b60405180910390a1600160009054906101000a900473ffffffffffffffffffffffffffffffffffffffff166000806101000a81548173ffffffffffffffffffffffffffffffffffffffff021916908373ffffffffffffffffffffffffffffffffffffffff1602179055506000600160006101000a81548173ffffffffffffffffffffffffffffffffffffffff021916908373ffffffffffffffffffffffffffffffffffffffff160217905550565b600b5481565b60006112b542600a54611fa4565b905090565b606060016040519080825280602002602001820160405280156112ec5781602001602082028038833980820191505090505b5090507f436f6c6c61746572616c53686f727400000000000000000000000000000000008160008151811061131d57fe5b60200260200101818152505090565b600f6020528060005260406000206000915090505481565b6000809054906101000a900473ffffffffffffffffffffffffffffffffffffffff1681565b60045481565b6000611379611fbd565b73ffffffffffffffffffffffffffffffffffffffff163373ffffffffffffffffffffffffffffffffffffffff161490506113f282601260008573ffffffffffffffffffffffffffffffffffffffff1673ffffffffffffffffffffffffffffffffffffffff16815260200190815260200160002054611ada565b6113fb826113ff565b5050565b60016003600082825401925050819055506000600354905081611420611708565b600e8190555061142e6112a7565b600d81905550600073ffffffffffffffffffffffffffffffffffffffff168173ffffffffffffffffffffffffffffffffffffffff16146114fb576114718161063d565b601060008373ffffffffffffffffffffffffffffffffffffffff1673ffffffffffffffffffffffffffffffffffffffff16815260200190815260200160002081905550600e54600f60008373ffffffffffffffffffffffffffffffffffffffff1673ffffffffffffffffffffffffffffffffffffffff168152602001908152602001600020819055505b6000601060008573ffffffffffffffffffffffffffffffffffffffff1673ffffffffffffffffffffffffffffffffffffffff1681526020019081526020016000205490506000811115611629576000601060008673ffffffffffffffffffffffffffffffffffffffff1673ffffffffffffffffffffffffffffffffffffffff168152602001908152602001600020819055506115da8482600760009054906101000a900473ffffffffffffffffffffffffffffffffffffffff1673ffffffffffffffffffffffffffffffffffffffff16611fed9092919063ffffffff16565b8373ffffffffffffffffffffffffffffffffffffffff167fe2403640ba68fed3a2f88b7557551d1993f84b99bb10ff833f0cf8db0c5e0486826040516116209190612fa9565b60405180910390a25b5050600354811461166f576040517f08c379a000000000000000000000000000000000000000000000000000000000815260040161166690612f69565b60405180910390fd5b5050565b600d5481565b611681611f13565b600a5442116116c5576040517f08c379a00000000000000000000000000000000000000000000000000000000081526004016116bc90612da9565b60405180910390fd5b80600c819055507ffb46ca5a5e06d4540d6387b930a7c978bce0db5f449ec6b3f5d07c6e1d44f2d3600c546040516116fd9190612fa9565b60405180910390a150565b600080601154141561171e57600e549050611793565b61179061177f601154611771670de0b6b3a7640000611763600b54611755600d546117476112a7565b611d9c90919063ffffffff16565b611df290919063ffffffff16565b611df290919063ffffffff16565b611e6290919063ffffffff16565b600e54611ebe90919063ffffffff16565b90505b90565b600760009054906101000a900473ffffffffffffffffffffffffffffffffffffffff1681565b60006117c6611fbd565b73ffffffffffffffffffffffffffffffffffffffff163373ffffffffffffffffffffffffffffffffffffffff16149050600160036000828254019250508190555060006003549050600560009054906101000a900460ff161561185e576040517f08c379a000000000000000000000000000000000000000000000000000000000815260040161185590612f09565b60405180910390fd5b83611867611708565b600e819055506118756112a7565b600d81905550600073ffffffffffffffffffffffffffffffffffffffff168173ffffffffffffffffffffffffffffffffffffffff1614611942576118b88161063d565b601060008373ffffffffffffffffffffffffffffffffffffffff1673ffffffffffffffffffffffffffffffffffffffff16815260200190815260200160002081905550600e54600f60008373ffffffffffffffffffffffffffffffffffffffff1673ffffffffffffffffffffffffffffffffffffffff168152602001908152602001600020819055505b60008411611985576040517f08c379a000000000000000000000000000000000000000000000000000000000815260040161197c90612de9565b60405180910390fd5b61199a84601154611ebe90919063ffffffff16565b6011819055506119f284601260008873ffffffffffffffffffffffffffffffffffffffff1673ffffffffffffffffffffffffffffffffffffffff16815260200190815260200160002054611ebe90919063ffffffff16565b601260008773ffffffffffffffffffffffffffffffffffffffff1673ffffffffffffffffffffffffffffffffffffffff168152602001908152602001600020819055508473ffffffffffffffffffffffffffffffffffffffff167fc3d87d134210f5b3ee2418004c5f887bf335f79829d32e72ba5f282baccc859185604051611a7b9190612fa9565b60405180910390a2506003548114611ac8576040517f08c379a0000000000000000000000000000000000000000000000000000000008152600401611abf90612f69565b60405180910390fd5b50505050565b600e5481565b600a5481565b6000611ae4611fbd565b73ffffffffffffffffffffffffffffffffffffffff163373ffffffffffffffffffffffffffffffffffffffff1614905060016003600082825401925050819055506000600354905083611b35611708565b600e81905550611b436112a7565b600d81905550600073ffffffffffffffffffffffffffffffffffffffff168173ffffffffffffffffffffffffffffffffffffffff1614611c1057611b868161063d565b601060008373ffffffffffffffffffffffffffffffffffffffff1673ffffffffffffffffffffffffffffffffffffffff16815260200190815260200160002081905550600e54600f60008373ffffffffffffffffffffffffffffffffffffffff1673ffffffffffffffffffffffffffffffffffffffff168152602001908152602001600020819055505b60008411611c53576040517f08c379a0000000000000000000000000000000000000000000000000000000008152600401611c4a90612ea9565b60405180910390fd5b611c6884601154611d9c90919063ffffffff16565b601181905550611cc084601260008873ffffffffffffffffffffffffffffffffffffffff1673ffffffffffffffffffffffffffffffffffffffff16815260200190815260200160002054611d9c90919063ffffffff16565b601260008773ffffffffffffffffffffffffffffffffffffffff1673ffffffffffffffffffffffffffffffffffffffff168152602001908152602001600020819055508473ffffffffffffffffffffffffffffffffffffffff167f7084f5476618d8e60b11ef0d7d3f06914655adb8793e28ff7f018d4c76d505d585604051611d499190612fa9565b60405180910390a2506003548114611d96576040517f08c379a0000000000000000000000000000000000000000000000000000000008152600401611d8d90612f69565b60405180910390fd5b50505050565b600082821115611de1576040517f08c379a0000000000000000000000000000000000000000000000000000000008152600401611dd890612e49565b60405180910390fd5b600082840390508091505092915050565b600080831415611e055760009050611e5c565b6000828402905082848281611e1657fe5b0414611e57576040517f08c379a0000000000000000000000000000000000000000000000000000000008152600401611e4e90612ec9565b60405180910390fd5b809150505b92915050565b6000808211611ea6576040517f08c379a0000000000000000000000000000000000000000000000000000000008152600401611e9d90612e69565b60405180910390fd5b6000828481611eb157fe5b0490508091505092915050565b600080828401905083811015611f09576040517f08c379a0000000000000000000000000000000000000000000000000000000008152600401611f0090612e09565b60405180910390fd5b8091505092915050565b6000809054906101000a900473ffffffffffffffffffffffffffffffffffffffff1673ffffffffffffffffffffffffffffffffffffffff163373ffffffffffffffffffffffffffffffffffffffff1614611fa2576040517f08c379a0000000000000000000000000000000000000000000000000000000008152600401611f9990612e89565b60405180910390fd5b565b6000818310611fb35781611fb5565b825b905092915050565b6000611fe87f436f6c6c61746572616c53686f7274000000000000000000000000000000000061208c565b905090565b612087838473ffffffffffffffffffffffffffffffffffffffff1663a9059cbb905060e01b8484604051602401612025929190612c5c565b604051602081830303815290604052907bffffffffffffffffffffffffffffffffffffffffffffffffffffffff19166020820180517bffffffffffffffffffffffffffffffffffffffffffffffffffffffff8381831617835250505050612161565b505050565b6000806006600084815260200190815260200160002060009054906101000a900473ffffffffffffffffffffffffffffffffffffffff169050600073ffffffffffffffffffffffffffffffffffffffff168173ffffffffffffffffffffffffffffffffffffffff161415836040516020016121079190612bcc565b60405160208183030381529060405290612157576040517f08c379a000000000000000000000000000000000000000000000000000000000815260040161214e9190612d87565b60405180910390fd5b5080915050919050565b6121808273ffffffffffffffffffffffffffffffffffffffff166122d3565b6121bf576040517f08c379a00000000000000000000000000000000000000000000000000000000081526004016121b690612f89565b60405180910390fd5b600060608373ffffffffffffffffffffffffffffffffffffffff16836040516121e89190612bb5565b6000604051808303816000865af19150503d8060008114612225576040519150601f19603f3d011682016040523d82523d6000602084013e61222a565b606091505b50915091508161226f576040517f08c379a000000000000000000000000000000000000000000000000000000000815260040161226690612e29565b60405180910390fd5b6000815111156122cd578080602001905161228d919081019061241b565b6122cc576040517f08c379a00000000000000000000000000000000000000000000000000000000081526004016122c390612f49565b60405180910390fd5b5b50505050565b600080823b905060008111915050919050565b6000813590506122f581613146565b92915050565b60008151905061230a81613146565b92915050565b60008135905061231f8161315d565b92915050565b6000815190506123348161315d565b92915050565b60008135905061234981613174565b92915050565b60008151905061235e81613174565b92915050565b60006020828403121561237657600080fd5b6000612384848285016122e6565b91505092915050565b60006020828403121561239f57600080fd5b60006123ad848285016122fb565b91505092915050565b600080604083850312156123c957600080fd5b60006123d7858286016122e6565b92505060206123e88582860161233a565b9150509250929050565b60006020828403121561240457600080fd5b600061241284828501612310565b91505092915050565b60006020828403121561242d57600080fd5b600061243b84828501612325565b91505092915050565b60006020828403121561245657600080fd5b60006124648482850161233a565b91505092915050565b60006020828403121561247f57600080fd5b600061248d8482850161234f565b91505092915050565b60006124a2838361252a565b60208301905092915050565b6124b78161303a565b82525050565b60006124c882612fd4565b6124d28185613002565b93506124dd83612fc4565b8060005b8381101561250e5781516124f58882612496565b975061250083612ff5565b9250506001810190506124e1565b5085935050505092915050565b6125248161304c565b82525050565b61253381613058565b82525050565b61254281613058565b82525050565b61255961255482613058565b61312b565b82525050565b600061256a82612fdf565b6125748185613013565b93506125848185602086016130f8565b80840191505092915050565b6125998161308c565b82525050565b6125a8816130b0565b82525050565b6125b7816130d4565b82525050565b60006125c882612fea565b6125d2818561301e565b93506125e28185602086016130f8565b6125eb81613135565b840191505092915050565b600061260360588361301e565b91507f50726576696f7573207265776172647320706572696f64206d7573742062652060008301527f636f6d706c657465206265666f7265206368616e67696e67207468652064757260208301527f6174696f6e20666f7220746865206e657720706572696f6400000000000000006040830152606082019050919050565b600061268f60358361301e565b91507f596f75206d757374206265206e6f6d696e61746564206265666f726520796f7560008301527f2063616e20616363657074206f776e65727368697000000000000000000000006020830152604082019050919050565b60006126f5600e8361301e565b91507f43616e6e6f74207374616b6520300000000000000000000000000000000000006000830152602082019050919050565b6000612735601b8361301e565b91507f536166654d6174683a206164646974696f6e206f766572666c6f7700000000006000830152602082019050919050565b600061277560208361301e565b91507f5361666545524332303a206c6f772d6c6576656c2063616c6c206661696c65646000830152602082019050919050565b60006127b5601e8361301e565b91507f536166654d6174683a207375627472616374696f6e206f766572666c6f7700006000830152602082019050919050565b60006127f5601a8361301e565b91507f536166654d6174683a206469766973696f6e206279207a65726f0000000000006000830152602082019050919050565b600061283560118361302f565b91507f4d697373696e6720616464726573733a200000000000000000000000000000006000830152601182019050919050565b6000612875602f8361301e565b91507f4f6e6c792074686520636f6e7472616374206f776e6572206d6179207065726660008301527f6f726d207468697320616374696f6e00000000000000000000000000000000006020830152604082019050919050565b60006128db60118361301e565b91507f43616e6e6f7420776974686472617720300000000000000000000000000000006000830152602082019050919050565b600061291b60218361301e565b91507f536166654d6174683a206d756c7469706c69636174696f6e206f766572666c6f60008301527f77000000000000000000000000000000000000000000000000000000000000006020830152604082019050919050565b600061298160188361301e565b91507f50726f76696465642072657761726420746f6f206869676800000000000000006000830152602082019050919050565b60006129c1603c8361301e565b91507f5468697320616374696f6e2063616e6e6f7420626520706572666f726d65642060008301527f7768696c652074686520636f6e747261637420697320706175736564000000006020830152604082019050919050565b6000612a2760198361302f565b91507f5265736f6c766572206d697373696e67207461726765743a20000000000000006000830152601982019050919050565b6000612a67602a8361301e565b91507f43616c6c6572206973206e6f742052657761726473446973747269627574696f60008301527f6e20636f6e7472616374000000000000000000000000000000000000000000006020830152604082019050919050565b6000612acd602a8361301e565b91507f5361666545524332303a204552433230206f7065726174696f6e20646964206e60008301527f6f742073756363656564000000000000000000000000000000000000000000006020830152604082019050919050565b6000612b33601f8361301e565b91507f5265656e7472616e637947756172643a207265656e7472616e742063616c6c006000830152602082019050919050565b6000612b73601f8361301e565b91507f5361666545524332303a2063616c6c20746f206e6f6e2d636f6e7472616374006000830152602082019050919050565b612baf81613082565b82525050565b6000612bc1828461255f565b915081905092915050565b6000612bd782612828565b9150612be38284612548565b60208201915081905092915050565b6000612bfd82612a1a565b9150612c098284612548565b60208201915081905092915050565b6000602082019050612c2d60008301846124ae565b92915050565b6000604082019050612c4860008301856124ae565b612c5560208301846124ae565b9392505050565b6000604082019050612c7160008301856124ae565b612c7e6020830184612ba6565b9392505050565b60006020820190508181036000830152612c9f81846124bd565b905092915050565b6000602082019050612cbc600083018461251b565b92915050565b6000602082019050612cd76000830184612539565b92915050565b6000604082019050612cf26000830185612539565b612cff60208301846124ae565b9392505050565b6000604082019050612d1b6000830185612539565b8181036020830152612d2d81846125bd565b90509392505050565b6000602082019050612d4b6000830184612590565b92915050565b6000602082019050612d66600083018461259f565b92915050565b6000602082019050612d8160008301846125ae565b92915050565b60006020820190508181036000830152612da181846125bd565b905092915050565b60006020820190508181036000830152612dc2816125f6565b9050919050565b60006020820190508181036000830152612de281612682565b9050919050565b60006020820190508181036000830152612e02816126e8565b9050919050565b60006020820190508181036000830152612e2281612728565b9050919050565b60006020820190508181036000830152612e4281612768565b9050919050565b60006020820190508181036000830152612e62816127a8565b9050919050565b60006020820190508181036000830152612e82816127e8565b9050919050565b60006020820190508181036000830152612ea281612868565b9050919050565b60006020820190508181036000830152612ec2816128ce565b9050919050565b60006020820190508181036000830152612ee28161290e565b9050919050565b60006020820190508181036000830152612f0281612974565b9050919050565b60006020820190508181036000830152612f22816129b4565b9050919050565b60006020820190508181036000830152612f4281612a5a565b9050919050565b60006020820190508181036000830152612f6281612ac0565b9050919050565b60006020820190508181036000830152612f8281612b26565b9050919050565b60006020820190508181036000830152612fa281612b66565b9050919050565b6000602082019050612fbe6000830184612ba6565b92915050565b6000819050602082019050919050565b600081519050919050565b600081519050919050565b600081519050919050565b6000602082019050919050565b600082825260208201905092915050565b600081905092915050565b600082825260208201905092915050565b600081905092915050565b600061304582613062565b9050919050565b60008115159050919050565b6000819050919050565b600073ffffffffffffffffffffffffffffffffffffffff82169050919050565b6000819050919050565b60006130978261309e565b9050919050565b60006130a982613062565b9050919050565b60006130bb826130c2565b9050919050565b60006130cd82613062565b9050919050565b60006130df826130e6565b9050919050565b60006130f182613062565b9050919050565b60005b838110156131165780820151818401526020810190506130fb565b83811115613125576000848401525b50505050565b6000819050919050565b6000601f19601f8301169050919050565b61314f8161303a565b811461315a57600080fd5b50565b6131668161304c565b811461317157600080fd5b50565b61317d81613082565b811461318857600080fd5b5056fea365627a7a72315820e5177041fd0f62baa4e9c13810c1f5306661fe9e76722f23028dad1d421ff2036c6578706572696d656e74616cf564736f6c63430005100040",
  "linkReferences": {},
  "deployedLinkReferences": {}
}