{
  "_format": "hh-sol-artifact-1",
  "contractName": "PeriFinBridgeToOptimism",
  "sourceName": "contracts/PeriFinBridgeToOptimism.sol",
  "abi": [
    {
      "inputs": [
        {
          "internalType": "address",
          "name": "_owner",
          "type": "address"
        },
        {
          "internalType": "address",
          "name": "_resolver",
          "type": "address"
        }
      ],
      "payable": false,
      "stateMutability": "nonpayable",
      "type": "constructor"
    },
    {
      "anonymous": false,
      "inputs": [
        {
          "indexed": false,
          "internalType": "address",
          "name": "oldBridge",
          "type": "address"
        },
        {
          "indexed": false,
          "internalType": "address",
          "name": "newBridge",
          "type": "address"
        },
        {
          "indexed": false,
          "internalType": "uint256",
          "name": "amount",
          "type": "uint256"
        }
      ],
      "name": "BridgeMigrated",
      "type": "event"
    },
    {
      "anonymous": false,
      "inputs": [
        {
          "indexed": false,
          "internalType": "bytes32",
          "name": "name",
          "type": "bytes32"
        },
        {
          "indexed": false,
          "internalType": "address",
          "name": "destination",
          "type": "address"
        }
      ],
      "name": "CacheUpdated",
      "type": "event"
    },
    {
      "anonymous": false,
      "inputs": [
        {
          "indexed": true,
          "internalType": "address",
          "name": "account",
          "type": "address"
        },
        {
          "indexed": false,
          "internalType": "uint256",
          "name": "amount",
          "type": "uint256"
        }
      ],
      "name": "Deposit",
      "type": "event"
    },
    {
      "anonymous": false,
      "inputs": [
        {
          "indexed": true,
          "internalType": "address",
          "name": "account",
          "type": "address"
        },
        {
          "indexed": false,
          "internalType": "uint256",
          "name": "escrowedAccountBalance",
          "type": "uint256"
        },
        {
          "components": [
            {
              "internalType": "uint64",
              "name": "endTime",
              "type": "uint64"
            },
            {
              "internalType": "uint256",
              "name": "escrowAmount",
              "type": "uint256"
            }
          ],
          "indexed": false,
          "internalType": "struct VestingEntries.VestingEntry[]",
          "name": "vestingEntries",
          "type": "tuple[]"
        }
      ],
      "name": "ExportedVestingEntries",
      "type": "event"
    },
    {
      "anonymous": false,
      "inputs": [
        {
          "indexed": false,
          "internalType": "address",
          "name": "oldOwner",
          "type": "address"
        },
        {
          "indexed": false,
          "internalType": "address",
          "name": "newOwner",
          "type": "address"
        }
      ],
      "name": "OwnerChanged",
      "type": "event"
    },
    {
      "anonymous": false,
      "inputs": [
        {
          "indexed": false,
          "internalType": "address",
          "name": "newOwner",
          "type": "address"
        }
      ],
      "name": "OwnerNominated",
      "type": "event"
    },
    {
      "anonymous": false,
      "inputs": [
        {
          "indexed": true,
          "internalType": "address",
          "name": "account",
          "type": "address"
        },
        {
          "indexed": false,
          "internalType": "uint256",
          "name": "amount",
          "type": "uint256"
        }
      ],
      "name": "RewardDeposit",
      "type": "event"
    },
    {
      "anonymous": false,
      "inputs": [
        {
          "indexed": true,
          "internalType": "address",
          "name": "account",
          "type": "address"
        },
        {
          "indexed": false,
          "internalType": "uint256",
          "name": "amount",
          "type": "uint256"
        }
      ],
      "name": "WithdrawalCompleted",
      "type": "event"
    },
    {
      "constant": false,
      "inputs": [],
      "name": "acceptOwnership",
      "outputs": [],
      "payable": false,
      "stateMutability": "nonpayable",
      "type": "function"
    },
    {
      "constant": true,
      "inputs": [],
      "name": "activated",
      "outputs": [
        {
          "internalType": "bool",
          "name": "",
          "type": "bool"
        }
      ],
      "payable": false,
      "stateMutability": "view",
      "type": "function"
    },
    {
      "constant": false,
      "inputs": [
        {
          "internalType": "address",
          "name": "account",
          "type": "address"
        },
        {
          "internalType": "uint256",
          "name": "amount",
          "type": "uint256"
        }
      ],
      "name": "completeWithdrawal",
      "outputs": [],
      "payable": false,
      "stateMutability": "nonpayable",
      "type": "function"
    },
    {
      "constant": false,
      "inputs": [
        {
          "internalType": "uint256",
          "name": "depositAmount",
          "type": "uint256"
        },
        {
          "internalType": "uint256[][]",
          "name": "entryIDs",
          "type": "uint256[][]"
        }
      ],
      "name": "depositAndMigrateEscrow",
      "outputs": [],
      "payable": false,
      "stateMutability": "nonpayable",
      "type": "function"
    },
    {
      "constant": false,
      "inputs": [
        {
          "internalType": "uint256",
          "name": "depositAmount",
          "type": "uint256"
        }
      ],
      "name": "initiateDeposit",
      "outputs": [],
      "payable": false,
      "stateMutability": "nonpayable",
      "type": "function"
    },
    {
      "constant": false,
      "inputs": [
        {
          "internalType": "uint256[][]",
          "name": "entryIDs",
          "type": "uint256[][]"
        }
      ],
      "name": "initiateEscrowMigration",
      "outputs": [],
      "payable": false,
      "stateMutability": "nonpayable",
      "type": "function"
    },
    {
      "constant": false,
      "inputs": [
        {
          "internalType": "uint256",
          "name": "amount",
          "type": "uint256"
        }
      ],
      "name": "initiateRewardDeposit",
      "outputs": [],
      "payable": false,
      "stateMutability": "nonpayable",
      "type": "function"
    },
    {
      "constant": true,
      "inputs": [],
      "name": "isResolverCached",
      "outputs": [
        {
          "internalType": "bool",
          "name": "",
          "type": "bool"
        }
      ],
      "payable": false,
      "stateMutability": "view",
      "type": "function"
    },
    {
      "constant": false,
      "inputs": [
        {
          "internalType": "address",
          "name": "newBridge",
          "type": "address"
        }
      ],
      "name": "migrateBridge",
      "outputs": [],
      "payable": false,
      "stateMutability": "nonpayable",
      "type": "function"
    },
    {
      "constant": false,
      "inputs": [
        {
          "internalType": "address",
          "name": "_owner",
          "type": "address"
        }
      ],
      "name": "nominateNewOwner",
      "outputs": [],
      "payable": false,
      "stateMutability": "nonpayable",
      "type": "function"
    },
    {
      "constant": true,
      "inputs": [],
      "name": "nominatedOwner",
      "outputs": [
        {
          "internalType": "address",
          "name": "",
          "type": "address"
        }
      ],
      "payable": false,
      "stateMutability": "view",
      "type": "function"
    },
    {
      "constant": false,
      "inputs": [
        {
          "internalType": "uint256",
          "name": "amount",
          "type": "uint256"
        }
      ],
      "name": "notifyRewardAmount",
      "outputs": [],
      "payable": false,
      "stateMutability": "nonpayable",
      "type": "function"
    },
    {
      "constant": true,
      "inputs": [],
      "name": "owner",
      "outputs": [
        {
          "internalType": "address",
          "name": "",
          "type": "address"
        }
      ],
      "payable": false,
      "stateMutability": "view",
      "type": "function"
    },
    {
      "constant": false,
      "inputs": [],
      "name": "rebuildCache",
      "outputs": [],
      "payable": false,
      "stateMutability": "nonpayable",
      "type": "function"
    },
    {
      "constant": true,
      "inputs": [],
      "name": "resolver",
      "outputs": [
        {
          "internalType": "contract AddressResolver",
          "name": "",
          "type": "address"
        }
      ],
      "payable": false,
      "stateMutability": "view",
      "type": "function"
    },
    {
      "constant": true,
      "inputs": [],
      "name": "resolverAddressesRequired",
      "outputs": [
        {
          "internalType": "bytes32[]",
          "name": "addresses",
          "type": "bytes32[]"
        }
      ],
      "payable": false,
      "stateMutability": "view",
      "type": "function"
    }
  ],
  "bytecode": "0x60806040523480156200001157600080fd5b506040516200343b3803806200343b8339818101604052620000379190810190620001a7565b808083600073ffffffffffffffffffffffffffffffffffffffff168173ffffffffffffffffffffffffffffffffffffffff161415620000ad576040517f08c379a0000000000000000000000000000000000000000000000000000000008152600401620000a49062000279565b60405180910390fd5b806000806101000a81548173ffffffffffffffffffffffffffffffffffffffff021916908373ffffffffffffffffffffffffffffffffffffffff1602179055507fb532073b38c83145e3e5135377a08bf9aab55bc0fd7c1179cd4fb995d2a5159c600082604051620001219291906200024c565b60405180910390a15080600260006101000a81548173ffffffffffffffffffffffffffffffffffffffff021916908373ffffffffffffffffffffffffffffffffffffffff16021790555050506001600460006101000a81548160ff021916908315150217905550505062000336565b600081519050620001a1816200031c565b92915050565b60008060408385031215620001bb57600080fd5b6000620001cb8582860162000190565b9250506020620001de8582860162000190565b9150509250929050565b620001f381620002e0565b82525050565b6200020481620002ac565b82525050565b6000620002196019836200029b565b91507f4f776e657220616464726573732063616e6e6f742062652030000000000000006000830152602082019050919050565b6000604082019050620002636000830185620001e8565b620002726020830184620001f9565b9392505050565b6000602082019050818103600083015262000294816200020a565b9050919050565b600082825260208201905092915050565b6000620002b982620002c0565b9050919050565b600073ffffffffffffffffffffffffffffffffffffffff82169050919050565b6000620002ed82620002f4565b9050919050565b6000620003018262000308565b9050919050565b60006200031582620002c0565b9050919050565b6200032781620002ac565b81146200033357600080fd5b50565b6130f580620003466000396000f3fe608060405234801561001057600080fd5b50600436106101005760003560e01c806379ba509711610097578063cb82747411610066578063cb8274741461023d578063ccce950614610259578063d7f5b35914610275578063e2ff2d431461029157610100565b806379ba5097146101db578063899ffef4146101e55780638da5cb5b14610203578063a18e23071461022157610100565b80633c6b16ab116100d35780633c6b16ab1461017b57806353a47bb7146101975780636bfd7835146101b557806374185360146101d157610100565b806304f3bcec146101055780631627540c14610123578063186601ca1461013f5780632af64bd31461015d575b600080fd5b61010d6102ad565b60405161011a9190612bcb565b60405180910390f35b61013d60048036036101389190810190612039565b6102d3565b005b610147610356565b6040516101549190612b13565b60405180910390f35b610165610369565b6040516101729190612b13565b60405180910390f35b61019560048036036101909190810190612131565b61053e565b005b61019f6105c7565b6040516101ac919061291a565b60405180910390f35b6101cf60048036036101ca91908101906120c7565b6105ed565b005b6101d9610609565b005b6101e36107aa565b005b6101ed61095c565b6040516101fa9190612af1565b60405180910390f35b61020b610b0b565b604051610218919061291a565b60405180910390f35b61023b60048036036102369190810190612183565b610b30565b005b61025760048036036102529190810190612131565b610b6b565b005b610273600480360361026e9190810190612131565b610b87565b005b61028f600480360361028a9190810190612039565b610c32565b005b6102ab60048036036102a6919081019061208b565b610e34565b005b600260009054906101000a900473ffffffffffffffffffffffffffffffffffffffff1681565b6102db611091565b80600160006101000a81548173ffffffffffffffffffffffffffffffffffffffff021916908373ffffffffffffffffffffffffffffffffffffffff1602179055507f906a1c6bd7e3091ea86693dd029a831c19049ce77f1dce2ce0bab1cacbabce228160405161034b919061291a565b60405180910390a150565b600460009054906101000a900460ff1681565b6000606061037561095c565b905060008090505b815181101561053457600082828151811061039457fe5b602002602001015190506003600082815260200190815260200160002060009054906101000a900473ffffffffffffffffffffffffffffffffffffffff1673ffffffffffffffffffffffffffffffffffffffff16600260009054906101000a900473ffffffffffffffffffffffffffffffffffffffff1673ffffffffffffffffffffffffffffffffffffffff166321f8a721836040518263ffffffff1660e01b81526004016104439190612b2e565b60206040518083038186803b15801561045b57600080fd5b505afa15801561046f573d6000803e3d6000fd5b505050506040513d601f19601f820116820180604052506104939190810190612062565b73ffffffffffffffffffffffffffffffffffffffff161415806105155750600073ffffffffffffffffffffffffffffffffffffffff166003600083815260200190815260200160002060009054906101000a900473ffffffffffffffffffffffffffffffffffffffff1673ffffffffffffffffffffffffffffffffffffffff16145b15610526576000935050505061053b565b50808060010191505061037d565b5060019150505b90565b610546611122565b61054e611173565b73ffffffffffffffffffffffffffffffffffffffff163373ffffffffffffffffffffffffffffffffffffffff16146105bb576040517f08c379a00000000000000000000000000000000000000000000000000000000081526004016105b290612ce8565b60405180910390fd5b6105c4816111a3565b50565b600160009054906101000a900473ffffffffffffffffffffffffffffffffffffffff1681565b6105f5611122565b6105fd611311565b610606816113e5565b50565b606061061361095c565b905060008090505b81518110156107a657600082828151811061063257fe5b602002602001015190506000600260009054906101000a900473ffffffffffffffffffffffffffffffffffffffff1673ffffffffffffffffffffffffffffffffffffffff1663dacb2d01838460405160200161068e91906128f4565b6040516020818303038152906040526040518363ffffffff1660e01b81526004016106ba929190612b9b565b60206040518083038186803b1580156106d257600080fd5b505afa1580156106e6573d6000803e3d6000fd5b505050506040513d601f19601f8201168201806040525061070a9190810190612062565b9050806003600084815260200190815260200160002060006101000a81548173ffffffffffffffffffffffffffffffffffffffff021916908373ffffffffffffffffffffffffffffffffffffffff1602179055507f88a93678a3692f6789d9546fc621bf7234b101ddb7d4fe479455112831b8aa68828260405161078f929190612b49565b60405180910390a15050808060010191505061061b565b5050565b600160009054906101000a900473ffffffffffffffffffffffffffffffffffffffff1673ffffffffffffffffffffffffffffffffffffffff163373ffffffffffffffffffffffffffffffffffffffff161461083a576040517f08c379a000000000000000000000000000000000000000000000000000000000815260040161083190612c08565b60405180910390fd5b7fb532073b38c83145e3e5135377a08bf9aab55bc0fd7c1179cd4fb995d2a5159c6000809054906101000a900473ffffffffffffffffffffffffffffffffffffffff16600160009054906101000a900473ffffffffffffffffffffffffffffffffffffffff166040516108ae929190612a2a565b60405180910390a1600160009054906101000a900473ffffffffffffffffffffffffffffffffffffffff166000806101000a81548173ffffffffffffffffffffffffffffffffffffffff021916908373ffffffffffffffffffffffffffffffffffffffff1602179055506000600160006101000a81548173ffffffffffffffffffffffffffffffffffffffff021916908373ffffffffffffffffffffffffffffffffffffffff160217905550565b606080610967611695565b90506060600660405190808252806020026020018201604052801561099b5781602001602082028038833980820191505090505b5090507f6578743a4d657373656e67657200000000000000000000000000000000000000816000815181106109cc57fe5b6020026020010181815250507f5065726946696e0000000000000000000000000000000000000000000000000081600181518110610a0657fe5b6020026020010181815250507f497373756572000000000000000000000000000000000000000000000000000081600281518110610a4057fe5b6020026020010181815250507f52657761726473446973747269627574696f6e0000000000000000000000000081600381518110610a7a57fe5b6020026020010181815250507f6f766d3a5065726946696e427269646765546f4261736500000000000000000081600481518110610ab457fe5b6020026020010181815250507f526577617264457363726f77563200000000000000000000000000000000000081600581518110610aee57fe5b602002602001018181525050610b048282611707565b9250505090565b6000809054906101000a900473ffffffffffffffffffffffffffffffffffffffff1681565b610b38611122565b610b40611311565b600081511115610b5457610b53816113e5565b5b6000821115610b6757610b66826117da565b5b5050565b610b73611122565b610b7b611311565b610b84816117da565b50565b610b8f611122565b610b976119e1565b73ffffffffffffffffffffffffffffffffffffffff166323b872dd3330846040518463ffffffff1660e01b8152600401610bd393929190612935565b602060405180830381600087803b158015610bed57600080fd5b505af1158015610c01573d6000803e3d6000fd5b505050506040513d601f19601f82011682018060405250610c259190810190612108565b50610c2f816111a3565b50565b610c3a611091565b610c42611122565b600073ffffffffffffffffffffffffffffffffffffffff168173ffffffffffffffffffffffffffffffffffffffff161415610cb2576040517f08c379a0000000000000000000000000000000000000000000000000000000008152600401610ca990612d08565b60405180910390fd5b6000600460006101000a81548160ff0219169083151502179055506000610cd76119e1565b905060008173ffffffffffffffffffffffffffffffffffffffff166370a08231306040518263ffffffff1660e01b8152600401610d14919061291a565b60206040518083038186803b158015610d2c57600080fd5b505afa158015610d40573d6000803e3d6000fd5b505050506040513d601f19601f82011682018060405250610d64919081019061215a565b90508173ffffffffffffffffffffffffffffffffffffffff1663a9059cbb84836040518363ffffffff1660e01b8152600401610da1929190612ac8565b602060405180830381600087803b158015610dbb57600080fd5b505af1158015610dcf573d6000803e3d6000fd5b505050506040513d601f19601f82011682018060405250610df39190810190612108565b507fa1bbeeb6860c5db529c582b6bdbc57a2e9862ef771e5bed3a082f7d9da54904a308483604051610e2793929190612a53565b60405180910390a1505050565b610e3c611122565b610e44611a11565b73ffffffffffffffffffffffffffffffffffffffff163373ffffffffffffffffffffffffffffffffffffffff1614610eb1576040517f08c379a0000000000000000000000000000000000000000000000000000000008152600401610ea890612cc8565b60405180910390fd5b610eb9611a41565b73ffffffffffffffffffffffffffffffffffffffff16610ed7611a11565b73ffffffffffffffffffffffffffffffffffffffff16636e296e456040518163ffffffff1660e01b815260040160206040518083038186803b158015610f1c57600080fd5b505afa158015610f30573d6000803e3d6000fd5b505050506040513d601f19601f82011682018060405250610f549190810190612062565b73ffffffffffffffffffffffffffffffffffffffff1614610faa576040517f08c379a0000000000000000000000000000000000000000000000000000000008152600401610fa190612c28565b60405180910390fd5b610fb26119e1565b73ffffffffffffffffffffffffffffffffffffffff1663a9059cbb83836040518363ffffffff1660e01b8152600401610fec929190612ac8565b602060405180830381600087803b15801561100657600080fd5b505af115801561101a573d6000803e3d6000fd5b505050506040513d601f19601f8201168201806040525061103e9190810190612108565b508173ffffffffffffffffffffffffffffffffffffffff167f1a39b9c5044b9f0ff56c5951e30c1ebe24911353aafcceb9250e83a24fe158c4826040516110859190612d48565b60405180910390a25050565b6000809054906101000a900473ffffffffffffffffffffffffffffffffffffffff1673ffffffffffffffffffffffffffffffffffffffff163373ffffffffffffffffffffffffffffffffffffffff1614611120576040517f08c379a000000000000000000000000000000000000000000000000000000000815260040161111790612ca8565b60405180910390fd5b565b600460009054906101000a900460ff16611171576040517f08c379a000000000000000000000000000000000000000000000000000000000815260040161116890612c68565b60405180910390fd5b565b600061119e7f52657761726473446973747269627574696f6e00000000000000000000000000611a71565b905090565b600060608173ffffffffffffffffffffffffffffffffffffffff1663f69053c5905060e01b836040516024016111d99190612d48565b604051602081830303815290604052907bffffffffffffffffffffffffffffffffffffffffffffffffffffffff19166020820180517bffffffffffffffffffffffffffffffffffffffffffffffffffffffff83818316178352505050509050611240611a11565b73ffffffffffffffffffffffffffffffffffffffff16633dbb202b611263611a41565b8361126e6002611b46565b6040518463ffffffff1660e01b815260040161128c93929190612a8a565b600060405180830381600087803b1580156112a657600080fd5b505af11580156112ba573d6000803e3d6000fd5b505050503373ffffffffffffffffffffffffffffffffffffffff167f95bf5847357310d24f8d03d8bad76c8ee329dfd3a3cb200df21c7bd1619e93bd846040516113049190612d48565b60405180910390a2505050565b600061131b611c09565b73ffffffffffffffffffffffffffffffffffffffff1663d37c4d8b336040518263ffffffff1660e01b8152600401611353919061299c565b60206040518083038186803b15801561136b57600080fd5b505afa15801561137f573d6000803e3d6000fd5b505050506040513d601f19601f820116820180604052506113a3919081019061215a565b146113e3576040517f08c379a00000000000000000000000000000000000000000000000000000000081526004016113da90612c88565b60405180910390fd5b565b60008090505b815181101561169157601a60ff1682828151811061140557fe5b602002602001015151111561144f576040517f08c379a000000000000000000000000000000000000000000000000000000000815260040161144690612c48565b60405180910390fd5b6000606061145b611c39565b73ffffffffffffffffffffffffffffffffffffffff166380d46f583386868151811061148357fe5b60200260200101516040518363ffffffff1660e01b81526004016114a892919061296c565b600060405180830381600087803b1580156114c257600080fd5b505af11580156114d6573d6000803e3d6000fd5b505050506040513d6000823e3d601f19601f820116820180604052506114ff91908101906121d7565b8092508193505050600082111561168257600060608173ffffffffffffffffffffffffffffffffffffffff16636ab7e1c2905060e01b33858560405160240161154a939291906129ec565b604051602081830303815290604052907bffffffffffffffffffffffffffffffffffffffffffffffffffffffff19166020820180517bffffffffffffffffffffffffffffffffffffffffffffffffffffffff838183161783525050505090506115b1611a11565b73ffffffffffffffffffffffffffffffffffffffff16633dbb202b6115d4611a41565b836115df6001611b46565b6040518463ffffffff1660e01b81526004016115fd93929190612a8a565b600060405180830381600087803b15801561161757600080fd5b505af115801561162b573d6000803e3d6000fd5b505050503373ffffffffffffffffffffffffffffffffffffffff167f4dc5956ab6218a4dfa2cc5e5c50d98d039dde03aabfc504c54b601b6f56226968585604051611677929190612d63565b60405180910390a250505b505080806001019150506113eb565b5050565b606060016040519080825280602002602001820160405280156116c75781602001602082028038833980820191505090505b5090507f466c657869626c6553746f726167650000000000000000000000000000000000816000815181106116f857fe5b60200260200101818152505090565b6060815183510160405190808252806020026020018201604052801561173c5781602001602082028038833980820191505090505b50905060008090505b83518110156117875783818151811061175a57fe5b602002602001015182828151811061176e57fe5b6020026020010181815250508080600101915050611745565b5060008090505b82518110156117d3578281815181106117a357fe5b60200260200101518282865101815181106117ba57fe5b602002602001018181525050808060010191505061178e565b5092915050565b6117e26119e1565b73ffffffffffffffffffffffffffffffffffffffff166323b872dd3330846040518463ffffffff1660e01b815260040161181e93929190612935565b602060405180830381600087803b15801561183857600080fd5b505af115801561184c573d6000803e3d6000fd5b505050506040513d601f19601f820116820180604052506118709190810190612108565b50600060608173ffffffffffffffffffffffffffffffffffffffff1663130a75fe905060e01b33846040516024016118a99291906129c3565b604051602081830303815290604052907bffffffffffffffffffffffffffffffffffffffffffffffffffffffff19166020820180517bffffffffffffffffffffffffffffffffffffffffffffffffffffffff83818316178352505050509050611910611a11565b73ffffffffffffffffffffffffffffffffffffffff16633dbb202b611933611a41565b8361193e6000611b46565b6040518463ffffffff1660e01b815260040161195c93929190612a8a565b600060405180830381600087803b15801561197657600080fd5b505af115801561198a573d6000803e3d6000fd5b505050503373ffffffffffffffffffffffffffffffffffffffff167fe1fffcc4923d04b559f4d29a8bfc6cda04eb5b0d3c460751c2402c5c5cc9109c846040516119d49190612d48565b60405180910390a2505050565b6000611a0c7f5065726946696e00000000000000000000000000000000000000000000000000611a71565b905090565b6000611a3c7f6578743a4d657373656e67657200000000000000000000000000000000000000611a71565b905090565b6000611a6c7f6f766d3a5065726946696e427269646765546f42617365000000000000000000611a71565b905090565b6000806003600084815260200190815260200160002060009054906101000a900473ffffffffffffffffffffffffffffffffffffffff169050600073ffffffffffffffffffffffffffffffffffffffff168173ffffffffffffffffffffffffffffffffffffffff16141583604051602001611aec91906128ce565b60405160208183030381529060405290611b3c576040517f08c379a0000000000000000000000000000000000000000000000000000000008152600401611b339190612be6565b60405180910390fd5b5080915050919050565b6000611b50611c69565b73ffffffffffffffffffffffffffffffffffffffff166323257c2b7f53797374656d53657474696e6773000000000000000000000000000000000000611b9585611c99565b6040518363ffffffff1660e01b8152600401611bb2929190612b72565b60206040518083038186803b158015611bca57600080fd5b505afa158015611bde573d6000803e3d6000fd5b505050506040513d601f19601f82011682018060405250611c02919081019061215a565b9050919050565b6000611c347f4973737565720000000000000000000000000000000000000000000000000000611a71565b905090565b6000611c647f526577617264457363726f775632000000000000000000000000000000000000611a71565b905090565b6000611c947f466c657869626c6553746f726167650000000000000000000000000000000000611a71565b905090565b6000806003811115611ca757fe5b826003811115611cb357fe5b1415611ce1577f63726f7373446f6d61696e4465706f7369744761734c696d69740000000000009050611df0565b60016003811115611cee57fe5b826003811115611cfa57fe5b1415611d28577f63726f7373446f6d61696e457363726f774761734c696d6974000000000000009050611df0565b60026003811115611d3557fe5b826003811115611d4157fe5b1415611d6f577f63726f7373446f6d61696e5265776172644761734c696d6974000000000000009050611df0565b600380811115611d7b57fe5b826003811115611d8757fe5b1415611db5577f63726f7373446f6d61696e5769746864726177616c4761734c696d69740000009050611df0565b6040517f08c379a0000000000000000000000000000000000000000000000000000000008152600401611de790612d28565b60405180910390fd5b919050565b600081359050611e0481613056565b92915050565b600081519050611e1981613056565b92915050565b600082601f830112611e3057600080fd5b8135611e43611e3e82612dc0565b612d93565b9150818183526020840193506020810190508360005b83811015611e895781358601611e6f8882611f16565b845260208401935060208301925050600181019050611e59565b5050505092915050565b600082601f830112611ea457600080fd5b8151611eb7611eb282612de8565b612d93565b91508181835260208401935060208101905083856040840282011115611edc57600080fd5b60005b83811015611f0c5781611ef28882611fae565b845260208401935060408301925050600181019050611edf565b5050505092915050565b600082601f830112611f2757600080fd5b8135611f3a611f3582612e10565b612d93565b91508181835260208401935060208101905083856020840282011115611f5f57600080fd5b60005b83811015611f8f5781611f758882611ffa565b845260208401935060208301925050600181019050611f62565b5050505092915050565b600081519050611fa88161306d565b92915050565b600060408284031215611fc057600080fd5b611fca6040612d93565b90506000611fda84828501612024565b6000830152506020611fee8482850161200f565b60208301525092915050565b60008135905061200981613084565b92915050565b60008151905061201e81613084565b92915050565b6000815190506120338161309b565b92915050565b60006020828403121561204b57600080fd5b600061205984828501611df5565b91505092915050565b60006020828403121561207457600080fd5b600061208284828501611e0a565b91505092915050565b6000806040838503121561209e57600080fd5b60006120ac85828601611df5565b92505060206120bd85828601611ffa565b9150509250929050565b6000602082840312156120d957600080fd5b600082013567ffffffffffffffff8111156120f357600080fd5b6120ff84828501611e1f565b91505092915050565b60006020828403121561211a57600080fd5b600061212884828501611f99565b91505092915050565b60006020828403121561214357600080fd5b600061215184828501611ffa565b91505092915050565b60006020828403121561216c57600080fd5b600061217a8482850161200f565b91505092915050565b6000806040838503121561219657600080fd5b60006121a485828601611ffa565b925050602083013567ffffffffffffffff8111156121c157600080fd5b6121cd85828601611e1f565b9150509250929050565b600080604083850312156121ea57600080fd5b60006121f88582860161200f565b925050602083015167ffffffffffffffff81111561221557600080fd5b61222185828601611e93565b9150509250929050565b600061223783836123c9565b60208301905092915050565b600061224f8383612863565b60408301905092915050565b60006122678383612892565b60208301905092915050565b61227c81612fae565b82525050565b61228b81612f38565b82525050565b61229a81612f26565b82525050565b60006122ab82612e68565b6122b58185612ec6565b93506122c083612e38565b8060005b838110156122f15781516122d8888261222b565b97506122e383612e9f565b9250506001810190506122c4565b5085935050505092915050565b600061230982612e73565b6123138185612ed7565b935061231e83612e48565b8060005b8381101561234f5781516123368882612243565b975061234183612eac565b925050600181019050612322565b5085935050505092915050565b600061236782612e7e565b6123718185612ee8565b935061237c83612e58565b8060005b838110156123ad578151612394888261225b565b975061239f83612eb9565b925050600181019050612380565b5085935050505092915050565b6123c381612f4a565b82525050565b6123d281612f56565b82525050565b6123e181612f56565b82525050565b6123f86123f382612f56565b61303b565b82525050565b600061240982612e89565b6124138185612ef9565b9350612423818560208601613008565b61242c81613045565b840191505092915050565b61244081612fc0565b82525050565b600061245182612e94565b61245b8185612f0a565b935061246b818560208601613008565b61247481613045565b840191505092915050565b600061248c603583612f0a565b91507f596f75206d757374206265206e6f6d696e61746564206265666f726520796f7560008301527f2063616e20616363657074206f776e65727368697000000000000000000000006020830152604082019050919050565b60006124f2601d83612f0a565b91507f4f6e6c7920746865204c32206272696467652063616e20696e766f6b650000006000830152602082019050919050565b6000612532602183612f0a565b91507f45786365656473206d617820656e747269657320706572206d6967726174696f60008301527f6e000000000000000000000000000000000000000000000000000000000000006020830152604082019050919050565b6000612598601483612f0a565b91507f46756e6374696f6e2064656163746976617465640000000000000000000000006000830152602082019050919050565b60006125d8601183612f1b565b91507f4d697373696e6720616464726573733a200000000000000000000000000000006000830152601182019050919050565b6000612618602383612f0a565b91507f43616e6e6f74206465706f736974206f72206d6967726174652077697468206460008301527f65627400000000000000000000000000000000000000000000000000000000006020830152604082019050919050565b600061267e602f83612f0a565b91507f4f6e6c792074686520636f6e7472616374206f776e6572206d6179207065726660008301527f6f726d207468697320616374696f6e00000000000000000000000000000000006020830152604082019050919050565b7f7055534400000000000000000000000000000000000000000000000000000000815250565b600061270a601e83612f0a565b91507f4f6e6c79207468652072656c617965722063616e2063616c6c207468697300006000830152602082019050919050565b600061274a601983612f1b565b91507f5265736f6c766572206d697373696e67207461726765743a20000000000000006000830152601982019050919050565b600061278a602a83612f0a565b91507f43616c6c6572206973206e6f742052657761726473446973747269627574696f60008301527f6e20636f6e7472616374000000000000000000000000000000000000000000006020830152604082019050919050565b60006127f0601b83612f0a565b91507f43616e6e6f74206d69677261746520746f2061646472657373203000000000006000830152602082019050919050565b6000612830601683612f0a565b91507f556e6b6e6f776e20676173206c696d69742074797065000000000000000000006000830152602082019050919050565b60408201600082015161287960008501826128bf565b50602082015161288c6020850182612892565b50505050565b61289b81612f80565b82525050565b6128aa81612f80565b82525050565b6128b981612f8a565b82525050565b6128c881612f9a565b82525050565b60006128d9826125cb565b91506128e582846123e7565b60208201915081905092915050565b60006128ff8261273d565b915061290b82846123e7565b60208201915081905092915050565b600060208201905061292f6000830184612291565b92915050565b600060608201905061294a6000830186612273565b6129576020830185612291565b61296460408301846128a1565b949350505050565b60006040820190506129816000830185612273565b8181036020830152612993818461235c565b90509392505050565b60006040820190506129b16000830184612273565b6129bd602083016126d7565b92915050565b60006040820190506129d86000830185612282565b6129e560208301846128a1565b9392505050565b6000606082019050612a016000830186612282565b612a0e60208301856128a1565b8181036040830152612a2081846122fe565b9050949350505050565b6000604082019050612a3f6000830185612291565b612a4c6020830184612291565b9392505050565b6000606082019050612a686000830186612291565b612a756020830185612291565b612a8260408301846128a1565b949350505050565b6000606082019050612a9f6000830186612291565b8181036020830152612ab181856123fe565b9050612ac060408301846128b0565b949350505050565b6000604082019050612add6000830185612291565b612aea60208301846128a1565b9392505050565b60006020820190508181036000830152612b0b81846122a0565b905092915050565b6000602082019050612b2860008301846123ba565b92915050565b6000602082019050612b4360008301846123d8565b92915050565b6000604082019050612b5e60008301856123d8565b612b6b6020830184612291565b9392505050565b6000604082019050612b8760008301856123d8565b612b9460208301846123d8565b9392505050565b6000604082019050612bb060008301856123d8565b8181036020830152612bc28184612446565b90509392505050565b6000602082019050612be06000830184612437565b92915050565b60006020820190508181036000830152612c008184612446565b905092915050565b60006020820190508181036000830152612c218161247f565b9050919050565b60006020820190508181036000830152612c41816124e5565b9050919050565b60006020820190508181036000830152612c6181612525565b9050919050565b60006020820190508181036000830152612c818161258b565b9050919050565b60006020820190508181036000830152612ca18161260b565b9050919050565b60006020820190508181036000830152612cc181612671565b9050919050565b60006020820190508181036000830152612ce1816126fd565b9050919050565b60006020820190508181036000830152612d018161277d565b9050919050565b60006020820190508181036000830152612d21816127e3565b9050919050565b60006020820190508181036000830152612d4181612823565b9050919050565b6000602082019050612d5d60008301846128a1565b92915050565b6000604082019050612d7860008301856128a1565b8181036020830152612d8a81846122fe565b90509392505050565b6000604051905081810181811067ffffffffffffffff82111715612db657600080fd5b8060405250919050565b600067ffffffffffffffff821115612dd757600080fd5b602082029050602081019050919050565b600067ffffffffffffffff821115612dff57600080fd5b602082029050602081019050919050565b600067ffffffffffffffff821115612e2757600080fd5b602082029050602081019050919050565b6000819050602082019050919050565b6000819050602082019050919050565b6000819050602082019050919050565b600081519050919050565b600081519050919050565b600081519050919050565b600081519050919050565b600081519050919050565b6000602082019050919050565b6000602082019050919050565b6000602082019050919050565b600082825260208201905092915050565b600082825260208201905092915050565b600082825260208201905092915050565b600082825260208201905092915050565b600082825260208201905092915050565b600081905092915050565b6000612f3182612f60565b9050919050565b6000612f4382612f60565b9050919050565b60008115159050919050565b6000819050919050565b600073ffffffffffffffffffffffffffffffffffffffff82169050919050565b6000819050919050565b600063ffffffff82169050919050565b600067ffffffffffffffff82169050919050565b6000612fb982612fe4565b9050919050565b6000612fcb82612fd2565b9050919050565b6000612fdd82612f60565b9050919050565b6000612fef82612ff6565b9050919050565b600061300182612f60565b9050919050565b60005b8381101561302657808201518184015260208101905061300b565b83811115613035576000848401525b50505050565b6000819050919050565b6000601f19601f8301169050919050565b61305f81612f26565b811461306a57600080fd5b50565b61307681612f4a565b811461308157600080fd5b50565b61308d81612f80565b811461309857600080fd5b50565b6130a481612f9a565b81146130af57600080fd5b5056fea365627a7a72315820b10637f86fb03e24a9c1b51a66fd0912875c2d8a95c65b2974e48462dc0654a46c6578706572696d656e74616cf564736f6c63430005100040",
  "linkReferences": {},
  "deployedLinkReferences": {}
}