{
  "_format": "hh-sol-artifact-1",
  "contractName": "SupplySchedule",
  "sourceName": "contracts/SupplySchedule.sol",
  "abi": [
    {
      "inputs": [
        {
          "internalType": "address",
          "name": "_owner",
          "type": "address"
        },
        {
          "internalType": "uint256",
          "name": "_lastMintEvent",
          "type": "uint256"
        },
        {
          "internalType": "uint256",
          "name": "_currentWeek",
          "type": "uint256"
        }
      ],
      "payable": false,
      "stateMutability": "nonpayable",
      "type": "constructor"
    },
    {
      "anonymous": false,
      "inputs": [
        {
          "indexed": false,
          "internalType": "uint256",
          "name": "newRewardAmount",
          "type": "uint256"
        }
      ],
      "name": "MinterRewardUpdated",
      "type": "event"
    },
    {
      "anonymous": false,
      "inputs": [
        {
          "indexed": false,
          "internalType": "address",
          "name": "oldOwner",
          "type": "address"
        },
        {
          "indexed": false,
          "internalType": "address",
          "name": "newOwner",
          "type": "address"
        }
      ],
      "name": "OwnerChanged",
      "type": "event"
    },
    {
      "anonymous": false,
      "inputs": [
        {
          "indexed": false,
          "internalType": "address",
          "name": "newOwner",
          "type": "address"
        }
      ],
      "name": "OwnerNominated",
      "type": "event"
    },
    {
      "anonymous": false,
      "inputs": [
        {
          "indexed": false,
          "internalType": "address",
          "name": "newAddress",
          "type": "address"
        }
      ],
      "name": "PeriFinProxyUpdated",
      "type": "event"
    },
    {
      "anonymous": false,
      "inputs": [
        {
          "indexed": false,
          "internalType": "uint256",
          "name": "supplyMinted",
          "type": "uint256"
        },
        {
          "indexed": false,
          "internalType": "uint256",
          "name": "numberOfWeeksIssued",
          "type": "uint256"
        },
        {
          "indexed": false,
          "internalType": "uint256",
          "name": "lastMintEvent",
          "type": "uint256"
        },
        {
          "indexed": false,
          "internalType": "uint256",
          "name": "timestamp",
          "type": "uint256"
        }
      ],
      "name": "SupplyMinted",
      "type": "event"
    },
    {
      "constant": true,
      "inputs": [],
      "name": "DECAY_RATE",
      "outputs": [
        {
          "internalType": "uint256",
          "name": "",
          "type": "uint256"
        }
      ],
      "payable": false,
      "stateMutability": "view",
      "type": "function"
    },
    {
      "constant": true,
      "inputs": [],
      "name": "INFLATION_START_DATE",
      "outputs": [
        {
          "internalType": "uint256",
          "name": "",
          "type": "uint256"
        }
      ],
      "payable": false,
      "stateMutability": "view",
      "type": "function"
    },
    {
      "constant": true,
      "inputs": [],
      "name": "INITIAL_WEEKLY_SUPPLY",
      "outputs": [
        {
          "internalType": "uint256",
          "name": "",
          "type": "uint256"
        }
      ],
      "payable": false,
      "stateMutability": "view",
      "type": "function"
    },
    {
      "constant": true,
      "inputs": [],
      "name": "MAX_MINTER_REWARD",
      "outputs": [
        {
          "internalType": "uint256",
          "name": "",
          "type": "uint256"
        }
      ],
      "payable": false,
      "stateMutability": "view",
      "type": "function"
    },
    {
      "constant": true,
      "inputs": [],
      "name": "MINT_BUFFER",
      "outputs": [
        {
          "internalType": "uint256",
          "name": "",
          "type": "uint256"
        }
      ],
      "payable": false,
      "stateMutability": "view",
      "type": "function"
    },
    {
      "constant": true,
      "inputs": [],
      "name": "MINT_PERIOD_DURATION",
      "outputs": [
        {
          "internalType": "uint256",
          "name": "",
          "type": "uint256"
        }
      ],
      "payable": false,
      "stateMutability": "view",
      "type": "function"
    },
    {
      "constant": true,
      "inputs": [],
      "name": "SUPPLY_DECAY_END",
      "outputs": [
        {
          "internalType": "uint8",
          "name": "",
          "type": "uint8"
        }
      ],
      "payable": false,
      "stateMutability": "view",
      "type": "function"
    },
    {
      "constant": true,
      "inputs": [],
      "name": "SUPPLY_DECAY_START",
      "outputs": [
        {
          "internalType": "uint8",
          "name": "",
          "type": "uint8"
        }
      ],
      "payable": false,
      "stateMutability": "view",
      "type": "function"
    },
    {
      "constant": true,
      "inputs": [],
      "name": "TERMINAL_SUPPLY_RATE_ANNUAL",
      "outputs": [
        {
          "internalType": "uint256",
          "name": "",
          "type": "uint256"
        }
      ],
      "payable": false,
      "stateMutability": "view",
      "type": "function"
    },
    {
      "constant": false,
      "inputs": [],
      "name": "acceptOwnership",
      "outputs": [],
      "payable": false,
      "stateMutability": "nonpayable",
      "type": "function"
    },
    {
      "constant": true,
      "inputs": [],
      "name": "isMintable",
      "outputs": [
        {
          "internalType": "bool",
          "name": "",
          "type": "bool"
        }
      ],
      "payable": false,
      "stateMutability": "view",
      "type": "function"
    },
    {
      "constant": true,
      "inputs": [],
      "name": "lastMintEvent",
      "outputs": [
        {
          "internalType": "uint256",
          "name": "",
          "type": "uint256"
        }
      ],
      "payable": false,
      "stateMutability": "view",
      "type": "function"
    },
    {
      "constant": true,
      "inputs": [],
      "name": "mintableSupply",
      "outputs": [
        {
          "internalType": "uint256",
          "name": "",
          "type": "uint256"
        }
      ],
      "payable": false,
      "stateMutability": "view",
      "type": "function"
    },
    {
      "constant": true,
      "inputs": [],
      "name": "minterReward",
      "outputs": [
        {
          "internalType": "uint256",
          "name": "",
          "type": "uint256"
        }
      ],
      "payable": false,
      "stateMutability": "view",
      "type": "function"
    },
    {
      "constant": false,
      "inputs": [
        {
          "internalType": "address",
          "name": "_owner",
          "type": "address"
        }
      ],
      "name": "nominateNewOwner",
      "outputs": [],
      "payable": false,
      "stateMutability": "nonpayable",
      "type": "function"
    },
    {
      "constant": true,
      "inputs": [],
      "name": "nominatedOwner",
      "outputs": [
        {
          "internalType": "address",
          "name": "",
          "type": "address"
        }
      ],
      "payable": false,
      "stateMutability": "view",
      "type": "function"
    },
    {
      "constant": true,
      "inputs": [],
      "name": "owner",
      "outputs": [
        {
          "internalType": "address",
          "name": "",
          "type": "address"
        }
      ],
      "payable": false,
      "stateMutability": "view",
      "type": "function"
    },
    {
      "constant": true,
      "inputs": [],
      "name": "perifinProxy",
      "outputs": [
        {
          "internalType": "address payable",
          "name": "",
          "type": "address"
        }
      ],
      "payable": false,
      "stateMutability": "view",
      "type": "function"
    },
    {
      "constant": false,
      "inputs": [
        {
          "internalType": "uint256",
          "name": "supplyMinted",
          "type": "uint256"
        }
      ],
      "name": "recordMintEvent",
      "outputs": [
        {
          "internalType": "bool",
          "name": "",
          "type": "bool"
        }
      ],
      "payable": false,
      "stateMutability": "nonpayable",
      "type": "function"
    },
    {
      "constant": false,
      "inputs": [
        {
          "internalType": "uint256",
          "name": "amount",
          "type": "uint256"
        }
      ],
      "name": "setMinterReward",
      "outputs": [],
      "payable": false,
      "stateMutability": "nonpayable",
      "type": "function"
    },
    {
      "constant": false,
      "inputs": [
        {
          "internalType": "contract IPeriFin",
          "name": "_perifinProxy",
          "type": "address"
        }
      ],
      "name": "setPeriFinProxy",
      "outputs": [],
      "payable": false,
      "stateMutability": "nonpayable",
      "type": "function"
    },
    {
      "constant": true,
      "inputs": [
        {
          "internalType": "uint256",
          "name": "totalSupply",
          "type": "uint256"
        },
        {
          "internalType": "uint256",
          "name": "numOfWeeks",
          "type": "uint256"
        }
      ],
      "name": "terminalInflationSupply",
      "outputs": [
        {
          "internalType": "uint256",
          "name": "",
          "type": "uint256"
        }
      ],
      "payable": false,
      "stateMutability": "pure",
      "type": "function"
    },
    {
      "constant": true,
      "inputs": [
        {
          "internalType": "uint256",
          "name": "counter",
          "type": "uint256"
        }
      ],
      "name": "tokenDecaySupplyForWeek",
      "outputs": [
        {
          "internalType": "uint256",
          "name": "",
          "type": "uint256"
        }
      ],
      "payable": false,
      "stateMutability": "pure",
      "type": "function"
    },
    {
      "constant": true,
      "inputs": [],
      "name": "weekCounter",
      "outputs": [
        {
          "internalType": "uint256",
          "name": "",
          "type": "uint256"
        }
      ],
      "payable": false,
      "stateMutability": "view",
      "type": "function"
    },
    {
      "constant": true,
      "inputs": [],
      "name": "weeksSinceLastIssuance",
      "outputs": [
        {
          "internalType": "uint256",
          "name": "",
          "type": "uint256"
        }
      ],
      "payable": false,
      "stateMutability": "view",
      "type": "function"
    }
  ],
  "bytecode": "0x608060405273__$b8d33eeb36ac0d1e81cd70156e0043e778$__63907af6c06040518163ffffffff1660e01b815260040160206040518083038186803b15801561004857600080fd5b505af415801561005c573d6000803e3d6000fd5b505050506040513d602081101561007257600080fd5b810190808051906020019092919050505060c80260045534801561009557600080fd5b5060405161196d38038061196d833981810160405260608110156100b857600080fd5b8101908080519060200190929190805190602001909291908051906020019092919050505082600073ffffffffffffffffffffffffffffffffffffffff168173ffffffffffffffffffffffffffffffffffffffff161415610181576040517f08c379a00000000000000000000000000000000000000000000000000000000081526004018080602001828103825260198152602001807f4f776e657220616464726573732063616e6e6f7420626520300000000000000081525060200191505060405180910390fd5b806000806101000a81548173ffffffffffffffffffffffffffffffffffffffff021916908373ffffffffffffffffffffffffffffffffffffffff1602179055507fb532073b38c83145e3e5135377a08bf9aab55bc0fd7c1179cd4fb995d2a5159c600082604051808373ffffffffffffffffffffffffffffffffffffffff1673ffffffffffffffffffffffffffffffffffffffff1681526020018273ffffffffffffffffffffffffffffffffffffffff1673ffffffffffffffffffffffffffffffffffffffff1681526020019250505060405180910390a15081600281905550806003819055505050506116f38061027a6000396000f3fe608060405234801561001057600080fd5b50600436106101735760003560e01c80637e1b823f116100de578063badef30a11610097578063cc5c095c11610071578063cc5c095c14610544578063d3bd4bde14610562578063dbd3a6a714610580578063df5a9fc11461059e57610173565b8063badef30a146104be578063be801f01146104dc578063c4627451146104fa57610173565b80637e1b823f146103625780637e7961d71461038057806383d0e7b7146103c65780638da5cb5b1461040a5780639bdd7ac714610454578063b3b2bcc01461047257610173565b806346b45af71161013057806346b45af7146102585780634ae265211461027a5780634e070f50146102a857806353a47bb7146102ea57806379ba5097146103345780637c0605571461033e57610173565b80631627540c146101785780631de40e49146101bc57806322af2bab146101da578063251330f1146101f8578063255420641461021c57806346872a231461023a575b600080fd5b6101ba6004803603602081101561018e57600080fd5b81019080803573ffffffffffffffffffffffffffffffffffffffff1690602001909291905050506105bc565b005b6101c461066b565b6040518082815260200191505060405180910390f35b6101e2610676565b6040518082815260200191505060405180910390f35b610200610683565b604051808260ff1660ff16815260200191505060405180910390f35b610224610688565b6040518082815260200191505060405180910390f35b610242610693565b6040518082815260200191505060405180910390f35b61026061069a565b604051808215151515815260200191505060405180910390f35b6102a66004803603602081101561029057600080fd5b81019080803590602001909291905050506106bc565b005b6102d4600480360360208110156102be57600080fd5b8101908080359060200190929190505050610769565b6040518082815260200191505060405180910390f35b6102f2610844565b604051808273ffffffffffffffffffffffffffffffffffffffff1673ffffffffffffffffffffffffffffffffffffffff16815260200191505060405180910390f35b61033c61086a565b005b610346610a90565b604051808260ff1660ff16815260200191505060405180910390f35b61036a610a95565b6040518082815260200191505060405180910390f35b6103ac6004803603602081101561039657600080fd5b8101908080359060200190929190505050610a9d565b604051808215151515815260200191505060405180910390f35b610408600480360360208110156103dc57600080fd5b81019080803573ffffffffffffffffffffffffffffffffffffffff169060200190929190505050610c90565b005b610412610e04565b604051808273ffffffffffffffffffffffffffffffffffffffff1673ffffffffffffffffffffffffffffffffffffffff16815260200191505060405180910390f35b61045c610e29565b6040518082815260200191505060405180910390f35b6104a86004803603604081101561048857600080fd5b810190808035906020019092919080359060200190929190505050610e2f565b6040518082815260200191505060405180910390f35b6104c6610f9d565b6040518082815260200191505060405180910390f35b6104e4610fac565b6040518082815260200191505060405180910390f35b610502610fb2565b604051808273ffffffffffffffffffffffffffffffffffffffff1673ffffffffffffffffffffffffffffffffffffffff16815260200191505060405180910390f35b61054c610fd8565b6040518082815260200191505060405180910390f35b61056a611197565b6040518082815260200191505060405180910390f35b61058861119d565b6040518082815260200191505060405180910390f35b6105a66111fa565b6040518082815260200191505060405180910390f35b6105c4611201565b80600160006101000a81548173ffffffffffffffffffffffffffffffffffffffff021916908373ffffffffffffffffffffffffffffffffffffffff1602179055507f906a1c6bd7e3091ea86693dd029a831c19049ce77f1dce2ce0bab1cacbabce2281604051808273ffffffffffffffffffffffffffffffffffffffff1673ffffffffffffffffffffffffffffffffffffffff16815260200191505060405180910390a150565b662c68af0bb1400081565b680ad78ebc5ac620000081565b602881565b6658d15e1762800081565b6201518081565b600062093a80600254420311156106b457600190506106b9565b600090505b90565b6106c4611201565b680ad78ebc5ac6200000811115610726576040517f08c379a00000000000000000000000000000000000000000000000000000000081526004018080602001828103825260268152602001806116996026913960400191505060405180910390fd5b806004819055507f036e0c635f8b7d9314bb6f2a577046108ef0f8b5e3869fbd29fd5a448ed99d306004546040518082815260200191505060405180910390a150565b60008061081683610808662c68af0bb1400073__$b8d33eeb36ac0d1e81cd70156e0043e778$__63907af6c06040518163ffffffff1660e01b815260040160206040518083038186803b1580156107bf57600080fd5b505af41580156107d3573d6000803e3d6000fd5b505050506040513d60208110156107e957600080fd5b81019080805190602001909291905050506112a890919063ffffffff16565b61133190919063ffffffff16565b90506000610838826a01316ba81b802f59713b1361141890919063ffffffff16565b90508092505050919050565b600160009054906101000a900473ffffffffffffffffffffffffffffffffffffffff1681565b600160009054906101000a900473ffffffffffffffffffffffffffffffffffffffff1673ffffffffffffffffffffffffffffffffffffffff163373ffffffffffffffffffffffffffffffffffffffff1614610910576040517f08c379a00000000000000000000000000000000000000000000000000000000081526004018080602001828103825260358152602001806115e36035913960400191505060405180910390fd5b7fb532073b38c83145e3e5135377a08bf9aab55bc0fd7c1179cd4fb995d2a5159c6000809054906101000a900473ffffffffffffffffffffffffffffffffffffffff16600160009054906101000a900473ffffffffffffffffffffffffffffffffffffffff16604051808373ffffffffffffffffffffffffffffffffffffffff1673ffffffffffffffffffffffffffffffffffffffff1681526020018273ffffffffffffffffffffffffffffffffffffffff1673ffffffffffffffffffffffffffffffffffffffff1681526020019250505060405180910390a1600160009054906101000a900473ffffffffffffffffffffffffffffffffffffffff166000806101000a81548173ffffffffffffffffffffffffffffffffffffffff021916908373ffffffffffffffffffffffffffffffffffffffff1602179055506000600160006101000a81548173ffffffffffffffffffffffffffffffffffffffff021916908373ffffffffffffffffffffffffffffffffffffffff160217905550565b60ea81565b635c7f0d8081565b6000600560009054906101000a900473ffffffffffffffffffffffffffffffffffffffff1673ffffffffffffffffffffffffffffffffffffffff1663d4b839926040518163ffffffff1660e01b815260040160206040518083038186803b158015610b0757600080fd5b505afa158015610b1b573d6000803e3d6000fd5b505050506040513d6020811015610b3157600080fd5b810190808051906020019092919050505073ffffffffffffffffffffffffffffffffffffffff163373ffffffffffffffffffffffffffffffffffffffff1614610bc5576040517f08c379a00000000000000000000000000000000000000000000000000000000081526004018080602001828103825260318152602001806116686031913960400191505060405180910390fd5b6000610bcf61119d565b9050610be68160035461144590919063ffffffff16565b600381905550610c2f62015180610c21610c0e62093a806003546114cd90919063ffffffff16565b635c7f0d8061144590919063ffffffff16565b61144590919063ffffffff16565b6002819055507f601e517d4811033fed8290c79b7823ce1ab70258da45400fe2391a3c7432edab8382600254426040518085815260200184815260200183815260200182815260200194505050505060405180910390a16001915050919050565b610c98611201565b600073ffffffffffffffffffffffffffffffffffffffff168173ffffffffffffffffffffffffffffffffffffffff161415610d3b576040517f08c379a00000000000000000000000000000000000000000000000000000000081526004018080602001828103825260138152602001807f416464726573732063616e6e6f7420626520300000000000000000000000000081525060200191505060405180910390fd5b80600560006101000a81548173ffffffffffffffffffffffffffffffffffffffff021916908373ffffffffffffffffffffffffffffffffffffffff1602179055507f813771a97b3969ca61da85cf21be236e62ee458afd4a7359725591d8ef8fccb5600560009054906101000a900473ffffffffffffffffffffffffffffffffffffffff16604051808273ffffffffffffffffffffffffffffffffffffffff1673ffffffffffffffffffffffffffffffffffffffff16815260200191505060405180910390a150565b6000809054906101000a900473ffffffffffffffffffffffffffffffffffffffff1681565b60045481565b600080610eef83610ee1610e5460346658d15e1762800061155390919063ffffffff16565b73__$b8d33eeb36ac0d1e81cd70156e0043e778$__63907af6c06040518163ffffffff1660e01b815260040160206040518083038186803b158015610e9857600080fd5b505af4158015610eac573d6000803e3d6000fd5b505050506040513d6020811015610ec257600080fd5b810190808051906020019092919050505061144590919063ffffffff16565b61133190919063ffffffff16565b9050610f94610f8573__$b8d33eeb36ac0d1e81cd70156e0043e778$__63907af6c06040518163ffffffff1660e01b815260040160206040518083038186803b158015610f3b57600080fd5b505af4158015610f4f573d6000803e3d6000fd5b505050506040513d6020811015610f6557600080fd5b8101908080519060200190929190505050836112a890919063ffffffff16565b8561141890919063ffffffff16565b91505092915050565b6a01316ba81b802f59713b1381565b60025481565b600560009054906101000a900473ffffffffffffffffffffffffffffffffffffffff1681565b600080610fe361069a565b610ff05780915050611194565b6000610ffa61119d565b9050600060035490505b600082111561118d578080600101915050602860ff1681101561104f5761103f6a01316ba81b802f59713b138461144590919063ffffffff16565b9250818060019003925050611188565b60ea60ff1681116110a4576000611076600160280360ff16836112a890919063ffffffff16565b905061109361108482610769565b8561144590919063ffffffff16565b935082806001900393505050611187565b6000600560009054906101000a900473ffffffffffffffffffffffffffffffffffffffff1673ffffffffffffffffffffffffffffffffffffffff166318160ddd6040518163ffffffff1660e01b815260040160206040518083038186803b15801561110e57600080fd5b505afa158015611122573d6000803e3d6000fd5b505050506040513d602081101561113857600080fd5b810190808051906020019092919050505090506000611160858361144590919063ffffffff16565b905061117e61116f8286610e2f565b8661144590919063ffffffff16565b94506000935050505b5b611004565b8293505050505b90565b60035481565b6000806000600254116111c6576111c1635c7f0d80426112a890919063ffffffff16565b6111dc565b6111db600254426112a890919063ffffffff16565b5b90506111f462093a808261155390919063ffffffff16565b91505090565b62093a8081565b6000809054906101000a900473ffffffffffffffffffffffffffffffffffffffff1673ffffffffffffffffffffffffffffffffffffffff163373ffffffffffffffffffffffffffffffffffffffff16146112a6576040517f08c379a000000000000000000000000000000000000000000000000000000000815260040180806020018281038252602f815260200180611618602f913960400191505060405180910390fd5b565b600082821115611320576040517f08c379a000000000000000000000000000000000000000000000000000000000815260040180806020018281038252601e8152602001807f536166654d6174683a207375627472616374696f6e206f766572666c6f77000081525060200191505060405180910390fd5b600082840390508091505092915050565b60008073__$b8d33eeb36ac0d1e81cd70156e0043e778$__63907af6c06040518163ffffffff1660e01b815260040160206040518083038186803b15801561137857600080fd5b505af415801561138c573d6000803e3d6000fd5b505050506040513d60208110156113a257600080fd5b810190808051906020019092919050505090505b600083111561140e576000600284816113cb57fe5b06146113e7576113e4848261141890919063ffffffff16565b90505b6113fa848561141890919063ffffffff16565b93506002838161140657fe5b0492506113b6565b8091505092915050565b6000601260ff16600a0a61143583856114cd90919063ffffffff16565b8161143c57fe5b04905092915050565b6000808284019050838110156114c3576040517f08c379a000000000000000000000000000000000000000000000000000000000815260040180806020018281038252601b8152602001807f536166654d6174683a206164646974696f6e206f766572666c6f77000000000081525060200191505060405180910390fd5b8091505092915050565b6000808314156114e0576000905061154d565b60008284029050828482816114f157fe5b0414611548576040517f08c379a00000000000000000000000000000000000000000000000000000000081526004018080602001828103825260218152602001806116476021913960400191505060405180910390fd5b809150505b92915050565b60008082116115ca576040517f08c379a000000000000000000000000000000000000000000000000000000000815260040180806020018281038252601a8152602001807f536166654d6174683a206469766973696f6e206279207a65726f00000000000081525060200191505060405180910390fd5b60008284816115d557fe5b049050809150509291505056fe596f75206d757374206265206e6f6d696e61746564206265666f726520796f752063616e20616363657074206f776e6572736869704f6e6c792074686520636f6e7472616374206f776e6572206d617920706572666f726d207468697320616374696f6e536166654d6174683a206d756c7469706c69636174696f6e206f766572666c6f774f6e6c7920746865207065726966696e20636f6e74726163742063616e20706572666f726d207468697320616374696f6e5265776172642063616e6e6f7420657863656564206d6178206d696e74657220726577617264a265627a7a723158207a1f30f06f083acfde4f3c8084928ac7bf44ca74eabaac5f1b0e017b403b59b264736f6c63430005100032",
  "linkReferences": {
    "contracts/SafeDecimalMath.sol": {
      "SafeDecimalMath": [
        {
          "length": 20,
          "start": 6
        },
        {
          "length": 20,
          "start": 2551
        },
        {
          "length": 20,
          "start": 4304
        },
        {
          "length": 20,
          "start": 4467
        },
        {
          "length": 20,
          "start": 5552
        }
      ]
    }
  },
  "deployedLinkReferences": {
    "contracts/SafeDecimalMath.sol": {
      "SafeDecimalMath": [
        {
          "length": 20,
          "start": 1917
        },
        {
          "length": 20,
          "start": 3670
        },
        {
          "length": 20,
          "start": 3833
        },
        {
          "length": 20,
          "start": 4918
        }
      ]
    }
  }
}