{
  "_format": "hh-sol-artifact-1",
  "contractName": "RealtimeDebtCache",
  "sourceName": "contracts/RealtimeDebtCache.sol",
  "abi": [
    {
      "inputs": [
        {
          "internalType": "address",
          "name": "_owner",
          "type": "address"
        },
        {
          "internalType": "address",
          "name": "_resolver",
          "type": "address"
        }
      ],
      "payable": false,
      "stateMutability": "nonpayable",
      "type": "constructor"
    },
    {
      "anonymous": false,
      "inputs": [
        {
          "indexed": false,
          "internalType": "bytes32",
          "name": "name",
          "type": "bytes32"
        },
        {
          "indexed": false,
          "internalType": "address",
          "name": "destination",
          "type": "address"
        }
      ],
      "name": "CacheUpdated",
      "type": "event"
    },
    {
      "anonymous": false,
      "inputs": [
        {
          "indexed": false,
          "internalType": "uint256",
          "name": "timestamp",
          "type": "uint256"
        }
      ],
      "name": "DebtCacheSnapshotTaken",
      "type": "event"
    },
    {
      "anonymous": false,
      "inputs": [
        {
          "indexed": false,
          "internalType": "uint256",
          "name": "cachedDebt",
          "type": "uint256"
        }
      ],
      "name": "DebtCacheUpdated",
      "type": "event"
    },
    {
      "anonymous": false,
      "inputs": [
        {
          "indexed": true,
          "internalType": "bool",
          "name": "isInvalid",
          "type": "bool"
        }
      ],
      "name": "DebtCacheValidityChanged",
      "type": "event"
    },
    {
      "anonymous": false,
      "inputs": [
        {
          "indexed": false,
          "internalType": "address",
          "name": "oldOwner",
          "type": "address"
        },
        {
          "indexed": false,
          "internalType": "address",
          "name": "newOwner",
          "type": "address"
        }
      ],
      "name": "OwnerChanged",
      "type": "event"
    },
    {
      "anonymous": false,
      "inputs": [
        {
          "indexed": false,
          "internalType": "address",
          "name": "newOwner",
          "type": "address"
        }
      ],
      "name": "OwnerNominated",
      "type": "event"
    },
    {
      "constant": false,
      "inputs": [],
      "name": "acceptOwnership",
      "outputs": [],
      "payable": false,
      "stateMutability": "nonpayable",
      "type": "function"
    },
    {
      "constant": true,
      "inputs": [],
      "name": "cacheInfo",
      "outputs": [
        {
          "internalType": "uint256",
          "name": "debt",
          "type": "uint256"
        },
        {
          "internalType": "uint256",
          "name": "timestamp",
          "type": "uint256"
        },
        {
          "internalType": "bool",
          "name": "isInvalid",
          "type": "bool"
        },
        {
          "internalType": "bool",
          "name": "isStale",
          "type": "bool"
        }
      ],
      "payable": false,
      "stateMutability": "view",
      "type": "function"
    },
    {
      "constant": true,
      "inputs": [],
      "name": "cacheInvalid",
      "outputs": [
        {
          "internalType": "bool",
          "name": "",
          "type": "bool"
        }
      ],
      "payable": false,
      "stateMutability": "view",
      "type": "function"
    },
    {
      "constant": true,
      "inputs": [],
      "name": "cacheStale",
      "outputs": [
        {
          "internalType": "bool",
          "name": "",
          "type": "bool"
        }
      ],
      "payable": false,
      "stateMutability": "view",
      "type": "function"
    },
    {
      "constant": true,
      "inputs": [],
      "name": "cacheTimestamp",
      "outputs": [
        {
          "internalType": "uint256",
          "name": "",
          "type": "uint256"
        }
      ],
      "payable": false,
      "stateMutability": "view",
      "type": "function"
    },
    {
      "constant": true,
      "inputs": [],
      "name": "cachedDebt",
      "outputs": [
        {
          "internalType": "uint256",
          "name": "",
          "type": "uint256"
        }
      ],
      "payable": false,
      "stateMutability": "view",
      "type": "function"
    },
    {
      "constant": true,
      "inputs": [
        {
          "internalType": "bytes32",
          "name": "currencyKey",
          "type": "bytes32"
        }
      ],
      "name": "cachedPynthDebt",
      "outputs": [
        {
          "internalType": "uint256",
          "name": "",
          "type": "uint256"
        }
      ],
      "payable": false,
      "stateMutability": "view",
      "type": "function"
    },
    {
      "constant": true,
      "inputs": [
        {
          "internalType": "bytes32[]",
          "name": "currencyKeys",
          "type": "bytes32[]"
        }
      ],
      "name": "cachedPynthDebts",
      "outputs": [
        {
          "internalType": "uint256[]",
          "name": "debtValues",
          "type": "uint256[]"
        }
      ],
      "payable": false,
      "stateMutability": "view",
      "type": "function"
    },
    {
      "constant": true,
      "inputs": [],
      "name": "currentDebt",
      "outputs": [
        {
          "internalType": "uint256",
          "name": "debt",
          "type": "uint256"
        },
        {
          "internalType": "bool",
          "name": "anyRateIsInvalid",
          "type": "bool"
        }
      ],
      "payable": false,
      "stateMutability": "view",
      "type": "function"
    },
    {
      "constant": true,
      "inputs": [
        {
          "internalType": "bytes32[]",
          "name": "currencyKeys",
          "type": "bytes32[]"
        }
      ],
      "name": "currentPynthDebts",
      "outputs": [
        {
          "internalType": "uint256[]",
          "name": "debtValues",
          "type": "uint256[]"
        },
        {
          "internalType": "bool",
          "name": "anyRateIsInvalid",
          "type": "bool"
        }
      ],
      "payable": false,
      "stateMutability": "view",
      "type": "function"
    },
    {
      "constant": true,
      "inputs": [],
      "name": "debtSnapshotStaleTime",
      "outputs": [
        {
          "internalType": "uint256",
          "name": "",
          "type": "uint256"
        }
      ],
      "payable": false,
      "stateMutability": "view",
      "type": "function"
    },
    {
      "constant": true,
      "inputs": [],
      "name": "isResolverCached",
      "outputs": [
        {
          "internalType": "bool",
          "name": "",
          "type": "bool"
        }
      ],
      "payable": false,
      "stateMutability": "view",
      "type": "function"
    },
    {
      "constant": false,
      "inputs": [
        {
          "internalType": "address",
          "name": "_owner",
          "type": "address"
        }
      ],
      "name": "nominateNewOwner",
      "outputs": [],
      "payable": false,
      "stateMutability": "nonpayable",
      "type": "function"
    },
    {
      "constant": true,
      "inputs": [],
      "name": "nominatedOwner",
      "outputs": [
        {
          "internalType": "address",
          "name": "",
          "type": "address"
        }
      ],
      "payable": false,
      "stateMutability": "view",
      "type": "function"
    },
    {
      "constant": true,
      "inputs": [],
      "name": "owner",
      "outputs": [
        {
          "internalType": "address",
          "name": "",
          "type": "address"
        }
      ],
      "payable": false,
      "stateMutability": "view",
      "type": "function"
    },
    {
      "constant": false,
      "inputs": [
        {
          "internalType": "bytes32",
          "name": "currencyKey",
          "type": "bytes32"
        }
      ],
      "name": "purgeCachedPynthDebt",
      "outputs": [],
      "payable": false,
      "stateMutability": "nonpayable",
      "type": "function"
    },
    {
      "constant": false,
      "inputs": [],
      "name": "rebuildCache",
      "outputs": [],
      "payable": false,
      "stateMutability": "nonpayable",
      "type": "function"
    },
    {
      "constant": true,
      "inputs": [],
      "name": "resolver",
      "outputs": [
        {
          "internalType": "contract AddressResolver",
          "name": "",
          "type": "address"
        }
      ],
      "payable": false,
      "stateMutability": "view",
      "type": "function"
    },
    {
      "constant": true,
      "inputs": [],
      "name": "resolverAddressesRequired",
      "outputs": [
        {
          "internalType": "bytes32[]",
          "name": "addresses",
          "type": "bytes32[]"
        }
      ],
      "payable": false,
      "stateMutability": "view",
      "type": "function"
    },
    {
      "constant": false,
      "inputs": [],
      "name": "takeDebtSnapshot",
      "outputs": [],
      "payable": false,
      "stateMutability": "nonpayable",
      "type": "function"
    },
    {
      "constant": false,
      "inputs": [
        {
          "internalType": "bytes32",
          "name": "currencyKey",
          "type": "bytes32"
        },
        {
          "internalType": "uint256",
          "name": "currencyRate",
          "type": "uint256"
        }
      ],
      "name": "updateCachedPynthDebtWithRate",
      "outputs": [],
      "payable": false,
      "stateMutability": "nonpayable",
      "type": "function"
    },
    {
      "constant": false,
      "inputs": [
        {
          "internalType": "bytes32[]",
          "name": "currencyKeys",
          "type": "bytes32[]"
        }
      ],
      "name": "updateCachedPynthDebts",
      "outputs": [],
      "payable": false,
      "stateMutability": "nonpayable",
      "type": "function"
    },
    {
      "constant": false,
      "inputs": [
        {
          "internalType": "bytes32[]",
          "name": "currencyKeys",
          "type": "bytes32[]"
        },
        {
          "internalType": "uint256[]",
          "name": "currencyRates",
          "type": "uint256[]"
        }
      ],
      "name": "updateCachedPynthDebtsWithRates",
      "outputs": [],
      "payable": false,
      "stateMutability": "nonpayable",
      "type": "function"
    },
    {
      "constant": false,
      "inputs": [
        {
          "internalType": "bool",
          "name": "currentlyInvalid",
          "type": "bool"
        }
      ],
      "name": "updateDebtCacheValidity",
      "outputs": [],
      "payable": false,
      "stateMutability": "nonpayable",
      "type": "function"
    }
  ],
  "bytecode": "0x60806040526001600760006101000a81548160ff02191690831515021790555034801561002b57600080fd5b5060405161263c38038061263c8339818101604052604081101561004e57600080fd5b8101908080519060200190929190805190602001909291905050508181808083600073ffffffffffffffffffffffffffffffffffffffff168173ffffffffffffffffffffffffffffffffffffffff161415610111576040517f08c379a00000000000000000000000000000000000000000000000000000000081526004018080602001828103825260198152602001807f4f776e657220616464726573732063616e6e6f7420626520300000000000000081525060200191505060405180910390fd5b806000806101000a81548173ffffffffffffffffffffffffffffffffffffffff021916908373ffffffffffffffffffffffffffffffffffffffff1602179055507fb532073b38c83145e3e5135377a08bf9aab55bc0fd7c1179cd4fb995d2a5159c600082604051808373ffffffffffffffffffffffffffffffffffffffff1673ffffffffffffffffffffffffffffffffffffffff1681526020018273ffffffffffffffffffffffffffffffffffffffff1673ffffffffffffffffffffffffffffffffffffffff1681526020019250505060405180910390a15080600260006101000a81548173ffffffffffffffffffffffffffffffffffffffff021916908373ffffffffffffffffffffffffffffffffffffffff1602179055505050505050506123fc806102406000396000f3fe608060405234801561001057600080fd5b50600436106101585760003560e01c80638da5cb5b116100c3578063dae3de981161007c578063dae3de9814610558578063e3476cd414610626578063f7cc999f14610630578063fa9f18d314610672578063fc524773146106eb578063fca28f741461070d57610158565b80638da5cb5b146103b45780639f98fb49146103fe578063a5f27edb146104cc578063af5355d8146104ee578063d0fffafd1461050c578063d6576c841461052a57610158565b806353a47bb71161011557806353a47bb71461029657806374185360146102e0578063759076e5146102ea57806379ba5097146103135780638376a7821461031d578063899ffef41461035557610158565b806304bd11e51461015d57806304f3bcec1461018d57806305393262146101d75780631627540c146101f55780632af64bd3146102395780633a900a2e1461025b575b600080fd5b61018b6004803603602081101561017357600080fd5b810190808035151590602001909291905050506107e6565b005b6101956107e9565b604051808273ffffffffffffffffffffffffffffffffffffffff1673ffffffffffffffffffffffffffffffffffffffff16815260200191505060405180910390f35b6101df61080f565b6040518082815260200191505060405180910390f35b6102376004803603602081101561020b57600080fd5b81019080803573ffffffffffffffffffffffffffffffffffffffff169060200190929190505050610824565b005b6102416108d3565b604051808215151515815260200191505060405180910390f35b610263610aab565b60405180858152602001848152602001831515151581526020018215151515815260200194505050505060405180910390f35b61029e610ad5565b604051808273ffffffffffffffffffffffffffffffffffffffff1673ffffffffffffffffffffffffffffffffffffffff16815260200191505060405180910390f35b6102e8610afb565b005b6102f2610d64565b60405180838152602001821515151581526020019250505060405180910390f35b61031b610d77565b005b6103536004803603604081101561033357600080fd5b810190808035906020019092919080359060200190929190505050610f9d565b005b61035d610fa1565b6040518080602001828103825283818151815260200191508051906020019060200280838360005b838110156103a0578082015181840152602081019050610385565b505050509050019250505060405180910390f35b6103bc61118a565b604051808273ffffffffffffffffffffffffffffffffffffffff1673ffffffffffffffffffffffffffffffffffffffff16815260200191505060405180910390f35b6104ca6004803603604081101561041457600080fd5b810190808035906020019064010000000081111561043157600080fd5b82018360208201111561044357600080fd5b8035906020019184602083028401116401000000008311171561046557600080fd5b90919293919293908035906020019064010000000081111561048657600080fd5b82018360208201111561049857600080fd5b803590602001918460208302840111640100000000831117156104ba57600080fd5b90919293919293905050506111af565b005b6104d46111b5565b604051808215151515815260200191505060405180910390f35b6104f66111ca565b6040518082815260200191505060405180910390f35b6105146111f2565b6040518082815260200191505060405180910390f35b6105566004803603602081101561054057600080fd5b81019080803590602001909291905050506111fa565b005b6105cf6004803603602081101561056e57600080fd5b810190808035906020019064010000000081111561058b57600080fd5b82018360208201111561059d57600080fd5b803590602001918460208302840111640100000000831117156105bf57600080fd5b90919293919293905050506111fd565b6040518080602001828103825283818151815260200191508051906020019060200280838360005b838110156106125780820151818401526020810190506105f7565b505050509050019250505060405180910390f35b61062e611257565b005b61065c6004803603602081101561064657600080fd5b8101908080359060200190929190505050611259565b6040518082815260200191505060405180910390f35b6106e96004803603602081101561068857600080fd5b81019080803590602001906401000000008111156106a557600080fd5b8201836020820111156106b757600080fd5b803590602001918460208302840111640100000000831117156106d957600080fd5b90919293919293905050506112d6565b005b6106f36112da565b604051808215151515815260200191505060405180910390f35b6107846004803603602081101561072357600080fd5b810190808035906020019064010000000081111561074057600080fd5b82018360208201111561075257600080fd5b8035906020019184602083028401116401000000008311171561077457600080fd5b90919293919293905050506112e2565b604051808060200183151515158152602001828103825284818151815260200191508051906020019060200280838360005b838110156107d15780820151818401526020810190506107b6565b50505050905001935050505060405180910390f35b50565b600260009054906101000a900473ffffffffffffffffffffffffffffffffffffffff1681565b60008061081a61133b565b5090508091505090565b61082c611580565b80600160006101000a81548173ffffffffffffffffffffffffffffffffffffffff021916908373ffffffffffffffffffffffffffffffffffffffff1602179055507f906a1c6bd7e3091ea86693dd029a831c19049ce77f1dce2ce0bab1cacbabce2281604051808273ffffffffffffffffffffffffffffffffffffffff1673ffffffffffffffffffffffffffffffffffffffff16815260200191505060405180910390a150565b600060606108df610fa1565b905060008090505b8151811015610aa15760008282815181106108fe57fe5b602002602001015190506003600082815260200190815260200160002060009054906101000a900473ffffffffffffffffffffffffffffffffffffffff1673ffffffffffffffffffffffffffffffffffffffff16600260009054906101000a900473ffffffffffffffffffffffffffffffffffffffff1673ffffffffffffffffffffffffffffffffffffffff166321f8a721836040518263ffffffff1660e01b81526004018082815260200191505060206040518083038186803b1580156109c557600080fd5b505afa1580156109d9573d6000803e3d6000fd5b505050506040513d60208110156109ef57600080fd5b810190808051906020019092919050505073ffffffffffffffffffffffffffffffffffffffff16141580610a825750600073ffffffffffffffffffffffffffffffffffffffff166003600083815260200190815260200160002060009054906101000a900473ffffffffffffffffffffffffffffffffffffffff1673ffffffffffffffffffffffffffffffffffffffff16145b15610a935760009350505050610aa8565b5080806001019150506108e7565b5060019150505b90565b600080600080600080610abc61133b565b9150915081428260009550955095509550505090919293565b600160009054906101000a900473ffffffffffffffffffffffffffffffffffffffff1681565b6060610b05610fa1565b905060008090505b8151811015610d60576000828281518110610b2457fe5b602002602001015190506000600260009054906101000a900473ffffffffffffffffffffffffffffffffffffffff1673ffffffffffffffffffffffffffffffffffffffff1663dacb2d01838460405160200180807f5265736f6c766572206d697373696e67207461726765743a20000000000000008152506019018281526020019150506040516020818303038152906040526040518363ffffffff1660e01b81526004018083815260200180602001828103825283818151815260200191508051906020019080838360005b83811015610c0c578082015181840152602081019050610bf1565b50505050905090810190601f168015610c395780820380516001836020036101000a031916815260200191505b50935050505060206040518083038186803b158015610c5757600080fd5b505afa158015610c6b573d6000803e3d6000fd5b505050506040513d6020811015610c8157600080fd5b81019080805190602001909291905050509050806003600084815260200190815260200160002060006101000a81548173ffffffffffffffffffffffffffffffffffffffff021916908373ffffffffffffffffffffffffffffffffffffffff1602179055507f88a93678a3692f6789d9546fc621bf7234b101ddb7d4fe479455112831b8aa688282604051808381526020018273ffffffffffffffffffffffffffffffffffffffff1673ffffffffffffffffffffffffffffffffffffffff1681526020019250505060405180910390a150508080600101915050610b0d565b5050565b600080610d6f61133b565b915091509091565b600160009054906101000a900473ffffffffffffffffffffffffffffffffffffffff1673ffffffffffffffffffffffffffffffffffffffff163373ffffffffffffffffffffffffffffffffffffffff1614610e1d576040517f08c379a00000000000000000000000000000000000000000000000000000000081526004018080602001828103825260358152602001806123436035913960400191505060405180910390fd5b7fb532073b38c83145e3e5135377a08bf9aab55bc0fd7c1179cd4fb995d2a5159c6000809054906101000a900473ffffffffffffffffffffffffffffffffffffffff16600160009054906101000a900473ffffffffffffffffffffffffffffffffffffffff16604051808373ffffffffffffffffffffffffffffffffffffffff1673ffffffffffffffffffffffffffffffffffffffff1681526020018273ffffffffffffffffffffffffffffffffffffffff1673ffffffffffffffffffffffffffffffffffffffff1681526020019250505060405180910390a1600160009054906101000a900473ffffffffffffffffffffffffffffffffffffffff166000806101000a81548173ffffffffffffffffffffffffffffffffffffffff021916908373ffffffffffffffffffffffffffffffffffffffff1602179055506000600160006101000a81548173ffffffffffffffffffffffffffffffffffffffff021916908373ffffffffffffffffffffffffffffffffffffffff160217905550565b5050565b606080610fac611627565b905060606007604051908082528060200260200182016040528015610fe05781602001602082028038833980820191505090505b5090507f49737375657200000000000000000000000000000000000000000000000000008160008151811061101157fe5b6020026020010181815250507f45786368616e67657200000000000000000000000000000000000000000000008160018151811061104b57fe5b6020026020010181815250507f45786368616e67655261746573000000000000000000000000000000000000008160028151811061108557fe5b6020026020010181815250507f53797374656d5374617475730000000000000000000000000000000000000000816003815181106110bf57fe5b6020026020010181815250507f4574686572436f6c6c61746572616c0000000000000000000000000000000000816004815181106110f957fe5b6020026020010181815250507f4574686572436f6c6c61746572616c70555344000000000000000000000000008160058151811061113357fe5b6020026020010181815250507f436f6c6c61746572616c4d616e616765720000000000000000000000000000008160068151811061116d57fe5b6020026020010181815250506111838282611699565b9250505090565b6000809054906101000a900473ffffffffffffffffffffffffffffffffffffffff1681565b50505050565b6000806111c061133b565b9150508091505090565b60007fffffffffffffffffffffffffffffffffffffffffffffffffffffffffffffffff905090565b600042905090565b50565b60608061124a848480806020026020016040519081016040528093929190818152602001838360200280828437600081840152601f19601f8201169050808301925050505050505061176c565b5090508091505092915050565b565b60006060600160405190808252806020026020018201604052801561128d5781602001602082028038833980820191505090505b509050828160008151811061129e57fe5b60200260200101818152505060606112b58261176c565b509050806000815181106112c557fe5b602002602001015192505050919050565b5050565b600080905090565b60606000611330848480806020026020016040519081016040528093929190818152602001838360200280828437600081840152601f19601f8201169050808301925050505050505061176c565b915091509250929050565b6000806060600061146c61134d611909565b73ffffffffffffffffffffffffffffffffffffffff166372cb051f6040518163ffffffff1660e01b815260040160006040518083038186803b15801561139257600080fd5b505afa1580156113a6573d6000803e3d6000fd5b505050506040513d6000823e3d601f19601f8201168201806040525060208110156113d057600080fd5b81019080805160405193929190846401000000008211156113f057600080fd5b8382019150602082018581111561140657600080fd5b825186602082028301116401000000008211171561142357600080fd5b8083526020830192505050908051906020019060200280838360005b8381101561145a57808201518184015260208101905061143f565b5050505090500160405250505061176c565b915091506000825190506000805b828110156114b7576114a885828151811061149157fe5b60200260200101518361193990919063ffffffff16565b9150808060010191505061147a565b506000806114c36119c1565b73ffffffffffffffffffffffffffffffffffffffff1663ad79a8586040518163ffffffff1660e01b8152600401604080518083038186803b15801561150757600080fd5b505afa15801561151b573d6000803e3d6000fd5b505050506040513d604081101561153157600080fd5b8101908080519060200190929190805190602001909291905050509150915061156382846119f190919063ffffffff16565b9250848061156e5750805b94508285975097505050505050509091565b6000809054906101000a900473ffffffffffffffffffffffffffffffffffffffff1673ffffffffffffffffffffffffffffffffffffffff163373ffffffffffffffffffffffffffffffffffffffff1614611625576040517f08c379a000000000000000000000000000000000000000000000000000000000815260040180806020018281038252602f815260200180612378602f913960400191505060405180910390fd5b565b606060016040519080825280602002602001820160405280156116595781602001602082028038833980820191505090505b5090507f466c657869626c6553746f7261676500000000000000000000000000000000008160008151811061168a57fe5b60200260200101818152505090565b606081518351016040519080825280602002602001820160405280156116ce5781602001602082028038833980820191505090505b50905060008090505b8351811015611719578381815181106116ec57fe5b602002602001015182828151811061170057fe5b60200260200101818152505080806001019150506116d7565b5060008090505b82518110156117655782818151811061173557fe5b602002602001015182828651018151811061174c57fe5b6020026020010181815250508080600101915050611720565b5092915050565b606060006060600061177c611a7a565b73ffffffffffffffffffffffffffffffffffffffff1663c8e5bbd5866040518263ffffffff1660e01b81526004018080602001828103825283818151815260200191508051906020019060200280838360005b838110156117ea5780820151818401526020810190506117cf565b505050509050019250505060006040518083038186803b15801561180d57600080fd5b505afa158015611821573d6000803e3d6000fd5b505050506040513d6000823e3d601f19601f82011682018060405250604081101561184b57600080fd5b810190808051604051939291908464010000000082111561186b57600080fd5b8382019150602082018581111561188157600080fd5b825186602082028301116401000000008211171561189e57600080fd5b8083526020830192505050908051906020019060200280838360005b838110156118d55780820151818401526020810190506118ba565b5050505090500160405260200180519060200190929190505050915091506118fd8583611aaa565b81935093505050915091565b60006119347f4973737565720000000000000000000000000000000000000000000000000000612085565b905090565b6000808284019050838110156119b7576040517f08c379a000000000000000000000000000000000000000000000000000000000815260040180806020018281038252601b8152602001807f536166654d6174683a206164646974696f6e206f766572666c6f77000000000081525060200191505060405180910390fd5b8091505092915050565b60006119ec7f436f6c6c61746572616c4d616e61676572000000000000000000000000000000612085565b905090565b600082821115611a69576040517f08c379a000000000000000000000000000000000000000000000000000000000815260040180806020018281038252601e8152602001807f536166654d6174683a207375627472616374696f6e206f766572666c6f77000081525060200191505060405180910390fd5b600082840390508091505092915050565b6000611aa57f45786368616e6765526174657300000000000000000000000000000000000000612085565b905090565b6060600083519050606081604051908082528060200260200182016040528015611ae35781602001602082028038833980820191505090505b5090506060611af0611909565b73ffffffffffffffffffffffffffffffffffffffff16631db63a33876040518263ffffffff1660e01b81526004018080602001828103825283818151815260200191508051906020019060200280838360005b83811015611b5e578082015181840152602081019050611b43565b505050509050019250505060006040518083038186803b158015611b8157600080fd5b505afa158015611b95573d6000803e3d6000fd5b505050506040513d6000823e3d601f19601f820116820180604052506020811015611bbf57600080fd5b8101908080516040519392919084640100000000821115611bdf57600080fd5b83820191506020820185811115611bf557600080fd5b8251866020820283011164010000000082111715611c1257600080fd5b8083526020830192505050908051906020019060200280838360005b83811015611c49578082015181840152602081019050611c2e565b50505050905001604052505050905060008090505b83811015612078576000878281518110611c7457fe5b602002602001015190506000838381518110611c8c57fe5b60200260200101519050600073ffffffffffffffffffffffffffffffffffffffff168173ffffffffffffffffffffffffffffffffffffffff161415611d39576040517f08c379a00000000000000000000000000000000000000000000000000000000081526004018080602001828103825260148152602001807f50796e746820646f6573206e6f7420657869737400000000000000000000000081525060200191505060405180910390fd5b60008173ffffffffffffffffffffffffffffffffffffffff166318160ddd6040518163ffffffff1660e01b815260040160206040518083038186803b158015611d8157600080fd5b505afa158015611d95573d6000803e3d6000fd5b505050506040513d6020811015611dab57600080fd5b81019080805190602001909291905050509050611dc66119c1565b73ffffffffffffffffffffffffffffffffffffffff166342e32f13846040518263ffffffff1660e01b81526004018082815260200191505060206040518083038186803b158015611e1657600080fd5b505afa158015611e2a573d6000803e3d6000fd5b505050506040513d6020811015611e4057600080fd5b810190808051906020019092919050505015611f16576000611e606119c1565b73ffffffffffffffffffffffffffffffffffffffff1663d2f00475856040518263ffffffff1660e01b81526004018082815260200191505060206040518083038186803b158015611eb057600080fd5b505afa158015611ec4573d6000803e3d6000fd5b505050506040513d6020811015611eda57600080fd5b8101908080519060200190929190505050905081811115611efe5760009150611f14565b611f1181836119f190919063ffffffff16565b91505b505b60007f7055534400000000000000000000000000000000000000000000000000000000841490508080611f6857507f704554480000000000000000000000000000000000000000000000000000000084145b1561202957600081611f8157611f7c6121e7565b611f8a565b611f89612217565b5b905060008173ffffffffffffffffffffffffffffffffffffffff166357b219206040518163ffffffff1660e01b815260040160206040518083038186803b158015611fd457600080fd5b505afa158015611fe8573d6000803e3d6000fd5b505050506040513d6020811015611ffe57600080fd5b8101908080519060200190929190505050905061202481856119f190919063ffffffff16565b935050505b61204f8a868151811061203857fe5b60200260200101518361224790919063ffffffff16565b87868151811061205b57fe5b602002602001018181525050505050508080600101915050611c5e565b5081935050505092915050565b6000806003600084815260200190815260200160002060009054906101000a900473ffffffffffffffffffffffffffffffffffffffff169050600073ffffffffffffffffffffffffffffffffffffffff168173ffffffffffffffffffffffffffffffffffffffff1614158360405160200180807f4d697373696e6720616464726573733a20000000000000000000000000000000815250601101828152602001915050604051602081830303815290604052906121dd576040517f08c379a00000000000000000000000000000000000000000000000000000000081526004018080602001828103825283818151815260200191508051906020019080838360005b838110156121a2578082015181840152602081019050612187565b50505050905090810190601f1680156121cf5780820380516001836020036101000a031916815260200191505b509250505060405180910390fd5b5080915050919050565b60006122127f4574686572436f6c6c61746572616c0000000000000000000000000000000000612085565b905090565b60006122427f4574686572436f6c6c61746572616c7055534400000000000000000000000000612085565b905090565b600061225b8383601260ff16600a0a612263565b905092915050565b600080600a838161227057fe5b0461228485876122bc90919063ffffffff16565b8161228b57fe5b0490506005600a828161229a57fe5b06106122a757600a810190505b600a81816122b157fe5b049150509392505050565b6000808314156122cf576000905061233c565b60008284029050828482816122e057fe5b0414612337576040517f08c379a00000000000000000000000000000000000000000000000000000000081526004018080602001828103825260218152602001806123a76021913960400191505060405180910390fd5b809150505b9291505056fe596f75206d757374206265206e6f6d696e61746564206265666f726520796f752063616e20616363657074206f776e6572736869704f6e6c792074686520636f6e7472616374206f776e6572206d617920706572666f726d207468697320616374696f6e536166654d6174683a206d756c7469706c69636174696f6e206f766572666c6f77a265627a7a72315820e81a254d9e10bb9b38030cd448532df6eb033f0314b5ae72114e2e44e0b35df664736f6c63430005100032",
  "linkReferences": {},
  "deployedLinkReferences": {}
}