{
  "_format": "hh-sol-artifact-1",
  "contractName": "Issuer",
  "sourceName": "contracts/Issuer.sol",
  "abi": [
    {
      "inputs": [
        {
          "internalType": "address",
          "name": "_owner",
          "type": "address"
        },
        {
          "internalType": "address",
          "name": "_resolver",
          "type": "address"
        }
      ],
      "payable": false,
      "stateMutability": "nonpayable",
      "type": "constructor"
    },
    {
      "anonymous": false,
      "inputs": [
        {
          "indexed": false,
          "internalType": "bytes32",
          "name": "name",
          "type": "bytes32"
        },
        {
          "indexed": false,
          "internalType": "address",
          "name": "destination",
          "type": "address"
        }
      ],
      "name": "CacheUpdated",
      "type": "event"
    },
    {
      "anonymous": false,
      "inputs": [
        {
          "indexed": false,
          "internalType": "address",
          "name": "oldOwner",
          "type": "address"
        },
        {
          "indexed": false,
          "internalType": "address",
          "name": "newOwner",
          "type": "address"
        }
      ],
      "name": "OwnerChanged",
      "type": "event"
    },
    {
      "anonymous": false,
      "inputs": [
        {
          "indexed": false,
          "internalType": "address",
          "name": "newOwner",
          "type": "address"
        }
      ],
      "name": "OwnerNominated",
      "type": "event"
    },
    {
      "anonymous": false,
      "inputs": [
        {
          "indexed": false,
          "internalType": "bytes32",
          "name": "currencyKey",
          "type": "bytes32"
        },
        {
          "indexed": false,
          "internalType": "address",
          "name": "pynth",
          "type": "address"
        }
      ],
      "name": "PynthAdded",
      "type": "event"
    },
    {
      "anonymous": false,
      "inputs": [
        {
          "indexed": false,
          "internalType": "bytes32",
          "name": "currencyKey",
          "type": "bytes32"
        },
        {
          "indexed": false,
          "internalType": "address",
          "name": "pynth",
          "type": "address"
        }
      ],
      "name": "PynthRemoved",
      "type": "event"
    },
    {
      "constant": true,
      "inputs": [],
      "name": "CONTRACT_NAME",
      "outputs": [
        {
          "internalType": "bytes32",
          "name": "",
          "type": "bytes32"
        }
      ],
      "payable": false,
      "stateMutability": "view",
      "type": "function"
    },
    {
      "constant": false,
      "inputs": [],
      "name": "acceptOwnership",
      "outputs": [],
      "payable": false,
      "stateMutability": "nonpayable",
      "type": "function"
    },
    {
      "constant": false,
      "inputs": [
        {
          "internalType": "contract IPynth",
          "name": "pynth",
          "type": "address"
        }
      ],
      "name": "addPynth",
      "outputs": [],
      "payable": false,
      "stateMutability": "nonpayable",
      "type": "function"
    },
    {
      "constant": false,
      "inputs": [
        {
          "internalType": "contract IPynth[]",
          "name": "pynthsToAdd",
          "type": "address[]"
        }
      ],
      "name": "addPynths",
      "outputs": [],
      "payable": false,
      "stateMutability": "nonpayable",
      "type": "function"
    },
    {
      "constant": true,
      "inputs": [],
      "name": "anyPynthOrPERIRateIsInvalid",
      "outputs": [
        {
          "internalType": "bool",
          "name": "anyRateInvalid",
          "type": "bool"
        }
      ],
      "payable": false,
      "stateMutability": "view",
      "type": "function"
    },
    {
      "constant": true,
      "inputs": [],
      "name": "availableCurrencyKeys",
      "outputs": [
        {
          "internalType": "bytes32[]",
          "name": "",
          "type": "bytes32[]"
        }
      ],
      "payable": false,
      "stateMutability": "view",
      "type": "function"
    },
    {
      "constant": true,
      "inputs": [],
      "name": "availablePynthCount",
      "outputs": [
        {
          "internalType": "uint256",
          "name": "",
          "type": "uint256"
        }
      ],
      "payable": false,
      "stateMutability": "view",
      "type": "function"
    },
    {
      "constant": true,
      "inputs": [
        {
          "internalType": "uint256",
          "name": "",
          "type": "uint256"
        }
      ],
      "name": "availablePynths",
      "outputs": [
        {
          "internalType": "contract IPynth",
          "name": "",
          "type": "address"
        }
      ],
      "payable": false,
      "stateMutability": "view",
      "type": "function"
    },
    {
      "constant": false,
      "inputs": [
        {
          "internalType": "address",
          "name": "from",
          "type": "address"
        },
        {
          "internalType": "uint256",
          "name": "amount",
          "type": "uint256"
        }
      ],
      "name": "burnPynths",
      "outputs": [],
      "payable": false,
      "stateMutability": "nonpayable",
      "type": "function"
    },
    {
      "constant": false,
      "inputs": [
        {
          "internalType": "address",
          "name": "burnForAddress",
          "type": "address"
        },
        {
          "internalType": "address",
          "name": "from",
          "type": "address"
        },
        {
          "internalType": "uint256",
          "name": "amount",
          "type": "uint256"
        }
      ],
      "name": "burnPynthsOnBehalf",
      "outputs": [],
      "payable": false,
      "stateMutability": "nonpayable",
      "type": "function"
    },
    {
      "constant": false,
      "inputs": [
        {
          "internalType": "address",
          "name": "from",
          "type": "address"
        }
      ],
      "name": "burnPynthsToTarget",
      "outputs": [],
      "payable": false,
      "stateMutability": "nonpayable",
      "type": "function"
    },
    {
      "constant": false,
      "inputs": [
        {
          "internalType": "address",
          "name": "burnForAddress",
          "type": "address"
        },
        {
          "internalType": "address",
          "name": "from",
          "type": "address"
        }
      ],
      "name": "burnPynthsToTargetOnBehalf",
      "outputs": [],
      "payable": false,
      "stateMutability": "nonpayable",
      "type": "function"
    },
    {
      "constant": true,
      "inputs": [
        {
          "internalType": "address",
          "name": "account",
          "type": "address"
        }
      ],
      "name": "canBurnPynths",
      "outputs": [
        {
          "internalType": "bool",
          "name": "",
          "type": "bool"
        }
      ],
      "payable": false,
      "stateMutability": "view",
      "type": "function"
    },
    {
      "constant": true,
      "inputs": [
        {
          "internalType": "address",
          "name": "account",
          "type": "address"
        }
      ],
      "name": "collateral",
      "outputs": [
        {
          "internalType": "uint256",
          "name": "",
          "type": "uint256"
        }
      ],
      "payable": false,
      "stateMutability": "view",
      "type": "function"
    },
    {
      "constant": true,
      "inputs": [
        {
          "internalType": "address",
          "name": "_issuer",
          "type": "address"
        }
      ],
      "name": "collateralisationRatio",
      "outputs": [
        {
          "internalType": "uint256",
          "name": "cratio",
          "type": "uint256"
        }
      ],
      "payable": false,
      "stateMutability": "view",
      "type": "function"
    },
    {
      "constant": true,
      "inputs": [
        {
          "internalType": "address",
          "name": "_issuer",
          "type": "address"
        }
      ],
      "name": "collateralisationRatioAndAnyRatesInvalid",
      "outputs": [
        {
          "internalType": "uint256",
          "name": "cratio",
          "type": "uint256"
        },
        {
          "internalType": "bool",
          "name": "anyRateIsInvalid",
          "type": "bool"
        }
      ],
      "payable": false,
      "stateMutability": "view",
      "type": "function"
    },
    {
      "constant": true,
      "inputs": [
        {
          "internalType": "address",
          "name": "_issuer",
          "type": "address"
        },
        {
          "internalType": "bytes32",
          "name": "currencyKey",
          "type": "bytes32"
        }
      ],
      "name": "debtBalanceOf",
      "outputs": [
        {
          "internalType": "uint256",
          "name": "debtBalance",
          "type": "uint256"
        }
      ],
      "payable": false,
      "stateMutability": "view",
      "type": "function"
    },
    {
      "constant": true,
      "inputs": [
        {
          "internalType": "bytes32[]",
          "name": "currencyKeys",
          "type": "bytes32[]"
        }
      ],
      "name": "getPynths",
      "outputs": [
        {
          "internalType": "contract IPynth[]",
          "name": "",
          "type": "address[]"
        }
      ],
      "payable": false,
      "stateMutability": "view",
      "type": "function"
    },
    {
      "constant": true,
      "inputs": [],
      "name": "isResolverCached",
      "outputs": [
        {
          "internalType": "bool",
          "name": "",
          "type": "bool"
        }
      ],
      "payable": false,
      "stateMutability": "view",
      "type": "function"
    },
    {
      "constant": true,
      "inputs": [],
      "name": "issuanceRatio",
      "outputs": [
        {
          "internalType": "uint256",
          "name": "",
          "type": "uint256"
        }
      ],
      "payable": false,
      "stateMutability": "view",
      "type": "function"
    },
    {
      "constant": false,
      "inputs": [
        {
          "internalType": "address",
          "name": "from",
          "type": "address"
        }
      ],
      "name": "issueMaxPynths",
      "outputs": [],
      "payable": false,
      "stateMutability": "nonpayable",
      "type": "function"
    },
    {
      "constant": false,
      "inputs": [
        {
          "internalType": "address",
          "name": "issueForAddress",
          "type": "address"
        },
        {
          "internalType": "address",
          "name": "from",
          "type": "address"
        }
      ],
      "name": "issueMaxPynthsOnBehalf",
      "outputs": [],
      "payable": false,
      "stateMutability": "nonpayable",
      "type": "function"
    },
    {
      "constant": false,
      "inputs": [
        {
          "internalType": "address",
          "name": "from",
          "type": "address"
        },
        {
          "internalType": "uint256",
          "name": "amount",
          "type": "uint256"
        }
      ],
      "name": "issuePynths",
      "outputs": [],
      "payable": false,
      "stateMutability": "nonpayable",
      "type": "function"
    },
    {
      "constant": false,
      "inputs": [
        {
          "internalType": "address",
          "name": "issueForAddress",
          "type": "address"
        },
        {
          "internalType": "address",
          "name": "from",
          "type": "address"
        },
        {
          "internalType": "uint256",
          "name": "amount",
          "type": "uint256"
        }
      ],
      "name": "issuePynthsOnBehalf",
      "outputs": [],
      "payable": false,
      "stateMutability": "nonpayable",
      "type": "function"
    },
    {
      "constant": true,
      "inputs": [
        {
          "internalType": "address",
          "name": "account",
          "type": "address"
        }
      ],
      "name": "lastIssueEvent",
      "outputs": [
        {
          "internalType": "uint256",
          "name": "",
          "type": "uint256"
        }
      ],
      "payable": false,
      "stateMutability": "view",
      "type": "function"
    },
    {
      "constant": false,
      "inputs": [
        {
          "internalType": "address",
          "name": "account",
          "type": "address"
        },
        {
          "internalType": "uint256",
          "name": "susdAmount",
          "type": "uint256"
        },
        {
          "internalType": "address",
          "name": "liquidator",
          "type": "address"
        }
      ],
      "name": "liquidateDelinquentAccount",
      "outputs": [
        {
          "internalType": "uint256",
          "name": "totalRedeemed",
          "type": "uint256"
        },
        {
          "internalType": "uint256",
          "name": "amountToLiquidate",
          "type": "uint256"
        }
      ],
      "payable": false,
      "stateMutability": "nonpayable",
      "type": "function"
    },
    {
      "constant": true,
      "inputs": [
        {
          "internalType": "address",
          "name": "_issuer",
          "type": "address"
        }
      ],
      "name": "maxIssuablePynths",
      "outputs": [
        {
          "internalType": "uint256",
          "name": "",
          "type": "uint256"
        }
      ],
      "payable": false,
      "stateMutability": "view",
      "type": "function"
    },
    {
      "constant": true,
      "inputs": [],
      "name": "minimumStakeTime",
      "outputs": [
        {
          "internalType": "uint256",
          "name": "",
          "type": "uint256"
        }
      ],
      "payable": false,
      "stateMutability": "view",
      "type": "function"
    },
    {
      "constant": false,
      "inputs": [
        {
          "internalType": "address",
          "name": "_owner",
          "type": "address"
        }
      ],
      "name": "nominateNewOwner",
      "outputs": [],
      "payable": false,
      "stateMutability": "nonpayable",
      "type": "function"
    },
    {
      "constant": true,
      "inputs": [],
      "name": "nominatedOwner",
      "outputs": [
        {
          "internalType": "address",
          "name": "",
          "type": "address"
        }
      ],
      "payable": false,
      "stateMutability": "view",
      "type": "function"
    },
    {
      "constant": true,
      "inputs": [],
      "name": "owner",
      "outputs": [
        {
          "internalType": "address",
          "name": "",
          "type": "address"
        }
      ],
      "payable": false,
      "stateMutability": "view",
      "type": "function"
    },
    {
      "constant": true,
      "inputs": [
        {
          "internalType": "bytes32",
          "name": "",
          "type": "bytes32"
        }
      ],
      "name": "pynths",
      "outputs": [
        {
          "internalType": "contract IPynth",
          "name": "",
          "type": "address"
        }
      ],
      "payable": false,
      "stateMutability": "view",
      "type": "function"
    },
    {
      "constant": true,
      "inputs": [
        {
          "internalType": "address",
          "name": "",
          "type": "address"
        }
      ],
      "name": "pynthsByAddress",
      "outputs": [
        {
          "internalType": "bytes32",
          "name": "",
          "type": "bytes32"
        }
      ],
      "payable": false,
      "stateMutability": "view",
      "type": "function"
    },
    {
      "constant": false,
      "inputs": [],
      "name": "rebuildCache",
      "outputs": [],
      "payable": false,
      "stateMutability": "nonpayable",
      "type": "function"
    },
    {
      "constant": true,
      "inputs": [
        {
          "internalType": "address",
          "name": "_issuer",
          "type": "address"
        }
      ],
      "name": "remainingIssuablePynths",
      "outputs": [
        {
          "internalType": "uint256",
          "name": "maxIssuable",
          "type": "uint256"
        },
        {
          "internalType": "uint256",
          "name": "alreadyIssued",
          "type": "uint256"
        },
        {
          "internalType": "uint256",
          "name": "totalSystemDebt",
          "type": "uint256"
        }
      ],
      "payable": false,
      "stateMutability": "view",
      "type": "function"
    },
    {
      "constant": false,
      "inputs": [
        {
          "internalType": "bytes32",
          "name": "currencyKey",
          "type": "bytes32"
        }
      ],
      "name": "removePynth",
      "outputs": [],
      "payable": false,
      "stateMutability": "nonpayable",
      "type": "function"
    },
    {
      "constant": false,
      "inputs": [
        {
          "internalType": "bytes32[]",
          "name": "currencyKeys",
          "type": "bytes32[]"
        }
      ],
      "name": "removePynths",
      "outputs": [],
      "payable": false,
      "stateMutability": "nonpayable",
      "type": "function"
    },
    {
      "constant": true,
      "inputs": [],
      "name": "resolver",
      "outputs": [
        {
          "internalType": "contract AddressResolver",
          "name": "",
          "type": "address"
        }
      ],
      "payable": false,
      "stateMutability": "view",
      "type": "function"
    },
    {
      "constant": true,
      "inputs": [],
      "name": "resolverAddressesRequired",
      "outputs": [
        {
          "internalType": "bytes32[]",
          "name": "addresses",
          "type": "bytes32[]"
        }
      ],
      "payable": false,
      "stateMutability": "view",
      "type": "function"
    },
    {
      "constant": true,
      "inputs": [
        {
          "internalType": "bytes32",
          "name": "currencyKey",
          "type": "bytes32"
        },
        {
          "internalType": "bool",
          "name": "excludeEtherCollateral",
          "type": "bool"
        }
      ],
      "name": "totalIssuedPynths",
      "outputs": [
        {
          "internalType": "uint256",
          "name": "totalIssued",
          "type": "uint256"
        }
      ],
      "payable": false,
      "stateMutability": "view",
      "type": "function"
    },
    {
      "constant": true,
      "inputs": [
        {
          "internalType": "address",
          "name": "account",
          "type": "address"
        },
        {
          "internalType": "uint256",
          "name": "balance",
          "type": "uint256"
        }
      ],
      "name": "transferablePeriFinAndAnyRateIsInvalid",
      "outputs": [
        {
          "internalType": "uint256",
          "name": "transferable",
          "type": "uint256"
        },
        {
          "internalType": "bool",
          "name": "anyRateIsInvalid",
          "type": "bool"
        }
      ],
      "payable": false,
      "stateMutability": "view",
      "type": "function"
    }
  ],
  "bytecode": "0x60806040523480156200001157600080fd5b5060405162006c4138038062006c41833981810160405260408110156200003757600080fd5b810190808051906020019092919080519060200190929190505050808083600073ffffffffffffffffffffffffffffffffffffffff168173ffffffffffffffffffffffffffffffffffffffff161415620000f9576040517f08c379a00000000000000000000000000000000000000000000000000000000081526004018080602001828103825260198152602001807f4f776e657220616464726573732063616e6e6f7420626520300000000000000081525060200191505060405180910390fd5b806000806101000a81548173ffffffffffffffffffffffffffffffffffffffff021916908373ffffffffffffffffffffffffffffffffffffffff1602179055507fb532073b38c83145e3e5135377a08bf9aab55bc0fd7c1179cd4fb995d2a5159c600082604051808373ffffffffffffffffffffffffffffffffffffffff1673ffffffffffffffffffffffffffffffffffffffff1681526020018273ffffffffffffffffffffffffffffffffffffffff1673ffffffffffffffffffffffffffffffffffffffff1681526020019250505060405180910390a15080600260006101000a81548173ffffffffffffffffffffffffffffffffffffffff021916908373ffffffffffffffffffffffffffffffffffffffff16021790555050505050616a1a80620002276000396000f3fe608060405234801561001057600080fd5b50600436106102535760003560e01c806372cb051f11610146578063b410a034116100c3578063daa0101511610087578063daa0101514610d79578063dd3d2b2e14610de7578063e71c452f14610e3f578063f023e8db14610ead578063f0617e5b14610efb578063f5adc4f514610f3f57610253565b8063b410a03414610c35578063ba92122314610c53578063c9a2f3ad14610ca1578063d37c4d8b14610cf9578063d99947de14610d5b57610253565b80639df95f9f1161010a5780639df95f9f14610a2b578063a311c7c214610a99578063a5fdc5de14610af1578063a63c4df414610b49578063ae3bbbbb14610bd257610253565b806372cb051f1461090f578063741853601461096e57806379ba509714610978578063899ffef4146109825780638da5cb5b146109e157610253565b80633b09280a116101d45780635543dadc116101985780635543dadc1461074d57806356c25f82146107c657806357ad46631461080a5780636017c45814610878578063614d08f8146108f157610253565b80633b09280a146105b35780634669106a146106195780634c29b0af1461067d57806353a47bb7146106ab57806355182ccb146106f557610253565b80631db63a331161021b5780631db63a33146103e5578063242df9e1146104b35780632ae78fdb146104d15780632af64bd31461052d57806330662ab91461054f57610253565b806304f3bcec14610258578063095314a8146102a257806312928a62146102f0578063156b4ff61461035d5780631627540c146103a1575b600080fd5b610260610f61565b604051808273ffffffffffffffffffffffffffffffffffffffff1673ffffffffffffffffffffffffffffffffffffffff16815260200191505060405180910390f35b6102ee600480360360408110156102b857600080fd5b81019080803573ffffffffffffffffffffffffffffffffffffffff16906020019092919080359060200190929190505050610f87565b005b61033c6004803603604081101561030657600080fd5b81019080803573ffffffffffffffffffffffffffffffffffffffff16906020019092919080359060200190929190505050610f9f565b60405180838152602001821515151581526020019250505060405180910390f35b61039f6004803603602081101561037357600080fd5b81019080803573ffffffffffffffffffffffffffffffffffffffff169060200190929190505050611025565b005b6103e3600480360360208110156103b757600080fd5b81019080803573ffffffffffffffffffffffffffffffffffffffff1690602001909291905050506110b0565b005b61045c600480360360208110156103fb57600080fd5b810190808035906020019064010000000081111561041857600080fd5b82018360208201111561042a57600080fd5b8035906020019184602083028401116401000000008311171561044c57600080fd5b909192939192939050505061115f565b6040518080602001828103825283818151815260200191508051906020019060200280838360005b8381101561049f578082015181840152602081019050610484565b505050509050019250505060405180910390f35b6104bb611250565b6040518082815260200191505060405180910390f35b610513600480360360208110156104e757600080fd5b81019080803573ffffffffffffffffffffffffffffffffffffffff16906020019092919050505061125f565b604051808215151515815260200191505060405180910390f35b610535611271565b604051808215151515815260200191505060405180910390f35b6105b16004803603604081101561056557600080fd5b81019080803573ffffffffffffffffffffffffffffffffffffffff169060200190929190803573ffffffffffffffffffffffffffffffffffffffff169060200190929190505050611449565b005b6105f5600480360360208110156105c957600080fd5b81019080803573ffffffffffffffffffffffffffffffffffffffff16906020019092919050505061146c565b60405180848152602001838152602001828152602001935050505060405180910390f35b61067b6004803603604081101561062f57600080fd5b81019080803573ffffffffffffffffffffffffffffffffffffffff169060200190929190803573ffffffffffffffffffffffffffffffffffffffff16906020019092919050505061148e565b005b6106a96004803603602081101561069357600080fd5b81019080803590602001909291905050506114b1565b005b6106b36115b6565b604051808273ffffffffffffffffffffffffffffffffffffffff1673ffffffffffffffffffffffffffffffffffffffff16815260200191505060405180910390f35b6107376004803603602081101561070b57600080fd5b81019080803573ffffffffffffffffffffffffffffffffffffffff1690602001909291905050506115dc565b6040518082815260200191505060405180910390f35b6107c46004803603602081101561076357600080fd5b810190808035906020019064010000000081111561078057600080fd5b82018360208201111561079257600080fd5b803590602001918460208302840111640100000000831117156107b457600080fd5b90919293919293905050506115f4565b005b610808600480360360208110156107dc57600080fd5b81019080803573ffffffffffffffffffffffffffffffffffffffff1690602001909291905050506116cd565b005b6108366004803603602081101561082057600080fd5b81019080803590602001909291905050506116e5565b604051808273ffffffffffffffffffffffffffffffffffffffff1673ffffffffffffffffffffffffffffffffffffffff16815260200191505060405180910390f35b6108ef6004803603602081101561088e57600080fd5b81019080803590602001906401000000008111156108ab57600080fd5b8201836020820111156108bd57600080fd5b803590602001918460208302840111640100000000831117156108df57600080fd5b9091929391929390505050611718565b005b6108f96118f9565b6040518082815260200191505060405180910390f35b61091761191d565b6040518080602001828103825283818151815260200191508051906020019060200280838360005b8381101561095a57808201518184015260208101905061093f565b505050509050019250505060405180910390f35b61097661192e565b005b610980611b97565b005b61098a611dbd565b6040518080602001828103825283818151815260200191508051906020019060200280838360005b838110156109cd5780820151818401526020810190506109b2565b505050509050019250505060405180910390f35b6109e9612102565b604051808273ffffffffffffffffffffffffffffffffffffffff1673ffffffffffffffffffffffffffffffffffffffff16815260200191505060405180910390f35b610a5760048036036020811015610a4157600080fd5b8101908080359060200190929190505050612127565b604051808273ffffffffffffffffffffffffffffffffffffffff1673ffffffffffffffffffffffffffffffffffffffff16815260200191505060405180910390f35b610adb60048036036020811015610aaf57600080fd5b81019080803573ffffffffffffffffffffffffffffffffffffffff169060200190929190505050612163565b6040518082815260200191505060405180910390f35b610b3360048036036020811015610b0757600080fd5b81019080803573ffffffffffffffffffffffffffffffffffffffff169060200190929190505050612178565b6040518082815260200191505060405180910390f35b610bb560048036036060811015610b5f57600080fd5b81019080803573ffffffffffffffffffffffffffffffffffffffff16906020019092919080359060200190929190803573ffffffffffffffffffffffffffffffffffffffff16906020019092919050505061218a565b604051808381526020018281526020019250505060405180910390f35b610c1460048036036020811015610be857600080fd5b81019080803573ffffffffffffffffffffffffffffffffffffffff169060200190929190505050612a2e565b60405180838152602001821515151581526020019250505060405180910390f35b610c3d612a43565b6040518082815260200191505060405180910390f35b610c9f60048036036040811015610c6957600080fd5b81019080803573ffffffffffffffffffffffffffffffffffffffff16906020019092919080359060200190929190505050612a52565b005b610ce360048036036020811015610cb757600080fd5b81019080803573ffffffffffffffffffffffffffffffffffffffff169060200190929190505050612a6a565b6040518082815260200191505060405180910390f35b610d4560048036036040811015610d0f57600080fd5b81019080803573ffffffffffffffffffffffffffffffffffffffff16906020019092919080359060200190929190505050612a82565b6040518082815260200191505060405180910390f35b610d63612b83565b6040518082815260200191505060405180910390f35b610de560048036036060811015610d8f57600080fd5b81019080803573ffffffffffffffffffffffffffffffffffffffff169060200190929190803573ffffffffffffffffffffffffffffffffffffffff16906020019092919080359060200190929190505050612b90565b005b610e2960048036036020811015610dfd57600080fd5b81019080803573ffffffffffffffffffffffffffffffffffffffff169060200190929190505050612bb3565b6040518082815260200191505060405180910390f35b610eab60048036036060811015610e5557600080fd5b81019080803573ffffffffffffffffffffffffffffffffffffffff169060200190929190803573ffffffffffffffffffffffffffffffffffffffff16906020019092919080359060200190929190505050612bc5565b005b610ee560048036036040811015610ec357600080fd5b8101908080359060200190929190803515159060200190929190505050612be8565b6040518082815260200191505060405180910390f35b610f3d60048036036020811015610f1157600080fd5b81019080803573ffffffffffffffffffffffffffffffffffffffff169060200190929190505050612bff565b005b610f47612c17565b604051808215151515815260200191505060405180910390f35b600260009054906101000a900473ffffffffffffffffffffffffffffffffffffffff1681565b610f8f612da6565b610f9b82826000612e33565b5050565b6000806000610fce857f504552490000000000000000000000000000000000000000000000000000000061327a565b905080935081925050506000610ff4610fe56134ee565b836135d090919063ffffffff16565b9050848110611006576000935061101c565b61101981866135ec90919063ffffffff16565b93505b50509250929050565b61102d613675565b6110368161371c565b61103e613a98565b73ffffffffffffffffffffffffffffffffffffffff166304bd11e560016040518263ffffffff1660e01b81526004018082151515158152602001915050600060405180830381600087803b15801561109557600080fd5b505af11580156110a9573d6000803e3d6000fd5b5050505050565b6110b8613675565b80600160006101000a81548173ffffffffffffffffffffffffffffffffffffffff021916908373ffffffffffffffffffffffffffffffffffffffff1602179055507f906a1c6bd7e3091ea86693dd029a831c19049ce77f1dce2ce0bab1cacbabce2281604051808273ffffffffffffffffffffffffffffffffffffffff1673ffffffffffffffffffffffffffffffffffffffff16815260200191505060405180910390a150565b6060600083839050905060608160405190808252806020026020018201604052801561119a5781602001602082028038833980820191505090505b50905060008090505b8281101561124457600560008787848181106111bb57fe5b90506020020135815260200190815260200160002060009054906101000a900473ffffffffffffffffffffffffffffffffffffffff168282815181106111fd57fe5b602002602001019073ffffffffffffffffffffffffffffffffffffffff16908173ffffffffffffffffffffffffffffffffffffffff168152505080806001019150506111a3565b50809250505092915050565b600061125a613ac8565b905090565b600061126a82613baa565b9050919050565b6000606061127d611dbd565b905060008090505b815181101561143f57600082828151811061129c57fe5b602002602001015190506003600082815260200190815260200160002060009054906101000a900473ffffffffffffffffffffffffffffffffffffffff1673ffffffffffffffffffffffffffffffffffffffff16600260009054906101000a900473ffffffffffffffffffffffffffffffffffffffff1673ffffffffffffffffffffffffffffffffffffffff166321f8a721836040518263ffffffff1660e01b81526004018082815260200191505060206040518083038186803b15801561136357600080fd5b505afa158015611377573d6000803e3d6000fd5b505050506040513d602081101561138d57600080fd5b810190808051906020019092919050505073ffffffffffffffffffffffffffffffffffffffff161415806114205750600073ffffffffffffffffffffffffffffffffffffffff166003600083815260200190815260200160002060009054906101000a900473ffffffffffffffffffffffffffffffffffffffff1673ffffffffffffffffffffffffffffffffffffffff16145b156114315760009350505050611446565b508080600101915050611285565b5060019150505b90565b611451612da6565b61145b8282613bd8565b6114688260006001613d41565b5050565b600080600061147a84614016565b508093508194508295505050509193909250565b611496612da6565b6114a0828261409f565b6114ad8260006001612e33565b5050565b6114b9613675565b60006114c3613a98565b90508073ffffffffffffffffffffffffffffffffffffffff16638376a7828360006040518363ffffffff1660e01b81526004018083815260200182815260200192505050600060405180830381600087803b15801561152157600080fd5b505af1158015611535573d6000803e3d6000fd5b505050508073ffffffffffffffffffffffffffffffffffffffff166304bd11e560016040518263ffffffff1660e01b81526004018082151515158152602001915050600060405180830381600087803b15801561159157600080fd5b505af11580156115a5573d6000803e3d6000fd5b505050506115b282614208565b5050565b600160009054906101000a900473ffffffffffffffffffffffffffffffffffffffff1681565b6000806115e8836146cd565b50905080915050919050565b6115fc613675565b600082829050905060008090505b818110156116505761164384848381811061162157fe5b9050602002013573ffffffffffffffffffffffffffffffffffffffff1661371c565b808060010191505061160a565b50611659613a98565b73ffffffffffffffffffffffffffffffffffffffff166304bd11e560016040518263ffffffff1660e01b81526004018082151515158152602001915050600060405180830381600087803b1580156116b057600080fd5b505af11580156116c4573d6000803e3d6000fd5b50505050505050565b6116d5612da6565b6116e28160006001612e33565b50565b60056020528060005260406000206000915054906101000a900473ffffffffffffffffffffffffffffffffffffffff1681565b611720613675565b60008282905090506000611732613a98565b90506060826040519080825280602002602001820160405280156117655781602001602082028038833980820191505090505b5090508173ffffffffffffffffffffffffffffffffffffffff16639f98fb498686846040518463ffffffff1660e01b81526004018080602001806020018381038352868682818152602001925060200280828437600081840152601f19601f820116905080830192505050838103825284818151815260200191508051906020019060200280838360005b8381101561180b5780820151818401526020810190506117f0565b5050505090500195505050505050600060405180830381600087803b15801561183357600080fd5b505af1158015611847573d6000803e3d6000fd5b505050508173ffffffffffffffffffffffffffffffffffffffff166304bd11e560016040518263ffffffff1660e01b81526004018082151515158152602001915050600060405180830381600087803b1580156118a357600080fd5b505af11580156118b7573d6000803e3d6000fd5b5050505060008090505b838110156118f1576118e48686838181106118d857fe5b90506020020135614208565b80806001019150506118c1565b505050505050565b7f497373756572000000000000000000000000000000000000000000000000000081565b606061192960006147d0565b905090565b6060611938611dbd565b905060008090505b8151811015611b9357600082828151811061195757fe5b602002602001015190506000600260009054906101000a900473ffffffffffffffffffffffffffffffffffffffff1673ffffffffffffffffffffffffffffffffffffffff1663dacb2d01838460405160200180807f5265736f6c766572206d697373696e67207461726765743a20000000000000008152506019018281526020019150506040516020818303038152906040526040518363ffffffff1660e01b81526004018083815260200180602001828103825283818151815260200191508051906020019080838360005b83811015611a3f578082015181840152602081019050611a24565b50505050905090810190601f168015611a6c5780820380516001836020036101000a031916815260200191505b50935050505060206040518083038186803b158015611a8a57600080fd5b505afa158015611a9e573d6000803e3d6000fd5b505050506040513d6020811015611ab457600080fd5b81019080805190602001909291905050509050806003600084815260200190815260200160002060006101000a81548173ffffffffffffffffffffffffffffffffffffffff021916908373ffffffffffffffffffffffffffffffffffffffff1602179055507f88a93678a3692f6789d9546fc621bf7234b101ddb7d4fe479455112831b8aa688282604051808381526020018273ffffffffffffffffffffffffffffffffffffffff1673ffffffffffffffffffffffffffffffffffffffff1681526020019250505060405180910390a150508080600101915050611940565b5050565b600160009054906101000a900473ffffffffffffffffffffffffffffffffffffffff1673ffffffffffffffffffffffffffffffffffffffff163373ffffffffffffffffffffffffffffffffffffffff1614611c3d576040517f08c379a00000000000000000000000000000000000000000000000000000000081526004018080602001828103825260358152602001806169286035913960400191505060405180910390fd5b7fb532073b38c83145e3e5135377a08bf9aab55bc0fd7c1179cd4fb995d2a5159c6000809054906101000a900473ffffffffffffffffffffffffffffffffffffffff16600160009054906101000a900473ffffffffffffffffffffffffffffffffffffffff16604051808373ffffffffffffffffffffffffffffffffffffffff1673ffffffffffffffffffffffffffffffffffffffff1681526020018273ffffffffffffffffffffffffffffffffffffffff1673ffffffffffffffffffffffffffffffffffffffff1681526020019250505060405180910390a1600160009054906101000a900473ffffffffffffffffffffffffffffffffffffffff166000806101000a81548173ffffffffffffffffffffffffffffffffffffffff021916908373ffffffffffffffffffffffffffffffffffffffff1602179055506000600160006101000a81548173ffffffffffffffffffffffffffffffffffffffff021916908373ffffffffffffffffffffffffffffffffffffffff160217905550565b606080611dc861491b565b90506060600d604051908082528060200260200182016040528015611dfc5781602001602082028038833980820191505090505b5090507f5065726946696e0000000000000000000000000000000000000000000000000081600081518110611e2d57fe5b6020026020010181815250507f45786368616e676572000000000000000000000000000000000000000000000081600181518110611e6757fe5b6020026020010181815250507f45786368616e676552617465730000000000000000000000000000000000000081600281518110611ea157fe5b6020026020010181815250507f5065726946696e5374617465000000000000000000000000000000000000000081600381518110611edb57fe5b6020026020010181815250507f466565506f6f6c0000000000000000000000000000000000000000000000000081600481518110611f1557fe5b6020026020010181815250507f44656c6567617465417070726f76616c7300000000000000000000000000000081600581518110611f4f57fe5b6020026020010181815250507f4574686572436f6c6c61746572616c000000000000000000000000000000000081600681518110611f8957fe5b6020026020010181815250507f4574686572436f6c6c61746572616c705553440000000000000000000000000081600781518110611fc357fe5b6020026020010181815250507f526577617264457363726f77563200000000000000000000000000000000000081600881518110611ffd57fe5b6020026020010181815250507f5065726946696e457363726f77000000000000000000000000000000000000008160098151811061203757fe5b6020026020010181815250507f4c69717569646174696f6e73000000000000000000000000000000000000000081600a8151811061207157fe5b6020026020010181815250507f446562744361636865000000000000000000000000000000000000000000000081600b815181106120ab57fe5b6020026020010181815250507f436f6c6c61746572616c4d616e6167657200000000000000000000000000000081600c815181106120e557fe5b6020026020010181815250506120fb828261498d565b9250505090565b6000809054906101000a900473ffffffffffffffffffffffffffffffffffffffff1681565b6004818154811061213457fe5b906000526020600020016000915054906101000a900473ffffffffffffffffffffffffffffffffffffffff1681565b600061216e82614a60565b5080915050919050565b600061218382614ade565b9050919050565b600080612195612da6565b61219d614dc9565b73ffffffffffffffffffffffffffffffffffffffff1663d6f32e06847f70555344000000000000000000000000000000000000000000000000000000006040518363ffffffff1660e01b8152600401808373ffffffffffffffffffffffffffffffffffffffff1673ffffffffffffffffffffffffffffffffffffffff1681526020018281526020019250505060206040518083038186803b15801561224157600080fd5b505afa158015612255573d6000803e3d6000fd5b505050506040513d602081101561226b57600080fd5b8101908080519060200190929190505050156122ef576040517f08c379a00000000000000000000000000000000000000000000000000000000081526004018080602001828103825260188152602001807f70555344206e6565647320746f20626520736574746c6564000000000000000081525060200191505060405180910390fd5b6122f7614df9565b73ffffffffffffffffffffffffffffffffffffffff1663c49e80a6866040518263ffffffff1660e01b8152600401808273ffffffffffffffffffffffffffffffffffffffff1673ffffffffffffffffffffffffffffffffffffffff16815260200191505060206040518083038186803b15801561237357600080fd5b505afa158015612387573d6000803e3d6000fd5b505050506040513d602081101561239d57600080fd5b8101908080519060200190929190505050612420576040517f08c379a00000000000000000000000000000000000000000000000000000000081526004018080602001828103825260208152602001807f4163636f756e74206e6f74206f70656e20666f72206c69717569646174696f6e81525060200191505060405180910390fd5b83600560007f7055534400000000000000000000000000000000000000000000000000000000815260200190815260200160002060009054906101000a900473ffffffffffffffffffffffffffffffffffffffff1673ffffffffffffffffffffffffffffffffffffffff166370a08231856040518263ffffffff1660e01b8152600401808273ffffffffffffffffffffffffffffffffffffffff1673ffffffffffffffffffffffffffffffffffffffff16815260200191505060206040518083038186803b1580156124f157600080fd5b505afa158015612505573d6000803e3d6000fd5b505050506040513d602081101561251b57600080fd5b810190808051906020019092919050505010156125a0576040517f08c379a000000000000000000000000000000000000000000000000000000000815260040180806020018281038252600f8152602001807f4e6f7420656e6f7567682070555344000000000000000000000000000000000081525060200191505060405180910390fd5b60006125aa614df9565b73ffffffffffffffffffffffffffffffffffffffff166323f5589a6040518163ffffffff1660e01b815260040160206040518083038186803b1580156125ef57600080fd5b505afa158015612603573d6000803e3d6000fd5b505050506040513d602081101561261957600080fd5b81019080805190602001909291905050509050600080600061265b897f705553440000000000000000000000000000000000000000000000000000000061327a565b92509250925060008061266c614e29565b73ffffffffffffffffffffffffffffffffffffffff16630c71cd237f50455249000000000000000000000000000000000000000000000000000000006040518263ffffffff1660e01b815260040180828152602001915050604080518083038186803b1580156126db57600080fd5b505afa1580156126ef573d6000803e3d6000fd5b505050506040513d604081101561270557600080fd5b8101908080519060200190929190805190602001909291905050509150915061273583806127305750815b614e59565b60006127408c614ade565b9050600061274c614df9565b73ffffffffffffffffffffffffffffffffffffffff16630ac045d5886127728588614ed0565b6040518363ffffffff1660e01b8152600401808381526020018281526020019250505060206040518083038186803b1580156127ad57600080fd5b505afa1580156127c1573d6000803e3d6000fd5b505050506040513d60208110156127d757600080fd5b810190808051906020019092919050505090508b81106127f7578b6127f9565b805b985060006128078a86614eed565b90506128ac61289d8a73__$b8d33eeb36ac0d1e81cd70156e0043e778$__63907af6c06040518163ffffffff1660e01b815260040160206040518083038186803b15801561285457600080fd5b505af4158015612868573d6000803e3d6000fd5b505050506040513d602081101561287e57600080fd5b8101908080519060200190929190505050614f0a90919063ffffffff16565b82614f9290919063ffffffff16565b9a50828b111561296857829a5061296561295f6129508b73__$b8d33eeb36ac0d1e81cd70156e0043e778$__63907af6c06040518163ffffffff1660e01b815260040160206040518083038186803b15801561290757600080fd5b505af415801561291b573d6000803e3d6000fd5b505050506040513d602081101561293157600080fd5b8101908080519060200190929190505050614f0a90919063ffffffff16565b85614fbf90919063ffffffff16565b86614ed0565b99505b6129758e8d8c8b8b614ff5565b50818a1415612a1d57612986614df9565b73ffffffffffffffffffffffffffffffffffffffff1663974e9e7f8f6040518263ffffffff1660e01b8152600401808273ffffffffffffffffffffffffffffffffffffffff1673ffffffffffffffffffffffffffffffffffffffff168152602001915050600060405180830381600087803b158015612a0457600080fd5b505af1158015612a18573d6000803e3d6000fd5b505050505b505050505050505050935093915050565b600080612a3a83614a60565b91509150915091565b6000612a4d6134ee565b905090565b612a5a612da6565b612a6682826000613d41565b5050565b60066020528060005260406000206000915090505481565b600080612a8d615230565b905060008173ffffffffffffffffffffffffffffffffffffffff16638b3f8088866040518263ffffffff1660e01b8152600401808273ffffffffffffffffffffffffffffffffffffffff1673ffffffffffffffffffffffffffffffffffffffff168152602001915050604080518083038186803b158015612b0d57600080fd5b505afa158015612b21573d6000803e3d6000fd5b505050506040513d6040811015612b3757600080fd5b8101908080519060200190929190805190602001909291905050505090506000811415612b6957600092505050612b7d565b612b73858561327a565b9050508093505050505b92915050565b6000600480549050905090565b612b98612da6565b612ba28383613bd8565b612bae83826000613d41565b505050565b6000612bbe82615260565b9050919050565b612bcd612da6565b612bd7838361409f565b612be383826000612e33565b505050565b6000612bf483836153a1565b508091505092915050565b612c07612da6565b612c148160006001613d41565b50565b6000612c21614e29565b73ffffffffffffffffffffffffffffffffffffffff1663c8e5bbd5612c4660016147d0565b6040518263ffffffff1660e01b81526004018080602001828103825283818151815260200191508051906020019060200280838360005b83811015612c98578082015181840152602081019050612c7d565b505050509050019250505060006040518083038186803b158015612cbb57600080fd5b505afa158015612ccf573d6000803e3d6000fd5b505050506040513d6000823e3d601f19601f820116820180604052506040811015612cf957600080fd5b8101908080516040519392919084640100000000821115612d1957600080fd5b83820191506020820185811115612d2f57600080fd5b8251866020820283011164010000000082111715612d4c57600080fd5b8083526020830192505050908051906020019060200280838360005b83811015612d83578082015181840152602081019050612d68565b505050509050016040526020018051906020019092919050505090508091505090565b612dae615847565b73ffffffffffffffffffffffffffffffffffffffff163373ffffffffffffffffffffffffffffffffffffffff1614612e31576040517f08c379a00000000000000000000000000000000000000000000000000000000081526004018080602001828103825260398152602001806169ad6039913960400191505060405180910390fd5b565b806130be57612e4183613baa565b612eb3576040517f08c379a000000000000000000000000000000000000000000000000000000000815260040180806020018281038252601e8152602001807f4d696e696d756d207374616b652074696d65206e6f742072656163686564000081525060200191505060405180910390fd5b600080612ebe614dc9565b73ffffffffffffffffffffffffffffffffffffffff16631b16802c867f70555344000000000000000000000000000000000000000000000000000000006040518363ffffffff1660e01b8152600401808373ffffffffffffffffffffffffffffffffffffffff1673ffffffffffffffffffffffffffffffffffffffff16815260200182815260200192505050606060405180830381600087803b158015612f6457600080fd5b505af1158015612f78573d6000803e3d6000fd5b505050506040513d6060811015612f8e57600080fd5b81019080805190602001909291908051906020019092919080519060200190929190505050925092505060008111156130bb57612fc9614dc9565b73ffffffffffffffffffffffffffffffffffffffff16634c268fc8867f705553440000000000000000000000000000000000000000000000000000000087866040518563ffffffff1660e01b8152600401808573ffffffffffffffffffffffffffffffffffffffff1673ffffffffffffffffffffffffffffffffffffffff16815260200184815260200183815260200182815260200194505050505060206040518083038186803b15801561307d57600080fd5b505afa158015613091573d6000803e3d6000fd5b505050506040513d60208110156130a757600080fd5b810190808051906020019092919050505093505b50505b60008060006130ed867f705553440000000000000000000000000000000000000000000000000000000061327a565b9250925092506000806130ff886146cd565b91509150613114838061310f5750815b614e59565b6000851161318a576040517f08c379a00000000000000000000000000000000000000000000000000000000081526004018080602001828103825260128152602001807f4e6f206465627420746f20666f7267697665000000000000000000000000000081525060200191505060405180910390fd5b85156131a6576131a382866135ec90919063ffffffff16565b96505b60006131b5898a8a8989614ff5565b9050826131cb82886135ec90919063ffffffff16565b1161326f576131d8614df9565b73ffffffffffffffffffffffffffffffffffffffff1663974e9e7f8a6040518263ffffffff1660e01b8152600401808273ffffffffffffffffffffffffffffffffffffffff1673ffffffffffffffffffffffffffffffffffffffff168152602001915050600060405180830381600087803b15801561325657600080fd5b505af115801561326a573d6000803e3d6000fd5b505050505b505050505050505050565b600080600080613288615230565b90506000808273ffffffffffffffffffffffffffffffffffffffff16638b3f8088896040518263ffffffff1660e01b8152600401808273ffffffffffffffffffffffffffffffffffffffff1673ffffffffffffffffffffffffffffffffffffffff168152602001915050604080518083038186803b15801561330957600080fd5b505afa15801561331d573d6000803e3d6000fd5b505050506040513d604081101561333357600080fd5b8101908080519060200190929190805190602001909291905050509150915061335d8760016153a1565b8095508196505050600082141561338357600085858292509550955095505050506134e7565b60006134b5836134a78673ffffffffffffffffffffffffffffffffffffffff166308d95cd5866040518263ffffffff1660e01b81526004018082815260200191505060206040518083038186803b1580156133dd57600080fd5b505afa1580156133f1573d6000803e3d6000fd5b505050506040513d602081101561340757600080fd5b81019080805190602001909291905050508773ffffffffffffffffffffffffffffffffffffffff1663463177126040518163ffffffff1660e01b815260040160206040518083038186803b15801561345e57600080fd5b505afa158015613472573d6000803e3d6000fd5b505050506040513d602081101561348857600080fd5b810190808051906020019092919050505061587790919063ffffffff16565b61589390919063ffffffff16565b905060006134d4826134c6896158af565b61589390919063ffffffff16565b90506134df816158d5565b975050505050505b9250925092565b60006134f8615924565b73ffffffffffffffffffffffffffffffffffffffff166323257c2b7f53797374656d53657474696e67730000000000000000000000000000000000007f69737375616e6365526174696f000000000000000000000000000000000000006040518363ffffffff1660e01b8152600401808381526020018281526020019250505060206040518083038186803b15801561359057600080fd5b505afa1580156135a4573d6000803e3d6000fd5b505050506040513d60208110156135ba57600080fd5b8101908080519060200190929190505050905090565b60006135e48383601260ff16600a0a615954565b905092915050565b600082821115613664576040517f08c379a000000000000000000000000000000000000000000000000000000000815260040180806020018281038252601e8152602001807f536166654d6174683a207375627472616374696f6e206f766572666c6f77000081525060200191505060405180910390fd5b600082840390508091505092915050565b6000809054906101000a900473ffffffffffffffffffffffffffffffffffffffff1673ffffffffffffffffffffffffffffffffffffffff163373ffffffffffffffffffffffffffffffffffffffff161461371a576040517f08c379a000000000000000000000000000000000000000000000000000000000815260040180806020018281038252602f81526020018061695d602f913960400191505060405180910390fd5b565b60008173ffffffffffffffffffffffffffffffffffffffff1663dbd06c856040518163ffffffff1660e01b815260040160206040518083038186803b15801561376457600080fd5b505afa158015613778573d6000803e3d6000fd5b505050506040513d602081101561378e57600080fd5b81019080805190602001909291905050509050600073ffffffffffffffffffffffffffffffffffffffff166005600083815260200190815260200160002060009054906101000a900473ffffffffffffffffffffffffffffffffffffffff1673ffffffffffffffffffffffffffffffffffffffff1614613876576040517f08c379a000000000000000000000000000000000000000000000000000000000815260040180806020018281038252600c8152602001807f50796e746820657869737473000000000000000000000000000000000000000081525060200191505060405180910390fd5b6000801b600660008473ffffffffffffffffffffffffffffffffffffffff1673ffffffffffffffffffffffffffffffffffffffff168152602001908152602001600020541461392d576040517f08c379a000000000000000000000000000000000000000000000000000000000815260040180806020018281038252601c8152602001807f50796e7468206164647265737320616c7265616479206578697374730000000081525060200191505060405180910390fd5b60048290806001815401808255809150509060018203906000526020600020016000909192909190916101000a81548173ffffffffffffffffffffffffffffffffffffffff021916908373ffffffffffffffffffffffffffffffffffffffff16021790555050816005600083815260200190815260200160002060006101000a81548173ffffffffffffffffffffffffffffffffffffffff021916908373ffffffffffffffffffffffffffffffffffffffff16021790555080600660008473ffffffffffffffffffffffffffffffffffffffff1673ffffffffffffffffffffffffffffffffffffffff168152602001908152602001600020819055507fe82414a85733a2b51473d0ab66a73f2af64f044531104dc04ca01db8c9c5f5cf8183604051808381526020018273ffffffffffffffffffffffffffffffffffffffff1673ffffffffffffffffffffffffffffffffffffffff1681526020019250505060405180910390a15050565b6000613ac37f44656274436163686500000000000000000000000000000000000000000000006159af565b905090565b6000613ad2615924565b73ffffffffffffffffffffffffffffffffffffffff166323257c2b7f53797374656d53657474696e67730000000000000000000000000000000000007f6d696e696d756d5374616b6554696d65000000000000000000000000000000006040518363ffffffff1660e01b8152600401808381526020018281526020019250505060206040518083038186803b158015613b6a57600080fd5b505afa158015613b7e573d6000803e3d6000fd5b505050506040513d6020811015613b9457600080fd5b8101908080519060200190929190505050905090565b6000613bce613bb7613ac8565b613bc084615260565b614f0a90919063ffffffff16565b4210159050919050565b613be0615b11565b73ffffffffffffffffffffffffffffffffffffffff16630487261783836040518363ffffffff1660e01b8152600401808373ffffffffffffffffffffffffffffffffffffffff1673ffffffffffffffffffffffffffffffffffffffff1681526020018273ffffffffffffffffffffffffffffffffffffffff1673ffffffffffffffffffffffffffffffffffffffff1681526020019250505060206040518083038186803b158015613c9057600080fd5b505afa158015613ca4573d6000803e3d6000fd5b505050506040513d6020811015613cba57600080fd5b8101908080519060200190929190505050613d3d576040517f08c379a000000000000000000000000000000000000000000000000000000000815260040180806020018281038252601d8152602001807f4e6f7420617070726f76656420746f20616374206f6e20626568616c6600000081525060200191505060405180910390fd5b5050565b600080600080613d5087614016565b9350935093509350613d6181614e59565b84613de15783861115613ddc576040517f08c379a00000000000000000000000000000000000000000000000000000000081526004018080602001828103825260108152602001807f416d6f756e7420746f6f206c617267650000000000000000000000000000000081525060200191505060405180910390fd5b613de5565b8395505b613df187878585615b41565b613dfa87615fc4565b600560007f7055534400000000000000000000000000000000000000000000000000000000815260200190815260200160002060009054906101000a900473ffffffffffffffffffffffffffffffffffffffff1673ffffffffffffffffffffffffffffffffffffffff1663867904b488886040518363ffffffff1660e01b8152600401808373ffffffffffffffffffffffffffffffffffffffff1673ffffffffffffffffffffffffffffffffffffffff16815260200182815260200192505050600060405180830381600087803b158015613ed457600080fd5b505af1158015613ee8573d6000803e3d6000fd5b50505050613ef4613a98565b73ffffffffffffffffffffffffffffffffffffffff16638376a7827f705553440000000000000000000000000000000000000000000000000000000073__$b8d33eeb36ac0d1e81cd70156e0043e778$__63907af6c06040518163ffffffff1660e01b815260040160206040518083038186803b158015613f7457600080fd5b505af4158015613f88573d6000803e3d6000fd5b505050506040513d6020811015613f9e57600080fd5b81019080805190602001909291905050506040518363ffffffff1660e01b81526004018083815260200182815260200192505050600060405180830381600087803b158015613fec57600080fd5b505af1158015614000573d6000803e3d6000fd5b5050505061400d876160e6565b50505050505050565b600080600080614046857f705553440000000000000000000000000000000000000000000000000000000061327a565b80935081945082955050505060008061405e876146cd565b91509150819550828061406e5750805b92508585106140805760009550614096565b61409385876135ec90919063ffffffff16565b95505b50509193509193565b6140a7615b11565b73ffffffffffffffffffffffffffffffffffffffff16637d3f0ba283836040518363ffffffff1660e01b8152600401808373ffffffffffffffffffffffffffffffffffffffff1673ffffffffffffffffffffffffffffffffffffffff1681526020018273ffffffffffffffffffffffffffffffffffffffff1673ffffffffffffffffffffffffffffffffffffffff1681526020019250505060206040518083038186803b15801561415757600080fd5b505afa15801561416b573d6000803e3d6000fd5b505050506040513d602081101561418157600080fd5b8101908080519060200190929190505050614204576040517f08c379a000000000000000000000000000000000000000000000000000000000815260040180806020018281038252601d8152602001807f4e6f7420617070726f76656420746f20616374206f6e20626568616c6600000081525060200191505060405180910390fd5b5050565b60006005600083815260200190815260200160002060009054906101000a900473ffffffffffffffffffffffffffffffffffffffff169050600073ffffffffffffffffffffffffffffffffffffffff168173ffffffffffffffffffffffffffffffffffffffff1614156142e3576040517f08c379a00000000000000000000000000000000000000000000000000000000081526004018080602001828103825260148152602001807f50796e746820646f6573206e6f7420657869737400000000000000000000000081525060200191505060405180910390fd5b60008173ffffffffffffffffffffffffffffffffffffffff166318160ddd6040518163ffffffff1660e01b815260040160206040518083038186803b15801561432b57600080fd5b505afa15801561433f573d6000803e3d6000fd5b505050506040513d602081101561435557600080fd5b8101908080519060200190929190505050146143d9576040517f08c379a00000000000000000000000000000000000000000000000000000000081526004018080602001828103825260138152602001807f50796e746820737570706c79206578697374730000000000000000000000000081525060200191505060405180910390fd5b7f705553440000000000000000000000000000000000000000000000000000000082141561446f576040517f08c379a00000000000000000000000000000000000000000000000000000000081526004018080602001828103825260138152602001807f43616e6e6f742072656d6f76652070796e74680000000000000000000000000081525060200191505060405180910390fd5b60008090505b6004805490508110156145e4578173ffffffffffffffffffffffffffffffffffffffff16600482815481106144a657fe5b9060005260206000200160009054906101000a900473ffffffffffffffffffffffffffffffffffffffff1673ffffffffffffffffffffffffffffffffffffffff1614156145d757600481815481106144fa57fe5b9060005260206000200160006101000a81549073ffffffffffffffffffffffffffffffffffffffff021916905560046001600480549050038154811061453c57fe5b9060005260206000200160009054906101000a900473ffffffffffffffffffffffffffffffffffffffff166004828154811061457457fe5b9060005260206000200160006101000a81548173ffffffffffffffffffffffffffffffffffffffff021916908373ffffffffffffffffffffffffffffffffffffffff16021790555060048054809190600190036145d191906168d6565b506145e4565b8080600101915050614475565b50600660008273ffffffffffffffffffffffffffffffffffffffff1673ffffffffffffffffffffffffffffffffffffffff168152602001908152602001600020600090556005600083815260200190815260200160002060006101000a81549073ffffffffffffffffffffffffffffffffffffffff02191690557f1f2a4e9868db18b9d103e44efacb2690000d9d78bd600bf5f24757e13f0f891b8282604051808381526020018273ffffffffffffffffffffffffffffffffffffffff1673ffffffffffffffffffffffffffffffffffffffff1681526020019250505060405180910390a15050565b6000806000806146db614e29565b73ffffffffffffffffffffffffffffffffffffffff16630c71cd237f50455249000000000000000000000000000000000000000000000000000000006040518263ffffffff1660e01b815260040180828152602001915050604080518083038186803b15801561474a57600080fd5b505afa15801561475e573d6000803e3d6000fd5b505050506040513d604081101561477457600080fd5b8101908080519060200190929190805190602001909291905050509150915060006147a76147a187614ade565b84614ed0565b90506147c36147b46134ee565b82614f9290919063ffffffff16565b8294509450505050915091565b606080826147df5760006147e2565b60015b60ff166004805490500160405190808252806020026020018201604052801561481a5781602001602082028038833980820191505090505b50905060008090505b6004805490508110156148cc57600660006004838154811061484157fe5b9060005260206000200160009054906101000a900473ffffffffffffffffffffffffffffffffffffffff1673ffffffffffffffffffffffffffffffffffffffff1673ffffffffffffffffffffffffffffffffffffffff168152602001908152602001600020548282815181106148b357fe5b6020026020010181815250508080600101915050614823565b508215614912577f5045524900000000000000000000000000000000000000000000000000000000816004805490508151811061490557fe5b6020026020010181815250505b80915050919050565b6060600160405190808252806020026020018201604052801561494d5781602001602082028038833980820191505090505b5090507f466c657869626c6553746f7261676500000000000000000000000000000000008160008151811061497e57fe5b60200260200101818152505090565b606081518351016040519080825280602002602001820160405280156149c25781602001602082028038833980820191505090505b50905060008090505b8351811015614a0d578381815181106149e057fe5b60200260200101518282815181106149f457fe5b60200260200101818152505080806001019150506149cb565b5060008090505b8251811015614a5957828181518110614a2957fe5b6020026020010151828286510181518110614a4057fe5b6020026020010181815250508080600101915050614a14565b5092915050565b6000806000614a6e84614ade565b9050600080614a9d867f504552490000000000000000000000000000000000000000000000000000000061327a565b92505091506000831415614abd5760008181915094509450505050614ad9565b614ad083836135d090919063ffffffff16565b81945094505050505b915091565b600080614ae9615847565b73ffffffffffffffffffffffffffffffffffffffff166370a08231846040518263ffffffff1660e01b8152600401808273ffffffffffffffffffffffffffffffffffffffff1673ffffffffffffffffffffffffffffffffffffffff16815260200191505060206040518083038186803b158015614b6557600080fd5b505afa158015614b79573d6000803e3d6000fd5b505050506040513d6020811015614b8f57600080fd5b81019080805190602001909291905050509050600073ffffffffffffffffffffffffffffffffffffffff16614bc261626c565b73ffffffffffffffffffffffffffffffffffffffff1614614cb157614cae614be861626c565b73ffffffffffffffffffffffffffffffffffffffff166370a08231856040518263ffffffff1660e01b8152600401808273ffffffffffffffffffffffffffffffffffffffff1673ffffffffffffffffffffffffffffffffffffffff16815260200191505060206040518083038186803b158015614c6457600080fd5b505afa158015614c78573d6000803e3d6000fd5b505050506040513d6020811015614c8e57600080fd5b810190808051906020019092919050505082614f0a90919063ffffffff16565b90505b600073ffffffffffffffffffffffffffffffffffffffff16614cd161629c565b73ffffffffffffffffffffffffffffffffffffffff1614614dc057614dbd614cf761629c565b73ffffffffffffffffffffffffffffffffffffffff166370a08231856040518263ffffffff1660e01b8152600401808273ffffffffffffffffffffffffffffffffffffffff1673ffffffffffffffffffffffffffffffffffffffff16815260200191505060206040518083038186803b158015614d7357600080fd5b505afa158015614d87573d6000803e3d6000fd5b505050506040513d6020811015614d9d57600080fd5b810190808051906020019092919050505082614f0a90919063ffffffff16565b90505b80915050919050565b6000614df47f45786368616e67657200000000000000000000000000000000000000000000006159af565b905090565b6000614e247f4c69717569646174696f6e7300000000000000000000000000000000000000006159af565b905090565b6000614e547f45786368616e67655261746573000000000000000000000000000000000000006159af565b905090565b8015614ecd576040517f08c379a000000000000000000000000000000000000000000000000000000000815260040180806020018281038252601f8152602001807f412070796e7468206f722050455249207261746520697320696e76616c69640081525060200191505060405180910390fd5b50565b6000614ee582846162cc90919063ffffffff16565b905092915050565b6000614f0282846135d090919063ffffffff16565b905092915050565b600080828401905083811015614f88576040517f08c379a000000000000000000000000000000000000000000000000000000000815260040180806020018281038252601b8152602001807f536166654d6174683a206164646974696f6e206f766572666c6f77000000000081525060200191505060405180910390fd5b8091505092915050565b6000601260ff16600a0a614faf83856162e890919063ffffffff16565b81614fb657fe5b04905092915050565b6000614fed82614fdf601260ff16600a0a866162e890919063ffffffff16565b61636e90919063ffffffff16565b905092915050565b60008383106150045783615006565b825b9050615014868285856163fd565b600560007f7055534400000000000000000000000000000000000000000000000000000000815260200190815260200160002060009054906101000a900473ffffffffffffffffffffffffffffffffffffffff1673ffffffffffffffffffffffffffffffffffffffff16639dc29fac86836040518363ffffffff1660e01b8152600401808373ffffffffffffffffffffffffffffffffffffffff1673ffffffffffffffffffffffffffffffffffffffff16815260200182815260200192505050600060405180830381600087803b1580156150ee57600080fd5b505af1158015615102573d6000803e3d6000fd5b5050505061510e613a98565b73ffffffffffffffffffffffffffffffffffffffff16638376a7827f705553440000000000000000000000000000000000000000000000000000000073__$b8d33eeb36ac0d1e81cd70156e0043e778$__63907af6c06040518163ffffffff1660e01b815260040160206040518083038186803b15801561518e57600080fd5b505af41580156151a2573d6000803e3d6000fd5b505050506040513d60208110156151b857600080fd5b81019080805190602001909291905050506040518363ffffffff1660e01b81526004018083815260200182815260200192505050600060405180830381600087803b15801561520657600080fd5b505af115801561521a573d6000803e3d6000fd5b50505050615227866160e6565b95945050505050565b600061525b7f5065726946696e537461746500000000000000000000000000000000000000006159af565b905090565b600061526a615924565b73ffffffffffffffffffffffffffffffffffffffff166323257c2b7f49737375657200000000000000000000000000000000000000000000000000007f6c61737449737375654576656e7400000000000000000000000000000000000085604051602001808381526020018273ffffffffffffffffffffffffffffffffffffffff1673ffffffffffffffffffffffffffffffffffffffff1660601b815260140192505050604051602081830303815290604052805190602001206040518363ffffffff1660e01b8152600401808381526020018281526020019250505060206040518083038186803b15801561535f57600080fd5b505afa158015615373573d6000803e3d6000fd5b505050506040513d602081101561538957600080fd5b81019080805190602001909291905050509050919050565b60008060008060006153b1613a98565b73ffffffffffffffffffffffffffffffffffffffff16633a900a2e6040518163ffffffff1660e01b815260040160806040518083038186803b1580156153f657600080fd5b505afa15801561540a573d6000803e3d6000fd5b505050506040513d608081101561542057600080fd5b810190808051906020019092919080519060200190929190805190602001909291908051906020019092919050505093509350509250818061545f5750805b9350600061546b614e29565b9050866157465760008061547d6167bd565b73ffffffffffffffffffffffffffffffffffffffff16631e33fc6b6040518163ffffffff1660e01b8152600401604080518083038186803b1580156154c157600080fd5b505afa1580156154d5573d6000803e3d6000fd5b505050506040513d60408110156154eb57600080fd5b8101908080519060200190929190805190602001909291905050509150915061551d8287614f0a90919063ffffffff16565b955086806155285750805b96506155c46155356167ed565b73ffffffffffffffffffffffffffffffffffffffff166357b219206040518163ffffffff1660e01b815260040160206040518083038186803b15801561557a57600080fd5b505afa15801561558e573d6000803e3d6000fd5b505050506040513d60208110156155a457600080fd5b810190808051906020019092919050505087614f0a90919063ffffffff16565b95506000808473ffffffffffffffffffffffffffffffffffffffff16630c71cd237f70455448000000000000000000000000000000000000000000000000000000006040518263ffffffff1660e01b815260040180828152602001915050604080518083038186803b15801561563957600080fd5b505afa15801561564d573d6000803e3d6000fd5b505050506040513d604081101561566357600080fd5b81019080805190602001909291908051906020019092919050505091509150600061571e8361569061681d565b73ffffffffffffffffffffffffffffffffffffffff166357b219206040518163ffffffff1660e01b815260040160206040518083038186803b1580156156d557600080fd5b505afa1580156156e9573d6000803e3d6000fd5b505050506040513d60208110156156ff57600080fd5b81019080805190602001909291905050506162cc90919063ffffffff16565b9050615733818a614f0a90919063ffffffff16565b9850898061573e5750815b995050505050505b7f705553440000000000000000000000000000000000000000000000000000000088141561577d5783859550955050505050615840565b6000808273ffffffffffffffffffffffffffffffffffffffff16630c71cd238b6040518263ffffffff1660e01b815260040180828152602001915050604080518083038186803b1580156157d057600080fd5b505afa1580156157e4573d6000803e3d6000fd5b505050506040513d60408110156157fa57600080fd5b8101908080519060200190929190805190602001909291905050509150915061582c82876135d090919063ffffffff16565b87806158355750815b975097505050505050505b9250929050565b60006158727f5065726946696e000000000000000000000000000000000000000000000000006159af565b905090565b600061588b8383601b60ff16600a0a615954565b905092915050565b60006158a78383601b60ff16600a0a61684d565b905092915050565b60006158ce6012601b0360ff16600a0a836162e890919063ffffffff16565b9050919050565b600080600a6012601b0360ff16600a0a816158ec57fe5b0483816158f557fe5b0490506005600a828161590457fe5b061061591157600a810190505b600a818161591b57fe5b04915050919050565b600061594f7f466c657869626c6553746f7261676500000000000000000000000000000000006159af565b905090565b60008061597f84615971600a8602886162e890919063ffffffff16565b61636e90919063ffffffff16565b90506005600a828161598d57fe5b061061599a57600a810190505b600a81816159a457fe5b049150509392505050565b6000806003600084815260200190815260200160002060009054906101000a900473ffffffffffffffffffffffffffffffffffffffff169050600073ffffffffffffffffffffffffffffffffffffffff168173ffffffffffffffffffffffffffffffffffffffff1614158360405160200180807f4d697373696e6720616464726573733a2000000000000000000000000000000081525060110182815260200191505060405160208183030381529060405290615b07576040517f08c379a00000000000000000000000000000000000000000000000000000000081526004018080602001828103825283818151815260200191508051906020019080838360005b83811015615acc578082015181840152602081019050615ab1565b50505050905090810190601f168015615af95780820380516001836020036101000a031916815260200191505b509250505060405180910390fd5b5080915050919050565b6000615b3c7f44656c6567617465417070726f76616c730000000000000000000000000000006159af565b905090565b6000615b4b615230565b90506000615b628386614f0a90919063ffffffff16565b90506000615b79828761587790919063ffffffff16565b90506000615c0e8273__$b8d33eeb36ac0d1e81cd70156e0043e778$__63d5e5e6e66040518163ffffffff1660e01b815260040160206040518083038186803b158015615bc557600080fd5b505af4158015615bd9573d6000803e3d6000fd5b505050506040513d6020811015615bef57600080fd5b81019080805190602001909291905050506135ec90919063ffffffff16565b90506000861115615c4557615c3e83615c30888a614f0a90919063ffffffff16565b61587790919063ffffffff16565b9150615ca6565b8373ffffffffffffffffffffffffffffffffffffffff16631bfba5956040518163ffffffff1660e01b8152600401600060405180830381600087803b158015615c8d57600080fd5b505af1158015615ca1573d6000803e3d6000fd5b505050505b8373ffffffffffffffffffffffffffffffffffffffff1663a764eb4589846040518363ffffffff1660e01b8152600401808373ffffffffffffffffffffffffffffffffffffffff1673ffffffffffffffffffffffffffffffffffffffff16815260200182815260200192505050600060405180830381600087803b158015615d2d57600080fd5b505af1158015615d41573d6000803e3d6000fd5b5050505060008473ffffffffffffffffffffffffffffffffffffffff1663cd92eba96040518163ffffffff1660e01b815260040160206040518083038186803b158015615d8d57600080fd5b505afa158015615da1573d6000803e3d6000fd5b505050506040513d6020811015615db757600080fd5b81019080805190602001909291905050501115615ed0578373ffffffffffffffffffffffffffffffffffffffff16633d31e97b615e7d838773ffffffffffffffffffffffffffffffffffffffff1663463177126040518163ffffffff1660e01b815260040160206040518083038186803b158015615e3457600080fd5b505afa158015615e48573d6000803e3d6000fd5b505050506040513d6020811015615e5e57600080fd5b810190808051906020019092919050505061589390919063ffffffff16565b6040518263ffffffff1660e01b815260040180828152602001915050600060405180830381600087803b158015615eb357600080fd5b505af1158015615ec7573d6000803e3d6000fd5b50505050615fba565b8373ffffffffffffffffffffffffffffffffffffffff16633d31e97b73__$b8d33eeb36ac0d1e81cd70156e0043e778$__63d5e5e6e66040518163ffffffff1660e01b815260040160206040518083038186803b158015615f3057600080fd5b505af4158015615f44573d6000803e3d6000fd5b505050506040513d6020811015615f5a57600080fd5b81019080805190602001909291905050506040518263ffffffff1660e01b815260040180828152602001915050600060405180830381600087803b158015615fa157600080fd5b505af1158015615fb5573d6000803e3d6000fd5b505050505b5050505050505050565b615fcc615924565b73ffffffffffffffffffffffffffffffffffffffff16631d5b277f7f49737375657200000000000000000000000000000000000000000000000000007f6c61737449737375654576656e7400000000000000000000000000000000000084604051602001808381526020018273ffffffffffffffffffffffffffffffffffffffff1673ffffffffffffffffffffffffffffffffffffffff1660601b81526014019250505060405160208183030381529060405280519060200120426040518463ffffffff1660e01b8152600401808481526020018381526020018281526020019350505050600060405180830381600087803b1580156160cb57600080fd5b505af11580156160df573d6000803e3d6000fd5b5050505050565b6000806160f1615230565b73ffffffffffffffffffffffffffffffffffffffff16638b3f8088846040518263ffffffff1660e01b8152600401808273ffffffffffffffffffffffffffffffffffffffff1673ffffffffffffffffffffffffffffffffffffffff168152602001915050604080518083038186803b15801561616c57600080fd5b505afa158015616180573d6000803e3d6000fd5b505050506040513d604081101561619657600080fd5b81019080805190602001909291908051906020019092919050505080925081935050506161c16168a6565b73ffffffffffffffffffffffffffffffffffffffff1663866452748484846040518463ffffffff1660e01b8152600401808473ffffffffffffffffffffffffffffffffffffffff1673ffffffffffffffffffffffffffffffffffffffff1681526020018381526020018281526020019350505050600060405180830381600087803b15801561624f57600080fd5b505af1158015616263573d6000803e3d6000fd5b50505050505050565b60006162977f5065726946696e457363726f77000000000000000000000000000000000000006159af565b905090565b60006162c77f526577617264457363726f7756320000000000000000000000000000000000006159af565b905090565b60006162e08383601260ff16600a0a61684d565b905092915050565b6000808314156162fb5760009050616368565b600082840290508284828161630c57fe5b0414616363576040517f08c379a000000000000000000000000000000000000000000000000000000000815260040180806020018281038252602181526020018061698c6021913960400191505060405180910390fd5b809150505b92915050565b60008082116163e5576040517f08c379a000000000000000000000000000000000000000000000000000000000815260040180806020018281038252601a8152602001807f536166654d6174683a206469766973696f6e206279207a65726f00000000000081525060200191505060405180910390fd5b60008284816163f057fe5b0490508091505092915050565b6000616407615230565b9050600061641e85846135ec90919063ffffffff16565b9050600080905060008211156164da576000616443838861587790919063ffffffff16565b90506164d68173__$b8d33eeb36ac0d1e81cd70156e0043e778$__63d5e5e6e66040518163ffffffff1660e01b815260040160206040518083038186803b15801561648d57600080fd5b505af41580156164a1573d6000803e3d6000fd5b505050506040513d60208110156164b757600080fd5b8101908080519060200190929190505050614f0a90919063ffffffff16565b9150505b848614156165e7578273ffffffffffffffffffffffffffffffffffffffff1663a764eb458860006040518363ffffffff1660e01b8152600401808373ffffffffffffffffffffffffffffffffffffffff1673ffffffffffffffffffffffffffffffffffffffff16815260200182815260200192505050600060405180830381600087803b15801561656a57600080fd5b505af115801561657e573d6000803e3d6000fd5b505050508273ffffffffffffffffffffffffffffffffffffffff1663ba08f2996040518163ffffffff1660e01b8152600401600060405180830381600087803b1580156165ca57600080fd5b505af11580156165de573d6000803e3d6000fd5b505050506166b7565b60006165fc87876135ec90919063ffffffff16565b90506000616613848361587790919063ffffffff16565b90508473ffffffffffffffffffffffffffffffffffffffff1663a764eb458a836040518363ffffffff1660e01b8152600401808373ffffffffffffffffffffffffffffffffffffffff1673ffffffffffffffffffffffffffffffffffffffff16815260200182815260200192505050600060405180830381600087803b15801561669c57600080fd5b505af11580156166b0573d6000803e3d6000fd5b5050505050505b8273ffffffffffffffffffffffffffffffffffffffff16633d31e97b616766838673ffffffffffffffffffffffffffffffffffffffff1663463177126040518163ffffffff1660e01b815260040160206040518083038186803b15801561671d57600080fd5b505afa158015616731573d6000803e3d6000fd5b505050506040513d602081101561674757600080fd5b810190808051906020019092919050505061589390919063ffffffff16565b6040518263ffffffff1660e01b815260040180828152602001915050600060405180830381600087803b15801561679c57600080fd5b505af11580156167b0573d6000803e3d6000fd5b5050505050505050505050565b60006167e87f436f6c6c61746572616c4d616e616765720000000000000000000000000000006159af565b905090565b60006168187f4574686572436f6c6c61746572616c70555344000000000000000000000000006159af565b905090565b60006168487f4574686572436f6c6c61746572616c00000000000000000000000000000000006159af565b905090565b600080600a838161685a57fe5b0461686e85876162e890919063ffffffff16565b8161687557fe5b0490506005600a828161688457fe5b061061689157600a810190505b600a818161689b57fe5b049150509392505050565b60006168d17f466565506f6f6c000000000000000000000000000000000000000000000000006159af565b905090565b8154818355818111156168fd578183600052602060002091820191016168fc9190616902565b5b505050565b61692491905b80821115616920576000816000905550600101616908565b5090565b9056fe596f75206d757374206265206e6f6d696e61746564206265666f726520796f752063616e20616363657074206f776e6572736869704f6e6c792074686520636f6e7472616374206f776e6572206d617920706572666f726d207468697320616374696f6e536166654d6174683a206d756c7469706c69636174696f6e206f766572666c6f774973737565723a204f6e6c7920746865207065726966696e20636f6e74726163742063616e20706572666f726d207468697320616374696f6ea265627a7a72315820e9c2c475e02e628777a6acee29c7561f8b69a29ce518003a340f42e137bfc7c064736f6c63430005100032",
  "linkReferences": {
    "contracts/SafeDecimalMath.sol": {
      "SafeDecimalMath": [
        {
          "length": 20,
          "start": 10809
        },
        {
          "length": 20,
          "start": 10988
        },
        {
          "length": 20,
          "start": 16729
        },
        {
          "length": 20,
          "start": 21363
        },
        {
          "length": 20,
          "start": 23978
        },
        {
          "length": 20,
          "start": 24853
        },
        {
          "length": 20,
          "start": 26226
        }
      ]
    }
  },
  "deployedLinkReferences": {
    "contracts/SafeDecimalMath.sol": {
      "SafeDecimalMath": [
        {
          "length": 20,
          "start": 10258
        },
        {
          "length": 20,
          "start": 10437
        },
        {
          "length": 20,
          "start": 16178
        },
        {
          "length": 20,
          "start": 20812
        },
        {
          "length": 20,
          "start": 23427
        },
        {
          "length": 20,
          "start": 24302
        },
        {
          "length": 20,
          "start": 25675
        }
      ]
    }
  }
}