{
  "_format": "hh-sol-artifact-1",
  "contractName": "EtherCollateralpUSD",
  "sourceName": "contracts/EtherCollateralpUSD.sol",
  "abi": [
    {
      "inputs": [
        {
          "internalType": "address",
          "name": "_owner",
          "type": "address"
        },
        {
          "internalType": "address",
          "name": "_resolver",
          "type": "address"
        }
      ],
      "payable": false,
      "stateMutability": "nonpayable",
      "type": "constructor"
    },
    {
      "anonymous": false,
      "inputs": [
        {
          "indexed": false,
          "internalType": "uint256",
          "name": "loanLimit",
          "type": "uint256"
        }
      ],
      "name": "AccountLoanLimitUpdated",
      "type": "event"
    },
    {
      "anonymous": false,
      "inputs": [
        {
          "indexed": false,
          "internalType": "bytes32",
          "name": "name",
          "type": "bytes32"
        },
        {
          "indexed": false,
          "internalType": "address",
          "name": "destination",
          "type": "address"
        }
      ],
      "name": "CacheUpdated",
      "type": "event"
    },
    {
      "anonymous": false,
      "inputs": [
        {
          "indexed": true,
          "internalType": "address",
          "name": "account",
          "type": "address"
        },
        {
          "indexed": false,
          "internalType": "uint256",
          "name": "loanID",
          "type": "uint256"
        },
        {
          "indexed": false,
          "internalType": "uint256",
          "name": "collateralAmount",
          "type": "uint256"
        },
        {
          "indexed": false,
          "internalType": "uint256",
          "name": "collateralAfter",
          "type": "uint256"
        }
      ],
      "name": "CollateralDeposited",
      "type": "event"
    },
    {
      "anonymous": false,
      "inputs": [
        {
          "indexed": true,
          "internalType": "address",
          "name": "account",
          "type": "address"
        },
        {
          "indexed": false,
          "internalType": "uint256",
          "name": "loanID",
          "type": "uint256"
        },
        {
          "indexed": false,
          "internalType": "uint256",
          "name": "amountWithdrawn",
          "type": "uint256"
        },
        {
          "indexed": false,
          "internalType": "uint256",
          "name": "collateralAfter",
          "type": "uint256"
        }
      ],
      "name": "CollateralWithdrawn",
      "type": "event"
    },
    {
      "anonymous": false,
      "inputs": [
        {
          "indexed": false,
          "internalType": "uint256",
          "name": "ratio",
          "type": "uint256"
        }
      ],
      "name": "CollateralizationRatioUpdated",
      "type": "event"
    },
    {
      "anonymous": false,
      "inputs": [
        {
          "indexed": false,
          "internalType": "uint256",
          "name": "interestRate",
          "type": "uint256"
        }
      ],
      "name": "InterestRateUpdated",
      "type": "event"
    },
    {
      "anonymous": false,
      "inputs": [
        {
          "indexed": false,
          "internalType": "uint256",
          "name": "issueFeeRate",
          "type": "uint256"
        }
      ],
      "name": "IssueFeeRateUpdated",
      "type": "event"
    },
    {
      "anonymous": false,
      "inputs": [
        {
          "indexed": false,
          "internalType": "uint256",
          "name": "issueLimit",
          "type": "uint256"
        }
      ],
      "name": "IssueLimitUpdated",
      "type": "event"
    },
    {
      "anonymous": false,
      "inputs": [
        {
          "indexed": false,
          "internalType": "uint256",
          "name": "ratio",
          "type": "uint256"
        }
      ],
      "name": "LiquidationRatioUpdated",
      "type": "event"
    },
    {
      "anonymous": false,
      "inputs": [
        {
          "indexed": true,
          "internalType": "address",
          "name": "account",
          "type": "address"
        },
        {
          "indexed": false,
          "internalType": "uint256",
          "name": "loanID",
          "type": "uint256"
        },
        {
          "indexed": false,
          "internalType": "uint256",
          "name": "feesPaid",
          "type": "uint256"
        }
      ],
      "name": "LoanClosed",
      "type": "event"
    },
    {
      "anonymous": false,
      "inputs": [
        {
          "indexed": true,
          "internalType": "address",
          "name": "account",
          "type": "address"
        },
        {
          "indexed": false,
          "internalType": "uint256",
          "name": "loanID",
          "type": "uint256"
        },
        {
          "indexed": false,
          "internalType": "uint256",
          "name": "amount",
          "type": "uint256"
        }
      ],
      "name": "LoanCreated",
      "type": "event"
    },
    {
      "anonymous": false,
      "inputs": [
        {
          "indexed": true,
          "internalType": "address",
          "name": "account",
          "type": "address"
        },
        {
          "indexed": false,
          "internalType": "uint256",
          "name": "loanID",
          "type": "uint256"
        },
        {
          "indexed": false,
          "internalType": "address",
          "name": "liquidator",
          "type": "address"
        }
      ],
      "name": "LoanLiquidated",
      "type": "event"
    },
    {
      "anonymous": false,
      "inputs": [
        {
          "indexed": false,
          "internalType": "bool",
          "name": "loanLiquidationOpen",
          "type": "bool"
        }
      ],
      "name": "LoanLiquidationOpenUpdated",
      "type": "event"
    },
    {
      "anonymous": false,
      "inputs": [
        {
          "indexed": true,
          "internalType": "address",
          "name": "account",
          "type": "address"
        },
        {
          "indexed": false,
          "internalType": "uint256",
          "name": "loanID",
          "type": "uint256"
        },
        {
          "indexed": false,
          "internalType": "address",
          "name": "liquidator",
          "type": "address"
        },
        {
          "indexed": false,
          "internalType": "uint256",
          "name": "liquidatedAmount",
          "type": "uint256"
        },
        {
          "indexed": false,
          "internalType": "uint256",
          "name": "liquidatedCollateral",
          "type": "uint256"
        }
      ],
      "name": "LoanPartiallyLiquidated",
      "type": "event"
    },
    {
      "anonymous": false,
      "inputs": [
        {
          "indexed": true,
          "internalType": "address",
          "name": "account",
          "type": "address"
        },
        {
          "indexed": false,
          "internalType": "uint256",
          "name": "loanID",
          "type": "uint256"
        },
        {
          "indexed": false,
          "internalType": "uint256",
          "name": "repaidAmount",
          "type": "uint256"
        },
        {
          "indexed": false,
          "internalType": "uint256",
          "name": "newLoanAmount",
          "type": "uint256"
        }
      ],
      "name": "LoanRepaid",
      "type": "event"
    },
    {
      "anonymous": false,
      "inputs": [
        {
          "indexed": false,
          "internalType": "uint256",
          "name": "minLoanCollateralSize",
          "type": "uint256"
        }
      ],
      "name": "MinLoanCollateralSizeUpdated",
      "type": "event"
    },
    {
      "anonymous": false,
      "inputs": [
        {
          "indexed": false,
          "internalType": "address",
          "name": "oldOwner",
          "type": "address"
        },
        {
          "indexed": false,
          "internalType": "address",
          "name": "newOwner",
          "type": "address"
        }
      ],
      "name": "OwnerChanged",
      "type": "event"
    },
    {
      "anonymous": false,
      "inputs": [
        {
          "indexed": false,
          "internalType": "address",
          "name": "newOwner",
          "type": "address"
        }
      ],
      "name": "OwnerNominated",
      "type": "event"
    },
    {
      "anonymous": false,
      "inputs": [
        {
          "indexed": false,
          "internalType": "bool",
          "name": "isPaused",
          "type": "bool"
        }
      ],
      "name": "PauseChanged",
      "type": "event"
    },
    {
      "constant": true,
      "inputs": [],
      "name": "COLLATERAL",
      "outputs": [
        {
          "internalType": "bytes32",
          "name": "",
          "type": "bytes32"
        }
      ],
      "payable": false,
      "stateMutability": "view",
      "type": "function"
    },
    {
      "constant": false,
      "inputs": [],
      "name": "acceptOwnership",
      "outputs": [],
      "payable": false,
      "stateMutability": "nonpayable",
      "type": "function"
    },
    {
      "constant": true,
      "inputs": [],
      "name": "accountLoanLimit",
      "outputs": [
        {
          "internalType": "uint256",
          "name": "",
          "type": "uint256"
        }
      ],
      "payable": false,
      "stateMutability": "view",
      "type": "function"
    },
    {
      "constant": true,
      "inputs": [
        {
          "internalType": "address",
          "name": "",
          "type": "address"
        }
      ],
      "name": "accountOpenLoanCounter",
      "outputs": [
        {
          "internalType": "uint256",
          "name": "",
          "type": "uint256"
        }
      ],
      "payable": false,
      "stateMutability": "view",
      "type": "function"
    },
    {
      "constant": true,
      "inputs": [
        {
          "internalType": "address",
          "name": "",
          "type": "address"
        },
        {
          "internalType": "uint256",
          "name": "",
          "type": "uint256"
        }
      ],
      "name": "accountsPynthLoans",
      "outputs": [
        {
          "internalType": "address payable",
          "name": "account",
          "type": "address"
        },
        {
          "internalType": "uint256",
          "name": "collateralAmount",
          "type": "uint256"
        },
        {
          "internalType": "uint256",
          "name": "loanAmount",
          "type": "uint256"
        },
        {
          "internalType": "uint256",
          "name": "mintingFee",
          "type": "uint256"
        },
        {
          "internalType": "uint256",
          "name": "timeCreated",
          "type": "uint256"
        },
        {
          "internalType": "uint256",
          "name": "loanID",
          "type": "uint256"
        },
        {
          "internalType": "uint256",
          "name": "timeClosed",
          "type": "uint256"
        },
        {
          "internalType": "uint256",
          "name": "loanInterestRate",
          "type": "uint256"
        },
        {
          "internalType": "uint256",
          "name": "accruedInterest",
          "type": "uint256"
        },
        {
          "internalType": "uint40",
          "name": "lastInterestAccrued",
          "type": "uint40"
        }
      ],
      "payable": false,
      "stateMutability": "view",
      "type": "function"
    },
    {
      "constant": true,
      "inputs": [
        {
          "internalType": "uint256",
          "name": "_loanAmount",
          "type": "uint256"
        },
        {
          "internalType": "uint256",
          "name": "_seconds",
          "type": "uint256"
        }
      ],
      "name": "accruedInterestOnLoan",
      "outputs": [
        {
          "internalType": "uint256",
          "name": "interestAmount",
          "type": "uint256"
        }
      ],
      "payable": false,
      "stateMutability": "view",
      "type": "function"
    },
    {
      "constant": true,
      "inputs": [
        {
          "internalType": "uint256",
          "name": "debtBalance",
          "type": "uint256"
        },
        {
          "internalType": "uint256",
          "name": "collateral",
          "type": "uint256"
        }
      ],
      "name": "calculateAmountToLiquidate",
      "outputs": [
        {
          "internalType": "uint256",
          "name": "",
          "type": "uint256"
        }
      ],
      "payable": false,
      "stateMutability": "view",
      "type": "function"
    },
    {
      "constant": false,
      "inputs": [
        {
          "internalType": "uint256",
          "name": "loanID",
          "type": "uint256"
        }
      ],
      "name": "closeLoan",
      "outputs": [],
      "payable": false,
      "stateMutability": "nonpayable",
      "type": "function"
    },
    {
      "constant": true,
      "inputs": [
        {
          "internalType": "uint256",
          "name": "loanAmount",
          "type": "uint256"
        }
      ],
      "name": "collateralAmountForLoan",
      "outputs": [
        {
          "internalType": "uint256",
          "name": "",
          "type": "uint256"
        }
      ],
      "payable": false,
      "stateMutability": "view",
      "type": "function"
    },
    {
      "constant": true,
      "inputs": [],
      "name": "collateralizationRatio",
      "outputs": [
        {
          "internalType": "uint256",
          "name": "",
          "type": "uint256"
        }
      ],
      "payable": false,
      "stateMutability": "view",
      "type": "function"
    },
    {
      "constant": true,
      "inputs": [
        {
          "internalType": "address",
          "name": "_account",
          "type": "address"
        },
        {
          "internalType": "uint256",
          "name": "_loanID",
          "type": "uint256"
        }
      ],
      "name": "currentInterestOnLoan",
      "outputs": [
        {
          "internalType": "uint256",
          "name": "",
          "type": "uint256"
        }
      ],
      "payable": false,
      "stateMutability": "view",
      "type": "function"
    },
    {
      "constant": false,
      "inputs": [
        {
          "internalType": "address",
          "name": "account",
          "type": "address"
        },
        {
          "internalType": "uint256",
          "name": "loanID",
          "type": "uint256"
        }
      ],
      "name": "depositCollateral",
      "outputs": [],
      "payable": true,
      "stateMutability": "payable",
      "type": "function"
    },
    {
      "constant": true,
      "inputs": [],
      "name": "getContractInfo",
      "outputs": [
        {
          "internalType": "uint256",
          "name": "_collateralizationRatio",
          "type": "uint256"
        },
        {
          "internalType": "uint256",
          "name": "_issuanceRatio",
          "type": "uint256"
        },
        {
          "internalType": "uint256",
          "name": "_interestRate",
          "type": "uint256"
        },
        {
          "internalType": "uint256",
          "name": "_interestPerSecond",
          "type": "uint256"
        },
        {
          "internalType": "uint256",
          "name": "_issueFeeRate",
          "type": "uint256"
        },
        {
          "internalType": "uint256",
          "name": "_issueLimit",
          "type": "uint256"
        },
        {
          "internalType": "uint256",
          "name": "_minLoanCollateralSize",
          "type": "uint256"
        },
        {
          "internalType": "uint256",
          "name": "_totalIssuedPynths",
          "type": "uint256"
        },
        {
          "internalType": "uint256",
          "name": "_totalLoansCreated",
          "type": "uint256"
        },
        {
          "internalType": "uint256",
          "name": "_totalOpenLoanCount",
          "type": "uint256"
        },
        {
          "internalType": "uint256",
          "name": "_ethBalance",
          "type": "uint256"
        },
        {
          "internalType": "uint256",
          "name": "_liquidationDeadline",
          "type": "uint256"
        },
        {
          "internalType": "bool",
          "name": "_loanLiquidationOpen",
          "type": "bool"
        }
      ],
      "payable": false,
      "stateMutability": "view",
      "type": "function"
    },
    {
      "constant": true,
      "inputs": [
        {
          "internalType": "address",
          "name": "_account",
          "type": "address"
        },
        {
          "internalType": "uint256",
          "name": "_loanID",
          "type": "uint256"
        }
      ],
      "name": "getLoan",
      "outputs": [
        {
          "internalType": "address",
          "name": "account",
          "type": "address"
        },
        {
          "internalType": "uint256",
          "name": "collateralAmount",
          "type": "uint256"
        },
        {
          "internalType": "uint256",
          "name": "loanAmount",
          "type": "uint256"
        },
        {
          "internalType": "uint256",
          "name": "timeCreated",
          "type": "uint256"
        },
        {
          "internalType": "uint256",
          "name": "loanID",
          "type": "uint256"
        },
        {
          "internalType": "uint256",
          "name": "timeClosed",
          "type": "uint256"
        },
        {
          "internalType": "uint256",
          "name": "accruedInterest",
          "type": "uint256"
        },
        {
          "internalType": "uint256",
          "name": "totalFees",
          "type": "uint256"
        }
      ],
      "payable": false,
      "stateMutability": "view",
      "type": "function"
    },
    {
      "constant": true,
      "inputs": [
        {
          "internalType": "address",
          "name": "_account",
          "type": "address"
        },
        {
          "internalType": "uint256",
          "name": "_loanID",
          "type": "uint256"
        }
      ],
      "name": "getLoanCollateralRatio",
      "outputs": [
        {
          "internalType": "uint256",
          "name": "loanCollateralRatio",
          "type": "uint256"
        }
      ],
      "payable": false,
      "stateMutability": "view",
      "type": "function"
    },
    {
      "constant": true,
      "inputs": [
        {
          "internalType": "address",
          "name": "_account",
          "type": "address"
        },
        {
          "internalType": "uint256",
          "name": "_loanID",
          "type": "uint256"
        }
      ],
      "name": "getMintingFee",
      "outputs": [
        {
          "internalType": "uint256",
          "name": "",
          "type": "uint256"
        }
      ],
      "payable": false,
      "stateMutability": "view",
      "type": "function"
    },
    {
      "constant": true,
      "inputs": [],
      "name": "interestPerSecond",
      "outputs": [
        {
          "internalType": "uint256",
          "name": "",
          "type": "uint256"
        }
      ],
      "payable": false,
      "stateMutability": "view",
      "type": "function"
    },
    {
      "constant": true,
      "inputs": [],
      "name": "interestRate",
      "outputs": [
        {
          "internalType": "uint256",
          "name": "",
          "type": "uint256"
        }
      ],
      "payable": false,
      "stateMutability": "view",
      "type": "function"
    },
    {
      "constant": true,
      "inputs": [],
      "name": "isResolverCached",
      "outputs": [
        {
          "internalType": "bool",
          "name": "",
          "type": "bool"
        }
      ],
      "payable": false,
      "stateMutability": "view",
      "type": "function"
    },
    {
      "constant": true,
      "inputs": [],
      "name": "issuanceRatio",
      "outputs": [
        {
          "internalType": "uint256",
          "name": "",
          "type": "uint256"
        }
      ],
      "payable": false,
      "stateMutability": "view",
      "type": "function"
    },
    {
      "constant": true,
      "inputs": [],
      "name": "issueFeeRate",
      "outputs": [
        {
          "internalType": "uint256",
          "name": "",
          "type": "uint256"
        }
      ],
      "payable": false,
      "stateMutability": "view",
      "type": "function"
    },
    {
      "constant": true,
      "inputs": [],
      "name": "issueLimit",
      "outputs": [
        {
          "internalType": "uint256",
          "name": "",
          "type": "uint256"
        }
      ],
      "payable": false,
      "stateMutability": "view",
      "type": "function"
    },
    {
      "constant": true,
      "inputs": [],
      "name": "lastPauseTime",
      "outputs": [
        {
          "internalType": "uint256",
          "name": "",
          "type": "uint256"
        }
      ],
      "payable": false,
      "stateMutability": "view",
      "type": "function"
    },
    {
      "constant": false,
      "inputs": [
        {
          "internalType": "address",
          "name": "_loanCreatorsAddress",
          "type": "address"
        },
        {
          "internalType": "uint256",
          "name": "_loanID",
          "type": "uint256"
        },
        {
          "internalType": "uint256",
          "name": "_debtToCover",
          "type": "uint256"
        }
      ],
      "name": "liquidateLoan",
      "outputs": [],
      "payable": false,
      "stateMutability": "nonpayable",
      "type": "function"
    },
    {
      "constant": false,
      "inputs": [
        {
          "internalType": "address",
          "name": "_loanCreatorsAddress",
          "type": "address"
        },
        {
          "internalType": "uint256",
          "name": "_loanID",
          "type": "uint256"
        }
      ],
      "name": "liquidateUnclosedLoan",
      "outputs": [],
      "payable": false,
      "stateMutability": "nonpayable",
      "type": "function"
    },
    {
      "constant": true,
      "inputs": [],
      "name": "liquidationDeadline",
      "outputs": [
        {
          "internalType": "uint256",
          "name": "",
          "type": "uint256"
        }
      ],
      "payable": false,
      "stateMutability": "view",
      "type": "function"
    },
    {
      "constant": true,
      "inputs": [],
      "name": "liquidationPenalty",
      "outputs": [
        {
          "internalType": "uint256",
          "name": "",
          "type": "uint256"
        }
      ],
      "payable": false,
      "stateMutability": "view",
      "type": "function"
    },
    {
      "constant": true,
      "inputs": [],
      "name": "liquidationRatio",
      "outputs": [
        {
          "internalType": "uint256",
          "name": "",
          "type": "uint256"
        }
      ],
      "payable": false,
      "stateMutability": "view",
      "type": "function"
    },
    {
      "constant": true,
      "inputs": [
        {
          "internalType": "uint256",
          "name": "collateralAmount",
          "type": "uint256"
        }
      ],
      "name": "loanAmountFromCollateral",
      "outputs": [
        {
          "internalType": "uint256",
          "name": "",
          "type": "uint256"
        }
      ],
      "payable": false,
      "stateMutability": "view",
      "type": "function"
    },
    {
      "constant": true,
      "inputs": [],
      "name": "loanLiquidationOpen",
      "outputs": [
        {
          "internalType": "bool",
          "name": "",
          "type": "bool"
        }
      ],
      "payable": false,
      "stateMutability": "view",
      "type": "function"
    },
    {
      "constant": true,
      "inputs": [],
      "name": "minLoanCollateralSize",
      "outputs": [
        {
          "internalType": "uint256",
          "name": "",
          "type": "uint256"
        }
      ],
      "payable": false,
      "stateMutability": "view",
      "type": "function"
    },
    {
      "constant": false,
      "inputs": [
        {
          "internalType": "address",
          "name": "_owner",
          "type": "address"
        }
      ],
      "name": "nominateNewOwner",
      "outputs": [],
      "payable": false,
      "stateMutability": "nonpayable",
      "type": "function"
    },
    {
      "constant": true,
      "inputs": [],
      "name": "nominatedOwner",
      "outputs": [
        {
          "internalType": "address",
          "name": "",
          "type": "address"
        }
      ],
      "payable": false,
      "stateMutability": "view",
      "type": "function"
    },
    {
      "constant": false,
      "inputs": [
        {
          "internalType": "uint256",
          "name": "_loanAmount",
          "type": "uint256"
        }
      ],
      "name": "openLoan",
      "outputs": [
        {
          "internalType": "uint256",
          "name": "loanID",
          "type": "uint256"
        }
      ],
      "payable": true,
      "stateMutability": "payable",
      "type": "function"
    },
    {
      "constant": true,
      "inputs": [
        {
          "internalType": "address",
          "name": "_account",
          "type": "address"
        }
      ],
      "name": "openLoanIDsByAccount",
      "outputs": [
        {
          "internalType": "uint256[]",
          "name": "",
          "type": "uint256[]"
        }
      ],
      "payable": false,
      "stateMutability": "view",
      "type": "function"
    },
    {
      "constant": true,
      "inputs": [],
      "name": "owner",
      "outputs": [
        {
          "internalType": "address",
          "name": "",
          "type": "address"
        }
      ],
      "payable": false,
      "stateMutability": "view",
      "type": "function"
    },
    {
      "constant": true,
      "inputs": [],
      "name": "paused",
      "outputs": [
        {
          "internalType": "bool",
          "name": "",
          "type": "bool"
        }
      ],
      "payable": false,
      "stateMutability": "view",
      "type": "function"
    },
    {
      "constant": false,
      "inputs": [],
      "name": "rebuildCache",
      "outputs": [],
      "payable": false,
      "stateMutability": "nonpayable",
      "type": "function"
    },
    {
      "constant": false,
      "inputs": [
        {
          "internalType": "address",
          "name": "_loanCreatorsAddress",
          "type": "address"
        },
        {
          "internalType": "uint256",
          "name": "_loanID",
          "type": "uint256"
        },
        {
          "internalType": "uint256",
          "name": "_repayAmount",
          "type": "uint256"
        }
      ],
      "name": "repayLoan",
      "outputs": [],
      "payable": false,
      "stateMutability": "nonpayable",
      "type": "function"
    },
    {
      "constant": true,
      "inputs": [],
      "name": "resolver",
      "outputs": [
        {
          "internalType": "contract AddressResolver",
          "name": "",
          "type": "address"
        }
      ],
      "payable": false,
      "stateMutability": "view",
      "type": "function"
    },
    {
      "constant": true,
      "inputs": [],
      "name": "resolverAddressesRequired",
      "outputs": [
        {
          "internalType": "bytes32[]",
          "name": "addresses",
          "type": "bytes32[]"
        }
      ],
      "payable": false,
      "stateMutability": "view",
      "type": "function"
    },
    {
      "constant": false,
      "inputs": [
        {
          "internalType": "uint256",
          "name": "_loanLimit",
          "type": "uint256"
        }
      ],
      "name": "setAccountLoanLimit",
      "outputs": [],
      "payable": false,
      "stateMutability": "nonpayable",
      "type": "function"
    },
    {
      "constant": false,
      "inputs": [
        {
          "internalType": "uint256",
          "name": "ratio",
          "type": "uint256"
        }
      ],
      "name": "setCollateralizationRatio",
      "outputs": [],
      "payable": false,
      "stateMutability": "nonpayable",
      "type": "function"
    },
    {
      "constant": false,
      "inputs": [
        {
          "internalType": "uint256",
          "name": "_interestRate",
          "type": "uint256"
        }
      ],
      "name": "setInterestRate",
      "outputs": [],
      "payable": false,
      "stateMutability": "nonpayable",
      "type": "function"
    },
    {
      "constant": false,
      "inputs": [
        {
          "internalType": "uint256",
          "name": "_issueFeeRate",
          "type": "uint256"
        }
      ],
      "name": "setIssueFeeRate",
      "outputs": [],
      "payable": false,
      "stateMutability": "nonpayable",
      "type": "function"
    },
    {
      "constant": false,
      "inputs": [
        {
          "internalType": "uint256",
          "name": "_issueLimit",
          "type": "uint256"
        }
      ],
      "name": "setIssueLimit",
      "outputs": [],
      "payable": false,
      "stateMutability": "nonpayable",
      "type": "function"
    },
    {
      "constant": false,
      "inputs": [
        {
          "internalType": "uint256",
          "name": "_liquidationRatio",
          "type": "uint256"
        }
      ],
      "name": "setLiquidationRatio",
      "outputs": [],
      "payable": false,
      "stateMutability": "nonpayable",
      "type": "function"
    },
    {
      "constant": false,
      "inputs": [
        {
          "internalType": "bool",
          "name": "_loanLiquidationOpen",
          "type": "bool"
        }
      ],
      "name": "setLoanLiquidationOpen",
      "outputs": [],
      "payable": false,
      "stateMutability": "nonpayable",
      "type": "function"
    },
    {
      "constant": false,
      "inputs": [
        {
          "internalType": "uint256",
          "name": "_minLoanCollateralSize",
          "type": "uint256"
        }
      ],
      "name": "setMinLoanCollateralSize",
      "outputs": [],
      "payable": false,
      "stateMutability": "nonpayable",
      "type": "function"
    },
    {
      "constant": false,
      "inputs": [
        {
          "internalType": "bool",
          "name": "_paused",
          "type": "bool"
        }
      ],
      "name": "setPaused",
      "outputs": [],
      "payable": false,
      "stateMutability": "nonpayable",
      "type": "function"
    },
    {
      "constant": true,
      "inputs": [
        {
          "internalType": "address",
          "name": "_account",
          "type": "address"
        },
        {
          "internalType": "uint256",
          "name": "_loanID",
          "type": "uint256"
        }
      ],
      "name": "timeSinceInterestAccrualOnLoan",
      "outputs": [
        {
          "internalType": "uint256",
          "name": "",
          "type": "uint256"
        }
      ],
      "payable": false,
      "stateMutability": "view",
      "type": "function"
    },
    {
      "constant": true,
      "inputs": [
        {
          "internalType": "address",
          "name": "_account",
          "type": "address"
        },
        {
          "internalType": "uint256",
          "name": "_loanID",
          "type": "uint256"
        }
      ],
      "name": "totalFeesOnLoan",
      "outputs": [
        {
          "internalType": "uint256",
          "name": "interestAmount",
          "type": "uint256"
        },
        {
          "internalType": "uint256",
          "name": "mintingFee",
          "type": "uint256"
        }
      ],
      "payable": false,
      "stateMutability": "view",
      "type": "function"
    },
    {
      "constant": true,
      "inputs": [],
      "name": "totalIssuedPynths",
      "outputs": [
        {
          "internalType": "uint256",
          "name": "",
          "type": "uint256"
        }
      ],
      "payable": false,
      "stateMutability": "view",
      "type": "function"
    },
    {
      "constant": true,
      "inputs": [],
      "name": "totalLoansCreated",
      "outputs": [
        {
          "internalType": "uint256",
          "name": "",
          "type": "uint256"
        }
      ],
      "payable": false,
      "stateMutability": "view",
      "type": "function"
    },
    {
      "constant": true,
      "inputs": [],
      "name": "totalOpenLoanCount",
      "outputs": [
        {
          "internalType": "uint256",
          "name": "",
          "type": "uint256"
        }
      ],
      "payable": false,
      "stateMutability": "view",
      "type": "function"
    },
    {
      "constant": false,
      "inputs": [
        {
          "internalType": "uint256",
          "name": "loanID",
          "type": "uint256"
        },
        {
          "internalType": "uint256",
          "name": "withdrawAmount",
          "type": "uint256"
        }
      ],
      "name": "withdrawCollateral",
      "outputs": [],
      "payable": false,
      "stateMutability": "nonpayable",
      "type": "function"
    }
  ],
  "bytecode": "0x6080604052609673__$b8d33eeb36ac0d1e81cd70156e0043e778$__63907af6c06040518163ffffffff1660e01b815260040160206040518083038186803b1580156200004b57600080fd5b505af415801562000060573d6000803e3d6000fd5b505050506040513d60208110156200007757600080fd5b810190808051906020019092919050505002600755606473__$b8d33eeb36ac0d1e81cd70156e0043e778$__63907af6c06040518163ffffffff1660e01b815260040160206040518083038186803b158015620000d357600080fd5b505af4158015620000e8573d6000803e3d6000fd5b505050506040513d6020811015620000ff57600080fd5b8101908080519060200190929190505050600502816200011b57fe5b046008556200013f6301e133806008546200071b60201b62005aa11790919060201c565b6009556103e873__$b8d33eeb36ac0d1e81cd70156e0043e778$__63907af6c06040518163ffffffff1660e01b815260040160206040518083038186803b1580156200018a57600080fd5b505af41580156200019f573d6000803e3d6000fd5b505050506040513d6020811015620001b657600080fd5b810190808051906020019092919050505060050281620001d257fe5b04600a556298968073__$b8d33eeb36ac0d1e81cd70156e0043e778$__63907af6c06040518163ffffffff1660e01b815260040160206040518083038186803b1580156200021f57600080fd5b505af415801562000234573d6000803e3d6000fd5b505050506040513d60208110156200024b57600080fd5b810190808051906020019092919050505002600b55600173__$b8d33eeb36ac0d1e81cd70156e0043e778$__63907af6c06040518163ffffffff1660e01b815260040160206040518083038186803b158015620002a757600080fd5b505af4158015620002bc573d6000803e3d6000fd5b505050506040513d6020811015620002d357600080fd5b810190808051906020019092919050505002600c556032600d556000600e60006101000a81548160ff021916908315150217905550606473__$b8d33eeb36ac0d1e81cd70156e0043e778$__63907af6c06040518163ffffffff1660e01b815260040160206040518083038186803b1580156200034f57600080fd5b505af415801562000364573d6000803e3d6000fd5b505050506040513d60208110156200037b57600080fd5b8101908080519060200190929190505050609602816200039757fe5b04601055600a73__$b8d33eeb36ac0d1e81cd70156e0043e778$__63907af6c06040518163ffffffff1660e01b815260040160206040518083038186803b158015620003e257600080fd5b505af4158015620003f7573d6000803e3d6000fd5b505050506040513d60208110156200040e57600080fd5b8101908080519060200190929190505050816200042757fe5b046011553480156200043857600080fd5b50604051620070dd380380620070dd833981810160405260408110156200045e57600080fd5b8101908080519060200190929190805190602001909291905050508082600073ffffffffffffffffffffffffffffffffffffffff168173ffffffffffffffffffffffffffffffffffffffff1614156200051f576040517f08c379a00000000000000000000000000000000000000000000000000000000081526004018080602001828103825260198152602001807f4f776e657220616464726573732063616e6e6f7420626520300000000000000081525060200191505060405180910390fd5b806000806101000a81548173ffffffffffffffffffffffffffffffffffffffff021916908373ffffffffffffffffffffffffffffffffffffffff1602179055507fb532073b38c83145e3e5135377a08bf9aab55bc0fd7c1179cd4fb995d2a5159c600082604051808373ffffffffffffffffffffffffffffffffffffffff1673ffffffffffffffffffffffffffffffffffffffff1681526020018273ffffffffffffffffffffffffffffffffffffffff1673ffffffffffffffffffffffffffffffffffffffff1681526020019250505060405180910390a150600073ffffffffffffffffffffffffffffffffffffffff166000809054906101000a900473ffffffffffffffffffffffffffffffffffffffff1673ffffffffffffffffffffffffffffffffffffffff161415620006bd576040517f08c379a00000000000000000000000000000000000000000000000000000000081526004018080602001828103825260118152602001807f4f776e6572206d7573742062652073657400000000000000000000000000000081525060200191505060405180910390fd5b600160048190555080600560006101000a81548173ffffffffffffffffffffffffffffffffffffffff021916908373ffffffffffffffffffffffffffffffffffffffff1602179055505062794a004201600f819055505050620007ac565b600080821162000793576040517f08c379a000000000000000000000000000000000000000000000000000000000815260040180806020018281038252601a8152602001807f536166654d6174683a206469766973696f6e206279207a65726f00000000000081525060200191505060405180910390fd5b60008284816200079f57fe5b0490508091505092915050565b61692180620007bc6000396000f3fe60806040526004361061036b5760003560e01c8063767a7b05116101c6578063a5d5db0c116100f7578063e220a81111610095578063e5829d201161006f578063e5829d2014611289578063eea8f5da146112c4578063f45f08fb146112ef578063f53dfb841461135e5761036b565b8063e220a811146111d4578063e3c1e58c1461122f578063e40108ed1461125e5761036b565b8063b410a034116100d1578063b410a03414611106578063bb8c6d6c14611131578063d05951a01461116e578063dcaf9c44146111a95761036b565b8063a5d5db0c14610f95578063a76cdfa514610fe3578063ab6a34fa1461101e5761036b565b80638da5cb5b11610164578063946ce8cd1161013e578063946ce8cd14610e0a5780639f7d568814610e45578063a1c5158614610e70578063a2e1734214610f3c5761036b565b80638da5cb5b14610d395780638fdc8f3b14610d9057806391b4ded914610ddf5761036b565b80637cc1f867116101a05780637cc1f86714610b7657806380a5d3d814610bf9578063899ffef414610c5e57806389c937de14610cca5761036b565b8063767a7b0514610aef57806379ba509714610b345780637c3a00fd14610b4b5761036b565b806339735e37116102a057806357b219201161023e5780635f84f302116102185780635f84f302146109fc57806360655ba714610a37578063675969be14610aad5780637418536014610ad85761036b565b806357b21920146109675780635c975abb146109925780635d1a2229146109c15761036b565b80634f069f661161027a5780634f069f66146108245780634f11815c1461085f57806353a47bb7146108ce57806354e3e70d146109255761036b565b806339735e37146107315780634189bb491461078a578063462b9725146107b55761036b565b806323aa7f0f1161030d5780632af64bd3116102e75780632af64bd3146105cc5780632f2bf15b146105fb578063361e2086146106a157806338458571146106cc5761036b565b806323aa7f0f1461054b57806323f5589a1461057657806324bbab8b146105a15761036b565b80631627540c116103495780631627540c1461045757806316c38b3c146104a85780631775765f146104e557806317da255e146105105761036b565b806304f3bcec14610370578063089f7fb4146103c75780631474b2791461042c575b600080fd5b34801561037c57600080fd5b506103856113ad565b604051808273ffffffffffffffffffffffffffffffffffffffff1673ffffffffffffffffffffffffffffffffffffffff16815260200191505060405180910390f35b3480156103d357600080fd5b50610416600480360360208110156103ea57600080fd5b81019080803573ffffffffffffffffffffffffffffffffffffffff1690602001909291905050506113d3565b6040518082815260200191505060405180910390f35b34801561043857600080fd5b506104416113eb565b6040518082815260200191505060405180910390f35b34801561046357600080fd5b506104a66004803603602081101561047a57600080fd5b81019080803573ffffffffffffffffffffffffffffffffffffffff1690602001909291905050506113f1565b005b3480156104b457600080fd5b506104e3600480360360208110156104cb57600080fd5b810190808035151590602001909291905050506114a0565b005b3480156104f157600080fd5b506104fa61154d565b6040518082815260200191505060405180910390f35b34801561051c57600080fd5b506105496004803603602081101561053357600080fd5b8101908080359060200190929190505050611553565b005b34801561055757600080fd5b5061056061159e565b6040518082815260200191505060405180910390f35b34801561058257600080fd5b5061058b6115a4565b6040518082815260200191505060405180910390f35b3480156105ad57600080fd5b506105b66115aa565b6040518082815260200191505060405180910390f35b3480156105d857600080fd5b506105e16115ce565b604051808215151515815260200191505060405180910390f35b34801561060757600080fd5b5061064a6004803603602081101561061e57600080fd5b81019080803573ffffffffffffffffffffffffffffffffffffffff1690602001909291905050506117a6565b6040518080602001828103825283818151815260200191508051906020019060200280838360005b8381101561068d578082015181840152602081019050610672565b505050509050019250505060405180910390f35b3480156106ad57600080fd5b506106b6611a48565b6040518082815260200191505060405180910390f35b3480156106d857600080fd5b5061072f600480360360608110156106ef57600080fd5b81019080803573ffffffffffffffffffffffffffffffffffffffff1690602001909291908035906020019092919080359060200190929190505050611a4e565b005b34801561073d57600080fd5b506107746004803603604081101561075457600080fd5b810190808035906020019092919080359060200190929190505050612214565b6040518082815260200191505060405180910390f35b34801561079657600080fd5b5061079f612324565b6040518082815260200191505060405180910390f35b3480156107c157600080fd5b5061080e600480360360408110156107d857600080fd5b81019080803573ffffffffffffffffffffffffffffffffffffffff1690602001909291908035906020019092919050505061232a565b6040518082815260200191505060405180910390f35b34801561083057600080fd5b5061085d6004803603602081101561084757600080fd5b810190808035906020019092919050505061234e565b005b34801561086b57600080fd5b506108b86004803603604081101561088257600080fd5b81019080803573ffffffffffffffffffffffffffffffffffffffff16906020019092919080359060200190929190505050612399565b6040518082815260200191505060405180910390f35b3480156108da57600080fd5b506108e36123c1565b604051808273ffffffffffffffffffffffffffffffffffffffff1673ffffffffffffffffffffffffffffffffffffffff16815260200191505060405180910390f35b6109516004803603602081101561093b57600080fd5b81019080803590602001909291905050506123e7565b6040518082815260200191505060405180910390f35b34801561097357600080fd5b5061097c612ce5565b6040518082815260200191505060405180910390f35b34801561099e57600080fd5b506109a7612ceb565b604051808215151515815260200191505060405180910390f35b3480156109cd57600080fd5b506109fa600480360360208110156109e457600080fd5b8101908080359060200190929190505050612cfe565b005b348015610a0857600080fd5b50610a3560048036036020811015610a1f57600080fd5b8101908080359060200190929190505050612da3565b005b348015610a4357600080fd5b50610a9060048036036040811015610a5a57600080fd5b81019080803573ffffffffffffffffffffffffffffffffffffffff16906020019092919080359060200190929190505050612f3e565b604051808381526020018281526020019250505060405180910390f35b348015610ab957600080fd5b50610ac2612fb0565b6040518082815260200191505060405180910390f35b348015610ae457600080fd5b50610aed612fb6565b005b348015610afb57600080fd5b50610b3260048036036040811015610b1257600080fd5b81019080803590602001909291908035906020019092919050505061321f565b005b348015610b4057600080fd5b50610b496136e8565b005b348015610b5757600080fd5b50610b6061390e565b6040518082815260200191505060405180910390f35b348015610b8257600080fd5b50610b8b613914565b604051808e81526020018d81526020018c81526020018b81526020018a8152602001898152602001888152602001878152602001868152602001858152602001848152602001838152602001821515151581526020019d505050505050505050505050505060405180910390f35b348015610c0557600080fd5b50610c5c60048036036060811015610c1c57600080fd5b81019080803573ffffffffffffffffffffffffffffffffffffffff1690602001909291908035906020019092919080359060200190929190505050613988565b005b348015610c6a57600080fd5b50610c73613dfa565b6040518080602001828103825283818151815260200191508051906020019060200280838360005b83811015610cb6578082015181840152602081019050610c9b565b505050509050019250505060405180910390f35b348015610cd657600080fd5b50610d2360048036036040811015610ced57600080fd5b81019080803573ffffffffffffffffffffffffffffffffffffffff16906020019092919080359060200190929190505050613f1a565b6040518082815260200191505060405180910390f35b348015610d4557600080fd5b50610d4e613f83565b604051808273ffffffffffffffffffffffffffffffffffffffff1673ffffffffffffffffffffffffffffffffffffffff16815260200191505060405180910390f35b348015610d9c57600080fd5b50610dc960048036036020811015610db357600080fd5b8101908080359060200190929190505050613fa8565b6040518082815260200191505060405180910390f35b348015610deb57600080fd5b50610df461408f565b6040518082815260200191505060405180910390f35b348015610e1657600080fd5b50610e4360048036036020811015610e2d57600080fd5b8101908080359060200190929190505050614095565b005b348015610e5157600080fd5b50610e5a6141d3565b6040518082815260200191505060405180910390f35b348015610e7c57600080fd5b50610ec960048036036040811015610e9357600080fd5b81019080803573ffffffffffffffffffffffffffffffffffffffff169060200190929190803590602001909291905050506141d9565b604051808973ffffffffffffffffffffffffffffffffffffffff1673ffffffffffffffffffffffffffffffffffffffff1681526020018881526020018781526020018681526020018581526020018481526020018381526020018281526020019850505050505050505060405180910390f35b348015610f4857600080fd5b50610f7f60048036036040811015610f5f57600080fd5b810190808035906020019092919080359060200190929190505050614290565b6040518082815260200191505060405180910390f35b610fe160048036036040811015610fab57600080fd5b81019080803573ffffffffffffffffffffffffffffffffffffffff169060200190929190803590602001909291905050506142c1565b005b348015610fef57600080fd5b5061101c6004803603602081101561100657600080fd5b8101908080359060200190929190505050614515565b005b34801561102a57600080fd5b506110776004803603604081101561104157600080fd5b81019080803573ffffffffffffffffffffffffffffffffffffffff16906020019092919080359060200190929190505050614560565b604051808b73ffffffffffffffffffffffffffffffffffffffff1673ffffffffffffffffffffffffffffffffffffffff1681526020018a81526020018981526020018881526020018781526020018681526020018581526020018481526020018381526020018264ffffffffff1664ffffffffff1681526020019a505050505050505050505060405180910390f35b34801561111257600080fd5b5061111b6145ff565b6040518082815260200191505060405180910390f35b34801561113d57600080fd5b5061116c6004803603602081101561115457600080fd5b81019080803515159060200190929190505050614624565b005b34801561117a57600080fd5b506111a76004803603602081101561119157600080fd5b810190808035906020019092919050505061470a565b005b3480156111b557600080fd5b506111be6148cf565b6040518082815260200191505060405180910390f35b3480156111e057600080fd5b5061122d600480360360408110156111f757600080fd5b81019080803573ffffffffffffffffffffffffffffffffffffffff169060200190929190803590602001909291905050506148d5565b005b34801561123b57600080fd5b50611244614b9f565b604051808215151515815260200191505060405180910390f35b34801561126a57600080fd5b50611273614bb2565b6040518082815260200191505060405180910390f35b34801561129557600080fd5b506112c2600480360360208110156112ac57600080fd5b8101908080359060200190929190505050614bb8565b005b3480156112d057600080fd5b506112d9614cff565b6040518082815260200191505060405180910390f35b3480156112fb57600080fd5b506113486004803603604081101561131257600080fd5b81019080803573ffffffffffffffffffffffffffffffffffffffff16906020019092919080359060200190929190505050614d05565b6040518082815260200191505060405180910390f35b34801561136a57600080fd5b506113976004803603602081101561138157600080fd5b8101908080359060200190929190505050614d32565b6040518082815260200191505060405180910390f35b600560009054906101000a900473ffffffffffffffffffffffffffffffffffffffff1681565b60166020528060005260406000206000915090505481565b600d5481565b6113f9614e2f565b80600160006101000a81548173ffffffffffffffffffffffffffffffffffffffff021916908373ffffffffffffffffffffffffffffffffffffffff1602179055507f906a1c6bd7e3091ea86693dd029a831c19049ce77f1dce2ce0bab1cacbabce2281604051808273ffffffffffffffffffffffffffffffffffffffff1673ffffffffffffffffffffffffffffffffffffffff16815260200191505060405180910390a150565b6114a8614e2f565b600360009054906101000a900460ff16151581151514156114c85761154a565b80600360006101000a81548160ff021916908315150217905550600360009054906101000a900460ff16156114ff57426002819055505b7f8fb6c181ee25a520cf3dd6565006ef91229fcfe5a989566c2a3b8c115570cec5600360009054906101000a900460ff16604051808215151515815260200191505060405180910390a15b50565b60105481565b61155b614e2f565b80600c819055507f9f45df4d81199bea8f20e88707b6f7d36b8e8f20a7def01c113746f67557ffb6600c546040518082815260200191505060405180910390a150565b60135481565b60115481565b7f455448000000000000000000000000000000000000000000000000000000000081565b600060606115da613dfa565b905060008090505b815181101561179c5760008282815181106115f957fe5b602002602001015190506006600082815260200190815260200160002060009054906101000a900473ffffffffffffffffffffffffffffffffffffffff1673ffffffffffffffffffffffffffffffffffffffff16600560009054906101000a900473ffffffffffffffffffffffffffffffffffffffff1673ffffffffffffffffffffffffffffffffffffffff166321f8a721836040518263ffffffff1660e01b81526004018082815260200191505060206040518083038186803b1580156116c057600080fd5b505afa1580156116d4573d6000803e3d6000fd5b505050506040513d60208110156116ea57600080fd5b810190808051906020019092919050505073ffffffffffffffffffffffffffffffffffffffff1614158061177d5750600073ffffffffffffffffffffffffffffffffffffffff166006600083815260200190815260200160002060009054906101000a900473ffffffffffffffffffffffffffffffffffffffff1673ffffffffffffffffffffffffffffffffffffffff16145b1561178e57600093505050506117a3565b5080806001019150506115e2565b5060019150505b90565b606080601560008473ffffffffffffffffffffffffffffffffffffffff1673ffffffffffffffffffffffffffffffffffffffff168152602001908152602001600020805480602002602001604051908101604052809291908181526020016000905b8282101561190a57838290600052602060002090600a0201604051806101400160405290816000820160009054906101000a900473ffffffffffffffffffffffffffffffffffffffff1673ffffffffffffffffffffffffffffffffffffffff1673ffffffffffffffffffffffffffffffffffffffff16815260200160018201548152602001600282015481526020016003820154815260200160048201548152602001600582015481526020016006820154815260200160078201548152602001600882015481526020016009820160009054906101000a900464ffffffffff1664ffffffffff1664ffffffffff168152505081526020019060010190611808565b505050509050606081516040519080825280602002602001820160405280156119425781602001602082028038833980820191505090505b509050600080905060008090505b83518110156119bf57600084828151811061196757fe5b602002602001015160c0015114156119b25783818151811061198557fe5b602002602001015160a0015183838151811061199d57fe5b60200260200101818152505081806001019250505b8080600101915050611950565b506060816040519080825280602002602001820160405280156119f15781602001602082028038833980820191505090505b50905060008090505b82811015611a3b57838181518110611a0e57fe5b6020026020010151828281518110611a2257fe5b60200260200101818152505080806001019150506119fa565b5080945050505050919050565b600a5481565b600160046000828254019250508190555060006004549050611a6e614ed6565b73ffffffffffffffffffffffffffffffffffffffff16632528f0fe7f45544800000000000000000000000000000000000000000000000000000000006040518263ffffffff1660e01b81526004018082815260200191505060206040518083038186803b158015611ade57600080fd5b505afa158015611af2573d6000803e3d6000fd5b505050506040513d6020811015611b0857600080fd5b810190808051906020019092919050505015611b8c576040517f08c379a000000000000000000000000000000000000000000000000000000000815260040180806020018281038252601e8152602001807f426c6f636b656420617320455448207261746520697320696e76616c6964000081525060200191505060405180910390fd5b611b94614f06565b73ffffffffffffffffffffffffffffffffffffffff1663086dabd16040518163ffffffff1660e01b815260040160006040518083038186803b158015611bd957600080fd5b505afa158015611bed573d6000803e3d6000fd5b5050505081611bfa614f36565b73ffffffffffffffffffffffffffffffffffffffff166370a08231336040518263ffffffff1660e01b8152600401808273ffffffffffffffffffffffffffffffffffffffff1673ffffffffffffffffffffffffffffffffffffffff16815260200191505060206040518083038186803b158015611c7657600080fd5b505afa158015611c8a573d6000803e3d6000fd5b505050506040513d6020811015611ca057600080fd5b81019080805190602001909291905050501015611d25576040517f08c379a00000000000000000000000000000000000000000000000000000000081526004018080602001828103825260178152602001807f4e6f7420656e6f75676820705553442062616c616e636500000000000000000081525060200191505060405180910390fd5b611d2d616592565b611d378585614f66565b9050611d4281615138565b6000806000611d508461522f565b9250925092506010548310611db0576040517f08c379a00000000000000000000000000000000000000000000000000000000081526004018080602001828103825260288152602001806166036028913960400191505060405180910390fd5b6000611de9611de383611dd5886101000151896040015161536190919063ffffffff16565b61536190919063ffffffff16565b84612214565b90506000878210611dfa5787611dfc565b815b9050611e06614f36565b73ffffffffffffffffffffffffffffffffffffffff16639dc29fac33836040518363ffffffff1660e01b8152600401808373ffffffffffffffffffffffffffffffffffffffff1673ffffffffffffffffffffffffffffffffffffffff16815260200182815260200192505050600060405180830381600087803b158015611e8c57600080fd5b505af1158015611ea0573d6000803e3d6000fd5b505050506000806000611ecf84611ec5888c610100015161536190919063ffffffff16565b8b604001516153e9565b50925092509250611ee08383615477565b6000611eea614ed6565b73ffffffffffffffffffffffffffffffffffffffff1663654a60ac7f7055534400000000000000000000000000000000000000000000000000000000877f45544800000000000000000000000000000000000000000000000000000000006040518463ffffffff1660e01b815260040180848152602001838152602001828152602001935050505060206040518083038186803b158015611f8a57600080fd5b505afa158015611f9e573d6000803e3d6000fd5b505050506040513d6020811015611fb457600080fd5b81019080805190602001909291905050509050600061206e61205f60115473__$b8d33eeb36ac0d1e81cd70156e0043e778$__63907af6c06040518163ffffffff1660e01b815260040160206040518083038186803b15801561201657600080fd5b505af415801561202a573d6000803e3d6000fd5b505050506040513d602081101561204057600080fd5b810190808051906020019092919050505061536190919063ffffffff16565b836155d690919063ffffffff16565b90506120928b61208b868e6040015161560390919063ffffffff16565b854261568c565b6120b28b6120ad838e6020015161560390919063ffffffff16565b6157a6565b503373ffffffffffffffffffffffffffffffffffffffff166108fc829081150290604051600060405180830381858888f193505050501580156120f9573d6000803e3d6000fd5b508e73ffffffffffffffffffffffffffffffffffffffff167fb6e43890aeea54fbe6c0ed628e78172a0ff30bbcb1d70d8b130b12c366bac4c58f338985604051808581526020018473ffffffffffffffffffffffffffffffffffffffff1673ffffffffffffffffffffffffffffffffffffffff16815260200183815260200182815260200194505050505060405180910390a25050505050505050505050600454811461220e576040517f08c379a000000000000000000000000000000000000000000000000000000000815260040180806020018281038252601f8152602001807f5265656e7472616e637947756172643a207265656e7472616e742063616c6c0081525060200191505060405180910390fd5b50505050565b60008073__$b8d33eeb36ac0d1e81cd70156e0043e778$__63907af6c06040518163ffffffff1660e01b815260040160206040518083038186803b15801561225b57600080fd5b505af415801561226f573d6000803e3d6000fd5b505050506040513d602081101561228557600080fd5b810190808051906020019092919050505090506000601054905060006122c66122b7838761596690919063ffffffff16565b8761560390919063ffffffff16565b905060006123036122f4846122e66011548861536190919063ffffffff16565b61596690919063ffffffff16565b8561560390919063ffffffff16565b9050612318818361596690919063ffffffff16565b94505050505092915050565b60145481565b6000612334616592565b61233e8484614f66565b9050806060015191505092915050565b612356614e2f565b80600b819055507fbb72ce8874020b3b98429d653df927cac6618ac1932384b1446bf04bf9a1b7e5600b546040518082815260200191505060405180910390a150565b60006123a3616592565b6123ad8484614f66565b90506123b88161599c565b91505092915050565b600160009054906101000a900473ffffffffffffffffffffffffffffffffffffffff1681565b6000600360009054906101000a900460ff161561244f576040517f08c379a000000000000000000000000000000000000000000000000000000000815260040180806020018281038252603c81526020018061680d603c913960400191505060405180910390fd5b60016004600082825401925050819055506000600454905061246f614ed6565b73ffffffffffffffffffffffffffffffffffffffff16632528f0fe7f45544800000000000000000000000000000000000000000000000000000000006040518263ffffffff1660e01b81526004018082815260200191505060206040518083038186803b1580156124df57600080fd5b505afa1580156124f3573d6000803e3d6000fd5b505050506040513d602081101561250957600080fd5b81019080805190602001909291905050501561258d576040517f08c379a000000000000000000000000000000000000000000000000000000000815260040180806020018281038252601e8152602001807f426c6f636b656420617320455448207261746520697320696e76616c6964000081525060200191505060405180910390fd5b612595614f06565b73ffffffffffffffffffffffffffffffffffffffff16637c3125416040518163ffffffff1660e01b815260040160006040518083038186803b1580156125da57600080fd5b505afa1580156125ee573d6000803e3d6000fd5b50505050600c5434101561264d576040517f08c379a00000000000000000000000000000000000000000000000000000000081526004018080602001828103825260488152602001806168a56048913960600191505060405180910390fd5b60001515600e60009054906101000a900460ff161515146126d6576040517f08c379a000000000000000000000000000000000000000000000000000000000815260040180806020018281038252601e8152602001807f4c6f616e7320617265206e6f77206265696e67206c697175696461746564000081525060200191505060405180910390fd5b600d54601560003373ffffffffffffffffffffffffffffffffffffffff1673ffffffffffffffffffffffffffffffffffffffff1681526020019081526020016000208054905010612772576040517f08c379a000000000000000000000000000000000000000000000000000000000815260040180806020018281038252602381526020018061679a6023913960400191505060405180910390fd5b600061277d34613fa8565b9050808411156127d8576040517f08c379a00000000000000000000000000000000000000000000000000000000081526004018080602001828103825260278152602001806166f46027913960400191505060405180910390fd5b60006127e385615a11565b905060006127fa828761560390919063ffffffff16565b9050600b546128148760125461536190919063ffffffff16565b111561286b576040517f08c379a00000000000000000000000000000000000000000000000000000000081526004018080602001828103825260238152602001806167776023913960400191505060405180910390fd5b612873615a2f565b945061287d616592565b6040518061014001604052803373ffffffffffffffffffffffffffffffffffffffff16815260200134815260200188815260200184815260200142815260200187815260200160008152602001600854815260200160008152602001600064ffffffffff1681525090506000831115612a1d576128f8614f36565b73ffffffffffffffffffffffffffffffffffffffff1663867904b473c8d3a942a82290612dd8167bd9ce2d3054baf8b7856040518363ffffffff1660e01b8152600401808373ffffffffffffffffffffffffffffffffffffffff1673ffffffffffffffffffffffffffffffffffffffff16815260200182815260200192505050600060405180830381600087803b15801561299257600080fd5b505af11580156129a6573d6000803e3d6000fd5b505050506129b2615a71565b73ffffffffffffffffffffffffffffffffffffffff166322bf55ef846040518263ffffffff1660e01b815260040180828152602001915050600060405180830381600087803b158015612a0457600080fd5b505af1158015612a18573d6000803e3d6000fd5b505050505b601560003373ffffffffffffffffffffffffffffffffffffffff1673ffffffffffffffffffffffffffffffffffffffff168152602001908152602001600020819080600181540180825580915050906001820390600052602060002090600a02016000909192909190915060008201518160000160006101000a81548173ffffffffffffffffffffffffffffffffffffffff021916908373ffffffffffffffffffffffffffffffffffffffff1602179055506020820151816001015560408201518160020155606082015181600301556080820151816004015560a0820151816005015560c0820151816006015560e0820151816007015561010082015181600801556101208201518160090160006101000a81548164ffffffffff021916908364ffffffffff160217905550505050612b628760125461536190919063ffffffff16565b601281905550612b70614f36565b73ffffffffffffffffffffffffffffffffffffffff1663867904b433846040518363ffffffff1660e01b8152600401808373ffffffffffffffffffffffffffffffffffffffff1673ffffffffffffffffffffffffffffffffffffffff16815260200182815260200192505050600060405180830381600087803b158015612bf657600080fd5b505af1158015612c0a573d6000803e3d6000fd5b505050503373ffffffffffffffffffffffffffffffffffffffff167f58d170de3a12438e22d81380f353b2fcac86f0a708a1374deaa5c6322a95992f8789604051808381526020018281526020019250505060405180910390a2505050506004548114612cdf576040517f08c379a000000000000000000000000000000000000000000000000000000000815260040180806020018281038252601f8152602001807f5265656e7472616e637947756172643a207265656e7472616e742063616c6c0081525060200191505060405180910390fd5b50919050565b60125481565b600360009054906101000a900460ff1681565b612d06614e2f565b6103e88110612d60576040517f08c379a00000000000000000000000000000000000000000000000000000000081526004018080602001828103825260338152602001806167446033913960400191505060405180910390fd5b80600d819055507f59822dc2d999f6f0618e8b0db5cfc8496084574c769b09609d9b5f4394a310b6600d546040518082815260200191505060405180910390a150565b612dab614e2f565b6301e133808111612e07576040517f08c379a000000000000000000000000000000000000000000000000000000000815260040180806020018281038252603781526020018061686e6037913960400191505060405180910390fd5b73__$b8d33eeb36ac0d1e81cd70156e0043e778$__63907af6c06040518163ffffffff1660e01b815260040160206040518083038186803b158015612e4b57600080fd5b505af4158015612e5f573d6000803e3d6000fd5b505050506040513d6020811015612e7557600080fd5b8101908080519060200190929190505050811115612ede576040517f08c379a00000000000000000000000000000000000000000000000000000000081526004018080602001828103825260258152602001806168496025913960400191505060405180910390fd5b80600881905550612efc6301e1338082615aa190919063ffffffff16565b6009819055507fa90e14be5aa57b910aa6dc16c31ff1b5cda380ae25a793b0d3f74df6131a7d746008546040518082815260200191505060405180910390a150565b600080612f49616592565b612f538585614f66565b90506000612f73826101000151836040015161536190919063ffffffff16565b9050612f9e612f8a82612f858561599c565b614290565b83610100015161536190919063ffffffff16565b93508160600151925050509250929050565b600c5481565b6060612fc0613dfa565b905060008090505b815181101561321b576000828281518110612fdf57fe5b602002602001015190506000600560009054906101000a900473ffffffffffffffffffffffffffffffffffffffff1673ffffffffffffffffffffffffffffffffffffffff1663dacb2d01838460405160200180807f5265736f6c766572206d697373696e67207461726765743a20000000000000008152506019018281526020019150506040516020818303038152906040526040518363ffffffff1660e01b81526004018083815260200180602001828103825283818151815260200191508051906020019080838360005b838110156130c75780820151818401526020810190506130ac565b50505050905090810190601f1680156130f45780820380516001836020036101000a031916815260200191505b50935050505060206040518083038186803b15801561311257600080fd5b505afa158015613126573d6000803e3d6000fd5b505050506040513d602081101561313c57600080fd5b81019080805190602001909291905050509050806006600084815260200190815260200160002060006101000a81548173ffffffffffffffffffffffffffffffffffffffff021916908373ffffffffffffffffffffffffffffffffffffffff1602179055507f88a93678a3692f6789d9546fc621bf7234b101ddb7d4fe479455112831b8aa688282604051808381526020018273ffffffffffffffffffffffffffffffffffffffff1673ffffffffffffffffffffffffffffffffffffffff1681526020019250505060405180910390a150508080600101915050612fc8565b5050565b600360009054906101000a900460ff1615613285576040517f08c379a000000000000000000000000000000000000000000000000000000000815260040180806020018281038252603c81526020018061680d603c913960400191505060405180910390fd5b6001600460008282540192505081905550600060045490506132a5614ed6565b73ffffffffffffffffffffffffffffffffffffffff16632528f0fe7f45544800000000000000000000000000000000000000000000000000000000006040518263ffffffff1660e01b81526004018082815260200191505060206040518083038186803b15801561331557600080fd5b505afa158015613329573d6000803e3d6000fd5b505050506040513d602081101561333f57600080fd5b8101908080519060200190929190505050156133c3576040517f08c379a000000000000000000000000000000000000000000000000000000000815260040180806020018281038252601e8152602001807f426c6f636b656420617320455448207261746520697320696e76616c6964000081525060200191505060405180910390fd5b6000821161341c576040517f08c379a000000000000000000000000000000000000000000000000000000000815260040180806020018281038252602981526020018061671b6029913960400191505060405180910390fd5b613424614f06565b73ffffffffffffffffffffffffffffffffffffffff16637c3125416040518163ffffffff1660e01b815260040160006040518083038186803b15801561346957600080fd5b505afa15801561347d573d6000803e3d6000fd5b5050505060001515600e60009054906101000a900460ff1615151461350a576040517f08c379a000000000000000000000000000000000000000000000000000000000815260040180806020018281038252601e8152602001807f4c6f616e7320617265206e6f77206265696e67206c697175696461746564000081525060200191505060405180910390fd5b613512616592565b61351c3385614f66565b905061352781615138565b600061354084836020015161560390919063ffffffff16565b905061354a616592565b61355483836157a6565b905060006135618261522f565b5050905060105481116135bf576040517f08c379a000000000000000000000000000000000000000000000000000000000815260040180806020018281038252603181526020018061662b6031913960400191505060405180910390fd5b3373ffffffffffffffffffffffffffffffffffffffff166108fc879081150290604051600060405180830381858888f19350505050158015613605573d6000803e3d6000fd5b503373ffffffffffffffffffffffffffffffffffffffff167ffae26280bca25d80f1501a9e363c73d3845e651c9aaae54f1fc09a9dcd5f33038888856020015160405180848152602001838152602001828152602001935050505060405180910390a25050505060045481146136e3576040517f08c379a000000000000000000000000000000000000000000000000000000000815260040180806020018281038252601f8152602001807f5265656e7472616e637947756172643a207265656e7472616e742063616c6c0081525060200191505060405180910390fd5b505050565b600160009054906101000a900473ffffffffffffffffffffffffffffffffffffffff1673ffffffffffffffffffffffffffffffffffffffff163373ffffffffffffffffffffffffffffffffffffffff161461378e576040517f08c379a000000000000000000000000000000000000000000000000000000000815260040180806020018281038252603581526020018061665c6035913960400191505060405180910390fd5b7fb532073b38c83145e3e5135377a08bf9aab55bc0fd7c1179cd4fb995d2a5159c6000809054906101000a900473ffffffffffffffffffffffffffffffffffffffff16600160009054906101000a900473ffffffffffffffffffffffffffffffffffffffff16604051808373ffffffffffffffffffffffffffffffffffffffff1673ffffffffffffffffffffffffffffffffffffffff1681526020018273ffffffffffffffffffffffffffffffffffffffff1673ffffffffffffffffffffffffffffffffffffffff1681526020019250505060405180910390a1600160009054906101000a900473ffffffffffffffffffffffffffffffffffffffff166000806101000a81548173ffffffffffffffffffffffffffffffffffffffff021916908373ffffffffffffffffffffffffffffffffffffffff1602179055506000600160006101000a81548173ffffffffffffffffffffffffffffffffffffffff021916908373ffffffffffffffffffffffffffffffffffffffff160217905550565b60085481565b60008060008060008060008060008060008060006007549c506139356145ff565b9b506008549a506009549950600a549850600b549750600c549650601254955060135494506014549350479250600f549150600e60009054906101000a900460ff169050909192939495969798999a9b9c565b613990614ed6565b73ffffffffffffffffffffffffffffffffffffffff16632528f0fe7f45544800000000000000000000000000000000000000000000000000000000006040518263ffffffff1660e01b81526004018082815260200191505060206040518083038186803b158015613a0057600080fd5b505afa158015613a14573d6000803e3d6000fd5b505050506040513d6020811015613a2a57600080fd5b810190808051906020019092919050505015613aae576040517f08c379a000000000000000000000000000000000000000000000000000000000815260040180806020018281038252601e8152602001807f426c6f636b656420617320455448207261746520697320696e76616c6964000081525060200191505060405180910390fd5b613ab6614f06565b73ffffffffffffffffffffffffffffffffffffffff1663086dabd16040518163ffffffff1660e01b815260040160006040518083038186803b158015613afb57600080fd5b505afa158015613b0f573d6000803e3d6000fd5b5050505080613b1c614f36565b73ffffffffffffffffffffffffffffffffffffffff166370a08231336040518263ffffffff1660e01b8152600401808273ffffffffffffffffffffffffffffffffffffffff1673ffffffffffffffffffffffffffffffffffffffff16815260200191505060206040518083038186803b158015613b9857600080fd5b505afa158015613bac573d6000803e3d6000fd5b505050506040513d6020811015613bc257600080fd5b81019080805190602001909291905050501015613c47576040517f08c379a00000000000000000000000000000000000000000000000000000000081526004018080602001828103825260178152602001807f4e6f7420656e6f75676820705553442062616c616e636500000000000000000081525060200191505060405180910390fd5b613c4f616592565b613c598484614f66565b9050613c6481615138565b6000613c82826101000151836040015161536190919063ffffffff16565b90506000613c9882613c938561599c565b614290565b90506000613cb48285610100015161536190919063ffffffff16565b9050600080600080613ccb89868a604001516153e9565b9350935093509350613cdb614f36565b73ffffffffffffffffffffffffffffffffffffffff16639dc29fac338b6040518363ffffffff1660e01b8152600401808373ffffffffffffffffffffffffffffffffffffffff1673ffffffffffffffffffffffffffffffffffffffff16815260200182815260200192505050600060405180830381600087803b158015613d6157600080fd5b505af1158015613d75573d6000803e3d6000fd5b50505050613d838484615477565b613d8f8882844261568c565b8a73ffffffffffffffffffffffffffffffffffffffff167f2cebe3c4a7e8e81ca2035a6cb3ee450bb6401d9b6636652e183583f0470495728b8b8460405180848152602001838152602001828152602001935050505060405180910390a25050505050505050505050565b60606004604051908082528060200260200182016040528015613e2c5781602001602082028038833980820191505090505b5090507f53797374656d537461747573000000000000000000000000000000000000000081600081518110613e5d57fe5b6020026020010181815250507f50796e746870555344000000000000000000000000000000000000000000000081600181518110613e9757fe5b6020026020010181815250507f45786368616e676552617465730000000000000000000000000000000000000081600281518110613ed157fe5b6020026020010181815250507f466565506f6f6c0000000000000000000000000000000000000000000000000081600381518110613f0b57fe5b60200260200101818152505090565b6000613f24616592565b613f2e8484614f66565b90506000613f5f613f51836101000151846040015161536190919063ffffffff16565b613f5a8461599c565b614290565b9050613f798183610100015161536190919063ffffffff16565b9250505092915050565b6000809054906101000a900473ffffffffffffffffffffffffffffffffffffffff1681565b6000614088613fb5614ed6565b73ffffffffffffffffffffffffffffffffffffffff1663ac82f6087f45544800000000000000000000000000000000000000000000000000000000006040518263ffffffff1660e01b81526004018082815260200191505060206040518083038186803b15801561402557600080fd5b505afa158015614039573d6000803e3d6000fd5b505050506040513d602081101561404f57600080fd5b810190808051906020019092919050505061407a61406b6145ff565b856155d690919063ffffffff16565b6155d690919063ffffffff16565b9050919050565b60025481565b61409d614e2f565b73__$b8d33eeb36ac0d1e81cd70156e0043e778$__63907af6c06040518163ffffffff1660e01b815260040160206040518083038186803b1580156140e157600080fd5b505af41580156140f5573d6000803e3d6000fd5b505050506040513d602081101561410b57600080fd5b81019080805190602001909291905050508111614190576040517f08c379a00000000000000000000000000000000000000000000000000000000081526004018080602001828103825260148152602001807f526174696f206c657373207468616e203130302500000000000000000000000081525060200191505060405180910390fd5b806010819055507f5568be83e5cf7405adf8fb39305e2cdf49c43336606d23c3e0d3fe54e205150a6010546040518082815260200191505060405180910390a150565b600f5481565b6000806000806000806000806141ed616592565b6141f78b8b614f66565b9050806000015198508060200151975080604001519650806080015195508060a0015194508060c001519350614267614253614245836101000151846040015161536190919063ffffffff16565b61424e8461599c565b614290565b82610100015161536190919063ffffffff16565b925061428081606001518461536190919063ffffffff16565b9150509295985092959890939650565b60006142b96142aa83600954615b3090919063ffffffff16565b84615bb690919063ffffffff16565b905092915050565b600360009054906101000a900460ff1615614327576040517f08c379a000000000000000000000000000000000000000000000000000000000815260040180806020018281038252603c81526020018061680d603c913960400191505060405180910390fd5b60003411614380576040517f08c379a00000000000000000000000000000000000000000000000000000000081526004018080602001828103825260258152602001806166cf6025913960400191505060405180910390fd5b614388614f06565b73ffffffffffffffffffffffffffffffffffffffff16637c3125416040518163ffffffff1660e01b815260040160006040518083038186803b1580156143cd57600080fd5b505afa1580156143e1573d6000803e3d6000fd5b5050505060001515600e60009054906101000a900460ff1615151461446e576040517f08c379a000000000000000000000000000000000000000000000000000000000815260040180806020018281038252601e8152602001807f4c6f616e7320617265206e6f77206265696e67206c697175696461746564000081525060200191505060405180910390fd5b614476616592565b6144808383614f66565b905061448b81615138565b60006144a434836020015161536190919063ffffffff16565b90506144b082826157a6565b508373ffffffffffffffffffffffffffffffffffffffff167f0b1992dffc262be88559dcaf96464e9d661d8bfca7e82f2bb73e31932a82187c84348460405180848152602001838152602001828152602001935050505060405180910390a250505050565b61451d614e2f565b80600a819055507fe7bd72551c54d568cd97b00dc52d2787b5c5d4f0070d3582c1e8ba25141f799c600a546040518082815260200191505060405180910390a150565b6015602052816000526040600020818154811061457957fe5b90600052602060002090600a0201600091509150508060000160009054906101000a900473ffffffffffffffffffffffffffffffffffffffff16908060010154908060020154908060030154908060040154908060050154908060060154908060070154908060080154908060090160009054906101000a900464ffffffffff1690508a565b600061461f60075468056bc75e2d63100000615bd290919063ffffffff16565b905090565b61462c614e2f565b600f5442116146a3576040517f08c379a000000000000000000000000000000000000000000000000000000000815260040180806020018281038252601b8152602001807f4265666f7265206c69717569646174696f6e20646561646c696e65000000000081525060200191505060405180910390fd5b80600e60006101000a81548160ff0219169083151502179055507faa52cf15c1fbb778214c66f64726e141551158858d1c06ca0392c6c5869c8567600e60009054906101000a900460ff16604051808215151515815260200191505060405180910390a150565b60016004600082825401925050819055506000600454905061472a614ed6565b73ffffffffffffffffffffffffffffffffffffffff16632528f0fe7f45544800000000000000000000000000000000000000000000000000000000006040518263ffffffff1660e01b81526004018082815260200191505060206040518083038186803b15801561479a57600080fd5b505afa1580156147ae573d6000803e3d6000fd5b505050506040513d60208110156147c457600080fd5b810190808051906020019092919050505015614848576040517f08c379a000000000000000000000000000000000000000000000000000000000815260040180806020018281038252601e8152602001807f426c6f636b656420617320455448207261746520697320696e76616c6964000081525060200191505060405180910390fd5b61485433836000615bee565b60045481146148cb576040517f08c379a000000000000000000000000000000000000000000000000000000000815260040180806020018281038252601f8152602001807f5265656e7472616e637947756172643a207265656e7472616e742063616c6c0081525060200191505060405180910390fd5b5050565b60075481565b6001600460008282540192505081905550600060045490506148f5614ed6565b73ffffffffffffffffffffffffffffffffffffffff16632528f0fe7f45544800000000000000000000000000000000000000000000000000000000006040518263ffffffff1660e01b81526004018082815260200191505060206040518083038186803b15801561496557600080fd5b505afa158015614979573d6000803e3d6000fd5b505050506040513d602081101561498f57600080fd5b810190808051906020019092919050505015614a13576040517f08c379a000000000000000000000000000000000000000000000000000000000815260040180806020018281038252601e8152602001807f426c6f636b656420617320455448207261746520697320696e76616c6964000081525060200191505060405180910390fd5b600e60009054906101000a900460ff16614a95576040517f08c379a00000000000000000000000000000000000000000000000000000000081526004018080602001828103825260178152602001807f4c69717569646174696f6e206973206e6f74206f70656e00000000000000000081525060200191505060405180910390fd5b614aa183836001615bee565b8273ffffffffffffffffffffffffffffffffffffffff167fde21b2a43b0a2c2109c049fb1e4bb8653fd67d0ffd74fdcb662db381f1eeab388333604051808381526020018273ffffffffffffffffffffffffffffffffffffffff1673ffffffffffffffffffffffffffffffffffffffff1681526020019250505060405180910390a26004548114614b9a576040517f08c379a000000000000000000000000000000000000000000000000000000000815260040180806020018281038252601f8152602001807f5265656e7472616e637947756172643a207265656e7472616e742063616c6c0081525060200191505060405180910390fd5b505050565b600e60009054906101000a900460ff1681565b60095481565b614bc0614e2f565b683635c9adc5dea00000811115614c3f576040517f08c379a00000000000000000000000000000000000000000000000000000000081526004018080602001828103825260088152602001807f546f6f206869676800000000000000000000000000000000000000000000000081525060200191505060405180910390fd5b68056bc75e2d63100000811015614cbe576040517f08c379a00000000000000000000000000000000000000000000000000000000081526004018080602001828103825260078152602001807f546f6f206c6f770000000000000000000000000000000000000000000000000081525060200191505060405180910390fd5b806007819055507ffb0ebe8c7316e6a251494c38876d13d9a3a029273fce7964c12aa2ce07869530816040518082815260200191505060405180910390a150565b600b5481565b6000614d0f616592565b614d198484614f66565b9050614d248161522f565b905050809250505092915050565b6000614e2868056bc75e2d63100000614e1a614e0b614d4f614ed6565b73ffffffffffffffffffffffffffffffffffffffff1663ac82f6087f45544800000000000000000000000000000000000000000000000000000000006040518263ffffffff1660e01b81526004018082815260200191505060206040518083038186803b158015614dbf57600080fd5b505afa158015614dd3573d6000803e3d6000fd5b505050506040513d6020811015614de957600080fd5b8101908080519060200190929190505050600754615bd290919063ffffffff16565b856155d690919063ffffffff16565b615bd290919063ffffffff16565b9050919050565b6000809054906101000a900473ffffffffffffffffffffffffffffffffffffffff1673ffffffffffffffffffffffffffffffffffffffff163373ffffffffffffffffffffffffffffffffffffffff1614614ed4576040517f08c379a000000000000000000000000000000000000000000000000000000000815260040180806020018281038252602f8152602001806167bd602f913960400191505060405180910390fd5b565b6000614f017f45786368616e67655261746573000000000000000000000000000000000000006162a9565b905090565b6000614f317f53797374656d53746174757300000000000000000000000000000000000000006162a9565b905090565b6000614f617f50796e74687055534400000000000000000000000000000000000000000000006162a9565b905090565b614f6e616592565b6060601560008573ffffffffffffffffffffffffffffffffffffffff1673ffffffffffffffffffffffffffffffffffffffff168152602001908152602001600020805480602002602001604051908101604052809291908181526020016000905b828210156150d157838290600052602060002090600a0201604051806101400160405290816000820160009054906101000a900473ffffffffffffffffffffffffffffffffffffffff1673ffffffffffffffffffffffffffffffffffffffff1673ffffffffffffffffffffffffffffffffffffffff16815260200160018201548152602001600282015481526020016003820154815260200160048201548152602001600582015481526020016006820154815260200160078201548152602001600882015481526020016009820160009054906101000a900464ffffffffff1664ffffffffff1664ffffffffff168152505081526020019060010190614fcf565b50505050905060008090505b815181101561512f57838282815181106150f357fe5b602002602001015160a0015114156151225781818151811061511157fe5b602002602001015192505050615132565b80806001019150506150dd565b50505b92915050565b60008160a00151116151b2576040517f08c379a00000000000000000000000000000000000000000000000000000000081526004018080602001828103825260138152602001807f4c6f616e20646f6573206e6f742065786973740000000000000000000000000081525060200191505060405180910390fd5b60008160c001511461522c576040517f08c379a00000000000000000000000000000000000000000000000000000000081526004018080602001828103825260138152602001807f4c6f616e20616c726561647920636c6f7365640000000000000000000000000081525060200191505060405180910390fd5b50565b600080600080615251856101000151866040015161536190919063ffffffff16565b9050615265816152608761599c565b614290565b9150615330615272614ed6565b73ffffffffffffffffffffffffffffffffffffffff1663ac82f6087f45544800000000000000000000000000000000000000000000000000000000006040518263ffffffff1660e01b81526004018082815260200191505060206040518083038186803b1580156152e257600080fd5b505afa1580156152f6573d6000803e3d6000fd5b505050506040513d602081101561530c57600080fd5b810190808051906020019092919050505086602001516155d690919063ffffffff16565b9250615357615348838361536190919063ffffffff16565b8461596690919063ffffffff16565b9350509193909250565b6000808284019050838110156153df576040517f08c379a000000000000000000000000000000000000000000000000000000000815260040180806020018281038252601b8152602001807f536166654d6174683a206164646974696f6e206f766572666c6f77000000000081525060200191505060405180910390fd5b8091505092915050565b60008060008060008790508692506000811180156154075750600087115b1561544857868111615419578061541b565b865b9450615430858461560390919063ffffffff16565b9250615445858261560390919063ffffffff16565b90505b859150600081111561546d57615467818361560390919063ffffffff16565b91508093505b5093509350935093565b60008211156155ad57615488614f36565b73ffffffffffffffffffffffffffffffffffffffff1663867904b473c8d3a942a82290612dd8167bd9ce2d3054baf8b7846040518363ffffffff1660e01b8152600401808373ffffffffffffffffffffffffffffffffffffffff1673ffffffffffffffffffffffffffffffffffffffff16815260200182815260200192505050600060405180830381600087803b15801561552257600080fd5b505af1158015615536573d6000803e3d6000fd5b50505050615542615a71565b73ffffffffffffffffffffffffffffffffffffffff166322bf55ef836040518263ffffffff1660e01b815260040180828152602001915050600060405180830381600087803b15801561559457600080fd5b505af11580156155a8573d6000803e3d6000fd5b505050505b60008111156155d2576155cb8160125461560390919063ffffffff16565b6012819055505b5050565b6000601260ff16600a0a6155f38385615b3090919063ffffffff16565b816155fa57fe5b04905092915050565b60008282111561567b576040517f08c379a000000000000000000000000000000000000000000000000000000000815260040180806020018281038252601e8152602001807f536166654d6174683a207375627472616374696f6e206f766572666c6f77000081525060200191505060405180910390fd5b600082840390508091505092915050565b600060156000866000015173ffffffffffffffffffffffffffffffffffffffff1673ffffffffffffffffffffffffffffffffffffffff168152602001908152602001600020905060008090505b818054905081101561579e578560a001518282815481106156f657fe5b90600052602060002090600a0201600501541415615791578482828154811061571b57fe5b90600052602060002090600a0201600201819055508382828154811061573d57fe5b90600052602060002090600a0201600801819055508282828154811061575f57fe5b90600052602060002090600a020160090160006101000a81548164ffffffffff021916908364ffffffffff1602179055505b80806001019150506156d9565b505050505050565b6157ae616592565b600060156000856000015173ffffffffffffffffffffffffffffffffffffffff1673ffffffffffffffffffffffffffffffffffffffff168152602001908152602001600020905060008090505b818054905081101561595d578460a0015182828154811061581857fe5b90600052602060002090600a0201600501541415615950578382828154811061583d57fe5b90600052602060002090600a02016001018190555081818154811061585e57fe5b90600052602060002090600a0201604051806101400160405290816000820160009054906101000a900473ffffffffffffffffffffffffffffffffffffffff1673ffffffffffffffffffffffffffffffffffffffff1673ffffffffffffffffffffffffffffffffffffffff16815260200160018201548152602001600282015481526020016003820154815260200160048201548152602001600582015481526020016006820154815260200160078201548152602001600882015481526020016009820160009054906101000a900464ffffffffff1664ffffffffff1664ffffffffff168152505092505050615960565b80806001019150506157fb565b50505b92915050565b600061599482615986601260ff16600a0a86615b3090919063ffffffff16565b615aa190919063ffffffff16565b905092915050565b600080600083610120015164ffffffffff16116159bd5782608001516159cb565b82610120015164ffffffffff165b905060008360c00151116159f1576159ec814261560390919063ffffffff16565b615a09565b615a08818460c0015161560390919063ffffffff16565b5b915050919050565b6000615a28600a5483615bb690919063ffffffff16565b9050919050565b6000615a47600160145461536190919063ffffffff16565b601481905550615a63600160135461536190919063ffffffff16565b601381905550601354905090565b6000615a9c7f466565506f6f6c000000000000000000000000000000000000000000000000006162a9565b905090565b6000808211615b18576040517f08c379a000000000000000000000000000000000000000000000000000000000815260040180806020018281038252601a8152602001807f536166654d6174683a206469766973696f6e206279207a65726f00000000000081525060200191505060405180910390fd5b6000828481615b2357fe5b0490508091505092915050565b600080831415615b435760009050615bb0565b6000828402905082848281615b5457fe5b0414615bab576040517f08c379a00000000000000000000000000000000000000000000000000000000081526004018080602001828103825260218152602001806167ec6021913960400191505060405180910390fd5b809150505b92915050565b6000615bca8383601260ff16600a0a61640b565b905092915050565b6000615be68383601260ff16600a0a616464565b905092915050565b615bf6614f06565b73ffffffffffffffffffffffffffffffffffffffff16637c3125416040518163ffffffff1660e01b815260040160006040518083038186803b158015615c3b57600080fd5b505afa158015615c4f573d6000803e3d6000fd5b50505050615c5b616592565b615c658484614f66565b9050615c7081615138565b6000615c9f615c91836101000151846040015161536190919063ffffffff16565b615c9a8461599c565b614290565b90506000615cba82846040015161536190919063ffffffff16565b90506000615cd68385610100015161536190919063ffffffff16565b905081615ce1614f36565b73ffffffffffffffffffffffffffffffffffffffff166370a08231336040518263ffffffff1660e01b8152600401808273ffffffffffffffffffffffffffffffffffffffff1673ffffffffffffffffffffffffffffffffffffffff16815260200191505060206040518083038186803b158015615d5d57600080fd5b505afa158015615d71573d6000803e3d6000fd5b505050506040513d6020811015615d8757600080fd5b81019080805190602001909291905050501015615def576040517f08c379a000000000000000000000000000000000000000000000000000000000815260040180806020018281038252603e815260200180616691603e913960400191505060405180910390fd5b615df8846164bf565b615e28615e17856101000151866040015161560390919063ffffffff16565b60125461560390919063ffffffff16565b601281905550615e36614f36565b73ffffffffffffffffffffffffffffffffffffffff16639dc29fac33846040518363ffffffff1660e01b8152600401808373ffffffffffffffffffffffffffffffffffffffff1673ffffffffffffffffffffffffffffffffffffffff16815260200182815260200192505050600060405180830381600087803b158015615ebc57600080fd5b505af1158015615ed0573d6000803e3d6000fd5b50505050615edc614f36565b73ffffffffffffffffffffffffffffffffffffffff1663867904b473c8d3a942a82290612dd8167bd9ce2d3054baf8b7836040518363ffffffff1660e01b8152600401808373ffffffffffffffffffffffffffffffffffffffff1673ffffffffffffffffffffffffffffffffffffffff16815260200182815260200192505050600060405180830381600087803b158015615f7657600080fd5b505af1158015615f8a573d6000803e3d6000fd5b50505050615f96615a71565b73ffffffffffffffffffffffffffffffffffffffff166322bf55ef826040518263ffffffff1660e01b815260040180828152602001915050600060405180830381600087803b158015615fe857600080fd5b505af1158015615ffc573d6000803e3d6000fd5b5050505060008460200151905085156161fe576000616019614ed6565b73ffffffffffffffffffffffffffffffffffffffff1663654a60ac7f7055534400000000000000000000000000000000000000000000000000000000867f45544800000000000000000000000000000000000000000000000000000000006040518463ffffffff1660e01b815260040180848152602001838152602001828152602001935050505060206040518083038186803b1580156160b957600080fd5b505afa1580156160cd573d6000803e3d6000fd5b505050506040513d60208110156160e357600080fd5b81019080805190602001909291905050509050600061619d61618e60115473__$b8d33eeb36ac0d1e81cd70156e0043e778$__63907af6c06040518163ffffffff1660e01b815260040160206040518083038186803b15801561614557600080fd5b505af4158015616159573d6000803e3d6000fd5b505050506040513d602081101561616f57600080fd5b810190808051906020019092919050505061536190919063ffffffff16565b836155d690919063ffffffff16565b90506161b2818461560390919063ffffffff16565b92503373ffffffffffffffffffffffffffffffffffffffff166108fc829081150290604051600060405180830381858888f193505050501580156161fa573d6000803e3d6000fd5b5050505b846000015173ffffffffffffffffffffffffffffffffffffffff166108fc829081150290604051600060405180830381858888f19350505050158015616248573d6000803e3d6000fd5b508773ffffffffffffffffffffffffffffffffffffffff167f3cc9f5d298758bad94536f27fa6a3033c2793e0a387a2d78e72550a3b8dacf1e8884604051808381526020018281526020019250505060405180910390a25050505050505050565b6000806006600084815260200190815260200160002060009054906101000a900473ffffffffffffffffffffffffffffffffffffffff169050600073ffffffffffffffffffffffffffffffffffffffff168173ffffffffffffffffffffffffffffffffffffffff1614158360405160200180807f4d697373696e6720616464726573733a2000000000000000000000000000000081525060110182815260200191505060405160208183030381529060405290616401576040517f08c379a00000000000000000000000000000000000000000000000000000000081526004018080602001828103825283818151815260200191508051906020019080838360005b838110156163c65780820151818401526020810190506163ab565b50505050905090810190601f1680156163f35780820380516001836020036101000a031916815260200191505b509250505060405180910390fd5b5080915050919050565b600080600a838161641857fe5b0461642c8587615b3090919063ffffffff16565b8161643357fe5b0490506005600a828161644257fe5b061061644f57600a810190505b600a818161645957fe5b049150509392505050565b60008061648f84616481600a860288615b3090919063ffffffff16565b615aa190919063ffffffff16565b90506005600a828161649d57fe5b06106164aa57600a810190505b600a81816164b457fe5b049150509392505050565b600060156000836000015173ffffffffffffffffffffffffffffffffffffffff1673ffffffffffffffffffffffffffffffffffffffff168152602001908152602001600020905060008090505b8180549050811015616571578260a0015182828154811061652957fe5b90600052602060002090600a0201600501541415616564574282828154811061654e57fe5b90600052602060002090600a0201600601819055505b808060010191505061650c565b50616588600160145461560390919063ffffffff16565b6014819055505050565b604051806101400160405280600073ffffffffffffffffffffffffffffffffffffffff1681526020016000815260200160008152602001600081526020016000815260200160008152602001600081526020016000815260200160008152602001600064ffffffffff168152509056fe436f6c6c61746572616c20726174696f2061626f7665206c69717569646174696f6e20726174696f436f6c6c61746572616c20726174696f2062656c6f77206c69717569646174696f6e206166746572207769746864726177596f75206d757374206265206e6f6d696e61746564206265666f726520796f752063616e20616363657074206f776e657273686970596f7520646f206e6f742068617665207468652072657175697265642050796e74682062616c616e636520746f20636c6f73652074686973206c6f616e2e4465706f73697420616d6f756e74206d7573742062652067726561746572207468616e20304c6f616e20616d6f756e742065786365656473206d617820626f72726f77696e6720706f776572416d6f756e7420746f207769746864726177206d7573742062652067726561746572207468616e20304f776e65722063616e6e6f742073657420686967686572207468616e204143434f554e545f4c4f414e5f4c494d49545f4341504c6f616e20416d6f756e7420657863656564732074686520737570706c79206361702e45616368206163636f756e74206973206c696d6974656420746f203530206c6f616e734f6e6c792074686520636f6e7472616374206f776e6572206d617920706572666f726d207468697320616374696f6e536166654d6174683a206d756c7469706c69636174696f6e206f766572666c6f775468697320616374696f6e2063616e6e6f7420626520706572666f726d6564207768696c652074686520636f6e747261637420697320706175736564496e7465726573742063616e6e6f74206265206d6f7265207468616e203130302520415052496e74657265737420726174652063616e6e6f74206265206c657373207468617420746865205345434f4e44535f494e5f415f594541524e6f7420656e6f7567682045544820746f206372656174652074686973206c6f616e2e20506c656173652073656520746865206d696e4c6f616e436f6c6c61746572616c53697a65a265627a7a723158205eacb706906beb88bbe3ebebc98709f1d861a2edf1d1f693c046d8fa27ec1c9c64736f6c63430005100032",
  "linkReferences": {
    "contracts/SafeDecimalMath.sol": {
      "SafeDecimalMath": [
        {
          "length": 20,
          "start": 8
        },
        {
          "length": 20,
          "start": 144
        },
        {
          "length": 20,
          "start": 327
        },
        {
          "length": 20,
          "start": 476
        },
        {
          "length": 20,
          "start": 612
        },
        {
          "length": 20,
          "start": 780
        },
        {
          "length": 20,
          "start": 927
        },
        {
          "length": 20,
          "start": 10128
        },
        {
          "length": 20,
          "start": 10709
        },
        {
          "length": 20,
          "start": 13765
        },
        {
          "length": 20,
          "start": 18523
        },
        {
          "length": 20,
          "start": 26815
        }
      ]
    }
  },
  "deployedLinkReferences": {
    "contracts/SafeDecimalMath.sol": {
      "SafeDecimalMath": [
        {
          "length": 20,
          "start": 8148
        },
        {
          "length": 20,
          "start": 8729
        },
        {
          "length": 20,
          "start": 11785
        },
        {
          "length": 20,
          "start": 16543
        },
        {
          "length": 20,
          "start": 24835
        }
      ]
    }
  }
}