{
  "_format": "hh-sol-artifact-1",
  "contractName": "ImportableRewardEscrowV2",
  "sourceName": "contracts/ImportableRewardEscrowV2.sol",
  "abi": [
    {
      "inputs": [
        {
          "internalType": "address",
          "name": "_owner",
          "type": "address"
        },
        {
          "internalType": "address",
          "name": "_resolver",
          "type": "address"
        }
      ],
      "payable": false,
      "stateMutability": "nonpayable",
      "type": "constructor"
    },
    {
      "anonymous": false,
      "inputs": [
        {
          "indexed": true,
          "internalType": "address",
          "name": "accountToMerge",
          "type": "address"
        },
        {
          "indexed": false,
          "internalType": "address",
          "name": "destinationAddress",
          "type": "address"
        },
        {
          "indexed": false,
          "internalType": "uint256",
          "name": "escrowAmountMerged",
          "type": "uint256"
        },
        {
          "indexed": false,
          "internalType": "uint256[]",
          "name": "entryIDs",
          "type": "uint256[]"
        },
        {
          "indexed": false,
          "internalType": "uint256",
          "name": "time",
          "type": "uint256"
        }
      ],
      "name": "AccountMerged",
      "type": "event"
    },
    {
      "anonymous": false,
      "inputs": [
        {
          "indexed": false,
          "internalType": "uint256",
          "name": "newDuration",
          "type": "uint256"
        }
      ],
      "name": "AccountMergingDurationUpdated",
      "type": "event"
    },
    {
      "anonymous": false,
      "inputs": [
        {
          "indexed": false,
          "internalType": "uint256",
          "name": "time",
          "type": "uint256"
        },
        {
          "indexed": false,
          "internalType": "uint256",
          "name": "endTime",
          "type": "uint256"
        }
      ],
      "name": "AccountMergingStarted",
      "type": "event"
    },
    {
      "anonymous": false,
      "inputs": [
        {
          "indexed": false,
          "internalType": "bytes32",
          "name": "name",
          "type": "bytes32"
        },
        {
          "indexed": false,
          "internalType": "address",
          "name": "destination",
          "type": "address"
        }
      ],
      "name": "CacheUpdated",
      "type": "event"
    },
    {
      "anonymous": false,
      "inputs": [
        {
          "indexed": false,
          "internalType": "uint256",
          "name": "newDuration",
          "type": "uint256"
        }
      ],
      "name": "MaxAccountMergingDurationUpdated",
      "type": "event"
    },
    {
      "anonymous": false,
      "inputs": [
        {
          "indexed": false,
          "internalType": "uint256",
          "name": "newDuration",
          "type": "uint256"
        }
      ],
      "name": "MaxEscrowDurationUpdated",
      "type": "event"
    },
    {
      "anonymous": false,
      "inputs": [
        {
          "indexed": true,
          "internalType": "address",
          "name": "account",
          "type": "address"
        },
        {
          "indexed": false,
          "internalType": "address",
          "name": "destination",
          "type": "address"
        }
      ],
      "name": "NominateAccountToMerge",
      "type": "event"
    },
    {
      "anonymous": false,
      "inputs": [
        {
          "indexed": false,
          "internalType": "address",
          "name": "oldOwner",
          "type": "address"
        },
        {
          "indexed": false,
          "internalType": "address",
          "name": "newOwner",
          "type": "address"
        }
      ],
      "name": "OwnerChanged",
      "type": "event"
    },
    {
      "anonymous": false,
      "inputs": [
        {
          "indexed": false,
          "internalType": "address",
          "name": "newOwner",
          "type": "address"
        }
      ],
      "name": "OwnerNominated",
      "type": "event"
    },
    {
      "anonymous": false,
      "inputs": [
        {
          "indexed": true,
          "internalType": "address",
          "name": "beneficiary",
          "type": "address"
        },
        {
          "indexed": false,
          "internalType": "uint256",
          "name": "time",
          "type": "uint256"
        },
        {
          "indexed": false,
          "internalType": "uint256",
          "name": "value",
          "type": "uint256"
        }
      ],
      "name": "Vested",
      "type": "event"
    },
    {
      "anonymous": false,
      "inputs": [
        {
          "indexed": true,
          "internalType": "address",
          "name": "beneficiary",
          "type": "address"
        },
        {
          "indexed": false,
          "internalType": "uint256",
          "name": "time",
          "type": "uint256"
        },
        {
          "indexed": false,
          "internalType": "uint256",
          "name": "value",
          "type": "uint256"
        },
        {
          "indexed": false,
          "internalType": "uint256",
          "name": "duration",
          "type": "uint256"
        },
        {
          "indexed": false,
          "internalType": "uint256",
          "name": "entryID",
          "type": "uint256"
        }
      ],
      "name": "VestingEntryCreated",
      "type": "event"
    },
    {
      "constant": false,
      "inputs": [],
      "name": "acceptOwnership",
      "outputs": [],
      "payable": false,
      "stateMutability": "nonpayable",
      "type": "function"
    },
    {
      "constant": true,
      "inputs": [],
      "name": "accountMergingDuration",
      "outputs": [
        {
          "internalType": "uint256",
          "name": "",
          "type": "uint256"
        }
      ],
      "payable": false,
      "stateMutability": "view",
      "type": "function"
    },
    {
      "constant": true,
      "inputs": [],
      "name": "accountMergingIsOpen",
      "outputs": [
        {
          "internalType": "bool",
          "name": "",
          "type": "bool"
        }
      ],
      "payable": false,
      "stateMutability": "view",
      "type": "function"
    },
    {
      "constant": true,
      "inputs": [],
      "name": "accountMergingStartTime",
      "outputs": [
        {
          "internalType": "uint256",
          "name": "",
          "type": "uint256"
        }
      ],
      "payable": false,
      "stateMutability": "view",
      "type": "function"
    },
    {
      "constant": true,
      "inputs": [
        {
          "internalType": "address",
          "name": "",
          "type": "address"
        },
        {
          "internalType": "uint256",
          "name": "",
          "type": "uint256"
        }
      ],
      "name": "accountVestingEntryIDs",
      "outputs": [
        {
          "internalType": "uint256",
          "name": "",
          "type": "uint256"
        }
      ],
      "payable": false,
      "stateMutability": "view",
      "type": "function"
    },
    {
      "constant": false,
      "inputs": [
        {
          "internalType": "address",
          "name": "account",
          "type": "address"
        },
        {
          "internalType": "uint256",
          "name": "quantity",
          "type": "uint256"
        },
        {
          "internalType": "uint256",
          "name": "duration",
          "type": "uint256"
        }
      ],
      "name": "appendVestingEntry",
      "outputs": [],
      "payable": false,
      "stateMutability": "nonpayable",
      "type": "function"
    },
    {
      "constant": true,
      "inputs": [
        {
          "internalType": "address",
          "name": "account",
          "type": "address"
        }
      ],
      "name": "balanceOf",
      "outputs": [
        {
          "internalType": "uint256",
          "name": "",
          "type": "uint256"
        }
      ],
      "payable": false,
      "stateMutability": "view",
      "type": "function"
    },
    {
      "constant": false,
      "inputs": [
        {
          "internalType": "address",
          "name": "",
          "type": "address"
        },
        {
          "internalType": "uint256[]",
          "name": "",
          "type": "uint256[]"
        }
      ],
      "name": "burnForMigration",
      "outputs": [
        {
          "internalType": "uint256",
          "name": "",
          "type": "uint256"
        },
        {
          "components": [
            {
              "internalType": "uint64",
              "name": "endTime",
              "type": "uint64"
            },
            {
              "internalType": "uint256",
              "name": "escrowAmount",
              "type": "uint256"
            }
          ],
          "internalType": "struct VestingEntries.VestingEntry[]",
          "name": "",
          "type": "tuple[]"
        }
      ],
      "payable": false,
      "stateMutability": "nonpayable",
      "type": "function"
    },
    {
      "constant": false,
      "inputs": [
        {
          "internalType": "address",
          "name": "beneficiary",
          "type": "address"
        },
        {
          "internalType": "uint256",
          "name": "deposit",
          "type": "uint256"
        },
        {
          "internalType": "uint256",
          "name": "duration",
          "type": "uint256"
        }
      ],
      "name": "createEscrowEntry",
      "outputs": [],
      "payable": false,
      "stateMutability": "nonpayable",
      "type": "function"
    },
    {
      "constant": true,
      "inputs": [
        {
          "internalType": "address",
          "name": "account",
          "type": "address"
        },
        {
          "internalType": "uint256",
          "name": "index",
          "type": "uint256"
        },
        {
          "internalType": "uint256",
          "name": "pageSize",
          "type": "uint256"
        }
      ],
      "name": "getAccountVestingEntryIDs",
      "outputs": [
        {
          "internalType": "uint256[]",
          "name": "",
          "type": "uint256[]"
        }
      ],
      "payable": false,
      "stateMutability": "view",
      "type": "function"
    },
    {
      "constant": true,
      "inputs": [
        {
          "internalType": "address",
          "name": "account",
          "type": "address"
        },
        {
          "internalType": "uint256",
          "name": "entryID",
          "type": "uint256"
        }
      ],
      "name": "getVestingEntry",
      "outputs": [
        {
          "internalType": "uint64",
          "name": "endTime",
          "type": "uint64"
        },
        {
          "internalType": "uint256",
          "name": "escrowAmount",
          "type": "uint256"
        }
      ],
      "payable": false,
      "stateMutability": "view",
      "type": "function"
    },
    {
      "constant": true,
      "inputs": [
        {
          "internalType": "address",
          "name": "account",
          "type": "address"
        },
        {
          "internalType": "uint256",
          "name": "entryID",
          "type": "uint256"
        }
      ],
      "name": "getVestingEntryClaimable",
      "outputs": [
        {
          "internalType": "uint256",
          "name": "",
          "type": "uint256"
        }
      ],
      "payable": false,
      "stateMutability": "view",
      "type": "function"
    },
    {
      "constant": true,
      "inputs": [
        {
          "internalType": "address",
          "name": "account",
          "type": "address"
        },
        {
          "internalType": "uint256[]",
          "name": "entryIDs",
          "type": "uint256[]"
        }
      ],
      "name": "getVestingQuantity",
      "outputs": [
        {
          "internalType": "uint256",
          "name": "total",
          "type": "uint256"
        }
      ],
      "payable": false,
      "stateMutability": "view",
      "type": "function"
    },
    {
      "constant": true,
      "inputs": [
        {
          "internalType": "address",
          "name": "account",
          "type": "address"
        },
        {
          "internalType": "uint256",
          "name": "index",
          "type": "uint256"
        },
        {
          "internalType": "uint256",
          "name": "pageSize",
          "type": "uint256"
        }
      ],
      "name": "getVestingSchedules",
      "outputs": [
        {
          "components": [
            {
              "internalType": "uint64",
              "name": "endTime",
              "type": "uint64"
            },
            {
              "internalType": "uint256",
              "name": "escrowAmount",
              "type": "uint256"
            },
            {
              "internalType": "uint256",
              "name": "entryID",
              "type": "uint256"
            }
          ],
          "internalType": "struct VestingEntries.VestingEntryWithID[]",
          "name": "",
          "type": "tuple[]"
        }
      ],
      "payable": false,
      "stateMutability": "view",
      "type": "function"
    },
    {
      "constant": false,
      "inputs": [
        {
          "internalType": "address",
          "name": "account",
          "type": "address"
        },
        {
          "internalType": "uint256",
          "name": "escrowedAmount",
          "type": "uint256"
        },
        {
          "components": [
            {
              "internalType": "uint64",
              "name": "endTime",
              "type": "uint64"
            },
            {
              "internalType": "uint256",
              "name": "escrowAmount",
              "type": "uint256"
            }
          ],
          "internalType": "struct VestingEntries.VestingEntry[]",
          "name": "vestingEntries",
          "type": "tuple[]"
        }
      ],
      "name": "importVestingEntries",
      "outputs": [],
      "payable": false,
      "stateMutability": "nonpayable",
      "type": "function"
    },
    {
      "constant": true,
      "inputs": [],
      "name": "isResolverCached",
      "outputs": [
        {
          "internalType": "bool",
          "name": "",
          "type": "bool"
        }
      ],
      "payable": false,
      "stateMutability": "view",
      "type": "function"
    },
    {
      "constant": true,
      "inputs": [],
      "name": "maxAccountMergingDuration",
      "outputs": [
        {
          "internalType": "uint256",
          "name": "",
          "type": "uint256"
        }
      ],
      "payable": false,
      "stateMutability": "view",
      "type": "function"
    },
    {
      "constant": true,
      "inputs": [],
      "name": "max_duration",
      "outputs": [
        {
          "internalType": "uint256",
          "name": "",
          "type": "uint256"
        }
      ],
      "payable": false,
      "stateMutability": "view",
      "type": "function"
    },
    {
      "constant": false,
      "inputs": [
        {
          "internalType": "address",
          "name": "accountToMerge",
          "type": "address"
        },
        {
          "internalType": "uint256[]",
          "name": "entryIDs",
          "type": "uint256[]"
        }
      ],
      "name": "mergeAccount",
      "outputs": [],
      "payable": false,
      "stateMutability": "nonpayable",
      "type": "function"
    },
    {
      "constant": false,
      "inputs": [
        {
          "internalType": "address[]",
          "name": "",
          "type": "address[]"
        },
        {
          "internalType": "uint256[]",
          "name": "",
          "type": "uint256[]"
        },
        {
          "internalType": "uint256[]",
          "name": "",
          "type": "uint256[]"
        }
      ],
      "name": "migrateAccountEscrowBalances",
      "outputs": [],
      "payable": false,
      "stateMutability": "nonpayable",
      "type": "function"
    },
    {
      "constant": false,
      "inputs": [
        {
          "internalType": "address",
          "name": "",
          "type": "address"
        }
      ],
      "name": "migrateVestingSchedule",
      "outputs": [],
      "payable": false,
      "stateMutability": "nonpayable",
      "type": "function"
    },
    {
      "constant": true,
      "inputs": [],
      "name": "nextEntryId",
      "outputs": [
        {
          "internalType": "uint256",
          "name": "",
          "type": "uint256"
        }
      ],
      "payable": false,
      "stateMutability": "view",
      "type": "function"
    },
    {
      "constant": false,
      "inputs": [
        {
          "internalType": "address",
          "name": "account",
          "type": "address"
        }
      ],
      "name": "nominateAccountToMerge",
      "outputs": [],
      "payable": false,
      "stateMutability": "nonpayable",
      "type": "function"
    },
    {
      "constant": false,
      "inputs": [
        {
          "internalType": "address",
          "name": "_owner",
          "type": "address"
        }
      ],
      "name": "nominateNewOwner",
      "outputs": [],
      "payable": false,
      "stateMutability": "nonpayable",
      "type": "function"
    },
    {
      "constant": true,
      "inputs": [],
      "name": "nominatedOwner",
      "outputs": [
        {
          "internalType": "address",
          "name": "",
          "type": "address"
        }
      ],
      "payable": false,
      "stateMutability": "view",
      "type": "function"
    },
    {
      "constant": true,
      "inputs": [
        {
          "internalType": "address",
          "name": "",
          "type": "address"
        }
      ],
      "name": "nominatedReceiver",
      "outputs": [
        {
          "internalType": "address",
          "name": "",
          "type": "address"
        }
      ],
      "payable": false,
      "stateMutability": "view",
      "type": "function"
    },
    {
      "constant": true,
      "inputs": [
        {
          "internalType": "address",
          "name": "account",
          "type": "address"
        }
      ],
      "name": "numVestingEntries",
      "outputs": [
        {
          "internalType": "uint256",
          "name": "",
          "type": "uint256"
        }
      ],
      "payable": false,
      "stateMutability": "view",
      "type": "function"
    },
    {
      "constant": true,
      "inputs": [],
      "name": "owner",
      "outputs": [
        {
          "internalType": "address",
          "name": "",
          "type": "address"
        }
      ],
      "payable": false,
      "stateMutability": "view",
      "type": "function"
    },
    {
      "constant": false,
      "inputs": [],
      "name": "rebuildCache",
      "outputs": [],
      "payable": false,
      "stateMutability": "nonpayable",
      "type": "function"
    },
    {
      "constant": true,
      "inputs": [],
      "name": "resolver",
      "outputs": [
        {
          "internalType": "contract AddressResolver",
          "name": "",
          "type": "address"
        }
      ],
      "payable": false,
      "stateMutability": "view",
      "type": "function"
    },
    {
      "constant": true,
      "inputs": [],
      "name": "resolverAddressesRequired",
      "outputs": [
        {
          "internalType": "bytes32[]",
          "name": "addresses",
          "type": "bytes32[]"
        }
      ],
      "payable": false,
      "stateMutability": "view",
      "type": "function"
    },
    {
      "constant": false,
      "inputs": [
        {
          "internalType": "uint256",
          "name": "duration",
          "type": "uint256"
        }
      ],
      "name": "setAccountMergingDuration",
      "outputs": [],
      "payable": false,
      "stateMutability": "nonpayable",
      "type": "function"
    },
    {
      "constant": false,
      "inputs": [
        {
          "internalType": "uint256",
          "name": "duration",
          "type": "uint256"
        }
      ],
      "name": "setMaxAccountMergingWindow",
      "outputs": [],
      "payable": false,
      "stateMutability": "nonpayable",
      "type": "function"
    },
    {
      "constant": false,
      "inputs": [
        {
          "internalType": "uint256",
          "name": "duration",
          "type": "uint256"
        }
      ],
      "name": "setMaxEscrowDuration",
      "outputs": [],
      "payable": false,
      "stateMutability": "nonpayable",
      "type": "function"
    },
    {
      "constant": true,
      "inputs": [],
      "name": "setupExpiryTime",
      "outputs": [
        {
          "internalType": "uint256",
          "name": "",
          "type": "uint256"
        }
      ],
      "payable": false,
      "stateMutability": "view",
      "type": "function"
    },
    {
      "constant": false,
      "inputs": [],
      "name": "startMergingWindow",
      "outputs": [],
      "payable": false,
      "stateMutability": "nonpayable",
      "type": "function"
    },
    {
      "constant": true,
      "inputs": [
        {
          "internalType": "address",
          "name": "",
          "type": "address"
        }
      ],
      "name": "totalEscrowedAccountBalance",
      "outputs": [
        {
          "internalType": "uint256",
          "name": "",
          "type": "uint256"
        }
      ],
      "payable": false,
      "stateMutability": "view",
      "type": "function"
    },
    {
      "constant": true,
      "inputs": [],
      "name": "totalEscrowedBalance",
      "outputs": [
        {
          "internalType": "uint256",
          "name": "",
          "type": "uint256"
        }
      ],
      "payable": false,
      "stateMutability": "view",
      "type": "function"
    },
    {
      "constant": true,
      "inputs": [
        {
          "internalType": "address",
          "name": "",
          "type": "address"
        }
      ],
      "name": "totalVestedAccountBalance",
      "outputs": [
        {
          "internalType": "uint256",
          "name": "",
          "type": "uint256"
        }
      ],
      "payable": false,
      "stateMutability": "view",
      "type": "function"
    },
    {
      "constant": false,
      "inputs": [
        {
          "internalType": "uint256[]",
          "name": "entryIDs",
          "type": "uint256[]"
        }
      ],
      "name": "vest",
      "outputs": [],
      "payable": false,
      "stateMutability": "nonpayable",
      "type": "function"
    },
    {
      "constant": true,
      "inputs": [
        {
          "internalType": "address",
          "name": "",
          "type": "address"
        },
        {
          "internalType": "uint256",
          "name": "",
          "type": "uint256"
        }
      ],
      "name": "vestingSchedules",
      "outputs": [
        {
          "internalType": "uint64",
          "name": "endTime",
          "type": "uint64"
        },
        {
          "internalType": "uint256",
          "name": "escrowAmount",
          "type": "uint256"
        }
      ],
      "payable": false,
      "stateMutability": "view",
      "type": "function"
    }
  ],
  "bytecode": "0x60806040526303bfc400600c556224ea00600d5562093a80600e553480156200002757600080fd5b5060405162004e1a38038062004e1a83398181016040526200004d9190810190620001ba565b8181806249d40083600073ffffffffffffffffffffffffffffffffffffffff168173ffffffffffffffffffffffffffffffffffffffff161415620000c8576040517f08c379a0000000000000000000000000000000000000000000000000000000008152600401620000bf906200028c565b60405180910390fd5b806000806101000a81548173ffffffffffffffffffffffffffffffffffffffff021916908373ffffffffffffffffffffffffffffffffffffffff1602179055507fb532073b38c83145e3e5135377a08bf9aab55bc0fd7c1179cd4fb995d2a5159c6000826040516200013c9291906200025f565b60405180910390a1508042016002819055505080600360006101000a81548173ffffffffffffffffffffffffffffffffffffffff021916908373ffffffffffffffffffffffffffffffffffffffff1602179055505060016007819055505050505062000349565b600081519050620001b4816200032f565b92915050565b60008060408385031215620001ce57600080fd5b6000620001de85828601620001a3565b9250506020620001f185828601620001a3565b9150509250929050565b6200020681620002f3565b82525050565b6200021781620002bf565b82525050565b60006200022c601983620002ae565b91507f4f776e657220616464726573732063616e6e6f742062652030000000000000006000830152602082019050919050565b6000604082019050620002766000830185620001fb565b6200028560208301846200020c565b9392505050565b60006020820190508181036000830152620002a7816200021d565b9050919050565b600082825260208201905092915050565b6000620002cc82620002d3565b9050919050565b600073ffffffffffffffffffffffffffffffffffffffff82169050919050565b6000620003008262000307565b9050919050565b600062000314826200031b565b9050919050565b60006200032882620002d3565b9050919050565b6200033a81620002bf565b81146200034657600080fd5b50565b614ac180620003596000396000f3fe608060405234801561001057600080fd5b50600436106102535760003560e01c80636dc05bd31161014657806380d46f58116100c3578063ae58254911610087578063ae582549146106ed578063b95375bd1461071d578063cd7b43dd14610739578063e6b2cf6c14610755578063eac6248914610773578063f0b882ba146107a357610253565b806380d46f5814610646578063899ffef4146106775780638da5cb5b14610695578063910a326d146106b3578063a0416ed3146106d157610253565b8063773ab39f1161010a578063773ab39f146105b85780637839b92f146105e85780637993e6991461060457806379ba5097146106205780637cc1d7561461062a57610253565b80636dc05bd31461050057806370a082311461053057806371e780f31461056057806373307e401461057e57806374185360146105ae57610253565b806330104c5f116101d457806345626bd61161019857806345626bd61461044457806346ba2d901461047557806353a47bb7146104935780635eb8cf25146104b15780636154c343146104cf57610253565b806330104c5f1461038e578063326a3cfb146103be57806334c7fec9146103ee57806337088ffc1461040a5780634525aabc1461042857610253565b8063178c56551161021b578063178c5655146102ea5780631bb47b44146102f4578063204b676a14610310578063227d517a146103405780632af64bd31461037057610253565b8063018c6c551461025857806304f3bcec1461027457806305662986146102925780630fcdefb7146102b05780631627540c146102ce575b600080fd5b610272600480360361026d9190810190613726565b6107bf565b005b61027c610808565b604051610289919061446e565b60405180910390f35b61029a61082e565b6040516102a791906143df565b60405180910390f35b6102b861084e565b6040516102c591906146eb565b60405180910390f35b6102e860048036036102e3919081019061344a565b610854565b005b6102f26108d7565b005b61030e6004803603610309919081019061359c565b610939565b005b61032a6004803603610325919081019061344a565b6109be565b60405161033791906146eb565b60405180910390f35b61035a6004803603610355919081019061344a565b610a0a565b60405161036791906146eb565b60405180910390f35b610378610a22565b60405161038591906143df565b60405180910390f35b6103a860048036036103a391908101906134f4565b610bf7565b6040516103b591906146eb565b60405180910390f35b6103d860048036036103d3919081019061344a565b610cac565b6040516103e591906146eb565b60405180910390f35b6104086004803603610403919081019061368f565b610cc4565b005b610412610def565b60405161041f91906146eb565b60405180910390f35b610442600480360361043d9190810190613726565b610df5565b005b61045e600480360361045991908101906134f4565b610e3e565b60405161046c9291906147a4565b60405180910390f35b61047d610e83565b60405161048a91906146eb565b60405180910390f35b61049b610e89565b6040516104a89190614239565b60405180910390f35b6104b9610eaf565b6040516104c691906146eb565b60405180910390f35b6104e960048036036104e491908101906134f4565b610eb5565b6040516104f79291906147a4565b60405180910390f35b61051a6004803603610515919081019061349c565b610f7f565b60405161052791906146eb565b60405180910390f35b61054a6004803603610545919081019061344a565b61108b565b60405161055791906146eb565b60405180910390f35b6105686110d4565b60405161057591906146eb565b60405180910390f35b6105986004803603610593919081019061344a565b6110da565b6040516105a59190614239565b60405180910390f35b6105b661110d565b005b6105d260048036036105cd919081019061359c565b6112ae565b6040516105df919061439b565b60405180910390f35b61060260048036036105fd919081019061344a565b611541565b005b61061e60048036036106199190810190613726565b61154c565b005b6106286115da565b005b610644600480360361063f919081019061344a565b61178c565b005b610660600480360361065b919081019061349c565b6119e3565b60405161066e929190614706565b60405180910390f35b61067f6119f7565b60405161068c9190614379565b60405180910390f35b61069d611a84565b6040516106aa9190614239565b60405180910390f35b6106bb611aa9565b6040516106c891906146eb565b60405180910390f35b6106eb60048036036106e6919081019061359c565b611aaf565b005b610707600480360361070291908101906134f4565b611c04565b60405161071491906146eb565b60405180910390f35b610737600480360361073291908101906135eb565b611c32565b005b610753600480360361074e9190810190613530565b611c42565b005b61075d611e8b565b60405161076a91906146eb565b60405180910390f35b61078d6004803603610788919081019061359c565b611e91565b60405161079a91906143bd565b60405180910390f35b6107bd60048036036107b8919081019061349c565b61203b565b005b6107c7612644565b80600d819055507fe829efae5d8a2f7163f46c23a8190bf14625c1e446561ca0f5cf279ab7c8015e816040516107fd91906146eb565b60405180910390a150565b600360009054906101000a900473ffffffffffffffffffffffffffffffffffffffff1681565b600042610848600e54600f546126d590919063ffffffff16565b11905090565b600f5481565b61085c612644565b80600160006101000a81548173ffffffffffffffffffffffffffffffffffffffff021916908373ffffffffffffffffffffffffffffffffffffffff1602179055507f906a1c6bd7e3091ea86693dd029a831c19049ce77f1dce2ce0bab1cacbabce22816040516108cc9190614239565b60405180910390a150565b6108df612644565b42600f819055507fceade2b9bc02350b17075c94bb699508b89ed2752f501ea42024b1bb5fd34445600f54610921600e54600f546126d590919063ffffffff16565b60405161092f929190614736565b60405180910390a1565b61094161272a565b73ffffffffffffffffffffffffffffffffffffffff163373ffffffffffffffffffffffffffffffffffffffff16146109ae576040517f08c379a00000000000000000000000000000000000000000000000000000000081526004016109a59061468b565b60405180910390fd5b6109b983838361275a565b505050565b6000600660008373ffffffffffffffffffffffffffffffffffffffff1673ffffffffffffffffffffffffffffffffffffffff168152602001908152602001600020805490509050919050565b60096020528060005260406000206000915090505481565b60006060610a2e6119f7565b905060008090505b8151811015610bed576000828281518110610a4d57fe5b602002602001015190506004600082815260200190815260200160002060009054906101000a900473ffffffffffffffffffffffffffffffffffffffff1673ffffffffffffffffffffffffffffffffffffffff16600360009054906101000a900473ffffffffffffffffffffffffffffffffffffffff1673ffffffffffffffffffffffffffffffffffffffff166321f8a721836040518263ffffffff1660e01b8152600401610afc91906143fa565b60206040518083038186803b158015610b1457600080fd5b505afa158015610b28573d6000803e3d6000fd5b505050506040513d601f19601f82011682018060405250610b4c9190810190613473565b73ffffffffffffffffffffffffffffffffffffffff16141580610bce5750600073ffffffffffffffffffffffffffffffffffffffff166004600083815260200190815260200160002060009054906101000a900473ffffffffffffffffffffffffffffffffffffffff1673ffffffffffffffffffffffffffffffffffffffff16145b15610bdf5760009350505050610bf4565b508080600101915050610a36565b5060019150505b90565b6000610c01613253565b600560008573ffffffffffffffffffffffffffffffffffffffff1673ffffffffffffffffffffffffffffffffffffffff16815260200190815260200160002060008481526020019081526020016000206040518060400160405290816000820160009054906101000a900467ffffffffffffffff1667ffffffffffffffff1667ffffffffffffffff1681526020016001820154815250509050610ca381612b0c565b91505092915050565b60086020528060005260406000206000915090505481565b600080600090505b83839050811015610dd6576000600560003373ffffffffffffffffffffffffffffffffffffffff1673ffffffffffffffffffffffffffffffffffffffff1681526020019081526020016000206000868685818110610d2657fe5b90506020020135815260200190815260200160002090506000816001015414610dc8576000610d9b826040518060400160405290816000820160009054906101000a900467ffffffffffffffff1667ffffffffffffffff1667ffffffffffffffff168152602001600182015481525050612b0c565b90506000811115610db157600082600101819055505b610dc481856126d590919063ffffffff16565b9350505b508080600101915050610ccc565b5060008114610dea57610de93382612b4a565b5b505050565b600d5481565b610dfd612644565b80600c819055507f6b92bd20c4b2e6861047ba7209ddc78d538419aae187d0df46716b827b8997a481604051610e3391906146eb565b60405180910390a150565b6005602052816000526040600020602052806000526040600020600091509150508060000160009054906101000a900467ffffffffffffffff16908060010154905082565b60025481565b600160009054906101000a900473ffffffffffffffffffffffffffffffffffffffff1681565b600c5481565b600080600560008573ffffffffffffffffffffffffffffffffffffffff1673ffffffffffffffffffffffffffffffffffffffff168152602001908152602001600020600084815260200190815260200160002060000160009054906101000a900467ffffffffffffffff169150600560008573ffffffffffffffffffffffffffffffffffffffff1673ffffffffffffffffffffffffffffffffffffffff16815260200190815260200160002060008481526020019081526020016000206001015490509250929050565b600080600090505b8383905081101561108357610f9a613253565b600560008773ffffffffffffffffffffffffffffffffffffffff1673ffffffffffffffffffffffffffffffffffffffff1681526020019081526020016000206000868685818110610fe757fe5b9050602002013581526020019081526020016000206040518060400160405290816000820160009054906101000a900467ffffffffffffffff1667ffffffffffffffff1667ffffffffffffffff1681526020016001820154815250509050600081602001511461107557600061105c82612b0c565b905061107181856126d590919063ffffffff16565b9350505b508080600101915050610f87565b509392505050565b6000600860008373ffffffffffffffffffffffffffffffffffffffff1673ffffffffffffffffffffffffffffffffffffffff168152602001908152602001600020549050919050565b600b5481565b600a6020528060005260406000206000915054906101000a900473ffffffffffffffffffffffffffffffffffffffff1681565b60606111176119f7565b905060008090505b81518110156112aa57600082828151811061113657fe5b602002602001015190506000600360009054906101000a900473ffffffffffffffffffffffffffffffffffffffff1673ffffffffffffffffffffffffffffffffffffffff1663dacb2d0183846040516020016111929190614213565b6040516020818303038152906040526040518363ffffffff1660e01b81526004016111be92919061443e565b60206040518083038186803b1580156111d657600080fd5b505afa1580156111ea573d6000803e3d6000fd5b505050506040513d601f19601f8201168201806040525061120e9190810190613473565b9050806004600084815260200190815260200160002060006101000a81548173ffffffffffffffffffffffffffffffffffffffff021916908373ffffffffffffffffffffffffffffffffffffffff1602179055507f88a93678a3692f6789d9546fc621bf7234b101ddb7d4fe479455112831b8aa688282604051611293929190614415565b60405180910390a15050808060010191505061111f565b5050565b6060600082840190508381116113025760006040519080825280602002602001820160405280156112f957816020015b6112e6613277565b8152602001906001900390816112de5790505b5091505061153a565b600660008673ffffffffffffffffffffffffffffffffffffffff1673ffffffffffffffffffffffffffffffffffffffff1681526020019081526020016000208054905081111561139257600660008673ffffffffffffffffffffffffffffffffffffffff1673ffffffffffffffffffffffffffffffffffffffff1681526020019081526020016000208054905090505b600084820390506060816040519080825280602002602001820160405280156113d557816020015b6113c2613277565b8152602001906001900390816113ba5790505b50905060005b82811015611532576000600660008a73ffffffffffffffffffffffffffffffffffffffff1673ffffffffffffffffffffffffffffffffffffffff1681526020019081526020016000208883018154811061143157fe5b90600052602060002001549050611446613253565b600560008b73ffffffffffffffffffffffffffffffffffffffff1673ffffffffffffffffffffffffffffffffffffffff16815260200190815260200160002060008381526020019081526020016000206040518060400160405290816000820160009054906101000a900467ffffffffffffffff1667ffffffffffffffff1667ffffffffffffffff16815260200160018201548152505090506040518060600160405280826000015167ffffffffffffffff168152602001826020015181526020018381525084848151811061151857fe5b6020026020010181905250505080806001019150506113db565b508093505050505b9392505050565b611549612cd2565b50565b611554612644565b600d54811115611599576040517f08c379a00000000000000000000000000000000000000000000000000000000081526004016115909061466b565b60405180910390fd5b80600e819055507f723c43349da7aeae47190396f2e2fbe6bedb46b9e9705bc5b908d65bc7a1e0e6816040516115cf91906146eb565b60405180910390a150565b600160009054906101000a900473ffffffffffffffffffffffffffffffffffffffff1673ffffffffffffffffffffffffffffffffffffffff163373ffffffffffffffffffffffffffffffffffffffff161461166a576040517f08c379a0000000000000000000000000000000000000000000000000000000008152600401611661906144cb565b60405180910390fd5b7fb532073b38c83145e3e5135377a08bf9aab55bc0fd7c1179cd4fb995d2a5159c6000809054906101000a900473ffffffffffffffffffffffffffffffffffffffff16600160009054906101000a900473ffffffffffffffffffffffffffffffffffffffff166040516116de929190614300565b60405180910390a1600160009054906101000a900473ffffffffffffffffffffffffffffffffffffffff166000806101000a81548173ffffffffffffffffffffffffffffffffffffffff021916908373ffffffffffffffffffffffffffffffffffffffff1602179055506000600160006101000a81548173ffffffffffffffffffffffffffffffffffffffff021916908373ffffffffffffffffffffffffffffffffffffffff160217905550565b3373ffffffffffffffffffffffffffffffffffffffff168173ffffffffffffffffffffffffffffffffffffffff1614156117fb576040517f08c379a00000000000000000000000000000000000000000000000000000000081526004016117f29061460b565b60405180910390fd5b61180361082e565b611842576040517f08c379a0000000000000000000000000000000000000000000000000000000008152600401611839906145cb565b60405180910390fd5b600061184c612d0d565b73ffffffffffffffffffffffffffffffffffffffff1663d37c4d8b336040518263ffffffff1660e01b8152600401611884919061428b565b60206040518083038186803b15801561189c57600080fd5b505afa1580156118b0573d6000803e3d6000fd5b505050506040513d601f19601f820116820180604052506118d4919081019061374f565b14611914576040517f08c379a000000000000000000000000000000000000000000000000000000000815260040161190b906146cb565b60405180910390fd5b80600a60003373ffffffffffffffffffffffffffffffffffffffff1673ffffffffffffffffffffffffffffffffffffffff16815260200190815260200160002060006101000a81548173ffffffffffffffffffffffffffffffffffffffff021916908373ffffffffffffffffffffffffffffffffffffffff1602179055503373ffffffffffffffffffffffffffffffffffffffff167fcf51776bb16e5780edcca2e64a9ba8a9c7d5d00a6699cbd7606e465361ba4852826040516119d89190614239565b60405180910390a250565b600060606119ef612cd2565b935093915050565b606080611a02612d3d565b905060606001604051908082528060200260200182016040528015611a365781602001602082028038833980820191505090505b5090507f5065726946696e427269646765546f426173650000000000000000000000000081600081518110611a6757fe5b602002602001018181525050611a7d8282612e23565b9250505090565b6000809054906101000a900473ffffffffffffffffffffffffffffffffffffffff1681565b600e5481565b600073ffffffffffffffffffffffffffffffffffffffff168373ffffffffffffffffffffffffffffffffffffffff161415611b1f576040517f08c379a0000000000000000000000000000000000000000000000000000000008152600401611b169061452b565b60405180910390fd5b611b27612ef6565b73ffffffffffffffffffffffffffffffffffffffff166323b872dd3330856040518463ffffffff1660e01b8152600401611b6393929190614254565b602060405180830381600087803b158015611b7d57600080fd5b505af1158015611b91573d6000803e3d6000fd5b505050506040513d601f19601f82011682018060405250611bb591908101906136d4565b611bf4576040517f08c379a0000000000000000000000000000000000000000000000000000000008152600401611beb906145eb565b60405180910390fd5b611bff83838361275a565b505050565b60066020528160005260406000208181548110611c1d57fe5b90600052602060002001600091509150505481565b611c3a612cd2565b505050505050565b611c4a612f26565b73ffffffffffffffffffffffffffffffffffffffff163373ffffffffffffffffffffffffffffffffffffffff1614611cb7576040517f08c379a0000000000000000000000000000000000000000000000000000000008152600401611cae906144ab565b60405180910390fd5b611ccc83600b546126d590919063ffffffff16565b600b81905550611cda612ef6565b73ffffffffffffffffffffffffffffffffffffffff166370a08231306040518263ffffffff1660e01b8152600401611d129190614239565b60206040518083038186803b158015611d2a57600080fd5b505afa158015611d3e573d6000803e3d6000fd5b505050506040513d601f19601f82011682018060405250611d62919081019061374f565b600b541115611da6576040517f08c379a0000000000000000000000000000000000000000000000000000000008152600401611d9d906146ab565b60405180910390fd5b611df883600860008773ffffffffffffffffffffffffffffffffffffffff1673ffffffffffffffffffffffffffffffffffffffff168152602001908152602001600020546126d590919063ffffffff16565b600860008673ffffffffffffffffffffffffffffffffffffffff1673ffffffffffffffffffffffffffffffffffffffff1681526020019081526020016000208190555060008090505b82829050811015611e8457611e7785848484818110611e5c57fe5b905060400201803603611e7291908101906136fd565b612f56565b8080600101915050611e41565b5050505050565b60075481565b606060008284019050600660008673ffffffffffffffffffffffffffffffffffffffff1673ffffffffffffffffffffffffffffffffffffffff16815260200190815260200160002080549050811115611f2a57600660008673ffffffffffffffffffffffffffffffffffffffff1673ffffffffffffffffffffffffffffffffffffffff1681526020019081526020016000208054905090505b838111611f6a576000604051908082528060200260200182016040528015611f615781602001602082028038833980820191505090505b50915050612034565b60008482039050606081604051908082528060200260200182016040528015611fa25781602001602082028038833980820191505090505b50905060005b8281101561202c57600660008973ffffffffffffffffffffffffffffffffffffffff1673ffffffffffffffffffffffffffffffffffffffff16815260200190815260200160002087820181548110611ffc57fe5b906000526020600020015482828151811061201357fe5b6020026020010181815250508080600101915050611fa8565b508093505050505b9392505050565b61204361082e565b612082576040517f08c379a0000000000000000000000000000000000000000000000000000000008152600401612079906145cb565b60405180910390fd5b600061208c612d0d565b73ffffffffffffffffffffffffffffffffffffffff1663d37c4d8b856040518263ffffffff1660e01b81526004016120c49190614329565b60206040518083038186803b1580156120dc57600080fd5b505afa1580156120f0573d6000803e3d6000fd5b505050506040513d601f19601f82011682018060405250612114919081019061374f565b14612154576040517f08c379a000000000000000000000000000000000000000000000000000000000815260040161214b906146cb565b60405180910390fd5b3373ffffffffffffffffffffffffffffffffffffffff16600a60008573ffffffffffffffffffffffffffffffffffffffff1673ffffffffffffffffffffffffffffffffffffffff16815260200190815260200160002060009054906101000a900473ffffffffffffffffffffffffffffffffffffffff1673ffffffffffffffffffffffffffffffffffffffff1614612221576040517f08c379a00000000000000000000000000000000000000000000000000000000081526004016122189061464b565b60405180910390fd5b600080600090505b838390508110156124bd5761223c613253565b600560008773ffffffffffffffffffffffffffffffffffffffff1673ffffffffffffffffffffffffffffffffffffffff168152602001908152602001600020600086868581811061228957fe5b9050602002013581526020019081526020016000206040518060400160405290816000820160009054906101000a900467ffffffffffffffff1667ffffffffffffffff1667ffffffffffffffff168152602001600182015481525050905060008160200151146124af5780600560003373ffffffffffffffffffffffffffffffffffffffff1673ffffffffffffffffffffffffffffffffffffffff168152602001908152602001600020600087878681811061234157fe5b90506020020135815260200190815260200160002060008201518160000160006101000a81548167ffffffffffffffff021916908367ffffffffffffffff160217905550602082015181600101559050506123a98160200151846126d590919063ffffffff16565b9250600660003373ffffffffffffffffffffffffffffffffffffffff1673ffffffffffffffffffffffffffffffffffffffff1681526020019081526020016000208585848181106123f657fe5b905060200201359080600181540180825580915050906001820390600052602060002001600090919290919091505550600560008773ffffffffffffffffffffffffffffffffffffffff1673ffffffffffffffffffffffffffffffffffffffff168152602001908152602001600020600086868581811061247357fe5b905060200201358152602001908152602001600020600080820160006101000a81549067ffffffffffffffff0219169055600182016000905550505b508080600101915050612229565b5061251081600860008773ffffffffffffffffffffffffffffffffffffffff1673ffffffffffffffffffffffffffffffffffffffff1681526020019081526020016000205461307490919063ffffffff16565b600860008673ffffffffffffffffffffffffffffffffffffffff1673ffffffffffffffffffffffffffffffffffffffff168152602001908152602001600020819055506125a581600860003373ffffffffffffffffffffffffffffffffffffffff1673ffffffffffffffffffffffffffffffffffffffff168152602001908152602001600020546126d590919063ffffffff16565b600860003373ffffffffffffffffffffffffffffffffffffffff1673ffffffffffffffffffffffffffffffffffffffff168152602001908152602001600020819055508373ffffffffffffffffffffffffffffffffffffffff167f48d567deaa7db90f8a443344e519ca8906521ffe118e1df43e89a3c257963f7c33838686426040516126369594939291906142b2565b60405180910390a250505050565b6000809054906101000a900473ffffffffffffffffffffffffffffffffffffffff1673ffffffffffffffffffffffffffffffffffffffff163373ffffffffffffffffffffffffffffffffffffffff16146126d3576040517f08c379a00000000000000000000000000000000000000000000000000000000081526004016126ca9061462b565b60405180910390fd5b565b600080828401905083811015612720576040517f08c379a0000000000000000000000000000000000000000000000000000000008152600401612717906144eb565b60405180910390fd5b8091505092915050565b60006127557f466565506f6f6c000000000000000000000000000000000000000000000000006130ca565b905090565b600082141561279e576040517f08c379a00000000000000000000000000000000000000000000000000000000081526004016127959061458b565b60405180910390fd5b6000811180156127b05750600c548111155b6127ef576040517f08c379a00000000000000000000000000000000000000000000000000000000081526004016127e69061450b565b60405180910390fd5b61280482600b546126d590919063ffffffff16565b600b81905550612812612ef6565b73ffffffffffffffffffffffffffffffffffffffff166370a08231306040518263ffffffff1660e01b815260040161284a9190614239565b60206040518083038186803b15801561286257600080fd5b505afa158015612876573d6000803e3d6000fd5b505050506040513d601f19601f8201168201806040525061289a919081019061374f565b600b5411156128de576040517f08c379a00000000000000000000000000000000000000000000000000000000081526004016128d5906145ab565b60405180910390fd5b6000814201905061293783600860008773ffffffffffffffffffffffffffffffffffffffff1673ffffffffffffffffffffffffffffffffffffffff168152602001908152602001600020546126d590919063ffffffff16565b600860008673ffffffffffffffffffffffffffffffffffffffff1673ffffffffffffffffffffffffffffffffffffffff168152602001908152602001600020819055506000600754905060405180604001604052808367ffffffffffffffff16815260200185815250600560008773ffffffffffffffffffffffffffffffffffffffff1673ffffffffffffffffffffffffffffffffffffffff168152602001908152602001600020600083815260200190815260200160002060008201518160000160006101000a81548167ffffffffffffffff021916908367ffffffffffffffff16021790555060208201518160010155905050600660008673ffffffffffffffffffffffffffffffffffffffff1673ffffffffffffffffffffffffffffffffffffffff168152602001908152602001600020819080600181540180825580915050906001820390600052602060002001600090919290919091505550612aab60016007546126d590919063ffffffff16565b6007819055508473ffffffffffffffffffffffffffffffffffffffff167f2cc016694185d38abbe28d9e9baea2e9d95a321ae43475e5ea7b643756840bc042868685604051612afd949392919061475f565b60405180910390a25050505050565b6000806000836020015114612b4157826000015167ffffffffffffffff16421015612b38576000612b3e565b82602001515b90505b80915050919050565b612b54828261319f565b612ba681600960008573ffffffffffffffffffffffffffffffffffffffff1673ffffffffffffffffffffffffffffffffffffffff168152602001908152602001600020546126d590919063ffffffff16565b600960008473ffffffffffffffffffffffffffffffffffffffff1673ffffffffffffffffffffffffffffffffffffffff16815260200190815260200160002081905550612bf1612ef6565b73ffffffffffffffffffffffffffffffffffffffff1663a9059cbb83836040518363ffffffff1660e01b8152600401612c2b929190614350565b602060405180830381600087803b158015612c4557600080fd5b505af1158015612c59573d6000803e3d6000fd5b505050506040513d601f19601f82011682018060405250612c7d91908101906136d4565b508173ffffffffffffffffffffffffffffffffffffffff167ffbeff59d2bfda0d79ea8a29f8c57c66d48c7a13eabbdb90908d9115ec41c9dc64283604051612cc6929190614736565b60405180910390a25050565b6040517f08c379a0000000000000000000000000000000000000000000000000000000008152600401612d049061456b565b60405180910390fd5b6000612d387f49737375657200000000000000000000000000000000000000000000000000006130ca565b905090565b60606003604051908082528060200260200182016040528015612d6f5781602001602082028038833980820191505090505b5090507f5065726946696e0000000000000000000000000000000000000000000000000081600081518110612da057fe5b6020026020010181815250507f466565506f6f6c0000000000000000000000000000000000000000000000000081600181518110612dda57fe5b6020026020010181815250507f497373756572000000000000000000000000000000000000000000000000000081600281518110612e1457fe5b60200260200101818152505090565b60608151835101604051908082528060200260200182016040528015612e585781602001602082028038833980820191505090505b50905060008090505b8351811015612ea357838181518110612e7657fe5b6020026020010151828281518110612e8a57fe5b6020026020010181815250508080600101915050612e61565b5060008090505b8251811015612eef57828181518110612ebf57fe5b6020026020010151828286510181518110612ed657fe5b6020026020010181815250508080600101915050612eaa565b5092915050565b6000612f217f5065726946696e000000000000000000000000000000000000000000000000006130ca565b905090565b6000612f517f5065726946696e427269646765546f42617365000000000000000000000000006130ca565b905090565b6000600754905081600560008573ffffffffffffffffffffffffffffffffffffffff1673ffffffffffffffffffffffffffffffffffffffff168152602001908152602001600020600083815260200190815260200160002060008201518160000160006101000a81548167ffffffffffffffff021916908367ffffffffffffffff16021790555060208201518160010155905050600660008473ffffffffffffffffffffffffffffffffffffffff1673ffffffffffffffffffffffffffffffffffffffff16815260200190815260200160002081908060018154018082558091505090600182039060005260206000200160009091929091909150555061306960016007546126d590919063ffffffff16565b600781905550505050565b6000828211156130b9576040517f08c379a00000000000000000000000000000000000000000000000000000000081526004016130b09061454b565b60405180910390fd5b600082840390508091505092915050565b6000806004600084815260200190815260200160002060009054906101000a900473ffffffffffffffffffffffffffffffffffffffff169050600073ffffffffffffffffffffffffffffffffffffffff168173ffffffffffffffffffffffffffffffffffffffff1614158360405160200161314591906141ed565b60405160208183030381529060405290613195576040517f08c379a000000000000000000000000000000000000000000000000000000000815260040161318c9190614489565b60405180910390fd5b5080915050919050565b6131b481600b5461307490919063ffffffff16565b600b8190555061320c81600860008573ffffffffffffffffffffffffffffffffffffffff1673ffffffffffffffffffffffffffffffffffffffff1681526020019081526020016000205461307490919063ffffffff16565b600860008473ffffffffffffffffffffffffffffffffffffffff1673ffffffffffffffffffffffffffffffffffffffff168152602001908152602001600020819055505050565b6040518060400160405280600067ffffffffffffffff168152602001600081525090565b6040518060600160405280600067ffffffffffffffff16815260200160008152602001600081525090565b6000813590506132b181614a22565b92915050565b6000815190506132c681614a22565b92915050565b60008083601f8401126132de57600080fd5b8235905067ffffffffffffffff8111156132f757600080fd5b60208301915083602082028301111561330f57600080fd5b9250929050565b60008083601f84011261332857600080fd5b8235905067ffffffffffffffff81111561334157600080fd5b60208301915083604082028301111561335957600080fd5b9250929050565b60008083601f84011261337257600080fd5b8235905067ffffffffffffffff81111561338b57600080fd5b6020830191508360208202830111156133a357600080fd5b9250929050565b6000815190506133b981614a39565b92915050565b6000604082840312156133d157600080fd5b6133db60406147cd565b905060006133eb84828501613435565b60008301525060206133ff8482850161340b565b60208301525092915050565b60008135905061341a81614a50565b92915050565b60008151905061342f81614a50565b92915050565b60008135905061344481614a67565b92915050565b60006020828403121561345c57600080fd5b600061346a848285016132a2565b91505092915050565b60006020828403121561348557600080fd5b6000613493848285016132b7565b91505092915050565b6000806000604084860312156134b157600080fd5b60006134bf868287016132a2565b935050602084013567ffffffffffffffff8111156134dc57600080fd5b6134e886828701613360565b92509250509250925092565b6000806040838503121561350757600080fd5b6000613515858286016132a2565b92505060206135268582860161340b565b9150509250929050565b6000806000806060858703121561354657600080fd5b6000613554878288016132a2565b94505060206135658782880161340b565b935050604085013567ffffffffffffffff81111561358257600080fd5b61358e87828801613316565b925092505092959194509250565b6000806000606084860312156135b157600080fd5b60006135bf868287016132a2565b93505060206135d08682870161340b565b92505060406135e18682870161340b565b9150509250925092565b6000806000806000806060878903121561360457600080fd5b600087013567ffffffffffffffff81111561361e57600080fd5b61362a89828a016132cc565b9650965050602087013567ffffffffffffffff81111561364957600080fd5b61365589828a01613360565b9450945050604087013567ffffffffffffffff81111561367457600080fd5b61368089828a01613360565b92509250509295509295509295565b600080602083850312156136a257600080fd5b600083013567ffffffffffffffff8111156136bc57600080fd5b6136c885828601613360565b92509250509250929050565b6000602082840312156136e657600080fd5b60006136f4848285016133aa565b91505092915050565b60006040828403121561370f57600080fd5b600061371d848285016133bf565b91505092915050565b60006020828403121561373857600080fd5b60006137468482850161340b565b91505092915050565b60006020828403121561376157600080fd5b600061376f84828501613420565b91505092915050565b600061378483836139d5565b60208301905092915050565b600061379c8383614140565b60608301905092915050565b60006137b48383614182565b60408301905092915050565b60006137cc83836141b1565b60208301905092915050565b6137e18161496b565b82525050565b6137f081614905565b82525050565b60006138018261483a565b61380b81856148a5565b9350613816836147fa565b8060005b8381101561384757815161382e8882613778565b975061383983614871565b92505060018101905061381a565b5085935050505092915050565b600061385f82614845565b61386981856148b6565b93506138748361480a565b8060005b838110156138a557815161388c8882613790565b97506138978361487e565b925050600181019050613878565b5085935050505092915050565b60006138bd82614850565b6138c781856148c7565b93506138d28361481a565b8060005b838110156139035781516138ea88826137a8565b97506138f58361488b565b9250506001810190506138d6565b5085935050505092915050565b600061391c83856148d8565b93507f07ffffffffffffffffffffffffffffffffffffffffffffffffffffffffffffff83111561394b57600080fd5b60208302925061395c8385846149c5565b82840190509392505050565b60006139738261485b565b61397d81856148d8565b93506139888361482a565b8060005b838110156139b95781516139a088826137c0565b97506139ab83614898565b92505060018101905061398c565b5085935050505092915050565b6139cf81614917565b82525050565b6139de81614923565b82525050565b6139ed81614923565b82525050565b613a046139ff82614923565b614a07565b82525050565b613a138161497d565b82525050565b6000613a2482614866565b613a2e81856148e9565b9350613a3e8185602086016149d4565b613a4781614a11565b840191505092915050565b6000613a5f6033836148e9565b91507f43616e206f6e6c7920626520696e766f6b6564206279205065726946696e427260008301527f69646765546f4261736520636f6e7472616374000000000000000000000000006020830152604082019050919050565b6000613ac56035836148e9565b91507f596f75206d757374206265206e6f6d696e61746564206265666f726520796f7560008301527f2063616e20616363657074206f776e65727368697000000000000000000000006020830152604082019050919050565b6000613b2b601b836148e9565b91507f536166654d6174683a206164646974696f6e206f766572666c6f7700000000006000830152602082019050919050565b6000613b6b6033836148e9565b91507f43616e6e6f7420657363726f7720776974682030206475726174696f6e204f5260008301527f2061626f7665206d61785f6475726174696f6e000000000000000000000000006020830152604082019050919050565b6000613bd16024836148e9565b91507f43616e6e6f742063726561746520657363726f7720776974682061646472657360008301527f73283029000000000000000000000000000000000000000000000000000000006020830152604082019050919050565b6000613c37601e836148e9565b91507f536166654d6174683a207375627472616374696f6e206f766572666c6f7700006000830152602082019050919050565b6000613c77601b836148e9565b91507f43616e6e6f742062652072756e206f6e2074686973206c6179657200000000006000830152602082019050919050565b6000613cb76011836148fa565b91507f4d697373696e6720616464726573733a200000000000000000000000000000006000830152601182019050919050565b6000613cf76017836148e9565b91507f5175616e746974792063616e6e6f74206265207a65726f0000000000000000006000830152602082019050919050565b6000613d376047836148e9565b91507f4d75737420626520656e6f7567682062616c616e636520696e2074686520636f60008301527f6e747261637420746f2070726f7669646520666f72207468652076657374696e60208301527f6720656e747279000000000000000000000000000000000000000000000000006040830152606082019050919050565b6000613dc36019836148e9565b91507f4163636f756e74206d657267696e672068617320656e646564000000000000006000830152602082019050919050565b6000613e036015836148e9565b91507f746f6b656e207472616e73666572206661696c656400000000000000000000006000830152602082019050919050565b6000613e436024836148e9565b91507f43616e6e6f74206e6f6d696e617465206f776e206163636f756e7420746f206d60008301527f65726765000000000000000000000000000000000000000000000000000000006020830152604082019050919050565b6000613ea9602f836148e9565b91507f4f6e6c792074686520636f6e7472616374206f776e6572206d6179207065726660008301527f6f726d207468697320616374696f6e00000000000000000000000000000000006020830152604082019050919050565b6000613f0f6021836148e9565b91507f41646472657373206973206e6f74206e6f6d696e6174656420746f206d65726760008301527f65000000000000000000000000000000000000000000000000000000000000006020830152604082019050919050565b7f7055534400000000000000000000000000000000000000000000000000000000815250565b6000613f9b601c836148e9565b91507f65786365656473206d6178206d657267696e67206475726174696f6e000000006000830152602082019050919050565b6000613fdb6019836148fa565b91507f5265736f6c766572206d697373696e67207461726765743a20000000000000006000830152601982019050919050565b600061401b6028836148e9565b91507f4f6e6c792074686520466565506f6f6c2063616e20706572666f726d2074686960008301527f7320616374696f6e0000000000000000000000000000000000000000000000006020830152604082019050919050565b60006140816044836148e9565b91507f496e73756666696369656e742062616c616e636520696e2074686520636f6e7460008301527f7261637420746f2070726f7669646520666f7220657363726f7765642062616c60208301527f616e6365000000000000000000000000000000000000000000000000000000006040830152606082019050919050565b600061410d601f836148e9565b91507f43616e6e6f74206d65726765206163636f756e747320776974682064656274006000830152602082019050919050565b60608201600082015161415660008501826141cf565b50602082015161416960208501826141b1565b50604082015161417c60408501826141b1565b50505050565b60408201600082015161419860008501826141cf565b5060208201516141ab60208501826141b1565b50505050565b6141ba8161494d565b82525050565b6141c98161494d565b82525050565b6141d881614957565b82525050565b6141e781614957565b82525050565b60006141f882613caa565b915061420482846139f3565b60208201915081905092915050565b600061421e82613fce565b915061422a82846139f3565b60208201915081905092915050565b600060208201905061424e60008301846137e7565b92915050565b600060608201905061426960008301866137d8565b61427660208301856137e7565b61428360408301846141c0565b949350505050565b60006040820190506142a060008301846137d8565b6142ac60208301613f68565b92915050565b60006080820190506142c760008301886137d8565b6142d460208301876141c0565b81810360408301526142e7818587613910565b90506142f660608301846141c0565b9695505050505050565b600060408201905061431560008301856137e7565b61432260208301846137e7565b9392505050565b600060408201905061433e60008301846137e7565b61434a60208301613f68565b92915050565b600060408201905061436560008301856137e7565b61437260208301846141c0565b9392505050565b6000602082019050818103600083015261439381846137f6565b905092915050565b600060208201905081810360008301526143b58184613854565b905092915050565b600060208201905081810360008301526143d78184613968565b905092915050565b60006020820190506143f460008301846139c6565b92915050565b600060208201905061440f60008301846139e4565b92915050565b600060408201905061442a60008301856139e4565b61443760208301846137e7565b9392505050565b600060408201905061445360008301856139e4565b81810360208301526144658184613a19565b90509392505050565b60006020820190506144836000830184613a0a565b92915050565b600060208201905081810360008301526144a38184613a19565b905092915050565b600060208201905081810360008301526144c481613a52565b9050919050565b600060208201905081810360008301526144e481613ab8565b9050919050565b6000602082019050818103600083015261450481613b1e565b9050919050565b6000602082019050818103600083015261452481613b5e565b9050919050565b6000602082019050818103600083015261454481613bc4565b9050919050565b6000602082019050818103600083015261456481613c2a565b9050919050565b6000602082019050818103600083015261458481613c6a565b9050919050565b600060208201905081810360008301526145a481613cea565b9050919050565b600060208201905081810360008301526145c481613d2a565b9050919050565b600060208201905081810360008301526145e481613db6565b9050919050565b6000602082019050818103600083015261460481613df6565b9050919050565b6000602082019050818103600083015261462481613e36565b9050919050565b6000602082019050818103600083015261464481613e9c565b9050919050565b6000602082019050818103600083015261466481613f02565b9050919050565b6000602082019050818103600083015261468481613f8e565b9050919050565b600060208201905081810360008301526146a48161400e565b9050919050565b600060208201905081810360008301526146c481614074565b9050919050565b600060208201905081810360008301526146e481614100565b9050919050565b600060208201905061470060008301846141c0565b92915050565b600060408201905061471b60008301856141c0565b818103602083015261472d81846138b2565b90509392505050565b600060408201905061474b60008301856141c0565b61475860208301846141c0565b9392505050565b600060808201905061477460008301876141c0565b61478160208301866141c0565b61478e60408301856141c0565b61479b60608301846141c0565b95945050505050565b60006040820190506147b960008301856141de565b6147c660208301846141c0565b9392505050565b6000604051905081810181811067ffffffffffffffff821117156147f057600080fd5b8060405250919050565b6000819050602082019050919050565b6000819050602082019050919050565b6000819050602082019050919050565b6000819050602082019050919050565b600081519050919050565b600081519050919050565b600081519050919050565b600081519050919050565b600081519050919050565b6000602082019050919050565b6000602082019050919050565b6000602082019050919050565b6000602082019050919050565b600082825260208201905092915050565b600082825260208201905092915050565b600082825260208201905092915050565b600082825260208201905092915050565b600082825260208201905092915050565b600081905092915050565b60006149108261492d565b9050919050565b60008115159050919050565b6000819050919050565b600073ffffffffffffffffffffffffffffffffffffffff82169050919050565b6000819050919050565b600067ffffffffffffffff82169050919050565b6000614976826149a1565b9050919050565b60006149888261498f565b9050919050565b600061499a8261492d565b9050919050565b60006149ac826149b3565b9050919050565b60006149be8261492d565b9050919050565b82818337600083830152505050565b60005b838110156149f25780820151818401526020810190506149d7565b83811115614a01576000848401525b50505050565b6000819050919050565b6000601f19601f8301169050919050565b614a2b81614905565b8114614a3657600080fd5b50565b614a4281614917565b8114614a4d57600080fd5b50565b614a598161494d565b8114614a6457600080fd5b50565b614a7081614957565b8114614a7b57600080fd5b5056fea365627a7a72315820c14dbfae7d014a88eea25664afc83328782e6dae88a5f8e8572781d40792ef176c6578706572696d656e74616cf564736f6c63430005100040",
  "linkReferences": {},
  "deployedLinkReferences": {}
}