{
  "_format": "hh-sol-artifact-1",
  "contractName": "TradingRewards",
  "sourceName": "contracts/TradingRewards.sol",
  "abi": [
    {
      "inputs": [
        {
          "internalType": "address",
          "name": "owner",
          "type": "address"
        },
        {
          "internalType": "address",
          "name": "periodController",
          "type": "address"
        },
        {
          "internalType": "address",
          "name": "resolver",
          "type": "address"
        }
      ],
      "payable": false,
      "stateMutability": "nonpayable",
      "type": "constructor"
    },
    {
      "anonymous": false,
      "inputs": [
        {
          "indexed": false,
          "internalType": "address",
          "name": "recoverAddress",
          "type": "address"
        },
        {
          "indexed": false,
          "internalType": "uint256",
          "name": "amount",
          "type": "uint256"
        },
        {
          "indexed": false,
          "internalType": "uint256",
          "name": "periodID",
          "type": "uint256"
        }
      ],
      "name": "AssignedRewardTokensRecovered",
      "type": "event"
    },
    {
      "anonymous": false,
      "inputs": [
        {
          "indexed": false,
          "internalType": "bytes32",
          "name": "name",
          "type": "bytes32"
        },
        {
          "indexed": false,
          "internalType": "address",
          "name": "destination",
          "type": "address"
        }
      ],
      "name": "CacheUpdated",
      "type": "event"
    },
    {
      "anonymous": false,
      "inputs": [
        {
          "indexed": true,
          "internalType": "address",
          "name": "account",
          "type": "address"
        },
        {
          "indexed": false,
          "internalType": "uint256",
          "name": "amount",
          "type": "uint256"
        },
        {
          "indexed": false,
          "internalType": "uint256",
          "name": "periodID",
          "type": "uint256"
        }
      ],
      "name": "ExchangeFeeRecorded",
      "type": "event"
    },
    {
      "anonymous": false,
      "inputs": [
        {
          "indexed": false,
          "internalType": "uint256",
          "name": "periodID",
          "type": "uint256"
        }
      ],
      "name": "NewPeriodStarted",
      "type": "event"
    },
    {
      "anonymous": false,
      "inputs": [
        {
          "indexed": false,
          "internalType": "address",
          "name": "oldOwner",
          "type": "address"
        },
        {
          "indexed": false,
          "internalType": "address",
          "name": "newOwner",
          "type": "address"
        }
      ],
      "name": "OwnerChanged",
      "type": "event"
    },
    {
      "anonymous": false,
      "inputs": [
        {
          "indexed": false,
          "internalType": "address",
          "name": "newOwner",
          "type": "address"
        }
      ],
      "name": "OwnerNominated",
      "type": "event"
    },
    {
      "anonymous": false,
      "inputs": [
        {
          "indexed": false,
          "internalType": "bool",
          "name": "isPaused",
          "type": "bool"
        }
      ],
      "name": "PauseChanged",
      "type": "event"
    },
    {
      "anonymous": false,
      "inputs": [
        {
          "indexed": false,
          "internalType": "address",
          "name": "newPeriodController",
          "type": "address"
        }
      ],
      "name": "PeriodControllerChanged",
      "type": "event"
    },
    {
      "anonymous": false,
      "inputs": [
        {
          "indexed": false,
          "internalType": "uint256",
          "name": "periodID",
          "type": "uint256"
        },
        {
          "indexed": false,
          "internalType": "uint256",
          "name": "rewards",
          "type": "uint256"
        }
      ],
      "name": "PeriodFinalizedWithRewards",
      "type": "event"
    },
    {
      "anonymous": false,
      "inputs": [
        {
          "indexed": true,
          "internalType": "address",
          "name": "account",
          "type": "address"
        },
        {
          "indexed": false,
          "internalType": "uint256",
          "name": "amount",
          "type": "uint256"
        },
        {
          "indexed": false,
          "internalType": "uint256",
          "name": "periodID",
          "type": "uint256"
        }
      ],
      "name": "RewardsClaimed",
      "type": "event"
    },
    {
      "anonymous": false,
      "inputs": [
        {
          "indexed": false,
          "internalType": "address",
          "name": "tokenAddress",
          "type": "address"
        },
        {
          "indexed": false,
          "internalType": "address",
          "name": "recoverAddress",
          "type": "address"
        },
        {
          "indexed": false,
          "internalType": "uint256",
          "name": "amount",
          "type": "uint256"
        }
      ],
      "name": "TokensRecovered",
      "type": "event"
    },
    {
      "anonymous": false,
      "inputs": [
        {
          "indexed": false,
          "internalType": "address",
          "name": "recoverAddress",
          "type": "address"
        },
        {
          "indexed": false,
          "internalType": "uint256",
          "name": "amount",
          "type": "uint256"
        }
      ],
      "name": "UnassignedRewardTokensRecovered",
      "type": "event"
    },
    {
      "constant": false,
      "inputs": [],
      "name": "acceptOwnership",
      "outputs": [],
      "payable": false,
      "stateMutability": "nonpayable",
      "type": "function"
    },
    {
      "constant": false,
      "inputs": [
        {
          "internalType": "uint256",
          "name": "periodID",
          "type": "uint256"
        }
      ],
      "name": "claimRewardsForPeriod",
      "outputs": [],
      "payable": false,
      "stateMutability": "nonpayable",
      "type": "function"
    },
    {
      "constant": false,
      "inputs": [
        {
          "internalType": "uint256[]",
          "name": "periodIDs",
          "type": "uint256[]"
        }
      ],
      "name": "claimRewardsForPeriods",
      "outputs": [],
      "payable": false,
      "stateMutability": "nonpayable",
      "type": "function"
    },
    {
      "constant": false,
      "inputs": [
        {
          "internalType": "uint256",
          "name": "rewards",
          "type": "uint256"
        }
      ],
      "name": "closeCurrentPeriodWithRewards",
      "outputs": [],
      "payable": false,
      "stateMutability": "nonpayable",
      "type": "function"
    },
    {
      "constant": true,
      "inputs": [],
      "name": "getAvailableRewards",
      "outputs": [
        {
          "internalType": "uint256",
          "name": "",
          "type": "uint256"
        }
      ],
      "payable": false,
      "stateMutability": "view",
      "type": "function"
    },
    {
      "constant": true,
      "inputs": [
        {
          "internalType": "address",
          "name": "account",
          "type": "address"
        },
        {
          "internalType": "uint256",
          "name": "periodID",
          "type": "uint256"
        }
      ],
      "name": "getAvailableRewardsForAccountForPeriod",
      "outputs": [
        {
          "internalType": "uint256",
          "name": "",
          "type": "uint256"
        }
      ],
      "payable": false,
      "stateMutability": "view",
      "type": "function"
    },
    {
      "constant": true,
      "inputs": [
        {
          "internalType": "address",
          "name": "account",
          "type": "address"
        },
        {
          "internalType": "uint256[]",
          "name": "periodIDs",
          "type": "uint256[]"
        }
      ],
      "name": "getAvailableRewardsForAccountForPeriods",
      "outputs": [
        {
          "internalType": "uint256",
          "name": "totalRewards",
          "type": "uint256"
        }
      ],
      "payable": false,
      "stateMutability": "view",
      "type": "function"
    },
    {
      "constant": true,
      "inputs": [],
      "name": "getCurrentPeriod",
      "outputs": [
        {
          "internalType": "uint256",
          "name": "",
          "type": "uint256"
        }
      ],
      "payable": false,
      "stateMutability": "view",
      "type": "function"
    },
    {
      "constant": true,
      "inputs": [
        {
          "internalType": "uint256",
          "name": "periodID",
          "type": "uint256"
        }
      ],
      "name": "getPeriodAvailableRewards",
      "outputs": [
        {
          "internalType": "uint256",
          "name": "",
          "type": "uint256"
        }
      ],
      "payable": false,
      "stateMutability": "view",
      "type": "function"
    },
    {
      "constant": true,
      "inputs": [],
      "name": "getPeriodController",
      "outputs": [
        {
          "internalType": "address",
          "name": "",
          "type": "address"
        }
      ],
      "payable": false,
      "stateMutability": "view",
      "type": "function"
    },
    {
      "constant": true,
      "inputs": [
        {
          "internalType": "uint256",
          "name": "periodID",
          "type": "uint256"
        }
      ],
      "name": "getPeriodIsClaimable",
      "outputs": [
        {
          "internalType": "bool",
          "name": "",
          "type": "bool"
        }
      ],
      "payable": false,
      "stateMutability": "view",
      "type": "function"
    },
    {
      "constant": true,
      "inputs": [
        {
          "internalType": "uint256",
          "name": "periodID",
          "type": "uint256"
        }
      ],
      "name": "getPeriodIsFinalized",
      "outputs": [
        {
          "internalType": "bool",
          "name": "",
          "type": "bool"
        }
      ],
      "payable": false,
      "stateMutability": "view",
      "type": "function"
    },
    {
      "constant": true,
      "inputs": [
        {
          "internalType": "uint256",
          "name": "periodID",
          "type": "uint256"
        }
      ],
      "name": "getPeriodRecordedFees",
      "outputs": [
        {
          "internalType": "uint256",
          "name": "",
          "type": "uint256"
        }
      ],
      "payable": false,
      "stateMutability": "view",
      "type": "function"
    },
    {
      "constant": true,
      "inputs": [
        {
          "internalType": "uint256",
          "name": "periodID",
          "type": "uint256"
        }
      ],
      "name": "getPeriodTotalRewards",
      "outputs": [
        {
          "internalType": "uint256",
          "name": "",
          "type": "uint256"
        }
      ],
      "payable": false,
      "stateMutability": "view",
      "type": "function"
    },
    {
      "constant": true,
      "inputs": [],
      "name": "getRewardsToken",
      "outputs": [
        {
          "internalType": "address",
          "name": "",
          "type": "address"
        }
      ],
      "payable": false,
      "stateMutability": "view",
      "type": "function"
    },
    {
      "constant": true,
      "inputs": [
        {
          "internalType": "address",
          "name": "account",
          "type": "address"
        },
        {
          "internalType": "uint256",
          "name": "periodID",
          "type": "uint256"
        }
      ],
      "name": "getUnaccountedFeesForAccountForPeriod",
      "outputs": [
        {
          "internalType": "uint256",
          "name": "",
          "type": "uint256"
        }
      ],
      "payable": false,
      "stateMutability": "view",
      "type": "function"
    },
    {
      "constant": true,
      "inputs": [],
      "name": "getUnassignedRewards",
      "outputs": [
        {
          "internalType": "uint256",
          "name": "",
          "type": "uint256"
        }
      ],
      "payable": false,
      "stateMutability": "view",
      "type": "function"
    },
    {
      "constant": true,
      "inputs": [],
      "name": "isResolverCached",
      "outputs": [
        {
          "internalType": "bool",
          "name": "",
          "type": "bool"
        }
      ],
      "payable": false,
      "stateMutability": "view",
      "type": "function"
    },
    {
      "constant": true,
      "inputs": [],
      "name": "lastPauseTime",
      "outputs": [
        {
          "internalType": "uint256",
          "name": "",
          "type": "uint256"
        }
      ],
      "payable": false,
      "stateMutability": "view",
      "type": "function"
    },
    {
      "constant": false,
      "inputs": [
        {
          "internalType": "address",
          "name": "_owner",
          "type": "address"
        }
      ],
      "name": "nominateNewOwner",
      "outputs": [],
      "payable": false,
      "stateMutability": "nonpayable",
      "type": "function"
    },
    {
      "constant": true,
      "inputs": [],
      "name": "nominatedOwner",
      "outputs": [
        {
          "internalType": "address",
          "name": "",
          "type": "address"
        }
      ],
      "payable": false,
      "stateMutability": "view",
      "type": "function"
    },
    {
      "constant": true,
      "inputs": [],
      "name": "owner",
      "outputs": [
        {
          "internalType": "address",
          "name": "",
          "type": "address"
        }
      ],
      "payable": false,
      "stateMutability": "view",
      "type": "function"
    },
    {
      "constant": true,
      "inputs": [],
      "name": "paused",
      "outputs": [
        {
          "internalType": "bool",
          "name": "",
          "type": "bool"
        }
      ],
      "payable": false,
      "stateMutability": "view",
      "type": "function"
    },
    {
      "constant": false,
      "inputs": [],
      "name": "rebuildCache",
      "outputs": [],
      "payable": false,
      "stateMutability": "nonpayable",
      "type": "function"
    },
    {
      "constant": false,
      "inputs": [
        {
          "internalType": "uint256",
          "name": "usdFeeAmount",
          "type": "uint256"
        },
        {
          "internalType": "address",
          "name": "account",
          "type": "address"
        }
      ],
      "name": "recordExchangeFeeForAccount",
      "outputs": [],
      "payable": false,
      "stateMutability": "nonpayable",
      "type": "function"
    },
    {
      "constant": false,
      "inputs": [
        {
          "internalType": "address",
          "name": "recoverAddress",
          "type": "address"
        },
        {
          "internalType": "uint256",
          "name": "periodID",
          "type": "uint256"
        }
      ],
      "name": "recoverAssignedRewardTokensAndDestroyPeriod",
      "outputs": [],
      "payable": false,
      "stateMutability": "nonpayable",
      "type": "function"
    },
    {
      "constant": false,
      "inputs": [
        {
          "internalType": "address",
          "name": "tokenAddress",
          "type": "address"
        },
        {
          "internalType": "address",
          "name": "recoverAddress",
          "type": "address"
        }
      ],
      "name": "recoverTokens",
      "outputs": [],
      "payable": false,
      "stateMutability": "nonpayable",
      "type": "function"
    },
    {
      "constant": false,
      "inputs": [
        {
          "internalType": "address",
          "name": "recoverAddress",
          "type": "address"
        }
      ],
      "name": "recoverUnassignedRewardTokens",
      "outputs": [],
      "payable": false,
      "stateMutability": "nonpayable",
      "type": "function"
    },
    {
      "constant": true,
      "inputs": [],
      "name": "resolver",
      "outputs": [
        {
          "internalType": "contract AddressResolver",
          "name": "",
          "type": "address"
        }
      ],
      "payable": false,
      "stateMutability": "view",
      "type": "function"
    },
    {
      "constant": true,
      "inputs": [],
      "name": "resolverAddressesRequired",
      "outputs": [
        {
          "internalType": "bytes32[]",
          "name": "addresses",
          "type": "bytes32[]"
        }
      ],
      "payable": false,
      "stateMutability": "view",
      "type": "function"
    },
    {
      "constant": false,
      "inputs": [
        {
          "internalType": "bool",
          "name": "_paused",
          "type": "bool"
        }
      ],
      "name": "setPaused",
      "outputs": [],
      "payable": false,
      "stateMutability": "nonpayable",
      "type": "function"
    },
    {
      "constant": false,
      "inputs": [
        {
          "internalType": "address",
          "name": "newPeriodController",
          "type": "address"
        }
      ],
      "name": "setPeriodController",
      "outputs": [],
      "payable": false,
      "stateMutability": "nonpayable",
      "type": "function"
    }
  ],
  "bytecode": "0x60806040523480156200001157600080fd5b50604051620036d3380380620036d3833981810160405260608110156200003757600080fd5b8101908080519060200190929190805190602001909291908051906020019092919050505080836001600081905550600073ffffffffffffffffffffffffffffffffffffffff168173ffffffffffffffffffffffffffffffffffffffff1614156200010a576040517f08c379a00000000000000000000000000000000000000000000000000000000081526004018080602001828103825260198152602001807f4f776e657220616464726573732063616e6e6f7420626520300000000000000081525060200191505060405180910390fd5b80600160006101000a81548173ffffffffffffffffffffffffffffffffffffffff021916908373ffffffffffffffffffffffffffffffffffffffff1602179055507fb532073b38c83145e3e5135377a08bf9aab55bc0fd7c1179cd4fb995d2a5159c600082604051808373ffffffffffffffffffffffffffffffffffffffff1673ffffffffffffffffffffffffffffffffffffffff1681526020018273ffffffffffffffffffffffffffffffffffffffff1673ffffffffffffffffffffffffffffffffffffffff1681526020019250505060405180910390a150600073ffffffffffffffffffffffffffffffffffffffff16600160009054906101000a900473ffffffffffffffffffffffffffffffffffffffff1673ffffffffffffffffffffffffffffffffffffffff161415620002aa576040517f08c379a00000000000000000000000000000000000000000000000000000000081526004018080602001828103825260118152602001807f4f776e6572206d7573742062652073657400000000000000000000000000000081525060200191505060405180910390fd5b80600460016101000a81548173ffffffffffffffffffffffffffffffffffffffff021916908373ffffffffffffffffffffffffffffffffffffffff16021790555050600073ffffffffffffffffffffffffffffffffffffffff168273ffffffffffffffffffffffffffffffffffffffff16141562000390576040517f08c379a00000000000000000000000000000000000000000000000000000000081526004018080602001828103825260198152602001807f496e76616c696420706572696f6420636f6e74726f6c6c65720000000000000081525060200191505060405180910390fd5b81600960006101000a81548173ffffffffffffffffffffffffffffffffffffffff021916908373ffffffffffffffffffffffffffffffffffffffff1602179055505050506132ef80620003e46000396000f3fe608060405234801561001057600080fd5b50600436106101f05760003560e01c8063741853601161010f578063b225dbaa116100a2578063f32ffd6911610071578063f32ffd6914610884578063f61f5df6146108fd578063f6b584791461095f578063fc9c99ac14610a0c576101f0565b8063b225dbaa14610764578063ccb6e04314610792578063ce7fccba146107d8578063dea021a51461083a576101f0565b806391b4ded9116100de57806391b4ded914610698578063937ffb8f146106b65780639865fdb7146106f8578063ae934a7a14610716576101f0565b806374185360146105db57806379ba5097146105e5578063899ffef4146105ef5780638da5cb5b1461064e576101f0565b80632af64bd31161018757806355aa41bf1161015657806355aa41bf146104eb5780635c975abb1461052d5780636fe4136b1461054f578063706848d214610599576101f0565b80632af64bd3146103f757806338dfa8cf146104195780633dbf12fa1461045d57806353a47bb7146104a1576101f0565b806316841952116101c3578063168419521461030557806316c38b3c14610333578063175c51891461036357806321cad774146103a9576101f0565b806304f3bcec146101f5578063056097ac1461023f578063086146d2146102a35780631627540c146102c1575b600080fd5b6101fd610a2a565b604051808273ffffffffffffffffffffffffffffffffffffffff1673ffffffffffffffffffffffffffffffffffffffff16815260200191505060405180910390f35b6102a16004803603604081101561025557600080fd5b81019080803573ffffffffffffffffffffffffffffffffffffffff169060200190929190803573ffffffffffffffffffffffffffffffffffffffff169060200190929190505050610a50565b005b6102ab610d11565b6040518082815260200191505060405180910390f35b610303600480360360208110156102d757600080fd5b81019080803573ffffffffffffffffffffffffffffffffffffffff169060200190929190505050610d1b565b005b6103316004803603602081101561031b57600080fd5b8101908080359060200190929190505050610dca565b005b6103616004803603602081101561034957600080fd5b810190808035151590602001909291905050506110de565b005b61038f6004803603602081101561037957600080fd5b810190808035906020019092919050505061118b565b604051808215151515815260200191505060405180910390f35b6103f5600480360360408110156103bf57600080fd5b8101908080359060200190929190803573ffffffffffffffffffffffffffffffffffffffff1690602001909291905050506111b8565b005b6103ff61138e565b604051808215151515815260200191505060405180910390f35b61045b6004803603602081101561042f57600080fd5b81019080803573ffffffffffffffffffffffffffffffffffffffff169060200190929190505050611566565b005b61049f6004803603602081101561047357600080fd5b81019080803573ffffffffffffffffffffffffffffffffffffffff1690602001909291905050506117e1565b005b6104a9611933565b604051808273ffffffffffffffffffffffffffffffffffffffff1673ffffffffffffffffffffffffffffffffffffffff16815260200191505060405180910390f35b6105176004803603602081101561050157600080fd5b8101908080359060200190929190505050611959565b6040518082815260200191505060405180910390f35b610535611979565b604051808215151515815260200191505060405180910390f35b61055761198c565b604051808273ffffffffffffffffffffffffffffffffffffffff1673ffffffffffffffffffffffffffffffffffffffff16815260200191505060405180910390f35b6105c5600480360360208110156105af57600080fd5b810190808035906020019092919050505061199b565b6040518082815260200191505060405180910390f35b6105e36119bb565b005b6105ed611c24565b005b6105f7611e4c565b6040518080602001828103825283818151815260200191508051906020019060200280838360005b8381101561063a57808201518184015260208101905061061f565b505050509050019250505060405180910390f35b610656611ef8565b604051808273ffffffffffffffffffffffffffffffffffffffff1673ffffffffffffffffffffffffffffffffffffffff16815260200191505060405180910390f35b6106a0611f1e565b6040518082815260200191505060405180910390f35b6106e2600480360360208110156106cc57600080fd5b8101908080359060200190929190505050611f24565b6040518082815260200191505060405180910390f35b610700611f44565b6040518082815260200191505060405180910390f35b6107626004803603604081101561072c57600080fd5b81019080803573ffffffffffffffffffffffffffffffffffffffff1690602001909291908035906020019092919050505061201e565b005b6107906004803603602081101561077a57600080fd5b8101908080359060200190929190505050612248565b005b6107be600480360360208110156107a857600080fd5b8101908080359060200190929190505050612349565b604051808215151515815260200191505060405180910390f35b610824600480360360408110156107ee57600080fd5b81019080803573ffffffffffffffffffffffffffffffffffffffff16906020019092919080359060200190929190505050612376565b6040518082815260200191505060405180910390f35b61084261238a565b604051808273ffffffffffffffffffffffffffffffffffffffff1673ffffffffffffffffffffffffffffffffffffffff16815260200191505060405180910390f35b6108fb6004803603602081101561089a57600080fd5b81019080803590602001906401000000008111156108b757600080fd5b8201836020820111156108c957600080fd5b803590602001918460208302840111640100000000831117156108eb57600080fd5b90919293919293905050506123b4565b005b6109496004803603604081101561091357600080fd5b81019080803573ffffffffffffffffffffffffffffffffffffffff169060200190929190803590602001909291905050506124ed565b6040518082815260200191505060405180910390f35b6109f66004803603604081101561097557600080fd5b81019080803573ffffffffffffffffffffffffffffffffffffffff169060200190929190803590602001906401000000008111156109b257600080fd5b8201836020820111156109c457600080fd5b803590602001918460208302840111640100000000831117156109e657600080fd5b909192939192939050505061254b565b6040518082815260200191505060405180910390f35b610a146125a9565b6040518082815260200191505060405180910390f35b600460019054906101000a900473ffffffffffffffffffffffffffffffffffffffff1681565b610a586125b3565b610a618161265b565b610a69612737565b73ffffffffffffffffffffffffffffffffffffffff168273ffffffffffffffffffffffffffffffffffffffff161415610b0a576040517f08c379a00000000000000000000000000000000000000000000000000000000081526004018080602001828103825260198152602001807f4d7573742075736520616e6f746865722066756e6374696f6e0000000000000081525060200191505060405180910390fd5b600082905060008173ffffffffffffffffffffffffffffffffffffffff166370a08231306040518263ffffffff1660e01b8152600401808273ffffffffffffffffffffffffffffffffffffffff1673ffffffffffffffffffffffffffffffffffffffff16815260200191505060206040518083038186803b158015610b8e57600080fd5b505afa158015610ba2573d6000803e3d6000fd5b505050506040513d6020811015610bb857600080fd5b8101908080519060200190929190505050905060008111610c41576040517f08c379a00000000000000000000000000000000000000000000000000000000081526004018080602001828103825260148152602001807f4e6f20746f6b656e7320746f207265636f76657200000000000000000000000081525060200191505060405180910390fd5b610c6c83828473ffffffffffffffffffffffffffffffffffffffff166127679092919063ffffffff16565b7f401f439d865a766757ec78675925bd67198d5e78805aa41691b34b5d6a6cbbe6848483604051808473ffffffffffffffffffffffffffffffffffffffff1673ffffffffffffffffffffffffffffffffffffffff1681526020018373ffffffffffffffffffffffffffffffffffffffff1673ffffffffffffffffffffffffffffffffffffffff168152602001828152602001935050505060405180910390a150505050565b6000600654905090565b610d236125b3565b80600260006101000a81548173ffffffffffffffffffffffffffffffffffffffff021916908373ffffffffffffffffffffffffffffffffffffffff1602179055507f906a1c6bd7e3091ea86693dd029a831c19049ce77f1dce2ce0bab1cacbabce2281604051808273ffffffffffffffffffffffffffffffffffffffff1673ffffffffffffffffffffffffffffffffffffffff16815260200191505060405180910390a150565b600960009054906101000a900473ffffffffffffffffffffffffffffffffffffffff1673ffffffffffffffffffffffffffffffffffffffff163373ffffffffffffffffffffffffffffffffffffffff1614610e8d576040517f08c379a000000000000000000000000000000000000000000000000000000000815260040180806020018281038252601c8152602001807f43616c6c6572206e6f7420706572696f6420636f6e74726f6c6c65720000000081525060200191505060405180910390fd5b6000610e97612737565b73ffffffffffffffffffffffffffffffffffffffff166370a08231306040518263ffffffff1660e01b8152600401808273ffffffffffffffffffffffffffffffffffffffff1673ffffffffffffffffffffffffffffffffffffffff16815260200191505060206040518083038186803b158015610f1357600080fd5b505afa158015610f27573d6000803e3d6000fd5b505050506040513d6020811015610f3d57600080fd5b810190808051906020019092919050505090506000610f676007548361283890919063ffffffff16565b905080831115610fdf576040517f08c379a00000000000000000000000000000000000000000000000000000000081526004018080602001828103825260198152602001807f496e73756666696369656e74206672656520726577617264730000000000000081525060200191505060405180910390fd5b6000600860006006548152602001908152602001600020905083816002018190555083816003018190555060018160000160006101000a81548160ff02191690831515021790555061103c846007546128c190919063ffffffff16565b6007819055507ffa0492b63d7120c62ccb8708eb597813e6968a23d09adac98d54dd0085cb264f60065485604051808381526020018281526020019250505060405180910390a161109960016006546128c190919063ffffffff16565b6006819055507f4368a9298adc0e57eceb11d0ef07022051a2feb5985d832be0764cde9a2307326006546040518082815260200191505060405180910390a150505050565b6110e66125b3565b600460009054906101000a900460ff161515811515141561110657611188565b80600460006101000a81548160ff021916908315150217905550600460009054906101000a900460ff161561113d57426003819055505b7f8fb6c181ee25a520cf3dd6565006ef91229fcfe5a989566c2a3b8c115570cec5600460009054906101000a900460ff16604051808215151515815260200191505060405180910390a15b50565b60006008600083815260200190815260200160002060000160009054906101000a900460ff169050919050565b6111c0612949565b73ffffffffffffffffffffffffffffffffffffffff163373ffffffffffffffffffffffffffffffffffffffff1614611260576040517f08c379a000000000000000000000000000000000000000000000000000000000815260040180806020018281038252601e8152602001807f4f6e6c792045786368616e6765722063616e20696e766f6b652074686973000081525060200191505060405180910390fd5b600060086000600654815260200190815260200160002090506112cd838260040160008573ffffffffffffffffffffffffffffffffffffffff1673ffffffffffffffffffffffffffffffffffffffff168152602001908152602001600020546128c190919063ffffffff16565b8160040160008473ffffffffffffffffffffffffffffffffffffffff1673ffffffffffffffffffffffffffffffffffffffff168152602001908152602001600020819055506113298382600101546128c190919063ffffffff16565b81600101819055508173ffffffffffffffffffffffffffffffffffffffff167f927be3e95451b16be3f4586524834dfffa10e6f9ee4c1e26fe3c46140fbbf86684600654604051808381526020018281526020019250505060405180910390a2505050565b6000606061139a611e4c565b905060008090505b815181101561155c5760008282815181106113b957fe5b602002602001015190506005600082815260200190815260200160002060009054906101000a900473ffffffffffffffffffffffffffffffffffffffff1673ffffffffffffffffffffffffffffffffffffffff16600460019054906101000a900473ffffffffffffffffffffffffffffffffffffffff1673ffffffffffffffffffffffffffffffffffffffff166321f8a721836040518263ffffffff1660e01b81526004018082815260200191505060206040518083038186803b15801561148057600080fd5b505afa158015611494573d6000803e3d6000fd5b505050506040513d60208110156114aa57600080fd5b810190808051906020019092919050505073ffffffffffffffffffffffffffffffffffffffff1614158061153d5750600073ffffffffffffffffffffffffffffffffffffffff166005600083815260200190815260200160002060009054906101000a900473ffffffffffffffffffffffffffffffffffffffff1673ffffffffffffffffffffffffffffffffffffffff16145b1561154e5760009350505050611563565b5080806001019150506113a2565b5060019150505b90565b61156e6125b3565b6115778161265b565b6000611581612737565b73ffffffffffffffffffffffffffffffffffffffff166370a08231306040518263ffffffff1660e01b8152600401808273ffffffffffffffffffffffffffffffffffffffff1673ffffffffffffffffffffffffffffffffffffffff16815260200191505060206040518083038186803b1580156115fd57600080fd5b505afa158015611611573d6000803e3d6000fd5b505050506040513d602081101561162757600080fd5b81019080805190602001909291905050509050600081116116b0576040517f08c379a00000000000000000000000000000000000000000000000000000000081526004018080602001828103825260148152602001807f4e6f20746f6b656e7320746f207265636f76657200000000000000000000000081525060200191505060405180910390fd5b60006116c76007548361283890919063ffffffff16565b90506000811161173f576040517f08c379a00000000000000000000000000000000000000000000000000000000081526004018080602001828103825260148152602001807f4e6f20746f6b656e7320746f207265636f76657200000000000000000000000081525060200191505060405180910390fd5b611771838261174c612737565b73ffffffffffffffffffffffffffffffffffffffff166127679092919063ffffffff16565b7f14e7312259d4851b8b6742ace55ac44b31d7929a6b2998b35ba22445859e5ee38382604051808373ffffffffffffffffffffffffffffffffffffffff1673ffffffffffffffffffffffffffffffffffffffff1681526020018281526020019250505060405180910390a1505050565b6117e96125b3565b600073ffffffffffffffffffffffffffffffffffffffff168173ffffffffffffffffffffffffffffffffffffffff16141561188c576040517f08c379a00000000000000000000000000000000000000000000000000000000081526004018080602001828103825260198152602001807f496e76616c696420706572696f6420636f6e74726f6c6c65720000000000000081525060200191505060405180910390fd5b80600960006101000a81548173ffffffffffffffffffffffffffffffffffffffff021916908373ffffffffffffffffffffffffffffffffffffffff1602179055507fb81e5409e39d3d3d85951a2af3563e484cfe2e7b4af2500a0ecbe14035a9bddc81604051808273ffffffffffffffffffffffffffffffffffffffff1673ffffffffffffffffffffffffffffffffffffffff16815260200191505060405180910390a150565b600260009054906101000a900473ffffffffffffffffffffffffffffffffffffffff1681565b600060086000838152602001908152602001600020600101549050919050565b600460009054906101000a900460ff1681565b6000611996612737565b905090565b600060086000838152602001908152602001600020600301549050919050565b60606119c5611e4c565b905060008090505b8151811015611c205760008282815181106119e457fe5b602002602001015190506000600460019054906101000a900473ffffffffffffffffffffffffffffffffffffffff1673ffffffffffffffffffffffffffffffffffffffff1663dacb2d01838460405160200180807f5265736f6c766572206d697373696e67207461726765743a20000000000000008152506019018281526020019150506040516020818303038152906040526040518363ffffffff1660e01b81526004018083815260200180602001828103825283818151815260200191508051906020019080838360005b83811015611acc578082015181840152602081019050611ab1565b50505050905090810190601f168015611af95780820380516001836020036101000a031916815260200191505b50935050505060206040518083038186803b158015611b1757600080fd5b505afa158015611b2b573d6000803e3d6000fd5b505050506040513d6020811015611b4157600080fd5b81019080805190602001909291905050509050806005600084815260200190815260200160002060006101000a81548173ffffffffffffffffffffffffffffffffffffffff021916908373ffffffffffffffffffffffffffffffffffffffff1602179055507f88a93678a3692f6789d9546fc621bf7234b101ddb7d4fe479455112831b8aa688282604051808381526020018273ffffffffffffffffffffffffffffffffffffffff1673ffffffffffffffffffffffffffffffffffffffff1681526020019250505060405180910390a1505080806001019150506119cd565b5050565b600260009054906101000a900473ffffffffffffffffffffffffffffffffffffffff1673ffffffffffffffffffffffffffffffffffffffff163373ffffffffffffffffffffffffffffffffffffffff1614611cca576040517f08c379a00000000000000000000000000000000000000000000000000000000081526004018080602001828103825260358152602001806131d06035913960400191505060405180910390fd5b7fb532073b38c83145e3e5135377a08bf9aab55bc0fd7c1179cd4fb995d2a5159c600160009054906101000a900473ffffffffffffffffffffffffffffffffffffffff16600260009054906101000a900473ffffffffffffffffffffffffffffffffffffffff16604051808373ffffffffffffffffffffffffffffffffffffffff1673ffffffffffffffffffffffffffffffffffffffff1681526020018273ffffffffffffffffffffffffffffffffffffffff1673ffffffffffffffffffffffffffffffffffffffff1681526020019250505060405180910390a1600260009054906101000a900473ffffffffffffffffffffffffffffffffffffffff16600160006101000a81548173ffffffffffffffffffffffffffffffffffffffff021916908373ffffffffffffffffffffffffffffffffffffffff1602179055506000600260006101000a81548173ffffffffffffffffffffffffffffffffffffffff021916908373ffffffffffffffffffffffffffffffffffffffff160217905550565b60606002604051908082528060200260200182016040528015611e7e5781602001602082028038833980820191505090505b5090507f45786368616e676572000000000000000000000000000000000000000000000081600081518110611eaf57fe5b6020026020010181815250507f5065726946696e0000000000000000000000000000000000000000000000000081600181518110611ee957fe5b60200260200101818152505090565b600160009054906101000a900473ffffffffffffffffffffffffffffffffffffffff1681565b60035481565b600060086000838152602001908152602001600020600201549050919050565b6000612019600754611f54612737565b73ffffffffffffffffffffffffffffffffffffffff166370a08231306040518263ffffffff1660e01b8152600401808273ffffffffffffffffffffffffffffffffffffffff1673ffffffffffffffffffffffffffffffffffffffff16815260200191505060206040518083038186803b158015611fd057600080fd5b505afa158015611fe4573d6000803e3d6000fd5b505050506040513d6020811015611ffa57600080fd5b810190808051906020019092919050505061283890919063ffffffff16565b905090565b6120266125b3565b61202f8261265b565b60065481106120a6576040517f08c379a000000000000000000000000000000000000000000000000000000000815260040180806020018281038252601a8152602001807f43616e6e6f74207265636f7665722066726f6d2061637469766500000000000081525060200191505060405180910390fd5b60006008600083815260200190815260200160002090506000816003015411612137576040517f08c379a000000000000000000000000000000000000000000000000000000000815260040180806020018281038252601f8152602001807f4e6f207265776172647320617661696c61626c6520746f207265636f7665720081525060200191505060405180910390fd5b600081600301549050612172848261214d612737565b73ffffffffffffffffffffffffffffffffffffffff166127679092919063ffffffff16565b6121878160075461283890919063ffffffff16565b60078190555060086000848152602001908152602001600020600080820160006101000a81549060ff021916905560018201600090556002820160009055600382016000905550507f60f2caebb6d06055322fce1f0db429f6bc0a48534c8c9ba42359a80f36bb7f0c848285604051808473ffffffffffffffffffffffffffffffffffffffff1673ffffffffffffffffffffffffffffffffffffffff168152602001838152602001828152602001935050505060405180910390a150505050565b60016000808282540192505081905550600080549050600460009054906101000a900460ff16156122c4576040517f08c379a000000000000000000000000000000000000000000000000000000000815260040180806020018281038252603c815260200180613255603c913960400191505060405180910390fd5b6122ce3383612979565b6000548114612345576040517f08c379a000000000000000000000000000000000000000000000000000000000815260040180806020018281038252601f8152602001807f5265656e7472616e637947756172643a207265656e7472616e742063616c6c0081525060200191505060405180910390fd5b5050565b60006008600083815260200190815260200160002060000160009054906101000a900460ff169050919050565b60006123828383612ba7565b905092915050565b6000600960009054906101000a900473ffffffffffffffffffffffffffffffffffffffff16905090565b60016000808282540192505081905550600080549050600460009054906101000a900460ff1615612430576040517f08c379a000000000000000000000000000000000000000000000000000000000815260040180806020018281038252603c815260200180613255603c913960400191505060405180910390fd5b60008090505b8383905081101561247057600084848381811061244f57fe5b9050602002013590506124623382612979565b508080600101915050612436565b5060005481146124e8576040517f08c379a000000000000000000000000000000000000000000000000000000000815260040180806020018281038252601f8152602001807f5265656e7472616e637947756172643a207265656e7472616e742063616c6c0081525060200191505060405180910390fd5b505050565b60006008600083815260200190815260200160002060040160008473ffffffffffffffffffffffffffffffffffffffff1673ffffffffffffffffffffffffffffffffffffffff16815260200190815260200160002054905092915050565b600080600090505b838390508110156125a157600084848381811061256c57fe5b9050602002013590506125916125828783612ba7565b846128c190919063ffffffff16565b9250508080600101915050612553565b509392505050565b6000600754905090565b600160009054906101000a900473ffffffffffffffffffffffffffffffffffffffff1673ffffffffffffffffffffffffffffffffffffffff163373ffffffffffffffffffffffffffffffffffffffff1614612659576040517f08c379a000000000000000000000000000000000000000000000000000000000815260040180806020018281038252602f815260200180613205602f913960400191505060405180910390fd5b565b600073ffffffffffffffffffffffffffffffffffffffff168173ffffffffffffffffffffffffffffffffffffffff1614806126c157503073ffffffffffffffffffffffffffffffffffffffff168173ffffffffffffffffffffffffffffffffffffffff16145b15612734576040517f08c379a00000000000000000000000000000000000000000000000000000000081526004018080602001828103825260178152602001807f496e76616c6964207265636f766572206164647265737300000000000000000081525060200191505060405180910390fd5b50565b60006127627f5065726946696e00000000000000000000000000000000000000000000000000612c97565b905090565b612833838473ffffffffffffffffffffffffffffffffffffffff1663a9059cbb905060e01b8484604051602401808373ffffffffffffffffffffffffffffffffffffffff1673ffffffffffffffffffffffffffffffffffffffff16815260200182815260200192505050604051602081830303815290604052907bffffffffffffffffffffffffffffffffffffffffffffffffffffffff19166020820180517bffffffffffffffffffffffffffffffffffffffffffffffffffffffff8381831617835250505050612df9565b505050565b6000828211156128b0576040517f08c379a000000000000000000000000000000000000000000000000000000000815260040180806020018281038252601e8152602001807f536166654d6174683a207375627472616374696f6e206f766572666c6f77000081525060200191505060405180910390fd5b600082840390508091505092915050565b60008082840190508381101561293f576040517f08c379a000000000000000000000000000000000000000000000000000000000815260040180806020018281038252601b8152602001807f536166654d6174683a206164646974696f6e206f766572666c6f77000000000081525060200191505060405180910390fd5b8091505092915050565b60006129747f45786368616e6765720000000000000000000000000000000000000000000000612c97565b905090565b60006008600083815260200190815260200160002090508060000160009054906101000a900460ff16612a14576040517f08c379a00000000000000000000000000000000000000000000000000000000081526004018080602001828103825260178152602001807f506572696f64206973206e6f742066696e616c697a656400000000000000000081525060200191505060405180910390fd5b6000612a208484612ba7565b905060008111612a98576040517f08c379a00000000000000000000000000000000000000000000000000000000081526004018080602001828103825260148152602001807f4e6f207265776172647320617661696c61626c6500000000000000000000000081525060200191505060405180910390fd5b60008260040160008673ffffffffffffffffffffffffffffffffffffffff1673ffffffffffffffffffffffffffffffffffffffff16815260200190815260200160002081905550612af681836003015461283890919063ffffffff16565b8260030181905550612b138160075461283890919063ffffffff16565b600781905550612b4b8482612b26612737565b73ffffffffffffffffffffffffffffffffffffffff166127679092919063ffffffff16565b8373ffffffffffffffffffffffffffffffffffffffff167fdacbdde355ba930696a362ea6738feb9f8bd52dfb3d81947558fd3217e23e3258285604051808381526020018281526020019250505060405180910390a250505050565b600080600860008481526020019081526020016000209050600081600301541480612bd6575060008160010154145b80612bf057508060000160009054906101000a900460ff16155b15612bff576000915050612c91565b60008160040160008673ffffffffffffffffffffffffffffffffffffffff1673ffffffffffffffffffffffffffffffffffffffff1681526020019081526020016000205490506000811415612c5957600092505050612c91565b6000612c7283600101548361304490919063ffffffff16565b9050612c8b83600201548261307a90919063ffffffff16565b93505050505b92915050565b6000806005600084815260200190815260200160002060009054906101000a900473ffffffffffffffffffffffffffffffffffffffff169050600073ffffffffffffffffffffffffffffffffffffffff168173ffffffffffffffffffffffffffffffffffffffff1614158360405160200180807f4d697373696e6720616464726573733a2000000000000000000000000000000081525060110182815260200191505060405160208183030381529060405290612def576040517f08c379a00000000000000000000000000000000000000000000000000000000081526004018080602001828103825283818151815260200191508051906020019080838360005b83811015612db4578082015181840152602081019050612d99565b50505050905090810190601f168015612de15780820380516001836020036101000a031916815260200191505b509250505060405180910390fd5b5080915050919050565b612e188273ffffffffffffffffffffffffffffffffffffffff166130a7565b612e8a576040517f08c379a000000000000000000000000000000000000000000000000000000000815260040180806020018281038252601f8152602001807f5361666545524332303a2063616c6c20746f206e6f6e2d636f6e74726163740081525060200191505060405180910390fd5b600060608373ffffffffffffffffffffffffffffffffffffffff16836040518082805190602001908083835b60208310612ed95780518252602082019150602081019050602083039250612eb6565b6001836020036101000a0380198251168184511680821785525050505050509050019150506000604051808303816000865af19150503d8060008114612f3b576040519150601f19603f3d011682016040523d82523d6000602084013e612f40565b606091505b509150915081612fb8576040517f08c379a00000000000000000000000000000000000000000000000000000000081526004018080602001828103825260208152602001807f5361666545524332303a206c6f772d6c6576656c2063616c6c206661696c656481525060200191505060405180910390fd5b60008151111561303e57808060200190516020811015612fd757600080fd5b810190808051906020019092919050505061303d576040517f08c379a000000000000000000000000000000000000000000000000000000000815260040180806020018281038252602a815260200180613291602a913960400191505060405180910390fd5b5b50505050565b600061307282613064601260ff16600a0a866130ba90919063ffffffff16565b61314090919063ffffffff16565b905092915050565b6000601260ff16600a0a61309783856130ba90919063ffffffff16565b8161309e57fe5b04905092915050565b600080823b905060008111915050919050565b6000808314156130cd576000905061313a565b60008284029050828482816130de57fe5b0414613135576040517f08c379a00000000000000000000000000000000000000000000000000000000081526004018080602001828103825260218152602001806132346021913960400191505060405180910390fd5b809150505b92915050565b60008082116131b7576040517f08c379a000000000000000000000000000000000000000000000000000000000815260040180806020018281038252601a8152602001807f536166654d6174683a206469766973696f6e206279207a65726f00000000000081525060200191505060405180910390fd5b60008284816131c257fe5b049050809150509291505056fe596f75206d757374206265206e6f6d696e61746564206265666f726520796f752063616e20616363657074206f776e6572736869704f6e6c792074686520636f6e7472616374206f776e6572206d617920706572666f726d207468697320616374696f6e536166654d6174683a206d756c7469706c69636174696f6e206f766572666c6f775468697320616374696f6e2063616e6e6f7420626520706572666f726d6564207768696c652074686520636f6e7472616374206973207061757365645361666545524332303a204552433230206f7065726174696f6e20646964206e6f742073756363656564a265627a7a72315820dccc51c27d09368743d4f638bc5495c6ef65c542a2d44a6f142c67bb8c2c551564736f6c63430005100032",
  "linkReferences": {},
  "deployedLinkReferences": {}
}