{
  "_format": "hh-sol-artifact-1",
  "contractName": "CollateralErc20",
  "sourceName": "contracts/CollateralErc20.sol",
  "abi": [
    {
      "inputs": [
        {
          "internalType": "contract CollateralState",
          "name": "_state",
          "type": "address"
        },
        {
          "internalType": "address",
          "name": "_owner",
          "type": "address"
        },
        {
          "internalType": "address",
          "name": "_manager",
          "type": "address"
        },
        {
          "internalType": "address",
          "name": "_resolver",
          "type": "address"
        },
        {
          "internalType": "bytes32",
          "name": "_collateralKey",
          "type": "bytes32"
        },
        {
          "internalType": "uint256",
          "name": "_minCratio",
          "type": "uint256"
        },
        {
          "internalType": "uint256",
          "name": "_minCollateral",
          "type": "uint256"
        },
        {
          "internalType": "address",
          "name": "_underlyingContract",
          "type": "address"
        },
        {
          "internalType": "uint256",
          "name": "_underlyingDecimals",
          "type": "uint256"
        }
      ],
      "payable": false,
      "stateMutability": "nonpayable",
      "type": "constructor"
    },
    {
      "anonymous": false,
      "inputs": [
        {
          "indexed": false,
          "internalType": "bytes32",
          "name": "name",
          "type": "bytes32"
        },
        {
          "indexed": false,
          "internalType": "address",
          "name": "destination",
          "type": "address"
        }
      ],
      "name": "CacheUpdated",
      "type": "event"
    },
    {
      "anonymous": false,
      "inputs": [
        {
          "indexed": false,
          "internalType": "bool",
          "name": "canOpenLoans",
          "type": "bool"
        }
      ],
      "name": "CanOpenLoansUpdated",
      "type": "event"
    },
    {
      "anonymous": false,
      "inputs": [
        {
          "indexed": true,
          "internalType": "address",
          "name": "account",
          "type": "address"
        },
        {
          "indexed": false,
          "internalType": "uint256",
          "name": "id",
          "type": "uint256"
        },
        {
          "indexed": false,
          "internalType": "uint256",
          "name": "amountDeposited",
          "type": "uint256"
        },
        {
          "indexed": false,
          "internalType": "uint256",
          "name": "collateralAfter",
          "type": "uint256"
        }
      ],
      "name": "CollateralDeposited",
      "type": "event"
    },
    {
      "anonymous": false,
      "inputs": [
        {
          "indexed": true,
          "internalType": "address",
          "name": "account",
          "type": "address"
        },
        {
          "indexed": false,
          "internalType": "uint256",
          "name": "id",
          "type": "uint256"
        },
        {
          "indexed": false,
          "internalType": "uint256",
          "name": "amountWithdrawn",
          "type": "uint256"
        },
        {
          "indexed": false,
          "internalType": "uint256",
          "name": "collateralAfter",
          "type": "uint256"
        }
      ],
      "name": "CollateralWithdrawn",
      "type": "event"
    },
    {
      "anonymous": false,
      "inputs": [
        {
          "indexed": false,
          "internalType": "uint256",
          "name": "interactionDelay",
          "type": "uint256"
        }
      ],
      "name": "InteractionDelayUpdated",
      "type": "event"
    },
    {
      "anonymous": false,
      "inputs": [
        {
          "indexed": false,
          "internalType": "uint256",
          "name": "issueFeeRate",
          "type": "uint256"
        }
      ],
      "name": "IssueFeeRateUpdated",
      "type": "event"
    },
    {
      "anonymous": false,
      "inputs": [
        {
          "indexed": true,
          "internalType": "address",
          "name": "account",
          "type": "address"
        },
        {
          "indexed": false,
          "internalType": "uint256",
          "name": "id",
          "type": "uint256"
        }
      ],
      "name": "LoanClosed",
      "type": "event"
    },
    {
      "anonymous": false,
      "inputs": [
        {
          "indexed": true,
          "internalType": "address",
          "name": "account",
          "type": "address"
        },
        {
          "indexed": false,
          "internalType": "uint256",
          "name": "id",
          "type": "uint256"
        },
        {
          "indexed": true,
          "internalType": "address",
          "name": "liquidator",
          "type": "address"
        },
        {
          "indexed": false,
          "internalType": "uint256",
          "name": "amountLiquidated",
          "type": "uint256"
        },
        {
          "indexed": false,
          "internalType": "uint256",
          "name": "collateralLiquidated",
          "type": "uint256"
        }
      ],
      "name": "LoanClosedByLiquidation",
      "type": "event"
    },
    {
      "anonymous": false,
      "inputs": [
        {
          "indexed": true,
          "internalType": "address",
          "name": "account",
          "type": "address"
        },
        {
          "indexed": false,
          "internalType": "uint256",
          "name": "id",
          "type": "uint256"
        },
        {
          "indexed": false,
          "internalType": "uint256",
          "name": "amount",
          "type": "uint256"
        },
        {
          "indexed": false,
          "internalType": "uint256",
          "name": "collateral",
          "type": "uint256"
        },
        {
          "indexed": false,
          "internalType": "bytes32",
          "name": "currency",
          "type": "bytes32"
        },
        {
          "indexed": false,
          "internalType": "uint256",
          "name": "issuanceFee",
          "type": "uint256"
        }
      ],
      "name": "LoanCreated",
      "type": "event"
    },
    {
      "anonymous": false,
      "inputs": [
        {
          "indexed": true,
          "internalType": "address",
          "name": "account",
          "type": "address"
        },
        {
          "indexed": false,
          "internalType": "uint256",
          "name": "id",
          "type": "uint256"
        },
        {
          "indexed": false,
          "internalType": "uint256",
          "name": "amount",
          "type": "uint256"
        }
      ],
      "name": "LoanDrawnDown",
      "type": "event"
    },
    {
      "anonymous": false,
      "inputs": [
        {
          "indexed": true,
          "internalType": "address",
          "name": "account",
          "type": "address"
        },
        {
          "indexed": false,
          "internalType": "uint256",
          "name": "id",
          "type": "uint256"
        },
        {
          "indexed": false,
          "internalType": "address",
          "name": "liquidator",
          "type": "address"
        },
        {
          "indexed": false,
          "internalType": "uint256",
          "name": "amountLiquidated",
          "type": "uint256"
        },
        {
          "indexed": false,
          "internalType": "uint256",
          "name": "collateralLiquidated",
          "type": "uint256"
        }
      ],
      "name": "LoanPartiallyLiquidated",
      "type": "event"
    },
    {
      "anonymous": false,
      "inputs": [
        {
          "indexed": true,
          "internalType": "address",
          "name": "account",
          "type": "address"
        },
        {
          "indexed": true,
          "internalType": "address",
          "name": "repayer",
          "type": "address"
        },
        {
          "indexed": false,
          "internalType": "uint256",
          "name": "id",
          "type": "uint256"
        },
        {
          "indexed": false,
          "internalType": "uint256",
          "name": "amountRepaid",
          "type": "uint256"
        },
        {
          "indexed": false,
          "internalType": "uint256",
          "name": "amountAfter",
          "type": "uint256"
        }
      ],
      "name": "LoanRepaymentMade",
      "type": "event"
    },
    {
      "anonymous": false,
      "inputs": [
        {
          "indexed": false,
          "internalType": "address",
          "name": "manager",
          "type": "address"
        }
      ],
      "name": "ManagerUpdated",
      "type": "event"
    },
    {
      "anonymous": false,
      "inputs": [
        {
          "indexed": false,
          "internalType": "uint256",
          "name": "maxLoansPerAccount",
          "type": "uint256"
        }
      ],
      "name": "MaxLoansPerAccountUpdated",
      "type": "event"
    },
    {
      "anonymous": false,
      "inputs": [
        {
          "indexed": false,
          "internalType": "uint256",
          "name": "minCollateral",
          "type": "uint256"
        }
      ],
      "name": "MinCollateralUpdated",
      "type": "event"
    },
    {
      "anonymous": false,
      "inputs": [
        {
          "indexed": false,
          "internalType": "uint256",
          "name": "minCratio",
          "type": "uint256"
        }
      ],
      "name": "MinCratioRatioUpdated",
      "type": "event"
    },
    {
      "anonymous": false,
      "inputs": [
        {
          "indexed": false,
          "internalType": "address",
          "name": "oldOwner",
          "type": "address"
        },
        {
          "indexed": false,
          "internalType": "address",
          "name": "newOwner",
          "type": "address"
        }
      ],
      "name": "OwnerChanged",
      "type": "event"
    },
    {
      "anonymous": false,
      "inputs": [
        {
          "indexed": false,
          "internalType": "address",
          "name": "newOwner",
          "type": "address"
        }
      ],
      "name": "OwnerNominated",
      "type": "event"
    },
    {
      "constant": false,
      "inputs": [],
      "name": "acceptOwnership",
      "outputs": [],
      "payable": false,
      "stateMutability": "nonpayable",
      "type": "function"
    },
    {
      "constant": false,
      "inputs": [
        {
          "internalType": "bytes32[]",
          "name": "_pynthNamesInResolver",
          "type": "bytes32[]"
        },
        {
          "internalType": "bytes32[]",
          "name": "_pynthKeys",
          "type": "bytes32[]"
        }
      ],
      "name": "addPynths",
      "outputs": [],
      "payable": false,
      "stateMutability": "nonpayable",
      "type": "function"
    },
    {
      "constant": false,
      "inputs": [
        {
          "internalType": "address",
          "name": "rewardsContract",
          "type": "address"
        },
        {
          "internalType": "bytes32",
          "name": "pynth",
          "type": "bytes32"
        }
      ],
      "name": "addRewardsContracts",
      "outputs": [],
      "payable": false,
      "stateMutability": "nonpayable",
      "type": "function"
    },
    {
      "constant": true,
      "inputs": [
        {
          "internalType": "bytes32[]",
          "name": "_pynthNamesInResolver",
          "type": "bytes32[]"
        },
        {
          "internalType": "bytes32[]",
          "name": "_pynthKeys",
          "type": "bytes32[]"
        }
      ],
      "name": "arePynthsAndCurrenciesSet",
      "outputs": [
        {
          "internalType": "bool",
          "name": "",
          "type": "bool"
        }
      ],
      "payable": false,
      "stateMutability": "view",
      "type": "function"
    },
    {
      "constant": true,
      "inputs": [],
      "name": "canOpenLoans",
      "outputs": [
        {
          "internalType": "bool",
          "name": "",
          "type": "bool"
        }
      ],
      "payable": false,
      "stateMutability": "view",
      "type": "function"
    },
    {
      "constant": false,
      "inputs": [
        {
          "internalType": "uint256",
          "name": "id",
          "type": "uint256"
        }
      ],
      "name": "close",
      "outputs": [],
      "payable": false,
      "stateMutability": "nonpayable",
      "type": "function"
    },
    {
      "constant": true,
      "inputs": [],
      "name": "collateralKey",
      "outputs": [
        {
          "internalType": "bytes32",
          "name": "",
          "type": "bytes32"
        }
      ],
      "payable": false,
      "stateMutability": "view",
      "type": "function"
    },
    {
      "constant": true,
      "inputs": [
        {
          "components": [
            {
              "internalType": "uint256",
              "name": "id",
              "type": "uint256"
            },
            {
              "internalType": "address payable",
              "name": "account",
              "type": "address"
            },
            {
              "internalType": "uint256",
              "name": "collateral",
              "type": "uint256"
            },
            {
              "internalType": "bytes32",
              "name": "currency",
              "type": "bytes32"
            },
            {
              "internalType": "uint256",
              "name": "amount",
              "type": "uint256"
            },
            {
              "internalType": "bool",
              "name": "short",
              "type": "bool"
            },
            {
              "internalType": "uint256",
              "name": "accruedInterest",
              "type": "uint256"
            },
            {
              "internalType": "uint256",
              "name": "interestIndex",
              "type": "uint256"
            },
            {
              "internalType": "uint256",
              "name": "lastInteraction",
              "type": "uint256"
            }
          ],
          "internalType": "struct ICollateralLoan.Loan",
          "name": "loan",
          "type": "tuple"
        }
      ],
      "name": "collateralRatio",
      "outputs": [
        {
          "internalType": "uint256",
          "name": "cratio",
          "type": "uint256"
        }
      ],
      "payable": false,
      "stateMutability": "view",
      "type": "function"
    },
    {
      "constant": true,
      "inputs": [
        {
          "internalType": "bytes32",
          "name": "currency",
          "type": "bytes32"
        },
        {
          "internalType": "uint256",
          "name": "amount",
          "type": "uint256"
        }
      ],
      "name": "collateralRedeemed",
      "outputs": [
        {
          "internalType": "uint256",
          "name": "collateral",
          "type": "uint256"
        }
      ],
      "payable": false,
      "stateMutability": "view",
      "type": "function"
    },
    {
      "constant": false,
      "inputs": [
        {
          "internalType": "address",
          "name": "borrower",
          "type": "address"
        },
        {
          "internalType": "uint256",
          "name": "id",
          "type": "uint256"
        },
        {
          "internalType": "uint256",
          "name": "amount",
          "type": "uint256"
        }
      ],
      "name": "deposit",
      "outputs": [],
      "payable": false,
      "stateMutability": "nonpayable",
      "type": "function"
    },
    {
      "constant": false,
      "inputs": [
        {
          "internalType": "uint256",
          "name": "id",
          "type": "uint256"
        },
        {
          "internalType": "uint256",
          "name": "amount",
          "type": "uint256"
        }
      ],
      "name": "draw",
      "outputs": [],
      "payable": false,
      "stateMutability": "nonpayable",
      "type": "function"
    },
    {
      "constant": true,
      "inputs": [],
      "name": "interactionDelay",
      "outputs": [
        {
          "internalType": "uint256",
          "name": "",
          "type": "uint256"
        }
      ],
      "payable": false,
      "stateMutability": "view",
      "type": "function"
    },
    {
      "constant": true,
      "inputs": [],
      "name": "isResolverCached",
      "outputs": [
        {
          "internalType": "bool",
          "name": "",
          "type": "bool"
        }
      ],
      "payable": false,
      "stateMutability": "view",
      "type": "function"
    },
    {
      "constant": true,
      "inputs": [],
      "name": "issueFeeRate",
      "outputs": [
        {
          "internalType": "uint256",
          "name": "",
          "type": "uint256"
        }
      ],
      "payable": false,
      "stateMutability": "view",
      "type": "function"
    },
    {
      "constant": false,
      "inputs": [
        {
          "internalType": "address",
          "name": "borrower",
          "type": "address"
        },
        {
          "internalType": "uint256",
          "name": "id",
          "type": "uint256"
        },
        {
          "internalType": "uint256",
          "name": "amount",
          "type": "uint256"
        }
      ],
      "name": "liquidate",
      "outputs": [],
      "payable": false,
      "stateMutability": "nonpayable",
      "type": "function"
    },
    {
      "constant": true,
      "inputs": [
        {
          "components": [
            {
              "internalType": "uint256",
              "name": "id",
              "type": "uint256"
            },
            {
              "internalType": "address payable",
              "name": "account",
              "type": "address"
            },
            {
              "internalType": "uint256",
              "name": "collateral",
              "type": "uint256"
            },
            {
              "internalType": "bytes32",
              "name": "currency",
              "type": "bytes32"
            },
            {
              "internalType": "uint256",
              "name": "amount",
              "type": "uint256"
            },
            {
              "internalType": "bool",
              "name": "short",
              "type": "bool"
            },
            {
              "internalType": "uint256",
              "name": "accruedInterest",
              "type": "uint256"
            },
            {
              "internalType": "uint256",
              "name": "interestIndex",
              "type": "uint256"
            },
            {
              "internalType": "uint256",
              "name": "lastInteraction",
              "type": "uint256"
            }
          ],
          "internalType": "struct ICollateralLoan.Loan",
          "name": "loan",
          "type": "tuple"
        }
      ],
      "name": "liquidationAmount",
      "outputs": [
        {
          "internalType": "uint256",
          "name": "amount",
          "type": "uint256"
        }
      ],
      "payable": false,
      "stateMutability": "view",
      "type": "function"
    },
    {
      "constant": true,
      "inputs": [],
      "name": "manager",
      "outputs": [
        {
          "internalType": "address",
          "name": "",
          "type": "address"
        }
      ],
      "payable": false,
      "stateMutability": "view",
      "type": "function"
    },
    {
      "constant": true,
      "inputs": [
        {
          "internalType": "uint256",
          "name": "amount",
          "type": "uint256"
        },
        {
          "internalType": "bytes32",
          "name": "currency",
          "type": "bytes32"
        }
      ],
      "name": "maxLoan",
      "outputs": [
        {
          "internalType": "uint256",
          "name": "max",
          "type": "uint256"
        }
      ],
      "payable": false,
      "stateMutability": "view",
      "type": "function"
    },
    {
      "constant": true,
      "inputs": [],
      "name": "maxLoansPerAccount",
      "outputs": [
        {
          "internalType": "uint256",
          "name": "",
          "type": "uint256"
        }
      ],
      "payable": false,
      "stateMutability": "view",
      "type": "function"
    },
    {
      "constant": true,
      "inputs": [],
      "name": "minCollateral",
      "outputs": [
        {
          "internalType": "uint256",
          "name": "",
          "type": "uint256"
        }
      ],
      "payable": false,
      "stateMutability": "view",
      "type": "function"
    },
    {
      "constant": true,
      "inputs": [],
      "name": "minCratio",
      "outputs": [
        {
          "internalType": "uint256",
          "name": "",
          "type": "uint256"
        }
      ],
      "payable": false,
      "stateMutability": "view",
      "type": "function"
    },
    {
      "constant": false,
      "inputs": [
        {
          "internalType": "address",
          "name": "_owner",
          "type": "address"
        }
      ],
      "name": "nominateNewOwner",
      "outputs": [],
      "payable": false,
      "stateMutability": "nonpayable",
      "type": "function"
    },
    {
      "constant": true,
      "inputs": [],
      "name": "nominatedOwner",
      "outputs": [
        {
          "internalType": "address",
          "name": "",
          "type": "address"
        }
      ],
      "payable": false,
      "stateMutability": "view",
      "type": "function"
    },
    {
      "constant": false,
      "inputs": [
        {
          "internalType": "uint256",
          "name": "collateral",
          "type": "uint256"
        },
        {
          "internalType": "uint256",
          "name": "amount",
          "type": "uint256"
        },
        {
          "internalType": "bytes32",
          "name": "currency",
          "type": "bytes32"
        }
      ],
      "name": "open",
      "outputs": [],
      "payable": false,
      "stateMutability": "nonpayable",
      "type": "function"
    },
    {
      "constant": true,
      "inputs": [],
      "name": "owner",
      "outputs": [
        {
          "internalType": "address",
          "name": "",
          "type": "address"
        }
      ],
      "payable": false,
      "stateMutability": "view",
      "type": "function"
    },
    {
      "constant": true,
      "inputs": [
        {
          "internalType": "uint256",
          "name": "",
          "type": "uint256"
        }
      ],
      "name": "pynths",
      "outputs": [
        {
          "internalType": "bytes32",
          "name": "",
          "type": "bytes32"
        }
      ],
      "payable": false,
      "stateMutability": "view",
      "type": "function"
    },
    {
      "constant": true,
      "inputs": [
        {
          "internalType": "bytes32",
          "name": "",
          "type": "bytes32"
        }
      ],
      "name": "pynthsByKey",
      "outputs": [
        {
          "internalType": "bytes32",
          "name": "",
          "type": "bytes32"
        }
      ],
      "payable": false,
      "stateMutability": "view",
      "type": "function"
    },
    {
      "constant": false,
      "inputs": [],
      "name": "rebuildCache",
      "outputs": [],
      "payable": false,
      "stateMutability": "nonpayable",
      "type": "function"
    },
    {
      "constant": false,
      "inputs": [
        {
          "internalType": "address",
          "name": "borrower",
          "type": "address"
        },
        {
          "internalType": "uint256",
          "name": "id",
          "type": "uint256"
        },
        {
          "internalType": "uint256",
          "name": "amount",
          "type": "uint256"
        }
      ],
      "name": "repay",
      "outputs": [],
      "payable": false,
      "stateMutability": "nonpayable",
      "type": "function"
    },
    {
      "constant": true,
      "inputs": [],
      "name": "resolver",
      "outputs": [
        {
          "internalType": "contract AddressResolver",
          "name": "",
          "type": "address"
        }
      ],
      "payable": false,
      "stateMutability": "view",
      "type": "function"
    },
    {
      "constant": true,
      "inputs": [],
      "name": "resolverAddressesRequired",
      "outputs": [
        {
          "internalType": "bytes32[]",
          "name": "addresses",
          "type": "bytes32[]"
        }
      ],
      "payable": false,
      "stateMutability": "view",
      "type": "function"
    },
    {
      "constant": true,
      "inputs": [
        {
          "internalType": "uint256",
          "name": "collateral",
          "type": "uint256"
        }
      ],
      "name": "scaleDownCollateral",
      "outputs": [
        {
          "internalType": "uint256",
          "name": "scaledDown",
          "type": "uint256"
        }
      ],
      "payable": false,
      "stateMutability": "view",
      "type": "function"
    },
    {
      "constant": true,
      "inputs": [
        {
          "internalType": "uint256",
          "name": "collateral",
          "type": "uint256"
        }
      ],
      "name": "scaleUpCollateral",
      "outputs": [
        {
          "internalType": "uint256",
          "name": "scaledUp",
          "type": "uint256"
        }
      ],
      "payable": false,
      "stateMutability": "view",
      "type": "function"
    },
    {
      "constant": false,
      "inputs": [
        {
          "internalType": "bool",
          "name": "_canOpenLoans",
          "type": "bool"
        }
      ],
      "name": "setCanOpenLoans",
      "outputs": [],
      "payable": false,
      "stateMutability": "nonpayable",
      "type": "function"
    },
    {
      "constant": false,
      "inputs": [
        {
          "internalType": "uint256",
          "name": "_interactionDelay",
          "type": "uint256"
        }
      ],
      "name": "setInteractionDelay",
      "outputs": [],
      "payable": false,
      "stateMutability": "nonpayable",
      "type": "function"
    },
    {
      "constant": false,
      "inputs": [
        {
          "internalType": "uint256",
          "name": "_issueFeeRate",
          "type": "uint256"
        }
      ],
      "name": "setIssueFeeRate",
      "outputs": [],
      "payable": false,
      "stateMutability": "nonpayable",
      "type": "function"
    },
    {
      "constant": false,
      "inputs": [
        {
          "internalType": "address",
          "name": "_newManager",
          "type": "address"
        }
      ],
      "name": "setManager",
      "outputs": [],
      "payable": false,
      "stateMutability": "nonpayable",
      "type": "function"
    },
    {
      "constant": false,
      "inputs": [
        {
          "internalType": "uint256",
          "name": "_minCratio",
          "type": "uint256"
        }
      ],
      "name": "setMinCratio",
      "outputs": [],
      "payable": false,
      "stateMutability": "nonpayable",
      "type": "function"
    },
    {
      "constant": true,
      "inputs": [
        {
          "internalType": "bytes32",
          "name": "",
          "type": "bytes32"
        }
      ],
      "name": "shortingRewards",
      "outputs": [
        {
          "internalType": "address",
          "name": "",
          "type": "address"
        }
      ],
      "payable": false,
      "stateMutability": "view",
      "type": "function"
    },
    {
      "constant": true,
      "inputs": [],
      "name": "state",
      "outputs": [
        {
          "internalType": "contract CollateralState",
          "name": "",
          "type": "address"
        }
      ],
      "payable": false,
      "stateMutability": "view",
      "type": "function"
    },
    {
      "constant": true,
      "inputs": [],
      "name": "underlyingContract",
      "outputs": [
        {
          "internalType": "address",
          "name": "",
          "type": "address"
        }
      ],
      "payable": false,
      "stateMutability": "view",
      "type": "function"
    },
    {
      "constant": true,
      "inputs": [],
      "name": "underlyingContractDecimals",
      "outputs": [
        {
          "internalType": "uint256",
          "name": "",
          "type": "uint256"
        }
      ],
      "payable": false,
      "stateMutability": "view",
      "type": "function"
    },
    {
      "constant": false,
      "inputs": [
        {
          "internalType": "uint256",
          "name": "id",
          "type": "uint256"
        },
        {
          "internalType": "uint256",
          "name": "amount",
          "type": "uint256"
        }
      ],
      "name": "withdraw",
      "outputs": [],
      "payable": false,
      "stateMutability": "nonpayable",
      "type": "function"
    }
  ],
  "bytecode": "0x60806040526032600d5561012c600e556001600f60006101000a81548160ff0219169083151502179055503480156200003757600080fd5b5060405162008a1b38038062008a1b83398181016040526200005d9190810190620002eb565b88888888888888838087600073ffffffffffffffffffffffffffffffffffffffff168173ffffffffffffffffffffffffffffffffffffffff161415620000da576040517f08c379a0000000000000000000000000000000000000000000000000000000008152600401620000d19062000455565b60405180910390fd5b806000806101000a81548173ffffffffffffffffffffffffffffffffffffffff021916908373ffffffffffffffffffffffffffffffffffffffff1602179055507fb532073b38c83145e3e5135377a08bf9aab55bc0fd7c1179cd4fb995d2a5159c6000826040516200014e92919062000428565b60405180910390a15080600260006101000a81548173ffffffffffffffffffffffffffffffffffffffff021916908373ffffffffffffffffffffffffffffffffffffffff160217905550505084600660006101000a81548173ffffffffffffffffffffffffffffffffffffffff021916908373ffffffffffffffffffffffffffffffffffffffff16021790555086600560006101000a81548173ffffffffffffffffffffffffffffffffffffffff021916908373ffffffffffffffffffffffffffffffffffffffff1602179055508260048190555081600a8190555080600b819055505050505050505081600f60016101000a81548173ffffffffffffffffffffffffffffffffffffffff021916908373ffffffffffffffffffffffffffffffffffffffff1602179055508060108190555050505050505050505062000588565b600081519050620002a08162000520565b92915050565b600081519050620002b7816200053a565b92915050565b600081519050620002ce8162000554565b92915050565b600081519050620002e5816200056e565b92915050565b60008060008060008060008060006101208a8c0312156200030b57600080fd5b60006200031b8c828d01620002bd565b99505060206200032e8c828d016200028f565b9850506040620003418c828d016200028f565b9750506060620003548c828d016200028f565b9650506080620003678c828d01620002a6565b95505060a06200037a8c828d01620002d4565b94505060c06200038d8c828d01620002d4565b93505060e0620003a08c828d016200028f565b925050610100620003b48c828d01620002d4565b9150509295985092959850929598565b620003cf81620004e4565b82525050565b620003e08162000488565b82525050565b6000620003f560198362000477565b91507f4f776e657220616464726573732063616e6e6f742062652030000000000000006000830152602082019050919050565b60006040820190506200043f6000830185620003c4565b6200044e6020830184620003d5565b9392505050565b600060208201905081810360008301526200047081620003e6565b9050919050565b600082825260208201905092915050565b60006200049582620004ba565b9050919050565b6000819050919050565b6000620004b38262000488565b9050919050565b600073ffffffffffffffffffffffffffffffffffffffff82169050919050565b6000819050919050565b6000620004f182620004f8565b9050919050565b600062000505826200050c565b9050919050565b60006200051982620004ba565b9050919050565b6200052b8162000488565b81146200053757600080fd5b50565b62000545816200049c565b81146200055157600080fd5b50565b6200055f81620004a6565b81146200056b57600080fd5b50565b6200057981620004da565b81146200058557600080fd5b50565b61848380620005986000396000f3fe608060405234801561001057600080fd5b50600436106102695760003560e01c80637418536011610151578063b562a1ab116100c3578063d2b8035a11610087578063d2b8035a14610700578063dac8cf681461071c578063de81eda91461074c578063e74337c61461077c578063eb8e3b65146107ac578063f93451ed146107ca57610269565b8063b562a1ab1461065a578063ba2de9bc14610678578063c19d93fb14610696578063cd285020146106b4578063d0ebdbe7146106e457610269565b80638cd2e0c7116101155780638cd2e0c71461059a5780638da5cb5b146105b657806390abb4d9146105d4578063925ead11146105f0578063a76cdfa51461060e578063b094f2c41461062a57610269565b8063741853601461050857806379ba5097146105125780637e1323551461051c578063883a22091461054c578063899ffef41461057c57610269565b80632af64bd3116101ea578063441a3e70116101ae578063441a3e701461045c578063481c6a75146104785780634c17ace41461049657806353a47bb7146104b257806355bd615c146104d05780635eb2ad01146104ec57610269565b80632af64bd3146103b4578063361e2086146103d257806337551ec6146103f05780633cc3ffc7146104205780634065b81b1461043e57610269565b80630e54a19b116102315780630e54a19b146103105780630efe6a8b1461034057806310cfe9061461035c57806315aaf4dd1461037a5780631627540c1461039857610269565b806304f3bcec1461026e5780630710285c1461028c5780630a153c97146102a85780630aebeb4e146102d85780630cdd1c65146102f4575b600080fd5b6102766107e6565b6040516102839190617cc0565b60405180910390f35b6102a660048036036102a19190810190616bc0565b61080c565b005b6102c260048036036102bd9190810190616d3b565b6108df565b6040516102cf91906180d4565b60405180910390f35b6102f260048036036102ed9190810190616dcb565b610a2d565b005b61030e60048036036103099190810190616dcb565b610afd565b005b61032a60048036036103259190810190616c0f565b610c05565b6040516103379190617ba8565b60405180910390f35b61035a60048036036103559190810190616bc0565b610cda565b005b610364610e99565b6040516103719190617a23565b60405180910390f35b610382610ebf565b60405161038f91906180d4565b60405180910390f35b6103b260048036036103ad9190810190616b32565b610ec5565b005b6103bc610f48565b6040516103c99190617ba8565b60405180910390f35b6103da61111d565b6040516103e791906180d4565b60405180910390f35b61040a60048036036104059190810190616dcb565b611123565b6040516104179190617bc3565b60405180910390f35b610428611144565b60405161043591906180d4565b60405180910390f35b61044661114a565b6040516104539190617ba8565b60405180910390f35b61047660048036036104719190810190616e95565b61115d565b005b61048061123c565b60405161048d9190617a23565b60405180910390f35b6104b060048036036104ab9190810190616dcb565b611262565b005b6104ba61136f565b6040516104c79190617a23565b60405180910390f35b6104ea60048036036104e59190810190616c0f565b611395565b005b61050660048036036105019190810190616b84565b611480565b005b6105106114de565b005b61051a61167f565b005b61053660048036036105319190810190616e59565b611831565b60405161054391906180d4565b60405180910390f35b61056660048036036105619190810190616dcb565b6118ea565b60405161057391906180d4565b60405180910390f35b61058461191a565b6040516105919190617b86565b60405180910390f35b6105b460048036036105af9190810190616bc0565b611aee565b005b6105be611aff565b6040516105cb9190617a23565b60405180910390f35b6105ee60048036036105e99190810190616c84565b611b24565b005b6105f8611b8f565b60405161060591906180d4565b60405180910390f35b61062860048036036106239190810190616dcb565b611b95565b005b610644600480360361063f9190810190616dcb565b611be0565b60405161065191906180d4565b60405180910390f35b610662611c10565b60405161066f9190617bc3565b60405180910390f35b610680611c16565b60405161068d91906180d4565b60405180910390f35b61069e611c1c565b6040516106ab9190617cdb565b60405180910390f35b6106ce60048036036106c99190810190616d12565b611c42565b6040516106db9190617bc3565b60405180910390f35b6106fe60048036036106f99190810190616b32565b611c5a565b005b61071a60048036036107159190810190616e95565b611cff565b005b61073660048036036107319190810190616d77565b611d0d565b60405161074391906180d4565b60405180910390f35b61076660048036036107619190810190616d12565b611ebe565b6040516107739190617a23565b60405180910390f35b61079660048036036107919190810190616d77565b611ef1565b6040516107a391906180d4565b60405180910390f35b6107b4612257565b6040516107c191906180d4565b60405180910390f35b6107e460048036036107df9190810190616ed1565b61225d565b005b600260009054906101000a900473ffffffffffffffffffffffffffffffffffffffff1681565b600061081984848461241f565b9050600061082682611be0565b9050600f60019054906101000a900473ffffffffffffffffffffffffffffffffffffffff1673ffffffffffffffffffffffffffffffffffffffff1663a9059cbb33836040518363ffffffff1660e01b8152600401610885929190617ae2565b602060405180830381600087803b15801561089f57600080fd5b505af11580156108b3573d6000803e3d6000fd5b505050506040513d601f19601f820116820180604052506108d79190810190616cad565b505050505050565b6000806108ea6129b4565b90506108f4612a8d565b73ffffffffffffffffffffffffffffffffffffffff1663654a60ac85856004546040518463ffffffff1660e01b815260040161093293929190617c89565b60206040518083038186803b15801561094a57600080fd5b505afa15801561095e573d6000803e3d6000fd5b505050506040513d601f19601f820116820180604052506109829190810190616df4565b9150610a24610a158273__$b8d33eeb36ac0d1e81cd70156e0043e778$__63907af6c06040518163ffffffff1660e01b815260040160206040518083038186803b1580156109cf57600080fd5b505af41580156109e3573d6000803e3d6000fd5b505050506040513d601f19601f82011682018060405250610a079190810190616df4565b612abd90919063ffffffff16565b83612b1290919063ffffffff16565b91505092915050565b6000610a393383612b3f565b90506000610a4682611be0565b9050600f60019054906101000a900473ffffffffffffffffffffffffffffffffffffffff1673ffffffffffffffffffffffffffffffffffffffff1663a9059cbb33836040518363ffffffff1660e01b8152600401610aa5929190617ae2565b602060405180830381600087803b158015610abf57600080fd5b505af1158015610ad3573d6000803e3d6000fd5b505050506040513d601f19601f82011682018060405250610af79190810190616cad565b50505050565b610b05613227565b73__$b8d33eeb36ac0d1e81cd70156e0043e778$__63907af6c06040518163ffffffff1660e01b815260040160206040518083038186803b158015610b4957600080fd5b505af4158015610b5d573d6000803e3d6000fd5b505050506040513d601f19601f82011682018060405250610b819190810190616df4565b8111610bc2576040517f08c379a0000000000000000000000000000000000000000000000000000000008152600401610bb990617d38565b60405180910390fd5b80600a819055507f813a44586e8ecb9390b2568dbe810e193087f80e415c8845340ef06d4cbb42a5600a54604051610bfa91906180d4565b60405180910390a150565b60008484905060078054905014610c1f5760009050610cd2565b60008090505b85859050811015610ccc576000868683818110610c3e57fe5b9050602002013590508060078381548110610c5557fe5b906000526020600020015414610c7057600092505050610cd2565b60078281548110610c7d57fe5b906000526020600020015460086000878786818110610c9857fe5b9050602002013581526020019081526020016000205414610cbe57600092505050610cd2565b508080600101915050610c25565b50600190505b949350505050565b600f60019054906101000a900473ffffffffffffffffffffffffffffffffffffffff1673ffffffffffffffffffffffffffffffffffffffff1663dd62ed3e33306040518363ffffffff1660e01b8152600401610d37929190617a59565b60206040518083038186803b158015610d4f57600080fd5b505afa158015610d63573d6000803e3d6000fd5b505050506040513d601f19601f82011682018060405250610d879190810190616df4565b811115610dc9576040517f08c379a0000000000000000000000000000000000000000000000000000000008152600401610dc090617db8565b60405180910390fd5b600f60019054906101000a900473ffffffffffffffffffffffffffffffffffffffff1673ffffffffffffffffffffffffffffffffffffffff166323b872dd3330846040518463ffffffff1660e01b8152600401610e2893929190617a82565b602060405180830381600087803b158015610e4257600080fd5b505af1158015610e56573d6000803e3d6000fd5b505050506040513d601f19601f82011682018060405250610e7a9190810190616cad565b506000610e86826118ea565b9050610e938484836132b8565b50505050565b600f60019054906101000a900473ffffffffffffffffffffffffffffffffffffffff1681565b600e5481565b610ecd613227565b80600160006101000a81548173ffffffffffffffffffffffffffffffffffffffff021916908373ffffffffffffffffffffffffffffffffffffffff1602179055507f906a1c6bd7e3091ea86693dd029a831c19049ce77f1dce2ce0bab1cacbabce2281604051610f3d9190617a23565b60405180910390a150565b60006060610f5461191a565b905060008090505b8151811015611113576000828281518110610f7357fe5b602002602001015190506003600082815260200190815260200160002060009054906101000a900473ffffffffffffffffffffffffffffffffffffffff1673ffffffffffffffffffffffffffffffffffffffff16600260009054906101000a900473ffffffffffffffffffffffffffffffffffffffff1673ffffffffffffffffffffffffffffffffffffffff166321f8a721836040518263ffffffff1660e01b81526004016110229190617bc3565b60206040518083038186803b15801561103a57600080fd5b505afa15801561104e573d6000803e3d6000fd5b505050506040513d601f19601f820116820180604052506110729190810190616b5b565b73ffffffffffffffffffffffffffffffffffffffff161415806110f45750600073ffffffffffffffffffffffffffffffffffffffff166003600083815260200190815260200160002060009054906101000a900473ffffffffffffffffffffffffffffffffffffffff1673ffffffffffffffffffffffffffffffffffffffff16145b15611105576000935050505061111a565b508080600101915050610f5c565b5060019150505b90565b600c5481565b6007818154811061113057fe5b906000526020600020016000915090505481565b60105481565b600f60009054906101000a900460ff1681565b6000611168826118ea565b905060006111768483613612565b9050600061118382611be0565b9050600f60019054906101000a900473ffffffffffffffffffffffffffffffffffffffff1673ffffffffffffffffffffffffffffffffffffffff1663a9059cbb33836040518363ffffffff1660e01b81526004016111e2929190617ae2565b602060405180830381600087803b1580156111fc57600080fd5b505af1158015611210573d6000803e3d6000fd5b505050506040513d601f19601f820116820180604052506112349190810190616cad565b505050505050565b600660009054906101000a900473ffffffffffffffffffffffffffffffffffffffff1681565b61126a613227565b610e1073__$b8d33eeb36ac0d1e81cd70156e0043e778$__63907af6c06040518163ffffffff1660e01b815260040160206040518083038186803b1580156112b157600080fd5b505af41580156112c5573d6000803e3d6000fd5b505050506040513d601f19601f820116820180604052506112e99190810190616df4565b0281111561132c576040517f08c379a000000000000000000000000000000000000000000000000000000000815260040161132390617f58565b60405180910390fd5b80600e819055507f4d71c92b0a9dc236066597b95637bb04d58cd135e9165aee13eb68e3199c2361600e5460405161136491906180d4565b60405180910390a150565b600160009054906101000a900473ffffffffffffffffffffffffffffffffffffffff1681565b61139d613227565b8181905084849050146113e5576040517f08c379a00000000000000000000000000000000000000000000000000000000081526004016113dc90617d18565b60405180910390fd5b60008090505b8484905081101561147157600085858381811061140457fe5b9050602002013590506007819080600181540180825580915050906001820390600052602060002001600090919290919091505550806008600086868681811061144a57fe5b905060200201358152602001908152602001600020819055505080806001019150506113eb565b5061147a6114de565b50505050565b611488613227565b816009600083815260200190815260200160002060006101000a81548173ffffffffffffffffffffffffffffffffffffffff021916908373ffffffffffffffffffffffffffffffffffffffff1602179055505050565b60606114e861191a565b905060008090505b815181101561167b57600082828151811061150757fe5b602002602001015190506000600260009054906101000a900473ffffffffffffffffffffffffffffffffffffffff1673ffffffffffffffffffffffffffffffffffffffff1663dacb2d01838460405160200161156391906179fd565b6040516020818303038152906040526040518363ffffffff1660e01b815260040161158f929190617c30565b60206040518083038186803b1580156115a757600080fd5b505afa1580156115bb573d6000803e3d6000fd5b505050506040513d601f19601f820116820180604052506115df9190810190616b5b565b9050806003600084815260200190815260200160002060006101000a81548173ffffffffffffffffffffffffffffffffffffffff021916908373ffffffffffffffffffffffffffffffffffffffff1602179055507f88a93678a3692f6789d9546fc621bf7234b101ddb7d4fe479455112831b8aa688282604051611664929190617bde565b60405180910390a1505080806001019150506114f0565b5050565b600160009054906101000a900473ffffffffffffffffffffffffffffffffffffffff1673ffffffffffffffffffffffffffffffffffffffff163373ffffffffffffffffffffffffffffffffffffffff161461170f576040517f08c379a000000000000000000000000000000000000000000000000000000000815260040161170690617d98565b60405180910390fd5b7fb532073b38c83145e3e5135377a08bf9aab55bc0fd7c1179cd4fb995d2a5159c6000809054906101000a900473ffffffffffffffffffffffffffffffffffffffff16600160009054906101000a900473ffffffffffffffffffffffffffffffffffffffff16604051611783929190617b0b565b60405180910390a1600160009054906101000a900473ffffffffffffffffffffffffffffffffffffffff166000806101000a81548173ffffffffffffffffffffffffffffffffffffffff021916908373ffffffffffffffffffffffffffffffffffffffff1602179055506000600160006101000a81548173ffffffffffffffffffffffffffffffffffffffff021916908373ffffffffffffffffffffffffffffffffffffffff160217905550565b60006118e261183e612a8d565b73ffffffffffffffffffffffffffffffffffffffff1663654a60ac60045486866040518463ffffffff1660e01b815260040161187c93929190617c89565b60206040518083038186803b15801561189457600080fd5b505afa1580156118a8573d6000803e3d6000fd5b505050506040513d601f19601f820116820180604052506118cc9190810190616df4565b6118d461397b565b612b1290919063ffffffff16565b905092915050565b6000806118fa6012601054613a12565b600a0a90506119128184613a6890919063ffffffff16565b915050919050565b606080611925613ad8565b9050606060056040519080825280602002602001820160405280156119595781602001602082028038833980820191505090505b5090507f466565506f6f6c000000000000000000000000000000000000000000000000008160008151811061198a57fe5b6020026020010181815250507f45786368616e6765526174657300000000000000000000000000000000000000816001815181106119c457fe5b6020026020010181815250507f45786368616e6765720000000000000000000000000000000000000000000000816002815181106119fe57fe5b6020026020010181815250507f53797374656d537461747573000000000000000000000000000000000000000081600381518110611a3857fe5b6020026020010181815250507f50796e746870555344000000000000000000000000000000000000000000000081600481518110611a7257fe5b6020026020010181815250506060611a8a8383613b4a565b9050611ae6816007805480602002602001604051908101604052809291908181526020018280548015611adc57602002820191906000526020600020905b815481526020019060010190808311611ac8575b5050505050613b4a565b935050505090565b611afa83338484613c1d565b505050565b6000809054906101000a900473ffffffffffffffffffffffffffffffffffffffff1681565b611b2c613227565b80600f60006101000a81548160ff0219169083151502179055507f261991749e1b2436706a31bde8bf184bb37fe21e303709b78d3b881afacadaa2600f60009054906101000a900460ff16604051611b849190617ba8565b60405180910390a150565b600a5481565b611b9d613227565b80600c819055507fe7bd72551c54d568cd97b00dc52d2787b5c5d4f0070d3582c1e8ba25141f799c600c54604051611bd591906180d4565b60405180910390a150565b600080611bf06012601054613a12565b600a0a9050611c0881846140ec90919063ffffffff16565b915050919050565b60045481565b600b5481565b600560009054906101000a900473ffffffffffffffffffffffffffffffffffffffff1681565b60086020528060005260406000206000915090505481565b611c62613227565b80600660006101000a81548173ffffffffffffffffffffffffffffffffffffffff021916908373ffffffffffffffffffffffffffffffffffffffff1602179055507f2c1c11af44aa5608f1dca38c00275c30ea091e02417d36e70e9a1538689c433d600660009054906101000a900473ffffffffffffffffffffffffffffffffffffffff16604051611cf49190617a23565b60405180910390a150565b611d098282614148565b5050565b600080611d18612a8d565b73ffffffffffffffffffffffffffffffffffffffff1663654a60ac60045485604001517f70555344000000000000000000000000000000000000000000000000000000006040518463ffffffff1660e01b8152600401611d7a93929190617c89565b60206040518083038186803b158015611d9257600080fd5b505afa158015611da6573d6000803e3d6000fd5b505050506040513d601f19601f82011682018060405250611dca9190810190616df4565b90506000611dd6612a8d565b73ffffffffffffffffffffffffffffffffffffffff1663654a60ac8560600151611e118760c001518860800151612abd90919063ffffffff16565b7f70555344000000000000000000000000000000000000000000000000000000006040518463ffffffff1660e01b8152600401611e5093929190617c89565b60206040518083038186803b158015611e6857600080fd5b505afa158015611e7c573d6000803e3d6000fd5b505050506040513d601f19601f82011682018060405250611ea09190810190616df4565b9050611eb581836148ab90919063ffffffff16565b92505050919050565b60096020528060005260406000206000915054906101000a900473ffffffffffffffffffffffffffffffffffffffff1681565b600080611efc6129b4565b90506000611f08612a8d565b73ffffffffffffffffffffffffffffffffffffffff1663654a60ac8560600151611f438760c001518860800151612abd90919063ffffffff16565b7f70555344000000000000000000000000000000000000000000000000000000006040518463ffffffff1660e01b8152600401611f8293929190617c89565b60206040518083038186803b158015611f9a57600080fd5b505afa158015611fae573d6000803e3d6000fd5b505050506040513d601f19601f82011682018060405250611fd29190810190616df4565b90506000611fde612a8d565b73ffffffffffffffffffffffffffffffffffffffff1663654a60ac60045487604001517f70555344000000000000000000000000000000000000000000000000000000006040518463ffffffff1660e01b815260040161204093929190617c89565b60206040518083038186803b15801561205857600080fd5b505afa15801561206c573d6000803e3d6000fd5b505050506040513d601f19601f820116820180604052506120909190810190616df4565b9050600073__$b8d33eeb36ac0d1e81cd70156e0043e778$__63907af6c06040518163ffffffff1660e01b815260040160206040518083038186803b1580156120d857600080fd5b505af41580156120ec573d6000803e3d6000fd5b505050506040513d601f19601f820116820180604052506121109190810190616df4565b9050600061213b61212c600a54856148ab90919063ffffffff16565b85613a1290919063ffffffff16565b90506000612178612169600a5461215b8987612abd90919063ffffffff16565b6148ab90919063ffffffff16565b84613a1290919063ffffffff16565b9050600061218f82846148ab90919063ffffffff16565b9050612199612a8d565b73ffffffffffffffffffffffffffffffffffffffff1663654a60ac7f7055534400000000000000000000000000000000000000000000000000000000838c606001516040518463ffffffff1660e01b81526004016121f993929190617c89565b60206040518083038186803b15801561221157600080fd5b505afa158015612225573d6000803e3d6000fd5b505050506040513d601f19601f820116820180604052506122499190810190616df4565b975050505050505050919050565b600d5481565b600f60019054906101000a900473ffffffffffffffffffffffffffffffffffffffff1673ffffffffffffffffffffffffffffffffffffffff1663dd62ed3e33306040518363ffffffff1660e01b81526004016122ba929190617a59565b60206040518083038186803b1580156122d257600080fd5b505afa1580156122e6573d6000803e3d6000fd5b505050506040513d601f19601f8201168201806040525061230a9190810190616df4565b83111561234c576040517f08c379a000000000000000000000000000000000000000000000000000000000815260040161234390617db8565b60405180910390fd5b600f60019054906101000a900473ffffffffffffffffffffffffffffffffffffffff1673ffffffffffffffffffffffffffffffffffffffff166323b872dd3330866040518463ffffffff1660e01b81526004016123ab93929190617a82565b602060405180830381600087803b1580156123c557600080fd5b505af11580156123d9573d6000803e3d6000fd5b505050506040513d601f19601f820116820180604052506123fd9190810190616cad565b506000612409846118ea565b905061241881848460006148e1565b5050505050565b60006124296153bf565b73ffffffffffffffffffffffffffffffffffffffff16637c3125416040518163ffffffff1660e01b815260040160006040518083038186803b15801561246e57600080fd5b505afa158015612482573d6000803e3d6000fd5b5050505061248e612a8d565b73ffffffffffffffffffffffffffffffffffffffff16632528f0fe6004546040518263ffffffff1660e01b81526004016124c89190617bc3565b60206040518083038186803b1580156124e057600080fd5b505afa1580156124f4573d6000803e3d6000fd5b505050506040513d601f19601f820116820180604052506125189190810190616cad565b15612558576040517f08c379a000000000000000000000000000000000000000000000000000000000815260040161254f90617f78565b60405180910390fd5b6000821161259b576040517f08c379a000000000000000000000000000000000000000000000000000000000815260040161259290617df8565b60405180910390fd5b6125a36167f7565b600560009054906101000a900473ffffffffffffffffffffffffffffffffffffffff1673ffffffffffffffffffffffffffffffffffffffff1663a1c5158686866040518363ffffffff1660e01b8152600401612600929190617b5d565b6101206040518083038186803b15801561261957600080fd5b505afa15801561262d573d6000803e3d6000fd5b505050506040513d601f19601f820116820180604052506126519190810190616da1565b905061265c816153ef565b61266581615495565b905061267633826060015185615a37565b600a5461268282611d0d565b106126c2576040517f08c379a00000000000000000000000000000000000000000000000000000000081526004016126b990617e58565b60405180910390fd5b60006126cd82611ef1565b905060008482106126de57846126e0565b815b905060006126ff8460c001518560800151612abd90919063ffffffff16565b905080821061271e57612713883386615b22565b9450505050506129ad565b612728848361601c565b93506127388460600151836108df565b9450612751858560400151613a1290919063ffffffff16565b846040018181525050428461010001818152505061276d6162e4565b73ffffffffffffffffffffffffffffffffffffffff1663d6f32e063386606001516040518363ffffffff1660e01b81526004016127ab929190617ab9565b60206040518083038186803b1580156127c357600080fd5b505afa1580156127d7573d6000803e3d6000fd5b505050506040513d601f19601f820116820180604052506127fb9190810190616cad565b1561283b576040517f08c379a000000000000000000000000000000000000000000000000000000000815260040161283290618098565b60405180910390fd5b61285b600860008660600151815260200190815260200160002054616314565b73ffffffffffffffffffffffffffffffffffffffff16639dc29fac33846040518363ffffffff1660e01b8152600401612895929190617ae2565b600060405180830381600087803b1580156128af57600080fd5b505af11580156128c3573d6000803e3d6000fd5b50505050600560009054906101000a900473ffffffffffffffffffffffffffffffffffffffff1673ffffffffffffffffffffffffffffffffffffffff166344dce41c856040518263ffffffff1660e01b815260040161292291906180b8565b600060405180830381600087803b15801561293c57600080fd5b505af1158015612950573d6000803e3d6000fd5b505050508773ffffffffffffffffffffffffffffffffffffffff167fb6e43890aeea54fbe6c0ed628e78172a0ff30bbcb1d70d8b130b12c366bac4c5883385896040516129a094939291906180ef565b60405180910390a2505050505b9392505050565b60006129be616326565b73ffffffffffffffffffffffffffffffffffffffff166323257c2b7f53797374656d53657474696e67730000000000000000000000000000000000007f6c69717569646174696f6e50656e616c747900000000000000000000000000006040518363ffffffff1660e01b8152600401612a38929190617c07565b60206040518083038186803b158015612a5057600080fd5b505afa158015612a64573d6000803e3d6000fd5b505050506040513d601f19601f82011682018060405250612a889190810190616df4565b905090565b6000612ab87f45786368616e6765526174657300000000000000000000000000000000000000616356565b905090565b600080828401905083811015612b08576040517f08c379a0000000000000000000000000000000000000000000000000000000008152600401612aff90617e18565b60405180910390fd5b8091505092915050565b6000601260ff16600a0a612b2f8385613a6890919063ffffffff16565b81612b3657fe5b04905092915050565b6000612b496153bf565b73ffffffffffffffffffffffffffffffffffffffff16637c3125416040518163ffffffff1660e01b815260040160006040518083038186803b158015612b8e57600080fd5b505afa158015612ba2573d6000803e3d6000fd5b50505050612bae612a8d565b73ffffffffffffffffffffffffffffffffffffffff16632528f0fe6004546040518263ffffffff1660e01b8152600401612be89190617bc3565b60206040518083038186803b158015612c0057600080fd5b505afa158015612c14573d6000803e3d6000fd5b505050506040513d601f19601f82011682018060405250612c389190810190616cad565b15612c78576040517f08c379a0000000000000000000000000000000000000000000000000000000008152600401612c6f90617f78565b60405180910390fd5b612c806167f7565b600560009054906101000a900473ffffffffffffffffffffffffffffffffffffffff1673ffffffffffffffffffffffffffffffffffffffff1663a1c5158685856040518363ffffffff1660e01b8152600401612cdd929190617b5d565b6101206040518083038186803b158015612cf657600080fd5b505afa158015612d0a573d6000803e3d6000fd5b505050506040513d601f19601f82011682018060405250612d2e9190810190616da1565b9050612d39816153ef565b612d4281615495565b90506000612d618260c001518360800151612abd90919063ffffffff16565b9050612d768260200151836060015183615a37565b612d7e6162e4565b73ffffffffffffffffffffffffffffffffffffffff1663d6f32e068684606001516040518363ffffffff1660e01b8152600401612dbc929190617b34565b60206040518083038186803b158015612dd457600080fd5b505afa158015612de8573d6000803e3d6000fd5b505050506040513d601f19601f82011682018060405250612e0c9190810190616cad565b15612e4c576040517f08c379a0000000000000000000000000000000000000000000000000000000008152600401612e4390617eb8565b60405180910390fd5b612e6c600860008460600151815260200190815260200160002054616314565b73ffffffffffffffffffffffffffffffffffffffff16639dc29fac86836040518363ffffffff1660e01b8152600401612ea6929190617b5d565b600060405180830381600087803b158015612ec057600080fd5b505af1158015612ed4573d6000803e3d6000fd5b505050508160a001511561307757612eea61642b565b73ffffffffffffffffffffffffffffffffffffffff16635246f2b9836060015184608001516040518363ffffffff1660e01b8152600401612f2c929190617c60565b600060405180830381600087803b158015612f4657600080fd5b505af1158015612f5a573d6000803e3d6000fd5b50505050600073ffffffffffffffffffffffffffffffffffffffff16600960008460600151815260200190815260200160002060009054906101000a900473ffffffffffffffffffffffffffffffffffffffff1673ffffffffffffffffffffffffffffffffffffffff161461307257600960008360600151815260200190815260200160002060009054906101000a900473ffffffffffffffffffffffffffffffffffffffff1673ffffffffffffffffffffffffffffffffffffffff1663f3fef3a38684608001516040518363ffffffff1660e01b815260040161303f929190617b5d565b600060405180830381600087803b15801561305957600080fd5b505af115801561306d573d6000803e3d6000fd5b505050505b6130f4565b61307f61642b565b73ffffffffffffffffffffffffffffffffffffffff1663e50a31b3836060015184608001516040518363ffffffff1660e01b81526004016130c1929190617c60565b600060405180830381600087803b1580156130db57600080fd5b505af11580156130ef573d6000803e3d6000fd5b505050505b8160400151925061310d8260c001518360600151616455565b6000826080018181525050600082604001818152505060008260c001818152505060008260e00181815250504282610100018181525050600560009054906101000a900473ffffffffffffffffffffffffffffffffffffffff1673ffffffffffffffffffffffffffffffffffffffff166344dce41c836040518263ffffffff1660e01b815260040161319f91906180b8565b600060405180830381600087803b1580156131b957600080fd5b505af11580156131cd573d6000803e3d6000fd5b505050508473ffffffffffffffffffffffffffffffffffffffff167fcab22a4e95d29d40da2ace3f6ec72b49954a9bc7b2584f8fd47bf7f357a3ed6f8560405161321791906180d4565b60405180910390a2505092915050565b6000809054906101000a900473ffffffffffffffffffffffffffffffffffffffff1673ffffffffffffffffffffffffffffffffffffffff163373ffffffffffffffffffffffffffffffffffffffff16146132b6576040517f08c379a00000000000000000000000000000000000000000000000000000000081526004016132ad90617fb8565b60405180910390fd5b565b6132c06153bf565b73ffffffffffffffffffffffffffffffffffffffff16637c3125416040518163ffffffff1660e01b815260040160006040518083038186803b15801561330557600080fd5b505afa158015613319573d6000803e3d6000fd5b50505050613325612a8d565b73ffffffffffffffffffffffffffffffffffffffff16632528f0fe6004546040518263ffffffff1660e01b815260040161335f9190617bc3565b60206040518083038186803b15801561337757600080fd5b505afa15801561338b573d6000803e3d6000fd5b505050506040513d601f19601f820116820180604052506133af9190810190616cad565b156133ef576040517f08c379a00000000000000000000000000000000000000000000000000000000081526004016133e690617f78565b60405180910390fd5b60008111613432576040517f08c379a000000000000000000000000000000000000000000000000000000000815260040161342990618018565b60405180910390fd5b61343a6167f7565b600560009054906101000a900473ffffffffffffffffffffffffffffffffffffffff1673ffffffffffffffffffffffffffffffffffffffff1663a1c5158685856040518363ffffffff1660e01b8152600401613497929190617b5d565b6101206040518083038186803b1580156134b057600080fd5b505afa1580156134c4573d6000803e3d6000fd5b505050506040513d601f19601f820116820180604052506134e89190810190616da1565b90506134f3816153ef565b6134fc81615495565b9050613515828260400151612abd90919063ffffffff16565b8160400181815250504281610100018181525050600560009054906101000a900473ffffffffffffffffffffffffffffffffffffffff1673ffffffffffffffffffffffffffffffffffffffff166344dce41c826040518263ffffffff1660e01b815260040161358491906180b8565b600060405180830381600087803b15801561359e57600080fd5b505af11580156135b2573d6000803e3d6000fd5b505050508373ffffffffffffffffffffffffffffffffffffffff167f0b1992dffc262be88559dcaf96464e9d661d8bfca7e82f2bb73e31932a82187c8484846040015160405161360493929190618186565b60405180910390a250505050565b600061361c6153bf565b73ffffffffffffffffffffffffffffffffffffffff16637c3125416040518163ffffffff1660e01b815260040160006040518083038186803b15801561366157600080fd5b505afa158015613675573d6000803e3d6000fd5b50505050613681612a8d565b73ffffffffffffffffffffffffffffffffffffffff16632528f0fe6004546040518263ffffffff1660e01b81526004016136bb9190617bc3565b60206040518083038186803b1580156136d357600080fd5b505afa1580156136e7573d6000803e3d6000fd5b505050506040513d601f19601f8201168201806040525061370b9190810190616cad565b1561374b576040517f08c379a000000000000000000000000000000000000000000000000000000000815260040161374290617f78565b60405180910390fd5b6137536167f7565b600560009054906101000a900473ffffffffffffffffffffffffffffffffffffffff1673ffffffffffffffffffffffffffffffffffffffff1663a1c5158633866040518363ffffffff1660e01b81526004016137b0929190617ae2565b6101206040518083038186803b1580156137c957600080fd5b505afa1580156137dd573d6000803e3d6000fd5b505050506040513d601f19601f820116820180604052506138019190810190616da1565b905061380c816153ef565b61381581615495565b905061382e838260400151613a1290919063ffffffff16565b8160400181815250504281610100018181525050600a5461384e82611d0d565b1161388e576040517f08c379a000000000000000000000000000000000000000000000000000000000815260040161388590617d58565b60405180910390fd5b600560009054906101000a900473ffffffffffffffffffffffffffffffffffffffff1673ffffffffffffffffffffffffffffffffffffffff166344dce41c826040518263ffffffff1660e01b81526004016138e991906180b8565b600060405180830381600087803b15801561390357600080fd5b505af1158015613917573d6000803e3d6000fd5b505050508291503373ffffffffffffffffffffffffffffffffffffffff167ffae26280bca25d80f1501a9e363c73d3845e651c9aaae54f1fc09a9dcd5f33038585846040015160405161396c93929190618186565b60405180910390a25092915050565b6000613a0d600a5473__$b8d33eeb36ac0d1e81cd70156e0043e778$__63907af6c06040518163ffffffff1660e01b815260040160206040518083038186803b1580156139c757600080fd5b505af41580156139db573d6000803e3d6000fd5b505050506040513d601f19601f820116820180604052506139ff9190810190616df4565b6166ab90919063ffffffff16565b905090565b600082821115613a57576040517f08c379a0000000000000000000000000000000000000000000000000000000008152600401613a4e90617ed8565b60405180910390fd5b600082840390508091505092915050565b600080831415613a7b5760009050613ad2565b6000828402905082848281613a8c57fe5b0414613acd576040517f08c379a0000000000000000000000000000000000000000000000000000000008152600401613ac490617fd8565b60405180910390fd5b809150505b92915050565b60606001604051908082528060200260200182016040528015613b0a5781602001602082028038833980820191505090505b5090507f466c657869626c6553746f72616765000000000000000000000000000000000081600081518110613b3b57fe5b60200260200101818152505090565b60608151835101604051908082528060200260200182016040528015613b7f5781602001602082028038833980820191505090505b50905060008090505b8351811015613bca57838181518110613b9d57fe5b6020026020010151828281518110613bb157fe5b6020026020010181815250508080600101915050613b88565b5060008090505b8251811015613c1657828181518110613be657fe5b6020026020010151828286510181518110613bfd57fe5b6020026020010181815250508080600101915050613bd1565b5092915050565b613c256153bf565b73ffffffffffffffffffffffffffffffffffffffff16637c3125416040518163ffffffff1660e01b815260040160006040518083038186803b158015613c6a57600080fd5b505afa158015613c7e573d6000803e3d6000fd5b50505050613c8a612a8d565b73ffffffffffffffffffffffffffffffffffffffff16632528f0fe6004546040518263ffffffff1660e01b8152600401613cc49190617bc3565b60206040518083038186803b158015613cdc57600080fd5b505afa158015613cf0573d6000803e3d6000fd5b505050506040513d601f19601f82011682018060405250613d149190810190616cad565b15613d54576040517f08c379a0000000000000000000000000000000000000000000000000000000008152600401613d4b90617f78565b60405180910390fd5b60008111613d97576040517f08c379a0000000000000000000000000000000000000000000000000000000008152600401613d8e90617df8565b60405180910390fd5b613d9f6167f7565b600560009054906101000a900473ffffffffffffffffffffffffffffffffffffffff1673ffffffffffffffffffffffffffffffffffffffff1663a1c5158686856040518363ffffffff1660e01b8152600401613dfc929190617b5d565b6101206040518083038186803b158015613e1557600080fd5b505afa158015613e29573d6000803e3d6000fd5b505050506040513d601f19601f82011682018060405250613e4d9190810190616da1565b9050613e58816153ef565b613e6181615495565b9050613e7284826060015184615a37565b613e7c818361601c565b90504281610100018181525050613e916162e4565b73ffffffffffffffffffffffffffffffffffffffff1663d6f32e068583606001516040518363ffffffff1660e01b8152600401613ecf929190617b34565b60206040518083038186803b158015613ee757600080fd5b505afa158015613efb573d6000803e3d6000fd5b505050506040513d601f19601f82011682018060405250613f1f9190810190616cad565b15613f5f576040517f08c379a0000000000000000000000000000000000000000000000000000000008152600401613f5690618098565b60405180910390fd5b613f7f600860008360600151815260200190815260200160002054616314565b73ffffffffffffffffffffffffffffffffffffffff16639dc29fac85846040518363ffffffff1660e01b8152600401613fb9929190617b5d565b600060405180830381600087803b158015613fd357600080fd5b505af1158015613fe7573d6000803e3d6000fd5b50505050600560009054906101000a900473ffffffffffffffffffffffffffffffffffffffff1673ffffffffffffffffffffffffffffffffffffffff166344dce41c826040518263ffffffff1660e01b815260040161404691906180b8565b600060405180830381600087803b15801561406057600080fd5b505af1158015614074573d6000803e3d6000fd5b505050508373ffffffffffffffffffffffffffffffffffffffff168573ffffffffffffffffffffffffffffffffffffffff167fdf10512219e869922340b1b24b21d7d79bf71f411a6391cc7c3ef5dd2fe89e7f858585608001516040516140dd93929190618186565b60405180910390a35050505050565b6000808211614130576040517f08c379a000000000000000000000000000000000000000000000000000000000815260040161412790617ef8565b60405180910390fd5b600082848161413b57fe5b0490508091505092915050565b6141506153bf565b73ffffffffffffffffffffffffffffffffffffffff16637c3125416040518163ffffffff1660e01b815260040160006040518083038186803b15801561419557600080fd5b505afa1580156141a9573d6000803e3d6000fd5b505050506141b5612a8d565b73ffffffffffffffffffffffffffffffffffffffff16632528f0fe6004546040518263ffffffff1660e01b81526004016141ef9190617bc3565b60206040518083038186803b15801561420757600080fd5b505afa15801561421b573d6000803e3d6000fd5b505050506040513d601f19601f8201168201806040525061423f9190810190616cad565b1561427f576040517f08c379a000000000000000000000000000000000000000000000000000000000815260040161427690617f78565b60405180910390fd5b6142876167f7565b600560009054906101000a900473ffffffffffffffffffffffffffffffffffffffff1673ffffffffffffffffffffffffffffffffffffffff1663a1c5158633856040518363ffffffff1660e01b81526004016142e4929190617ae2565b6101206040518083038186803b1580156142fd57600080fd5b505afa158015614311573d6000803e3d6000fd5b505050506040513d601f19601f820116820180604052506143359190810190616da1565b9050614340816153ef565b61434981615495565b9050614362828260800151612abd90919063ffffffff16565b816080018181525050600a5461437782611d0d565b116143b7576040517f08c379a00000000000000000000000000000000000000000000000000000000081526004016143ae90617d78565b60405180910390fd5b60006143ce600c54846166c790919063ffffffff16565b905060006143e58285613a1290919063ffffffff16565b90508260a00151156146a9576143f961642b565b73ffffffffffffffffffffffffffffffffffffffff1663e31f27c18460600151866040518363ffffffff1660e01b8152600401614437929190617c60565b600060405180830381600087803b15801561445157600080fd5b505af1158015614465573d6000803e3d6000fd5b505050506144716166e3565b73ffffffffffffffffffffffffffffffffffffffff1663867904b433614495612a8d565b73ffffffffffffffffffffffffffffffffffffffff1663654a60ac8760600151867f70555344000000000000000000000000000000000000000000000000000000006040518463ffffffff1660e01b81526004016144f593929190617c89565b60206040518083038186803b15801561450d57600080fd5b505afa158015614521573d6000803e3d6000fd5b505050506040513d601f19601f820116820180604052506145459190810190616df4565b6040518363ffffffff1660e01b8152600401614562929190617ae2565b600060405180830381600087803b15801561457c57600080fd5b505af1158015614590573d6000803e3d6000fd5b50505050600073ffffffffffffffffffffffffffffffffffffffff16600960008560600151815260200190815260200160002060009054906101000a900473ffffffffffffffffffffffffffffffffffffffff1673ffffffffffffffffffffffffffffffffffffffff16146146a457600960008460600151815260200190815260200160002060009054906101000a900473ffffffffffffffffffffffffffffffffffffffff1673ffffffffffffffffffffffffffffffffffffffff1663db454a5133866040518363ffffffff1660e01b8152600401614671929190617ae2565b600060405180830381600087803b15801561468b57600080fd5b505af115801561469f573d6000803e3d6000fd5b505050505b6147ae565b6146b161642b565b73ffffffffffffffffffffffffffffffffffffffff1663eb94bbde8460600151866040518363ffffffff1660e01b81526004016146ef929190617c60565b600060405180830381600087803b15801561470957600080fd5b505af115801561471d573d6000803e3d6000fd5b50505050614741600860008560600151815260200190815260200160002054616314565b73ffffffffffffffffffffffffffffffffffffffff1663867904b433836040518363ffffffff1660e01b815260040161477b929190617ae2565b600060405180830381600087803b15801561479557600080fd5b505af11580156147a9573d6000803e3d6000fd5b505050505b6147bc828460600151616455565b4283610100018181525050600560009054906101000a900473ffffffffffffffffffffffffffffffffffffffff1673ffffffffffffffffffffffffffffffffffffffff166344dce41c846040518263ffffffff1660e01b815260040161482291906180b8565b600060405180830381600087803b15801561483c57600080fd5b505af1158015614850573d6000803e3d6000fd5b505050503373ffffffffffffffffffffffffffffffffffffffff167f5754fe57f36ac0f121901d7555aba517e6608590429d86a81c662cf358310654868660405161489c92919061815d565b60405180910390a25050505050565b60006148d9826148cb601260ff16600a0a86613a6890919063ffffffff16565b6140ec90919063ffffffff16565b905092915050565b60006148eb6153bf565b73ffffffffffffffffffffffffffffffffffffffff16637c3125416040518163ffffffff1660e01b815260040160006040518083038186803b15801561493057600080fd5b505afa158015614944573d6000803e3d6000fd5b50505050600f60009054906101000a900460ff16614997576040517f08c379a000000000000000000000000000000000000000000000000000000000815260040161498e90617f38565b60405180910390fd5b61499f612a8d565b73ffffffffffffffffffffffffffffffffffffffff16632528f0fe6004546040518263ffffffff1660e01b81526004016149d99190617bc3565b60206040518083038186803b1580156149f157600080fd5b505afa158015614a05573d6000803e3d6000fd5b505050506040513d601f19601f82011682018060405250614a299190810190616cad565b15614a69576040517f08c379a0000000000000000000000000000000000000000000000000000000008152600401614a6090617f78565b60405180910390fd5b6000801b600860008581526020019081526020016000205411614ac1576040517f08c379a0000000000000000000000000000000000000000000000000000000008152600401614ab890617ff8565b60405180910390fd5b614ac9612a8d565b73ffffffffffffffffffffffffffffffffffffffff16632528f0fe846040518263ffffffff1660e01b8152600401614b019190617bc3565b60206040518083038186803b158015614b1957600080fd5b505afa158015614b2d573d6000803e3d6000fd5b505050506040513d601f19601f82011682018060405250614b519190810190616cad565b15614b91576040517f08c379a0000000000000000000000000000000000000000000000000000000008152600401614b8890617e98565b60405180910390fd5b600b54851015614bd6576040517f08c379a0000000000000000000000000000000000000000000000000000000008152600401614bcd90617e78565b60405180910390fd5b600d54600560009054906101000a900473ffffffffffffffffffffffffffffffffffffffff1673ffffffffffffffffffffffffffffffffffffffff1663e0b6adbc336040518263ffffffff1660e01b8152600401614c349190617a3e565b60206040518083038186803b158015614c4c57600080fd5b505afa158015614c60573d6000803e3d6000fd5b505050506040513d601f19601f82011682018060405250614c849190810190616df4565b10614cc4576040517f08c379a0000000000000000000000000000000000000000000000000000000008152600401614cbb90617e38565b60405180910390fd5b600080614ccf61642b565b73ffffffffffffffffffffffffffffffffffffffff1663b4d6cb4087876040518363ffffffff1660e01b8152600401614d09929190618134565b604080518083038186803b158015614d2057600080fd5b505afa158015614d34573d6000803e3d6000fd5b505050506040513d601f19601f82011682018060405250614d589190810190616cd6565b91509150818015614d67575080155b614da6576040517f08c379a0000000000000000000000000000000000000000000000000000000008152600401614d9d90618038565b60405180910390fd5b614db08786611831565b861115614df2576040517f08c379a0000000000000000000000000000000000000000000000000000000008152600401614de990617f98565b60405180910390fd5b6000614e09600c54886166c790919063ffffffff16565b90506000614e208289613a1290919063ffffffff16565b9050614e2a61642b565b73ffffffffffffffffffffffffffffffffffffffff1663b3b467326040518163ffffffff1660e01b8152600401602060405180830381600087803b158015614e7157600080fd5b505af1158015614e85573d6000803e3d6000fd5b505050506040513d601f19601f82011682018060405250614ea99190810190616df4565b9450614eb36167f7565b6040518061012001604052808781526020013373ffffffffffffffffffffffffffffffffffffffff1681526020018b81526020018981526020018a815260200188151581526020016000815260200160008152602001428152509050614f1881615495565b9050600560009054906101000a900473ffffffffffffffffffffffffffffffffffffffff1673ffffffffffffffffffffffffffffffffffffffff16635c331204826040518263ffffffff1660e01b8152600401614f7591906180b8565b600060405180830381600087803b158015614f8f57600080fd5b505af1158015614fa3573d6000803e3d6000fd5b50505050614fb18389616455565b861561525f57614fbf6166e3565b73ffffffffffffffffffffffffffffffffffffffff1663867904b433614fe3612a8d565b73ffffffffffffffffffffffffffffffffffffffff1663654a60ac8c877f70555344000000000000000000000000000000000000000000000000000000006040518463ffffffff1660e01b815260040161503f93929190617c89565b60206040518083038186803b15801561505757600080fd5b505afa15801561506b573d6000803e3d6000fd5b505050506040513d601f19601f8201168201806040525061508f9190810190616df4565b6040518363ffffffff1660e01b81526004016150ac929190617ae2565b600060405180830381600087803b1580156150c657600080fd5b505af11580156150da573d6000803e3d6000fd5b505050506150e661642b565b73ffffffffffffffffffffffffffffffffffffffff1663e31f27c1898b6040518363ffffffff1660e01b8152600401615120929190617c60565b600060405180830381600087803b15801561513a57600080fd5b505af115801561514e573d6000803e3d6000fd5b50505050600073ffffffffffffffffffffffffffffffffffffffff16600960008a815260200190815260200160002060009054906101000a900473ffffffffffffffffffffffffffffffffffffffff1673ffffffffffffffffffffffffffffffffffffffff161461525a576009600089815260200190815260200160002060009054906101000a900473ffffffffffffffffffffffffffffffffffffffff1673ffffffffffffffffffffffffffffffffffffffff1663db454a51338b6040518363ffffffff1660e01b8152600401615227929190617ae2565b600060405180830381600087803b15801561524157600080fd5b505af1158015615255573d6000803e3d6000fd5b505050505b61535c565b61527b600860008a815260200190815260200160002054616314565b73ffffffffffffffffffffffffffffffffffffffff1663867904b433846040518363ffffffff1660e01b81526004016152b5929190617ae2565b600060405180830381600087803b1580156152cf57600080fd5b505af11580156152e3573d6000803e3d6000fd5b505050506152ef61642b565b73ffffffffffffffffffffffffffffffffffffffff1663eb94bbde898b6040518363ffffffff1660e01b8152600401615329929190617c60565b600060405180830381600087803b15801561534357600080fd5b505af1158015615357573d6000803e3d6000fd5b505050505b3373ffffffffffffffffffffffffffffffffffffffff167f604952b18be5fed608cbdd28101dc57bd667055c9678ec6d44fb1d8e4c7c172a878b8d8c886040516153aa9594939291906181bd565b60405180910390a25050505050949350505050565b60006153ea7f53797374656d5374617475730000000000000000000000000000000000000000616356565b905090565b60008160e0015111615436576040517f08c379a000000000000000000000000000000000000000000000000000000000815260040161542d90618058565b60405180910390fd5b42615451600e54836101000151612abd90919063ffffffff16565b1115615492576040517f08c379a000000000000000000000000000000000000000000000000000000000815260040161548990617dd8565b60405180910390fd5b50565b61549d6167f7565b8190506000806000808560a00151615548576154b761642b565b73ffffffffffffffffffffffffffffffffffffffff166303f048b08760e001516040518263ffffffff1660e01b81526004016154f391906180d4565b60806040518083038186803b15801561550b57600080fd5b505afa15801561551f573d6000803e3d6000fd5b505050506040513d601f19601f820116820180604052506155439190810190616f20565b6155e3565b61555061642b565b73ffffffffffffffffffffffffffffffffffffffff1663af07aa9d87606001518860e001516040518363ffffffff1660e01b8152600401615592929190617c60565b60806040518083038186803b1580156155aa57600080fd5b505afa1580156155be573d6000803e3d6000fd5b505050506040513d601f19601f820116820180604052506155e29190810190616f20565b5b93509350935093506000808760a00151615680576155ff61642b565b73ffffffffffffffffffffffffffffffffffffffff1663ba1c5e806040518163ffffffff1660e01b8152600401604080518083038186803b15801561564357600080fd5b505afa158015615657573d6000803e3d6000fd5b505050506040513d601f19601f8201168201806040525061567b9190810190616e1d565b615727565b61568861642b565b73ffffffffffffffffffffffffffffffffffffffff1663ee81f790600860008b606001518152602001908152602001600020546040518263ffffffff1660e01b81526004016156d79190617bc3565b604080518083038186803b1580156156ee57600080fd5b505afa158015615702573d6000803e3d6000fd5b505050506040513d601f19601f820116820180604052506157269190810190616e1d565b5b91509150801561576c576040517f08c379a000000000000000000000000000000000000000000000000000000000815260040161576390617f18565b60405180910390fd5b600061580e73__$b8d33eeb36ac0d1e81cd70156e0043e778$__63907af6c06040518163ffffffff1660e01b815260040160206040518083038186803b1580156157b557600080fd5b505af41580156157c9573d6000803e3d6000fd5b505050506040513d601f19601f820116820180604052506157ed9190810190616df4565b6158008742613a1290919063ffffffff16565b613a6890919063ffffffff16565b905060006158376158288386612b1290919063ffffffff16565b88612abd90919063ffffffff16565b90506000808b60e00151146158745761586f61585c8a84613a1290919063ffffffff16565b8c60800151612b1290919063ffffffff16565b615877565b60005b90508a60a001516158f95761588a61642b565b73ffffffffffffffffffffffffffffffffffffffff1663f53037b6836040518263ffffffff1660e01b81526004016158c291906180d4565b600060405180830381600087803b1580156158dc57600080fd5b505af11580156158f0573d6000803e3d6000fd5b50505050615972565b61590161642b565b73ffffffffffffffffffffffffffffffffffffffff1663246206398c60600151846040518363ffffffff1660e01b815260040161593f929190617c60565b600060405180830381600087803b15801561595957600080fd5b505af115801561596d573d6000803e3d6000fd5b505050505b615989818c60c00151612abd90919063ffffffff16565b8a60c0018181525050858a60e0018181525050600560009054906101000a900473ffffffffffffffffffffffffffffffffffffffff1673ffffffffffffffffffffffffffffffffffffffff166344dce41c8b6040518263ffffffff1660e01b81526004016159f791906180b8565b600060405180830381600087803b158015615a1157600080fd5b505af1158015615a25573d6000803e3d6000fd5b50505050505050505050505050919050565b80615a546008600085815260200190815260200160002054616314565b73ffffffffffffffffffffffffffffffffffffffff166370a08231856040518263ffffffff1660e01b8152600401615a8c9190617a23565b60206040518083038186803b158015615aa457600080fd5b505afa158015615ab8573d6000803e3d6000fd5b505050506040513d601f19601f82011682018060405250615adc9190810190616df4565b1015615b1d576040517f08c379a0000000000000000000000000000000000000000000000000000000008152600401615b1490618078565b60405180910390fd5b505050565b600080615b408360c001518460800151612abd90919063ffffffff16565b905060008360800151905083604001519250615b5a6162e4565b73ffffffffffffffffffffffffffffffffffffffff1663d6f32e068686606001516040518363ffffffff1660e01b8152600401615b98929190617b34565b60206040518083038186803b158015615bb057600080fd5b505afa158015615bc4573d6000803e3d6000fd5b505050506040513d601f19601f82011682018060405250615be89190810190616cad565b15615c28576040517f08c379a0000000000000000000000000000000000000000000000000000000008152600401615c1f90618098565b60405180910390fd5b615c48600860008660600151815260200190815260200160002054616314565b73ffffffffffffffffffffffffffffffffffffffff16639dc29fac86846040518363ffffffff1660e01b8152600401615c82929190617b5d565b600060405180830381600087803b158015615c9c57600080fd5b505af1158015615cb0573d6000803e3d6000fd5b505050508360a0015115615e5357615cc661642b565b73ffffffffffffffffffffffffffffffffffffffff16635246f2b9856060015186608001516040518363ffffffff1660e01b8152600401615d08929190617c60565b600060405180830381600087803b158015615d2257600080fd5b505af1158015615d36573d6000803e3d6000fd5b50505050600073ffffffffffffffffffffffffffffffffffffffff16600960008660600151815260200190815260200160002060009054906101000a900473ffffffffffffffffffffffffffffffffffffffff1673ffffffffffffffffffffffffffffffffffffffff1614615e4e57600960008560600151815260200190815260200160002060009054906101000a900473ffffffffffffffffffffffffffffffffffffffff1673ffffffffffffffffffffffffffffffffffffffff1663f3fef3a38786608001516040518363ffffffff1660e01b8152600401615e1b929190617b5d565b600060405180830381600087803b158015615e3557600080fd5b505af1158015615e49573d6000803e3d6000fd5b505050505b615ed0565b615e5b61642b565b73ffffffffffffffffffffffffffffffffffffffff1663e50a31b3856060015186608001516040518363ffffffff1660e01b8152600401615e9d929190617c60565b600060405180830381600087803b158015615eb757600080fd5b505af1158015615ecb573d6000803e3d6000fd5b505050505b615ee28460c001518560600151616455565b6000846080018181525050600084604001818152505060008460c001818152505060008460e00181815250504284610100018181525050600560009054906101000a900473ffffffffffffffffffffffffffffffffffffffff1673ffffffffffffffffffffffffffffffffffffffff166344dce41c856040518263ffffffff1660e01b8152600401615f7491906180b8565b600060405180830381600087803b158015615f8e57600080fd5b505af1158015615fa2573d6000803e3d6000fd5b505050508473ffffffffffffffffffffffffffffffffffffffff168673ffffffffffffffffffffffffffffffffffffffff167f697721ed1b9d4866cb1aaa0692f62bb3abc1b01c2dafeaad053ffd4532aa7dbb8660000151848760405161600b93929190618186565b60405180910390a350509392505050565b6160246167f7565b82905060008211801561603b575060008360c00151115b156160a05760008360c0015183116160535782616059565b8360c001515b9050616072818560c00151613a1290919063ffffffff16565b8260c001818152505061608e8184613a1290919063ffffffff16565b925061609e818560600151616455565b505b60008211156162de576160c0828460800151613a1290919063ffffffff16565b8160800181815250508060a0015115616264576160db61642b565b73ffffffffffffffffffffffffffffffffffffffff16635246f2b98260600151846040518363ffffffff1660e01b8152600401616119929190617c60565b600060405180830381600087803b15801561613357600080fd5b505af1158015616147573d6000803e3d6000fd5b50505050600073ffffffffffffffffffffffffffffffffffffffff16600960008360600151815260200190815260200160002060009054906101000a900473ffffffffffffffffffffffffffffffffffffffff1673ffffffffffffffffffffffffffffffffffffffff161461625f57600960008260600151815260200190815260200160002060009054906101000a900473ffffffffffffffffffffffffffffffffffffffff1673ffffffffffffffffffffffffffffffffffffffff1663f3fef3a38260200151846040518363ffffffff1660e01b815260040161622c929190617ae2565b600060405180830381600087803b15801561624657600080fd5b505af115801561625a573d6000803e3d6000fd5b505050505b6162dd565b61626c61642b565b73ffffffffffffffffffffffffffffffffffffffff1663e50a31b38260600151846040518363ffffffff1660e01b81526004016162aa929190617c60565b600060405180830381600087803b1580156162c457600080fd5b505af11580156162d8573d6000803e3d6000fd5b505050505b5b92915050565b600061630f7f45786368616e6765720000000000000000000000000000000000000000000000616356565b905090565b600061631f82616356565b9050919050565b60006163517f466c657869626c6553746f726167650000000000000000000000000000000000616356565b905090565b6000806003600084815260200190815260200160002060009054906101000a900473ffffffffffffffffffffffffffffffffffffffff169050600073ffffffffffffffffffffffffffffffffffffffff168173ffffffffffffffffffffffffffffffffffffffff161415836040516020016163d191906179d7565b60405160208183030381529060405290616421576040517f08c379a00000000000000000000000000000000000000000000000000000000081526004016164189190617cf6565b60405180910390fd5b5080915050919050565b6000600660009054906101000a900473ffffffffffffffffffffffffffffffffffffffff16905090565b60008211156166a7577f7055534400000000000000000000000000000000000000000000000000000000811461653c5761648d612a8d565b73ffffffffffffffffffffffffffffffffffffffff1663654a60ac82847f70555344000000000000000000000000000000000000000000000000000000006040518463ffffffff1660e01b81526004016164e993929190617c89565b60206040518083038186803b15801561650157600080fd5b505afa158015616515573d6000803e3d6000fd5b505050506040513d601f19601f820116820180604052506165399190810190616df4565b91505b6165446166e3565b73ffffffffffffffffffffffffffffffffffffffff1663867904b4616567616713565b73ffffffffffffffffffffffffffffffffffffffff1663eb1edd616040518163ffffffff1660e01b815260040160206040518083038186803b1580156165ac57600080fd5b505afa1580156165c0573d6000803e3d6000fd5b505050506040513d601f19601f820116820180604052506165e49190810190616b5b565b846040518363ffffffff1660e01b8152600401616602929190617b5d565b600060405180830381600087803b15801561661c57600080fd5b505af1158015616630573d6000803e3d6000fd5b5050505061663c616713565b73ffffffffffffffffffffffffffffffffffffffff166322bf55ef836040518263ffffffff1660e01b815260040161667491906180d4565b600060405180830381600087803b15801561668e57600080fd5b505af11580156166a2573d6000803e3d6000fd5b505050505b5050565b60006166bf8383601260ff16600a0a616743565b905092915050565b60006166db8383601260ff16600a0a61679e565b905092915050565b600061670e7f50796e7468705553440000000000000000000000000000000000000000000000616356565b905090565b600061673e7f466565506f6f6c00000000000000000000000000000000000000000000000000616356565b905090565b60008061676e84616760600a860288613a6890919063ffffffff16565b6140ec90919063ffffffff16565b90506005600a828161677c57fe5b061061678957600a810190505b600a818161679357fe5b049150509392505050565b600080600a83816167ab57fe5b046167bf8587613a6890919063ffffffff16565b816167c657fe5b0490506005600a82816167d557fe5b06106167e257600a810190505b600a81816167ec57fe5b049150509392505050565b60405180610120016040528060008152602001600073ffffffffffffffffffffffffffffffffffffffff1681526020016000815260200160008019168152602001600081526020016000151581526020016000815260200160008152602001600081525090565b60008135905061686d816183cd565b92915050565b600081519050616882816183cd565b92915050565b600081359050616897816183e4565b92915050565b6000815190506168ac816183e4565b92915050565b60008083601f8401126168c457600080fd5b8235905067ffffffffffffffff8111156168dd57600080fd5b6020830191508360208202830111156168f557600080fd5b9250929050565b60008135905061690b816183fb565b92915050565b600081519050616920816183fb565b92915050565b60008135905061693581618412565b92915050565b60008151905061694a81618412565b92915050565b6000610120828403121561696357600080fd5b61696e610120618210565b9050600061697e84828501616b08565b600083015250602061699284828501616888565b60208301525060406169a684828501616b08565b60408301525060606169ba84828501616926565b60608301525060806169ce84828501616b08565b60808301525060a06169e2848285016168fc565b60a08301525060c06169f684828501616b08565b60c08301525060e0616a0a84828501616b08565b60e083015250610100616a1f84828501616b08565b6101008301525092915050565b60006101208284031215616a3f57600080fd5b616a4a610120618210565b90506000616a5a84828501616b1d565b6000830152506020616a6e8482850161689d565b6020830152506040616a8284828501616b1d565b6040830152506060616a968482850161693b565b6060830152506080616aaa84828501616b1d565b60808301525060a0616abe84828501616911565b60a08301525060c0616ad284828501616b1d565b60c08301525060e0616ae684828501616b1d565b60e083015250610100616afb84828501616b1d565b6101008301525092915050565b600081359050616b1781618429565b92915050565b600081519050616b2c81618429565b92915050565b600060208284031215616b4457600080fd5b6000616b528482850161685e565b91505092915050565b600060208284031215616b6d57600080fd5b6000616b7b84828501616873565b91505092915050565b60008060408385031215616b9757600080fd5b6000616ba58582860161685e565b9250506020616bb685828601616926565b9150509250929050565b600080600060608486031215616bd557600080fd5b6000616be38682870161685e565b9350506020616bf486828701616b08565b9250506040616c0586828701616b08565b9150509250925092565b60008060008060408587031215616c2557600080fd5b600085013567ffffffffffffffff811115616c3f57600080fd5b616c4b878288016168b2565b9450945050602085013567ffffffffffffffff811115616c6a57600080fd5b616c76878288016168b2565b925092505092959194509250565b600060208284031215616c9657600080fd5b6000616ca4848285016168fc565b91505092915050565b600060208284031215616cbf57600080fd5b6000616ccd84828501616911565b91505092915050565b60008060408385031215616ce957600080fd5b6000616cf785828601616911565b9250506020616d0885828601616911565b9150509250929050565b600060208284031215616d2457600080fd5b6000616d3284828501616926565b91505092915050565b60008060408385031215616d4e57600080fd5b6000616d5c85828601616926565b9250506020616d6d85828601616b08565b9150509250929050565b60006101208284031215616d8a57600080fd5b6000616d9884828501616950565b91505092915050565b60006101208284031215616db457600080fd5b6000616dc284828501616a2c565b91505092915050565b600060208284031215616ddd57600080fd5b6000616deb84828501616b08565b91505092915050565b600060208284031215616e0657600080fd5b6000616e1484828501616b1d565b91505092915050565b60008060408385031215616e3057600080fd5b6000616e3e85828601616b1d565b9250506020616e4f85828601616911565b9150509250929050565b60008060408385031215616e6c57600080fd5b6000616e7a85828601616b08565b9250506020616e8b85828601616926565b9150509250929050565b60008060408385031215616ea857600080fd5b6000616eb685828601616b08565b9250506020616ec785828601616b08565b9150509250929050565b600080600060608486031215616ee657600080fd5b6000616ef486828701616b08565b9350506020616f0586828701616b08565b9250506040616f1686828701616926565b9150509250925092565b60008060008060808587031215616f3657600080fd5b6000616f4487828801616b1d565b9450506020616f5587828801616b1d565b9350506040616f6687828801616b1d565b9250506060616f7787828801616b1d565b91505092959194509250565b6000616f8f8383617044565b60208301905092915050565b616fa481618301565b82525050565b616fb3816182af565b82525050565b616fc28161829d565b82525050565b6000616fd38261824d565b616fdd8185618270565b9350616fe88361823d565b8060005b838110156170195781516170008882616f83565b975061700b83618263565b925050600181019050616fec565b5085935050505092915050565b61702f816182c1565b82525050565b61703e816182c1565b82525050565b61704d816182cd565b82525050565b61705c816182cd565b82525050565b61707361706e826182cd565b6183b2565b82525050565b61708281618313565b82525050565b61709181618337565b82525050565b60006170a282618258565b6170ac8185618281565b93506170bc81856020860161837f565b6170c5816183bc565b840191505092915050565b60006170dd601b83618281565b91507f496e707574206172726179206c656e677468206d69736d6174636800000000006000830152602082019050919050565b600061711d601683618281565b91507f4d7573742062652067726561746572207468616e2031000000000000000000006000830152602082019050919050565b600061715d600e83618281565b91507f43726174696f20746f6f206c6f770000000000000000000000000000000000006000830152602082019050919050565b600061719d601583618281565b91507f43616e6e6f7420647261772074686973206d75636800000000000000000000006000830152602082019050919050565b60006171dd603583618281565b91507f596f75206d757374206265206e6f6d696e61746564206265666f726520796f7560008301527f2063616e20616363657074206f776e65727368697000000000000000000000006020830152604082019050919050565b6000617243601983618281565b91507f416c6c6f77616e6365206e6f74206869676820656e6f756768000000000000006000830152602082019050919050565b6000617283601d83618281565b91507f4c6f616e20726563656e746c7920696e746572616374656420776974680000006000830152602082019050919050565b60006172c3601e83618281565b91507f5061796d656e74206d7573742062652067726561746572207468616e203000006000830152602082019050919050565b6000617303601b83618281565b91507f536166654d6174683a206164646974696f6e206f766572666c6f7700000000006000830152602082019050919050565b6000617343601283618281565b91507f4d6178206c6f616e7320657863656564656400000000000000000000000000006000830152602082019050919050565b6000617383601e83618281565b91507f43726174696f2061626f7665206c69717569646174696f6e20726174696f00006000830152602082019050919050565b60006173c3601d83618281565b91507f4e6f7420656e6f75676820636f6c6c61746572616c20746f206f70656e0000006000830152602082019050919050565b6000617403601883618281565b91507f43757272656e6379207261746520697320696e76616c696400000000000000006000830152602082019050919050565b6000617443602083618281565b91507f57616974696e672073656373206f7220736574746c656d656e74206f77696e676000830152602082019050919050565b6000617483601e83618281565b91507f536166654d6174683a207375627472616374696f6e206f766572666c6f7700006000830152602082019050919050565b60006174c3601a83618281565b91507f536166654d6174683a206469766973696f6e206279207a65726f0000000000006000830152602082019050919050565b6000617503601183618292565b91507f4d697373696e6720616464726573733a200000000000000000000000000000006000830152601182019050919050565b6000617543601183618281565b91507f52617465732061726520696e76616c69640000000000000000000000000000006000830152602082019050919050565b6000617583601383618281565b91507f4f70656e696e672069732064697361626c6564000000000000000000000000006000830152602082019050919050565b60006175c3600a83618281565b91507f4d6178203120686f7572000000000000000000000000000000000000000000006000830152602082019050919050565b6000617603601a83618281565b91507f436f6c6c61746572616c207261746520697320696e76616c69640000000000006000830152602082019050919050565b6000617643601b83618281565b91507f45786365656473206d617820626f72726f77696e6720706f77657200000000006000830152602082019050919050565b6000617683602f83618281565b91507f4f6e6c792074686520636f6e7472616374206f776e6572206d6179207065726660008301527f6f726d207468697320616374696f6e00000000000000000000000000000000006020830152604082019050919050565b60006176e9602183618281565b91507f536166654d6174683a206d756c7469706c69636174696f6e206f766572666c6f60008301527f77000000000000000000000000000000000000000000000000000000000000006020830152604082019050919050565b600061774f601f83618281565b91507f4e6f7420616c6c6f77656420746f20697373756520746869732070796e7468006000830152602082019050919050565b600061778f601e83618281565b91507f4465706f736974206d7573742062652067726561746572207468616e203000006000830152602082019050919050565b60006177cf601a83618281565b91507f44656274206c696d6974206f7220696e76616c696420726174650000000000006000830152602082019050919050565b600061780f601983618292565b91507f5265736f6c766572206d697373696e67207461726765743a20000000000000006000830152601982019050919050565b600061784f601383618281565b91507f4c6f616e20646f6573206e6f74206578697374000000000000000000000000006000830152602082019050919050565b600061788f601883618281565b91507f4e6f7420656e6f7567682070796e74682062616c616e636500000000000000006000830152602082019050919050565b60006178cf601b83618281565b91507f57616974696e67206f7220736574746c656d656e74206f77696e6700000000006000830152602082019050919050565b6101208201600082015161791960008501826179b9565b50602082015161792c6020850182616faa565b50604082015161793f60408501826179b9565b5060608201516179526060850182617044565b50608082015161796560808501826179b9565b5060a082015161797860a0850182617026565b5060c082015161798b60c08501826179b9565b5060e082015161799e60e08501826179b9565b506101008201516179b36101008501826179b9565b50505050565b6179c2816182f7565b82525050565b6179d1816182f7565b82525050565b60006179e2826174f6565b91506179ee8284617062565b60208201915081905092915050565b6000617a0882617802565b9150617a148284617062565b60208201915081905092915050565b6000602082019050617a386000830184616fb9565b92915050565b6000602082019050617a536000830184616f9b565b92915050565b6000604082019050617a6e6000830185616f9b565b617a7b6020830184616fb9565b9392505050565b6000606082019050617a976000830186616f9b565b617aa46020830185616fb9565b617ab160408301846179c8565b949350505050565b6000604082019050617ace6000830185616f9b565b617adb6020830184617053565b9392505050565b6000604082019050617af76000830185616f9b565b617b0460208301846179c8565b9392505050565b6000604082019050617b206000830185616fb9565b617b2d6020830184616fb9565b9392505050565b6000604082019050617b496000830185616fb9565b617b566020830184617053565b9392505050565b6000604082019050617b726000830185616fb9565b617b7f60208301846179c8565b9392505050565b60006020820190508181036000830152617ba08184616fc8565b905092915050565b6000602082019050617bbd6000830184617035565b92915050565b6000602082019050617bd86000830184617053565b92915050565b6000604082019050617bf36000830185617053565b617c006020830184616fb9565b9392505050565b6000604082019050617c1c6000830185617053565b617c296020830184617053565b9392505050565b6000604082019050617c456000830185617053565b8181036020830152617c578184617097565b90509392505050565b6000604082019050617c756000830185617053565b617c8260208301846179c8565b9392505050565b6000606082019050617c9e6000830186617053565b617cab60208301856179c8565b617cb86040830184617053565b949350505050565b6000602082019050617cd56000830184617079565b92915050565b6000602082019050617cf06000830184617088565b92915050565b60006020820190508181036000830152617d108184617097565b905092915050565b60006020820190508181036000830152617d31816170d0565b9050919050565b60006020820190508181036000830152617d5181617110565b9050919050565b60006020820190508181036000830152617d7181617150565b9050919050565b60006020820190508181036000830152617d9181617190565b9050919050565b60006020820190508181036000830152617db1816171d0565b9050919050565b60006020820190508181036000830152617dd181617236565b9050919050565b60006020820190508181036000830152617df181617276565b9050919050565b60006020820190508181036000830152617e11816172b6565b9050919050565b60006020820190508181036000830152617e31816172f6565b9050919050565b60006020820190508181036000830152617e5181617336565b9050919050565b60006020820190508181036000830152617e7181617376565b9050919050565b60006020820190508181036000830152617e91816173b6565b9050919050565b60006020820190508181036000830152617eb1816173f6565b9050919050565b60006020820190508181036000830152617ed181617436565b9050919050565b60006020820190508181036000830152617ef181617476565b9050919050565b60006020820190508181036000830152617f11816174b6565b9050919050565b60006020820190508181036000830152617f3181617536565b9050919050565b60006020820190508181036000830152617f5181617576565b9050919050565b60006020820190508181036000830152617f71816175b6565b9050919050565b60006020820190508181036000830152617f91816175f6565b9050919050565b60006020820190508181036000830152617fb181617636565b9050919050565b60006020820190508181036000830152617fd181617676565b9050919050565b60006020820190508181036000830152617ff1816176dc565b9050919050565b6000602082019050818103600083015261801181617742565b9050919050565b6000602082019050818103600083015261803181617782565b9050919050565b60006020820190508181036000830152618051816177c2565b9050919050565b6000602082019050818103600083015261807181617842565b9050919050565b6000602082019050818103600083015261809181617882565b9050919050565b600060208201905081810360008301526180b1816178c2565b9050919050565b6000610120820190506180ce6000830184617902565b92915050565b60006020820190506180e960008301846179c8565b92915050565b600060808201905061810460008301876179c8565b6181116020830186616f9b565b61811e60408301856179c8565b61812b60608301846179c8565b95945050505050565b600060408201905061814960008301856179c8565b6181566020830184617053565b9392505050565b600060408201905061817260008301856179c8565b61817f60208301846179c8565b9392505050565b600060608201905061819b60008301866179c8565b6181a860208301856179c8565b6181b560408301846179c8565b949350505050565b600060a0820190506181d260008301886179c8565b6181df60208301876179c8565b6181ec60408301866179c8565b6181f96060830185617053565b61820660808301846179c8565b9695505050505050565b6000604051905081810181811067ffffffffffffffff8211171561823357600080fd5b8060405250919050565b6000819050602082019050919050565b600081519050919050565b600081519050919050565b6000602082019050919050565b600082825260208201905092915050565b600082825260208201905092915050565b600081905092915050565b60006182a8826182d7565b9050919050565b60006182ba826182d7565b9050919050565b60008115159050919050565b6000819050919050565b600073ffffffffffffffffffffffffffffffffffffffff82169050919050565b6000819050919050565b600061830c8261835b565b9050919050565b600061831e82618325565b9050919050565b6000618330826182d7565b9050919050565b600061834282618349565b9050919050565b6000618354826182d7565b9050919050565b60006183668261836d565b9050919050565b6000618378826182d7565b9050919050565b60005b8381101561839d578082015181840152602081019050618382565b838111156183ac576000848401525b50505050565b6000819050919050565b6000601f19601f8301169050919050565b6183d68161829d565b81146183e157600080fd5b50565b6183ed816182af565b81146183f857600080fd5b50565b618404816182c1565b811461840f57600080fd5b50565b61841b816182cd565b811461842657600080fd5b50565b618432816182f7565b811461843d57600080fd5b5056fea365627a7a723158205ecd350a780b03537c6fefdc3e2907dd0dd643ea47a57ddbb15c63a8bde997cf6c6578706572696d656e74616cf564736f6c63430005100040",
  "linkReferences": {
    "contracts/SafeDecimalMath.sol": {
      "SafeDecimalMath": [
        {
          "length": 20,
          "start": 3877
        },
        {
          "length": 20,
          "start": 4255
        },
        {
          "length": 20,
          "start": 6151
        },
        {
          "length": 20,
          "start": 9774
        },
        {
          "length": 20,
          "start": 16157
        },
        {
          "length": 20,
          "start": 23819
        }
      ]
    }
  },
  "deployedLinkReferences": {
    "contracts/SafeDecimalMath.sol": {
      "SafeDecimalMath": [
        {
          "length": 20,
          "start": 2445
        },
        {
          "length": 20,
          "start": 2823
        },
        {
          "length": 20,
          "start": 4719
        },
        {
          "length": 20,
          "start": 8342
        },
        {
          "length": 20,
          "start": 14725
        },
        {
          "length": 20,
          "start": 22387
        }
      ]
    }
  }
}