{
  "_format": "hh-sol-artifact-1",
  "contractName": "CollateralShort",
  "sourceName": "contracts/CollateralShort.sol",
  "abi": [
    {
      "inputs": [
        {
          "internalType": "contract CollateralState",
          "name": "_state",
          "type": "address"
        },
        {
          "internalType": "address",
          "name": "_owner",
          "type": "address"
        },
        {
          "internalType": "address",
          "name": "_manager",
          "type": "address"
        },
        {
          "internalType": "address",
          "name": "_resolver",
          "type": "address"
        },
        {
          "internalType": "bytes32",
          "name": "_collateralKey",
          "type": "bytes32"
        },
        {
          "internalType": "uint256",
          "name": "_minCratio",
          "type": "uint256"
        },
        {
          "internalType": "uint256",
          "name": "_minCollateral",
          "type": "uint256"
        }
      ],
      "payable": false,
      "stateMutability": "nonpayable",
      "type": "constructor"
    },
    {
      "anonymous": false,
      "inputs": [
        {
          "indexed": false,
          "internalType": "bytes32",
          "name": "name",
          "type": "bytes32"
        },
        {
          "indexed": false,
          "internalType": "address",
          "name": "destination",
          "type": "address"
        }
      ],
      "name": "CacheUpdated",
      "type": "event"
    },
    {
      "anonymous": false,
      "inputs": [
        {
          "indexed": false,
          "internalType": "bool",
          "name": "canOpenLoans",
          "type": "bool"
        }
      ],
      "name": "CanOpenLoansUpdated",
      "type": "event"
    },
    {
      "anonymous": false,
      "inputs": [
        {
          "indexed": true,
          "internalType": "address",
          "name": "account",
          "type": "address"
        },
        {
          "indexed": false,
          "internalType": "uint256",
          "name": "id",
          "type": "uint256"
        },
        {
          "indexed": false,
          "internalType": "uint256",
          "name": "amountDeposited",
          "type": "uint256"
        },
        {
          "indexed": false,
          "internalType": "uint256",
          "name": "collateralAfter",
          "type": "uint256"
        }
      ],
      "name": "CollateralDeposited",
      "type": "event"
    },
    {
      "anonymous": false,
      "inputs": [
        {
          "indexed": true,
          "internalType": "address",
          "name": "account",
          "type": "address"
        },
        {
          "indexed": false,
          "internalType": "uint256",
          "name": "id",
          "type": "uint256"
        },
        {
          "indexed": false,
          "internalType": "uint256",
          "name": "amountWithdrawn",
          "type": "uint256"
        },
        {
          "indexed": false,
          "internalType": "uint256",
          "name": "collateralAfter",
          "type": "uint256"
        }
      ],
      "name": "CollateralWithdrawn",
      "type": "event"
    },
    {
      "anonymous": false,
      "inputs": [
        {
          "indexed": false,
          "internalType": "uint256",
          "name": "interactionDelay",
          "type": "uint256"
        }
      ],
      "name": "InteractionDelayUpdated",
      "type": "event"
    },
    {
      "anonymous": false,
      "inputs": [
        {
          "indexed": false,
          "internalType": "uint256",
          "name": "issueFeeRate",
          "type": "uint256"
        }
      ],
      "name": "IssueFeeRateUpdated",
      "type": "event"
    },
    {
      "anonymous": false,
      "inputs": [
        {
          "indexed": true,
          "internalType": "address",
          "name": "account",
          "type": "address"
        },
        {
          "indexed": false,
          "internalType": "uint256",
          "name": "id",
          "type": "uint256"
        }
      ],
      "name": "LoanClosed",
      "type": "event"
    },
    {
      "anonymous": false,
      "inputs": [
        {
          "indexed": true,
          "internalType": "address",
          "name": "account",
          "type": "address"
        },
        {
          "indexed": false,
          "internalType": "uint256",
          "name": "id",
          "type": "uint256"
        },
        {
          "indexed": true,
          "internalType": "address",
          "name": "liquidator",
          "type": "address"
        },
        {
          "indexed": false,
          "internalType": "uint256",
          "name": "amountLiquidated",
          "type": "uint256"
        },
        {
          "indexed": false,
          "internalType": "uint256",
          "name": "collateralLiquidated",
          "type": "uint256"
        }
      ],
      "name": "LoanClosedByLiquidation",
      "type": "event"
    },
    {
      "anonymous": false,
      "inputs": [
        {
          "indexed": true,
          "internalType": "address",
          "name": "account",
          "type": "address"
        },
        {
          "indexed": false,
          "internalType": "uint256",
          "name": "id",
          "type": "uint256"
        },
        {
          "indexed": false,
          "internalType": "uint256",
          "name": "amount",
          "type": "uint256"
        },
        {
          "indexed": false,
          "internalType": "uint256",
          "name": "collateral",
          "type": "uint256"
        },
        {
          "indexed": false,
          "internalType": "bytes32",
          "name": "currency",
          "type": "bytes32"
        },
        {
          "indexed": false,
          "internalType": "uint256",
          "name": "issuanceFee",
          "type": "uint256"
        }
      ],
      "name": "LoanCreated",
      "type": "event"
    },
    {
      "anonymous": false,
      "inputs": [
        {
          "indexed": true,
          "internalType": "address",
          "name": "account",
          "type": "address"
        },
        {
          "indexed": false,
          "internalType": "uint256",
          "name": "id",
          "type": "uint256"
        },
        {
          "indexed": false,
          "internalType": "uint256",
          "name": "amount",
          "type": "uint256"
        }
      ],
      "name": "LoanDrawnDown",
      "type": "event"
    },
    {
      "anonymous": false,
      "inputs": [
        {
          "indexed": true,
          "internalType": "address",
          "name": "account",
          "type": "address"
        },
        {
          "indexed": false,
          "internalType": "uint256",
          "name": "id",
          "type": "uint256"
        },
        {
          "indexed": false,
          "internalType": "address",
          "name": "liquidator",
          "type": "address"
        },
        {
          "indexed": false,
          "internalType": "uint256",
          "name": "amountLiquidated",
          "type": "uint256"
        },
        {
          "indexed": false,
          "internalType": "uint256",
          "name": "collateralLiquidated",
          "type": "uint256"
        }
      ],
      "name": "LoanPartiallyLiquidated",
      "type": "event"
    },
    {
      "anonymous": false,
      "inputs": [
        {
          "indexed": true,
          "internalType": "address",
          "name": "account",
          "type": "address"
        },
        {
          "indexed": true,
          "internalType": "address",
          "name": "repayer",
          "type": "address"
        },
        {
          "indexed": false,
          "internalType": "uint256",
          "name": "id",
          "type": "uint256"
        },
        {
          "indexed": false,
          "internalType": "uint256",
          "name": "amountRepaid",
          "type": "uint256"
        },
        {
          "indexed": false,
          "internalType": "uint256",
          "name": "amountAfter",
          "type": "uint256"
        }
      ],
      "name": "LoanRepaymentMade",
      "type": "event"
    },
    {
      "anonymous": false,
      "inputs": [
        {
          "indexed": false,
          "internalType": "address",
          "name": "manager",
          "type": "address"
        }
      ],
      "name": "ManagerUpdated",
      "type": "event"
    },
    {
      "anonymous": false,
      "inputs": [
        {
          "indexed": false,
          "internalType": "uint256",
          "name": "maxLoansPerAccount",
          "type": "uint256"
        }
      ],
      "name": "MaxLoansPerAccountUpdated",
      "type": "event"
    },
    {
      "anonymous": false,
      "inputs": [
        {
          "indexed": false,
          "internalType": "uint256",
          "name": "minCollateral",
          "type": "uint256"
        }
      ],
      "name": "MinCollateralUpdated",
      "type": "event"
    },
    {
      "anonymous": false,
      "inputs": [
        {
          "indexed": false,
          "internalType": "uint256",
          "name": "minCratio",
          "type": "uint256"
        }
      ],
      "name": "MinCratioRatioUpdated",
      "type": "event"
    },
    {
      "anonymous": false,
      "inputs": [
        {
          "indexed": false,
          "internalType": "address",
          "name": "oldOwner",
          "type": "address"
        },
        {
          "indexed": false,
          "internalType": "address",
          "name": "newOwner",
          "type": "address"
        }
      ],
      "name": "OwnerChanged",
      "type": "event"
    },
    {
      "anonymous": false,
      "inputs": [
        {
          "indexed": false,
          "internalType": "address",
          "name": "newOwner",
          "type": "address"
        }
      ],
      "name": "OwnerNominated",
      "type": "event"
    },
    {
      "constant": false,
      "inputs": [],
      "name": "acceptOwnership",
      "outputs": [],
      "payable": false,
      "stateMutability": "nonpayable",
      "type": "function"
    },
    {
      "constant": false,
      "inputs": [
        {
          "internalType": "bytes32[]",
          "name": "_pynthNamesInResolver",
          "type": "bytes32[]"
        },
        {
          "internalType": "bytes32[]",
          "name": "_pynthKeys",
          "type": "bytes32[]"
        }
      ],
      "name": "addPynths",
      "outputs": [],
      "payable": false,
      "stateMutability": "nonpayable",
      "type": "function"
    },
    {
      "constant": false,
      "inputs": [
        {
          "internalType": "address",
          "name": "rewardsContract",
          "type": "address"
        },
        {
          "internalType": "bytes32",
          "name": "pynth",
          "type": "bytes32"
        }
      ],
      "name": "addRewardsContracts",
      "outputs": [],
      "payable": false,
      "stateMutability": "nonpayable",
      "type": "function"
    },
    {
      "constant": true,
      "inputs": [
        {
          "internalType": "bytes32[]",
          "name": "_pynthNamesInResolver",
          "type": "bytes32[]"
        },
        {
          "internalType": "bytes32[]",
          "name": "_pynthKeys",
          "type": "bytes32[]"
        }
      ],
      "name": "arePynthsAndCurrenciesSet",
      "outputs": [
        {
          "internalType": "bool",
          "name": "",
          "type": "bool"
        }
      ],
      "payable": false,
      "stateMutability": "view",
      "type": "function"
    },
    {
      "constant": true,
      "inputs": [],
      "name": "canOpenLoans",
      "outputs": [
        {
          "internalType": "bool",
          "name": "",
          "type": "bool"
        }
      ],
      "payable": false,
      "stateMutability": "view",
      "type": "function"
    },
    {
      "constant": false,
      "inputs": [
        {
          "internalType": "uint256",
          "name": "id",
          "type": "uint256"
        }
      ],
      "name": "close",
      "outputs": [],
      "payable": false,
      "stateMutability": "nonpayable",
      "type": "function"
    },
    {
      "constant": true,
      "inputs": [],
      "name": "collateralKey",
      "outputs": [
        {
          "internalType": "bytes32",
          "name": "",
          "type": "bytes32"
        }
      ],
      "payable": false,
      "stateMutability": "view",
      "type": "function"
    },
    {
      "constant": true,
      "inputs": [
        {
          "components": [
            {
              "internalType": "uint256",
              "name": "id",
              "type": "uint256"
            },
            {
              "internalType": "address payable",
              "name": "account",
              "type": "address"
            },
            {
              "internalType": "uint256",
              "name": "collateral",
              "type": "uint256"
            },
            {
              "internalType": "bytes32",
              "name": "currency",
              "type": "bytes32"
            },
            {
              "internalType": "uint256",
              "name": "amount",
              "type": "uint256"
            },
            {
              "internalType": "bool",
              "name": "short",
              "type": "bool"
            },
            {
              "internalType": "uint256",
              "name": "accruedInterest",
              "type": "uint256"
            },
            {
              "internalType": "uint256",
              "name": "interestIndex",
              "type": "uint256"
            },
            {
              "internalType": "uint256",
              "name": "lastInteraction",
              "type": "uint256"
            }
          ],
          "internalType": "struct ICollateralLoan.Loan",
          "name": "loan",
          "type": "tuple"
        }
      ],
      "name": "collateralRatio",
      "outputs": [
        {
          "internalType": "uint256",
          "name": "cratio",
          "type": "uint256"
        }
      ],
      "payable": false,
      "stateMutability": "view",
      "type": "function"
    },
    {
      "constant": true,
      "inputs": [
        {
          "internalType": "bytes32",
          "name": "currency",
          "type": "bytes32"
        },
        {
          "internalType": "uint256",
          "name": "amount",
          "type": "uint256"
        }
      ],
      "name": "collateralRedeemed",
      "outputs": [
        {
          "internalType": "uint256",
          "name": "collateral",
          "type": "uint256"
        }
      ],
      "payable": false,
      "stateMutability": "view",
      "type": "function"
    },
    {
      "constant": false,
      "inputs": [
        {
          "internalType": "address",
          "name": "borrower",
          "type": "address"
        },
        {
          "internalType": "uint256",
          "name": "id",
          "type": "uint256"
        },
        {
          "internalType": "uint256",
          "name": "amount",
          "type": "uint256"
        }
      ],
      "name": "deposit",
      "outputs": [],
      "payable": false,
      "stateMutability": "nonpayable",
      "type": "function"
    },
    {
      "constant": false,
      "inputs": [
        {
          "internalType": "uint256",
          "name": "id",
          "type": "uint256"
        },
        {
          "internalType": "uint256",
          "name": "amount",
          "type": "uint256"
        }
      ],
      "name": "draw",
      "outputs": [],
      "payable": false,
      "stateMutability": "nonpayable",
      "type": "function"
    },
    {
      "constant": false,
      "inputs": [
        {
          "internalType": "bytes32",
          "name": "currency",
          "type": "bytes32"
        },
        {
          "internalType": "address",
          "name": "account",
          "type": "address"
        }
      ],
      "name": "getReward",
      "outputs": [],
      "payable": false,
      "stateMutability": "nonpayable",
      "type": "function"
    },
    {
      "constant": true,
      "inputs": [],
      "name": "interactionDelay",
      "outputs": [
        {
          "internalType": "uint256",
          "name": "",
          "type": "uint256"
        }
      ],
      "payable": false,
      "stateMutability": "view",
      "type": "function"
    },
    {
      "constant": true,
      "inputs": [],
      "name": "isResolverCached",
      "outputs": [
        {
          "internalType": "bool",
          "name": "",
          "type": "bool"
        }
      ],
      "payable": false,
      "stateMutability": "view",
      "type": "function"
    },
    {
      "constant": true,
      "inputs": [],
      "name": "issueFeeRate",
      "outputs": [
        {
          "internalType": "uint256",
          "name": "",
          "type": "uint256"
        }
      ],
      "payable": false,
      "stateMutability": "view",
      "type": "function"
    },
    {
      "constant": false,
      "inputs": [
        {
          "internalType": "address",
          "name": "borrower",
          "type": "address"
        },
        {
          "internalType": "uint256",
          "name": "id",
          "type": "uint256"
        },
        {
          "internalType": "uint256",
          "name": "amount",
          "type": "uint256"
        }
      ],
      "name": "liquidate",
      "outputs": [],
      "payable": false,
      "stateMutability": "nonpayable",
      "type": "function"
    },
    {
      "constant": true,
      "inputs": [
        {
          "components": [
            {
              "internalType": "uint256",
              "name": "id",
              "type": "uint256"
            },
            {
              "internalType": "address payable",
              "name": "account",
              "type": "address"
            },
            {
              "internalType": "uint256",
              "name": "collateral",
              "type": "uint256"
            },
            {
              "internalType": "bytes32",
              "name": "currency",
              "type": "bytes32"
            },
            {
              "internalType": "uint256",
              "name": "amount",
              "type": "uint256"
            },
            {
              "internalType": "bool",
              "name": "short",
              "type": "bool"
            },
            {
              "internalType": "uint256",
              "name": "accruedInterest",
              "type": "uint256"
            },
            {
              "internalType": "uint256",
              "name": "interestIndex",
              "type": "uint256"
            },
            {
              "internalType": "uint256",
              "name": "lastInteraction",
              "type": "uint256"
            }
          ],
          "internalType": "struct ICollateralLoan.Loan",
          "name": "loan",
          "type": "tuple"
        }
      ],
      "name": "liquidationAmount",
      "outputs": [
        {
          "internalType": "uint256",
          "name": "amount",
          "type": "uint256"
        }
      ],
      "payable": false,
      "stateMutability": "view",
      "type": "function"
    },
    {
      "constant": true,
      "inputs": [],
      "name": "manager",
      "outputs": [
        {
          "internalType": "address",
          "name": "",
          "type": "address"
        }
      ],
      "payable": false,
      "stateMutability": "view",
      "type": "function"
    },
    {
      "constant": true,
      "inputs": [
        {
          "internalType": "uint256",
          "name": "amount",
          "type": "uint256"
        },
        {
          "internalType": "bytes32",
          "name": "currency",
          "type": "bytes32"
        }
      ],
      "name": "maxLoan",
      "outputs": [
        {
          "internalType": "uint256",
          "name": "max",
          "type": "uint256"
        }
      ],
      "payable": false,
      "stateMutability": "view",
      "type": "function"
    },
    {
      "constant": true,
      "inputs": [],
      "name": "maxLoansPerAccount",
      "outputs": [
        {
          "internalType": "uint256",
          "name": "",
          "type": "uint256"
        }
      ],
      "payable": false,
      "stateMutability": "view",
      "type": "function"
    },
    {
      "constant": true,
      "inputs": [],
      "name": "minCollateral",
      "outputs": [
        {
          "internalType": "uint256",
          "name": "",
          "type": "uint256"
        }
      ],
      "payable": false,
      "stateMutability": "view",
      "type": "function"
    },
    {
      "constant": true,
      "inputs": [],
      "name": "minCratio",
      "outputs": [
        {
          "internalType": "uint256",
          "name": "",
          "type": "uint256"
        }
      ],
      "payable": false,
      "stateMutability": "view",
      "type": "function"
    },
    {
      "constant": false,
      "inputs": [
        {
          "internalType": "address",
          "name": "_owner",
          "type": "address"
        }
      ],
      "name": "nominateNewOwner",
      "outputs": [],
      "payable": false,
      "stateMutability": "nonpayable",
      "type": "function"
    },
    {
      "constant": true,
      "inputs": [],
      "name": "nominatedOwner",
      "outputs": [
        {
          "internalType": "address",
          "name": "",
          "type": "address"
        }
      ],
      "payable": false,
      "stateMutability": "view",
      "type": "function"
    },
    {
      "constant": false,
      "inputs": [
        {
          "internalType": "uint256",
          "name": "collateral",
          "type": "uint256"
        },
        {
          "internalType": "uint256",
          "name": "amount",
          "type": "uint256"
        },
        {
          "internalType": "bytes32",
          "name": "currency",
          "type": "bytes32"
        }
      ],
      "name": "open",
      "outputs": [],
      "payable": false,
      "stateMutability": "nonpayable",
      "type": "function"
    },
    {
      "constant": true,
      "inputs": [],
      "name": "owner",
      "outputs": [
        {
          "internalType": "address",
          "name": "",
          "type": "address"
        }
      ],
      "payable": false,
      "stateMutability": "view",
      "type": "function"
    },
    {
      "constant": true,
      "inputs": [
        {
          "internalType": "uint256",
          "name": "",
          "type": "uint256"
        }
      ],
      "name": "pynths",
      "outputs": [
        {
          "internalType": "bytes32",
          "name": "",
          "type": "bytes32"
        }
      ],
      "payable": false,
      "stateMutability": "view",
      "type": "function"
    },
    {
      "constant": true,
      "inputs": [
        {
          "internalType": "bytes32",
          "name": "",
          "type": "bytes32"
        }
      ],
      "name": "pynthsByKey",
      "outputs": [
        {
          "internalType": "bytes32",
          "name": "",
          "type": "bytes32"
        }
      ],
      "payable": false,
      "stateMutability": "view",
      "type": "function"
    },
    {
      "constant": false,
      "inputs": [],
      "name": "rebuildCache",
      "outputs": [],
      "payable": false,
      "stateMutability": "nonpayable",
      "type": "function"
    },
    {
      "constant": false,
      "inputs": [
        {
          "internalType": "address",
          "name": "borrower",
          "type": "address"
        },
        {
          "internalType": "uint256",
          "name": "id",
          "type": "uint256"
        },
        {
          "internalType": "uint256",
          "name": "amount",
          "type": "uint256"
        }
      ],
      "name": "repay",
      "outputs": [],
      "payable": false,
      "stateMutability": "nonpayable",
      "type": "function"
    },
    {
      "constant": true,
      "inputs": [],
      "name": "resolver",
      "outputs": [
        {
          "internalType": "contract AddressResolver",
          "name": "",
          "type": "address"
        }
      ],
      "payable": false,
      "stateMutability": "view",
      "type": "function"
    },
    {
      "constant": true,
      "inputs": [],
      "name": "resolverAddressesRequired",
      "outputs": [
        {
          "internalType": "bytes32[]",
          "name": "addresses",
          "type": "bytes32[]"
        }
      ],
      "payable": false,
      "stateMutability": "view",
      "type": "function"
    },
    {
      "constant": false,
      "inputs": [
        {
          "internalType": "bool",
          "name": "_canOpenLoans",
          "type": "bool"
        }
      ],
      "name": "setCanOpenLoans",
      "outputs": [],
      "payable": false,
      "stateMutability": "nonpayable",
      "type": "function"
    },
    {
      "constant": false,
      "inputs": [
        {
          "internalType": "uint256",
          "name": "_interactionDelay",
          "type": "uint256"
        }
      ],
      "name": "setInteractionDelay",
      "outputs": [],
      "payable": false,
      "stateMutability": "nonpayable",
      "type": "function"
    },
    {
      "constant": false,
      "inputs": [
        {
          "internalType": "uint256",
          "name": "_issueFeeRate",
          "type": "uint256"
        }
      ],
      "name": "setIssueFeeRate",
      "outputs": [],
      "payable": false,
      "stateMutability": "nonpayable",
      "type": "function"
    },
    {
      "constant": false,
      "inputs": [
        {
          "internalType": "address",
          "name": "_newManager",
          "type": "address"
        }
      ],
      "name": "setManager",
      "outputs": [],
      "payable": false,
      "stateMutability": "nonpayable",
      "type": "function"
    },
    {
      "constant": false,
      "inputs": [
        {
          "internalType": "uint256",
          "name": "_minCratio",
          "type": "uint256"
        }
      ],
      "name": "setMinCratio",
      "outputs": [],
      "payable": false,
      "stateMutability": "nonpayable",
      "type": "function"
    },
    {
      "constant": true,
      "inputs": [
        {
          "internalType": "bytes32",
          "name": "",
          "type": "bytes32"
        }
      ],
      "name": "shortingRewards",
      "outputs": [
        {
          "internalType": "address",
          "name": "",
          "type": "address"
        }
      ],
      "payable": false,
      "stateMutability": "view",
      "type": "function"
    },
    {
      "constant": true,
      "inputs": [],
      "name": "state",
      "outputs": [
        {
          "internalType": "contract CollateralState",
          "name": "",
          "type": "address"
        }
      ],
      "payable": false,
      "stateMutability": "view",
      "type": "function"
    },
    {
      "constant": false,
      "inputs": [
        {
          "internalType": "uint256",
          "name": "id",
          "type": "uint256"
        },
        {
          "internalType": "uint256",
          "name": "amount",
          "type": "uint256"
        }
      ],
      "name": "withdraw",
      "outputs": [],
      "payable": false,
      "stateMutability": "nonpayable",
      "type": "function"
    }
  ],
  "bytecode": "0x60806040526032600d5561012c600e556001600f60006101000a81548160ff0219169083151502179055503480156200003757600080fd5b50604051620088ad380380620088ad83398181016040526200005d9190810190620002a1565b86868686868686838087600073ffffffffffffffffffffffffffffffffffffffff168173ffffffffffffffffffffffffffffffffffffffff161415620000da576040517f08c379a0000000000000000000000000000000000000000000000000000000008152600401620000d190620003df565b60405180910390fd5b806000806101000a81548173ffffffffffffffffffffffffffffffffffffffff021916908373ffffffffffffffffffffffffffffffffffffffff1602179055507fb532073b38c83145e3e5135377a08bf9aab55bc0fd7c1179cd4fb995d2a5159c6000826040516200014e929190620003b2565b60405180910390a15080600260006101000a81548173ffffffffffffffffffffffffffffffffffffffff021916908373ffffffffffffffffffffffffffffffffffffffff160217905550505084600660006101000a81548173ffffffffffffffffffffffffffffffffffffffff021916908373ffffffffffffffffffffffffffffffffffffffff16021790555086600560006101000a81548173ffffffffffffffffffffffffffffffffffffffff021916908373ffffffffffffffffffffffffffffffffffffffff1602179055508260048190555081600a8190555080600b81905550505050505050505050505050505062000512565b6000815190506200025681620004aa565b92915050565b6000815190506200026d81620004c4565b92915050565b6000815190506200028481620004de565b92915050565b6000815190506200029b81620004f8565b92915050565b600080600080600080600060e0888a031215620002bd57600080fd5b6000620002cd8a828b0162000273565b9750506020620002e08a828b0162000245565b9650506040620002f38a828b0162000245565b9550506060620003068a828b0162000245565b9450506080620003198a828b016200025c565b93505060a06200032c8a828b016200028a565b92505060c06200033f8a828b016200028a565b91505092959891949750929550565b62000359816200046e565b82525050565b6200036a8162000412565b82525050565b60006200037f60198362000401565b91507f4f776e657220616464726573732063616e6e6f742062652030000000000000006000830152602082019050919050565b6000604082019050620003c960008301856200034e565b620003d860208301846200035f565b9392505050565b60006020820190508181036000830152620003fa8162000370565b9050919050565b600082825260208201905092915050565b60006200041f8262000444565b9050919050565b6000819050919050565b60006200043d8262000412565b9050919050565b600073ffffffffffffffffffffffffffffffffffffffff82169050919050565b6000819050919050565b60006200047b8262000482565b9050919050565b60006200048f8262000496565b9050919050565b6000620004a38262000444565b9050919050565b620004b58162000412565b8114620004c157600080fd5b50565b620004cf8162000426565b8114620004db57600080fd5b50565b620004e98162000430565b8114620004f557600080fd5b50565b620005038162000464565b81146200050f57600080fd5b50565b61838b80620005226000396000f3fe608060405234801561001057600080fd5b50600436106102485760003560e01c8063741853601161013b578063ba2de9bc116100b8578063dac8cf681161007c578063dac8cf681461067b578063de81eda9146106ab578063e74337c6146106db578063eb8e3b651461070b578063f93451ed1461072957610248565b8063ba2de9bc146105d7578063c19d93fb146105f5578063cd28502014610613578063d0ebdbe714610643578063d2b8035a1461065f57610248565b80638da5cb5b116100ff5780638da5cb5b1461054557806390abb4d914610563578063925ead111461057f578063a76cdfa51461059d578063b562a1ab146105b957610248565b806374185360146104c757806379ba5097146104d15780637e132355146104db578063899ffef41461050b5780638cd2e0c71461052957610248565b8063361e2086116101c95780634c17ace41161018d5780634c17ace41461043957806353a47bb71461045557806355bd615c1461047357806356dc04a11461048f5780635eb2ad01146104ab57610248565b8063361e20861461039357806337551ec6146103b15780634065b81b146103e1578063441a3e70146103ff578063481c6a751461041b57610248565b80630e54a19b116102105780630e54a19b146102ef5780630efe6a8b1461031f57806315aaf4dd1461033b5780631627540c146103595780632af64bd31461037557610248565b806304f3bcec1461024d5780630710285c1461026b5780630a153c97146102875780630aebeb4e146102b75780630cdd1c65146102d3575b600080fd5b610255610745565b6040516102629190617bc8565b60405180910390f35b61028560048036036102809190810190616a8c565b61076b565b005b6102a1600480360361029c9190810190616c43565b610815565b6040516102ae9190617fdc565b60405180910390f35b6102d160048036036102cc9190810190616cd3565b610963565b005b6102ed60048036036102e89190810190616cd3565b610a0a565b005b61030960048036036103049190810190616adb565b610b12565b6040516103169190617ab0565b60405180910390f35b61033960048036036103349190810190616a8c565b610be7565b005b610343610d62565b6040516103509190617fdc565b60405180910390f35b610373600480360361036e91908101906169fe565b610d68565b005b61037d610deb565b60405161038a9190617ab0565b60405180910390f35b61039b610fc0565b6040516103a89190617fdc565b60405180910390f35b6103cb60048036036103c69190810190616cd3565b610fc6565b6040516103d89190617acb565b60405180910390f35b6103e9610fe7565b6040516103f69190617ab0565b60405180910390f35b61041960048036036104149190810190616d9d565b610ffa565b005b6104236110a2565b604051610430919061792b565b60405180910390f35b610453600480360361044e9190810190616cd3565b6110c8565b005b61045d6111d5565b60405161046a919061792b565b60405180910390f35b61048d60048036036104889190810190616adb565b6111fb565b005b6104a960048036036104a49190810190616c07565b6112e6565b005b6104c560048036036104c09190810190616a50565b6113f0565b005b6104cf61144e565b005b6104d96115ef565b005b6104f560048036036104f09190810190616d61565b6117a1565b6040516105029190617fdc565b60405180910390f35b61051361185a565b6040516105209190617a8e565b60405180910390f35b610543600480360361053e9190810190616a8c565b611a2e565b005b61054d611a3f565b60405161055a919061792b565b60405180910390f35b61057d60048036036105789190810190616b50565b611a64565b005b610587611acf565b6040516105949190617fdc565b60405180910390f35b6105b760048036036105b29190810190616cd3565b611ad5565b005b6105c1611b20565b6040516105ce9190617acb565b60405180910390f35b6105df611b26565b6040516105ec9190617fdc565b60405180910390f35b6105fd611b2c565b60405161060a9190617be3565b60405180910390f35b61062d60048036036106289190810190616bde565b611b52565b60405161063a9190617acb565b60405180910390f35b61065d600480360361065891908101906169fe565b611b6a565b005b61067960048036036106749190810190616d9d565b611c0f565b005b61069560048036036106909190810190616c7f565b611c1d565b6040516106a29190617fdc565b60405180910390f35b6106c560048036036106c09190810190616bde565b611dce565b6040516106d2919061792b565b60405180910390f35b6106f560048036036106f09190810190616c7f565b611e01565b6040516107029190617fdc565b60405180910390f35b610713612167565b6040516107209190617fdc565b60405180910390f35b610743600480360361073e9190810190616dd9565b61216d565b005b600260009054906101000a900473ffffffffffffffffffffffffffffffffffffffff1681565b60006107788484846122eb565b9050610782612880565b73ffffffffffffffffffffffffffffffffffffffff1663a9059cbb33836040518363ffffffff1660e01b81526004016107bc9291906179ea565b602060405180830381600087803b1580156107d657600080fd5b505af11580156107ea573d6000803e3d6000fd5b505050506040513d601f19601f8201168201806040525061080e9190810190616b79565b5050505050565b6000806108206128b0565b905061082a612989565b73ffffffffffffffffffffffffffffffffffffffff1663654a60ac85856004546040518463ffffffff1660e01b815260040161086893929190617b91565b60206040518083038186803b15801561088057600080fd5b505afa158015610894573d6000803e3d6000fd5b505050506040513d601f19601f820116820180604052506108b89190810190616cfc565b915061095a61094b8273__$b8d33eeb36ac0d1e81cd70156e0043e778$__63907af6c06040518163ffffffff1660e01b815260040160206040518083038186803b15801561090557600080fd5b505af4158015610919573d6000803e3d6000fd5b505050506040513d601f19601f8201168201806040525061093d9190810190616cfc565b6129b990919063ffffffff16565b83612a0e90919063ffffffff16565b91505092915050565b600061096f3383612a3b565b9050610979612880565b73ffffffffffffffffffffffffffffffffffffffff1663a9059cbb33836040518363ffffffff1660e01b81526004016109b39291906179ea565b602060405180830381600087803b1580156109cd57600080fd5b505af11580156109e1573d6000803e3d6000fd5b505050506040513d601f19601f82011682018060405250610a059190810190616b79565b505050565b610a12613123565b73__$b8d33eeb36ac0d1e81cd70156e0043e778$__63907af6c06040518163ffffffff1660e01b815260040160206040518083038186803b158015610a5657600080fd5b505af4158015610a6a573d6000803e3d6000fd5b505050506040513d601f19601f82011682018060405250610a8e9190810190616cfc565b8111610acf576040517f08c379a0000000000000000000000000000000000000000000000000000000008152600401610ac690617c40565b60405180910390fd5b80600a819055507f813a44586e8ecb9390b2568dbe810e193087f80e415c8845340ef06d4cbb42a5600a54604051610b079190617fdc565b60405180910390a150565b60008484905060078054905014610b2c5760009050610bdf565b60008090505b85859050811015610bd9576000868683818110610b4b57fe5b9050602002013590508060078381548110610b6257fe5b906000526020600020015414610b7d57600092505050610bdf565b60078281548110610b8a57fe5b906000526020600020015460086000878786818110610ba557fe5b9050602002013581526020019081526020016000205414610bcb57600092505050610bdf565b508080600101915050610b32565b50600190505b949350505050565b610bef612880565b73ffffffffffffffffffffffffffffffffffffffff1663dd62ed3e33306040518363ffffffff1660e01b8152600401610c29929190617961565b60206040518083038186803b158015610c4157600080fd5b505afa158015610c55573d6000803e3d6000fd5b505050506040513d601f19601f82011682018060405250610c799190810190616cfc565b811115610cbb576040517f08c379a0000000000000000000000000000000000000000000000000000000008152600401610cb290617cc0565b60405180910390fd5b610cc3612880565b73ffffffffffffffffffffffffffffffffffffffff166323b872dd3330846040518463ffffffff1660e01b8152600401610cff9392919061798a565b602060405180830381600087803b158015610d1957600080fd5b505af1158015610d2d573d6000803e3d6000fd5b505050506040513d601f19601f82011682018060405250610d519190810190616b79565b50610d5d8383836131b4565b505050565b600e5481565b610d70613123565b80600160006101000a81548173ffffffffffffffffffffffffffffffffffffffff021916908373ffffffffffffffffffffffffffffffffffffffff1602179055507f906a1c6bd7e3091ea86693dd029a831c19049ce77f1dce2ce0bab1cacbabce2281604051610de0919061792b565b60405180910390a150565b60006060610df761185a565b905060008090505b8151811015610fb6576000828281518110610e1657fe5b602002602001015190506003600082815260200190815260200160002060009054906101000a900473ffffffffffffffffffffffffffffffffffffffff1673ffffffffffffffffffffffffffffffffffffffff16600260009054906101000a900473ffffffffffffffffffffffffffffffffffffffff1673ffffffffffffffffffffffffffffffffffffffff166321f8a721836040518263ffffffff1660e01b8152600401610ec59190617acb565b60206040518083038186803b158015610edd57600080fd5b505afa158015610ef1573d6000803e3d6000fd5b505050506040513d601f19601f82011682018060405250610f159190810190616a27565b73ffffffffffffffffffffffffffffffffffffffff16141580610f975750600073ffffffffffffffffffffffffffffffffffffffff166003600083815260200190815260200160002060009054906101000a900473ffffffffffffffffffffffffffffffffffffffff1673ffffffffffffffffffffffffffffffffffffffff16145b15610fa85760009350505050610fbd565b508080600101915050610dff565b5060019150505b90565b600c5481565b60078181548110610fd357fe5b906000526020600020016000915090505481565b600f60009054906101000a900460ff1681565b6000611006838361350e565b9050611010612880565b73ffffffffffffffffffffffffffffffffffffffff1663a9059cbb33836040518363ffffffff1660e01b815260040161104a9291906179ea565b602060405180830381600087803b15801561106457600080fd5b505af1158015611078573d6000803e3d6000fd5b505050506040513d601f19601f8201168201806040525061109c9190810190616b79565b50505050565b600660009054906101000a900473ffffffffffffffffffffffffffffffffffffffff1681565b6110d0613123565b610e1073__$b8d33eeb36ac0d1e81cd70156e0043e778$__63907af6c06040518163ffffffff1660e01b815260040160206040518083038186803b15801561111757600080fd5b505af415801561112b573d6000803e3d6000fd5b505050506040513d601f19601f8201168201806040525061114f9190810190616cfc565b02811115611192576040517f08c379a000000000000000000000000000000000000000000000000000000000815260040161118990617e60565b60405180910390fd5b80600e819055507f4d71c92b0a9dc236066597b95637bb04d58cd135e9165aee13eb68e3199c2361600e546040516111ca9190617fdc565b60405180910390a150565b600160009054906101000a900473ffffffffffffffffffffffffffffffffffffffff1681565b611203613123565b81819050848490501461124b576040517f08c379a000000000000000000000000000000000000000000000000000000000815260040161124290617c20565b60405180910390fd5b60008090505b848490508110156112d757600085858381811061126a57fe5b905060200201359050600781908060018154018082558091505090600182039060005260206000200160009091929091909150555080600860008686868181106112b057fe5b90506020020135815260200190815260200160002081905550508080600101915050611251565b506112e061144e565b50505050565b600073ffffffffffffffffffffffffffffffffffffffff166009600084815260200190815260200160002060009054906101000a900473ffffffffffffffffffffffffffffffffffffffff1673ffffffffffffffffffffffffffffffffffffffff16146113ec576009600083815260200190815260200160002060009054906101000a900473ffffffffffffffffffffffffffffffffffffffff1673ffffffffffffffffffffffffffffffffffffffff1663c00007b0826040518263ffffffff1660e01b81526004016113b9919061792b565b600060405180830381600087803b1580156113d357600080fd5b505af11580156113e7573d6000803e3d6000fd5b505050505b5050565b6113f8613123565b816009600083815260200190815260200160002060006101000a81548173ffffffffffffffffffffffffffffffffffffffff021916908373ffffffffffffffffffffffffffffffffffffffff1602179055505050565b606061145861185a565b905060008090505b81518110156115eb57600082828151811061147757fe5b602002602001015190506000600260009054906101000a900473ffffffffffffffffffffffffffffffffffffffff1673ffffffffffffffffffffffffffffffffffffffff1663dacb2d0183846040516020016114d39190617905565b6040516020818303038152906040526040518363ffffffff1660e01b81526004016114ff929190617b38565b60206040518083038186803b15801561151757600080fd5b505afa15801561152b573d6000803e3d6000fd5b505050506040513d601f19601f8201168201806040525061154f9190810190616a27565b9050806003600084815260200190815260200160002060006101000a81548173ffffffffffffffffffffffffffffffffffffffff021916908373ffffffffffffffffffffffffffffffffffffffff1602179055507f88a93678a3692f6789d9546fc621bf7234b101ddb7d4fe479455112831b8aa6882826040516115d4929190617ae6565b60405180910390a150508080600101915050611460565b5050565b600160009054906101000a900473ffffffffffffffffffffffffffffffffffffffff1673ffffffffffffffffffffffffffffffffffffffff163373ffffffffffffffffffffffffffffffffffffffff161461167f576040517f08c379a000000000000000000000000000000000000000000000000000000000815260040161167690617ca0565b60405180910390fd5b7fb532073b38c83145e3e5135377a08bf9aab55bc0fd7c1179cd4fb995d2a5159c6000809054906101000a900473ffffffffffffffffffffffffffffffffffffffff16600160009054906101000a900473ffffffffffffffffffffffffffffffffffffffff166040516116f3929190617a13565b60405180910390a1600160009054906101000a900473ffffffffffffffffffffffffffffffffffffffff166000806101000a81548173ffffffffffffffffffffffffffffffffffffffff021916908373ffffffffffffffffffffffffffffffffffffffff1602179055506000600160006101000a81548173ffffffffffffffffffffffffffffffffffffffff021916908373ffffffffffffffffffffffffffffffffffffffff160217905550565b60006118526117ae612989565b73ffffffffffffffffffffffffffffffffffffffff1663654a60ac60045486866040518463ffffffff1660e01b81526004016117ec93929190617b91565b60206040518083038186803b15801561180457600080fd5b505afa158015611818573d6000803e3d6000fd5b505050506040513d601f19601f8201168201806040525061183c9190810190616cfc565b611844613877565b612a0e90919063ffffffff16565b905092915050565b60608061186561390e565b9050606060056040519080825280602002602001820160405280156118995781602001602082028038833980820191505090505b5090507f466565506f6f6c00000000000000000000000000000000000000000000000000816000815181106118ca57fe5b6020026020010181815250507f45786368616e67655261746573000000000000000000000000000000000000008160018151811061190457fe5b6020026020010181815250507f45786368616e67657200000000000000000000000000000000000000000000008160028151811061193e57fe5b6020026020010181815250507f53797374656d53746174757300000000000000000000000000000000000000008160038151811061197857fe5b6020026020010181815250507f50796e7468705553440000000000000000000000000000000000000000000000816004815181106119b257fe5b60200260200101818152505060606119ca8383613980565b9050611a26816007805480602002602001604051908101604052809291908181526020018280548015611a1c57602002820191906000526020600020905b815481526020019060010190808311611a08575b5050505050613980565b935050505090565b611a3a83338484613a53565b505050565b6000809054906101000a900473ffffffffffffffffffffffffffffffffffffffff1681565b611a6c613123565b80600f60006101000a81548160ff0219169083151502179055507f261991749e1b2436706a31bde8bf184bb37fe21e303709b78d3b881afacadaa2600f60009054906101000a900460ff16604051611ac49190617ab0565b60405180910390a150565b600a5481565b611add613123565b80600c819055507fe7bd72551c54d568cd97b00dc52d2787b5c5d4f0070d3582c1e8ba25141f799c600c54604051611b159190617fdc565b60405180910390a150565b60045481565b600b5481565b600560009054906101000a900473ffffffffffffffffffffffffffffffffffffffff1681565b60086020528060005260406000206000915090505481565b611b72613123565b80600660006101000a81548173ffffffffffffffffffffffffffffffffffffffff021916908373ffffffffffffffffffffffffffffffffffffffff1602179055507f2c1c11af44aa5608f1dca38c00275c30ea091e02417d36e70e9a1538689c433d600660009054906101000a900473ffffffffffffffffffffffffffffffffffffffff16604051611c04919061792b565b60405180910390a150565b611c198282613f22565b5050565b600080611c28612989565b73ffffffffffffffffffffffffffffffffffffffff1663654a60ac60045485604001517f70555344000000000000000000000000000000000000000000000000000000006040518463ffffffff1660e01b8152600401611c8a93929190617b91565b60206040518083038186803b158015611ca257600080fd5b505afa158015611cb6573d6000803e3d6000fd5b505050506040513d601f19601f82011682018060405250611cda9190810190616cfc565b90506000611ce6612989565b73ffffffffffffffffffffffffffffffffffffffff1663654a60ac8560600151611d218760c0015188608001516129b990919063ffffffff16565b7f70555344000000000000000000000000000000000000000000000000000000006040518463ffffffff1660e01b8152600401611d6093929190617b91565b60206040518083038186803b158015611d7857600080fd5b505afa158015611d8c573d6000803e3d6000fd5b505050506040513d601f19601f82011682018060405250611db09190810190616cfc565b9050611dc5818361468590919063ffffffff16565b92505050919050565b60096020528060005260406000206000915054906101000a900473ffffffffffffffffffffffffffffffffffffffff1681565b600080611e0c6128b0565b90506000611e18612989565b73ffffffffffffffffffffffffffffffffffffffff1663654a60ac8560600151611e538760c0015188608001516129b990919063ffffffff16565b7f70555344000000000000000000000000000000000000000000000000000000006040518463ffffffff1660e01b8152600401611e9293929190617b91565b60206040518083038186803b158015611eaa57600080fd5b505afa158015611ebe573d6000803e3d6000fd5b505050506040513d601f19601f82011682018060405250611ee29190810190616cfc565b90506000611eee612989565b73ffffffffffffffffffffffffffffffffffffffff1663654a60ac60045487604001517f70555344000000000000000000000000000000000000000000000000000000006040518463ffffffff1660e01b8152600401611f5093929190617b91565b60206040518083038186803b158015611f6857600080fd5b505afa158015611f7c573d6000803e3d6000fd5b505050506040513d601f19601f82011682018060405250611fa09190810190616cfc565b9050600073__$b8d33eeb36ac0d1e81cd70156e0043e778$__63907af6c06040518163ffffffff1660e01b815260040160206040518083038186803b158015611fe857600080fd5b505af4158015611ffc573d6000803e3d6000fd5b505050506040513d601f19601f820116820180604052506120209190810190616cfc565b9050600061204b61203c600a548561468590919063ffffffff16565b856146bb90919063ffffffff16565b90506000612088612079600a5461206b89876129b990919063ffffffff16565b61468590919063ffffffff16565b846146bb90919063ffffffff16565b9050600061209f828461468590919063ffffffff16565b90506120a9612989565b73ffffffffffffffffffffffffffffffffffffffff1663654a60ac7f7055534400000000000000000000000000000000000000000000000000000000838c606001516040518463ffffffff1660e01b815260040161210993929190617b91565b60206040518083038186803b15801561212157600080fd5b505afa158015612135573d6000803e3d6000fd5b505050506040513d601f19601f820116820180604052506121599190810190616cfc565b975050505050505050919050565b600d5481565b612175612880565b73ffffffffffffffffffffffffffffffffffffffff1663dd62ed3e33306040518363ffffffff1660e01b81526004016121af929190617961565b60206040518083038186803b1580156121c757600080fd5b505afa1580156121db573d6000803e3d6000fd5b505050506040513d601f19601f820116820180604052506121ff9190810190616cfc565b831115612241576040517f08c379a000000000000000000000000000000000000000000000000000000000815260040161223890617cc0565b60405180910390fd5b61224e8383836001614711565b50612257612880565b73ffffffffffffffffffffffffffffffffffffffff166323b872dd3330866040518463ffffffff1660e01b81526004016122939392919061798a565b602060405180830381600087803b1580156122ad57600080fd5b505af11580156122c1573d6000803e3d6000fd5b505050506040513d601f19601f820116820180604052506122e59190810190616b79565b50505050565b60006122f56151ef565b73ffffffffffffffffffffffffffffffffffffffff16637c3125416040518163ffffffff1660e01b815260040160006040518083038186803b15801561233a57600080fd5b505afa15801561234e573d6000803e3d6000fd5b5050505061235a612989565b73ffffffffffffffffffffffffffffffffffffffff16632528f0fe6004546040518263ffffffff1660e01b81526004016123949190617acb565b60206040518083038186803b1580156123ac57600080fd5b505afa1580156123c0573d6000803e3d6000fd5b505050506040513d601f19601f820116820180604052506123e49190810190616b79565b15612424576040517f08c379a000000000000000000000000000000000000000000000000000000000815260040161241b90617e80565b60405180910390fd5b60008211612467576040517f08c379a000000000000000000000000000000000000000000000000000000000815260040161245e90617d00565b60405180910390fd5b61246f6166c3565b600560009054906101000a900473ffffffffffffffffffffffffffffffffffffffff1673ffffffffffffffffffffffffffffffffffffffff1663a1c5158686866040518363ffffffff1660e01b81526004016124cc929190617a65565b6101206040518083038186803b1580156124e557600080fd5b505afa1580156124f9573d6000803e3d6000fd5b505050506040513d601f19601f8201168201806040525061251d9190810190616ca9565b90506125288161521f565b612531816152c5565b905061254233826060015185615867565b600a5461254e82611c1d565b1061258e576040517f08c379a000000000000000000000000000000000000000000000000000000000815260040161258590617d60565b60405180910390fd5b600061259982611e01565b905060008482106125aa57846125ac565b815b905060006125cb8460c0015185608001516129b990919063ffffffff16565b90508082106125ea576125df883386615952565b945050505050612879565b6125f48483615e4c565b9350612604846060015183610815565b945061261d8585604001516146bb90919063ffffffff16565b8460400181815250504284610100018181525050612639616114565b73ffffffffffffffffffffffffffffffffffffffff1663d6f32e063386606001516040518363ffffffff1660e01b81526004016126779291906179c1565b60206040518083038186803b15801561268f57600080fd5b505afa1580156126a3573d6000803e3d6000fd5b505050506040513d601f19601f820116820180604052506126c79190810190616b79565b15612707576040517f08c379a00000000000000000000000000000000000000000000000000000000081526004016126fe90617fa0565b60405180910390fd5b612727600860008660600151815260200190815260200160002054616144565b73ffffffffffffffffffffffffffffffffffffffff16639dc29fac33846040518363ffffffff1660e01b81526004016127619291906179ea565b600060405180830381600087803b15801561277b57600080fd5b505af115801561278f573d6000803e3d6000fd5b50505050600560009054906101000a900473ffffffffffffffffffffffffffffffffffffffff1673ffffffffffffffffffffffffffffffffffffffff166344dce41c856040518263ffffffff1660e01b81526004016127ee9190617fc0565b600060405180830381600087803b15801561280857600080fd5b505af115801561281c573d6000803e3d6000fd5b505050508773ffffffffffffffffffffffffffffffffffffffff167fb6e43890aeea54fbe6c0ed628e78172a0ff30bbcb1d70d8b130b12c366bac4c58833858960405161286c9493929190617ff7565b60405180910390a2505050505b9392505050565b60006128ab7f50796e7468705553440000000000000000000000000000000000000000000000616156565b905090565b60006128ba61622b565b73ffffffffffffffffffffffffffffffffffffffff166323257c2b7f53797374656d53657474696e67730000000000000000000000000000000000007f6c69717569646174696f6e50656e616c747900000000000000000000000000006040518363ffffffff1660e01b8152600401612934929190617b0f565b60206040518083038186803b15801561294c57600080fd5b505afa158015612960573d6000803e3d6000fd5b505050506040513d601f19601f820116820180604052506129849190810190616cfc565b905090565b60006129b47f45786368616e6765526174657300000000000000000000000000000000000000616156565b905090565b600080828401905083811015612a04576040517f08c379a00000000000000000000000000000000000000000000000000000000081526004016129fb90617d20565b60405180910390fd5b8091505092915050565b6000601260ff16600a0a612a2b838561625b90919063ffffffff16565b81612a3257fe5b04905092915050565b6000612a456151ef565b73ffffffffffffffffffffffffffffffffffffffff16637c3125416040518163ffffffff1660e01b815260040160006040518083038186803b158015612a8a57600080fd5b505afa158015612a9e573d6000803e3d6000fd5b50505050612aaa612989565b73ffffffffffffffffffffffffffffffffffffffff16632528f0fe6004546040518263ffffffff1660e01b8152600401612ae49190617acb565b60206040518083038186803b158015612afc57600080fd5b505afa158015612b10573d6000803e3d6000fd5b505050506040513d601f19601f82011682018060405250612b349190810190616b79565b15612b74576040517f08c379a0000000000000000000000000000000000000000000000000000000008152600401612b6b90617e80565b60405180910390fd5b612b7c6166c3565b600560009054906101000a900473ffffffffffffffffffffffffffffffffffffffff1673ffffffffffffffffffffffffffffffffffffffff1663a1c5158685856040518363ffffffff1660e01b8152600401612bd9929190617a65565b6101206040518083038186803b158015612bf257600080fd5b505afa158015612c06573d6000803e3d6000fd5b505050506040513d601f19601f82011682018060405250612c2a9190810190616ca9565b9050612c358161521f565b612c3e816152c5565b90506000612c5d8260c0015183608001516129b990919063ffffffff16565b9050612c728260200151836060015183615867565b612c7a616114565b73ffffffffffffffffffffffffffffffffffffffff1663d6f32e068684606001516040518363ffffffff1660e01b8152600401612cb8929190617a3c565b60206040518083038186803b158015612cd057600080fd5b505afa158015612ce4573d6000803e3d6000fd5b505050506040513d601f19601f82011682018060405250612d089190810190616b79565b15612d48576040517f08c379a0000000000000000000000000000000000000000000000000000000008152600401612d3f90617dc0565b60405180910390fd5b612d68600860008460600151815260200190815260200160002054616144565b73ffffffffffffffffffffffffffffffffffffffff16639dc29fac86836040518363ffffffff1660e01b8152600401612da2929190617a65565b600060405180830381600087803b158015612dbc57600080fd5b505af1158015612dd0573d6000803e3d6000fd5b505050508160a0015115612f7357612de66162cb565b73ffffffffffffffffffffffffffffffffffffffff16635246f2b9836060015184608001516040518363ffffffff1660e01b8152600401612e28929190617b68565b600060405180830381600087803b158015612e4257600080fd5b505af1158015612e56573d6000803e3d6000fd5b50505050600073ffffffffffffffffffffffffffffffffffffffff16600960008460600151815260200190815260200160002060009054906101000a900473ffffffffffffffffffffffffffffffffffffffff1673ffffffffffffffffffffffffffffffffffffffff1614612f6e57600960008360600151815260200190815260200160002060009054906101000a900473ffffffffffffffffffffffffffffffffffffffff1673ffffffffffffffffffffffffffffffffffffffff1663f3fef3a38684608001516040518363ffffffff1660e01b8152600401612f3b929190617a65565b600060405180830381600087803b158015612f5557600080fd5b505af1158015612f69573d6000803e3d6000fd5b505050505b612ff0565b612f7b6162cb565b73ffffffffffffffffffffffffffffffffffffffff1663e50a31b3836060015184608001516040518363ffffffff1660e01b8152600401612fbd929190617b68565b600060405180830381600087803b158015612fd757600080fd5b505af1158015612feb573d6000803e3d6000fd5b505050505b816040015192506130098260c0015183606001516162f5565b6000826080018181525050600082604001818152505060008260c001818152505060008260e00181815250504282610100018181525050600560009054906101000a900473ffffffffffffffffffffffffffffffffffffffff1673ffffffffffffffffffffffffffffffffffffffff166344dce41c836040518263ffffffff1660e01b815260040161309b9190617fc0565b600060405180830381600087803b1580156130b557600080fd5b505af11580156130c9573d6000803e3d6000fd5b505050508473ffffffffffffffffffffffffffffffffffffffff167fcab22a4e95d29d40da2ace3f6ec72b49954a9bc7b2584f8fd47bf7f357a3ed6f856040516131139190617fdc565b60405180910390a2505092915050565b6000809054906101000a900473ffffffffffffffffffffffffffffffffffffffff1673ffffffffffffffffffffffffffffffffffffffff163373ffffffffffffffffffffffffffffffffffffffff16146131b2576040517f08c379a00000000000000000000000000000000000000000000000000000000081526004016131a990617ec0565b60405180910390fd5b565b6131bc6151ef565b73ffffffffffffffffffffffffffffffffffffffff16637c3125416040518163ffffffff1660e01b815260040160006040518083038186803b15801561320157600080fd5b505afa158015613215573d6000803e3d6000fd5b50505050613221612989565b73ffffffffffffffffffffffffffffffffffffffff16632528f0fe6004546040518263ffffffff1660e01b815260040161325b9190617acb565b60206040518083038186803b15801561327357600080fd5b505afa158015613287573d6000803e3d6000fd5b505050506040513d601f19601f820116820180604052506132ab9190810190616b79565b156132eb576040517f08c379a00000000000000000000000000000000000000000000000000000000081526004016132e290617e80565b60405180910390fd5b6000811161332e576040517f08c379a000000000000000000000000000000000000000000000000000000000815260040161332590617f20565b60405180910390fd5b6133366166c3565b600560009054906101000a900473ffffffffffffffffffffffffffffffffffffffff1673ffffffffffffffffffffffffffffffffffffffff1663a1c5158685856040518363ffffffff1660e01b8152600401613393929190617a65565b6101206040518083038186803b1580156133ac57600080fd5b505afa1580156133c0573d6000803e3d6000fd5b505050506040513d601f19601f820116820180604052506133e49190810190616ca9565b90506133ef8161521f565b6133f8816152c5565b90506134118282604001516129b990919063ffffffff16565b8160400181815250504281610100018181525050600560009054906101000a900473ffffffffffffffffffffffffffffffffffffffff1673ffffffffffffffffffffffffffffffffffffffff166344dce41c826040518263ffffffff1660e01b81526004016134809190617fc0565b600060405180830381600087803b15801561349a57600080fd5b505af11580156134ae573d6000803e3d6000fd5b505050508373ffffffffffffffffffffffffffffffffffffffff167f0b1992dffc262be88559dcaf96464e9d661d8bfca7e82f2bb73e31932a82187c848484604001516040516135009392919061808e565b60405180910390a250505050565b60006135186151ef565b73ffffffffffffffffffffffffffffffffffffffff16637c3125416040518163ffffffff1660e01b815260040160006040518083038186803b15801561355d57600080fd5b505afa158015613571573d6000803e3d6000fd5b5050505061357d612989565b73ffffffffffffffffffffffffffffffffffffffff16632528f0fe6004546040518263ffffffff1660e01b81526004016135b79190617acb565b60206040518083038186803b1580156135cf57600080fd5b505afa1580156135e3573d6000803e3d6000fd5b505050506040513d601f19601f820116820180604052506136079190810190616b79565b15613647576040517f08c379a000000000000000000000000000000000000000000000000000000000815260040161363e90617e80565b60405180910390fd5b61364f6166c3565b600560009054906101000a900473ffffffffffffffffffffffffffffffffffffffff1673ffffffffffffffffffffffffffffffffffffffff1663a1c5158633866040518363ffffffff1660e01b81526004016136ac9291906179ea565b6101206040518083038186803b1580156136c557600080fd5b505afa1580156136d9573d6000803e3d6000fd5b505050506040513d601f19601f820116820180604052506136fd9190810190616ca9565b90506137088161521f565b613711816152c5565b905061372a8382604001516146bb90919063ffffffff16565b8160400181815250504281610100018181525050600a5461374a82611c1d565b1161378a576040517f08c379a000000000000000000000000000000000000000000000000000000000815260040161378190617c60565b60405180910390fd5b600560009054906101000a900473ffffffffffffffffffffffffffffffffffffffff1673ffffffffffffffffffffffffffffffffffffffff166344dce41c826040518263ffffffff1660e01b81526004016137e59190617fc0565b600060405180830381600087803b1580156137ff57600080fd5b505af1158015613813573d6000803e3d6000fd5b505050508291503373ffffffffffffffffffffffffffffffffffffffff167ffae26280bca25d80f1501a9e363c73d3845e651c9aaae54f1fc09a9dcd5f3303858584604001516040516138689392919061808e565b60405180910390a25092915050565b6000613909600a5473__$b8d33eeb36ac0d1e81cd70156e0043e778$__63907af6c06040518163ffffffff1660e01b815260040160206040518083038186803b1580156138c357600080fd5b505af41580156138d7573d6000803e3d6000fd5b505050506040513d601f19601f820116820180604052506138fb9190810190616cfc565b61654b90919063ffffffff16565b905090565b606060016040519080825280602002602001820160405280156139405781602001602082028038833980820191505090505b5090507f466c657869626c6553746f7261676500000000000000000000000000000000008160008151811061397157fe5b60200260200101818152505090565b606081518351016040519080825280602002602001820160405280156139b55781602001602082028038833980820191505090505b50905060008090505b8351811015613a00578381815181106139d357fe5b60200260200101518282815181106139e757fe5b60200260200101818152505080806001019150506139be565b5060008090505b8251811015613a4c57828181518110613a1c57fe5b6020026020010151828286510181518110613a3357fe5b6020026020010181815250508080600101915050613a07565b5092915050565b613a5b6151ef565b73ffffffffffffffffffffffffffffffffffffffff16637c3125416040518163ffffffff1660e01b815260040160006040518083038186803b158015613aa057600080fd5b505afa158015613ab4573d6000803e3d6000fd5b50505050613ac0612989565b73ffffffffffffffffffffffffffffffffffffffff16632528f0fe6004546040518263ffffffff1660e01b8152600401613afa9190617acb565b60206040518083038186803b158015613b1257600080fd5b505afa158015613b26573d6000803e3d6000fd5b505050506040513d601f19601f82011682018060405250613b4a9190810190616b79565b15613b8a576040517f08c379a0000000000000000000000000000000000000000000000000000000008152600401613b8190617e80565b60405180910390fd5b60008111613bcd576040517f08c379a0000000000000000000000000000000000000000000000000000000008152600401613bc490617d00565b60405180910390fd5b613bd56166c3565b600560009054906101000a900473ffffffffffffffffffffffffffffffffffffffff1673ffffffffffffffffffffffffffffffffffffffff1663a1c5158686856040518363ffffffff1660e01b8152600401613c32929190617a65565b6101206040518083038186803b158015613c4b57600080fd5b505afa158015613c5f573d6000803e3d6000fd5b505050506040513d601f19601f82011682018060405250613c839190810190616ca9565b9050613c8e8161521f565b613c97816152c5565b9050613ca884826060015184615867565b613cb28183615e4c565b90504281610100018181525050613cc7616114565b73ffffffffffffffffffffffffffffffffffffffff1663d6f32e068583606001516040518363ffffffff1660e01b8152600401613d05929190617a3c565b60206040518083038186803b158015613d1d57600080fd5b505afa158015613d31573d6000803e3d6000fd5b505050506040513d601f19601f82011682018060405250613d559190810190616b79565b15613d95576040517f08c379a0000000000000000000000000000000000000000000000000000000008152600401613d8c90617fa0565b60405180910390fd5b613db5600860008360600151815260200190815260200160002054616144565b73ffffffffffffffffffffffffffffffffffffffff16639dc29fac85846040518363ffffffff1660e01b8152600401613def929190617a65565b600060405180830381600087803b158015613e0957600080fd5b505af1158015613e1d573d6000803e3d6000fd5b50505050600560009054906101000a900473ffffffffffffffffffffffffffffffffffffffff1673ffffffffffffffffffffffffffffffffffffffff166344dce41c826040518263ffffffff1660e01b8152600401613e7c9190617fc0565b600060405180830381600087803b158015613e9657600080fd5b505af1158015613eaa573d6000803e3d6000fd5b505050508373ffffffffffffffffffffffffffffffffffffffff168573ffffffffffffffffffffffffffffffffffffffff167fdf10512219e869922340b1b24b21d7d79bf71f411a6391cc7c3ef5dd2fe89e7f85858560800151604051613f139392919061808e565b60405180910390a35050505050565b613f2a6151ef565b73ffffffffffffffffffffffffffffffffffffffff16637c3125416040518163ffffffff1660e01b815260040160006040518083038186803b158015613f6f57600080fd5b505afa158015613f83573d6000803e3d6000fd5b50505050613f8f612989565b73ffffffffffffffffffffffffffffffffffffffff16632528f0fe6004546040518263ffffffff1660e01b8152600401613fc99190617acb565b60206040518083038186803b158015613fe157600080fd5b505afa158015613ff5573d6000803e3d6000fd5b505050506040513d601f19601f820116820180604052506140199190810190616b79565b15614059576040517f08c379a000000000000000000000000000000000000000000000000000000000815260040161405090617e80565b60405180910390fd5b6140616166c3565b600560009054906101000a900473ffffffffffffffffffffffffffffffffffffffff1673ffffffffffffffffffffffffffffffffffffffff1663a1c5158633856040518363ffffffff1660e01b81526004016140be9291906179ea565b6101206040518083038186803b1580156140d757600080fd5b505afa1580156140eb573d6000803e3d6000fd5b505050506040513d601f19601f8201168201806040525061410f9190810190616ca9565b905061411a8161521f565b614123816152c5565b905061413c8282608001516129b990919063ffffffff16565b816080018181525050600a5461415182611c1d565b11614191576040517f08c379a000000000000000000000000000000000000000000000000000000000815260040161418890617c80565b60405180910390fd5b60006141a8600c548461656790919063ffffffff16565b905060006141bf82856146bb90919063ffffffff16565b90508260a0015115614483576141d36162cb565b73ffffffffffffffffffffffffffffffffffffffff1663e31f27c18460600151866040518363ffffffff1660e01b8152600401614211929190617b68565b600060405180830381600087803b15801561422b57600080fd5b505af115801561423f573d6000803e3d6000fd5b5050505061424b612880565b73ffffffffffffffffffffffffffffffffffffffff1663867904b43361426f612989565b73ffffffffffffffffffffffffffffffffffffffff1663654a60ac8760600151867f70555344000000000000000000000000000000000000000000000000000000006040518463ffffffff1660e01b81526004016142cf93929190617b91565b60206040518083038186803b1580156142e757600080fd5b505afa1580156142fb573d6000803e3d6000fd5b505050506040513d601f19601f8201168201806040525061431f9190810190616cfc565b6040518363ffffffff1660e01b815260040161433c9291906179ea565b600060405180830381600087803b15801561435657600080fd5b505af115801561436a573d6000803e3d6000fd5b50505050600073ffffffffffffffffffffffffffffffffffffffff16600960008560600151815260200190815260200160002060009054906101000a900473ffffffffffffffffffffffffffffffffffffffff1673ffffffffffffffffffffffffffffffffffffffff161461447e57600960008460600151815260200190815260200160002060009054906101000a900473ffffffffffffffffffffffffffffffffffffffff1673ffffffffffffffffffffffffffffffffffffffff1663db454a5133866040518363ffffffff1660e01b815260040161444b9291906179ea565b600060405180830381600087803b15801561446557600080fd5b505af1158015614479573d6000803e3d6000fd5b505050505b614588565b61448b6162cb565b73ffffffffffffffffffffffffffffffffffffffff1663eb94bbde8460600151866040518363ffffffff1660e01b81526004016144c9929190617b68565b600060405180830381600087803b1580156144e357600080fd5b505af11580156144f7573d6000803e3d6000fd5b5050505061451b600860008560600151815260200190815260200160002054616144565b73ffffffffffffffffffffffffffffffffffffffff1663867904b433836040518363ffffffff1660e01b81526004016145559291906179ea565b600060405180830381600087803b15801561456f57600080fd5b505af1158015614583573d6000803e3d6000fd5b505050505b6145968284606001516162f5565b4283610100018181525050600560009054906101000a900473ffffffffffffffffffffffffffffffffffffffff1673ffffffffffffffffffffffffffffffffffffffff166344dce41c846040518263ffffffff1660e01b81526004016145fc9190617fc0565b600060405180830381600087803b15801561461657600080fd5b505af115801561462a573d6000803e3d6000fd5b505050503373ffffffffffffffffffffffffffffffffffffffff167f5754fe57f36ac0f121901d7555aba517e6608590429d86a81c662cf3583106548686604051614676929190618065565b60405180910390a25050505050565b60006146b3826146a5601260ff16600a0a8661625b90919063ffffffff16565b61658390919063ffffffff16565b905092915050565b600082821115614700576040517f08c379a00000000000000000000000000000000000000000000000000000000081526004016146f790617de0565b60405180910390fd5b600082840390508091505092915050565b600061471b6151ef565b73ffffffffffffffffffffffffffffffffffffffff16637c3125416040518163ffffffff1660e01b815260040160006040518083038186803b15801561476057600080fd5b505afa158015614774573d6000803e3d6000fd5b50505050600f60009054906101000a900460ff166147c7576040517f08c379a00000000000000000000000000000000000000000000000000000000081526004016147be90617e40565b60405180910390fd5b6147cf612989565b73ffffffffffffffffffffffffffffffffffffffff16632528f0fe6004546040518263ffffffff1660e01b81526004016148099190617acb565b60206040518083038186803b15801561482157600080fd5b505afa158015614835573d6000803e3d6000fd5b505050506040513d601f19601f820116820180604052506148599190810190616b79565b15614899576040517f08c379a000000000000000000000000000000000000000000000000000000000815260040161489090617e80565b60405180910390fd5b6000801b6008600085815260200190815260200160002054116148f1576040517f08c379a00000000000000000000000000000000000000000000000000000000081526004016148e890617f00565b60405180910390fd5b6148f9612989565b73ffffffffffffffffffffffffffffffffffffffff16632528f0fe846040518263ffffffff1660e01b81526004016149319190617acb565b60206040518083038186803b15801561494957600080fd5b505afa15801561495d573d6000803e3d6000fd5b505050506040513d601f19601f820116820180604052506149819190810190616b79565b156149c1576040517f08c379a00000000000000000000000000000000000000000000000000000000081526004016149b890617da0565b60405180910390fd5b600b54851015614a06576040517f08c379a00000000000000000000000000000000000000000000000000000000081526004016149fd90617d80565b60405180910390fd5b600d54600560009054906101000a900473ffffffffffffffffffffffffffffffffffffffff1673ffffffffffffffffffffffffffffffffffffffff1663e0b6adbc336040518263ffffffff1660e01b8152600401614a649190617946565b60206040518083038186803b158015614a7c57600080fd5b505afa158015614a90573d6000803e3d6000fd5b505050506040513d601f19601f82011682018060405250614ab49190810190616cfc565b10614af4576040517f08c379a0000000000000000000000000000000000000000000000000000000008152600401614aeb90617d40565b60405180910390fd5b600080614aff6162cb565b73ffffffffffffffffffffffffffffffffffffffff1663b4d6cb4087876040518363ffffffff1660e01b8152600401614b3992919061803c565b604080518083038186803b158015614b5057600080fd5b505afa158015614b64573d6000803e3d6000fd5b505050506040513d601f19601f82011682018060405250614b889190810190616ba2565b91509150818015614b97575080155b614bd6576040517f08c379a0000000000000000000000000000000000000000000000000000000008152600401614bcd90617f40565b60405180910390fd5b614be087866117a1565b861115614c22576040517f08c379a0000000000000000000000000000000000000000000000000000000008152600401614c1990617ea0565b60405180910390fd5b6000614c39600c548861656790919063ffffffff16565b90506000614c5082896146bb90919063ffffffff16565b9050614c5a6162cb565b73ffffffffffffffffffffffffffffffffffffffff1663b3b467326040518163ffffffff1660e01b8152600401602060405180830381600087803b158015614ca157600080fd5b505af1158015614cb5573d6000803e3d6000fd5b505050506040513d601f19601f82011682018060405250614cd99190810190616cfc565b9450614ce36166c3565b6040518061012001604052808781526020013373ffffffffffffffffffffffffffffffffffffffff1681526020018b81526020018981526020018a815260200188151581526020016000815260200160008152602001428152509050614d48816152c5565b9050600560009054906101000a900473ffffffffffffffffffffffffffffffffffffffff1673ffffffffffffffffffffffffffffffffffffffff16635c331204826040518263ffffffff1660e01b8152600401614da59190617fc0565b600060405180830381600087803b158015614dbf57600080fd5b505af1158015614dd3573d6000803e3d6000fd5b50505050614de183896162f5565b861561508f57614def612880565b73ffffffffffffffffffffffffffffffffffffffff1663867904b433614e13612989565b73ffffffffffffffffffffffffffffffffffffffff1663654a60ac8c877f70555344000000000000000000000000000000000000000000000000000000006040518463ffffffff1660e01b8152600401614e6f93929190617b91565b60206040518083038186803b158015614e8757600080fd5b505afa158015614e9b573d6000803e3d6000fd5b505050506040513d601f19601f82011682018060405250614ebf9190810190616cfc565b6040518363ffffffff1660e01b8152600401614edc9291906179ea565b600060405180830381600087803b158015614ef657600080fd5b505af1158015614f0a573d6000803e3d6000fd5b50505050614f166162cb565b73ffffffffffffffffffffffffffffffffffffffff1663e31f27c1898b6040518363ffffffff1660e01b8152600401614f50929190617b68565b600060405180830381600087803b158015614f6a57600080fd5b505af1158015614f7e573d6000803e3d6000fd5b50505050600073ffffffffffffffffffffffffffffffffffffffff16600960008a815260200190815260200160002060009054906101000a900473ffffffffffffffffffffffffffffffffffffffff1673ffffffffffffffffffffffffffffffffffffffff161461508a576009600089815260200190815260200160002060009054906101000a900473ffffffffffffffffffffffffffffffffffffffff1673ffffffffffffffffffffffffffffffffffffffff1663db454a51338b6040518363ffffffff1660e01b81526004016150579291906179ea565b600060405180830381600087803b15801561507157600080fd5b505af1158015615085573d6000803e3d6000fd5b505050505b61518c565b6150ab600860008a815260200190815260200160002054616144565b73ffffffffffffffffffffffffffffffffffffffff1663867904b433846040518363ffffffff1660e01b81526004016150e59291906179ea565b600060405180830381600087803b1580156150ff57600080fd5b505af1158015615113573d6000803e3d6000fd5b5050505061511f6162cb565b73ffffffffffffffffffffffffffffffffffffffff1663eb94bbde898b6040518363ffffffff1660e01b8152600401615159929190617b68565b600060405180830381600087803b15801561517357600080fd5b505af1158015615187573d6000803e3d6000fd5b505050505b3373ffffffffffffffffffffffffffffffffffffffff167f604952b18be5fed608cbdd28101dc57bd667055c9678ec6d44fb1d8e4c7c172a878b8d8c886040516151da9594939291906180c5565b60405180910390a25050505050949350505050565b600061521a7f53797374656d5374617475730000000000000000000000000000000000000000616156565b905090565b60008160e0015111615266576040517f08c379a000000000000000000000000000000000000000000000000000000000815260040161525d90617f60565b60405180910390fd5b42615281600e548361010001516129b990919063ffffffff16565b11156152c2576040517f08c379a00000000000000000000000000000000000000000000000000000000081526004016152b990617ce0565b60405180910390fd5b50565b6152cd6166c3565b8190506000806000808560a00151615378576152e76162cb565b73ffffffffffffffffffffffffffffffffffffffff166303f048b08760e001516040518263ffffffff1660e01b81526004016153239190617fdc565b60806040518083038186803b15801561533b57600080fd5b505afa15801561534f573d6000803e3d6000fd5b505050506040513d601f19601f820116820180604052506153739190810190616e28565b615413565b6153806162cb565b73ffffffffffffffffffffffffffffffffffffffff1663af07aa9d87606001518860e001516040518363ffffffff1660e01b81526004016153c2929190617b68565b60806040518083038186803b1580156153da57600080fd5b505afa1580156153ee573d6000803e3d6000fd5b505050506040513d601f19601f820116820180604052506154129190810190616e28565b5b93509350935093506000808760a001516154b05761542f6162cb565b73ffffffffffffffffffffffffffffffffffffffff1663ba1c5e806040518163ffffffff1660e01b8152600401604080518083038186803b15801561547357600080fd5b505afa158015615487573d6000803e3d6000fd5b505050506040513d601f19601f820116820180604052506154ab9190810190616d25565b615557565b6154b86162cb565b73ffffffffffffffffffffffffffffffffffffffff1663ee81f790600860008b606001518152602001908152602001600020546040518263ffffffff1660e01b81526004016155079190617acb565b604080518083038186803b15801561551e57600080fd5b505afa158015615532573d6000803e3d6000fd5b505050506040513d601f19601f820116820180604052506155569190810190616d25565b5b91509150801561559c576040517f08c379a000000000000000000000000000000000000000000000000000000000815260040161559390617e20565b60405180910390fd5b600061563e73__$b8d33eeb36ac0d1e81cd70156e0043e778$__63907af6c06040518163ffffffff1660e01b815260040160206040518083038186803b1580156155e557600080fd5b505af41580156155f9573d6000803e3d6000fd5b505050506040513d601f19601f8201168201806040525061561d9190810190616cfc565b61563087426146bb90919063ffffffff16565b61625b90919063ffffffff16565b905060006156676156588386612a0e90919063ffffffff16565b886129b990919063ffffffff16565b90506000808b60e00151146156a45761569f61568c8a846146bb90919063ffffffff16565b8c60800151612a0e90919063ffffffff16565b6156a7565b60005b90508a60a00151615729576156ba6162cb565b73ffffffffffffffffffffffffffffffffffffffff1663f53037b6836040518263ffffffff1660e01b81526004016156f29190617fdc565b600060405180830381600087803b15801561570c57600080fd5b505af1158015615720573d6000803e3d6000fd5b505050506157a2565b6157316162cb565b73ffffffffffffffffffffffffffffffffffffffff1663246206398c60600151846040518363ffffffff1660e01b815260040161576f929190617b68565b600060405180830381600087803b15801561578957600080fd5b505af115801561579d573d6000803e3d6000fd5b505050505b6157b9818c60c001516129b990919063ffffffff16565b8a60c0018181525050858a60e0018181525050600560009054906101000a900473ffffffffffffffffffffffffffffffffffffffff1673ffffffffffffffffffffffffffffffffffffffff166344dce41c8b6040518263ffffffff1660e01b81526004016158279190617fc0565b600060405180830381600087803b15801561584157600080fd5b505af1158015615855573d6000803e3d6000fd5b50505050505050505050505050919050565b806158846008600085815260200190815260200160002054616144565b73ffffffffffffffffffffffffffffffffffffffff166370a08231856040518263ffffffff1660e01b81526004016158bc919061792b565b60206040518083038186803b1580156158d457600080fd5b505afa1580156158e8573d6000803e3d6000fd5b505050506040513d601f19601f8201168201806040525061590c9190810190616cfc565b101561594d576040517f08c379a000000000000000000000000000000000000000000000000000000000815260040161594490617f80565b60405180910390fd5b505050565b6000806159708360c0015184608001516129b990919063ffffffff16565b90506000836080015190508360400151925061598a616114565b73ffffffffffffffffffffffffffffffffffffffff1663d6f32e068686606001516040518363ffffffff1660e01b81526004016159c8929190617a3c565b60206040518083038186803b1580156159e057600080fd5b505afa1580156159f4573d6000803e3d6000fd5b505050506040513d601f19601f82011682018060405250615a189190810190616b79565b15615a58576040517f08c379a0000000000000000000000000000000000000000000000000000000008152600401615a4f90617fa0565b60405180910390fd5b615a78600860008660600151815260200190815260200160002054616144565b73ffffffffffffffffffffffffffffffffffffffff16639dc29fac86846040518363ffffffff1660e01b8152600401615ab2929190617a65565b600060405180830381600087803b158015615acc57600080fd5b505af1158015615ae0573d6000803e3d6000fd5b505050508360a0015115615c8357615af66162cb565b73ffffffffffffffffffffffffffffffffffffffff16635246f2b9856060015186608001516040518363ffffffff1660e01b8152600401615b38929190617b68565b600060405180830381600087803b158015615b5257600080fd5b505af1158015615b66573d6000803e3d6000fd5b50505050600073ffffffffffffffffffffffffffffffffffffffff16600960008660600151815260200190815260200160002060009054906101000a900473ffffffffffffffffffffffffffffffffffffffff1673ffffffffffffffffffffffffffffffffffffffff1614615c7e57600960008560600151815260200190815260200160002060009054906101000a900473ffffffffffffffffffffffffffffffffffffffff1673ffffffffffffffffffffffffffffffffffffffff1663f3fef3a38786608001516040518363ffffffff1660e01b8152600401615c4b929190617a65565b600060405180830381600087803b158015615c6557600080fd5b505af1158015615c79573d6000803e3d6000fd5b505050505b615d00565b615c8b6162cb565b73ffffffffffffffffffffffffffffffffffffffff1663e50a31b3856060015186608001516040518363ffffffff1660e01b8152600401615ccd929190617b68565b600060405180830381600087803b158015615ce757600080fd5b505af1158015615cfb573d6000803e3d6000fd5b505050505b615d128460c0015185606001516162f5565b6000846080018181525050600084604001818152505060008460c001818152505060008460e00181815250504284610100018181525050600560009054906101000a900473ffffffffffffffffffffffffffffffffffffffff1673ffffffffffffffffffffffffffffffffffffffff166344dce41c856040518263ffffffff1660e01b8152600401615da49190617fc0565b600060405180830381600087803b158015615dbe57600080fd5b505af1158015615dd2573d6000803e3d6000fd5b505050508473ffffffffffffffffffffffffffffffffffffffff168673ffffffffffffffffffffffffffffffffffffffff167f697721ed1b9d4866cb1aaa0692f62bb3abc1b01c2dafeaad053ffd4532aa7dbb86600001518487604051615e3b9392919061808e565b60405180910390a350509392505050565b615e546166c3565b829050600082118015615e6b575060008360c00151115b15615ed05760008360c001518311615e835782615e89565b8360c001515b9050615ea2818560c001516146bb90919063ffffffff16565b8260c0018181525050615ebe81846146bb90919063ffffffff16565b9250615ece8185606001516162f5565b505b600082111561610e57615ef08284608001516146bb90919063ffffffff16565b8160800181815250508060a001511561609457615f0b6162cb565b73ffffffffffffffffffffffffffffffffffffffff16635246f2b98260600151846040518363ffffffff1660e01b8152600401615f49929190617b68565b600060405180830381600087803b158015615f6357600080fd5b505af1158015615f77573d6000803e3d6000fd5b50505050600073ffffffffffffffffffffffffffffffffffffffff16600960008360600151815260200190815260200160002060009054906101000a900473ffffffffffffffffffffffffffffffffffffffff1673ffffffffffffffffffffffffffffffffffffffff161461608f57600960008260600151815260200190815260200160002060009054906101000a900473ffffffffffffffffffffffffffffffffffffffff1673ffffffffffffffffffffffffffffffffffffffff1663f3fef3a38260200151846040518363ffffffff1660e01b815260040161605c9291906179ea565b600060405180830381600087803b15801561607657600080fd5b505af115801561608a573d6000803e3d6000fd5b505050505b61610d565b61609c6162cb565b73ffffffffffffffffffffffffffffffffffffffff1663e50a31b38260600151846040518363ffffffff1660e01b81526004016160da929190617b68565b600060405180830381600087803b1580156160f457600080fd5b505af1158015616108573d6000803e3d6000fd5b505050505b5b92915050565b600061613f7f45786368616e6765720000000000000000000000000000000000000000000000616156565b905090565b600061614f82616156565b9050919050565b6000806003600084815260200190815260200160002060009054906101000a900473ffffffffffffffffffffffffffffffffffffffff169050600073ffffffffffffffffffffffffffffffffffffffff168173ffffffffffffffffffffffffffffffffffffffff161415836040516020016161d191906178df565b60405160208183030381529060405290616221576040517f08c379a00000000000000000000000000000000000000000000000000000000081526004016162189190617bfe565b60405180910390fd5b5080915050919050565b60006162567f466c657869626c6553746f726167650000000000000000000000000000000000616156565b905090565b60008083141561626e57600090506162c5565b600082840290508284828161627f57fe5b04146162c0576040517f08c379a00000000000000000000000000000000000000000000000000000000081526004016162b790617ee0565b60405180910390fd5b809150505b92915050565b6000600660009054906101000a900473ffffffffffffffffffffffffffffffffffffffff16905090565b6000821115616547577f705553440000000000000000000000000000000000000000000000000000000081146163dc5761632d612989565b73ffffffffffffffffffffffffffffffffffffffff1663654a60ac82847f70555344000000000000000000000000000000000000000000000000000000006040518463ffffffff1660e01b815260040161638993929190617b91565b60206040518083038186803b1580156163a157600080fd5b505afa1580156163b5573d6000803e3d6000fd5b505050506040513d601f19601f820116820180604052506163d99190810190616cfc565b91505b6163e4612880565b73ffffffffffffffffffffffffffffffffffffffff1663867904b46164076165df565b73ffffffffffffffffffffffffffffffffffffffff1663eb1edd616040518163ffffffff1660e01b815260040160206040518083038186803b15801561644c57600080fd5b505afa158015616460573d6000803e3d6000fd5b505050506040513d601f19601f820116820180604052506164849190810190616a27565b846040518363ffffffff1660e01b81526004016164a2929190617a65565b600060405180830381600087803b1580156164bc57600080fd5b505af11580156164d0573d6000803e3d6000fd5b505050506164dc6165df565b73ffffffffffffffffffffffffffffffffffffffff166322bf55ef836040518263ffffffff1660e01b81526004016165149190617fdc565b600060405180830381600087803b15801561652e57600080fd5b505af1158015616542573d6000803e3d6000fd5b505050505b5050565b600061655f8383601260ff16600a0a61660f565b905092915050565b600061657b8383601260ff16600a0a61666a565b905092915050565b60008082116165c7576040517f08c379a00000000000000000000000000000000000000000000000000000000081526004016165be90617e00565b60405180910390fd5b60008284816165d257fe5b0490508091505092915050565b600061660a7f466565506f6f6c00000000000000000000000000000000000000000000000000616156565b905090565b60008061663a8461662c600a86028861625b90919063ffffffff16565b61658390919063ffffffff16565b90506005600a828161664857fe5b061061665557600a810190505b600a818161665f57fe5b049150509392505050565b600080600a838161667757fe5b0461668b858761625b90919063ffffffff16565b8161669257fe5b0490506005600a82816166a157fe5b06106166ae57600a810190505b600a81816166b857fe5b049150509392505050565b60405180610120016040528060008152602001600073ffffffffffffffffffffffffffffffffffffffff1681526020016000815260200160008019168152602001600081526020016000151581526020016000815260200160008152602001600081525090565b600081359050616739816182d5565b92915050565b60008151905061674e816182d5565b92915050565b600081359050616763816182ec565b92915050565b600081519050616778816182ec565b92915050565b60008083601f84011261679057600080fd5b8235905067ffffffffffffffff8111156167a957600080fd5b6020830191508360208202830111156167c157600080fd5b9250929050565b6000813590506167d781618303565b92915050565b6000815190506167ec81618303565b92915050565b6000813590506168018161831a565b92915050565b6000815190506168168161831a565b92915050565b6000610120828403121561682f57600080fd5b61683a610120618118565b9050600061684a848285016169d4565b600083015250602061685e84828501616754565b6020830152506040616872848285016169d4565b6040830152506060616886848285016167f2565b606083015250608061689a848285016169d4565b60808301525060a06168ae848285016167c8565b60a08301525060c06168c2848285016169d4565b60c08301525060e06168d6848285016169d4565b60e0830152506101006168eb848285016169d4565b6101008301525092915050565b6000610120828403121561690b57600080fd5b616916610120618118565b90506000616926848285016169e9565b600083015250602061693a84828501616769565b602083015250604061694e848285016169e9565b604083015250606061696284828501616807565b6060830152506080616976848285016169e9565b60808301525060a061698a848285016167dd565b60a08301525060c061699e848285016169e9565b60c08301525060e06169b2848285016169e9565b60e0830152506101006169c7848285016169e9565b6101008301525092915050565b6000813590506169e381618331565b92915050565b6000815190506169f881618331565b92915050565b600060208284031215616a1057600080fd5b6000616a1e8482850161672a565b91505092915050565b600060208284031215616a3957600080fd5b6000616a478482850161673f565b91505092915050565b60008060408385031215616a6357600080fd5b6000616a718582860161672a565b9250506020616a82858286016167f2565b9150509250929050565b600080600060608486031215616aa157600080fd5b6000616aaf8682870161672a565b9350506020616ac0868287016169d4565b9250506040616ad1868287016169d4565b9150509250925092565b60008060008060408587031215616af157600080fd5b600085013567ffffffffffffffff811115616b0b57600080fd5b616b178782880161677e565b9450945050602085013567ffffffffffffffff811115616b3657600080fd5b616b428782880161677e565b925092505092959194509250565b600060208284031215616b6257600080fd5b6000616b70848285016167c8565b91505092915050565b600060208284031215616b8b57600080fd5b6000616b99848285016167dd565b91505092915050565b60008060408385031215616bb557600080fd5b6000616bc3858286016167dd565b9250506020616bd4858286016167dd565b9150509250929050565b600060208284031215616bf057600080fd5b6000616bfe848285016167f2565b91505092915050565b60008060408385031215616c1a57600080fd5b6000616c28858286016167f2565b9250506020616c398582860161672a565b9150509250929050565b60008060408385031215616c5657600080fd5b6000616c64858286016167f2565b9250506020616c75858286016169d4565b9150509250929050565b60006101208284031215616c9257600080fd5b6000616ca08482850161681c565b91505092915050565b60006101208284031215616cbc57600080fd5b6000616cca848285016168f8565b91505092915050565b600060208284031215616ce557600080fd5b6000616cf3848285016169d4565b91505092915050565b600060208284031215616d0e57600080fd5b6000616d1c848285016169e9565b91505092915050565b60008060408385031215616d3857600080fd5b6000616d46858286016169e9565b9250506020616d57858286016167dd565b9150509250929050565b60008060408385031215616d7457600080fd5b6000616d82858286016169d4565b9250506020616d93858286016167f2565b9150509250929050565b60008060408385031215616db057600080fd5b6000616dbe858286016169d4565b9250506020616dcf858286016169d4565b9150509250929050565b600080600060608486031215616dee57600080fd5b6000616dfc868287016169d4565b9350506020616e0d868287016169d4565b9250506040616e1e868287016167f2565b9150509250925092565b60008060008060808587031215616e3e57600080fd5b6000616e4c878288016169e9565b9450506020616e5d878288016169e9565b9350506040616e6e878288016169e9565b9250506060616e7f878288016169e9565b91505092959194509250565b6000616e978383616f4c565b60208301905092915050565b616eac81618209565b82525050565b616ebb816181b7565b82525050565b616eca816181a5565b82525050565b6000616edb82618155565b616ee58185618178565b9350616ef083618145565b8060005b83811015616f21578151616f088882616e8b565b9750616f138361816b565b925050600181019050616ef4565b5085935050505092915050565b616f37816181c9565b82525050565b616f46816181c9565b82525050565b616f55816181d5565b82525050565b616f64816181d5565b82525050565b616f7b616f76826181d5565b6182ba565b82525050565b616f8a8161821b565b82525050565b616f998161823f565b82525050565b6000616faa82618160565b616fb48185618189565b9350616fc4818560208601618287565b616fcd816182c4565b840191505092915050565b6000616fe5601b83618189565b91507f496e707574206172726179206c656e677468206d69736d6174636800000000006000830152602082019050919050565b6000617025601683618189565b91507f4d7573742062652067726561746572207468616e2031000000000000000000006000830152602082019050919050565b6000617065600e83618189565b91507f43726174696f20746f6f206c6f770000000000000000000000000000000000006000830152602082019050919050565b60006170a5601583618189565b91507f43616e6e6f7420647261772074686973206d75636800000000000000000000006000830152602082019050919050565b60006170e5603583618189565b91507f596f75206d757374206265206e6f6d696e61746564206265666f726520796f7560008301527f2063616e20616363657074206f776e65727368697000000000000000000000006020830152604082019050919050565b600061714b601983618189565b91507f416c6c6f77616e6365206e6f74206869676820656e6f756768000000000000006000830152602082019050919050565b600061718b601d83618189565b91507f4c6f616e20726563656e746c7920696e746572616374656420776974680000006000830152602082019050919050565b60006171cb601e83618189565b91507f5061796d656e74206d7573742062652067726561746572207468616e203000006000830152602082019050919050565b600061720b601b83618189565b91507f536166654d6174683a206164646974696f6e206f766572666c6f7700000000006000830152602082019050919050565b600061724b601283618189565b91507f4d6178206c6f616e7320657863656564656400000000000000000000000000006000830152602082019050919050565b600061728b601e83618189565b91507f43726174696f2061626f7665206c69717569646174696f6e20726174696f00006000830152602082019050919050565b60006172cb601d83618189565b91507f4e6f7420656e6f75676820636f6c6c61746572616c20746f206f70656e0000006000830152602082019050919050565b600061730b601883618189565b91507f43757272656e6379207261746520697320696e76616c696400000000000000006000830152602082019050919050565b600061734b602083618189565b91507f57616974696e672073656373206f7220736574746c656d656e74206f77696e676000830152602082019050919050565b600061738b601e83618189565b91507f536166654d6174683a207375627472616374696f6e206f766572666c6f7700006000830152602082019050919050565b60006173cb601a83618189565b91507f536166654d6174683a206469766973696f6e206279207a65726f0000000000006000830152602082019050919050565b600061740b60118361819a565b91507f4d697373696e6720616464726573733a200000000000000000000000000000006000830152601182019050919050565b600061744b601183618189565b91507f52617465732061726520696e76616c69640000000000000000000000000000006000830152602082019050919050565b600061748b601383618189565b91507f4f70656e696e672069732064697361626c6564000000000000000000000000006000830152602082019050919050565b60006174cb600a83618189565b91507f4d6178203120686f7572000000000000000000000000000000000000000000006000830152602082019050919050565b600061750b601a83618189565b91507f436f6c6c61746572616c207261746520697320696e76616c69640000000000006000830152602082019050919050565b600061754b601b83618189565b91507f45786365656473206d617820626f72726f77696e6720706f77657200000000006000830152602082019050919050565b600061758b602f83618189565b91507f4f6e6c792074686520636f6e7472616374206f776e6572206d6179207065726660008301527f6f726d207468697320616374696f6e00000000000000000000000000000000006020830152604082019050919050565b60006175f1602183618189565b91507f536166654d6174683a206d756c7469706c69636174696f6e206f766572666c6f60008301527f77000000000000000000000000000000000000000000000000000000000000006020830152604082019050919050565b6000617657601f83618189565b91507f4e6f7420616c6c6f77656420746f20697373756520746869732070796e7468006000830152602082019050919050565b6000617697601e83618189565b91507f4465706f736974206d7573742062652067726561746572207468616e203000006000830152602082019050919050565b60006176d7601a83618189565b91507f44656274206c696d6974206f7220696e76616c696420726174650000000000006000830152602082019050919050565b600061771760198361819a565b91507f5265736f6c766572206d697373696e67207461726765743a20000000000000006000830152601982019050919050565b6000617757601383618189565b91507f4c6f616e20646f6573206e6f74206578697374000000000000000000000000006000830152602082019050919050565b6000617797601883618189565b91507f4e6f7420656e6f7567682070796e74682062616c616e636500000000000000006000830152602082019050919050565b60006177d7601b83618189565b91507f57616974696e67206f7220736574746c656d656e74206f77696e6700000000006000830152602082019050919050565b6101208201600082015161782160008501826178c1565b5060208201516178346020850182616eb2565b50604082015161784760408501826178c1565b50606082015161785a6060850182616f4c565b50608082015161786d60808501826178c1565b5060a082015161788060a0850182616f2e565b5060c082015161789360c08501826178c1565b5060e08201516178a660e08501826178c1565b506101008201516178bb6101008501826178c1565b50505050565b6178ca816181ff565b82525050565b6178d9816181ff565b82525050565b60006178ea826173fe565b91506178f68284616f6a565b60208201915081905092915050565b60006179108261770a565b915061791c8284616f6a565b60208201915081905092915050565b60006020820190506179406000830184616ec1565b92915050565b600060208201905061795b6000830184616ea3565b92915050565b60006040820190506179766000830185616ea3565b6179836020830184616ec1565b9392505050565b600060608201905061799f6000830186616ea3565b6179ac6020830185616ec1565b6179b960408301846178d0565b949350505050565b60006040820190506179d66000830185616ea3565b6179e36020830184616f5b565b9392505050565b60006040820190506179ff6000830185616ea3565b617a0c60208301846178d0565b9392505050565b6000604082019050617a286000830185616ec1565b617a356020830184616ec1565b9392505050565b6000604082019050617a516000830185616ec1565b617a5e6020830184616f5b565b9392505050565b6000604082019050617a7a6000830185616ec1565b617a8760208301846178d0565b9392505050565b60006020820190508181036000830152617aa88184616ed0565b905092915050565b6000602082019050617ac56000830184616f3d565b92915050565b6000602082019050617ae06000830184616f5b565b92915050565b6000604082019050617afb6000830185616f5b565b617b086020830184616ec1565b9392505050565b6000604082019050617b246000830185616f5b565b617b316020830184616f5b565b9392505050565b6000604082019050617b4d6000830185616f5b565b8181036020830152617b5f8184616f9f565b90509392505050565b6000604082019050617b7d6000830185616f5b565b617b8a60208301846178d0565b9392505050565b6000606082019050617ba66000830186616f5b565b617bb360208301856178d0565b617bc06040830184616f5b565b949350505050565b6000602082019050617bdd6000830184616f81565b92915050565b6000602082019050617bf86000830184616f90565b92915050565b60006020820190508181036000830152617c188184616f9f565b905092915050565b60006020820190508181036000830152617c3981616fd8565b9050919050565b60006020820190508181036000830152617c5981617018565b9050919050565b60006020820190508181036000830152617c7981617058565b9050919050565b60006020820190508181036000830152617c9981617098565b9050919050565b60006020820190508181036000830152617cb9816170d8565b9050919050565b60006020820190508181036000830152617cd98161713e565b9050919050565b60006020820190508181036000830152617cf98161717e565b9050919050565b60006020820190508181036000830152617d19816171be565b9050919050565b60006020820190508181036000830152617d39816171fe565b9050919050565b60006020820190508181036000830152617d598161723e565b9050919050565b60006020820190508181036000830152617d798161727e565b9050919050565b60006020820190508181036000830152617d99816172be565b9050919050565b60006020820190508181036000830152617db9816172fe565b9050919050565b60006020820190508181036000830152617dd98161733e565b9050919050565b60006020820190508181036000830152617df98161737e565b9050919050565b60006020820190508181036000830152617e19816173be565b9050919050565b60006020820190508181036000830152617e398161743e565b9050919050565b60006020820190508181036000830152617e598161747e565b9050919050565b60006020820190508181036000830152617e79816174be565b9050919050565b60006020820190508181036000830152617e99816174fe565b9050919050565b60006020820190508181036000830152617eb98161753e565b9050919050565b60006020820190508181036000830152617ed98161757e565b9050919050565b60006020820190508181036000830152617ef9816175e4565b9050919050565b60006020820190508181036000830152617f198161764a565b9050919050565b60006020820190508181036000830152617f398161768a565b9050919050565b60006020820190508181036000830152617f59816176ca565b9050919050565b60006020820190508181036000830152617f798161774a565b9050919050565b60006020820190508181036000830152617f998161778a565b9050919050565b60006020820190508181036000830152617fb9816177ca565b9050919050565b600061012082019050617fd6600083018461780a565b92915050565b6000602082019050617ff160008301846178d0565b92915050565b600060808201905061800c60008301876178d0565b6180196020830186616ea3565b61802660408301856178d0565b61803360608301846178d0565b95945050505050565b600060408201905061805160008301856178d0565b61805e6020830184616f5b565b9392505050565b600060408201905061807a60008301856178d0565b61808760208301846178d0565b9392505050565b60006060820190506180a360008301866178d0565b6180b060208301856178d0565b6180bd60408301846178d0565b949350505050565b600060a0820190506180da60008301886178d0565b6180e760208301876178d0565b6180f460408301866178d0565b6181016060830185616f5b565b61810e60808301846178d0565b9695505050505050565b6000604051905081810181811067ffffffffffffffff8211171561813b57600080fd5b8060405250919050565b6000819050602082019050919050565b600081519050919050565b600081519050919050565b6000602082019050919050565b600082825260208201905092915050565b600082825260208201905092915050565b600081905092915050565b60006181b0826181df565b9050919050565b60006181c2826181df565b9050919050565b60008115159050919050565b6000819050919050565b600073ffffffffffffffffffffffffffffffffffffffff82169050919050565b6000819050919050565b600061821482618263565b9050919050565b60006182268261822d565b9050919050565b6000618238826181df565b9050919050565b600061824a82618251565b9050919050565b600061825c826181df565b9050919050565b600061826e82618275565b9050919050565b6000618280826181df565b9050919050565b60005b838110156182a557808201518184015260208101905061828a565b838111156182b4576000848401525b50505050565b6000819050919050565b6000601f19601f8301169050919050565b6182de816181a5565b81146182e957600080fd5b50565b6182f5816181b7565b811461830057600080fd5b50565b61830c816181c9565b811461831757600080fd5b50565b618323816181d5565b811461832e57600080fd5b50565b61833a816181ff565b811461834557600080fd5b5056fea365627a7a7231582081ea7e6921144f112c0c4c9614e792f87975f0dc149a440858216d1cbd46bc936c6578706572696d656e74616cf564736f6c63430005100040",
  "linkReferences": {
    "contracts/SafeDecimalMath.sol": {
      "SafeDecimalMath": [
        {
          "length": 20,
          "start": 3557
        },
        {
          "length": 20,
          "start": 3894
        },
        {
          "length": 20,
          "start": 5623
        },
        {
          "length": 20,
          "start": 9416
        },
        {
          "length": 20,
          "start": 15779
        },
        {
          "length": 20,
          "start": 23237
        }
      ]
    }
  },
  "deployedLinkReferences": {
    "contracts/SafeDecimalMath.sol": {
      "SafeDecimalMath": [
        {
          "length": 20,
          "start": 2243
        },
        {
          "length": 20,
          "start": 2580
        },
        {
          "length": 20,
          "start": 4309
        },
        {
          "length": 20,
          "start": 8102
        },
        {
          "length": 20,
          "start": 14465
        },
        {
          "length": 20,
          "start": 21923
        }
      ]
    }
  }
}